{
	"contracts/Project.sol": {
		"Project": {
			"abi": [
				{
					"inputs": [
						{
							"internalType": "address payable",
							"name": "_projectCreator",
							"type": "address"
						},
						{
							"internalType": "string",
							"name": "_projectTitle",
							"type": "string"
						},
						{
							"internalType": "string",
							"name": "_projectDescription",
							"type": "string"
						},
						{
							"internalType": "uint256",
							"name": "_amountGoal",
							"type": "uint256"
						},
						{
							"internalType": "uint256",
							"name": "_deadLine",
							"type": "uint256"
						}
					],
					"stateMutability": "nonpayable",
					"type": "constructor"
				},
				{
					"anonymous": false,
					"inputs": [
						{
							"indexed": false,
							"internalType": "address",
							"name": "_contributor",
							"type": "address"
						},
						{
							"indexed": false,
							"internalType": "uint256",
							"name": "_value",
							"type": "uint256"
						}
					],
					"name": "FundReceivedBy",
					"type": "event"
				},
				{
					"anonymous": false,
					"inputs": [
						{
							"indexed": false,
							"internalType": "string",
							"name": "_desc",
							"type": "string"
						},
						{
							"indexed": false,
							"internalType": "string",
							"name": "_projectTitle",
							"type": "string"
						}
					],
					"name": "FundRetreived",
					"type": "event"
				},
				{
					"anonymous": false,
					"inputs": [
						{
							"indexed": false,
							"internalType": "string",
							"name": "_desc",
							"type": "string"
						},
						{
							"indexed": false,
							"internalType": "string",
							"name": "_projectTitle",
							"type": "string"
						}
					],
					"name": "GoalReached",
					"type": "event"
				},
				{
					"anonymous": false,
					"inputs": [
						{
							"indexed": false,
							"internalType": "string",
							"name": "_projectTitle",
							"type": "string"
						},
						{
							"indexed": false,
							"internalType": "string",
							"name": "_desc",
							"type": "string"
						}
					],
					"name": "ProjectFunded",
					"type": "event"
				},
				{
					"inputs": [],
					"name": "contribute",
					"outputs": [],
					"stateMutability": "payable",
					"type": "function"
				},
				{
					"inputs": [],
					"name": "payOut",
					"outputs": [],
					"stateMutability": "nonpayable",
					"type": "function"
				},
				{
					"inputs": [],
					"name": "projectCreator",
					"outputs": [
						{
							"internalType": "address payable",
							"name": "",
							"type": "address"
						}
					],
					"stateMutability": "view",
					"type": "function"
				},
				{
					"inputs": [],
					"name": "retreiveFunds",
					"outputs": [],
					"stateMutability": "nonpayable",
					"type": "function"
				}
			],
			"devdoc": {
				"kind": "dev",
				"methods": {},
				"version": 1
			},
			"evm": {
				"assembly": "    /* \"contracts/Project.sol\":225:3719  contract Project {... */\n  mstore(0x40, 0x80)\n    /* \"contracts/Project.sol\":1500:1926  constructor... */\n  callvalue\n  dup1\n  iszero\n  tag_1\n  jumpi\n  0x00\n  dup1\n  revert\ntag_1:\n  pop\n  mload(0x40)\n  sub(codesize, bytecodeSize)\n  dup1\n  bytecodeSize\n  dup4\n  codecopy\n  dup2\n  dup2\n  add\n  0x40\n  mstore\n  dup2\n  add\n  swap1\n  tag_2\n  swap2\n  swap1\n  tag_3\n  jump\t// in\ntag_2:\n    /* \"contracts/Project.sol\":1724:1739  _projectCreator */\n  dup5\n    /* \"contracts/Project.sol\":1707:1721  projectCreator */\n  0x00\n  dup1\n    /* \"contracts/Project.sol\":1707:1739  projectCreator = _projectCreator */\n  0x0100\n  exp\n  dup2\n  sload\n  dup2\n  0xffffffffffffffffffffffffffffffffffffffff\n  mul\n  not\n  and\n  swap1\n  dup4\n  0xffffffffffffffffffffffffffffffffffffffff\n  and\n  mul\n  or\n  swap1\n  sstore\n  pop\n    /* \"contracts/Project.sol\":1764:1777  _projectTitle */\n  dup4\n    /* \"contracts/Project.sol\":1749:1761  projectTitle */\n  0x01\n    /* \"contracts/Project.sol\":1749:1777  projectTitle = _projectTitle */\n  swap1\n  dup1\n  mload\n  swap1\n  0x20\n  add\n  swap1\n  tag_6\n  swap3\n  swap2\n  swap1\n  tag_7\n  jump\t// in\ntag_6:\n  pop\n    /* \"contracts/Project.sol\":1808:1827  _projectDescription */\n  dup3\n    /* \"contracts/Project.sol\":1787:1805  projectDescription */\n  0x02\n    /* \"contracts/Project.sol\":1787:1827  projectDescription = _projectDescription */\n  swap1\n  dup1\n  mload\n  swap1\n  0x20\n  add\n  swap1\n  tag_8\n  swap3\n  swap2\n  swap1\n  tag_7\n  jump\t// in\ntag_8:\n  pop\n    /* \"contracts/Project.sol\":1850:1861  _amountGoal */\n  dup2\n    /* \"contracts/Project.sol\":1837:1847  amountGoal */\n  0x03\n    /* \"contracts/Project.sol\":1837:1861  amountGoal = _amountGoal */\n  dup2\n  swap1\n  sstore\n  pop\n    /* \"contracts/Project.sol\":1882:1891  _deadLine */\n  dup1\n    /* \"contracts/Project.sol\":1871:1879  deadLine */\n  0x06\n    /* \"contracts/Project.sol\":1871:1891  deadLine = _deadLine */\n  dup2\n  swap1\n  sstore\n  pop\n    /* \"contracts/Project.sol\":1918:1919  0 */\n  0x00\n    /* \"contracts/Project.sol\":1901:1915  currentBalance */\n  0x04\n    /* \"contracts/Project.sol\":1901:1919  currentBalance = 0 */\n  dup2\n  swap1\n  sstore\n  pop\n    /* \"contracts/Project.sol\":1500:1926  constructor... */\n  pop\n  pop\n  pop\n  pop\n  pop\n    /* \"contracts/Project.sol\":225:3719  contract Project {... */\n  jump(tag_9)\ntag_7:\n  dup3\n  dup1\n  sload\n  tag_10\n  swap1\n  tag_11\n  jump\t// in\ntag_10:\n  swap1\n  0x00\n  mstore\n  keccak256(0x00, 0x20)\n  swap1\n  0x1f\n  add\n  0x20\n  swap1\n  div\n  dup2\n  add\n  swap3\n  dup3\n  tag_13\n  jumpi\n  0x00\n  dup6\n  sstore\n  jump(tag_12)\ntag_13:\n  dup3\n  0x1f\n  lt\n  tag_14\n  jumpi\n  dup1\n  mload\n  not(0xff)\n  and\n  dup4\n  dup1\n  add\n  or\n  dup6\n  sstore\n  jump(tag_12)\ntag_14:\n  dup3\n  dup1\n  add\n  0x01\n  add\n  dup6\n  sstore\n  dup3\n  iszero\n  tag_12\n  jumpi\n  swap2\n  dup3\n  add\ntag_15:\n  dup3\n  dup2\n  gt\n  iszero\n  tag_16\n  jumpi\n  dup3\n  mload\n  dup3\n  sstore\n  swap2\n  0x20\n  add\n  swap2\n  swap1\n  0x01\n  add\n  swap1\n  jump(tag_15)\ntag_16:\ntag_12:\n  pop\n  swap1\n  pop\n  tag_17\n  swap2\n  swap1\n  tag_18\n  jump\t// in\ntag_17:\n  pop\n  swap1\n  jump\t// out\ntag_18:\ntag_19:\n  dup1\n  dup3\n  gt\n  iszero\n  tag_20\n  jumpi\n  0x00\n  dup2\n  0x00\n  swap1\n  sstore\n  pop\n  0x01\n  add\n  jump(tag_19)\ntag_20:\n  pop\n  swap1\n  jump\t// out\n    /* \"#utility.yul\":7:82   */\ntag_21:\n    /* \"#utility.yul\":40:46   */\n  0x00\n    /* \"#utility.yul\":73:75   */\n  0x40\n    /* \"#utility.yul\":67:76   */\n  mload\n    /* \"#utility.yul\":57:76   */\n  swap1\n  pop\n    /* \"#utility.yul\":7:82   */\n  swap1\n  jump\t// out\n    /* \"#utility.yul\":88:205   */\ntag_22:\n    /* \"#utility.yul\":197:198   */\n  0x00\n    /* \"#utility.yul\":194:195   */\n  dup1\n    /* \"#utility.yul\":187:199   */\n  revert\n    /* \"#utility.yul\":211:328   */\ntag_23:\n    /* \"#utility.yul\":320:321   */\n  0x00\n    /* \"#utility.yul\":317:318   */\n  dup1\n    /* \"#utility.yul\":310:322   */\n  revert\n    /* \"#utility.yul\":334:460   */\ntag_24:\n    /* \"#utility.yul\":371:378   */\n  0x00\n    /* \"#utility.yul\":411:453   */\n  0xffffffffffffffffffffffffffffffffffffffff\n    /* \"#utility.yul\":404:409   */\n  dup3\n    /* \"#utility.yul\":400:454   */\n  and\n    /* \"#utility.yul\":389:454   */\n  swap1\n  pop\n    /* \"#utility.yul\":334:460   */\n  swap2\n  swap1\n  pop\n  jump\t// out\n    /* \"#utility.yul\":466:570   */\ntag_25:\n    /* \"#utility.yul\":511:518   */\n  0x00\n    /* \"#utility.yul\":540:564   */\n  tag_48\n    /* \"#utility.yul\":558:563   */\n  dup3\n    /* \"#utility.yul\":540:564   */\n  tag_24\n  jump\t// in\ntag_48:\n    /* \"#utility.yul\":529:564   */\n  swap1\n  pop\n    /* \"#utility.yul\":466:570   */\n  swap2\n  swap1\n  pop\n  jump\t// out\n    /* \"#utility.yul\":576:714   */\ntag_26:\n    /* \"#utility.yul\":657:689   */\n  tag_50\n    /* \"#utility.yul\":683:688   */\n  dup2\n    /* \"#utility.yul\":657:689   */\n  tag_25\n  jump\t// in\ntag_50:\n    /* \"#utility.yul\":650:655   */\n  dup2\n    /* \"#utility.yul\":647:690   */\n  eq\n    /* \"#utility.yul\":637:708   */\n  tag_51\n  jumpi\n    /* \"#utility.yul\":704:705   */\n  0x00\n    /* \"#utility.yul\":701:702   */\n  dup1\n    /* \"#utility.yul\":694:706   */\n  revert\n    /* \"#utility.yul\":637:708   */\ntag_51:\n    /* \"#utility.yul\":576:714   */\n  pop\n  jump\t// out\n    /* \"#utility.yul\":720:879   */\ntag_27:\n    /* \"#utility.yul\":785:790   */\n  0x00\n    /* \"#utility.yul\":816:822   */\n  dup2\n    /* \"#utility.yul\":810:823   */\n  mload\n    /* \"#utility.yul\":801:823   */\n  swap1\n  pop\n    /* \"#utility.yul\":832:873   */\n  tag_53\n    /* \"#utility.yul\":867:872   */\n  dup2\n    /* \"#utility.yul\":832:873   */\n  tag_26\n  jump\t// in\ntag_53:\n    /* \"#utility.yul\":720:879   */\n  swap3\n  swap2\n  pop\n  pop\n  jump\t// out\n    /* \"#utility.yul\":885:1002   */\ntag_28:\n    /* \"#utility.yul\":994:995   */\n  0x00\n    /* \"#utility.yul\":991:992   */\n  dup1\n    /* \"#utility.yul\":984:996   */\n  revert\n    /* \"#utility.yul\":1008:1125   */\ntag_29:\n    /* \"#utility.yul\":1117:1118   */\n  0x00\n    /* \"#utility.yul\":1114:1115   */\n  dup1\n    /* \"#utility.yul\":1107:1119   */\n  revert\n    /* \"#utility.yul\":1131:1233   */\ntag_30:\n    /* \"#utility.yul\":1172:1178   */\n  0x00\n    /* \"#utility.yul\":1223:1225   */\n  0x1f\n    /* \"#utility.yul\":1219:1226   */\n  not\n    /* \"#utility.yul\":1214:1216   */\n  0x1f\n    /* \"#utility.yul\":1207:1212   */\n  dup4\n    /* \"#utility.yul\":1203:1217   */\n  add\n    /* \"#utility.yul\":1199:1227   */\n  and\n    /* \"#utility.yul\":1189:1227   */\n  swap1\n  pop\n    /* \"#utility.yul\":1131:1233   */\n  swap2\n  swap1\n  pop\n  jump\t// out\n    /* \"#utility.yul\":1239:1419   */\ntag_31:\n    /* \"#utility.yul\":1287:1364   */\n  0x4e487b7100000000000000000000000000000000000000000000000000000000\n    /* \"#utility.yul\":1284:1285   */\n  0x00\n    /* \"#utility.yul\":1277:1365   */\n  mstore\n    /* \"#utility.yul\":1384:1388   */\n  0x41\n    /* \"#utility.yul\":1381:1382   */\n  0x04\n    /* \"#utility.yul\":1374:1389   */\n  mstore\n    /* \"#utility.yul\":1408:1412   */\n  0x24\n    /* \"#utility.yul\":1405:1406   */\n  0x00\n    /* \"#utility.yul\":1398:1413   */\n  revert\n    /* \"#utility.yul\":1425:1706   */\ntag_32:\n    /* \"#utility.yul\":1508:1535   */\n  tag_59\n    /* \"#utility.yul\":1530:1534   */\n  dup3\n    /* \"#utility.yul\":1508:1535   */\n  tag_30\n  jump\t// in\ntag_59:\n    /* \"#utility.yul\":1500:1506   */\n  dup2\n    /* \"#utility.yul\":1496:1536   */\n  add\n    /* \"#utility.yul\":1638:1644   */\n  dup2\n    /* \"#utility.yul\":1626:1636   */\n  dup2\n    /* \"#utility.yul\":1623:1645   */\n  lt\n    /* \"#utility.yul\":1602:1620   */\n  0xffffffffffffffff\n    /* \"#utility.yul\":1590:1600   */\n  dup3\n    /* \"#utility.yul\":1587:1621   */\n  gt\n    /* \"#utility.yul\":1584:1646   */\n  or\n    /* \"#utility.yul\":1581:1669   */\n  iszero\n  tag_60\n  jumpi\n    /* \"#utility.yul\":1649:1667   */\n  tag_61\n  tag_31\n  jump\t// in\ntag_61:\n    /* \"#utility.yul\":1581:1669   */\ntag_60:\n    /* \"#utility.yul\":1689:1699   */\n  dup1\n    /* \"#utility.yul\":1685:1687   */\n  0x40\n    /* \"#utility.yul\":1678:1700   */\n  mstore\n    /* \"#utility.yul\":1468:1706   */\n  pop\n    /* \"#utility.yul\":1425:1706   */\n  pop\n  pop\n  jump\t// out\n    /* \"#utility.yul\":1712:1841   */\ntag_33:\n    /* \"#utility.yul\":1746:1752   */\n  0x00\n    /* \"#utility.yul\":1773:1793   */\n  tag_63\n  tag_21\n  jump\t// in\ntag_63:\n    /* \"#utility.yul\":1763:1793   */\n  swap1\n  pop\n    /* \"#utility.yul\":1802:1835   */\n  tag_64\n    /* \"#utility.yul\":1830:1834   */\n  dup3\n    /* \"#utility.yul\":1822:1828   */\n  dup3\n    /* \"#utility.yul\":1802:1835   */\n  tag_32\n  jump\t// in\ntag_64:\n    /* \"#utility.yul\":1712:1841   */\n  swap2\n  swap1\n  pop\n  jump\t// out\n    /* \"#utility.yul\":1847:2155   */\ntag_34:\n    /* \"#utility.yul\":1909:1913   */\n  0x00\n    /* \"#utility.yul\":1999:2017   */\n  0xffffffffffffffff\n    /* \"#utility.yul\":1991:1997   */\n  dup3\n    /* \"#utility.yul\":1988:2018   */\n  gt\n    /* \"#utility.yul\":1985:2041   */\n  iszero\n  tag_66\n  jumpi\n    /* \"#utility.yul\":2021:2039   */\n  tag_67\n  tag_31\n  jump\t// in\ntag_67:\n    /* \"#utility.yul\":1985:2041   */\ntag_66:\n    /* \"#utility.yul\":2059:2088   */\n  tag_68\n    /* \"#utility.yul\":2081:2087   */\n  dup3\n    /* \"#utility.yul\":2059:2088   */\n  tag_30\n  jump\t// in\ntag_68:\n    /* \"#utility.yul\":2051:2088   */\n  swap1\n  pop\n    /* \"#utility.yul\":2143:2147   */\n  0x20\n    /* \"#utility.yul\":2137:2141   */\n  dup2\n    /* \"#utility.yul\":2133:2148   */\n  add\n    /* \"#utility.yul\":2125:2148   */\n  swap1\n  pop\n    /* \"#utility.yul\":1847:2155   */\n  swap2\n  swap1\n  pop\n  jump\t// out\n    /* \"#utility.yul\":2161:2468   */\ntag_35:\n    /* \"#utility.yul\":2229:2230   */\n  0x00\n    /* \"#utility.yul\":2239:2352   */\ntag_70:\n    /* \"#utility.yul\":2253:2259   */\n  dup4\n    /* \"#utility.yul\":2250:2251   */\n  dup2\n    /* \"#utility.yul\":2247:2260   */\n  lt\n    /* \"#utility.yul\":2239:2352   */\n  iszero\n  tag_72\n  jumpi\n    /* \"#utility.yul\":2338:2339   */\n  dup1\n    /* \"#utility.yul\":2333:2336   */\n  dup3\n    /* \"#utility.yul\":2329:2340   */\n  add\n    /* \"#utility.yul\":2323:2341   */\n  mload\n    /* \"#utility.yul\":2319:2320   */\n  dup2\n    /* \"#utility.yul\":2314:2317   */\n  dup5\n    /* \"#utility.yul\":2310:2321   */\n  add\n    /* \"#utility.yul\":2303:2342   */\n  mstore\n    /* \"#utility.yul\":2275:2277   */\n  0x20\n    /* \"#utility.yul\":2272:2273   */\n  dup2\n    /* \"#utility.yul\":2268:2278   */\n  add\n    /* \"#utility.yul\":2263:2278   */\n  swap1\n  pop\n    /* \"#utility.yul\":2239:2352   */\n  jump(tag_70)\ntag_72:\n    /* \"#utility.yul\":2370:2376   */\n  dup4\n    /* \"#utility.yul\":2367:2368   */\n  dup2\n    /* \"#utility.yul\":2364:2377   */\n  gt\n    /* \"#utility.yul\":2361:2462   */\n  iszero\n  tag_73\n  jumpi\n    /* \"#utility.yul\":2450:2451   */\n  0x00\n    /* \"#utility.yul\":2441:2447   */\n  dup5\n    /* \"#utility.yul\":2436:2439   */\n  dup5\n    /* \"#utility.yul\":2432:2448   */\n  add\n    /* \"#utility.yul\":2425:2452   */\n  mstore\n    /* \"#utility.yul\":2361:2462   */\ntag_73:\n    /* \"#utility.yul\":2210:2468   */\n  pop\n    /* \"#utility.yul\":2161:2468   */\n  pop\n  pop\n  pop\n  jump\t// out\n    /* \"#utility.yul\":2474:2895   */\ntag_36:\n    /* \"#utility.yul\":2563:2568   */\n  0x00\n    /* \"#utility.yul\":2588:2654   */\n  tag_75\n    /* \"#utility.yul\":2604:2653   */\n  tag_76\n    /* \"#utility.yul\":2646:2652   */\n  dup5\n    /* \"#utility.yul\":2604:2653   */\n  tag_34\n  jump\t// in\ntag_76:\n    /* \"#utility.yul\":2588:2654   */\n  tag_33\n  jump\t// in\ntag_75:\n    /* \"#utility.yul\":2579:2654   */\n  swap1\n  pop\n    /* \"#utility.yul\":2677:2683   */\n  dup3\n    /* \"#utility.yul\":2670:2675   */\n  dup2\n    /* \"#utility.yul\":2663:2684   */\n  mstore\n    /* \"#utility.yul\":2715:2719   */\n  0x20\n    /* \"#utility.yul\":2708:2713   */\n  dup2\n    /* \"#utility.yul\":2704:2720   */\n  add\n    /* \"#utility.yul\":2753:2756   */\n  dup5\n    /* \"#utility.yul\":2744:2750   */\n  dup5\n    /* \"#utility.yul\":2739:2742   */\n  dup5\n    /* \"#utility.yul\":2735:2751   */\n  add\n    /* \"#utility.yul\":2732:2757   */\n  gt\n    /* \"#utility.yul\":2729:2841   */\n  iszero\n  tag_77\n  jumpi\n    /* \"#utility.yul\":2760:2839   */\n  tag_78\n  tag_29\n  jump\t// in\ntag_78:\n    /* \"#utility.yul\":2729:2841   */\ntag_77:\n    /* \"#utility.yul\":2850:2889   */\n  tag_79\n    /* \"#utility.yul\":2882:2888   */\n  dup5\n    /* \"#utility.yul\":2877:2880   */\n  dup3\n    /* \"#utility.yul\":2872:2875   */\n  dup6\n    /* \"#utility.yul\":2850:2889   */\n  tag_35\n  jump\t// in\ntag_79:\n    /* \"#utility.yul\":2569:2895   */\n  pop\n    /* \"#utility.yul\":2474:2895   */\n  swap4\n  swap3\n  pop\n  pop\n  pop\n  jump\t// out\n    /* \"#utility.yul\":2915:3270   */\ntag_37:\n    /* \"#utility.yul\":2982:2987   */\n  0x00\n    /* \"#utility.yul\":3031:3034   */\n  dup3\n    /* \"#utility.yul\":3024:3028   */\n  0x1f\n    /* \"#utility.yul\":3016:3022   */\n  dup4\n    /* \"#utility.yul\":3012:3029   */\n  add\n    /* \"#utility.yul\":3008:3035   */\n  slt\n    /* \"#utility.yul\":2998:3120   */\n  tag_81\n  jumpi\n    /* \"#utility.yul\":3039:3118   */\n  tag_82\n  tag_28\n  jump\t// in\ntag_82:\n    /* \"#utility.yul\":2998:3120   */\ntag_81:\n    /* \"#utility.yul\":3149:3155   */\n  dup2\n    /* \"#utility.yul\":3143:3156   */\n  mload\n    /* \"#utility.yul\":3174:3264   */\n  tag_83\n    /* \"#utility.yul\":3260:3263   */\n  dup5\n    /* \"#utility.yul\":3252:3258   */\n  dup3\n    /* \"#utility.yul\":3245:3249   */\n  0x20\n    /* \"#utility.yul\":3237:3243   */\n  dup7\n    /* \"#utility.yul\":3233:3250   */\n  add\n    /* \"#utility.yul\":3174:3264   */\n  tag_36\n  jump\t// in\ntag_83:\n    /* \"#utility.yul\":3165:3264   */\n  swap2\n  pop\n    /* \"#utility.yul\":2988:3270   */\n  pop\n    /* \"#utility.yul\":2915:3270   */\n  swap3\n  swap2\n  pop\n  pop\n  jump\t// out\n    /* \"#utility.yul\":3276:3353   */\ntag_38:\n    /* \"#utility.yul\":3313:3320   */\n  0x00\n    /* \"#utility.yul\":3342:3347   */\n  dup2\n    /* \"#utility.yul\":3331:3347   */\n  swap1\n  pop\n    /* \"#utility.yul\":3276:3353   */\n  swap2\n  swap1\n  pop\n  jump\t// out\n    /* \"#utility.yul\":3359:3481   */\ntag_39:\n    /* \"#utility.yul\":3432:3456   */\n  tag_86\n    /* \"#utility.yul\":3450:3455   */\n  dup2\n    /* \"#utility.yul\":3432:3456   */\n  tag_38\n  jump\t// in\ntag_86:\n    /* \"#utility.yul\":3425:3430   */\n  dup2\n    /* \"#utility.yul\":3422:3457   */\n  eq\n    /* \"#utility.yul\":3412:3475   */\n  tag_87\n  jumpi\n    /* \"#utility.yul\":3471:3472   */\n  0x00\n    /* \"#utility.yul\":3468:3469   */\n  dup1\n    /* \"#utility.yul\":3461:3473   */\n  revert\n    /* \"#utility.yul\":3412:3475   */\ntag_87:\n    /* \"#utility.yul\":3359:3481   */\n  pop\n  jump\t// out\n    /* \"#utility.yul\":3487:3630   */\ntag_40:\n    /* \"#utility.yul\":3544:3549   */\n  0x00\n    /* \"#utility.yul\":3575:3581   */\n  dup2\n    /* \"#utility.yul\":3569:3582   */\n  mload\n    /* \"#utility.yul\":3560:3582   */\n  swap1\n  pop\n    /* \"#utility.yul\":3591:3624   */\n  tag_89\n    /* \"#utility.yul\":3618:3623   */\n  dup2\n    /* \"#utility.yul\":3591:3624   */\n  tag_39\n  jump\t// in\ntag_89:\n    /* \"#utility.yul\":3487:3630   */\n  swap3\n  swap2\n  pop\n  pop\n  jump\t// out\n    /* \"#utility.yul\":3636:4975   */\ntag_3:\n    /* \"#utility.yul\":3770:3776   */\n  0x00\n    /* \"#utility.yul\":3778:3784   */\n  dup1\n    /* \"#utility.yul\":3786:3792   */\n  0x00\n    /* \"#utility.yul\":3794:3800   */\n  dup1\n    /* \"#utility.yul\":3802:3808   */\n  0x00\n    /* \"#utility.yul\":3851:3854   */\n  0xa0\n    /* \"#utility.yul\":3839:3848   */\n  dup7\n    /* \"#utility.yul\":3830:3837   */\n  dup9\n    /* \"#utility.yul\":3826:3849   */\n  sub\n    /* \"#utility.yul\":3822:3855   */\n  slt\n    /* \"#utility.yul\":3819:3939   */\n  iszero\n  tag_91\n  jumpi\n    /* \"#utility.yul\":3858:3937   */\n  tag_92\n  tag_22\n  jump\t// in\ntag_92:\n    /* \"#utility.yul\":3819:3939   */\ntag_91:\n    /* \"#utility.yul\":3978:3979   */\n  0x00\n    /* \"#utility.yul\":4003:4075   */\n  tag_93\n    /* \"#utility.yul\":4067:4074   */\n  dup9\n    /* \"#utility.yul\":4058:4064   */\n  dup3\n    /* \"#utility.yul\":4047:4056   */\n  dup10\n    /* \"#utility.yul\":4043:4065   */\n  add\n    /* \"#utility.yul\":4003:4075   */\n  tag_27\n  jump\t// in\ntag_93:\n    /* \"#utility.yul\":3993:4075   */\n  swap6\n  pop\n    /* \"#utility.yul\":3949:4085   */\n  pop\n    /* \"#utility.yul\":4145:4147   */\n  0x20\n    /* \"#utility.yul\":4134:4143   */\n  dup7\n    /* \"#utility.yul\":4130:4148   */\n  add\n    /* \"#utility.yul\":4124:4149   */\n  mload\n    /* \"#utility.yul\":4176:4194   */\n  0xffffffffffffffff\n    /* \"#utility.yul\":4168:4174   */\n  dup2\n    /* \"#utility.yul\":4165:4195   */\n  gt\n    /* \"#utility.yul\":4162:4279   */\n  iszero\n  tag_94\n  jumpi\n    /* \"#utility.yul\":4198:4277   */\n  tag_95\n  tag_23\n  jump\t// in\ntag_95:\n    /* \"#utility.yul\":4162:4279   */\ntag_94:\n    /* \"#utility.yul\":4303:4377   */\n  tag_96\n    /* \"#utility.yul\":4369:4376   */\n  dup9\n    /* \"#utility.yul\":4360:4366   */\n  dup3\n    /* \"#utility.yul\":4349:4358   */\n  dup10\n    /* \"#utility.yul\":4345:4367   */\n  add\n    /* \"#utility.yul\":4303:4377   */\n  tag_37\n  jump\t// in\ntag_96:\n    /* \"#utility.yul\":4293:4377   */\n  swap5\n  pop\n    /* \"#utility.yul\":4095:4387   */\n  pop\n    /* \"#utility.yul\":4447:4449   */\n  0x40\n    /* \"#utility.yul\":4436:4445   */\n  dup7\n    /* \"#utility.yul\":4432:4450   */\n  add\n    /* \"#utility.yul\":4426:4451   */\n  mload\n    /* \"#utility.yul\":4478:4496   */\n  0xffffffffffffffff\n    /* \"#utility.yul\":4470:4476   */\n  dup2\n    /* \"#utility.yul\":4467:4497   */\n  gt\n    /* \"#utility.yul\":4464:4581   */\n  iszero\n  tag_97\n  jumpi\n    /* \"#utility.yul\":4500:4579   */\n  tag_98\n  tag_23\n  jump\t// in\ntag_98:\n    /* \"#utility.yul\":4464:4581   */\ntag_97:\n    /* \"#utility.yul\":4605:4679   */\n  tag_99\n    /* \"#utility.yul\":4671:4678   */\n  dup9\n    /* \"#utility.yul\":4662:4668   */\n  dup3\n    /* \"#utility.yul\":4651:4660   */\n  dup10\n    /* \"#utility.yul\":4647:4669   */\n  add\n    /* \"#utility.yul\":4605:4679   */\n  tag_37\n  jump\t// in\ntag_99:\n    /* \"#utility.yul\":4595:4679   */\n  swap4\n  pop\n    /* \"#utility.yul\":4397:4689   */\n  pop\n    /* \"#utility.yul\":4728:4730   */\n  0x60\n    /* \"#utility.yul\":4754:4818   */\n  tag_100\n    /* \"#utility.yul\":4810:4817   */\n  dup9\n    /* \"#utility.yul\":4801:4807   */\n  dup3\n    /* \"#utility.yul\":4790:4799   */\n  dup10\n    /* \"#utility.yul\":4786:4808   */\n  add\n    /* \"#utility.yul\":4754:4818   */\n  tag_40\n  jump\t// in\ntag_100:\n    /* \"#utility.yul\":4744:4818   */\n  swap3\n  pop\n    /* \"#utility.yul\":4699:4828   */\n  pop\n    /* \"#utility.yul\":4867:4870   */\n  0x80\n    /* \"#utility.yul\":4894:4958   */\n  tag_101\n    /* \"#utility.yul\":4950:4957   */\n  dup9\n    /* \"#utility.yul\":4941:4947   */\n  dup3\n    /* \"#utility.yul\":4930:4939   */\n  dup10\n    /* \"#utility.yul\":4926:4948   */\n  add\n    /* \"#utility.yul\":4894:4958   */\n  tag_40\n  jump\t// in\ntag_101:\n    /* \"#utility.yul\":4884:4958   */\n  swap2\n  pop\n    /* \"#utility.yul\":4838:4968   */\n  pop\n    /* \"#utility.yul\":3636:4975   */\n  swap3\n  swap6\n  pop\n  swap3\n  swap6\n  swap1\n  swap4\n  pop\n  jump\t// out\n    /* \"#utility.yul\":4981:5161   */\ntag_41:\n    /* \"#utility.yul\":5029:5106   */\n  0x4e487b7100000000000000000000000000000000000000000000000000000000\n    /* \"#utility.yul\":5026:5027   */\n  0x00\n    /* \"#utility.yul\":5019:5107   */\n  mstore\n    /* \"#utility.yul\":5126:5130   */\n  0x22\n    /* \"#utility.yul\":5123:5124   */\n  0x04\n    /* \"#utility.yul\":5116:5131   */\n  mstore\n    /* \"#utility.yul\":5150:5154   */\n  0x24\n    /* \"#utility.yul\":5147:5148   */\n  0x00\n    /* \"#utility.yul\":5140:5155   */\n  revert\n    /* \"#utility.yul\":5167:5487   */\ntag_11:\n    /* \"#utility.yul\":5211:5217   */\n  0x00\n    /* \"#utility.yul\":5248:5249   */\n  0x02\n    /* \"#utility.yul\":5242:5246   */\n  dup3\n    /* \"#utility.yul\":5238:5250   */\n  div\n    /* \"#utility.yul\":5228:5250   */\n  swap1\n  pop\n    /* \"#utility.yul\":5295:5296   */\n  0x01\n    /* \"#utility.yul\":5289:5293   */\n  dup3\n    /* \"#utility.yul\":5285:5297   */\n  and\n    /* \"#utility.yul\":5316:5334   */\n  dup1\n    /* \"#utility.yul\":5306:5387   */\n  tag_104\n  jumpi\n    /* \"#utility.yul\":5372:5376   */\n  0x7f\n    /* \"#utility.yul\":5364:5370   */\n  dup3\n    /* \"#utility.yul\":5360:5377   */\n  and\n    /* \"#utility.yul\":5350:5377   */\n  swap2\n  pop\n    /* \"#utility.yul\":5306:5387   */\ntag_104:\n    /* \"#utility.yul\":5434:5436   */\n  0x20\n    /* \"#utility.yul\":5426:5432   */\n  dup3\n    /* \"#utility.yul\":5423:5437   */\n  lt\n    /* \"#utility.yul\":5403:5421   */\n  dup2\n    /* \"#utility.yul\":5400:5438   */\n  sub\n    /* \"#utility.yul\":5397:5481   */\n  tag_105\n  jumpi\n    /* \"#utility.yul\":5453:5471   */\n  tag_106\n  tag_41\n  jump\t// in\ntag_106:\n    /* \"#utility.yul\":5397:5481   */\ntag_105:\n    /* \"#utility.yul\":5218:5487   */\n  pop\n    /* \"#utility.yul\":5167:5487   */\n  swap2\n  swap1\n  pop\n  jump\t// out\n    /* \"contracts/Project.sol\":225:3719  contract Project {... */\ntag_9:\n  dataSize(sub_0)\n  dup1\n  dataOffset(sub_0)\n  0x00\n  codecopy\n  0x00\n  return\nstop\n\nsub_0: assembly {\n        /* \"contracts/Project.sol\":225:3719  contract Project {... */\n      mstore(0x40, 0x80)\n      jumpi(tag_1, lt(calldatasize, 0x04))\n      shr(0xe0, calldataload(0x00))\n      dup1\n      0x1beab5e8\n      eq\n      tag_2\n      jumpi\n      dup1\n      0xa541a2a2\n      eq\n      tag_3\n      jumpi\n      dup1\n      0xc2052403\n      eq\n      tag_4\n      jumpi\n      dup1\n      0xd7bb99ba\n      eq\n      tag_5\n      jumpi\n    tag_1:\n      0x00\n      dup1\n      revert\n        /* \"contracts/Project.sol\":3363:3638  function retreiveFunds() isCreator(msg.sender) inState(State.Fundraising) public {... */\n    tag_2:\n      callvalue\n      dup1\n      iszero\n      tag_6\n      jumpi\n      0x00\n      dup1\n      revert\n    tag_6:\n      pop\n      tag_7\n      tag_8\n      jump\t// in\n    tag_7:\n      stop\n        /* \"contracts/Project.sol\":360:397  address payable public projectCreator */\n    tag_3:\n      callvalue\n      dup1\n      iszero\n      tag_9\n      jumpi\n      0x00\n      dup1\n      revert\n    tag_9:\n      pop\n      tag_10\n      tag_11\n      jump\t// in\n    tag_10:\n      mload(0x40)\n      tag_12\n      swap2\n      swap1\n      tag_13\n      jump\t// in\n    tag_12:\n      mload(0x40)\n      dup1\n      swap2\n      sub\n      swap1\n      return\n        /* \"contracts/Project.sol\":3110:3271  function payOut() public inState(State.Successful){... */\n    tag_4:\n      callvalue\n      dup1\n      iszero\n      tag_14\n      jumpi\n      0x00\n      dup1\n      revert\n    tag_14:\n      pop\n      tag_15\n      tag_16\n      jump\t// in\n    tag_15:\n      stop\n        /* \"contracts/Project.sol\":2347:2702  function contribute() public payable inState(State.Fundraising) isFundingDelayNotExpired {... */\n    tag_5:\n      tag_17\n      tag_18\n      jump\t// in\n    tag_17:\n      stop\n        /* \"contracts/Project.sol\":3363:3638  function retreiveFunds() isCreator(msg.sender) inState(State.Fundraising) public {... */\n    tag_8:\n        /* \"contracts/Project.sol\":3398:3408  msg.sender */\n      caller\n        /* \"contracts/Project.sol\":1301:1309  _address */\n      dup1\n        /* \"contracts/Project.sol\":1283:1309  projectCreator == _address */\n      0xffffffffffffffffffffffffffffffffffffffff\n      and\n        /* \"contracts/Project.sol\":1283:1297  projectCreator */\n      0x00\n      dup1\n      sload\n      swap1\n      0x0100\n      exp\n      swap1\n      div\n      0xffffffffffffffffffffffffffffffffffffffff\n      and\n        /* \"contracts/Project.sol\":1283:1309  projectCreator == _address */\n      0xffffffffffffffffffffffffffffffffffffffff\n      and\n      eq\n        /* \"contracts/Project.sol\":1275:1310  require(projectCreator == _address) */\n      tag_20\n      jumpi\n      0x00\n      dup1\n      revert\n    tag_20:\n        /* \"contracts/Project.sol\":3418:3435  State.Fundraising */\n      0x00\n        /* \"contracts/Project.sol\":1160:1166  _state */\n      dup1\n        /* \"contracts/Project.sol\":1151:1166  state == _state */\n      0x02\n      dup2\n      gt\n      iszero\n      tag_22\n      jumpi\n      tag_23\n      tag_24\n      jump\t// in\n    tag_23:\n    tag_22:\n        /* \"contracts/Project.sol\":1151:1156  state */\n      0x05\n      0x00\n      swap1\n      sload\n      swap1\n      0x0100\n      exp\n      swap1\n      div\n      0xff\n      and\n        /* \"contracts/Project.sol\":1151:1166  state == _state */\n      0x02\n      dup2\n      gt\n      iszero\n      tag_25\n      jumpi\n      tag_26\n      tag_24\n      jump\t// in\n    tag_26:\n    tag_25:\n      eq\n        /* \"contracts/Project.sol\":1143:1167  require(state == _state) */\n      tag_27\n      jumpi\n      0x00\n      dup1\n      revert\n    tag_27:\n        /* \"contracts/Project.sol\":3480:3488  deadLine */\n      sload(0x06)\n        /* \"contracts/Project.sol\":3462:3477  block.timestamp */\n      timestamp\n        /* \"contracts/Project.sol\":3462:3488  block.timestamp > deadLine */\n      gt\n        /* \"contracts/Project.sol\":3454:3489  require(block.timestamp > deadLine) */\n      tag_29\n      jumpi\n      0x00\n      dup1\n      revert\n    tag_29:\n        /* \"contracts/Project.sol\":3499:3522  setState(State.Expired) */\n      tag_30\n        /* \"contracts/Project.sol\":3508:3521  State.Expired */\n      0x01\n        /* \"contracts/Project.sol\":3499:3507  setState */\n      tag_31\n        /* \"contracts/Project.sol\":3499:3522  setState(State.Expired) */\n      jump\t// in\n    tag_30:\n        /* \"contracts/Project.sol\":3532:3546  projectCreator */\n      0x00\n      dup1\n      sload\n      swap1\n      0x0100\n      exp\n      swap1\n      div\n      0xffffffffffffffffffffffffffffffffffffffff\n      and\n        /* \"contracts/Project.sol\":3532:3555  projectCreator.transfer */\n      0xffffffffffffffffffffffffffffffffffffffff\n      and\n        /* \"contracts/Project.sol\":3532:3571  projectCreator.transfer(currentBalance) */\n      0x08fc\n        /* \"contracts/Project.sol\":3556:3570  currentBalance */\n      sload(0x04)\n        /* \"contracts/Project.sol\":3532:3571  projectCreator.transfer(currentBalance) */\n      swap1\n      dup2\n      iszero\n      mul\n      swap1\n      mload(0x40)\n      0x00\n      mload(0x40)\n      dup1\n      dup4\n      sub\n      dup2\n      dup6\n      dup9\n      dup9\n      call\n      swap4\n      pop\n      pop\n      pop\n      pop\n      iszero\n      dup1\n      iszero\n      tag_33\n      jumpi\n      returndatasize\n      0x00\n      dup1\n      returndatacopy\n      revert(0x00, returndatasize)\n    tag_33:\n      pop\n        /* \"contracts/Project.sol\":3586:3631  FundRetreived(\"Fund retreived\", projectTitle) */\n      0x6567369884327ec669abad9dc032c3fc1b6c1b77aed67e31f8311864551e74\n        /* \"contracts/Project.sol\":3618:3630  projectTitle */\n      0x01\n        /* \"contracts/Project.sol\":3586:3631  FundRetreived(\"Fund retreived\", projectTitle) */\n      mload(0x40)\n      tag_34\n      swap2\n      swap1\n      tag_35\n      jump\t// in\n    tag_34:\n      mload(0x40)\n      dup1\n      swap2\n      sub\n      swap1\n      log1\n        /* \"contracts/Project.sol\":1320:1321  _ */\n      pop\n        /* \"contracts/Project.sol\":3363:3638  function retreiveFunds() isCreator(msg.sender) inState(State.Fundraising) public {... */\n      pop\n      jump\t// out\n        /* \"contracts/Project.sol\":360:397  address payable public projectCreator */\n    tag_11:\n      0x00\n      dup1\n      sload\n      swap1\n      0x0100\n      exp\n      swap1\n      div\n      0xffffffffffffffffffffffffffffffffffffffff\n      and\n      dup2\n      jump\t// out\n        /* \"contracts/Project.sol\":3110:3271  function payOut() public inState(State.Successful){... */\n    tag_16:\n        /* \"contracts/Project.sol\":3143:3159  State.Successful */\n      0x02\n        /* \"contracts/Project.sol\":1160:1166  _state */\n      dup1\n        /* \"contracts/Project.sol\":1151:1166  state == _state */\n      0x02\n      dup2\n      gt\n      iszero\n      tag_37\n      jumpi\n      tag_38\n      tag_24\n      jump\t// in\n    tag_38:\n    tag_37:\n        /* \"contracts/Project.sol\":1151:1156  state */\n      0x05\n      0x00\n      swap1\n      sload\n      swap1\n      0x0100\n      exp\n      swap1\n      div\n      0xff\n      and\n        /* \"contracts/Project.sol\":1151:1166  state == _state */\n      0x02\n      dup2\n      gt\n      iszero\n      tag_39\n      jumpi\n      tag_40\n      tag_24\n      jump\t// in\n    tag_40:\n    tag_39:\n      eq\n        /* \"contracts/Project.sol\":1143:1167  require(state == _state) */\n      tag_41\n      jumpi\n      0x00\n      dup1\n      revert\n    tag_41:\n        /* \"contracts/Project.sol\":3170:3184  projectCreator */\n      0x00\n      dup1\n      sload\n      swap1\n      0x0100\n      exp\n      swap1\n      div\n      0xffffffffffffffffffffffffffffffffffffffff\n      and\n        /* \"contracts/Project.sol\":3170:3193  projectCreator.transfer */\n      0xffffffffffffffffffffffffffffffffffffffff\n      and\n        /* \"contracts/Project.sol\":3170:3209  projectCreator.transfer(currentBalance) */\n      0x08fc\n        /* \"contracts/Project.sol\":3194:3208  currentBalance */\n      sload(0x04)\n        /* \"contracts/Project.sol\":3170:3209  projectCreator.transfer(currentBalance) */\n      swap1\n      dup2\n      iszero\n      mul\n      swap1\n      mload(0x40)\n      0x00\n      mload(0x40)\n      dup1\n      dup4\n      sub\n      dup2\n      dup6\n      dup9\n      dup9\n      call\n      swap4\n      pop\n      pop\n      pop\n      pop\n      iszero\n      dup1\n      iszero\n      tag_44\n      jumpi\n      returndatasize\n      0x00\n      dup1\n      returndatacopy\n      revert(0x00, returndatasize)\n    tag_44:\n      pop\n        /* \"contracts/Project.sol\":3224:3264  ProjectFunded(projectTitle, \"is Funded\") */\n      0xda700ea0a4f90d17381707c06ca4125e32c8a65b28e82ff0d1850af50a6d4ccd\n        /* \"contracts/Project.sol\":3238:3250  projectTitle */\n      0x01\n        /* \"contracts/Project.sol\":3224:3264  ProjectFunded(projectTitle, \"is Funded\") */\n      mload(0x40)\n      tag_45\n      swap2\n      swap1\n      tag_46\n      jump\t// in\n    tag_45:\n      mload(0x40)\n      dup1\n      swap2\n      sub\n      swap1\n      log1\n        /* \"contracts/Project.sol\":3110:3271  function payOut() public inState(State.Successful){... */\n      pop\n      jump\t// out\n        /* \"contracts/Project.sol\":2347:2702  function contribute() public payable inState(State.Fundraising) isFundingDelayNotExpired {... */\n    tag_18:\n        /* \"contracts/Project.sol\":2392:2409  State.Fundraising */\n      0x00\n        /* \"contracts/Project.sol\":1160:1166  _state */\n      dup1\n        /* \"contracts/Project.sol\":1151:1166  state == _state */\n      0x02\n      dup2\n      gt\n      iszero\n      tag_48\n      jumpi\n      tag_49\n      tag_24\n      jump\t// in\n    tag_49:\n    tag_48:\n        /* \"contracts/Project.sol\":1151:1156  state */\n      0x05\n      0x00\n      swap1\n      sload\n      swap1\n      0x0100\n      exp\n      swap1\n      div\n      0xff\n      and\n        /* \"contracts/Project.sol\":1151:1166  state == _state */\n      0x02\n      dup2\n      gt\n      iszero\n      tag_50\n      jumpi\n      tag_51\n      tag_24\n      jump\t// in\n    tag_51:\n    tag_50:\n      eq\n        /* \"contracts/Project.sol\":1143:1167  require(state == _state) */\n      tag_52\n      jumpi\n      0x00\n      dup1\n      revert\n    tag_52:\n        /* \"contracts/Project.sol\":1463:1471  deadLine */\n      sload(0x06)\n        /* \"contracts/Project.sol\":1444:1459  block.timestamp */\n      timestamp\n        /* \"contracts/Project.sol\":1444:1471  block.timestamp <= deadLine */\n      gt\n      iszero\n        /* \"contracts/Project.sol\":1436:1472  require(block.timestamp <= deadLine) */\n      tag_54\n      jumpi\n      0x00\n      dup1\n      revert\n    tag_54:\n        /* \"contracts/Project.sol\":2468:2482  projectCreator */\n      0x00\n      dup1\n      sload\n      swap1\n      0x0100\n      exp\n      swap1\n      div\n      0xffffffffffffffffffffffffffffffffffffffff\n      and\n        /* \"contracts/Project.sol\":2454:2482  msg.sender != projectCreator */\n      0xffffffffffffffffffffffffffffffffffffffff\n      and\n        /* \"contracts/Project.sol\":2454:2464  msg.sender */\n      caller\n        /* \"contracts/Project.sol\":2454:2482  msg.sender != projectCreator */\n      0xffffffffffffffffffffffffffffffffffffffff\n      and\n      sub\n        /* \"contracts/Project.sol\":2446:2483  require(msg.sender != projectCreator) */\n      tag_56\n      jumpi\n      0x00\n      dup1\n      revert\n    tag_56:\n        /* \"contracts/Project.sol\":2521:2561  contributions[msg.sender].add(msg.value) */\n      tag_57\n        /* \"contracts/Project.sol\":2551:2560  msg.value */\n      callvalue\n        /* \"contracts/Project.sol\":2521:2534  contributions */\n      0x07\n        /* \"contracts/Project.sol\":2521:2546  contributions[msg.sender] */\n      0x00\n        /* \"contracts/Project.sol\":2535:2545  msg.sender */\n      caller\n        /* \"contracts/Project.sol\":2521:2546  contributions[msg.sender] */\n      0xffffffffffffffffffffffffffffffffffffffff\n      and\n      0xffffffffffffffffffffffffffffffffffffffff\n      and\n      dup2\n      mstore\n      0x20\n      add\n      swap1\n      dup2\n      mstore\n      0x20\n      add\n      0x00\n      keccak256\n      sload\n        /* \"contracts/Project.sol\":2521:2550  contributions[msg.sender].add */\n      tag_58\n      swap1\n        /* \"contracts/Project.sol\":2521:2561  contributions[msg.sender].add(msg.value) */\n      swap2\n      swap1\n      0xffffffff\n      and\n      jump\t// in\n    tag_57:\n        /* \"contracts/Project.sol\":2493:2506  contributions */\n      0x07\n        /* \"contracts/Project.sol\":2493:2518  contributions[msg.sender] */\n      0x00\n        /* \"contracts/Project.sol\":2507:2517  msg.sender */\n      caller\n        /* \"contracts/Project.sol\":2493:2518  contributions[msg.sender] */\n      0xffffffffffffffffffffffffffffffffffffffff\n      and\n      0xffffffffffffffffffffffffffffffffffffffff\n      and\n      dup2\n      mstore\n      0x20\n      add\n      swap1\n      dup2\n      mstore\n      0x20\n      add\n      0x00\n      keccak256\n        /* \"contracts/Project.sol\":2493:2561  contributions[msg.sender] = contributions[msg.sender].add(msg.value) */\n      dup2\n      swap1\n      sstore\n      pop\n        /* \"contracts/Project.sol\":2606:2615  msg.value */\n      callvalue\n        /* \"contracts/Project.sol\":2589:2603  currentBalance */\n      sload(0x04)\n        /* \"contracts/Project.sol\":2589:2615  currentBalance + msg.value */\n      tag_59\n      swap2\n      swap1\n      tag_60\n      jump\t// in\n    tag_59:\n        /* \"contracts/Project.sol\":2572:2586  currentBalance */\n      0x04\n        /* \"contracts/Project.sol\":2572:2615  currentBalance = currentBalance + msg.value */\n      dup2\n      swap1\n      sstore\n      pop\n        /* \"contracts/Project.sol\":2630:2667  FundReceivedBy(msg.sender, msg.value) */\n      0x75ae3e7c973a88747144369f710c5999060a6321be0506174d3f5c64bdfc674e\n        /* \"contracts/Project.sol\":2645:2655  msg.sender */\n      caller\n        /* \"contracts/Project.sol\":2657:2666  msg.value */\n      callvalue\n        /* \"contracts/Project.sol\":2630:2667  FundReceivedBy(msg.sender, msg.value) */\n      mload(0x40)\n      tag_61\n      swap3\n      swap2\n      swap1\n      tag_62\n      jump\t// in\n    tag_61:\n      mload(0x40)\n      dup1\n      swap2\n      sub\n      swap1\n      log1\n        /* \"contracts/Project.sol\":2677:2695  checkGoalReached() */\n      tag_63\n        /* \"contracts/Project.sol\":2677:2693  checkGoalReached */\n      tag_64\n        /* \"contracts/Project.sol\":2677:2695  checkGoalReached() */\n      jump\t// in\n    tag_63:\n        /* \"contracts/Project.sol\":2347:2702  function contribute() public payable inState(State.Fundraising) isFundingDelayNotExpired {... */\n      pop\n      jump\t// out\n        /* \"contracts/Project.sol\":3644:3716  function setState(State _state) internal {... */\n    tag_31:\n        /* \"contracts/Project.sol\":3703:3709  _state */\n      dup1\n        /* \"contracts/Project.sol\":3695:3700  state */\n      0x05\n      0x00\n        /* \"contracts/Project.sol\":3695:3709  state = _state */\n      0x0100\n      exp\n      dup2\n      sload\n      dup2\n      0xff\n      mul\n      not\n      and\n      swap1\n      dup4\n      0x02\n      dup2\n      gt\n      iszero\n      tag_66\n      jumpi\n      tag_67\n      tag_24\n      jump\t// in\n    tag_67:\n    tag_66:\n      mul\n      or\n      swap1\n      sstore\n      pop\n        /* \"contracts/Project.sol\":3644:3716  function setState(State _state) internal {... */\n      pop\n      jump\t// out\n        /* \"https://github.com/OpenZeppelin/openzeppelin-contracts/blob/master/contracts/utils/math/SafeMath.sol\":2755:2851  function add(uint256 a, uint256 b) internal pure returns (uint256) {... */\n    tag_58:\n        /* \"https://github.com/OpenZeppelin/openzeppelin-contracts/blob/master/contracts/utils/math/SafeMath.sol\":2813:2820  uint256 */\n      0x00\n        /* \"https://github.com/OpenZeppelin/openzeppelin-contracts/blob/master/contracts/utils/math/SafeMath.sol\":2843:2844  b */\n      dup2\n        /* \"https://github.com/OpenZeppelin/openzeppelin-contracts/blob/master/contracts/utils/math/SafeMath.sol\":2839:2840  a */\n      dup4\n        /* \"https://github.com/OpenZeppelin/openzeppelin-contracts/blob/master/contracts/utils/math/SafeMath.sol\":2839:2844  a + b */\n      tag_69\n      swap2\n      swap1\n      tag_60\n      jump\t// in\n    tag_69:\n        /* \"https://github.com/OpenZeppelin/openzeppelin-contracts/blob/master/contracts/utils/math/SafeMath.sol\":2832:2844  return a + b */\n      swap1\n      pop\n        /* \"https://github.com/OpenZeppelin/openzeppelin-contracts/blob/master/contracts/utils/math/SafeMath.sol\":2755:2851  function add(uint256 a, uint256 b) internal pure returns (uint256) {... */\n      swap3\n      swap2\n      pop\n      pop\n      jump\t// out\n        /* \"contracts/Project.sol\":2879:3104  function checkGoalReached() internal {... */\n    tag_64:\n        /* \"contracts/Project.sol\":2943:2957  currentBalance */\n      sload(0x04)\n        /* \"contracts/Project.sol\":2929:2939  amountGoal */\n      sload(0x03)\n        /* \"contracts/Project.sol\":2929:2957  amountGoal >= currentBalance */\n      lt\n        /* \"contracts/Project.sol\":2926:3098  if(amountGoal >= currentBalance){... */\n      tag_71\n      jumpi\n        /* \"contracts/Project.sol\":2977:3025  GoalReached(\"The Goal is reached\", projectTitle) */\n      0x15ac727d1ca51352f519e3f5899500ead795e56a4a39ceafeea835331346017a\n        /* \"contracts/Project.sol\":3012:3024  projectTitle */\n      0x01\n        /* \"contracts/Project.sol\":2977:3025  GoalReached(\"The Goal is reached\", projectTitle) */\n      mload(0x40)\n      tag_72\n      swap2\n      swap1\n      tag_73\n      jump\t// in\n    tag_72:\n      mload(0x40)\n      dup1\n      swap2\n      sub\n      swap1\n      log1\n        /* \"contracts/Project.sol\":3039:3065  setState(State.Successful) */\n      tag_74\n        /* \"contracts/Project.sol\":3048:3064  State.Successful */\n      0x02\n        /* \"contracts/Project.sol\":3039:3047  setState */\n      tag_31\n        /* \"contracts/Project.sol\":3039:3065  setState(State.Successful) */\n      jump\t// in\n    tag_74:\n        /* \"contracts/Project.sol\":3079:3087  payOut() */\n      tag_75\n        /* \"contracts/Project.sol\":3079:3085  payOut */\n      tag_16\n        /* \"contracts/Project.sol\":3079:3087  payOut() */\n      jump\t// in\n    tag_75:\n        /* \"contracts/Project.sol\":2926:3098  if(amountGoal >= currentBalance){... */\n    tag_71:\n        /* \"contracts/Project.sol\":2879:3104  function checkGoalReached() internal {... */\n      jump\t// out\n        /* \"#utility.yul\":7:133   */\n    tag_76:\n        /* \"#utility.yul\":44:51   */\n      0x00\n        /* \"#utility.yul\":84:126   */\n      0xffffffffffffffffffffffffffffffffffffffff\n        /* \"#utility.yul\":77:82   */\n      dup3\n        /* \"#utility.yul\":73:127   */\n      and\n        /* \"#utility.yul\":62:127   */\n      swap1\n      pop\n        /* \"#utility.yul\":7:133   */\n      swap2\n      swap1\n      pop\n      jump\t// out\n        /* \"#utility.yul\":139:243   */\n    tag_77:\n        /* \"#utility.yul\":184:191   */\n      0x00\n        /* \"#utility.yul\":213:237   */\n      tag_98\n        /* \"#utility.yul\":231:236   */\n      dup3\n        /* \"#utility.yul\":213:237   */\n      tag_76\n      jump\t// in\n    tag_98:\n        /* \"#utility.yul\":202:237   */\n      swap1\n      pop\n        /* \"#utility.yul\":139:243   */\n      swap2\n      swap1\n      pop\n      jump\t// out\n        /* \"#utility.yul\":249:391   */\n    tag_78:\n        /* \"#utility.yul\":352:384   */\n      tag_100\n        /* \"#utility.yul\":378:383   */\n      dup2\n        /* \"#utility.yul\":352:384   */\n      tag_77\n      jump\t// in\n    tag_100:\n        /* \"#utility.yul\":347:350   */\n      dup3\n        /* \"#utility.yul\":340:385   */\n      mstore\n        /* \"#utility.yul\":249:391   */\n      pop\n      pop\n      jump\t// out\n        /* \"#utility.yul\":397:651   */\n    tag_13:\n        /* \"#utility.yul\":506:510   */\n      0x00\n        /* \"#utility.yul\":544:546   */\n      0x20\n        /* \"#utility.yul\":533:542   */\n      dup3\n        /* \"#utility.yul\":529:547   */\n      add\n        /* \"#utility.yul\":521:547   */\n      swap1\n      pop\n        /* \"#utility.yul\":557:644   */\n      tag_102\n        /* \"#utility.yul\":641:642   */\n      0x00\n        /* \"#utility.yul\":630:639   */\n      dup4\n        /* \"#utility.yul\":626:643   */\n      add\n        /* \"#utility.yul\":617:623   */\n      dup5\n        /* \"#utility.yul\":557:644   */\n      tag_78\n      jump\t// in\n    tag_102:\n        /* \"#utility.yul\":397:651   */\n      swap3\n      swap2\n      pop\n      pop\n      jump\t// out\n        /* \"#utility.yul\":657:837   */\n    tag_24:\n        /* \"#utility.yul\":705:782   */\n      0x4e487b7100000000000000000000000000000000000000000000000000000000\n        /* \"#utility.yul\":702:703   */\n      0x00\n        /* \"#utility.yul\":695:783   */\n      mstore\n        /* \"#utility.yul\":802:806   */\n      0x21\n        /* \"#utility.yul\":799:800   */\n      0x04\n        /* \"#utility.yul\":792:807   */\n      mstore\n        /* \"#utility.yul\":826:830   */\n      0x24\n        /* \"#utility.yul\":823:824   */\n      0x00\n        /* \"#utility.yul\":816:831   */\n      revert\n        /* \"#utility.yul\":843:1012   */\n    tag_79:\n        /* \"#utility.yul\":927:938   */\n      0x00\n        /* \"#utility.yul\":961:967   */\n      dup3\n        /* \"#utility.yul\":956:959   */\n      dup3\n        /* \"#utility.yul\":949:968   */\n      mstore\n        /* \"#utility.yul\":1001:1005   */\n      0x20\n        /* \"#utility.yul\":996:999   */\n      dup3\n        /* \"#utility.yul\":992:1006   */\n      add\n        /* \"#utility.yul\":977:1006   */\n      swap1\n      pop\n        /* \"#utility.yul\":843:1012   */\n      swap3\n      swap2\n      pop\n      pop\n      jump\t// out\n        /* \"#utility.yul\":1018:1182   */\n    tag_80:\n        /* \"#utility.yul\":1158:1174   */\n      0x46756e6420726574726569766564000000000000000000000000000000000000\n        /* \"#utility.yul\":1154:1155   */\n      0x00\n        /* \"#utility.yul\":1146:1152   */\n      dup3\n        /* \"#utility.yul\":1142:1156   */\n      add\n        /* \"#utility.yul\":1135:1175   */\n      mstore\n        /* \"#utility.yul\":1018:1182   */\n      pop\n      jump\t// out\n        /* \"#utility.yul\":1188:1554   */\n    tag_81:\n        /* \"#utility.yul\":1330:1333   */\n      0x00\n        /* \"#utility.yul\":1351:1418   */\n      tag_107\n        /* \"#utility.yul\":1415:1417   */\n      0x0e\n        /* \"#utility.yul\":1410:1413   */\n      dup4\n        /* \"#utility.yul\":1351:1418   */\n      tag_79\n      jump\t// in\n    tag_107:\n        /* \"#utility.yul\":1344:1418   */\n      swap2\n      pop\n        /* \"#utility.yul\":1427:1520   */\n      tag_108\n        /* \"#utility.yul\":1516:1519   */\n      dup3\n        /* \"#utility.yul\":1427:1520   */\n      tag_80\n      jump\t// in\n    tag_108:\n        /* \"#utility.yul\":1545:1547   */\n      0x20\n        /* \"#utility.yul\":1540:1543   */\n      dup3\n        /* \"#utility.yul\":1536:1548   */\n      add\n        /* \"#utility.yul\":1529:1548   */\n      swap1\n      pop\n        /* \"#utility.yul\":1188:1554   */\n      swap2\n      swap1\n      pop\n      jump\t// out\n        /* \"#utility.yul\":1560:1740   */\n    tag_82:\n        /* \"#utility.yul\":1608:1685   */\n      0x4e487b7100000000000000000000000000000000000000000000000000000000\n        /* \"#utility.yul\":1605:1606   */\n      0x00\n        /* \"#utility.yul\":1598:1686   */\n      mstore\n        /* \"#utility.yul\":1705:1709   */\n      0x22\n        /* \"#utility.yul\":1702:1703   */\n      0x04\n        /* \"#utility.yul\":1695:1710   */\n      mstore\n        /* \"#utility.yul\":1729:1733   */\n      0x24\n        /* \"#utility.yul\":1726:1727   */\n      0x00\n        /* \"#utility.yul\":1719:1734   */\n      revert\n        /* \"#utility.yul\":1746:2066   */\n    tag_83:\n        /* \"#utility.yul\":1790:1796   */\n      0x00\n        /* \"#utility.yul\":1827:1828   */\n      0x02\n        /* \"#utility.yul\":1821:1825   */\n      dup3\n        /* \"#utility.yul\":1817:1829   */\n      div\n        /* \"#utility.yul\":1807:1829   */\n      swap1\n      pop\n        /* \"#utility.yul\":1874:1875   */\n      0x01\n        /* \"#utility.yul\":1868:1872   */\n      dup3\n        /* \"#utility.yul\":1864:1876   */\n      and\n        /* \"#utility.yul\":1895:1913   */\n      dup1\n        /* \"#utility.yul\":1885:1966   */\n      tag_111\n      jumpi\n        /* \"#utility.yul\":1951:1955   */\n      0x7f\n        /* \"#utility.yul\":1943:1949   */\n      dup3\n        /* \"#utility.yul\":1939:1956   */\n      and\n        /* \"#utility.yul\":1929:1956   */\n      swap2\n      pop\n        /* \"#utility.yul\":1885:1966   */\n    tag_111:\n        /* \"#utility.yul\":2013:2015   */\n      0x20\n        /* \"#utility.yul\":2005:2011   */\n      dup3\n        /* \"#utility.yul\":2002:2016   */\n      lt\n        /* \"#utility.yul\":1982:2000   */\n      dup2\n        /* \"#utility.yul\":1979:2017   */\n      sub\n        /* \"#utility.yul\":1976:2060   */\n      tag_112\n      jumpi\n        /* \"#utility.yul\":2032:2050   */\n      tag_113\n      tag_82\n      jump\t// in\n    tag_113:\n        /* \"#utility.yul\":1976:2060   */\n    tag_112:\n        /* \"#utility.yul\":1797:2066   */\n      pop\n        /* \"#utility.yul\":1746:2066   */\n      swap2\n      swap1\n      pop\n      jump\t// out\n        /* \"#utility.yul\":2072:2213   */\n    tag_84:\n        /* \"#utility.yul\":2121:2125   */\n      0x00\n        /* \"#utility.yul\":2144:2147   */\n      dup2\n        /* \"#utility.yul\":2136:2147   */\n      swap1\n      pop\n        /* \"#utility.yul\":2167:2170   */\n      dup2\n        /* \"#utility.yul\":2164:2165   */\n      0x00\n        /* \"#utility.yul\":2157:2171   */\n      mstore\n        /* \"#utility.yul\":2201:2205   */\n      0x20\n        /* \"#utility.yul\":2198:2199   */\n      0x00\n        /* \"#utility.yul\":2188:2206   */\n      keccak256\n        /* \"#utility.yul\":2180:2206   */\n      swap1\n      pop\n        /* \"#utility.yul\":2072:2213   */\n      swap2\n      swap1\n      pop\n      jump\t// out\n        /* \"#utility.yul\":2243:3045   */\n    tag_85:\n        /* \"#utility.yul\":2328:2331   */\n      0x00\n        /* \"#utility.yul\":2365:2370   */\n      dup2\n        /* \"#utility.yul\":2359:2371   */\n      sload\n        /* \"#utility.yul\":2394:2430   */\n      tag_116\n        /* \"#utility.yul\":2420:2429   */\n      dup2\n        /* \"#utility.yul\":2394:2430   */\n      tag_83\n      jump\t// in\n    tag_116:\n        /* \"#utility.yul\":2446:2517   */\n      tag_117\n        /* \"#utility.yul\":2510:2516   */\n      dup2\n        /* \"#utility.yul\":2505:2508   */\n      dup7\n        /* \"#utility.yul\":2446:2517   */\n      tag_79\n      jump\t// in\n    tag_117:\n        /* \"#utility.yul\":2439:2517   */\n      swap5\n      pop\n        /* \"#utility.yul\":2548:2549   */\n      0x01\n        /* \"#utility.yul\":2537:2546   */\n      dup3\n        /* \"#utility.yul\":2533:2550   */\n      and\n        /* \"#utility.yul\":2564:2565   */\n      0x00\n        /* \"#utility.yul\":2559:2694   */\n      dup2\n      eq\n      tag_119\n      jumpi\n        /* \"#utility.yul\":2708:2709   */\n      0x01\n        /* \"#utility.yul\":2703:3039   */\n      dup2\n      eq\n      tag_120\n      jumpi\n        /* \"#utility.yul\":2526:3039   */\n      jump(tag_118)\n        /* \"#utility.yul\":2559:2694   */\n    tag_119:\n        /* \"#utility.yul\":2643:2647   */\n      0xff\n        /* \"#utility.yul\":2639:2648   */\n      not\n        /* \"#utility.yul\":2628:2637   */\n      dup4\n        /* \"#utility.yul\":2624:2649   */\n      and\n        /* \"#utility.yul\":2619:2622   */\n      dup7\n        /* \"#utility.yul\":2612:2650   */\n      mstore\n        /* \"#utility.yul\":2679:2683   */\n      0x20\n        /* \"#utility.yul\":2674:2677   */\n      dup7\n        /* \"#utility.yul\":2670:2684   */\n      add\n        /* \"#utility.yul\":2663:2684   */\n      swap4\n      pop\n        /* \"#utility.yul\":2559:2694   */\n      jump(tag_118)\n        /* \"#utility.yul\":2703:3039   */\n    tag_120:\n        /* \"#utility.yul\":2770:2808   */\n      tag_121\n        /* \"#utility.yul\":2802:2807   */\n      dup6\n        /* \"#utility.yul\":2770:2808   */\n      tag_84\n      jump\t// in\n    tag_121:\n        /* \"#utility.yul\":2830:2831   */\n      0x00\n        /* \"#utility.yul\":2844:2998   */\n    tag_122:\n        /* \"#utility.yul\":2858:2864   */\n      dup4\n        /* \"#utility.yul\":2855:2856   */\n      dup2\n        /* \"#utility.yul\":2852:2865   */\n      lt\n        /* \"#utility.yul\":2844:2998   */\n      iszero\n      tag_124\n      jumpi\n        /* \"#utility.yul\":2932:2939   */\n      dup2\n        /* \"#utility.yul\":2926:2940   */\n      sload\n        /* \"#utility.yul\":2922:2923   */\n      dup2\n        /* \"#utility.yul\":2917:2920   */\n      dup10\n        /* \"#utility.yul\":2913:2924   */\n      add\n        /* \"#utility.yul\":2906:2941   */\n      mstore\n        /* \"#utility.yul\":2982:2983   */\n      0x01\n        /* \"#utility.yul\":2973:2980   */\n      dup3\n        /* \"#utility.yul\":2969:2984   */\n      add\n        /* \"#utility.yul\":2958:2984   */\n      swap2\n      pop\n        /* \"#utility.yul\":2880:2884   */\n      0x20\n        /* \"#utility.yul\":2877:2878   */\n      dup2\n        /* \"#utility.yul\":2873:2885   */\n      add\n        /* \"#utility.yul\":2868:2885   */\n      swap1\n      pop\n        /* \"#utility.yul\":2844:2998   */\n      jump(tag_122)\n    tag_124:\n        /* \"#utility.yul\":3027:3028   */\n      dup1\n        /* \"#utility.yul\":3022:3025   */\n      dup9\n        /* \"#utility.yul\":3018:3029   */\n      add\n        /* \"#utility.yul\":3011:3029   */\n      swap6\n      pop\n        /* \"#utility.yul\":2710:3039   */\n      pop\n      pop\n        /* \"#utility.yul\":2526:3039   */\n    tag_118:\n      pop\n        /* \"#utility.yul\":2332:3045   */\n      pop\n      pop\n        /* \"#utility.yul\":2243:3045   */\n      swap3\n      swap2\n      pop\n      pop\n      jump\t// out\n        /* \"#utility.yul\":3051:3665   */\n    tag_35:\n        /* \"#utility.yul\":3262:3266   */\n      0x00\n        /* \"#utility.yul\":3300:3302   */\n      0x40\n        /* \"#utility.yul\":3289:3298   */\n      dup3\n        /* \"#utility.yul\":3285:3303   */\n      add\n        /* \"#utility.yul\":3277:3303   */\n      swap1\n      pop\n        /* \"#utility.yul\":3349:3358   */\n      dup2\n        /* \"#utility.yul\":3343:3347   */\n      dup2\n        /* \"#utility.yul\":3339:3359   */\n      sub\n        /* \"#utility.yul\":3335:3336   */\n      0x00\n        /* \"#utility.yul\":3324:3333   */\n      dup4\n        /* \"#utility.yul\":3320:3337   */\n      add\n        /* \"#utility.yul\":3313:3360   */\n      mstore\n        /* \"#utility.yul\":3377:3508   */\n      tag_126\n        /* \"#utility.yul\":3503:3507   */\n      dup2\n        /* \"#utility.yul\":3377:3508   */\n      tag_81\n      jump\t// in\n    tag_126:\n        /* \"#utility.yul\":3369:3508   */\n      swap1\n      pop\n        /* \"#utility.yul\":3555:3564   */\n      dup2\n        /* \"#utility.yul\":3549:3553   */\n      dup2\n        /* \"#utility.yul\":3545:3565   */\n      sub\n        /* \"#utility.yul\":3540:3542   */\n      0x20\n        /* \"#utility.yul\":3529:3538   */\n      dup4\n        /* \"#utility.yul\":3525:3543   */\n      add\n        /* \"#utility.yul\":3518:3566   */\n      mstore\n        /* \"#utility.yul\":3583:3658   */\n      tag_127\n        /* \"#utility.yul\":3653:3657   */\n      dup2\n        /* \"#utility.yul\":3644:3650   */\n      dup5\n        /* \"#utility.yul\":3583:3658   */\n      tag_85\n      jump\t// in\n    tag_127:\n        /* \"#utility.yul\":3575:3658   */\n      swap1\n      pop\n        /* \"#utility.yul\":3051:3665   */\n      swap3\n      swap2\n      pop\n      pop\n      jump\t// out\n        /* \"#utility.yul\":3671:3830   */\n    tag_86:\n        /* \"#utility.yul\":3811:3822   */\n      0x69732046756e6465640000000000000000000000000000000000000000000000\n        /* \"#utility.yul\":3807:3808   */\n      0x00\n        /* \"#utility.yul\":3799:3805   */\n      dup3\n        /* \"#utility.yul\":3795:3809   */\n      add\n        /* \"#utility.yul\":3788:3823   */\n      mstore\n        /* \"#utility.yul\":3671:3830   */\n      pop\n      jump\t// out\n        /* \"#utility.yul\":3836:4201   */\n    tag_87:\n        /* \"#utility.yul\":3978:3981   */\n      0x00\n        /* \"#utility.yul\":3999:4065   */\n      tag_130\n        /* \"#utility.yul\":4063:4064   */\n      0x09\n        /* \"#utility.yul\":4058:4061   */\n      dup4\n        /* \"#utility.yul\":3999:4065   */\n      tag_79\n      jump\t// in\n    tag_130:\n        /* \"#utility.yul\":3992:4065   */\n      swap2\n      pop\n        /* \"#utility.yul\":4074:4167   */\n      tag_131\n        /* \"#utility.yul\":4163:4166   */\n      dup3\n        /* \"#utility.yul\":4074:4167   */\n      tag_86\n      jump\t// in\n    tag_131:\n        /* \"#utility.yul\":4192:4194   */\n      0x20\n        /* \"#utility.yul\":4187:4190   */\n      dup3\n        /* \"#utility.yul\":4183:4195   */\n      add\n        /* \"#utility.yul\":4176:4195   */\n      swap1\n      pop\n        /* \"#utility.yul\":3836:4201   */\n      swap2\n      swap1\n      pop\n      jump\t// out\n        /* \"#utility.yul\":4207:4821   */\n    tag_46:\n        /* \"#utility.yul\":4418:4422   */\n      0x00\n        /* \"#utility.yul\":4456:4458   */\n      0x40\n        /* \"#utility.yul\":4445:4454   */\n      dup3\n        /* \"#utility.yul\":4441:4459   */\n      add\n        /* \"#utility.yul\":4433:4459   */\n      swap1\n      pop\n        /* \"#utility.yul\":4505:4514   */\n      dup2\n        /* \"#utility.yul\":4499:4503   */\n      dup2\n        /* \"#utility.yul\":4495:4515   */\n      sub\n        /* \"#utility.yul\":4491:4492   */\n      0x00\n        /* \"#utility.yul\":4480:4489   */\n      dup4\n        /* \"#utility.yul\":4476:4493   */\n      add\n        /* \"#utility.yul\":4469:4516   */\n      mstore\n        /* \"#utility.yul\":4533:4608   */\n      tag_133\n        /* \"#utility.yul\":4603:4607   */\n      dup2\n        /* \"#utility.yul\":4594:4600   */\n      dup5\n        /* \"#utility.yul\":4533:4608   */\n      tag_85\n      jump\t// in\n    tag_133:\n        /* \"#utility.yul\":4525:4608   */\n      swap1\n      pop\n        /* \"#utility.yul\":4655:4664   */\n      dup2\n        /* \"#utility.yul\":4649:4653   */\n      dup2\n        /* \"#utility.yul\":4645:4665   */\n      sub\n        /* \"#utility.yul\":4640:4642   */\n      0x20\n        /* \"#utility.yul\":4629:4638   */\n      dup4\n        /* \"#utility.yul\":4625:4643   */\n      add\n        /* \"#utility.yul\":4618:4666   */\n      mstore\n        /* \"#utility.yul\":4683:4814   */\n      tag_134\n        /* \"#utility.yul\":4809:4813   */\n      dup2\n        /* \"#utility.yul\":4683:4814   */\n      tag_87\n      jump\t// in\n    tag_134:\n        /* \"#utility.yul\":4675:4814   */\n      swap1\n      pop\n        /* \"#utility.yul\":4207:4821   */\n      swap3\n      swap2\n      pop\n      pop\n      jump\t// out\n        /* \"#utility.yul\":4827:4904   */\n    tag_88:\n        /* \"#utility.yul\":4864:4871   */\n      0x00\n        /* \"#utility.yul\":4893:4898   */\n      dup2\n        /* \"#utility.yul\":4882:4898   */\n      swap1\n      pop\n        /* \"#utility.yul\":4827:4904   */\n      swap2\n      swap1\n      pop\n      jump\t// out\n        /* \"#utility.yul\":4910:5090   */\n    tag_89:\n        /* \"#utility.yul\":4958:5035   */\n      0x4e487b7100000000000000000000000000000000000000000000000000000000\n        /* \"#utility.yul\":4955:4956   */\n      0x00\n        /* \"#utility.yul\":4948:5036   */\n      mstore\n        /* \"#utility.yul\":5055:5059   */\n      0x11\n        /* \"#utility.yul\":5052:5053   */\n      0x04\n        /* \"#utility.yul\":5045:5060   */\n      mstore\n        /* \"#utility.yul\":5079:5083   */\n      0x24\n        /* \"#utility.yul\":5076:5077   */\n      0x00\n        /* \"#utility.yul\":5069:5084   */\n      revert\n        /* \"#utility.yul\":5096:5401   */\n    tag_60:\n        /* \"#utility.yul\":5136:5139   */\n      0x00\n        /* \"#utility.yul\":5155:5175   */\n      tag_138\n        /* \"#utility.yul\":5173:5174   */\n      dup3\n        /* \"#utility.yul\":5155:5175   */\n      tag_88\n      jump\t// in\n    tag_138:\n        /* \"#utility.yul\":5150:5175   */\n      swap2\n      pop\n        /* \"#utility.yul\":5189:5209   */\n      tag_139\n        /* \"#utility.yul\":5207:5208   */\n      dup4\n        /* \"#utility.yul\":5189:5209   */\n      tag_88\n      jump\t// in\n    tag_139:\n        /* \"#utility.yul\":5184:5209   */\n      swap3\n      pop\n        /* \"#utility.yul\":5343:5344   */\n      dup3\n        /* \"#utility.yul\":5275:5341   */\n      0xffffffffffffffffffffffffffffffffffffffffffffffffffffffffffffffff\n        /* \"#utility.yul\":5271:5345   */\n      sub\n        /* \"#utility.yul\":5268:5269   */\n      dup3\n        /* \"#utility.yul\":5265:5346   */\n      gt\n        /* \"#utility.yul\":5262:5369   */\n      iszero\n      tag_140\n      jumpi\n        /* \"#utility.yul\":5349:5367   */\n      tag_141\n      tag_89\n      jump\t// in\n    tag_141:\n        /* \"#utility.yul\":5262:5369   */\n    tag_140:\n        /* \"#utility.yul\":5393:5394   */\n      dup3\n        /* \"#utility.yul\":5390:5391   */\n      dup3\n        /* \"#utility.yul\":5386:5395   */\n      add\n        /* \"#utility.yul\":5379:5395   */\n      swap1\n      pop\n        /* \"#utility.yul\":5096:5401   */\n      swap3\n      swap2\n      pop\n      pop\n      jump\t// out\n        /* \"#utility.yul\":5407:5503   */\n    tag_90:\n        /* \"#utility.yul\":5444:5451   */\n      0x00\n        /* \"#utility.yul\":5473:5497   */\n      tag_143\n        /* \"#utility.yul\":5491:5496   */\n      dup3\n        /* \"#utility.yul\":5473:5497   */\n      tag_76\n      jump\t// in\n    tag_143:\n        /* \"#utility.yul\":5462:5497   */\n      swap1\n      pop\n        /* \"#utility.yul\":5407:5503   */\n      swap2\n      swap1\n      pop\n      jump\t// out\n        /* \"#utility.yul\":5509:5627   */\n    tag_91:\n        /* \"#utility.yul\":5596:5620   */\n      tag_145\n        /* \"#utility.yul\":5614:5619   */\n      dup2\n        /* \"#utility.yul\":5596:5620   */\n      tag_90\n      jump\t// in\n    tag_145:\n        /* \"#utility.yul\":5591:5594   */\n      dup3\n        /* \"#utility.yul\":5584:5621   */\n      mstore\n        /* \"#utility.yul\":5509:5627   */\n      pop\n      pop\n      jump\t// out\n        /* \"#utility.yul\":5633:5751   */\n    tag_92:\n        /* \"#utility.yul\":5720:5744   */\n      tag_147\n        /* \"#utility.yul\":5738:5743   */\n      dup2\n        /* \"#utility.yul\":5720:5744   */\n      tag_88\n      jump\t// in\n    tag_147:\n        /* \"#utility.yul\":5715:5718   */\n      dup3\n        /* \"#utility.yul\":5708:5745   */\n      mstore\n        /* \"#utility.yul\":5633:5751   */\n      pop\n      pop\n      jump\t// out\n        /* \"#utility.yul\":5757:6089   */\n    tag_62:\n        /* \"#utility.yul\":5878:5882   */\n      0x00\n        /* \"#utility.yul\":5916:5918   */\n      0x40\n        /* \"#utility.yul\":5905:5914   */\n      dup3\n        /* \"#utility.yul\":5901:5919   */\n      add\n        /* \"#utility.yul\":5893:5919   */\n      swap1\n      pop\n        /* \"#utility.yul\":5929:6000   */\n      tag_149\n        /* \"#utility.yul\":5997:5998   */\n      0x00\n        /* \"#utility.yul\":5986:5995   */\n      dup4\n        /* \"#utility.yul\":5982:5999   */\n      add\n        /* \"#utility.yul\":5973:5979   */\n      dup6\n        /* \"#utility.yul\":5929:6000   */\n      tag_91\n      jump\t// in\n    tag_149:\n        /* \"#utility.yul\":6010:6082   */\n      tag_150\n        /* \"#utility.yul\":6078:6080   */\n      0x20\n        /* \"#utility.yul\":6067:6076   */\n      dup4\n        /* \"#utility.yul\":6063:6081   */\n      add\n        /* \"#utility.yul\":6054:6060   */\n      dup5\n        /* \"#utility.yul\":6010:6082   */\n      tag_92\n      jump\t// in\n    tag_150:\n        /* \"#utility.yul\":5757:6089   */\n      swap4\n      swap3\n      pop\n      pop\n      pop\n      jump\t// out\n        /* \"#utility.yul\":6095:6264   */\n    tag_93:\n        /* \"#utility.yul\":6235:6256   */\n      0x54686520476f616c206973207265616368656400000000000000000000000000\n        /* \"#utility.yul\":6231:6232   */\n      0x00\n        /* \"#utility.yul\":6223:6229   */\n      dup3\n        /* \"#utility.yul\":6219:6233   */\n      add\n        /* \"#utility.yul\":6212:6257   */\n      mstore\n        /* \"#utility.yul\":6095:6264   */\n      pop\n      jump\t// out\n        /* \"#utility.yul\":6270:6636   */\n    tag_94:\n        /* \"#utility.yul\":6412:6415   */\n      0x00\n        /* \"#utility.yul\":6433:6500   */\n      tag_153\n        /* \"#utility.yul\":6497:6499   */\n      0x13\n        /* \"#utility.yul\":6492:6495   */\n      dup4\n        /* \"#utility.yul\":6433:6500   */\n      tag_79\n      jump\t// in\n    tag_153:\n        /* \"#utility.yul\":6426:6500   */\n      swap2\n      pop\n        /* \"#utility.yul\":6509:6602   */\n      tag_154\n        /* \"#utility.yul\":6598:6601   */\n      dup3\n        /* \"#utility.yul\":6509:6602   */\n      tag_93\n      jump\t// in\n    tag_154:\n        /* \"#utility.yul\":6627:6629   */\n      0x20\n        /* \"#utility.yul\":6622:6625   */\n      dup3\n        /* \"#utility.yul\":6618:6630   */\n      add\n        /* \"#utility.yul\":6611:6630   */\n      swap1\n      pop\n        /* \"#utility.yul\":6270:6636   */\n      swap2\n      swap1\n      pop\n      jump\t// out\n        /* \"#utility.yul\":6642:7256   */\n    tag_73:\n        /* \"#utility.yul\":6853:6857   */\n      0x00\n        /* \"#utility.yul\":6891:6893   */\n      0x40\n        /* \"#utility.yul\":6880:6889   */\n      dup3\n        /* \"#utility.yul\":6876:6894   */\n      add\n        /* \"#utility.yul\":6868:6894   */\n      swap1\n      pop\n        /* \"#utility.yul\":6940:6949   */\n      dup2\n        /* \"#utility.yul\":6934:6938   */\n      dup2\n        /* \"#utility.yul\":6930:6950   */\n      sub\n        /* \"#utility.yul\":6926:6927   */\n      0x00\n        /* \"#utility.yul\":6915:6924   */\n      dup4\n        /* \"#utility.yul\":6911:6928   */\n      add\n        /* \"#utility.yul\":6904:6951   */\n      mstore\n        /* \"#utility.yul\":6968:7099   */\n      tag_156\n        /* \"#utility.yul\":7094:7098   */\n      dup2\n        /* \"#utility.yul\":6968:7099   */\n      tag_94\n      jump\t// in\n    tag_156:\n        /* \"#utility.yul\":6960:7099   */\n      swap1\n      pop\n        /* \"#utility.yul\":7146:7155   */\n      dup2\n        /* \"#utility.yul\":7140:7144   */\n      dup2\n        /* \"#utility.yul\":7136:7156   */\n      sub\n        /* \"#utility.yul\":7131:7133   */\n      0x20\n        /* \"#utility.yul\":7120:7129   */\n      dup4\n        /* \"#utility.yul\":7116:7134   */\n      add\n        /* \"#utility.yul\":7109:7157   */\n      mstore\n        /* \"#utility.yul\":7174:7249   */\n      tag_157\n        /* \"#utility.yul\":7244:7248   */\n      dup2\n        /* \"#utility.yul\":7235:7241   */\n      dup5\n        /* \"#utility.yul\":7174:7249   */\n      tag_85\n      jump\t// in\n    tag_157:\n        /* \"#utility.yul\":7166:7249   */\n      swap1\n      pop\n        /* \"#utility.yul\":6642:7256   */\n      swap3\n      swap2\n      pop\n      pop\n      jump\t// out\n\n    auxdata: 0xa26469706673582212207e13eb572a68d47e32c00ab715871bbd2592952801967f7e0718adac1e557e9564736f6c634300080d0033\n}\n",
				"bytecode": {
					"linkReferences": {},
					"object": "60806040523480156200001157600080fd5b5060405162000e5938038062000e598339818101604052810190620000379190620003b7565b846000806101000a81548173ffffffffffffffffffffffffffffffffffffffff021916908373ffffffffffffffffffffffffffffffffffffffff16021790555083600190805190602001906200008f929190620000ca565b508260029080519060200190620000a8929190620000ca565b50816003819055508060068190555060006004819055505050505050620004e1565b828054620000d890620004ac565b90600052602060002090601f016020900481019282620000fc576000855562000148565b82601f106200011757805160ff191683800117855562000148565b8280016001018555821562000148579182015b82811115620001475782518255916020019190600101906200012a565b5b5090506200015791906200015b565b5090565b5b80821115620001765760008160009055506001016200015c565b5090565b6000604051905090565b600080fd5b600080fd5b600073ffffffffffffffffffffffffffffffffffffffff82169050919050565b6000620001bb826200018e565b9050919050565b620001cd81620001ae565b8114620001d957600080fd5b50565b600081519050620001ed81620001c2565b92915050565b600080fd5b600080fd5b6000601f19601f8301169050919050565b7f4e487b7100000000000000000000000000000000000000000000000000000000600052604160045260246000fd5b6200024882620001fd565b810181811067ffffffffffffffff821117156200026a57620002696200020e565b5b80604052505050565b60006200027f6200017a565b90506200028d82826200023d565b919050565b600067ffffffffffffffff821115620002b057620002af6200020e565b5b620002bb82620001fd565b9050602081019050919050565b60005b83811015620002e8578082015181840152602081019050620002cb565b83811115620002f8576000848401525b50505050565b6000620003156200030f8462000292565b62000273565b905082815260208101848484011115620003345762000333620001f8565b5b62000341848285620002c8565b509392505050565b600082601f830112620003615762000360620001f3565b5b815162000373848260208601620002fe565b91505092915050565b6000819050919050565b62000391816200037c565b81146200039d57600080fd5b50565b600081519050620003b18162000386565b92915050565b600080600080600060a08688031215620003d657620003d562000184565b5b6000620003e688828901620001dc565b955050602086015167ffffffffffffffff8111156200040a576200040962000189565b5b620004188882890162000349565b945050604086015167ffffffffffffffff8111156200043c576200043b62000189565b5b6200044a8882890162000349565b93505060606200045d88828901620003a0565b92505060806200047088828901620003a0565b9150509295509295909350565b7f4e487b7100000000000000000000000000000000000000000000000000000000600052602260045260246000fd5b60006002820490506001821680620004c557607f821691505b602082108103620004db57620004da6200047d565b5b50919050565b61096880620004f16000396000f3fe60806040526004361061003f5760003560e01c80631beab5e814610044578063a541a2a21461005b578063c205240314610086578063d7bb99ba1461009d575b600080fd5b34801561005057600080fd5b506100596100a7565b005b34801561006757600080fd5b506100706101fd565b60405161007d9190610577565b60405180910390f35b34801561009257600080fd5b5061009b610221565b005b6100a5610306565b005b338073ffffffffffffffffffffffffffffffffffffffff1660008054906101000a900473ffffffffffffffffffffffffffffffffffffffff1673ffffffffffffffffffffffffffffffffffffffff161461010057600080fd5b600080600281111561011557610114610592565b5b600560009054906101000a900460ff16600281111561013757610136610592565b5b1461014157600080fd5b600654421161014f57600080fd5b610159600161049b565b60008054906101000a900473ffffffffffffffffffffffffffffffffffffffff1673ffffffffffffffffffffffffffffffffffffffff166108fc6004549081150290604051600060405180830381858888f193505050501580156101c1573d6000803e3d6000fd5b507e6567369884327ec669abad9dc032c3fc1b6c1b77aed67e31f8311864551e7460016040516101f19190610713565b60405180910390a15050565b60008054906101000a900473ffffffffffffffffffffffffffffffffffffffff1681565b600280600281111561023657610235610592565b5b600560009054906101000a900460ff16600281111561025857610257610592565b5b1461026257600080fd5b60008054906101000a900473ffffffffffffffffffffffffffffffffffffffff1673ffffffffffffffffffffffffffffffffffffffff166108fc6004549081150290604051600060405180830381858888f193505050501580156102ca573d6000803e3d6000fd5b507fda700ea0a4f90d17381707c06ca4125e32c8a65b28e82ff0d1850af50a6d4ccd60016040516102fb9190610794565b60405180910390a150565b600080600281111561031b5761031a610592565b5b600560009054906101000a900460ff16600281111561033d5761033c610592565b5b1461034757600080fd5b60065442111561035657600080fd5b60008054906101000a900473ffffffffffffffffffffffffffffffffffffffff1673ffffffffffffffffffffffffffffffffffffffff163373ffffffffffffffffffffffffffffffffffffffff16036103ae57600080fd5b61040034600760003373ffffffffffffffffffffffffffffffffffffffff1673ffffffffffffffffffffffffffffffffffffffff168152602001908152602001600020546104c890919063ffffffff16565b600760003373ffffffffffffffffffffffffffffffffffffffff1673ffffffffffffffffffffffffffffffffffffffff16815260200190815260200160002081905550346004546104519190610802565b6004819055507f75ae3e7c973a88747144369f710c5999060a6321be0506174d3f5c64bdfc674e3334604051610488929190610888565b60405180910390a16104986104de565b50565b80600560006101000a81548160ff021916908360028111156104c0576104bf610592565b5b021790555050565b600081836104d69190610802565b905092915050565b60045460035410610534577f15ac727d1ca51352f519e3f5899500ead795e56a4a39ceafeea835331346017a600160405161051991906108fd565b60405180910390a161052b600261049b565b610533610221565b5b565b600073ffffffffffffffffffffffffffffffffffffffff82169050919050565b600061056182610536565b9050919050565b61057181610556565b82525050565b600060208201905061058c6000830184610568565b92915050565b7f4e487b7100000000000000000000000000000000000000000000000000000000600052602160045260246000fd5b600082825260208201905092915050565b7f46756e6420726574726569766564000000000000000000000000000000000000600082015250565b6000610608600e836105c1565b9150610613826105d2565b602082019050919050565b7f4e487b7100000000000000000000000000000000000000000000000000000000600052602260045260246000fd5b6000600282049050600182168061066557607f821691505b6020821081036106785761067761061e565b5b50919050565b60008190508160005260206000209050919050565b600081546106a08161064d565b6106aa81866105c1565b945060018216600081146106c557600181146106d75761070a565b60ff198316865260208601935061070a565b6106e08561067e565b60005b83811015610702578154818901526001820191506020810190506106e3565b808801955050505b50505092915050565b6000604082019050818103600083015261072c816105fb565b905081810360208301526107408184610693565b905092915050565b7f69732046756e6465640000000000000000000000000000000000000000000000600082015250565b600061077e6009836105c1565b915061078982610748565b602082019050919050565b600060408201905081810360008301526107ae8184610693565b905081810360208301526107c181610771565b905092915050565b6000819050919050565b7f4e487b7100000000000000000000000000000000000000000000000000000000600052601160045260246000fd5b600061080d826107c9565b9150610818836107c9565b9250827fffffffffffffffffffffffffffffffffffffffffffffffffffffffffffffffff0382111561084d5761084c6107d3565b5b828201905092915050565b600061086382610536565b9050919050565b61087381610858565b82525050565b610882816107c9565b82525050565b600060408201905061089d600083018561086a565b6108aa6020830184610879565b9392505050565b7f54686520476f616c206973207265616368656400000000000000000000000000600082015250565b60006108e76013836105c1565b91506108f2826108b1565b602082019050919050565b60006040820190508181036000830152610916816108da565b9050818103602083015261092a8184610693565b90509291505056fea26469706673582212207e13eb572a68d47e32c00ab715871bbd2592952801967f7e0718adac1e557e9564736f6c634300080d0033",
					"opcodes": "PUSH1 0x80 PUSH1 0x40 MSTORE CALLVALUE DUP1 ISZERO PUSH3 0x11 JUMPI PUSH1 0x0 DUP1 REVERT JUMPDEST POP PUSH1 0x40 MLOAD PUSH3 0xE59 CODESIZE SUB DUP1 PUSH3 0xE59 DUP4 CODECOPY DUP2 DUP2 ADD PUSH1 0x40 MSTORE DUP2 ADD SWAP1 PUSH3 0x37 SWAP2 SWAP1 PUSH3 0x3B7 JUMP JUMPDEST DUP5 PUSH1 0x0 DUP1 PUSH2 0x100 EXP DUP2 SLOAD DUP2 PUSH20 0xFFFFFFFFFFFFFFFFFFFFFFFFFFFFFFFFFFFFFFFF MUL NOT AND SWAP1 DUP4 PUSH20 0xFFFFFFFFFFFFFFFFFFFFFFFFFFFFFFFFFFFFFFFF AND MUL OR SWAP1 SSTORE POP DUP4 PUSH1 0x1 SWAP1 DUP1 MLOAD SWAP1 PUSH1 0x20 ADD SWAP1 PUSH3 0x8F SWAP3 SWAP2 SWAP1 PUSH3 0xCA JUMP JUMPDEST POP DUP3 PUSH1 0x2 SWAP1 DUP1 MLOAD SWAP1 PUSH1 0x20 ADD SWAP1 PUSH3 0xA8 SWAP3 SWAP2 SWAP1 PUSH3 0xCA JUMP JUMPDEST POP DUP2 PUSH1 0x3 DUP2 SWAP1 SSTORE POP DUP1 PUSH1 0x6 DUP2 SWAP1 SSTORE POP PUSH1 0x0 PUSH1 0x4 DUP2 SWAP1 SSTORE POP POP POP POP POP POP PUSH3 0x4E1 JUMP JUMPDEST DUP3 DUP1 SLOAD PUSH3 0xD8 SWAP1 PUSH3 0x4AC JUMP JUMPDEST SWAP1 PUSH1 0x0 MSTORE PUSH1 0x20 PUSH1 0x0 KECCAK256 SWAP1 PUSH1 0x1F ADD PUSH1 0x20 SWAP1 DIV DUP2 ADD SWAP3 DUP3 PUSH3 0xFC JUMPI PUSH1 0x0 DUP6 SSTORE PUSH3 0x148 JUMP JUMPDEST DUP3 PUSH1 0x1F LT PUSH3 0x117 JUMPI DUP1 MLOAD PUSH1 0xFF NOT AND DUP4 DUP1 ADD OR DUP6 SSTORE PUSH3 0x148 JUMP JUMPDEST DUP3 DUP1 ADD PUSH1 0x1 ADD DUP6 SSTORE DUP3 ISZERO PUSH3 0x148 JUMPI SWAP2 DUP3 ADD JUMPDEST DUP3 DUP2 GT ISZERO PUSH3 0x147 JUMPI DUP3 MLOAD DUP3 SSTORE SWAP2 PUSH1 0x20 ADD SWAP2 SWAP1 PUSH1 0x1 ADD SWAP1 PUSH3 0x12A JUMP JUMPDEST JUMPDEST POP SWAP1 POP PUSH3 0x157 SWAP2 SWAP1 PUSH3 0x15B JUMP JUMPDEST POP SWAP1 JUMP JUMPDEST JUMPDEST DUP1 DUP3 GT ISZERO PUSH3 0x176 JUMPI PUSH1 0x0 DUP2 PUSH1 0x0 SWAP1 SSTORE POP PUSH1 0x1 ADD PUSH3 0x15C JUMP JUMPDEST POP SWAP1 JUMP JUMPDEST PUSH1 0x0 PUSH1 0x40 MLOAD SWAP1 POP SWAP1 JUMP JUMPDEST PUSH1 0x0 DUP1 REVERT JUMPDEST PUSH1 0x0 DUP1 REVERT JUMPDEST PUSH1 0x0 PUSH20 0xFFFFFFFFFFFFFFFFFFFFFFFFFFFFFFFFFFFFFFFF DUP3 AND SWAP1 POP SWAP2 SWAP1 POP JUMP JUMPDEST PUSH1 0x0 PUSH3 0x1BB DUP3 PUSH3 0x18E JUMP JUMPDEST SWAP1 POP SWAP2 SWAP1 POP JUMP JUMPDEST PUSH3 0x1CD DUP2 PUSH3 0x1AE JUMP JUMPDEST DUP2 EQ PUSH3 0x1D9 JUMPI PUSH1 0x0 DUP1 REVERT JUMPDEST POP JUMP JUMPDEST PUSH1 0x0 DUP2 MLOAD SWAP1 POP PUSH3 0x1ED DUP2 PUSH3 0x1C2 JUMP JUMPDEST SWAP3 SWAP2 POP POP JUMP JUMPDEST PUSH1 0x0 DUP1 REVERT JUMPDEST PUSH1 0x0 DUP1 REVERT JUMPDEST PUSH1 0x0 PUSH1 0x1F NOT PUSH1 0x1F DUP4 ADD AND SWAP1 POP SWAP2 SWAP1 POP JUMP JUMPDEST PUSH32 0x4E487B7100000000000000000000000000000000000000000000000000000000 PUSH1 0x0 MSTORE PUSH1 0x41 PUSH1 0x4 MSTORE PUSH1 0x24 PUSH1 0x0 REVERT JUMPDEST PUSH3 0x248 DUP3 PUSH3 0x1FD JUMP JUMPDEST DUP2 ADD DUP2 DUP2 LT PUSH8 0xFFFFFFFFFFFFFFFF DUP3 GT OR ISZERO PUSH3 0x26A JUMPI PUSH3 0x269 PUSH3 0x20E JUMP JUMPDEST JUMPDEST DUP1 PUSH1 0x40 MSTORE POP POP POP JUMP JUMPDEST PUSH1 0x0 PUSH3 0x27F PUSH3 0x17A JUMP JUMPDEST SWAP1 POP PUSH3 0x28D DUP3 DUP3 PUSH3 0x23D JUMP JUMPDEST SWAP2 SWAP1 POP JUMP JUMPDEST PUSH1 0x0 PUSH8 0xFFFFFFFFFFFFFFFF DUP3 GT ISZERO PUSH3 0x2B0 JUMPI PUSH3 0x2AF PUSH3 0x20E JUMP JUMPDEST JUMPDEST PUSH3 0x2BB DUP3 PUSH3 0x1FD JUMP JUMPDEST SWAP1 POP PUSH1 0x20 DUP2 ADD SWAP1 POP SWAP2 SWAP1 POP JUMP JUMPDEST PUSH1 0x0 JUMPDEST DUP4 DUP2 LT ISZERO PUSH3 0x2E8 JUMPI DUP1 DUP3 ADD MLOAD DUP2 DUP5 ADD MSTORE PUSH1 0x20 DUP2 ADD SWAP1 POP PUSH3 0x2CB JUMP JUMPDEST DUP4 DUP2 GT ISZERO PUSH3 0x2F8 JUMPI PUSH1 0x0 DUP5 DUP5 ADD MSTORE JUMPDEST POP POP POP POP JUMP JUMPDEST PUSH1 0x0 PUSH3 0x315 PUSH3 0x30F DUP5 PUSH3 0x292 JUMP JUMPDEST PUSH3 0x273 JUMP JUMPDEST SWAP1 POP DUP3 DUP2 MSTORE PUSH1 0x20 DUP2 ADD DUP5 DUP5 DUP5 ADD GT ISZERO PUSH3 0x334 JUMPI PUSH3 0x333 PUSH3 0x1F8 JUMP JUMPDEST JUMPDEST PUSH3 0x341 DUP5 DUP3 DUP6 PUSH3 0x2C8 JUMP JUMPDEST POP SWAP4 SWAP3 POP POP POP JUMP JUMPDEST PUSH1 0x0 DUP3 PUSH1 0x1F DUP4 ADD SLT PUSH3 0x361 JUMPI PUSH3 0x360 PUSH3 0x1F3 JUMP JUMPDEST JUMPDEST DUP2 MLOAD PUSH3 0x373 DUP5 DUP3 PUSH1 0x20 DUP7 ADD PUSH3 0x2FE JUMP JUMPDEST SWAP2 POP POP SWAP3 SWAP2 POP POP JUMP JUMPDEST PUSH1 0x0 DUP2 SWAP1 POP SWAP2 SWAP1 POP JUMP JUMPDEST PUSH3 0x391 DUP2 PUSH3 0x37C JUMP JUMPDEST DUP2 EQ PUSH3 0x39D JUMPI PUSH1 0x0 DUP1 REVERT JUMPDEST POP JUMP JUMPDEST PUSH1 0x0 DUP2 MLOAD SWAP1 POP PUSH3 0x3B1 DUP2 PUSH3 0x386 JUMP JUMPDEST SWAP3 SWAP2 POP POP JUMP JUMPDEST PUSH1 0x0 DUP1 PUSH1 0x0 DUP1 PUSH1 0x0 PUSH1 0xA0 DUP7 DUP9 SUB SLT ISZERO PUSH3 0x3D6 JUMPI PUSH3 0x3D5 PUSH3 0x184 JUMP JUMPDEST JUMPDEST PUSH1 0x0 PUSH3 0x3E6 DUP9 DUP3 DUP10 ADD PUSH3 0x1DC JUMP JUMPDEST SWAP6 POP POP PUSH1 0x20 DUP7 ADD MLOAD PUSH8 0xFFFFFFFFFFFFFFFF DUP2 GT ISZERO PUSH3 0x40A JUMPI PUSH3 0x409 PUSH3 0x189 JUMP JUMPDEST JUMPDEST PUSH3 0x418 DUP9 DUP3 DUP10 ADD PUSH3 0x349 JUMP JUMPDEST SWAP5 POP POP PUSH1 0x40 DUP7 ADD MLOAD PUSH8 0xFFFFFFFFFFFFFFFF DUP2 GT ISZERO PUSH3 0x43C JUMPI PUSH3 0x43B PUSH3 0x189 JUMP JUMPDEST JUMPDEST PUSH3 0x44A DUP9 DUP3 DUP10 ADD PUSH3 0x349 JUMP JUMPDEST SWAP4 POP POP PUSH1 0x60 PUSH3 0x45D DUP9 DUP3 DUP10 ADD PUSH3 0x3A0 JUMP JUMPDEST SWAP3 POP POP PUSH1 0x80 PUSH3 0x470 DUP9 DUP3 DUP10 ADD PUSH3 0x3A0 JUMP JUMPDEST SWAP2 POP POP SWAP3 SWAP6 POP SWAP3 SWAP6 SWAP1 SWAP4 POP JUMP JUMPDEST PUSH32 0x4E487B7100000000000000000000000000000000000000000000000000000000 PUSH1 0x0 MSTORE PUSH1 0x22 PUSH1 0x4 MSTORE PUSH1 0x24 PUSH1 0x0 REVERT JUMPDEST PUSH1 0x0 PUSH1 0x2 DUP3 DIV SWAP1 POP PUSH1 0x1 DUP3 AND DUP1 PUSH3 0x4C5 JUMPI PUSH1 0x7F DUP3 AND SWAP2 POP JUMPDEST PUSH1 0x20 DUP3 LT DUP2 SUB PUSH3 0x4DB JUMPI PUSH3 0x4DA PUSH3 0x47D JUMP JUMPDEST JUMPDEST POP SWAP2 SWAP1 POP JUMP JUMPDEST PUSH2 0x968 DUP1 PUSH3 0x4F1 PUSH1 0x0 CODECOPY PUSH1 0x0 RETURN INVALID PUSH1 0x80 PUSH1 0x40 MSTORE PUSH1 0x4 CALLDATASIZE LT PUSH2 0x3F JUMPI PUSH1 0x0 CALLDATALOAD PUSH1 0xE0 SHR DUP1 PUSH4 0x1BEAB5E8 EQ PUSH2 0x44 JUMPI DUP1 PUSH4 0xA541A2A2 EQ PUSH2 0x5B JUMPI DUP1 PUSH4 0xC2052403 EQ PUSH2 0x86 JUMPI DUP1 PUSH4 0xD7BB99BA EQ PUSH2 0x9D JUMPI JUMPDEST PUSH1 0x0 DUP1 REVERT JUMPDEST CALLVALUE DUP1 ISZERO PUSH2 0x50 JUMPI PUSH1 0x0 DUP1 REVERT JUMPDEST POP PUSH2 0x59 PUSH2 0xA7 JUMP JUMPDEST STOP JUMPDEST CALLVALUE DUP1 ISZERO PUSH2 0x67 JUMPI PUSH1 0x0 DUP1 REVERT JUMPDEST POP PUSH2 0x70 PUSH2 0x1FD JUMP JUMPDEST PUSH1 0x40 MLOAD PUSH2 0x7D SWAP2 SWAP1 PUSH2 0x577 JUMP JUMPDEST PUSH1 0x40 MLOAD DUP1 SWAP2 SUB SWAP1 RETURN JUMPDEST CALLVALUE DUP1 ISZERO PUSH2 0x92 JUMPI PUSH1 0x0 DUP1 REVERT JUMPDEST POP PUSH2 0x9B PUSH2 0x221 JUMP JUMPDEST STOP JUMPDEST PUSH2 0xA5 PUSH2 0x306 JUMP JUMPDEST STOP JUMPDEST CALLER DUP1 PUSH20 0xFFFFFFFFFFFFFFFFFFFFFFFFFFFFFFFFFFFFFFFF AND PUSH1 0x0 DUP1 SLOAD SWAP1 PUSH2 0x100 EXP SWAP1 DIV PUSH20 0xFFFFFFFFFFFFFFFFFFFFFFFFFFFFFFFFFFFFFFFF AND PUSH20 0xFFFFFFFFFFFFFFFFFFFFFFFFFFFFFFFFFFFFFFFF AND EQ PUSH2 0x100 JUMPI PUSH1 0x0 DUP1 REVERT JUMPDEST PUSH1 0x0 DUP1 PUSH1 0x2 DUP2 GT ISZERO PUSH2 0x115 JUMPI PUSH2 0x114 PUSH2 0x592 JUMP JUMPDEST JUMPDEST PUSH1 0x5 PUSH1 0x0 SWAP1 SLOAD SWAP1 PUSH2 0x100 EXP SWAP1 DIV PUSH1 0xFF AND PUSH1 0x2 DUP2 GT ISZERO PUSH2 0x137 JUMPI PUSH2 0x136 PUSH2 0x592 JUMP JUMPDEST JUMPDEST EQ PUSH2 0x141 JUMPI PUSH1 0x0 DUP1 REVERT JUMPDEST PUSH1 0x6 SLOAD TIMESTAMP GT PUSH2 0x14F JUMPI PUSH1 0x0 DUP1 REVERT JUMPDEST PUSH2 0x159 PUSH1 0x1 PUSH2 0x49B JUMP JUMPDEST PUSH1 0x0 DUP1 SLOAD SWAP1 PUSH2 0x100 EXP SWAP1 DIV PUSH20 0xFFFFFFFFFFFFFFFFFFFFFFFFFFFFFFFFFFFFFFFF AND PUSH20 0xFFFFFFFFFFFFFFFFFFFFFFFFFFFFFFFFFFFFFFFF AND PUSH2 0x8FC PUSH1 0x4 SLOAD SWAP1 DUP2 ISZERO MUL SWAP1 PUSH1 0x40 MLOAD PUSH1 0x0 PUSH1 0x40 MLOAD DUP1 DUP4 SUB DUP2 DUP6 DUP9 DUP9 CALL SWAP4 POP POP POP POP ISZERO DUP1 ISZERO PUSH2 0x1C1 JUMPI RETURNDATASIZE PUSH1 0x0 DUP1 RETURNDATACOPY RETURNDATASIZE PUSH1 0x0 REVERT JUMPDEST POP PUSH31 0x6567369884327EC669ABAD9DC032C3FC1B6C1B77AED67E31F8311864551E74 PUSH1 0x1 PUSH1 0x40 MLOAD PUSH2 0x1F1 SWAP2 SWAP1 PUSH2 0x713 JUMP JUMPDEST PUSH1 0x40 MLOAD DUP1 SWAP2 SUB SWAP1 LOG1 POP POP JUMP JUMPDEST PUSH1 0x0 DUP1 SLOAD SWAP1 PUSH2 0x100 EXP SWAP1 DIV PUSH20 0xFFFFFFFFFFFFFFFFFFFFFFFFFFFFFFFFFFFFFFFF AND DUP2 JUMP JUMPDEST PUSH1 0x2 DUP1 PUSH1 0x2 DUP2 GT ISZERO PUSH2 0x236 JUMPI PUSH2 0x235 PUSH2 0x592 JUMP JUMPDEST JUMPDEST PUSH1 0x5 PUSH1 0x0 SWAP1 SLOAD SWAP1 PUSH2 0x100 EXP SWAP1 DIV PUSH1 0xFF AND PUSH1 0x2 DUP2 GT ISZERO PUSH2 0x258 JUMPI PUSH2 0x257 PUSH2 0x592 JUMP JUMPDEST JUMPDEST EQ PUSH2 0x262 JUMPI PUSH1 0x0 DUP1 REVERT JUMPDEST PUSH1 0x0 DUP1 SLOAD SWAP1 PUSH2 0x100 EXP SWAP1 DIV PUSH20 0xFFFFFFFFFFFFFFFFFFFFFFFFFFFFFFFFFFFFFFFF AND PUSH20 0xFFFFFFFFFFFFFFFFFFFFFFFFFFFFFFFFFFFFFFFF AND PUSH2 0x8FC PUSH1 0x4 SLOAD SWAP1 DUP2 ISZERO MUL SWAP1 PUSH1 0x40 MLOAD PUSH1 0x0 PUSH1 0x40 MLOAD DUP1 DUP4 SUB DUP2 DUP6 DUP9 DUP9 CALL SWAP4 POP POP POP POP ISZERO DUP1 ISZERO PUSH2 0x2CA JUMPI RETURNDATASIZE PUSH1 0x0 DUP1 RETURNDATACOPY RETURNDATASIZE PUSH1 0x0 REVERT JUMPDEST POP PUSH32 0xDA700EA0A4F90D17381707C06CA4125E32C8A65B28E82FF0D1850AF50A6D4CCD PUSH1 0x1 PUSH1 0x40 MLOAD PUSH2 0x2FB SWAP2 SWAP1 PUSH2 0x794 JUMP JUMPDEST PUSH1 0x40 MLOAD DUP1 SWAP2 SUB SWAP1 LOG1 POP JUMP JUMPDEST PUSH1 0x0 DUP1 PUSH1 0x2 DUP2 GT ISZERO PUSH2 0x31B JUMPI PUSH2 0x31A PUSH2 0x592 JUMP JUMPDEST JUMPDEST PUSH1 0x5 PUSH1 0x0 SWAP1 SLOAD SWAP1 PUSH2 0x100 EXP SWAP1 DIV PUSH1 0xFF AND PUSH1 0x2 DUP2 GT ISZERO PUSH2 0x33D JUMPI PUSH2 0x33C PUSH2 0x592 JUMP JUMPDEST JUMPDEST EQ PUSH2 0x347 JUMPI PUSH1 0x0 DUP1 REVERT JUMPDEST PUSH1 0x6 SLOAD TIMESTAMP GT ISZERO PUSH2 0x356 JUMPI PUSH1 0x0 DUP1 REVERT JUMPDEST PUSH1 0x0 DUP1 SLOAD SWAP1 PUSH2 0x100 EXP SWAP1 DIV PUSH20 0xFFFFFFFFFFFFFFFFFFFFFFFFFFFFFFFFFFFFFFFF AND PUSH20 0xFFFFFFFFFFFFFFFFFFFFFFFFFFFFFFFFFFFFFFFF AND CALLER PUSH20 0xFFFFFFFFFFFFFFFFFFFFFFFFFFFFFFFFFFFFFFFF AND SUB PUSH2 0x3AE JUMPI PUSH1 0x0 DUP1 REVERT JUMPDEST PUSH2 0x400 CALLVALUE PUSH1 0x7 PUSH1 0x0 CALLER PUSH20 0xFFFFFFFFFFFFFFFFFFFFFFFFFFFFFFFFFFFFFFFF AND PUSH20 0xFFFFFFFFFFFFFFFFFFFFFFFFFFFFFFFFFFFFFFFF AND DUP2 MSTORE PUSH1 0x20 ADD SWAP1 DUP2 MSTORE PUSH1 0x20 ADD PUSH1 0x0 KECCAK256 SLOAD PUSH2 0x4C8 SWAP1 SWAP2 SWAP1 PUSH4 0xFFFFFFFF AND JUMP JUMPDEST PUSH1 0x7 PUSH1 0x0 CALLER PUSH20 0xFFFFFFFFFFFFFFFFFFFFFFFFFFFFFFFFFFFFFFFF AND PUSH20 0xFFFFFFFFFFFFFFFFFFFFFFFFFFFFFFFFFFFFFFFF AND DUP2 MSTORE PUSH1 0x20 ADD SWAP1 DUP2 MSTORE PUSH1 0x20 ADD PUSH1 0x0 KECCAK256 DUP2 SWAP1 SSTORE POP CALLVALUE PUSH1 0x4 SLOAD PUSH2 0x451 SWAP2 SWAP1 PUSH2 0x802 JUMP JUMPDEST PUSH1 0x4 DUP2 SWAP1 SSTORE POP PUSH32 0x75AE3E7C973A88747144369F710C5999060A6321BE0506174D3F5C64BDFC674E CALLER CALLVALUE PUSH1 0x40 MLOAD PUSH2 0x488 SWAP3 SWAP2 SWAP1 PUSH2 0x888 JUMP JUMPDEST PUSH1 0x40 MLOAD DUP1 SWAP2 SUB SWAP1 LOG1 PUSH2 0x498 PUSH2 0x4DE JUMP JUMPDEST POP JUMP JUMPDEST DUP1 PUSH1 0x5 PUSH1 0x0 PUSH2 0x100 EXP DUP2 SLOAD DUP2 PUSH1 0xFF MUL NOT AND SWAP1 DUP4 PUSH1 0x2 DUP2 GT ISZERO PUSH2 0x4C0 JUMPI PUSH2 0x4BF PUSH2 0x592 JUMP JUMPDEST JUMPDEST MUL OR SWAP1 SSTORE POP POP JUMP JUMPDEST PUSH1 0x0 DUP2 DUP4 PUSH2 0x4D6 SWAP2 SWAP1 PUSH2 0x802 JUMP JUMPDEST SWAP1 POP SWAP3 SWAP2 POP POP JUMP JUMPDEST PUSH1 0x4 SLOAD PUSH1 0x3 SLOAD LT PUSH2 0x534 JUMPI PUSH32 0x15AC727D1CA51352F519E3F5899500EAD795E56A4A39CEAFEEA835331346017A PUSH1 0x1 PUSH1 0x40 MLOAD PUSH2 0x519 SWAP2 SWAP1 PUSH2 0x8FD JUMP JUMPDEST PUSH1 0x40 MLOAD DUP1 SWAP2 SUB SWAP1 LOG1 PUSH2 0x52B PUSH1 0x2 PUSH2 0x49B JUMP JUMPDEST PUSH2 0x533 PUSH2 0x221 JUMP JUMPDEST JUMPDEST JUMP JUMPDEST PUSH1 0x0 PUSH20 0xFFFFFFFFFFFFFFFFFFFFFFFFFFFFFFFFFFFFFFFF DUP3 AND SWAP1 POP SWAP2 SWAP1 POP JUMP JUMPDEST PUSH1 0x0 PUSH2 0x561 DUP3 PUSH2 0x536 JUMP JUMPDEST SWAP1 POP SWAP2 SWAP1 POP JUMP JUMPDEST PUSH2 0x571 DUP2 PUSH2 0x556 JUMP JUMPDEST DUP3 MSTORE POP POP JUMP JUMPDEST PUSH1 0x0 PUSH1 0x20 DUP3 ADD SWAP1 POP PUSH2 0x58C PUSH1 0x0 DUP4 ADD DUP5 PUSH2 0x568 JUMP JUMPDEST SWAP3 SWAP2 POP POP JUMP JUMPDEST PUSH32 0x4E487B7100000000000000000000000000000000000000000000000000000000 PUSH1 0x0 MSTORE PUSH1 0x21 PUSH1 0x4 MSTORE PUSH1 0x24 PUSH1 0x0 REVERT JUMPDEST PUSH1 0x0 DUP3 DUP3 MSTORE PUSH1 0x20 DUP3 ADD SWAP1 POP SWAP3 SWAP2 POP POP JUMP JUMPDEST PUSH32 0x46756E6420726574726569766564000000000000000000000000000000000000 PUSH1 0x0 DUP3 ADD MSTORE POP JUMP JUMPDEST PUSH1 0x0 PUSH2 0x608 PUSH1 0xE DUP4 PUSH2 0x5C1 JUMP JUMPDEST SWAP2 POP PUSH2 0x613 DUP3 PUSH2 0x5D2 JUMP JUMPDEST PUSH1 0x20 DUP3 ADD SWAP1 POP SWAP2 SWAP1 POP JUMP JUMPDEST PUSH32 0x4E487B7100000000000000000000000000000000000000000000000000000000 PUSH1 0x0 MSTORE PUSH1 0x22 PUSH1 0x4 MSTORE PUSH1 0x24 PUSH1 0x0 REVERT JUMPDEST PUSH1 0x0 PUSH1 0x2 DUP3 DIV SWAP1 POP PUSH1 0x1 DUP3 AND DUP1 PUSH2 0x665 JUMPI PUSH1 0x7F DUP3 AND SWAP2 POP JUMPDEST PUSH1 0x20 DUP3 LT DUP2 SUB PUSH2 0x678 JUMPI PUSH2 0x677 PUSH2 0x61E JUMP JUMPDEST JUMPDEST POP SWAP2 SWAP1 POP JUMP JUMPDEST PUSH1 0x0 DUP2 SWAP1 POP DUP2 PUSH1 0x0 MSTORE PUSH1 0x20 PUSH1 0x0 KECCAK256 SWAP1 POP SWAP2 SWAP1 POP JUMP JUMPDEST PUSH1 0x0 DUP2 SLOAD PUSH2 0x6A0 DUP2 PUSH2 0x64D JUMP JUMPDEST PUSH2 0x6AA DUP2 DUP7 PUSH2 0x5C1 JUMP JUMPDEST SWAP5 POP PUSH1 0x1 DUP3 AND PUSH1 0x0 DUP2 EQ PUSH2 0x6C5 JUMPI PUSH1 0x1 DUP2 EQ PUSH2 0x6D7 JUMPI PUSH2 0x70A JUMP JUMPDEST PUSH1 0xFF NOT DUP4 AND DUP7 MSTORE PUSH1 0x20 DUP7 ADD SWAP4 POP PUSH2 0x70A JUMP JUMPDEST PUSH2 0x6E0 DUP6 PUSH2 0x67E JUMP JUMPDEST PUSH1 0x0 JUMPDEST DUP4 DUP2 LT ISZERO PUSH2 0x702 JUMPI DUP2 SLOAD DUP2 DUP10 ADD MSTORE PUSH1 0x1 DUP3 ADD SWAP2 POP PUSH1 0x20 DUP2 ADD SWAP1 POP PUSH2 0x6E3 JUMP JUMPDEST DUP1 DUP9 ADD SWAP6 POP POP POP JUMPDEST POP POP POP SWAP3 SWAP2 POP POP JUMP JUMPDEST PUSH1 0x0 PUSH1 0x40 DUP3 ADD SWAP1 POP DUP2 DUP2 SUB PUSH1 0x0 DUP4 ADD MSTORE PUSH2 0x72C DUP2 PUSH2 0x5FB JUMP JUMPDEST SWAP1 POP DUP2 DUP2 SUB PUSH1 0x20 DUP4 ADD MSTORE PUSH2 0x740 DUP2 DUP5 PUSH2 0x693 JUMP JUMPDEST SWAP1 POP SWAP3 SWAP2 POP POP JUMP JUMPDEST PUSH32 0x69732046756E6465640000000000000000000000000000000000000000000000 PUSH1 0x0 DUP3 ADD MSTORE POP JUMP JUMPDEST PUSH1 0x0 PUSH2 0x77E PUSH1 0x9 DUP4 PUSH2 0x5C1 JUMP JUMPDEST SWAP2 POP PUSH2 0x789 DUP3 PUSH2 0x748 JUMP JUMPDEST PUSH1 0x20 DUP3 ADD SWAP1 POP SWAP2 SWAP1 POP JUMP JUMPDEST PUSH1 0x0 PUSH1 0x40 DUP3 ADD SWAP1 POP DUP2 DUP2 SUB PUSH1 0x0 DUP4 ADD MSTORE PUSH2 0x7AE DUP2 DUP5 PUSH2 0x693 JUMP JUMPDEST SWAP1 POP DUP2 DUP2 SUB PUSH1 0x20 DUP4 ADD MSTORE PUSH2 0x7C1 DUP2 PUSH2 0x771 JUMP JUMPDEST SWAP1 POP SWAP3 SWAP2 POP POP JUMP JUMPDEST PUSH1 0x0 DUP2 SWAP1 POP SWAP2 SWAP1 POP JUMP JUMPDEST PUSH32 0x4E487B7100000000000000000000000000000000000000000000000000000000 PUSH1 0x0 MSTORE PUSH1 0x11 PUSH1 0x4 MSTORE PUSH1 0x24 PUSH1 0x0 REVERT JUMPDEST PUSH1 0x0 PUSH2 0x80D DUP3 PUSH2 0x7C9 JUMP JUMPDEST SWAP2 POP PUSH2 0x818 DUP4 PUSH2 0x7C9 JUMP JUMPDEST SWAP3 POP DUP3 PUSH32 0xFFFFFFFFFFFFFFFFFFFFFFFFFFFFFFFFFFFFFFFFFFFFFFFFFFFFFFFFFFFFFFFF SUB DUP3 GT ISZERO PUSH2 0x84D JUMPI PUSH2 0x84C PUSH2 0x7D3 JUMP JUMPDEST JUMPDEST DUP3 DUP3 ADD SWAP1 POP SWAP3 SWAP2 POP POP JUMP JUMPDEST PUSH1 0x0 PUSH2 0x863 DUP3 PUSH2 0x536 JUMP JUMPDEST SWAP1 POP SWAP2 SWAP1 POP JUMP JUMPDEST PUSH2 0x873 DUP2 PUSH2 0x858 JUMP JUMPDEST DUP3 MSTORE POP POP JUMP JUMPDEST PUSH2 0x882 DUP2 PUSH2 0x7C9 JUMP JUMPDEST DUP3 MSTORE POP POP JUMP JUMPDEST PUSH1 0x0 PUSH1 0x40 DUP3 ADD SWAP1 POP PUSH2 0x89D PUSH1 0x0 DUP4 ADD DUP6 PUSH2 0x86A JUMP JUMPDEST PUSH2 0x8AA PUSH1 0x20 DUP4 ADD DUP5 PUSH2 0x879 JUMP JUMPDEST SWAP4 SWAP3 POP POP POP JUMP JUMPDEST PUSH32 0x54686520476F616C206973207265616368656400000000000000000000000000 PUSH1 0x0 DUP3 ADD MSTORE POP JUMP JUMPDEST PUSH1 0x0 PUSH2 0x8E7 PUSH1 0x13 DUP4 PUSH2 0x5C1 JUMP JUMPDEST SWAP2 POP PUSH2 0x8F2 DUP3 PUSH2 0x8B1 JUMP JUMPDEST PUSH1 0x20 DUP3 ADD SWAP1 POP SWAP2 SWAP1 POP JUMP JUMPDEST PUSH1 0x0 PUSH1 0x40 DUP3 ADD SWAP1 POP DUP2 DUP2 SUB PUSH1 0x0 DUP4 ADD MSTORE PUSH2 0x916 DUP2 PUSH2 0x8DA JUMP JUMPDEST SWAP1 POP DUP2 DUP2 SUB PUSH1 0x20 DUP4 ADD MSTORE PUSH2 0x92A DUP2 DUP5 PUSH2 0x693 JUMP JUMPDEST SWAP1 POP SWAP3 SWAP2 POP POP JUMP INVALID LOG2 PUSH5 0x6970667358 0x22 SLT KECCAK256 PUSH31 0x13EB572A68D47E32C00AB715871BBD2592952801967F7E0718ADAC1E557E95 PUSH5 0x736F6C6343 STOP ADDMOD 0xD STOP CALLER "
				},
				"gasEstimates": {
					"creation": {
						"codeDepositCost": "481600",
						"executionCost": "infinite",
						"totalCost": "infinite"
					},
					"external": {
						"contribute()": "infinite",
						"payOut()": "infinite",
						"projectCreator()": "2511",
						"retreiveFunds()": "infinite"
					},
					"internal": {
						"checkGoalReached()": "infinite",
						"isContributed()": "infinite",
						"setState(enum Project.State)": "24298",
						"start(string memory,string memory,uint256,uint256)": "infinite"
					}
				},
				"methodIdentifiers": {
					"contribute()": "d7bb99ba",
					"payOut()": "c2052403",
					"projectCreator()": "a541a2a2",
					"retreiveFunds()": "1beab5e8"
				}
			},
			"storageLayout": {
				"storage": [
					{
						"astId": 275,
						"contract": "contracts/Project.sol:Project",
						"label": "projectCreator",
						"offset": 0,
						"slot": "0",
						"type": "t_address_payable"
					},
					{
						"astId": 277,
						"contract": "contracts/Project.sol:Project",
						"label": "projectTitle",
						"offset": 0,
						"slot": "1",
						"type": "t_string_storage"
					},
					{
						"astId": 279,
						"contract": "contracts/Project.sol:Project",
						"label": "projectDescription",
						"offset": 0,
						"slot": "2",
						"type": "t_string_storage"
					},
					{
						"astId": 281,
						"contract": "contracts/Project.sol:Project",
						"label": "amountGoal",
						"offset": 0,
						"slot": "3",
						"type": "t_uint256"
					},
					{
						"astId": 283,
						"contract": "contracts/Project.sol:Project",
						"label": "currentBalance",
						"offset": 0,
						"slot": "4",
						"type": "t_uint256"
					},
					{
						"astId": 286,
						"contract": "contracts/Project.sol:Project",
						"label": "state",
						"offset": 0,
						"slot": "5",
						"type": "t_enum(State)273"
					},
					{
						"astId": 288,
						"contract": "contracts/Project.sol:Project",
						"label": "deadLine",
						"offset": 0,
						"slot": "6",
						"type": "t_uint256"
					},
					{
						"astId": 292,
						"contract": "contracts/Project.sol:Project",
						"label": "contributions",
						"offset": 0,
						"slot": "7",
						"type": "t_mapping(t_address,t_uint256)"
					}
				],
				"types": {
					"t_address": {
						"encoding": "inplace",
						"label": "address",
						"numberOfBytes": "20"
					},
					"t_address_payable": {
						"encoding": "inplace",
						"label": "address payable",
						"numberOfBytes": "20"
					},
					"t_enum(State)273": {
						"encoding": "inplace",
						"label": "enum Project.State",
						"numberOfBytes": "1"
					},
					"t_mapping(t_address,t_uint256)": {
						"encoding": "mapping",
						"key": "t_address",
						"label": "mapping(address => uint256)",
						"numberOfBytes": "32",
						"value": "t_uint256"
					},
					"t_string_storage": {
						"encoding": "bytes",
						"label": "string",
						"numberOfBytes": "32"
					},
					"t_uint256": {
						"encoding": "inplace",
						"label": "uint256",
						"numberOfBytes": "32"
					}
				}
			},
			"userdoc": {
				"kind": "user",
				"methods": {},
				"version": 1
			}
		}
	}
}