{
	"contracts/Crowfunding.sol": {
		"Crowfunding": {
			"abi": [
				{
					"inputs": [],
					"stateMutability": "nonpayable",
					"type": "constructor"
				},
				{
					"anonymous": false,
					"inputs": [
						{
							"indexed": false,
							"internalType": "address",
							"name": "contractAddress",
							"type": "address"
						},
						{
							"indexed": false,
							"internalType": "address",
							"name": "projectCreator",
							"type": "address"
						},
						{
							"indexed": false,
							"internalType": "string",
							"name": "projectTitle",
							"type": "string"
						},
						{
							"indexed": false,
							"internalType": "string",
							"name": "projectDesc",
							"type": "string"
						},
						{
							"indexed": false,
							"internalType": "uint256",
							"name": "deadline",
							"type": "uint256"
						},
						{
							"indexed": false,
							"internalType": "uint256",
							"name": "goalAmount",
							"type": "uint256"
						},
						{
							"indexed": false,
							"internalType": "enum Project.State",
							"name": "state",
							"type": "uint8"
						}
					],
					"name": "ProjectStarted",
					"type": "event"
				},
				{
					"inputs": [
						{
							"internalType": "address",
							"name": "_addressProjectCreator",
							"type": "address"
						}
					],
					"name": "contribute",
					"outputs": [],
					"stateMutability": "payable",
					"type": "function"
				},
				{
					"inputs": [
						{
							"internalType": "address",
							"name": "_address",
							"type": "address"
						}
					],
					"name": "getProjectByAddressCreator",
					"outputs": [
						{
							"internalType": "contract Project",
							"name": "",
							"type": "address"
						}
					],
					"stateMutability": "view",
					"type": "function"
				},
				{
					"inputs": [],
					"name": "retreiveFunds",
					"outputs": [],
					"stateMutability": "nonpayable",
					"type": "function"
				},
				{
					"inputs": [],
					"name": "returnAllProjects",
					"outputs": [
						{
							"internalType": "contract Project[]",
							"name": "",
							"type": "address[]"
						}
					],
					"stateMutability": "view",
					"type": "function"
				},
				{
					"inputs": [
						{
							"internalType": "string",
							"name": "_projectTitle",
							"type": "string"
						},
						{
							"internalType": "string",
							"name": "_projectDescription",
							"type": "string"
						},
						{
							"internalType": "uint256",
							"name": "_amountGoal",
							"type": "uint256"
						},
						{
							"internalType": "uint256",
							"name": "_nbDays",
							"type": "uint256"
						}
					],
					"name": "startProject",
					"outputs": [],
					"stateMutability": "nonpayable",
					"type": "function"
				}
			],
			"devdoc": {
				"kind": "dev",
				"methods": {
					"returnAllProjects()": {
						"details": "Function to get all projects' contract addresses.",
						"returns": {
							"_0": "A list of all projects' contract addreses"
						}
					}
				},
				"version": 1
			},
			"evm": {
				"assembly": "    /* \"contracts/Crowfunding.sol\":250:2912  contract Crowfunding {... */\n  mstore(0x40, 0x80)\n    /* \"contracts/Crowfunding.sol\":343:496  constructor() ... */\n  callvalue\n  dup1\n  iszero\n  tag_1\n  jumpi\n  0x00\n  dup1\n  revert\ntag_1:\n  pop\n    /* \"contracts/Crowfunding.sol\":372:390  Project newProject */\n  0x00\n    /* \"contracts/Crowfunding.sol\":413:423  msg.sender */\n  caller\n    /* \"contracts/Crowfunding.sol\":446:449  100 */\n  0x64\n    /* \"contracts/Crowfunding.sol\":450:452  12 */\n  0x0c\n    /* \"contracts/Crowfunding.sol\":393:453  new Project(payable(msg.sender), \"Default\",\"Default\",100,12) */\n  mload(0x40)\n  tag_4\n  swap1\n  tag_5\n  jump\t// in\ntag_4:\n  tag_6\n  swap4\n  swap3\n  swap2\n  swap1\n  tag_7\n  jump\t// in\ntag_6:\n  mload(0x40)\n  dup1\n  swap2\n  sub\n  swap1\n  0x00\n  create\n  dup1\n  iszero\n  dup1\n  iszero\n  tag_8\n  jumpi\n  returndatasize\n  0x00\n  dup1\n  returndatacopy\n  revert(0x00, returndatasize)\ntag_8:\n  pop\n    /* \"contracts/Crowfunding.sol\":372:453  Project newProject = new Project(payable(msg.sender), \"Default\",\"Default\",100,12) */\n  swap1\n  pop\n    /* \"contracts/Crowfunding.sol\":463:471  projects */\n  0x00\n    /* \"contracts/Crowfunding.sol\":477:487  newProject */\n  dup2\n    /* \"contracts/Crowfunding.sol\":463:488  projects.push(newProject) */\n  swap1\n  dup1\n  0x01\n  dup2\n  sload\n  add\n  dup1\n  dup3\n  sstore\n  dup1\n  swap2\n  pop\n  pop\n  0x01\n  swap1\n  sub\n  swap1\n  0x00\n  mstore\n  keccak256(0x00, 0x20)\n  add\n  0x00\n  swap1\n  swap2\n  swap1\n  swap2\n  swap1\n  swap2\n  0x0100\n  exp\n  dup2\n  sload\n  dup2\n  0xffffffffffffffffffffffffffffffffffffffff\n  mul\n  not\n  and\n  swap1\n  dup4\n  0xffffffffffffffffffffffffffffffffffffffff\n  and\n  mul\n  or\n  swap1\n  sstore\n  pop\n    /* \"contracts/Crowfunding.sol\":362:496  {... */\n  pop\n    /* \"contracts/Crowfunding.sol\":250:2912  contract Crowfunding {... */\n  jump(tag_10)\ntag_5:\n  dataSize(sub_1)\n  dup1\n  dataOffset(sub_1)\n  dup4\n  codecopy\n  add\n  swap1\n  jump\t// out\n    /* \"#utility.yul\":7:133   */\ntag_11:\n    /* \"#utility.yul\":44:51   */\n  0x00\n    /* \"#utility.yul\":84:126   */\n  0xffffffffffffffffffffffffffffffffffffffff\n    /* \"#utility.yul\":77:82   */\n  dup3\n    /* \"#utility.yul\":73:127   */\n  and\n    /* \"#utility.yul\":62:127   */\n  swap1\n  pop\n    /* \"#utility.yul\":7:133   */\n  swap2\n  swap1\n  pop\n  jump\t// out\n    /* \"#utility.yul\":139:243   */\ntag_12:\n    /* \"#utility.yul\":184:191   */\n  0x00\n    /* \"#utility.yul\":213:237   */\n  tag_28\n    /* \"#utility.yul\":231:236   */\n  dup3\n    /* \"#utility.yul\":213:237   */\n  tag_11\n  jump\t// in\ntag_28:\n    /* \"#utility.yul\":202:237   */\n  swap1\n  pop\n    /* \"#utility.yul\":139:243   */\n  swap2\n  swap1\n  pop\n  jump\t// out\n    /* \"#utility.yul\":249:391   */\ntag_13:\n    /* \"#utility.yul\":352:384   */\n  tag_30\n    /* \"#utility.yul\":378:383   */\n  dup2\n    /* \"#utility.yul\":352:384   */\n  tag_12\n  jump\t// in\ntag_30:\n    /* \"#utility.yul\":347:350   */\n  dup3\n    /* \"#utility.yul\":340:385   */\n  mstore\n    /* \"#utility.yul\":249:391   */\n  pop\n  pop\n  jump\t// out\n    /* \"#utility.yul\":397:566   */\ntag_14:\n    /* \"#utility.yul\":481:492   */\n  0x00\n    /* \"#utility.yul\":515:521   */\n  dup3\n    /* \"#utility.yul\":510:513   */\n  dup3\n    /* \"#utility.yul\":503:522   */\n  mstore\n    /* \"#utility.yul\":555:559   */\n  0x20\n    /* \"#utility.yul\":550:553   */\n  dup3\n    /* \"#utility.yul\":546:560   */\n  add\n    /* \"#utility.yul\":531:560   */\n  swap1\n  pop\n    /* \"#utility.yul\":397:566   */\n  swap3\n  swap2\n  pop\n  pop\n  jump\t// out\n    /* \"#utility.yul\":572:729   */\ntag_15:\n    /* \"#utility.yul\":712:721   */\n  0x44656661756c7400000000000000000000000000000000000000000000000000\n    /* \"#utility.yul\":708:709   */\n  0x00\n    /* \"#utility.yul\":700:706   */\n  dup3\n    /* \"#utility.yul\":696:710   */\n  add\n    /* \"#utility.yul\":689:722   */\n  mstore\n    /* \"#utility.yul\":572:729   */\n  pop\n  jump\t// out\n    /* \"#utility.yul\":735:1100   */\ntag_16:\n    /* \"#utility.yul\":877:880   */\n  0x00\n    /* \"#utility.yul\":898:964   */\n  tag_34\n    /* \"#utility.yul\":962:963   */\n  0x07\n    /* \"#utility.yul\":957:960   */\n  dup4\n    /* \"#utility.yul\":898:964   */\n  tag_14\n  jump\t// in\ntag_34:\n    /* \"#utility.yul\":891:964   */\n  swap2\n  pop\n    /* \"#utility.yul\":973:1066   */\n  tag_35\n    /* \"#utility.yul\":1062:1065   */\n  dup3\n    /* \"#utility.yul\":973:1066   */\n  tag_15\n  jump\t// in\ntag_35:\n    /* \"#utility.yul\":1091:1093   */\n  0x20\n    /* \"#utility.yul\":1086:1089   */\n  dup3\n    /* \"#utility.yul\":1082:1094   */\n  add\n    /* \"#utility.yul\":1075:1094   */\n  swap1\n  pop\n    /* \"#utility.yul\":735:1100   */\n  swap2\n  swap1\n  pop\n  jump\t// out\n    /* \"#utility.yul\":1106:1193   */\ntag_17:\n    /* \"#utility.yul\":1153:1160   */\n  0x00\n    /* \"#utility.yul\":1182:1187   */\n  dup2\n    /* \"#utility.yul\":1171:1187   */\n  swap1\n  pop\n    /* \"#utility.yul\":1106:1193   */\n  swap2\n  swap1\n  pop\n  jump\t// out\n    /* \"#utility.yul\":1199:1276   */\ntag_18:\n    /* \"#utility.yul\":1236:1243   */\n  0x00\n    /* \"#utility.yul\":1265:1270   */\n  dup2\n    /* \"#utility.yul\":1254:1270   */\n  swap1\n  pop\n    /* \"#utility.yul\":1199:1276   */\n  swap2\n  swap1\n  pop\n  jump\t// out\n    /* \"#utility.yul\":1282:1342   */\ntag_19:\n    /* \"#utility.yul\":1310:1313   */\n  0x00\n    /* \"#utility.yul\":1331:1336   */\n  dup2\n    /* \"#utility.yul\":1324:1336   */\n  swap1\n  pop\n    /* \"#utility.yul\":1282:1342   */\n  swap2\n  swap1\n  pop\n  jump\t// out\n    /* \"#utility.yul\":1348:1510   */\ntag_20:\n    /* \"#utility.yul\":1408:1417   */\n  0x00\n    /* \"#utility.yul\":1441:1504   */\n  tag_40\n    /* \"#utility.yul\":1459:1503   */\n  tag_41\n    /* \"#utility.yul\":1468:1502   */\n  tag_42\n    /* \"#utility.yul\":1496:1501   */\n  dup5\n    /* \"#utility.yul\":1468:1502   */\n  tag_17\n  jump\t// in\ntag_42:\n    /* \"#utility.yul\":1459:1503   */\n  tag_19\n  jump\t// in\ntag_41:\n    /* \"#utility.yul\":1441:1504   */\n  tag_18\n  jump\t// in\ntag_40:\n    /* \"#utility.yul\":1428:1504   */\n  swap1\n  pop\n    /* \"#utility.yul\":1348:1510   */\n  swap2\n  swap1\n  pop\n  jump\t// out\n    /* \"#utility.yul\":1516:1667   */\ntag_21:\n    /* \"#utility.yul\":1613:1660   */\n  tag_44\n    /* \"#utility.yul\":1654:1659   */\n  dup2\n    /* \"#utility.yul\":1613:1660   */\n  tag_20\n  jump\t// in\ntag_44:\n    /* \"#utility.yul\":1608:1611   */\n  dup3\n    /* \"#utility.yul\":1601:1661   */\n  mstore\n    /* \"#utility.yul\":1516:1667   */\n  pop\n  pop\n  jump\t// out\n    /* \"#utility.yul\":1673:1759   */\ntag_22:\n    /* \"#utility.yul\":1719:1726   */\n  0x00\n    /* \"#utility.yul\":1748:1753   */\n  dup2\n    /* \"#utility.yul\":1737:1753   */\n  swap1\n  pop\n    /* \"#utility.yul\":1673:1759   */\n  swap2\n  swap1\n  pop\n  jump\t// out\n    /* \"#utility.yul\":1765:1925   */\ntag_23:\n    /* \"#utility.yul\":1824:1833   */\n  0x00\n    /* \"#utility.yul\":1857:1919   */\n  tag_47\n    /* \"#utility.yul\":1875:1918   */\n  tag_48\n    /* \"#utility.yul\":1884:1917   */\n  tag_49\n    /* \"#utility.yul\":1911:1916   */\n  dup5\n    /* \"#utility.yul\":1884:1917   */\n  tag_22\n  jump\t// in\ntag_49:\n    /* \"#utility.yul\":1875:1918   */\n  tag_19\n  jump\t// in\ntag_48:\n    /* \"#utility.yul\":1857:1919   */\n  tag_18\n  jump\t// in\ntag_47:\n    /* \"#utility.yul\":1844:1919   */\n  swap1\n  pop\n    /* \"#utility.yul\":1765:1925   */\n  swap2\n  swap1\n  pop\n  jump\t// out\n    /* \"#utility.yul\":1931:2080   */\ntag_24:\n    /* \"#utility.yul\":2027:2073   */\n  tag_51\n    /* \"#utility.yul\":2067:2072   */\n  dup2\n    /* \"#utility.yul\":2027:2073   */\n  tag_23\n  jump\t// in\ntag_51:\n    /* \"#utility.yul\":2022:2025   */\n  dup3\n    /* \"#utility.yul\":2015:2074   */\n  mstore\n    /* \"#utility.yul\":1931:2080   */\n  pop\n  pop\n  jump\t// out\n    /* \"#utility.yul\":2086:3214   */\ntag_7:\n    /* \"#utility.yul\":2472:2476   */\n  0x00\n    /* \"#utility.yul\":2510:2513   */\n  0xa0\n    /* \"#utility.yul\":2499:2508   */\n  dup3\n    /* \"#utility.yul\":2495:2514   */\n  add\n    /* \"#utility.yul\":2487:2514   */\n  swap1\n  pop\n    /* \"#utility.yul\":2524:2611   */\n  tag_53\n    /* \"#utility.yul\":2608:2609   */\n  0x00\n    /* \"#utility.yul\":2597:2606   */\n  dup4\n    /* \"#utility.yul\":2593:2610   */\n  add\n    /* \"#utility.yul\":2584:2590   */\n  dup7\n    /* \"#utility.yul\":2524:2611   */\n  tag_13\n  jump\t// in\ntag_53:\n    /* \"#utility.yul\":2658:2667   */\n  dup2\n    /* \"#utility.yul\":2652:2656   */\n  dup2\n    /* \"#utility.yul\":2648:2668   */\n  sub\n    /* \"#utility.yul\":2643:2645   */\n  0x20\n    /* \"#utility.yul\":2632:2641   */\n  dup4\n    /* \"#utility.yul\":2628:2646   */\n  add\n    /* \"#utility.yul\":2621:2669   */\n  mstore\n    /* \"#utility.yul\":2686:2817   */\n  tag_54\n    /* \"#utility.yul\":2812:2816   */\n  dup2\n    /* \"#utility.yul\":2686:2817   */\n  tag_16\n  jump\t// in\ntag_54:\n    /* \"#utility.yul\":2678:2817   */\n  swap1\n  pop\n    /* \"#utility.yul\":2864:2873   */\n  dup2\n    /* \"#utility.yul\":2858:2862   */\n  dup2\n    /* \"#utility.yul\":2854:2874   */\n  sub\n    /* \"#utility.yul\":2849:2851   */\n  0x40\n    /* \"#utility.yul\":2838:2847   */\n  dup4\n    /* \"#utility.yul\":2834:2852   */\n  add\n    /* \"#utility.yul\":2827:2875   */\n  mstore\n    /* \"#utility.yul\":2892:3023   */\n  tag_55\n    /* \"#utility.yul\":3018:3022   */\n  dup2\n    /* \"#utility.yul\":2892:3023   */\n  tag_16\n  jump\t// in\ntag_55:\n    /* \"#utility.yul\":2884:3023   */\n  swap1\n  pop\n    /* \"#utility.yul\":3033:3115   */\n  tag_56\n    /* \"#utility.yul\":3111:3113   */\n  0x60\n    /* \"#utility.yul\":3100:3109   */\n  dup4\n    /* \"#utility.yul\":3096:3114   */\n  add\n    /* \"#utility.yul\":3087:3093   */\n  dup6\n    /* \"#utility.yul\":3033:3115   */\n  tag_21\n  jump\t// in\ntag_56:\n    /* \"#utility.yul\":3125:3207   */\n  tag_57\n    /* \"#utility.yul\":3202:3205   */\n  0x80\n    /* \"#utility.yul\":3191:3200   */\n  dup4\n    /* \"#utility.yul\":3187:3206   */\n  add\n    /* \"#utility.yul\":3178:3184   */\n  dup5\n    /* \"#utility.yul\":3125:3207   */\n  tag_24\n  jump\t// in\ntag_57:\n    /* \"#utility.yul\":2086:3214   */\n  swap5\n  swap4\n  pop\n  pop\n  pop\n  pop\n  jump\t// out\n    /* \"contracts/Crowfunding.sol\":250:2912  contract Crowfunding {... */\ntag_10:\n  dataSize(sub_0)\n  dup1\n  dataOffset(sub_0)\n  0x00\n  codecopy\n  0x00\n  return\nstop\n\nsub_0: assembly {\n        /* \"contracts/Crowfunding.sol\":250:2912  contract Crowfunding {... */\n      mstore(0x40, 0x80)\n      jumpi(tag_1, lt(calldatasize, 0x04))\n      shr(0xe0, calldataload(0x00))\n      dup1\n      0x1beab5e8\n      eq\n      tag_2\n      jumpi\n      dup1\n      0x4bf28d9e\n      eq\n      tag_3\n      jumpi\n      dup1\n      0x73e888fd\n      eq\n      tag_4\n      jumpi\n      dup1\n      0x85b6e28e\n      eq\n      tag_5\n      jumpi\n      dup1\n      0xa24a2d16\n      eq\n      tag_6\n      jumpi\n    tag_1:\n      0x00\n      dup1\n      revert\n        /* \"contracts/Crowfunding.sol\":2722:2908  function retreiveFunds() public {... */\n    tag_2:\n      callvalue\n      dup1\n      iszero\n      tag_7\n      jumpi\n      0x00\n      dup1\n      revert\n    tag_7:\n      pop\n      tag_8\n      tag_9\n      jump\t// in\n    tag_8:\n      stop\n        /* \"contracts/Crowfunding.sol\":1433:1731  function getProjectByAddressCreator(address _address) public view returns (Project) {... */\n    tag_3:\n      callvalue\n      dup1\n      iszero\n      tag_10\n      jumpi\n      0x00\n      dup1\n      revert\n    tag_10:\n      pop\n      tag_11\n      0x04\n      dup1\n      calldatasize\n      sub\n      dup2\n      add\n      swap1\n      tag_12\n      swap2\n      swap1\n      tag_13\n      jump\t// in\n    tag_12:\n      tag_14\n      jump\t// in\n    tag_11:\n      mload(0x40)\n      tag_15\n      swap2\n      swap1\n      tag_16\n      jump\t// in\n    tag_15:\n      mload(0x40)\n      dup1\n      swap2\n      sub\n      swap1\n      return\n        /* \"contracts/Crowfunding.sol\":2405:2634  function contribute(address _addressProjectCreator) payable public {... */\n    tag_4:\n      tag_17\n      0x04\n      dup1\n      calldatasize\n      sub\n      dup2\n      add\n      swap1\n      tag_18\n      swap2\n      swap1\n      tag_13\n      jump\t// in\n    tag_18:\n      tag_19\n      jump\t// in\n    tag_17:\n      stop\n        /* \"contracts/Crowfunding.sol\":939:1039  function returnAllProjects() external view returns(Project[] memory){... */\n    tag_5:\n      callvalue\n      dup1\n      iszero\n      tag_20\n      jumpi\n      0x00\n      dup1\n      revert\n    tag_20:\n      pop\n      tag_21\n      tag_22\n      jump\t// in\n    tag_21:\n      mload(0x40)\n      tag_23\n      swap2\n      swap1\n      tag_24\n      jump\t// in\n    tag_23:\n      mload(0x40)\n      dup1\n      swap2\n      sub\n      swap1\n      return\n        /* \"contracts/Crowfunding.sol\":1737:2360  function startProject (string memory _projectTitle, string memory _projectDescription, ... */\n    tag_6:\n      callvalue\n      dup1\n      iszero\n      tag_25\n      jumpi\n      0x00\n      dup1\n      revert\n    tag_25:\n      pop\n      tag_26\n      0x04\n      dup1\n      calldatasize\n      sub\n      dup2\n      add\n      swap1\n      tag_27\n      swap2\n      swap1\n      tag_28\n      jump\t// in\n    tag_27:\n      tag_29\n      jump\t// in\n    tag_26:\n      stop\n        /* \"contracts/Crowfunding.sol\":2722:2908  function retreiveFunds() public {... */\n    tag_9:\n        /* \"contracts/Crowfunding.sol\":2765:2777  bool isExist */\n      0x00\n        /* \"contracts/Crowfunding.sol\":2779:2794  Project project */\n      dup1\n        /* \"contracts/Crowfunding.sol\":2798:2831  checkProjectExistence(msg.sender) */\n      tag_31\n        /* \"contracts/Crowfunding.sol\":2820:2830  msg.sender */\n      caller\n        /* \"contracts/Crowfunding.sol\":2798:2819  checkProjectExistence */\n      tag_32\n        /* \"contracts/Crowfunding.sol\":2798:2831  checkProjectExistence(msg.sender) */\n      jump\t// in\n    tag_31:\n        /* \"contracts/Crowfunding.sol\":2764:2831  (bool isExist, Project project) = checkProjectExistence(msg.sender) */\n      swap2\n      pop\n      swap2\n      pop\n        /* \"contracts/Crowfunding.sol\":2844:2851  isExist */\n      dup2\n        /* \"contracts/Crowfunding.sol\":2841:2901  if(isExist) {... */\n      iszero\n      tag_33\n      jumpi\n        /* \"contracts/Crowfunding.sol\":2867:2874  project */\n      dup1\n        /* \"contracts/Crowfunding.sol\":2867:2888  project.retreiveFunds */\n      0xffffffffffffffffffffffffffffffffffffffff\n      and\n      0x1beab5e8\n        /* \"contracts/Crowfunding.sol\":2867:2890  project.retreiveFunds() */\n      mload(0x40)\n      dup2\n      0xffffffff\n      and\n      0xe0\n      shl\n      dup2\n      mstore\n      0x04\n      add\n      0x00\n      mload(0x40)\n      dup1\n      dup4\n      sub\n      dup2\n      0x00\n      dup8\n      dup1\n      extcodesize\n      iszero\n      dup1\n      iszero\n      tag_34\n      jumpi\n      0x00\n      dup1\n      revert\n    tag_34:\n      pop\n      gas\n      call\n      iszero\n      dup1\n      iszero\n      tag_36\n      jumpi\n      returndatasize\n      0x00\n      dup1\n      returndatacopy\n      revert(0x00, returndatasize)\n    tag_36:\n      pop\n      pop\n      pop\n      pop\n        /* \"contracts/Crowfunding.sol\":2841:2901  if(isExist) {... */\n    tag_33:\n        /* \"contracts/Crowfunding.sol\":2754:2908  {... */\n      pop\n      pop\n        /* \"contracts/Crowfunding.sol\":2722:2908  function retreiveFunds() public {... */\n      jump\t// out\n        /* \"contracts/Crowfunding.sol\":1433:1731  function getProjectByAddressCreator(address _address) public view returns (Project) {... */\n    tag_14:\n        /* \"contracts/Crowfunding.sol\":1508:1515  Project */\n      0x00\n        /* \"contracts/Crowfunding.sol\":1530:1536  uint i */\n      dup1\n        /* \"contracts/Crowfunding.sol\":1537:1538  0 */\n      0x00\n        /* \"contracts/Crowfunding.sol\":1530:1538  uint i=0 */\n      swap1\n      pop\n        /* \"contracts/Crowfunding.sol\":1526:1678  for(uint i=0; i<projects.length; i++){... */\n    tag_38:\n        /* \"contracts/Crowfunding.sol\":1542:1550  projects */\n      0x00\n        /* \"contracts/Crowfunding.sol\":1542:1557  projects.length */\n      dup1\n      sload\n      swap1\n      pop\n        /* \"contracts/Crowfunding.sol\":1540:1541  i */\n      dup2\n        /* \"contracts/Crowfunding.sol\":1540:1557  i<projects.length */\n      lt\n        /* \"contracts/Crowfunding.sol\":1526:1678  for(uint i=0; i<projects.length; i++){... */\n      iszero\n      tag_39\n      jumpi\n        /* \"contracts/Crowfunding.sol\":1611:1619  _address */\n      dup3\n        /* \"contracts/Crowfunding.sol\":1579:1619  projects[i].projectCreator() == _address */\n      0xffffffffffffffffffffffffffffffffffffffff\n      and\n        /* \"contracts/Crowfunding.sol\":1579:1587  projects */\n      0x00\n        /* \"contracts/Crowfunding.sol\":1588:1589  i */\n      dup3\n        /* \"contracts/Crowfunding.sol\":1579:1590  projects[i] */\n      dup2\n      sload\n      dup2\n      lt\n      tag_41\n      jumpi\n      tag_42\n      tag_43\n      jump\t// in\n    tag_42:\n    tag_41:\n      swap1\n      0x00\n      mstore\n      keccak256(0x00, 0x20)\n      add\n      0x00\n      swap1\n      sload\n      swap1\n      0x0100\n      exp\n      swap1\n      div\n      0xffffffffffffffffffffffffffffffffffffffff\n      and\n        /* \"contracts/Crowfunding.sol\":1579:1605  projects[i].projectCreator */\n      0xffffffffffffffffffffffffffffffffffffffff\n      and\n      0xa541a2a2\n        /* \"contracts/Crowfunding.sol\":1579:1607  projects[i].projectCreator() */\n      mload(0x40)\n      dup2\n      0xffffffff\n      and\n      0xe0\n      shl\n      dup2\n      mstore\n      0x04\n      add\n      0x20\n      mload(0x40)\n      dup1\n      dup4\n      sub\n      dup2\n      dup7\n      gas\n      staticcall\n      iszero\n      dup1\n      iszero\n      tag_46\n      jumpi\n      returndatasize\n      0x00\n      dup1\n      returndatacopy\n      revert(0x00, returndatasize)\n    tag_46:\n      pop\n      pop\n      pop\n      pop\n      mload(0x40)\n      returndatasize\n      not(0x1f)\n      0x1f\n      dup3\n      add\n      and\n      dup3\n      add\n      dup1\n      0x40\n      mstore\n      pop\n      dup2\n      add\n      swap1\n      tag_47\n      swap2\n      swap1\n      tag_48\n      jump\t// in\n    tag_47:\n        /* \"contracts/Crowfunding.sol\":1579:1619  projects[i].projectCreator() == _address */\n      0xffffffffffffffffffffffffffffffffffffffff\n      and\n      sub\n        /* \"contracts/Crowfunding.sol\":1576:1669  if(projects[i].projectCreator() == _address){... */\n      tag_49\n      jumpi\n        /* \"contracts/Crowfunding.sol\":1644:1652  projects */\n      0x00\n        /* \"contracts/Crowfunding.sol\":1653:1654  i */\n      dup2\n        /* \"contracts/Crowfunding.sol\":1644:1655  projects[i] */\n      dup2\n      sload\n      dup2\n      lt\n      tag_50\n      jumpi\n      tag_51\n      tag_43\n      jump\t// in\n    tag_51:\n    tag_50:\n      swap1\n      0x00\n      mstore\n      keccak256(0x00, 0x20)\n      add\n      0x00\n      swap1\n      sload\n      swap1\n      0x0100\n      exp\n      swap1\n      div\n      0xffffffffffffffffffffffffffffffffffffffff\n      and\n        /* \"contracts/Crowfunding.sol\":1637:1655  return projects[i] */\n      swap2\n      pop\n      pop\n      jump(tag_37)\n        /* \"contracts/Crowfunding.sol\":1576:1669  if(projects[i].projectCreator() == _address){... */\n    tag_49:\n        /* \"contracts/Crowfunding.sol\":1559:1562  i++ */\n      dup1\n      dup1\n      tag_53\n      swap1\n      tag_54\n      jump\t// in\n    tag_53:\n      swap2\n      pop\n      pop\n        /* \"contracts/Crowfunding.sol\":1526:1678  for(uint i=0; i<projects.length; i++){... */\n      jump(tag_38)\n    tag_39:\n      pop\n        /* \"contracts/Crowfunding.sol\":1694:1724  revert(\"Project not found !!\") */\n      mload(0x40)\n      0x08c379a000000000000000000000000000000000000000000000000000000000\n      dup2\n      mstore\n      0x04\n      add\n      tag_55\n      swap1\n      tag_56\n      jump\t// in\n    tag_55:\n      mload(0x40)\n      dup1\n      swap2\n      sub\n      swap1\n      revert\n        /* \"contracts/Crowfunding.sol\":1433:1731  function getProjectByAddressCreator(address _address) public view returns (Project) {... */\n    tag_37:\n      swap2\n      swap1\n      pop\n      jump\t// out\n        /* \"contracts/Crowfunding.sol\":2405:2634  function contribute(address _addressProjectCreator) payable public {... */\n    tag_19:\n        /* \"contracts/Crowfunding.sol\":2483:2495  bool isExist */\n      0x00\n        /* \"contracts/Crowfunding.sol\":2497:2512  Project project */\n      dup1\n        /* \"contracts/Crowfunding.sol\":2516:2561  checkProjectExistence(_addressProjectCreator) */\n      tag_58\n        /* \"contracts/Crowfunding.sol\":2538:2560  _addressProjectCreator */\n      dup4\n        /* \"contracts/Crowfunding.sol\":2516:2537  checkProjectExistence */\n      tag_32\n        /* \"contracts/Crowfunding.sol\":2516:2561  checkProjectExistence(_addressProjectCreator) */\n      jump\t// in\n    tag_58:\n        /* \"contracts/Crowfunding.sol\":2482:2561  (bool isExist, Project project) = checkProjectExistence(_addressProjectCreator) */\n      swap2\n      pop\n      swap2\n      pop\n        /* \"contracts/Crowfunding.sol\":2574:2581  isExist */\n      dup2\n        /* \"contracts/Crowfunding.sol\":2571:2628  if(isExist) {... */\n      iszero\n      tag_59\n      jumpi\n        /* \"contracts/Crowfunding.sol\":2597:2604  project */\n      dup1\n        /* \"contracts/Crowfunding.sol\":2597:2615  project.contribute */\n      0xffffffffffffffffffffffffffffffffffffffff\n      and\n      0xd7bb99ba\n        /* \"contracts/Crowfunding.sol\":2597:2617  project.contribute() */\n      mload(0x40)\n      dup2\n      0xffffffff\n      and\n      0xe0\n      shl\n      dup2\n      mstore\n      0x04\n      add\n      0x00\n      mload(0x40)\n      dup1\n      dup4\n      sub\n      dup2\n      0x00\n      dup8\n      dup1\n      extcodesize\n      iszero\n      dup1\n      iszero\n      tag_60\n      jumpi\n      0x00\n      dup1\n      revert\n    tag_60:\n      pop\n      gas\n      call\n      iszero\n      dup1\n      iszero\n      tag_62\n      jumpi\n      returndatasize\n      0x00\n      dup1\n      returndatacopy\n      revert(0x00, returndatasize)\n    tag_62:\n      pop\n      pop\n      pop\n      pop\n        /* \"contracts/Crowfunding.sol\":2571:2628  if(isExist) {... */\n    tag_59:\n        /* \"contracts/Crowfunding.sol\":2472:2634  {... */\n      pop\n      pop\n        /* \"contracts/Crowfunding.sol\":2405:2634  function contribute(address _addressProjectCreator) payable public {... */\n      pop\n      jump\t// out\n        /* \"contracts/Crowfunding.sol\":939:1039  function returnAllProjects() external view returns(Project[] memory){... */\n    tag_22:\n        /* \"contracts/Crowfunding.sol\":990:1006  Project[] memory */\n      0x60\n        /* \"contracts/Crowfunding.sol\":1024:1032  projects */\n      0x00\n        /* \"contracts/Crowfunding.sol\":1017:1032  return projects */\n      dup1\n      sload\n      dup1\n      0x20\n      mul\n      0x20\n      add\n      mload(0x40)\n      swap1\n      dup2\n      add\n      0x40\n      mstore\n      dup1\n      swap3\n      swap2\n      swap1\n      dup2\n      dup2\n      mstore\n      0x20\n      add\n      dup3\n      dup1\n      sload\n      dup1\n      iszero\n      tag_64\n      jumpi\n      0x20\n      mul\n      dup3\n      add\n      swap2\n      swap1\n      0x00\n      mstore\n      keccak256(0x00, 0x20)\n      swap1\n    tag_65:\n      dup2\n      0x00\n      swap1\n      sload\n      swap1\n      0x0100\n      exp\n      swap1\n      div\n      0xffffffffffffffffffffffffffffffffffffffff\n      and\n      0xffffffffffffffffffffffffffffffffffffffff\n      and\n      dup2\n      mstore\n      0x20\n      add\n      swap1\n      0x01\n      add\n      swap1\n      dup1\n      dup4\n      gt\n      tag_65\n      jumpi\n    tag_64:\n      pop\n      pop\n      pop\n      pop\n      pop\n      swap1\n      pop\n        /* \"contracts/Crowfunding.sol\":939:1039  function returnAllProjects() external view returns(Project[] memory){... */\n      swap1\n      jump\t// out\n        /* \"contracts/Crowfunding.sol\":1737:2360  function startProject (string memory _projectTitle, string memory _projectDescription, ... */\n    tag_29:\n        /* \"contracts/Crowfunding.sol\":1889:1905  uint _raiseUntil */\n      0x00\n        /* \"contracts/Crowfunding.sol\":1908:1948  block.timestamp.add(_nbDays.mul(1 days)) */\n      tag_67\n        /* \"contracts/Crowfunding.sol\":1928:1947  _nbDays.mul(1 days) */\n      tag_68\n        /* \"contracts/Crowfunding.sol\":1940:1946  1 days */\n      0x015180\n        /* \"contracts/Crowfunding.sol\":1928:1935  _nbDays */\n      dup5\n        /* \"contracts/Crowfunding.sol\":1928:1939  _nbDays.mul */\n      tag_69\n      swap1\n        /* \"contracts/Crowfunding.sol\":1928:1947  _nbDays.mul(1 days) */\n      swap2\n      swap1\n      0xffffffff\n      and\n      jump\t// in\n    tag_68:\n        /* \"contracts/Crowfunding.sol\":1908:1923  block.timestamp */\n      timestamp\n        /* \"contracts/Crowfunding.sol\":1908:1927  block.timestamp.add */\n      tag_70\n      swap1\n        /* \"contracts/Crowfunding.sol\":1908:1948  block.timestamp.add(_nbDays.mul(1 days)) */\n      swap2\n      swap1\n      0xffffffff\n      and\n      jump\t// in\n    tag_67:\n        /* \"contracts/Crowfunding.sol\":1889:1948  uint _raiseUntil = block.timestamp.add(_nbDays.mul(1 days)) */\n      swap1\n      pop\n        /* \"contracts/Crowfunding.sol\":1959:1977  Project newProject */\n      0x00\n        /* \"contracts/Crowfunding.sol\":2000:2010  msg.sender */\n      caller\n        /* \"contracts/Crowfunding.sol\":2013:2026  _projectTitle */\n      dup7\n        /* \"contracts/Crowfunding.sol\":2027:2046  _projectDescription */\n      dup7\n        /* \"contracts/Crowfunding.sol\":2047:2058  _amountGoal */\n      dup7\n        /* \"contracts/Crowfunding.sol\":2059:2070  _raiseUntil */\n      dup6\n        /* \"contracts/Crowfunding.sol\":1980:2071  new Project(payable(msg.sender), _projectTitle,_projectDescription,_amountGoal,_raiseUntil) */\n      mload(0x40)\n      tag_71\n      swap1\n      tag_72\n      jump\t// in\n    tag_71:\n      tag_73\n      swap6\n      swap5\n      swap4\n      swap3\n      swap2\n      swap1\n      tag_74\n      jump\t// in\n    tag_73:\n      mload(0x40)\n      dup1\n      swap2\n      sub\n      swap1\n      0x00\n      create\n      dup1\n      iszero\n      dup1\n      iszero\n      tag_75\n      jumpi\n      returndatasize\n      0x00\n      dup1\n      returndatacopy\n      revert(0x00, returndatasize)\n    tag_75:\n      pop\n        /* \"contracts/Crowfunding.sol\":1959:2071  Project newProject = new Project(payable(msg.sender), _projectTitle,_projectDescription,_amountGoal,_raiseUntil) */\n      swap1\n      pop\n        /* \"contracts/Crowfunding.sol\":2082:2090  projects */\n      0x00\n        /* \"contracts/Crowfunding.sol\":2096:2106  newProject */\n      dup2\n        /* \"contracts/Crowfunding.sol\":2082:2107  projects.push(newProject) */\n      swap1\n      dup1\n      0x01\n      dup2\n      sload\n      add\n      dup1\n      dup3\n      sstore\n      dup1\n      swap2\n      pop\n      pop\n      0x01\n      swap1\n      sub\n      swap1\n      0x00\n      mstore\n      keccak256(0x00, 0x20)\n      add\n      0x00\n      swap1\n      swap2\n      swap1\n      swap2\n      swap1\n      swap2\n      0x0100\n      exp\n      dup2\n      sload\n      dup2\n      0xffffffffffffffffffffffffffffffffffffffff\n      mul\n      not\n      and\n      swap1\n      dup4\n      0xffffffffffffffffffffffffffffffffffffffff\n      and\n      mul\n      or\n      swap1\n      sstore\n      pop\n        /* \"contracts/Crowfunding.sol\":2123:2353  ProjectStarted(... */\n      0xc5e9958c1e6508265757e920137857e1e705c02eb9c0e6b2a02101af19d44880\n        /* \"contracts/Crowfunding.sol\":2159:2169  newProject */\n      dup2\n        /* \"contracts/Crowfunding.sol\":2184:2194  msg.sender */\n      caller\n        /* \"contracts/Crowfunding.sol\":2208:2221  _projectTitle */\n      dup9\n        /* \"contracts/Crowfunding.sol\":2235:2254  _projectDescription */\n      dup9\n        /* \"contracts/Crowfunding.sol\":2268:2279  _raiseUntil */\n      dup7\n        /* \"contracts/Crowfunding.sol\":2293:2304  _amountGoal */\n      dup10\n        /* \"contracts/Crowfunding.sol\":2318:2343  Project.State.Fundraising */\n      0x00\n        /* \"contracts/Crowfunding.sol\":2123:2353  ProjectStarted(... */\n      mload(0x40)\n      tag_77\n      swap8\n      swap7\n      swap6\n      swap5\n      swap4\n      swap3\n      swap2\n      swap1\n      tag_78\n      jump\t// in\n    tag_77:\n      mload(0x40)\n      dup1\n      swap2\n      sub\n      swap1\n      log1\n        /* \"contracts/Crowfunding.sol\":1878:2360  {... */\n      pop\n      pop\n        /* \"contracts/Crowfunding.sol\":1737:2360  function startProject (string memory _projectTitle, string memory _projectDescription, ... */\n      pop\n      pop\n      pop\n      pop\n      jump\t// out\n        /* \"contracts/Crowfunding.sol\":1046:1427  function checkProjectExistence(address _address) internal returns(bool _isExist, Project _project){... */\n    tag_32:\n        /* \"contracts/Crowfunding.sol\":1112:1125  bool _isExist */\n      0x00\n        /* \"contracts/Crowfunding.sol\":1127:1143  Project _project */\n      dup1\n        /* \"contracts/Crowfunding.sol\":1159:1165  uint i */\n      0x00\n        /* \"contracts/Crowfunding.sol\":1171:1179  projects */\n      dup1\n        /* \"contracts/Crowfunding.sol\":1171:1186  projects.length */\n      dup1\n      sload\n      swap1\n      pop\n        /* \"contracts/Crowfunding.sol\":1169:1170  i */\n      dup2\n        /* \"contracts/Crowfunding.sol\":1169:1186  i<projects.length */\n      lt\n        /* \"contracts/Crowfunding.sol\":1155:1418  for(uint i=0; i<projects.length; i++){... */\n      iszero\n      tag_81\n      jumpi\n        /* \"contracts/Crowfunding.sol\":1240:1248  _address */\n      dup4\n        /* \"contracts/Crowfunding.sol\":1208:1248  projects[i].projectCreator() == _address */\n      0xffffffffffffffffffffffffffffffffffffffff\n      and\n        /* \"contracts/Crowfunding.sol\":1208:1216  projects */\n      0x00\n        /* \"contracts/Crowfunding.sol\":1217:1218  i */\n      dup3\n        /* \"contracts/Crowfunding.sol\":1208:1219  projects[i] */\n      dup2\n      sload\n      dup2\n      lt\n      tag_83\n      jumpi\n      tag_84\n      tag_43\n      jump\t// in\n    tag_84:\n    tag_83:\n      swap1\n      0x00\n      mstore\n      keccak256(0x00, 0x20)\n      add\n      0x00\n      swap1\n      sload\n      swap1\n      0x0100\n      exp\n      swap1\n      div\n      0xffffffffffffffffffffffffffffffffffffffff\n      and\n        /* \"contracts/Crowfunding.sol\":1208:1234  projects[i].projectCreator */\n      0xffffffffffffffffffffffffffffffffffffffff\n      and\n      0xa541a2a2\n        /* \"contracts/Crowfunding.sol\":1208:1236  projects[i].projectCreator() */\n      mload(0x40)\n      dup2\n      0xffffffff\n      and\n      0xe0\n      shl\n      dup2\n      mstore\n      0x04\n      add\n      0x20\n      mload(0x40)\n      dup1\n      dup4\n      sub\n      dup2\n      dup7\n      gas\n      staticcall\n      iszero\n      dup1\n      iszero\n      tag_87\n      jumpi\n      returndatasize\n      0x00\n      dup1\n      returndatacopy\n      revert(0x00, returndatasize)\n    tag_87:\n      pop\n      pop\n      pop\n      pop\n      mload(0x40)\n      returndatasize\n      not(0x1f)\n      0x1f\n      dup3\n      add\n      and\n      dup3\n      add\n      dup1\n      0x40\n      mstore\n      pop\n      dup2\n      add\n      swap1\n      tag_88\n      swap2\n      swap1\n      tag_48\n      jump\t// in\n    tag_88:\n        /* \"contracts/Crowfunding.sol\":1208:1248  projects[i].projectCreator() == _address */\n      0xffffffffffffffffffffffffffffffffffffffff\n      and\n      sub\n        /* \"contracts/Crowfunding.sol\":1205:1377  if(projects[i].projectCreator() == _address){... */\n      tag_89\n      jumpi\n        /* \"contracts/Crowfunding.sol\":1277:1281  true */\n      0x01\n        /* \"contracts/Crowfunding.sol\":1266:1281  _isExist = true */\n      swap3\n      pop\n        /* \"contracts/Crowfunding.sol\":1309:1317  projects */\n      0x00\n        /* \"contracts/Crowfunding.sol\":1318:1319  i */\n      dup2\n        /* \"contracts/Crowfunding.sol\":1309:1320  projects[i] */\n      dup2\n      sload\n      dup2\n      lt\n      tag_90\n      jumpi\n      tag_91\n      tag_43\n      jump\t// in\n    tag_91:\n    tag_90:\n      swap1\n      0x00\n      mstore\n      keccak256(0x00, 0x20)\n      add\n      0x00\n      swap1\n      sload\n      swap1\n      0x0100\n      exp\n      swap1\n      div\n      0xffffffffffffffffffffffffffffffffffffffff\n      and\n        /* \"contracts/Crowfunding.sol\":1298:1320  _project = projects[i] */\n      swap2\n      pop\n        /* \"contracts/Crowfunding.sol\":1337:1363  return (_isExist,_project) */\n      pop\n      jump(tag_79)\n        /* \"contracts/Crowfunding.sol\":1205:1377  if(projects[i].projectCreator() == _address){... */\n    tag_89:\n        /* \"contracts/Crowfunding.sol\":1389:1408  revert('Not found') */\n      mload(0x40)\n      0x08c379a000000000000000000000000000000000000000000000000000000000\n      dup2\n      mstore\n      0x04\n      add\n      tag_93\n      swap1\n      tag_94\n      jump\t// in\n    tag_93:\n      mload(0x40)\n      dup1\n      swap2\n      sub\n      swap1\n      revert\n        /* \"contracts/Crowfunding.sol\":1155:1418  for(uint i=0; i<projects.length; i++){... */\n    tag_81:\n      pop\n        /* \"contracts/Crowfunding.sol\":1046:1427  function checkProjectExistence(address _address) internal returns(bool _isExist, Project _project){... */\n    tag_79:\n      swap2\n      pop\n      swap2\n      jump\t// out\n        /* \"https://github.com/OpenZeppelin/openzeppelin-contracts/blob/master/contracts/utils/math/SafeMath.sol\":3465:3561  function mul(uint256 a, uint256 b) internal pure returns (uint256) {... */\n    tag_69:\n        /* \"https://github.com/OpenZeppelin/openzeppelin-contracts/blob/master/contracts/utils/math/SafeMath.sol\":3523:3530  uint256 */\n      0x00\n        /* \"https://github.com/OpenZeppelin/openzeppelin-contracts/blob/master/contracts/utils/math/SafeMath.sol\":3553:3554  b */\n      dup2\n        /* \"https://github.com/OpenZeppelin/openzeppelin-contracts/blob/master/contracts/utils/math/SafeMath.sol\":3549:3550  a */\n      dup4\n        /* \"https://github.com/OpenZeppelin/openzeppelin-contracts/blob/master/contracts/utils/math/SafeMath.sol\":3549:3554  a * b */\n      tag_97\n      swap2\n      swap1\n      tag_98\n      jump\t// in\n    tag_97:\n        /* \"https://github.com/OpenZeppelin/openzeppelin-contracts/blob/master/contracts/utils/math/SafeMath.sol\":3542:3554  return a * b */\n      swap1\n      pop\n        /* \"https://github.com/OpenZeppelin/openzeppelin-contracts/blob/master/contracts/utils/math/SafeMath.sol\":3465:3561  function mul(uint256 a, uint256 b) internal pure returns (uint256) {... */\n      swap3\n      swap2\n      pop\n      pop\n      jump\t// out\n        /* \"https://github.com/OpenZeppelin/openzeppelin-contracts/blob/master/contracts/utils/math/SafeMath.sol\":2755:2851  function add(uint256 a, uint256 b) internal pure returns (uint256) {... */\n    tag_70:\n        /* \"https://github.com/OpenZeppelin/openzeppelin-contracts/blob/master/contracts/utils/math/SafeMath.sol\":2813:2820  uint256 */\n      0x00\n        /* \"https://github.com/OpenZeppelin/openzeppelin-contracts/blob/master/contracts/utils/math/SafeMath.sol\":2843:2844  b */\n      dup2\n        /* \"https://github.com/OpenZeppelin/openzeppelin-contracts/blob/master/contracts/utils/math/SafeMath.sol\":2839:2840  a */\n      dup4\n        /* \"https://github.com/OpenZeppelin/openzeppelin-contracts/blob/master/contracts/utils/math/SafeMath.sol\":2839:2844  a + b */\n      tag_100\n      swap2\n      swap1\n      tag_101\n      jump\t// in\n    tag_100:\n        /* \"https://github.com/OpenZeppelin/openzeppelin-contracts/blob/master/contracts/utils/math/SafeMath.sol\":2832:2844  return a + b */\n      swap1\n      pop\n        /* \"https://github.com/OpenZeppelin/openzeppelin-contracts/blob/master/contracts/utils/math/SafeMath.sol\":2755:2851  function add(uint256 a, uint256 b) internal pure returns (uint256) {... */\n      swap3\n      swap2\n      pop\n      pop\n      jump\t// out\n    tag_72:\n      dataSize(sub_0)\n      dup1\n      dataOffset(sub_0)\n      dup4\n      codecopy\n      add\n      swap1\n      jump\t// out\n        /* \"#utility.yul\":7:82   */\n    tag_102:\n        /* \"#utility.yul\":40:46   */\n      0x00\n        /* \"#utility.yul\":73:75   */\n      0x40\n        /* \"#utility.yul\":67:76   */\n      mload\n        /* \"#utility.yul\":57:76   */\n      swap1\n      pop\n        /* \"#utility.yul\":7:82   */\n      swap1\n      jump\t// out\n        /* \"#utility.yul\":88:205   */\n    tag_103:\n        /* \"#utility.yul\":197:198   */\n      0x00\n        /* \"#utility.yul\":194:195   */\n      dup1\n        /* \"#utility.yul\":187:199   */\n      revert\n        /* \"#utility.yul\":211:328   */\n    tag_104:\n        /* \"#utility.yul\":320:321   */\n      0x00\n        /* \"#utility.yul\":317:318   */\n      dup1\n        /* \"#utility.yul\":310:322   */\n      revert\n        /* \"#utility.yul\":334:460   */\n    tag_105:\n        /* \"#utility.yul\":371:378   */\n      0x00\n        /* \"#utility.yul\":411:453   */\n      0xffffffffffffffffffffffffffffffffffffffff\n        /* \"#utility.yul\":404:409   */\n      dup3\n        /* \"#utility.yul\":400:454   */\n      and\n        /* \"#utility.yul\":389:454   */\n      swap1\n      pop\n        /* \"#utility.yul\":334:460   */\n      swap2\n      swap1\n      pop\n      jump\t// out\n        /* \"#utility.yul\":466:562   */\n    tag_106:\n        /* \"#utility.yul\":503:510   */\n      0x00\n        /* \"#utility.yul\":532:556   */\n      tag_160\n        /* \"#utility.yul\":550:555   */\n      dup3\n        /* \"#utility.yul\":532:556   */\n      tag_105\n      jump\t// in\n    tag_160:\n        /* \"#utility.yul\":521:556   */\n      swap1\n      pop\n        /* \"#utility.yul\":466:562   */\n      swap2\n      swap1\n      pop\n      jump\t// out\n        /* \"#utility.yul\":568:690   */\n    tag_107:\n        /* \"#utility.yul\":641:665   */\n      tag_162\n        /* \"#utility.yul\":659:664   */\n      dup2\n        /* \"#utility.yul\":641:665   */\n      tag_106\n      jump\t// in\n    tag_162:\n        /* \"#utility.yul\":634:639   */\n      dup2\n        /* \"#utility.yul\":631:666   */\n      eq\n        /* \"#utility.yul\":621:684   */\n      tag_163\n      jumpi\n        /* \"#utility.yul\":680:681   */\n      0x00\n        /* \"#utility.yul\":677:678   */\n      dup1\n        /* \"#utility.yul\":670:682   */\n      revert\n        /* \"#utility.yul\":621:684   */\n    tag_163:\n        /* \"#utility.yul\":568:690   */\n      pop\n      jump\t// out\n        /* \"#utility.yul\":696:835   */\n    tag_108:\n        /* \"#utility.yul\":742:747   */\n      0x00\n        /* \"#utility.yul\":780:786   */\n      dup2\n        /* \"#utility.yul\":767:787   */\n      calldataload\n        /* \"#utility.yul\":758:787   */\n      swap1\n      pop\n        /* \"#utility.yul\":796:829   */\n      tag_165\n        /* \"#utility.yul\":823:828   */\n      dup2\n        /* \"#utility.yul\":796:829   */\n      tag_107\n      jump\t// in\n    tag_165:\n        /* \"#utility.yul\":696:835   */\n      swap3\n      swap2\n      pop\n      pop\n      jump\t// out\n        /* \"#utility.yul\":841:1170   */\n    tag_13:\n        /* \"#utility.yul\":900:906   */\n      0x00\n        /* \"#utility.yul\":949:951   */\n      0x20\n        /* \"#utility.yul\":937:946   */\n      dup3\n        /* \"#utility.yul\":928:935   */\n      dup5\n        /* \"#utility.yul\":924:947   */\n      sub\n        /* \"#utility.yul\":920:952   */\n      slt\n        /* \"#utility.yul\":917:1036   */\n      iszero\n      tag_167\n      jumpi\n        /* \"#utility.yul\":955:1034   */\n      tag_168\n      tag_103\n      jump\t// in\n    tag_168:\n        /* \"#utility.yul\":917:1036   */\n    tag_167:\n        /* \"#utility.yul\":1075:1076   */\n      0x00\n        /* \"#utility.yul\":1100:1153   */\n      tag_169\n        /* \"#utility.yul\":1145:1152   */\n      dup5\n        /* \"#utility.yul\":1136:1142   */\n      dup3\n        /* \"#utility.yul\":1125:1134   */\n      dup6\n        /* \"#utility.yul\":1121:1143   */\n      add\n        /* \"#utility.yul\":1100:1153   */\n      tag_108\n      jump\t// in\n    tag_169:\n        /* \"#utility.yul\":1090:1153   */\n      swap2\n      pop\n        /* \"#utility.yul\":1046:1163   */\n      pop\n        /* \"#utility.yul\":841:1170   */\n      swap3\n      swap2\n      pop\n      pop\n      jump\t// out\n        /* \"#utility.yul\":1176:1236   */\n    tag_109:\n        /* \"#utility.yul\":1204:1207   */\n      0x00\n        /* \"#utility.yul\":1225:1230   */\n      dup2\n        /* \"#utility.yul\":1218:1230   */\n      swap1\n      pop\n        /* \"#utility.yul\":1176:1236   */\n      swap2\n      swap1\n      pop\n      jump\t// out\n        /* \"#utility.yul\":1242:1384   */\n    tag_110:\n        /* \"#utility.yul\":1292:1301   */\n      0x00\n        /* \"#utility.yul\":1325:1378   */\n      tag_172\n        /* \"#utility.yul\":1343:1377   */\n      tag_173\n        /* \"#utility.yul\":1352:1376   */\n      tag_174\n        /* \"#utility.yul\":1370:1375   */\n      dup5\n        /* \"#utility.yul\":1352:1376   */\n      tag_105\n      jump\t// in\n    tag_174:\n        /* \"#utility.yul\":1343:1377   */\n      tag_109\n      jump\t// in\n    tag_173:\n        /* \"#utility.yul\":1325:1378   */\n      tag_105\n      jump\t// in\n    tag_172:\n        /* \"#utility.yul\":1312:1378   */\n      swap1\n      pop\n        /* \"#utility.yul\":1242:1384   */\n      swap2\n      swap1\n      pop\n      jump\t// out\n        /* \"#utility.yul\":1390:1516   */\n    tag_111:\n        /* \"#utility.yul\":1440:1449   */\n      0x00\n        /* \"#utility.yul\":1473:1510   */\n      tag_176\n        /* \"#utility.yul\":1504:1509   */\n      dup3\n        /* \"#utility.yul\":1473:1510   */\n      tag_110\n      jump\t// in\n    tag_176:\n        /* \"#utility.yul\":1460:1510   */\n      swap1\n      pop\n        /* \"#utility.yul\":1390:1516   */\n      swap2\n      swap1\n      pop\n      jump\t// out\n        /* \"#utility.yul\":1522:1663   */\n    tag_112:\n        /* \"#utility.yul\":1587:1596   */\n      0x00\n        /* \"#utility.yul\":1620:1657   */\n      tag_178\n        /* \"#utility.yul\":1651:1656   */\n      dup3\n        /* \"#utility.yul\":1620:1657   */\n      tag_111\n      jump\t// in\n    tag_178:\n        /* \"#utility.yul\":1607:1657   */\n      swap1\n      pop\n        /* \"#utility.yul\":1522:1663   */\n      swap2\n      swap1\n      pop\n      jump\t// out\n        /* \"#utility.yul\":1669:1830   */\n    tag_113:\n        /* \"#utility.yul\":1771:1823   */\n      tag_180\n        /* \"#utility.yul\":1817:1822   */\n      dup2\n        /* \"#utility.yul\":1771:1823   */\n      tag_112\n      jump\t// in\n    tag_180:\n        /* \"#utility.yul\":1766:1769   */\n      dup3\n        /* \"#utility.yul\":1759:1824   */\n      mstore\n        /* \"#utility.yul\":1669:1830   */\n      pop\n      pop\n      jump\t// out\n        /* \"#utility.yul\":1836:2088   */\n    tag_16:\n        /* \"#utility.yul\":1944:1948   */\n      0x00\n        /* \"#utility.yul\":1982:1984   */\n      0x20\n        /* \"#utility.yul\":1971:1980   */\n      dup3\n        /* \"#utility.yul\":1967:1985   */\n      add\n        /* \"#utility.yul\":1959:1985   */\n      swap1\n      pop\n        /* \"#utility.yul\":1995:2081   */\n      tag_182\n        /* \"#utility.yul\":2078:2079   */\n      0x00\n        /* \"#utility.yul\":2067:2076   */\n      dup4\n        /* \"#utility.yul\":2063:2080   */\n      add\n        /* \"#utility.yul\":2054:2060   */\n      dup5\n        /* \"#utility.yul\":1995:2081   */\n      tag_113\n      jump\t// in\n    tag_182:\n        /* \"#utility.yul\":1836:2088   */\n      swap3\n      swap2\n      pop\n      pop\n      jump\t// out\n        /* \"#utility.yul\":2094:2223   */\n    tag_114:\n        /* \"#utility.yul\":2176:2182   */\n      0x00\n        /* \"#utility.yul\":2210:2215   */\n      dup2\n        /* \"#utility.yul\":2204:2216   */\n      mload\n        /* \"#utility.yul\":2194:2216   */\n      swap1\n      pop\n        /* \"#utility.yul\":2094:2223   */\n      swap2\n      swap1\n      pop\n      jump\t// out\n        /* \"#utility.yul\":2229:2413   */\n    tag_115:\n        /* \"#utility.yul\":2328:2339   */\n      0x00\n        /* \"#utility.yul\":2362:2368   */\n      dup3\n        /* \"#utility.yul\":2357:2360   */\n      dup3\n        /* \"#utility.yul\":2350:2369   */\n      mstore\n        /* \"#utility.yul\":2402:2406   */\n      0x20\n        /* \"#utility.yul\":2397:2400   */\n      dup3\n        /* \"#utility.yul\":2393:2407   */\n      add\n        /* \"#utility.yul\":2378:2407   */\n      swap1\n      pop\n        /* \"#utility.yul\":2229:2413   */\n      swap3\n      swap2\n      pop\n      pop\n      jump\t// out\n        /* \"#utility.yul\":2419:2566   */\n    tag_116:\n        /* \"#utility.yul\":2501:2505   */\n      0x00\n        /* \"#utility.yul\":2524:2527   */\n      dup2\n        /* \"#utility.yul\":2516:2527   */\n      swap1\n      pop\n        /* \"#utility.yul\":2554:2558   */\n      0x20\n        /* \"#utility.yul\":2549:2552   */\n      dup3\n        /* \"#utility.yul\":2545:2559   */\n      add\n        /* \"#utility.yul\":2537:2559   */\n      swap1\n      pop\n        /* \"#utility.yul\":2419:2566   */\n      swap2\n      swap1\n      pop\n      jump\t// out\n        /* \"#utility.yul\":2572:2723   */\n    tag_117:\n        /* \"#utility.yul\":2664:2716   */\n      tag_187\n        /* \"#utility.yul\":2710:2715   */\n      dup2\n        /* \"#utility.yul\":2664:2716   */\n      tag_112\n      jump\t// in\n    tag_187:\n        /* \"#utility.yul\":2659:2662   */\n      dup3\n        /* \"#utility.yul\":2652:2717   */\n      mstore\n        /* \"#utility.yul\":2572:2723   */\n      pop\n      pop\n      jump\t// out\n        /* \"#utility.yul\":2729:2938   */\n    tag_118:\n        /* \"#utility.yul\":2813:2823   */\n      0x00\n        /* \"#utility.yul\":2834:2895   */\n      tag_189\n        /* \"#utility.yul\":2891:2894   */\n      dup4\n        /* \"#utility.yul\":2883:2889   */\n      dup4\n        /* \"#utility.yul\":2834:2895   */\n      tag_117\n      jump\t// in\n    tag_189:\n        /* \"#utility.yul\":2927:2931   */\n      0x20\n        /* \"#utility.yul\":2922:2925   */\n      dup4\n        /* \"#utility.yul\":2918:2932   */\n      add\n        /* \"#utility.yul\":2904:2932   */\n      swap1\n      pop\n        /* \"#utility.yul\":2729:2938   */\n      swap3\n      swap2\n      pop\n      pop\n      jump\t// out\n        /* \"#utility.yul\":2944:3072   */\n    tag_119:\n        /* \"#utility.yul\":3029:3033   */\n      0x00\n        /* \"#utility.yul\":3061:3065   */\n      0x20\n        /* \"#utility.yul\":3056:3059   */\n      dup3\n        /* \"#utility.yul\":3052:3066   */\n      add\n        /* \"#utility.yul\":3044:3066   */\n      swap1\n      pop\n        /* \"#utility.yul\":2944:3072   */\n      swap2\n      swap1\n      pop\n      jump\t// out\n        /* \"#utility.yul\":3117:3924   */\n    tag_120:\n        /* \"#utility.yul\":3251:3254   */\n      0x00\n        /* \"#utility.yul\":3280:3349   */\n      tag_192\n        /* \"#utility.yul\":3343:3348   */\n      dup3\n        /* \"#utility.yul\":3280:3349   */\n      tag_114\n      jump\t// in\n    tag_192:\n        /* \"#utility.yul\":3365:3451   */\n      tag_193\n        /* \"#utility.yul\":3444:3450   */\n      dup2\n        /* \"#utility.yul\":3439:3442   */\n      dup6\n        /* \"#utility.yul\":3365:3451   */\n      tag_115\n      jump\t// in\n    tag_193:\n        /* \"#utility.yul\":3358:3451   */\n      swap4\n      pop\n        /* \"#utility.yul\":3475:3546   */\n      tag_194\n        /* \"#utility.yul\":3540:3545   */\n      dup4\n        /* \"#utility.yul\":3475:3546   */\n      tag_116\n      jump\t// in\n    tag_194:\n        /* \"#utility.yul\":3569:3576   */\n      dup1\n        /* \"#utility.yul\":3600:3601   */\n      0x00\n        /* \"#utility.yul\":3585:3899   */\n    tag_195:\n        /* \"#utility.yul\":3610:3616   */\n      dup4\n        /* \"#utility.yul\":3607:3608   */\n      dup2\n        /* \"#utility.yul\":3604:3617   */\n      lt\n        /* \"#utility.yul\":3585:3899   */\n      iszero\n      tag_197\n      jumpi\n        /* \"#utility.yul\":3686:3692   */\n      dup2\n        /* \"#utility.yul\":3680:3693   */\n      mload\n        /* \"#utility.yul\":3713:3791   */\n      tag_198\n        /* \"#utility.yul\":3787:3790   */\n      dup9\n        /* \"#utility.yul\":3772:3785   */\n      dup3\n        /* \"#utility.yul\":3713:3791   */\n      tag_118\n      jump\t// in\n    tag_198:\n        /* \"#utility.yul\":3706:3791   */\n      swap8\n      pop\n        /* \"#utility.yul\":3814:3889   */\n      tag_199\n        /* \"#utility.yul\":3882:3888   */\n      dup4\n        /* \"#utility.yul\":3814:3889   */\n      tag_119\n      jump\t// in\n    tag_199:\n        /* \"#utility.yul\":3804:3889   */\n      swap3\n      pop\n        /* \"#utility.yul\":3645:3899   */\n      pop\n        /* \"#utility.yul\":3632:3633   */\n      0x01\n        /* \"#utility.yul\":3629:3630   */\n      dup2\n        /* \"#utility.yul\":3625:3634   */\n      add\n        /* \"#utility.yul\":3620:3634   */\n      swap1\n      pop\n        /* \"#utility.yul\":3585:3899   */\n      jump(tag_195)\n    tag_197:\n        /* \"#utility.yul\":3589:3603   */\n      pop\n        /* \"#utility.yul\":3915:3918   */\n      dup6\n        /* \"#utility.yul\":3908:3918   */\n      swap4\n      pop\n        /* \"#utility.yul\":3256:3924   */\n      pop\n      pop\n      pop\n        /* \"#utility.yul\":3117:3924   */\n      swap3\n      swap2\n      pop\n      pop\n      jump\t// out\n        /* \"#utility.yul\":3930:4333   */\n    tag_24:\n        /* \"#utility.yul\":4088:4092   */\n      0x00\n        /* \"#utility.yul\":4126:4128   */\n      0x20\n        /* \"#utility.yul\":4115:4124   */\n      dup3\n        /* \"#utility.yul\":4111:4129   */\n      add\n        /* \"#utility.yul\":4103:4129   */\n      swap1\n      pop\n        /* \"#utility.yul\":4175:4184   */\n      dup2\n        /* \"#utility.yul\":4169:4173   */\n      dup2\n        /* \"#utility.yul\":4165:4185   */\n      sub\n        /* \"#utility.yul\":4161:4162   */\n      0x00\n        /* \"#utility.yul\":4150:4159   */\n      dup4\n        /* \"#utility.yul\":4146:4163   */\n      add\n        /* \"#utility.yul\":4139:4186   */\n      mstore\n        /* \"#utility.yul\":4203:4326   */\n      tag_201\n        /* \"#utility.yul\":4321:4325   */\n      dup2\n        /* \"#utility.yul\":4312:4318   */\n      dup5\n        /* \"#utility.yul\":4203:4326   */\n      tag_120\n      jump\t// in\n    tag_201:\n        /* \"#utility.yul\":4195:4326   */\n      swap1\n      pop\n        /* \"#utility.yul\":3930:4333   */\n      swap3\n      swap2\n      pop\n      pop\n      jump\t// out\n        /* \"#utility.yul\":4339:4456   */\n    tag_121:\n        /* \"#utility.yul\":4448:4449   */\n      0x00\n        /* \"#utility.yul\":4445:4446   */\n      dup1\n        /* \"#utility.yul\":4438:4450   */\n      revert\n        /* \"#utility.yul\":4462:4579   */\n    tag_122:\n        /* \"#utility.yul\":4571:4572   */\n      0x00\n        /* \"#utility.yul\":4568:4569   */\n      dup1\n        /* \"#utility.yul\":4561:4573   */\n      revert\n        /* \"#utility.yul\":4585:4687   */\n    tag_123:\n        /* \"#utility.yul\":4626:4632   */\n      0x00\n        /* \"#utility.yul\":4677:4679   */\n      0x1f\n        /* \"#utility.yul\":4673:4680   */\n      not\n        /* \"#utility.yul\":4668:4670   */\n      0x1f\n        /* \"#utility.yul\":4661:4666   */\n      dup4\n        /* \"#utility.yul\":4657:4671   */\n      add\n        /* \"#utility.yul\":4653:4681   */\n      and\n        /* \"#utility.yul\":4643:4681   */\n      swap1\n      pop\n        /* \"#utility.yul\":4585:4687   */\n      swap2\n      swap1\n      pop\n      jump\t// out\n        /* \"#utility.yul\":4693:4873   */\n    tag_124:\n        /* \"#utility.yul\":4741:4818   */\n      0x4e487b7100000000000000000000000000000000000000000000000000000000\n        /* \"#utility.yul\":4738:4739   */\n      0x00\n        /* \"#utility.yul\":4731:4819   */\n      mstore\n        /* \"#utility.yul\":4838:4842   */\n      0x41\n        /* \"#utility.yul\":4835:4836   */\n      0x04\n        /* \"#utility.yul\":4828:4843   */\n      mstore\n        /* \"#utility.yul\":4862:4866   */\n      0x24\n        /* \"#utility.yul\":4859:4860   */\n      0x00\n        /* \"#utility.yul\":4852:4867   */\n      revert\n        /* \"#utility.yul\":4879:5160   */\n    tag_125:\n        /* \"#utility.yul\":4962:4989   */\n      tag_207\n        /* \"#utility.yul\":4984:4988   */\n      dup3\n        /* \"#utility.yul\":4962:4989   */\n      tag_123\n      jump\t// in\n    tag_207:\n        /* \"#utility.yul\":4954:4960   */\n      dup2\n        /* \"#utility.yul\":4950:4990   */\n      add\n        /* \"#utility.yul\":5092:5098   */\n      dup2\n        /* \"#utility.yul\":5080:5090   */\n      dup2\n        /* \"#utility.yul\":5077:5099   */\n      lt\n        /* \"#utility.yul\":5056:5074   */\n      0xffffffffffffffff\n        /* \"#utility.yul\":5044:5054   */\n      dup3\n        /* \"#utility.yul\":5041:5075   */\n      gt\n        /* \"#utility.yul\":5038:5100   */\n      or\n        /* \"#utility.yul\":5035:5123   */\n      iszero\n      tag_208\n      jumpi\n        /* \"#utility.yul\":5103:5121   */\n      tag_209\n      tag_124\n      jump\t// in\n    tag_209:\n        /* \"#utility.yul\":5035:5123   */\n    tag_208:\n        /* \"#utility.yul\":5143:5153   */\n      dup1\n        /* \"#utility.yul\":5139:5141   */\n      0x40\n        /* \"#utility.yul\":5132:5154   */\n      mstore\n        /* \"#utility.yul\":4922:5160   */\n      pop\n        /* \"#utility.yul\":4879:5160   */\n      pop\n      pop\n      jump\t// out\n        /* \"#utility.yul\":5166:5295   */\n    tag_126:\n        /* \"#utility.yul\":5200:5206   */\n      0x00\n        /* \"#utility.yul\":5227:5247   */\n      tag_211\n      tag_102\n      jump\t// in\n    tag_211:\n        /* \"#utility.yul\":5217:5247   */\n      swap1\n      pop\n        /* \"#utility.yul\":5256:5289   */\n      tag_212\n        /* \"#utility.yul\":5284:5288   */\n      dup3\n        /* \"#utility.yul\":5276:5282   */\n      dup3\n        /* \"#utility.yul\":5256:5289   */\n      tag_125\n      jump\t// in\n    tag_212:\n        /* \"#utility.yul\":5166:5295   */\n      swap2\n      swap1\n      pop\n      jump\t// out\n        /* \"#utility.yul\":5301:5609   */\n    tag_127:\n        /* \"#utility.yul\":5363:5367   */\n      0x00\n        /* \"#utility.yul\":5453:5471   */\n      0xffffffffffffffff\n        /* \"#utility.yul\":5445:5451   */\n      dup3\n        /* \"#utility.yul\":5442:5472   */\n      gt\n        /* \"#utility.yul\":5439:5495   */\n      iszero\n      tag_214\n      jumpi\n        /* \"#utility.yul\":5475:5493   */\n      tag_215\n      tag_124\n      jump\t// in\n    tag_215:\n        /* \"#utility.yul\":5439:5495   */\n    tag_214:\n        /* \"#utility.yul\":5513:5542   */\n      tag_216\n        /* \"#utility.yul\":5535:5541   */\n      dup3\n        /* \"#utility.yul\":5513:5542   */\n      tag_123\n      jump\t// in\n    tag_216:\n        /* \"#utility.yul\":5505:5542   */\n      swap1\n      pop\n        /* \"#utility.yul\":5597:5601   */\n      0x20\n        /* \"#utility.yul\":5591:5595   */\n      dup2\n        /* \"#utility.yul\":5587:5602   */\n      add\n        /* \"#utility.yul\":5579:5602   */\n      swap1\n      pop\n        /* \"#utility.yul\":5301:5609   */\n      swap2\n      swap1\n      pop\n      jump\t// out\n        /* \"#utility.yul\":5615:5769   */\n    tag_128:\n        /* \"#utility.yul\":5699:5705   */\n      dup3\n        /* \"#utility.yul\":5694:5697   */\n      dup2\n        /* \"#utility.yul\":5689:5692   */\n      dup4\n        /* \"#utility.yul\":5676:5706   */\n      calldatacopy\n        /* \"#utility.yul\":5761:5762   */\n      0x00\n        /* \"#utility.yul\":5752:5758   */\n      dup4\n        /* \"#utility.yul\":5747:5750   */\n      dup4\n        /* \"#utility.yul\":5743:5759   */\n      add\n        /* \"#utility.yul\":5736:5763   */\n      mstore\n        /* \"#utility.yul\":5615:5769   */\n      pop\n      pop\n      pop\n      jump\t// out\n        /* \"#utility.yul\":5775:6187   */\n    tag_129:\n        /* \"#utility.yul\":5853:5858   */\n      0x00\n        /* \"#utility.yul\":5878:5944   */\n      tag_219\n        /* \"#utility.yul\":5894:5943   */\n      tag_220\n        /* \"#utility.yul\":5936:5942   */\n      dup5\n        /* \"#utility.yul\":5894:5943   */\n      tag_127\n      jump\t// in\n    tag_220:\n        /* \"#utility.yul\":5878:5944   */\n      tag_126\n      jump\t// in\n    tag_219:\n        /* \"#utility.yul\":5869:5944   */\n      swap1\n      pop\n        /* \"#utility.yul\":5967:5973   */\n      dup3\n        /* \"#utility.yul\":5960:5965   */\n      dup2\n        /* \"#utility.yul\":5953:5974   */\n      mstore\n        /* \"#utility.yul\":6005:6009   */\n      0x20\n        /* \"#utility.yul\":5998:6003   */\n      dup2\n        /* \"#utility.yul\":5994:6010   */\n      add\n        /* \"#utility.yul\":6043:6046   */\n      dup5\n        /* \"#utility.yul\":6034:6040   */\n      dup5\n        /* \"#utility.yul\":6029:6032   */\n      dup5\n        /* \"#utility.yul\":6025:6041   */\n      add\n        /* \"#utility.yul\":6022:6047   */\n      gt\n        /* \"#utility.yul\":6019:6131   */\n      iszero\n      tag_221\n      jumpi\n        /* \"#utility.yul\":6050:6129   */\n      tag_222\n      tag_122\n      jump\t// in\n    tag_222:\n        /* \"#utility.yul\":6019:6131   */\n    tag_221:\n        /* \"#utility.yul\":6140:6181   */\n      tag_223\n        /* \"#utility.yul\":6174:6180   */\n      dup5\n        /* \"#utility.yul\":6169:6172   */\n      dup3\n        /* \"#utility.yul\":6164:6167   */\n      dup6\n        /* \"#utility.yul\":6140:6181   */\n      tag_128\n      jump\t// in\n    tag_223:\n        /* \"#utility.yul\":5859:6187   */\n      pop\n        /* \"#utility.yul\":5775:6187   */\n      swap4\n      swap3\n      pop\n      pop\n      pop\n      jump\t// out\n        /* \"#utility.yul\":6207:6547   */\n    tag_130:\n        /* \"#utility.yul\":6263:6268   */\n      0x00\n        /* \"#utility.yul\":6312:6315   */\n      dup3\n        /* \"#utility.yul\":6305:6309   */\n      0x1f\n        /* \"#utility.yul\":6297:6303   */\n      dup4\n        /* \"#utility.yul\":6293:6310   */\n      add\n        /* \"#utility.yul\":6289:6316   */\n      slt\n        /* \"#utility.yul\":6279:6401   */\n      tag_225\n      jumpi\n        /* \"#utility.yul\":6320:6399   */\n      tag_226\n      tag_121\n      jump\t// in\n    tag_226:\n        /* \"#utility.yul\":6279:6401   */\n    tag_225:\n        /* \"#utility.yul\":6437:6443   */\n      dup2\n        /* \"#utility.yul\":6424:6444   */\n      calldataload\n        /* \"#utility.yul\":6462:6541   */\n      tag_227\n        /* \"#utility.yul\":6537:6540   */\n      dup5\n        /* \"#utility.yul\":6529:6535   */\n      dup3\n        /* \"#utility.yul\":6522:6526   */\n      0x20\n        /* \"#utility.yul\":6514:6520   */\n      dup7\n        /* \"#utility.yul\":6510:6527   */\n      add\n        /* \"#utility.yul\":6462:6541   */\n      tag_129\n      jump\t// in\n    tag_227:\n        /* \"#utility.yul\":6453:6541   */\n      swap2\n      pop\n        /* \"#utility.yul\":6269:6547   */\n      pop\n        /* \"#utility.yul\":6207:6547   */\n      swap3\n      swap2\n      pop\n      pop\n      jump\t// out\n        /* \"#utility.yul\":6553:6630   */\n    tag_131:\n        /* \"#utility.yul\":6590:6597   */\n      0x00\n        /* \"#utility.yul\":6619:6624   */\n      dup2\n        /* \"#utility.yul\":6608:6624   */\n      swap1\n      pop\n        /* \"#utility.yul\":6553:6630   */\n      swap2\n      swap1\n      pop\n      jump\t// out\n        /* \"#utility.yul\":6636:6758   */\n    tag_132:\n        /* \"#utility.yul\":6709:6733   */\n      tag_230\n        /* \"#utility.yul\":6727:6732   */\n      dup2\n        /* \"#utility.yul\":6709:6733   */\n      tag_131\n      jump\t// in\n    tag_230:\n        /* \"#utility.yul\":6702:6707   */\n      dup2\n        /* \"#utility.yul\":6699:6734   */\n      eq\n        /* \"#utility.yul\":6689:6752   */\n      tag_231\n      jumpi\n        /* \"#utility.yul\":6748:6749   */\n      0x00\n        /* \"#utility.yul\":6745:6746   */\n      dup1\n        /* \"#utility.yul\":6738:6750   */\n      revert\n        /* \"#utility.yul\":6689:6752   */\n    tag_231:\n        /* \"#utility.yul\":6636:6758   */\n      pop\n      jump\t// out\n        /* \"#utility.yul\":6764:6903   */\n    tag_133:\n        /* \"#utility.yul\":6810:6815   */\n      0x00\n        /* \"#utility.yul\":6848:6854   */\n      dup2\n        /* \"#utility.yul\":6835:6855   */\n      calldataload\n        /* \"#utility.yul\":6826:6855   */\n      swap1\n      pop\n        /* \"#utility.yul\":6864:6897   */\n      tag_233\n        /* \"#utility.yul\":6891:6896   */\n      dup2\n        /* \"#utility.yul\":6864:6897   */\n      tag_132\n      jump\t// in\n    tag_233:\n        /* \"#utility.yul\":6764:6903   */\n      swap3\n      swap2\n      pop\n      pop\n      jump\t// out\n        /* \"#utility.yul\":6909:8034   */\n    tag_28:\n        /* \"#utility.yul\":7015:7021   */\n      0x00\n        /* \"#utility.yul\":7023:7029   */\n      dup1\n        /* \"#utility.yul\":7031:7037   */\n      0x00\n        /* \"#utility.yul\":7039:7045   */\n      dup1\n        /* \"#utility.yul\":7088:7091   */\n      0x80\n        /* \"#utility.yul\":7076:7085   */\n      dup6\n        /* \"#utility.yul\":7067:7074   */\n      dup8\n        /* \"#utility.yul\":7063:7086   */\n      sub\n        /* \"#utility.yul\":7059:7092   */\n      slt\n        /* \"#utility.yul\":7056:7176   */\n      iszero\n      tag_235\n      jumpi\n        /* \"#utility.yul\":7095:7174   */\n      tag_236\n      tag_103\n      jump\t// in\n    tag_236:\n        /* \"#utility.yul\":7056:7176   */\n    tag_235:\n        /* \"#utility.yul\":7243:7244   */\n      0x00\n        /* \"#utility.yul\":7232:7241   */\n      dup6\n        /* \"#utility.yul\":7228:7245   */\n      add\n        /* \"#utility.yul\":7215:7246   */\n      calldataload\n        /* \"#utility.yul\":7273:7291   */\n      0xffffffffffffffff\n        /* \"#utility.yul\":7265:7271   */\n      dup2\n        /* \"#utility.yul\":7262:7292   */\n      gt\n        /* \"#utility.yul\":7259:7376   */\n      iszero\n      tag_237\n      jumpi\n        /* \"#utility.yul\":7295:7374   */\n      tag_238\n      tag_104\n      jump\t// in\n    tag_238:\n        /* \"#utility.yul\":7259:7376   */\n    tag_237:\n        /* \"#utility.yul\":7400:7463   */\n      tag_239\n        /* \"#utility.yul\":7455:7462   */\n      dup8\n        /* \"#utility.yul\":7446:7452   */\n      dup3\n        /* \"#utility.yul\":7435:7444   */\n      dup9\n        /* \"#utility.yul\":7431:7453   */\n      add\n        /* \"#utility.yul\":7400:7463   */\n      tag_130\n      jump\t// in\n    tag_239:\n        /* \"#utility.yul\":7390:7463   */\n      swap5\n      pop\n        /* \"#utility.yul\":7186:7473   */\n      pop\n        /* \"#utility.yul\":7540:7542   */\n      0x20\n        /* \"#utility.yul\":7529:7538   */\n      dup6\n        /* \"#utility.yul\":7525:7543   */\n      add\n        /* \"#utility.yul\":7512:7544   */\n      calldataload\n        /* \"#utility.yul\":7571:7589   */\n      0xffffffffffffffff\n        /* \"#utility.yul\":7563:7569   */\n      dup2\n        /* \"#utility.yul\":7560:7590   */\n      gt\n        /* \"#utility.yul\":7557:7674   */\n      iszero\n      tag_240\n      jumpi\n        /* \"#utility.yul\":7593:7672   */\n      tag_241\n      tag_104\n      jump\t// in\n    tag_241:\n        /* \"#utility.yul\":7557:7674   */\n    tag_240:\n        /* \"#utility.yul\":7698:7761   */\n      tag_242\n        /* \"#utility.yul\":7753:7760   */\n      dup8\n        /* \"#utility.yul\":7744:7750   */\n      dup3\n        /* \"#utility.yul\":7733:7742   */\n      dup9\n        /* \"#utility.yul\":7729:7751   */\n      add\n        /* \"#utility.yul\":7698:7761   */\n      tag_130\n      jump\t// in\n    tag_242:\n        /* \"#utility.yul\":7688:7761   */\n      swap4\n      pop\n        /* \"#utility.yul\":7483:7771   */\n      pop\n        /* \"#utility.yul\":7810:7812   */\n      0x40\n        /* \"#utility.yul\":7836:7889   */\n      tag_243\n        /* \"#utility.yul\":7881:7888   */\n      dup8\n        /* \"#utility.yul\":7872:7878   */\n      dup3\n        /* \"#utility.yul\":7861:7870   */\n      dup9\n        /* \"#utility.yul\":7857:7879   */\n      add\n        /* \"#utility.yul\":7836:7889   */\n      tag_133\n      jump\t// in\n    tag_243:\n        /* \"#utility.yul\":7826:7889   */\n      swap3\n      pop\n        /* \"#utility.yul\":7781:7899   */\n      pop\n        /* \"#utility.yul\":7938:7940   */\n      0x60\n        /* \"#utility.yul\":7964:8017   */\n      tag_244\n        /* \"#utility.yul\":8009:8016   */\n      dup8\n        /* \"#utility.yul\":8000:8006   */\n      dup3\n        /* \"#utility.yul\":7989:7998   */\n      dup9\n        /* \"#utility.yul\":7985:8007   */\n      add\n        /* \"#utility.yul\":7964:8017   */\n      tag_133\n      jump\t// in\n    tag_244:\n        /* \"#utility.yul\":7954:8017   */\n      swap2\n      pop\n        /* \"#utility.yul\":7909:8027   */\n      pop\n        /* \"#utility.yul\":6909:8034   */\n      swap3\n      swap6\n      swap2\n      swap5\n      pop\n      swap3\n      pop\n      jump\t// out\n        /* \"#utility.yul\":8040:8220   */\n    tag_43:\n        /* \"#utility.yul\":8088:8165   */\n      0x4e487b7100000000000000000000000000000000000000000000000000000000\n        /* \"#utility.yul\":8085:8086   */\n      0x00\n        /* \"#utility.yul\":8078:8166   */\n      mstore\n        /* \"#utility.yul\":8185:8189   */\n      0x32\n        /* \"#utility.yul\":8182:8183   */\n      0x04\n        /* \"#utility.yul\":8175:8190   */\n      mstore\n        /* \"#utility.yul\":8209:8213   */\n      0x24\n        /* \"#utility.yul\":8206:8207   */\n      0x00\n        /* \"#utility.yul\":8199:8214   */\n      revert\n        /* \"#utility.yul\":8226:8330   */\n    tag_134:\n        /* \"#utility.yul\":8271:8278   */\n      0x00\n        /* \"#utility.yul\":8300:8324   */\n      tag_247\n        /* \"#utility.yul\":8318:8323   */\n      dup3\n        /* \"#utility.yul\":8300:8324   */\n      tag_105\n      jump\t// in\n    tag_247:\n        /* \"#utility.yul\":8289:8324   */\n      swap1\n      pop\n        /* \"#utility.yul\":8226:8330   */\n      swap2\n      swap1\n      pop\n      jump\t// out\n        /* \"#utility.yul\":8336:8474   */\n    tag_135:\n        /* \"#utility.yul\":8417:8449   */\n      tag_249\n        /* \"#utility.yul\":8443:8448   */\n      dup2\n        /* \"#utility.yul\":8417:8449   */\n      tag_134\n      jump\t// in\n    tag_249:\n        /* \"#utility.yul\":8410:8415   */\n      dup2\n        /* \"#utility.yul\":8407:8450   */\n      eq\n        /* \"#utility.yul\":8397:8468   */\n      tag_250\n      jumpi\n        /* \"#utility.yul\":8464:8465   */\n      0x00\n        /* \"#utility.yul\":8461:8462   */\n      dup1\n        /* \"#utility.yul\":8454:8466   */\n      revert\n        /* \"#utility.yul\":8397:8468   */\n    tag_250:\n        /* \"#utility.yul\":8336:8474   */\n      pop\n      jump\t// out\n        /* \"#utility.yul\":8480:8639   */\n    tag_136:\n        /* \"#utility.yul\":8545:8550   */\n      0x00\n        /* \"#utility.yul\":8576:8582   */\n      dup2\n        /* \"#utility.yul\":8570:8583   */\n      mload\n        /* \"#utility.yul\":8561:8583   */\n      swap1\n      pop\n        /* \"#utility.yul\":8592:8633   */\n      tag_252\n        /* \"#utility.yul\":8627:8632   */\n      dup2\n        /* \"#utility.yul\":8592:8633   */\n      tag_135\n      jump\t// in\n    tag_252:\n        /* \"#utility.yul\":8480:8639   */\n      swap3\n      swap2\n      pop\n      pop\n      jump\t// out\n        /* \"#utility.yul\":8645:9012   */\n    tag_48:\n        /* \"#utility.yul\":8723:8729   */\n      0x00\n        /* \"#utility.yul\":8772:8774   */\n      0x20\n        /* \"#utility.yul\":8760:8769   */\n      dup3\n        /* \"#utility.yul\":8751:8758   */\n      dup5\n        /* \"#utility.yul\":8747:8770   */\n      sub\n        /* \"#utility.yul\":8743:8775   */\n      slt\n        /* \"#utility.yul\":8740:8859   */\n      iszero\n      tag_254\n      jumpi\n        /* \"#utility.yul\":8778:8857   */\n      tag_255\n      tag_103\n      jump\t// in\n    tag_255:\n        /* \"#utility.yul\":8740:8859   */\n    tag_254:\n        /* \"#utility.yul\":8898:8899   */\n      0x00\n        /* \"#utility.yul\":8923:8995   */\n      tag_256\n        /* \"#utility.yul\":8987:8994   */\n      dup5\n        /* \"#utility.yul\":8978:8984   */\n      dup3\n        /* \"#utility.yul\":8967:8976   */\n      dup6\n        /* \"#utility.yul\":8963:8985   */\n      add\n        /* \"#utility.yul\":8923:8995   */\n      tag_136\n      jump\t// in\n    tag_256:\n        /* \"#utility.yul\":8913:8995   */\n      swap2\n      pop\n        /* \"#utility.yul\":8869:9005   */\n      pop\n        /* \"#utility.yul\":8645:9012   */\n      swap3\n      swap2\n      pop\n      pop\n      jump\t// out\n        /* \"#utility.yul\":9018:9198   */\n    tag_137:\n        /* \"#utility.yul\":9066:9143   */\n      0x4e487b7100000000000000000000000000000000000000000000000000000000\n        /* \"#utility.yul\":9063:9064   */\n      0x00\n        /* \"#utility.yul\":9056:9144   */\n      mstore\n        /* \"#utility.yul\":9163:9167   */\n      0x11\n        /* \"#utility.yul\":9160:9161   */\n      0x04\n        /* \"#utility.yul\":9153:9168   */\n      mstore\n        /* \"#utility.yul\":9187:9191   */\n      0x24\n        /* \"#utility.yul\":9184:9185   */\n      0x00\n        /* \"#utility.yul\":9177:9192   */\n      revert\n        /* \"#utility.yul\":9204:9437   */\n    tag_54:\n        /* \"#utility.yul\":9243:9246   */\n      0x00\n        /* \"#utility.yul\":9266:9290   */\n      tag_259\n        /* \"#utility.yul\":9284:9289   */\n      dup3\n        /* \"#utility.yul\":9266:9290   */\n      tag_131\n      jump\t// in\n    tag_259:\n        /* \"#utility.yul\":9257:9290   */\n      swap2\n      pop\n        /* \"#utility.yul\":9312:9378   */\n      0xffffffffffffffffffffffffffffffffffffffffffffffffffffffffffffffff\n        /* \"#utility.yul\":9305:9310   */\n      dup3\n        /* \"#utility.yul\":9302:9379   */\n      sub\n        /* \"#utility.yul\":9299:9402   */\n      tag_260\n      jumpi\n        /* \"#utility.yul\":9382:9400   */\n      tag_261\n      tag_137\n      jump\t// in\n    tag_261:\n        /* \"#utility.yul\":9299:9402   */\n    tag_260:\n        /* \"#utility.yul\":9429:9430   */\n      0x01\n        /* \"#utility.yul\":9422:9427   */\n      dup3\n        /* \"#utility.yul\":9418:9431   */\n      add\n        /* \"#utility.yul\":9411:9431   */\n      swap1\n      pop\n        /* \"#utility.yul\":9204:9437   */\n      swap2\n      swap1\n      pop\n      jump\t// out\n        /* \"#utility.yul\":9443:9612   */\n    tag_138:\n        /* \"#utility.yul\":9527:9538   */\n      0x00\n        /* \"#utility.yul\":9561:9567   */\n      dup3\n        /* \"#utility.yul\":9556:9559   */\n      dup3\n        /* \"#utility.yul\":9549:9568   */\n      mstore\n        /* \"#utility.yul\":9601:9605   */\n      0x20\n        /* \"#utility.yul\":9596:9599   */\n      dup3\n        /* \"#utility.yul\":9592:9606   */\n      add\n        /* \"#utility.yul\":9577:9606   */\n      swap1\n      pop\n        /* \"#utility.yul\":9443:9612   */\n      swap3\n      swap2\n      pop\n      pop\n      jump\t// out\n        /* \"#utility.yul\":9618:9788   */\n    tag_139:\n        /* \"#utility.yul\":9758:9780   */\n      0x50726f6a656374206e6f7420666f756e64202121000000000000000000000000\n        /* \"#utility.yul\":9754:9755   */\n      0x00\n        /* \"#utility.yul\":9746:9752   */\n      dup3\n        /* \"#utility.yul\":9742:9756   */\n      add\n        /* \"#utility.yul\":9735:9781   */\n      mstore\n        /* \"#utility.yul\":9618:9788   */\n      pop\n      jump\t// out\n        /* \"#utility.yul\":9794:10160   */\n    tag_140:\n        /* \"#utility.yul\":9936:9939   */\n      0x00\n        /* \"#utility.yul\":9957:10024   */\n      tag_265\n        /* \"#utility.yul\":10021:10023   */\n      0x14\n        /* \"#utility.yul\":10016:10019   */\n      dup4\n        /* \"#utility.yul\":9957:10024   */\n      tag_138\n      jump\t// in\n    tag_265:\n        /* \"#utility.yul\":9950:10024   */\n      swap2\n      pop\n        /* \"#utility.yul\":10033:10126   */\n      tag_266\n        /* \"#utility.yul\":10122:10125   */\n      dup3\n        /* \"#utility.yul\":10033:10126   */\n      tag_139\n      jump\t// in\n    tag_266:\n        /* \"#utility.yul\":10151:10153   */\n      0x20\n        /* \"#utility.yul\":10146:10149   */\n      dup3\n        /* \"#utility.yul\":10142:10154   */\n      add\n        /* \"#utility.yul\":10135:10154   */\n      swap1\n      pop\n        /* \"#utility.yul\":9794:10160   */\n      swap2\n      swap1\n      pop\n      jump\t// out\n        /* \"#utility.yul\":10166:10585   */\n    tag_56:\n        /* \"#utility.yul\":10332:10336   */\n      0x00\n        /* \"#utility.yul\":10370:10372   */\n      0x20\n        /* \"#utility.yul\":10359:10368   */\n      dup3\n        /* \"#utility.yul\":10355:10373   */\n      add\n        /* \"#utility.yul\":10347:10373   */\n      swap1\n      pop\n        /* \"#utility.yul\":10419:10428   */\n      dup2\n        /* \"#utility.yul\":10413:10417   */\n      dup2\n        /* \"#utility.yul\":10409:10429   */\n      sub\n        /* \"#utility.yul\":10405:10406   */\n      0x00\n        /* \"#utility.yul\":10394:10403   */\n      dup4\n        /* \"#utility.yul\":10390:10407   */\n      add\n        /* \"#utility.yul\":10383:10430   */\n      mstore\n        /* \"#utility.yul\":10447:10578   */\n      tag_268\n        /* \"#utility.yul\":10573:10577   */\n      dup2\n        /* \"#utility.yul\":10447:10578   */\n      tag_140\n      jump\t// in\n    tag_268:\n        /* \"#utility.yul\":10439:10578   */\n      swap1\n      pop\n        /* \"#utility.yul\":10166:10585   */\n      swap2\n      swap1\n      pop\n      jump\t// out\n        /* \"#utility.yul\":10591:10733   */\n    tag_141:\n        /* \"#utility.yul\":10694:10726   */\n      tag_270\n        /* \"#utility.yul\":10720:10725   */\n      dup2\n        /* \"#utility.yul\":10694:10726   */\n      tag_134\n      jump\t// in\n    tag_270:\n        /* \"#utility.yul\":10689:10692   */\n      dup3\n        /* \"#utility.yul\":10682:10727   */\n      mstore\n        /* \"#utility.yul\":10591:10733   */\n      pop\n      pop\n      jump\t// out\n        /* \"#utility.yul\":10739:10838   */\n    tag_142:\n        /* \"#utility.yul\":10791:10797   */\n      0x00\n        /* \"#utility.yul\":10825:10830   */\n      dup2\n        /* \"#utility.yul\":10819:10831   */\n      mload\n        /* \"#utility.yul\":10809:10831   */\n      swap1\n      pop\n        /* \"#utility.yul\":10739:10838   */\n      swap2\n      swap1\n      pop\n      jump\t// out\n        /* \"#utility.yul\":10844:11151   */\n    tag_143:\n        /* \"#utility.yul\":10912:10913   */\n      0x00\n        /* \"#utility.yul\":10922:11035   */\n    tag_273:\n        /* \"#utility.yul\":10936:10942   */\n      dup4\n        /* \"#utility.yul\":10933:10934   */\n      dup2\n        /* \"#utility.yul\":10930:10943   */\n      lt\n        /* \"#utility.yul\":10922:11035   */\n      iszero\n      tag_275\n      jumpi\n        /* \"#utility.yul\":11021:11022   */\n      dup1\n        /* \"#utility.yul\":11016:11019   */\n      dup3\n        /* \"#utility.yul\":11012:11023   */\n      add\n        /* \"#utility.yul\":11006:11024   */\n      mload\n        /* \"#utility.yul\":11002:11003   */\n      dup2\n        /* \"#utility.yul\":10997:11000   */\n      dup5\n        /* \"#utility.yul\":10993:11004   */\n      add\n        /* \"#utility.yul\":10986:11025   */\n      mstore\n        /* \"#utility.yul\":10958:10960   */\n      0x20\n        /* \"#utility.yul\":10955:10956   */\n      dup2\n        /* \"#utility.yul\":10951:10961   */\n      add\n        /* \"#utility.yul\":10946:10961   */\n      swap1\n      pop\n        /* \"#utility.yul\":10922:11035   */\n      jump(tag_273)\n    tag_275:\n        /* \"#utility.yul\":11053:11059   */\n      dup4\n        /* \"#utility.yul\":11050:11051   */\n      dup2\n        /* \"#utility.yul\":11047:11060   */\n      gt\n        /* \"#utility.yul\":11044:11145   */\n      iszero\n      tag_276\n      jumpi\n        /* \"#utility.yul\":11133:11134   */\n      0x00\n        /* \"#utility.yul\":11124:11130   */\n      dup5\n        /* \"#utility.yul\":11119:11122   */\n      dup5\n        /* \"#utility.yul\":11115:11131   */\n      add\n        /* \"#utility.yul\":11108:11135   */\n      mstore\n        /* \"#utility.yul\":11044:11145   */\n    tag_276:\n        /* \"#utility.yul\":10893:11151   */\n      pop\n        /* \"#utility.yul\":10844:11151   */\n      pop\n      pop\n      pop\n      jump\t// out\n        /* \"#utility.yul\":11157:11521   */\n    tag_144:\n        /* \"#utility.yul\":11245:11248   */\n      0x00\n        /* \"#utility.yul\":11273:11312   */\n      tag_278\n        /* \"#utility.yul\":11306:11311   */\n      dup3\n        /* \"#utility.yul\":11273:11312   */\n      tag_142\n      jump\t// in\n    tag_278:\n        /* \"#utility.yul\":11328:11399   */\n      tag_279\n        /* \"#utility.yul\":11392:11398   */\n      dup2\n        /* \"#utility.yul\":11387:11390   */\n      dup6\n        /* \"#utility.yul\":11328:11399   */\n      tag_138\n      jump\t// in\n    tag_279:\n        /* \"#utility.yul\":11321:11399   */\n      swap4\n      pop\n        /* \"#utility.yul\":11408:11460   */\n      tag_280\n        /* \"#utility.yul\":11453:11459   */\n      dup2\n        /* \"#utility.yul\":11448:11451   */\n      dup6\n        /* \"#utility.yul\":11441:11445   */\n      0x20\n        /* \"#utility.yul\":11434:11439   */\n      dup7\n        /* \"#utility.yul\":11430:11446   */\n      add\n        /* \"#utility.yul\":11408:11460   */\n      tag_143\n      jump\t// in\n    tag_280:\n        /* \"#utility.yul\":11485:11514   */\n      tag_281\n        /* \"#utility.yul\":11507:11513   */\n      dup2\n        /* \"#utility.yul\":11485:11514   */\n      tag_123\n      jump\t// in\n    tag_281:\n        /* \"#utility.yul\":11480:11483   */\n      dup5\n        /* \"#utility.yul\":11476:11515   */\n      add\n        /* \"#utility.yul\":11469:11515   */\n      swap2\n      pop\n        /* \"#utility.yul\":11249:11521   */\n      pop\n        /* \"#utility.yul\":11157:11521   */\n      swap3\n      swap2\n      pop\n      pop\n      jump\t// out\n        /* \"#utility.yul\":11527:11645   */\n    tag_145:\n        /* \"#utility.yul\":11614:11638   */\n      tag_283\n        /* \"#utility.yul\":11632:11637   */\n      dup2\n        /* \"#utility.yul\":11614:11638   */\n      tag_131\n      jump\t// in\n    tag_283:\n        /* \"#utility.yul\":11609:11612   */\n      dup3\n        /* \"#utility.yul\":11602:11639   */\n      mstore\n        /* \"#utility.yul\":11527:11645   */\n      pop\n      pop\n      jump\t// out\n        /* \"#utility.yul\":11651:12529   */\n    tag_74:\n        /* \"#utility.yul\":11912:11916   */\n      0x00\n        /* \"#utility.yul\":11950:11953   */\n      0xa0\n        /* \"#utility.yul\":11939:11948   */\n      dup3\n        /* \"#utility.yul\":11935:11954   */\n      add\n        /* \"#utility.yul\":11927:11954   */\n      swap1\n      pop\n        /* \"#utility.yul\":11964:12051   */\n      tag_285\n        /* \"#utility.yul\":12048:12049   */\n      0x00\n        /* \"#utility.yul\":12037:12046   */\n      dup4\n        /* \"#utility.yul\":12033:12050   */\n      add\n        /* \"#utility.yul\":12024:12030   */\n      dup9\n        /* \"#utility.yul\":11964:12051   */\n      tag_141\n      jump\t// in\n    tag_285:\n        /* \"#utility.yul\":12098:12107   */\n      dup2\n        /* \"#utility.yul\":12092:12096   */\n      dup2\n        /* \"#utility.yul\":12088:12108   */\n      sub\n        /* \"#utility.yul\":12083:12085   */\n      0x20\n        /* \"#utility.yul\":12072:12081   */\n      dup4\n        /* \"#utility.yul\":12068:12086   */\n      add\n        /* \"#utility.yul\":12061:12109   */\n      mstore\n        /* \"#utility.yul\":12126:12204   */\n      tag_286\n        /* \"#utility.yul\":12199:12203   */\n      dup2\n        /* \"#utility.yul\":12190:12196   */\n      dup8\n        /* \"#utility.yul\":12126:12204   */\n      tag_144\n      jump\t// in\n    tag_286:\n        /* \"#utility.yul\":12118:12204   */\n      swap1\n      pop\n        /* \"#utility.yul\":12251:12260   */\n      dup2\n        /* \"#utility.yul\":12245:12249   */\n      dup2\n        /* \"#utility.yul\":12241:12261   */\n      sub\n        /* \"#utility.yul\":12236:12238   */\n      0x40\n        /* \"#utility.yul\":12225:12234   */\n      dup4\n        /* \"#utility.yul\":12221:12239   */\n      add\n        /* \"#utility.yul\":12214:12262   */\n      mstore\n        /* \"#utility.yul\":12279:12357   */\n      tag_287\n        /* \"#utility.yul\":12352:12356   */\n      dup2\n        /* \"#utility.yul\":12343:12349   */\n      dup7\n        /* \"#utility.yul\":12279:12357   */\n      tag_144\n      jump\t// in\n    tag_287:\n        /* \"#utility.yul\":12271:12357   */\n      swap1\n      pop\n        /* \"#utility.yul\":12367:12439   */\n      tag_288\n        /* \"#utility.yul\":12435:12437   */\n      0x60\n        /* \"#utility.yul\":12424:12433   */\n      dup4\n        /* \"#utility.yul\":12420:12438   */\n      add\n        /* \"#utility.yul\":12411:12417   */\n      dup6\n        /* \"#utility.yul\":12367:12439   */\n      tag_145\n      jump\t// in\n    tag_288:\n        /* \"#utility.yul\":12449:12522   */\n      tag_289\n        /* \"#utility.yul\":12517:12520   */\n      0x80\n        /* \"#utility.yul\":12506:12515   */\n      dup4\n        /* \"#utility.yul\":12502:12521   */\n      add\n        /* \"#utility.yul\":12493:12499   */\n      dup5\n        /* \"#utility.yul\":12449:12522   */\n      tag_145\n      jump\t// in\n    tag_289:\n        /* \"#utility.yul\":11651:12529   */\n      swap7\n      swap6\n      pop\n      pop\n      pop\n      pop\n      pop\n      pop\n      jump\t// out\n        /* \"#utility.yul\":12535:12653   */\n    tag_146:\n        /* \"#utility.yul\":12622:12646   */\n      tag_291\n        /* \"#utility.yul\":12640:12645   */\n      dup2\n        /* \"#utility.yul\":12622:12646   */\n      tag_106\n      jump\t// in\n    tag_291:\n        /* \"#utility.yul\":12617:12620   */\n      dup3\n        /* \"#utility.yul\":12610:12647   */\n      mstore\n        /* \"#utility.yul\":12535:12653   */\n      pop\n      pop\n      jump\t// out\n        /* \"#utility.yul\":12659:12839   */\n    tag_147:\n        /* \"#utility.yul\":12707:12784   */\n      0x4e487b7100000000000000000000000000000000000000000000000000000000\n        /* \"#utility.yul\":12704:12705   */\n      0x00\n        /* \"#utility.yul\":12697:12785   */\n      mstore\n        /* \"#utility.yul\":12804:12808   */\n      0x21\n        /* \"#utility.yul\":12801:12802   */\n      0x04\n        /* \"#utility.yul\":12794:12809   */\n      mstore\n        /* \"#utility.yul\":12828:12832   */\n      0x24\n        /* \"#utility.yul\":12825:12826   */\n      0x00\n        /* \"#utility.yul\":12818:12833   */\n      revert\n        /* \"#utility.yul\":12845:12959   */\n    tag_148:\n        /* \"#utility.yul\":12927:12928   */\n      0x03\n        /* \"#utility.yul\":12920:12925   */\n      dup2\n        /* \"#utility.yul\":12917:12929   */\n      lt\n        /* \"#utility.yul\":12907:12953   */\n      tag_294\n      jumpi\n        /* \"#utility.yul\":12933:12951   */\n      tag_295\n      tag_147\n      jump\t// in\n    tag_295:\n        /* \"#utility.yul\":12907:12953   */\n    tag_294:\n        /* \"#utility.yul\":12845:12959   */\n      pop\n      jump\t// out\n        /* \"#utility.yul\":12965:13094   */\n    tag_149:\n        /* \"#utility.yul\":13011:13018   */\n      0x00\n        /* \"#utility.yul\":13040:13045   */\n      dup2\n        /* \"#utility.yul\":13029:13045   */\n      swap1\n      pop\n        /* \"#utility.yul\":13046:13088   */\n      tag_297\n        /* \"#utility.yul\":13082:13087   */\n      dup3\n        /* \"#utility.yul\":13046:13088   */\n      tag_148\n      jump\t// in\n    tag_297:\n        /* \"#utility.yul\":12965:13094   */\n      swap2\n      swap1\n      pop\n      jump\t// out\n        /* \"#utility.yul\":13100:13229   */\n    tag_150:\n        /* \"#utility.yul\":13157:13166   */\n      0x00\n        /* \"#utility.yul\":13190:13223   */\n      tag_299\n        /* \"#utility.yul\":13217:13222   */\n      dup3\n        /* \"#utility.yul\":13190:13223   */\n      tag_149\n      jump\t// in\n    tag_299:\n        /* \"#utility.yul\":13177:13223   */\n      swap1\n      pop\n        /* \"#utility.yul\":13100:13229   */\n      swap2\n      swap1\n      pop\n      jump\t// out\n        /* \"#utility.yul\":13235:13380   */\n    tag_151:\n        /* \"#utility.yul\":13329:13373   */\n      tag_301\n        /* \"#utility.yul\":13367:13372   */\n      dup2\n        /* \"#utility.yul\":13329:13373   */\n      tag_150\n      jump\t// in\n    tag_301:\n        /* \"#utility.yul\":13324:13327   */\n      dup3\n        /* \"#utility.yul\":13317:13374   */\n      mstore\n        /* \"#utility.yul\":13235:13380   */\n      pop\n      pop\n      jump\t// out\n        /* \"#utility.yul\":13386:14468   */\n    tag_78:\n        /* \"#utility.yul\":13694:13698   */\n      0x00\n        /* \"#utility.yul\":13732:13735   */\n      0xe0\n        /* \"#utility.yul\":13721:13730   */\n      dup3\n        /* \"#utility.yul\":13717:13736   */\n      add\n        /* \"#utility.yul\":13709:13736   */\n      swap1\n      pop\n        /* \"#utility.yul\":13746:13817   */\n      tag_303\n        /* \"#utility.yul\":13814:13815   */\n      0x00\n        /* \"#utility.yul\":13803:13812   */\n      dup4\n        /* \"#utility.yul\":13799:13816   */\n      add\n        /* \"#utility.yul\":13790:13796   */\n      dup11\n        /* \"#utility.yul\":13746:13817   */\n      tag_146\n      jump\t// in\n    tag_303:\n        /* \"#utility.yul\":13827:13899   */\n      tag_304\n        /* \"#utility.yul\":13895:13897   */\n      0x20\n        /* \"#utility.yul\":13884:13893   */\n      dup4\n        /* \"#utility.yul\":13880:13898   */\n      add\n        /* \"#utility.yul\":13871:13877   */\n      dup10\n        /* \"#utility.yul\":13827:13899   */\n      tag_146\n      jump\t// in\n    tag_304:\n        /* \"#utility.yul\":13946:13955   */\n      dup2\n        /* \"#utility.yul\":13940:13944   */\n      dup2\n        /* \"#utility.yul\":13936:13956   */\n      sub\n        /* \"#utility.yul\":13931:13933   */\n      0x40\n        /* \"#utility.yul\":13920:13929   */\n      dup4\n        /* \"#utility.yul\":13916:13934   */\n      add\n        /* \"#utility.yul\":13909:13957   */\n      mstore\n        /* \"#utility.yul\":13974:14052   */\n      tag_305\n        /* \"#utility.yul\":14047:14051   */\n      dup2\n        /* \"#utility.yul\":14038:14044   */\n      dup9\n        /* \"#utility.yul\":13974:14052   */\n      tag_144\n      jump\t// in\n    tag_305:\n        /* \"#utility.yul\":13966:14052   */\n      swap1\n      pop\n        /* \"#utility.yul\":14099:14108   */\n      dup2\n        /* \"#utility.yul\":14093:14097   */\n      dup2\n        /* \"#utility.yul\":14089:14109   */\n      sub\n        /* \"#utility.yul\":14084:14086   */\n      0x60\n        /* \"#utility.yul\":14073:14082   */\n      dup4\n        /* \"#utility.yul\":14069:14087   */\n      add\n        /* \"#utility.yul\":14062:14110   */\n      mstore\n        /* \"#utility.yul\":14127:14205   */\n      tag_306\n        /* \"#utility.yul\":14200:14204   */\n      dup2\n        /* \"#utility.yul\":14191:14197   */\n      dup8\n        /* \"#utility.yul\":14127:14205   */\n      tag_144\n      jump\t// in\n    tag_306:\n        /* \"#utility.yul\":14119:14205   */\n      swap1\n      pop\n        /* \"#utility.yul\":14215:14288   */\n      tag_307\n        /* \"#utility.yul\":14283:14286   */\n      0x80\n        /* \"#utility.yul\":14272:14281   */\n      dup4\n        /* \"#utility.yul\":14268:14287   */\n      add\n        /* \"#utility.yul\":14259:14265   */\n      dup7\n        /* \"#utility.yul\":14215:14288   */\n      tag_145\n      jump\t// in\n    tag_307:\n        /* \"#utility.yul\":14298:14371   */\n      tag_308\n        /* \"#utility.yul\":14366:14369   */\n      0xa0\n        /* \"#utility.yul\":14355:14364   */\n      dup4\n        /* \"#utility.yul\":14351:14370   */\n      add\n        /* \"#utility.yul\":14342:14348   */\n      dup6\n        /* \"#utility.yul\":14298:14371   */\n      tag_145\n      jump\t// in\n    tag_308:\n        /* \"#utility.yul\":14381:14461   */\n      tag_309\n        /* \"#utility.yul\":14456:14459   */\n      0xc0\n        /* \"#utility.yul\":14445:14454   */\n      dup4\n        /* \"#utility.yul\":14441:14460   */\n      add\n        /* \"#utility.yul\":14432:14438   */\n      dup5\n        /* \"#utility.yul\":14381:14461   */\n      tag_151\n      jump\t// in\n    tag_309:\n        /* \"#utility.yul\":13386:14468   */\n      swap9\n      swap8\n      pop\n      pop\n      pop\n      pop\n      pop\n      pop\n      pop\n      pop\n      jump\t// out\n        /* \"#utility.yul\":14474:14633   */\n    tag_152:\n        /* \"#utility.yul\":14614:14625   */\n      0x4e6f7420666f756e640000000000000000000000000000000000000000000000\n        /* \"#utility.yul\":14610:14611   */\n      0x00\n        /* \"#utility.yul\":14602:14608   */\n      dup3\n        /* \"#utility.yul\":14598:14612   */\n      add\n        /* \"#utility.yul\":14591:14626   */\n      mstore\n        /* \"#utility.yul\":14474:14633   */\n      pop\n      jump\t// out\n        /* \"#utility.yul\":14639:15004   */\n    tag_153:\n        /* \"#utility.yul\":14781:14784   */\n      0x00\n        /* \"#utility.yul\":14802:14868   */\n      tag_312\n        /* \"#utility.yul\":14866:14867   */\n      0x09\n        /* \"#utility.yul\":14861:14864   */\n      dup4\n        /* \"#utility.yul\":14802:14868   */\n      tag_138\n      jump\t// in\n    tag_312:\n        /* \"#utility.yul\":14795:14868   */\n      swap2\n      pop\n        /* \"#utility.yul\":14877:14970   */\n      tag_313\n        /* \"#utility.yul\":14966:14969   */\n      dup3\n        /* \"#utility.yul\":14877:14970   */\n      tag_152\n      jump\t// in\n    tag_313:\n        /* \"#utility.yul\":14995:14997   */\n      0x20\n        /* \"#utility.yul\":14990:14993   */\n      dup3\n        /* \"#utility.yul\":14986:14998   */\n      add\n        /* \"#utility.yul\":14979:14998   */\n      swap1\n      pop\n        /* \"#utility.yul\":14639:15004   */\n      swap2\n      swap1\n      pop\n      jump\t// out\n        /* \"#utility.yul\":15010:15429   */\n    tag_94:\n        /* \"#utility.yul\":15176:15180   */\n      0x00\n        /* \"#utility.yul\":15214:15216   */\n      0x20\n        /* \"#utility.yul\":15203:15212   */\n      dup3\n        /* \"#utility.yul\":15199:15217   */\n      add\n        /* \"#utility.yul\":15191:15217   */\n      swap1\n      pop\n        /* \"#utility.yul\":15263:15272   */\n      dup2\n        /* \"#utility.yul\":15257:15261   */\n      dup2\n        /* \"#utility.yul\":15253:15273   */\n      sub\n        /* \"#utility.yul\":15249:15250   */\n      0x00\n        /* \"#utility.yul\":15238:15247   */\n      dup4\n        /* \"#utility.yul\":15234:15251   */\n      add\n        /* \"#utility.yul\":15227:15274   */\n      mstore\n        /* \"#utility.yul\":15291:15422   */\n      tag_315\n        /* \"#utility.yul\":15417:15421   */\n      dup2\n        /* \"#utility.yul\":15291:15422   */\n      tag_153\n      jump\t// in\n    tag_315:\n        /* \"#utility.yul\":15283:15422   */\n      swap1\n      pop\n        /* \"#utility.yul\":15010:15429   */\n      swap2\n      swap1\n      pop\n      jump\t// out\n        /* \"#utility.yul\":15435:15783   */\n    tag_98:\n        /* \"#utility.yul\":15475:15482   */\n      0x00\n        /* \"#utility.yul\":15498:15518   */\n      tag_317\n        /* \"#utility.yul\":15516:15517   */\n      dup3\n        /* \"#utility.yul\":15498:15518   */\n      tag_131\n      jump\t// in\n    tag_317:\n        /* \"#utility.yul\":15493:15518   */\n      swap2\n      pop\n        /* \"#utility.yul\":15532:15552   */\n      tag_318\n        /* \"#utility.yul\":15550:15551   */\n      dup4\n        /* \"#utility.yul\":15532:15552   */\n      tag_131\n      jump\t// in\n    tag_318:\n        /* \"#utility.yul\":15527:15552   */\n      swap3\n      pop\n        /* \"#utility.yul\":15720:15721   */\n      dup2\n        /* \"#utility.yul\":15652:15718   */\n      0xffffffffffffffffffffffffffffffffffffffffffffffffffffffffffffffff\n        /* \"#utility.yul\":15648:15722   */\n      div\n        /* \"#utility.yul\":15645:15646   */\n      dup4\n        /* \"#utility.yul\":15642:15723   */\n      gt\n        /* \"#utility.yul\":15637:15638   */\n      dup3\n        /* \"#utility.yul\":15630:15639   */\n      iszero\n        /* \"#utility.yul\":15623:15640   */\n      iszero\n        /* \"#utility.yul\":15619:15724   */\n      and\n        /* \"#utility.yul\":15616:15747   */\n      iszero\n      tag_319\n      jumpi\n        /* \"#utility.yul\":15727:15745   */\n      tag_320\n      tag_137\n      jump\t// in\n    tag_320:\n        /* \"#utility.yul\":15616:15747   */\n    tag_319:\n        /* \"#utility.yul\":15775:15776   */\n      dup3\n        /* \"#utility.yul\":15772:15773   */\n      dup3\n        /* \"#utility.yul\":15768:15777   */\n      mul\n        /* \"#utility.yul\":15757:15777   */\n      swap1\n      pop\n        /* \"#utility.yul\":15435:15783   */\n      swap3\n      swap2\n      pop\n      pop\n      jump\t// out\n        /* \"#utility.yul\":15789:16094   */\n    tag_101:\n        /* \"#utility.yul\":15829:15832   */\n      0x00\n        /* \"#utility.yul\":15848:15868   */\n      tag_322\n        /* \"#utility.yul\":15866:15867   */\n      dup3\n        /* \"#utility.yul\":15848:15868   */\n      tag_131\n      jump\t// in\n    tag_322:\n        /* \"#utility.yul\":15843:15868   */\n      swap2\n      pop\n        /* \"#utility.yul\":15882:15902   */\n      tag_323\n        /* \"#utility.yul\":15900:15901   */\n      dup4\n        /* \"#utility.yul\":15882:15902   */\n      tag_131\n      jump\t// in\n    tag_323:\n        /* \"#utility.yul\":15877:15902   */\n      swap3\n      pop\n        /* \"#utility.yul\":16036:16037   */\n      dup3\n        /* \"#utility.yul\":15968:16034   */\n      0xffffffffffffffffffffffffffffffffffffffffffffffffffffffffffffffff\n        /* \"#utility.yul\":15964:16038   */\n      sub\n        /* \"#utility.yul\":15961:15962   */\n      dup3\n        /* \"#utility.yul\":15958:16039   */\n      gt\n        /* \"#utility.yul\":15955:16062   */\n      iszero\n      tag_324\n      jumpi\n        /* \"#utility.yul\":16042:16060   */\n      tag_325\n      tag_137\n      jump\t// in\n    tag_325:\n        /* \"#utility.yul\":15955:16062   */\n    tag_324:\n        /* \"#utility.yul\":16086:16087   */\n      dup3\n        /* \"#utility.yul\":16083:16084   */\n      dup3\n        /* \"#utility.yul\":16079:16088   */\n      add\n        /* \"#utility.yul\":16072:16088   */\n      swap1\n      pop\n        /* \"#utility.yul\":15789:16094   */\n      swap3\n      swap2\n      pop\n      pop\n      jump\t// out\n    stop\n\n    sub_0: assembly {\n            /* \"contracts/Project.sol\":225:3719  contract Project {... */\n          mstore(0x40, 0x80)\n            /* \"contracts/Project.sol\":1500:1926  constructor... */\n          callvalue\n          dup1\n          iszero\n          tag_1\n          jumpi\n          0x00\n          dup1\n          revert\n        tag_1:\n          pop\n          mload(0x40)\n          sub(codesize, bytecodeSize)\n          dup1\n          bytecodeSize\n          dup4\n          codecopy\n          dup2\n          dup2\n          add\n          0x40\n          mstore\n          dup2\n          add\n          swap1\n          tag_2\n          swap2\n          swap1\n          tag_3\n          jump\t// in\n        tag_2:\n            /* \"contracts/Project.sol\":1724:1739  _projectCreator */\n          dup5\n            /* \"contracts/Project.sol\":1707:1721  projectCreator */\n          0x00\n          dup1\n            /* \"contracts/Project.sol\":1707:1739  projectCreator = _projectCreator */\n          0x0100\n          exp\n          dup2\n          sload\n          dup2\n          0xffffffffffffffffffffffffffffffffffffffff\n          mul\n          not\n          and\n          swap1\n          dup4\n          0xffffffffffffffffffffffffffffffffffffffff\n          and\n          mul\n          or\n          swap1\n          sstore\n          pop\n            /* \"contracts/Project.sol\":1764:1777  _projectTitle */\n          dup4\n            /* \"contracts/Project.sol\":1749:1761  projectTitle */\n          0x01\n            /* \"contracts/Project.sol\":1749:1777  projectTitle = _projectTitle */\n          swap1\n          dup1\n          mload\n          swap1\n          0x20\n          add\n          swap1\n          tag_6\n          swap3\n          swap2\n          swap1\n          tag_7\n          jump\t// in\n        tag_6:\n          pop\n            /* \"contracts/Project.sol\":1808:1827  _projectDescription */\n          dup3\n            /* \"contracts/Project.sol\":1787:1805  projectDescription */\n          0x02\n            /* \"contracts/Project.sol\":1787:1827  projectDescription = _projectDescription */\n          swap1\n          dup1\n          mload\n          swap1\n          0x20\n          add\n          swap1\n          tag_8\n          swap3\n          swap2\n          swap1\n          tag_7\n          jump\t// in\n        tag_8:\n          pop\n            /* \"contracts/Project.sol\":1850:1861  _amountGoal */\n          dup2\n            /* \"contracts/Project.sol\":1837:1847  amountGoal */\n          0x03\n            /* \"contracts/Project.sol\":1837:1861  amountGoal = _amountGoal */\n          dup2\n          swap1\n          sstore\n          pop\n            /* \"contracts/Project.sol\":1882:1891  _deadLine */\n          dup1\n            /* \"contracts/Project.sol\":1871:1879  deadLine */\n          0x06\n            /* \"contracts/Project.sol\":1871:1891  deadLine = _deadLine */\n          dup2\n          swap1\n          sstore\n          pop\n            /* \"contracts/Project.sol\":1918:1919  0 */\n          0x00\n            /* \"contracts/Project.sol\":1901:1915  currentBalance */\n          0x04\n            /* \"contracts/Project.sol\":1901:1919  currentBalance = 0 */\n          dup2\n          swap1\n          sstore\n          pop\n            /* \"contracts/Project.sol\":1500:1926  constructor... */\n          pop\n          pop\n          pop\n          pop\n          pop\n            /* \"contracts/Project.sol\":225:3719  contract Project {... */\n          jump(tag_9)\n        tag_7:\n          dup3\n          dup1\n          sload\n          tag_10\n          swap1\n          tag_11\n          jump\t// in\n        tag_10:\n          swap1\n          0x00\n          mstore\n          keccak256(0x00, 0x20)\n          swap1\n          0x1f\n          add\n          0x20\n          swap1\n          div\n          dup2\n          add\n          swap3\n          dup3\n          tag_13\n          jumpi\n          0x00\n          dup6\n          sstore\n          jump(tag_12)\n        tag_13:\n          dup3\n          0x1f\n          lt\n          tag_14\n          jumpi\n          dup1\n          mload\n          not(0xff)\n          and\n          dup4\n          dup1\n          add\n          or\n          dup6\n          sstore\n          jump(tag_12)\n        tag_14:\n          dup3\n          dup1\n          add\n          0x01\n          add\n          dup6\n          sstore\n          dup3\n          iszero\n          tag_12\n          jumpi\n          swap2\n          dup3\n          add\n        tag_15:\n          dup3\n          dup2\n          gt\n          iszero\n          tag_16\n          jumpi\n          dup3\n          mload\n          dup3\n          sstore\n          swap2\n          0x20\n          add\n          swap2\n          swap1\n          0x01\n          add\n          swap1\n          jump(tag_15)\n        tag_16:\n        tag_12:\n          pop\n          swap1\n          pop\n          tag_17\n          swap2\n          swap1\n          tag_18\n          jump\t// in\n        tag_17:\n          pop\n          swap1\n          jump\t// out\n        tag_18:\n        tag_19:\n          dup1\n          dup3\n          gt\n          iszero\n          tag_20\n          jumpi\n          0x00\n          dup2\n          0x00\n          swap1\n          sstore\n          pop\n          0x01\n          add\n          jump(tag_19)\n        tag_20:\n          pop\n          swap1\n          jump\t// out\n            /* \"#utility.yul\":7:82   */\n        tag_21:\n            /* \"#utility.yul\":40:46   */\n          0x00\n            /* \"#utility.yul\":73:75   */\n          0x40\n            /* \"#utility.yul\":67:76   */\n          mload\n            /* \"#utility.yul\":57:76   */\n          swap1\n          pop\n            /* \"#utility.yul\":7:82   */\n          swap1\n          jump\t// out\n            /* \"#utility.yul\":88:205   */\n        tag_22:\n            /* \"#utility.yul\":197:198   */\n          0x00\n            /* \"#utility.yul\":194:195   */\n          dup1\n            /* \"#utility.yul\":187:199   */\n          revert\n            /* \"#utility.yul\":211:328   */\n        tag_23:\n            /* \"#utility.yul\":320:321   */\n          0x00\n            /* \"#utility.yul\":317:318   */\n          dup1\n            /* \"#utility.yul\":310:322   */\n          revert\n            /* \"#utility.yul\":334:460   */\n        tag_24:\n            /* \"#utility.yul\":371:378   */\n          0x00\n            /* \"#utility.yul\":411:453   */\n          0xffffffffffffffffffffffffffffffffffffffff\n            /* \"#utility.yul\":404:409   */\n          dup3\n            /* \"#utility.yul\":400:454   */\n          and\n            /* \"#utility.yul\":389:454   */\n          swap1\n          pop\n            /* \"#utility.yul\":334:460   */\n          swap2\n          swap1\n          pop\n          jump\t// out\n            /* \"#utility.yul\":466:570   */\n        tag_25:\n            /* \"#utility.yul\":511:518   */\n          0x00\n            /* \"#utility.yul\":540:564   */\n          tag_48\n            /* \"#utility.yul\":558:563   */\n          dup3\n            /* \"#utility.yul\":540:564   */\n          tag_24\n          jump\t// in\n        tag_48:\n            /* \"#utility.yul\":529:564   */\n          swap1\n          pop\n            /* \"#utility.yul\":466:570   */\n          swap2\n          swap1\n          pop\n          jump\t// out\n            /* \"#utility.yul\":576:714   */\n        tag_26:\n            /* \"#utility.yul\":657:689   */\n          tag_50\n            /* \"#utility.yul\":683:688   */\n          dup2\n            /* \"#utility.yul\":657:689   */\n          tag_25\n          jump\t// in\n        tag_50:\n            /* \"#utility.yul\":650:655   */\n          dup2\n            /* \"#utility.yul\":647:690   */\n          eq\n            /* \"#utility.yul\":637:708   */\n          tag_51\n          jumpi\n            /* \"#utility.yul\":704:705   */\n          0x00\n            /* \"#utility.yul\":701:702   */\n          dup1\n            /* \"#utility.yul\":694:706   */\n          revert\n            /* \"#utility.yul\":637:708   */\n        tag_51:\n            /* \"#utility.yul\":576:714   */\n          pop\n          jump\t// out\n            /* \"#utility.yul\":720:879   */\n        tag_27:\n            /* \"#utility.yul\":785:790   */\n          0x00\n            /* \"#utility.yul\":816:822   */\n          dup2\n            /* \"#utility.yul\":810:823   */\n          mload\n            /* \"#utility.yul\":801:823   */\n          swap1\n          pop\n            /* \"#utility.yul\":832:873   */\n          tag_53\n            /* \"#utility.yul\":867:872   */\n          dup2\n            /* \"#utility.yul\":832:873   */\n          tag_26\n          jump\t// in\n        tag_53:\n            /* \"#utility.yul\":720:879   */\n          swap3\n          swap2\n          pop\n          pop\n          jump\t// out\n            /* \"#utility.yul\":885:1002   */\n        tag_28:\n            /* \"#utility.yul\":994:995   */\n          0x00\n            /* \"#utility.yul\":991:992   */\n          dup1\n            /* \"#utility.yul\":984:996   */\n          revert\n            /* \"#utility.yul\":1008:1125   */\n        tag_29:\n            /* \"#utility.yul\":1117:1118   */\n          0x00\n            /* \"#utility.yul\":1114:1115   */\n          dup1\n            /* \"#utility.yul\":1107:1119   */\n          revert\n            /* \"#utility.yul\":1131:1233   */\n        tag_30:\n            /* \"#utility.yul\":1172:1178   */\n          0x00\n            /* \"#utility.yul\":1223:1225   */\n          0x1f\n            /* \"#utility.yul\":1219:1226   */\n          not\n            /* \"#utility.yul\":1214:1216   */\n          0x1f\n            /* \"#utility.yul\":1207:1212   */\n          dup4\n            /* \"#utility.yul\":1203:1217   */\n          add\n            /* \"#utility.yul\":1199:1227   */\n          and\n            /* \"#utility.yul\":1189:1227   */\n          swap1\n          pop\n            /* \"#utility.yul\":1131:1233   */\n          swap2\n          swap1\n          pop\n          jump\t// out\n            /* \"#utility.yul\":1239:1419   */\n        tag_31:\n            /* \"#utility.yul\":1287:1364   */\n          0x4e487b7100000000000000000000000000000000000000000000000000000000\n            /* \"#utility.yul\":1284:1285   */\n          0x00\n            /* \"#utility.yul\":1277:1365   */\n          mstore\n            /* \"#utility.yul\":1384:1388   */\n          0x41\n            /* \"#utility.yul\":1381:1382   */\n          0x04\n            /* \"#utility.yul\":1374:1389   */\n          mstore\n            /* \"#utility.yul\":1408:1412   */\n          0x24\n            /* \"#utility.yul\":1405:1406   */\n          0x00\n            /* \"#utility.yul\":1398:1413   */\n          revert\n            /* \"#utility.yul\":1425:1706   */\n        tag_32:\n            /* \"#utility.yul\":1508:1535   */\n          tag_59\n            /* \"#utility.yul\":1530:1534   */\n          dup3\n            /* \"#utility.yul\":1508:1535   */\n          tag_30\n          jump\t// in\n        tag_59:\n            /* \"#utility.yul\":1500:1506   */\n          dup2\n            /* \"#utility.yul\":1496:1536   */\n          add\n            /* \"#utility.yul\":1638:1644   */\n          dup2\n            /* \"#utility.yul\":1626:1636   */\n          dup2\n            /* \"#utility.yul\":1623:1645   */\n          lt\n            /* \"#utility.yul\":1602:1620   */\n          0xffffffffffffffff\n            /* \"#utility.yul\":1590:1600   */\n          dup3\n            /* \"#utility.yul\":1587:1621   */\n          gt\n            /* \"#utility.yul\":1584:1646   */\n          or\n            /* \"#utility.yul\":1581:1669   */\n          iszero\n          tag_60\n          jumpi\n            /* \"#utility.yul\":1649:1667   */\n          tag_61\n          tag_31\n          jump\t// in\n        tag_61:\n            /* \"#utility.yul\":1581:1669   */\n        tag_60:\n            /* \"#utility.yul\":1689:1699   */\n          dup1\n            /* \"#utility.yul\":1685:1687   */\n          0x40\n            /* \"#utility.yul\":1678:1700   */\n          mstore\n            /* \"#utility.yul\":1468:1706   */\n          pop\n            /* \"#utility.yul\":1425:1706   */\n          pop\n          pop\n          jump\t// out\n            /* \"#utility.yul\":1712:1841   */\n        tag_33:\n            /* \"#utility.yul\":1746:1752   */\n          0x00\n            /* \"#utility.yul\":1773:1793   */\n          tag_63\n          tag_21\n          jump\t// in\n        tag_63:\n            /* \"#utility.yul\":1763:1793   */\n          swap1\n          pop\n            /* \"#utility.yul\":1802:1835   */\n          tag_64\n            /* \"#utility.yul\":1830:1834   */\n          dup3\n            /* \"#utility.yul\":1822:1828   */\n          dup3\n            /* \"#utility.yul\":1802:1835   */\n          tag_32\n          jump\t// in\n        tag_64:\n            /* \"#utility.yul\":1712:1841   */\n          swap2\n          swap1\n          pop\n          jump\t// out\n            /* \"#utility.yul\":1847:2155   */\n        tag_34:\n            /* \"#utility.yul\":1909:1913   */\n          0x00\n            /* \"#utility.yul\":1999:2017   */\n          0xffffffffffffffff\n            /* \"#utility.yul\":1991:1997   */\n          dup3\n            /* \"#utility.yul\":1988:2018   */\n          gt\n            /* \"#utility.yul\":1985:2041   */\n          iszero\n          tag_66\n          jumpi\n            /* \"#utility.yul\":2021:2039   */\n          tag_67\n          tag_31\n          jump\t// in\n        tag_67:\n            /* \"#utility.yul\":1985:2041   */\n        tag_66:\n            /* \"#utility.yul\":2059:2088   */\n          tag_68\n            /* \"#utility.yul\":2081:2087   */\n          dup3\n            /* \"#utility.yul\":2059:2088   */\n          tag_30\n          jump\t// in\n        tag_68:\n            /* \"#utility.yul\":2051:2088   */\n          swap1\n          pop\n            /* \"#utility.yul\":2143:2147   */\n          0x20\n            /* \"#utility.yul\":2137:2141   */\n          dup2\n            /* \"#utility.yul\":2133:2148   */\n          add\n            /* \"#utility.yul\":2125:2148   */\n          swap1\n          pop\n            /* \"#utility.yul\":1847:2155   */\n          swap2\n          swap1\n          pop\n          jump\t// out\n            /* \"#utility.yul\":2161:2468   */\n        tag_35:\n            /* \"#utility.yul\":2229:2230   */\n          0x00\n            /* \"#utility.yul\":2239:2352   */\n        tag_70:\n            /* \"#utility.yul\":2253:2259   */\n          dup4\n            /* \"#utility.yul\":2250:2251   */\n          dup2\n            /* \"#utility.yul\":2247:2260   */\n          lt\n            /* \"#utility.yul\":2239:2352   */\n          iszero\n          tag_72\n          jumpi\n            /* \"#utility.yul\":2338:2339   */\n          dup1\n            /* \"#utility.yul\":2333:2336   */\n          dup3\n            /* \"#utility.yul\":2329:2340   */\n          add\n            /* \"#utility.yul\":2323:2341   */\n          mload\n            /* \"#utility.yul\":2319:2320   */\n          dup2\n            /* \"#utility.yul\":2314:2317   */\n          dup5\n            /* \"#utility.yul\":2310:2321   */\n          add\n            /* \"#utility.yul\":2303:2342   */\n          mstore\n            /* \"#utility.yul\":2275:2277   */\n          0x20\n            /* \"#utility.yul\":2272:2273   */\n          dup2\n            /* \"#utility.yul\":2268:2278   */\n          add\n            /* \"#utility.yul\":2263:2278   */\n          swap1\n          pop\n            /* \"#utility.yul\":2239:2352   */\n          jump(tag_70)\n        tag_72:\n            /* \"#utility.yul\":2370:2376   */\n          dup4\n            /* \"#utility.yul\":2367:2368   */\n          dup2\n            /* \"#utility.yul\":2364:2377   */\n          gt\n            /* \"#utility.yul\":2361:2462   */\n          iszero\n          tag_73\n          jumpi\n            /* \"#utility.yul\":2450:2451   */\n          0x00\n            /* \"#utility.yul\":2441:2447   */\n          dup5\n            /* \"#utility.yul\":2436:2439   */\n          dup5\n            /* \"#utility.yul\":2432:2448   */\n          add\n            /* \"#utility.yul\":2425:2452   */\n          mstore\n            /* \"#utility.yul\":2361:2462   */\n        tag_73:\n            /* \"#utility.yul\":2210:2468   */\n          pop\n            /* \"#utility.yul\":2161:2468   */\n          pop\n          pop\n          pop\n          jump\t// out\n            /* \"#utility.yul\":2474:2895   */\n        tag_36:\n            /* \"#utility.yul\":2563:2568   */\n          0x00\n            /* \"#utility.yul\":2588:2654   */\n          tag_75\n            /* \"#utility.yul\":2604:2653   */\n          tag_76\n            /* \"#utility.yul\":2646:2652   */\n          dup5\n            /* \"#utility.yul\":2604:2653   */\n          tag_34\n          jump\t// in\n        tag_76:\n            /* \"#utility.yul\":2588:2654   */\n          tag_33\n          jump\t// in\n        tag_75:\n            /* \"#utility.yul\":2579:2654   */\n          swap1\n          pop\n            /* \"#utility.yul\":2677:2683   */\n          dup3\n            /* \"#utility.yul\":2670:2675   */\n          dup2\n            /* \"#utility.yul\":2663:2684   */\n          mstore\n            /* \"#utility.yul\":2715:2719   */\n          0x20\n            /* \"#utility.yul\":2708:2713   */\n          dup2\n            /* \"#utility.yul\":2704:2720   */\n          add\n            /* \"#utility.yul\":2753:2756   */\n          dup5\n            /* \"#utility.yul\":2744:2750   */\n          dup5\n            /* \"#utility.yul\":2739:2742   */\n          dup5\n            /* \"#utility.yul\":2735:2751   */\n          add\n            /* \"#utility.yul\":2732:2757   */\n          gt\n            /* \"#utility.yul\":2729:2841   */\n          iszero\n          tag_77\n          jumpi\n            /* \"#utility.yul\":2760:2839   */\n          tag_78\n          tag_29\n          jump\t// in\n        tag_78:\n            /* \"#utility.yul\":2729:2841   */\n        tag_77:\n            /* \"#utility.yul\":2850:2889   */\n          tag_79\n            /* \"#utility.yul\":2882:2888   */\n          dup5\n            /* \"#utility.yul\":2877:2880   */\n          dup3\n            /* \"#utility.yul\":2872:2875   */\n          dup6\n            /* \"#utility.yul\":2850:2889   */\n          tag_35\n          jump\t// in\n        tag_79:\n            /* \"#utility.yul\":2569:2895   */\n          pop\n            /* \"#utility.yul\":2474:2895   */\n          swap4\n          swap3\n          pop\n          pop\n          pop\n          jump\t// out\n            /* \"#utility.yul\":2915:3270   */\n        tag_37:\n            /* \"#utility.yul\":2982:2987   */\n          0x00\n            /* \"#utility.yul\":3031:3034   */\n          dup3\n            /* \"#utility.yul\":3024:3028   */\n          0x1f\n            /* \"#utility.yul\":3016:3022   */\n          dup4\n            /* \"#utility.yul\":3012:3029   */\n          add\n            /* \"#utility.yul\":3008:3035   */\n          slt\n            /* \"#utility.yul\":2998:3120   */\n          tag_81\n          jumpi\n            /* \"#utility.yul\":3039:3118   */\n          tag_82\n          tag_28\n          jump\t// in\n        tag_82:\n            /* \"#utility.yul\":2998:3120   */\n        tag_81:\n            /* \"#utility.yul\":3149:3155   */\n          dup2\n            /* \"#utility.yul\":3143:3156   */\n          mload\n            /* \"#utility.yul\":3174:3264   */\n          tag_83\n            /* \"#utility.yul\":3260:3263   */\n          dup5\n            /* \"#utility.yul\":3252:3258   */\n          dup3\n            /* \"#utility.yul\":3245:3249   */\n          0x20\n            /* \"#utility.yul\":3237:3243   */\n          dup7\n            /* \"#utility.yul\":3233:3250   */\n          add\n            /* \"#utility.yul\":3174:3264   */\n          tag_36\n          jump\t// in\n        tag_83:\n            /* \"#utility.yul\":3165:3264   */\n          swap2\n          pop\n            /* \"#utility.yul\":2988:3270   */\n          pop\n            /* \"#utility.yul\":2915:3270   */\n          swap3\n          swap2\n          pop\n          pop\n          jump\t// out\n            /* \"#utility.yul\":3276:3353   */\n        tag_38:\n            /* \"#utility.yul\":3313:3320   */\n          0x00\n            /* \"#utility.yul\":3342:3347   */\n          dup2\n            /* \"#utility.yul\":3331:3347   */\n          swap1\n          pop\n            /* \"#utility.yul\":3276:3353   */\n          swap2\n          swap1\n          pop\n          jump\t// out\n            /* \"#utility.yul\":3359:3481   */\n        tag_39:\n            /* \"#utility.yul\":3432:3456   */\n          tag_86\n            /* \"#utility.yul\":3450:3455   */\n          dup2\n            /* \"#utility.yul\":3432:3456   */\n          tag_38\n          jump\t// in\n        tag_86:\n            /* \"#utility.yul\":3425:3430   */\n          dup2\n            /* \"#utility.yul\":3422:3457   */\n          eq\n            /* \"#utility.yul\":3412:3475   */\n          tag_87\n          jumpi\n            /* \"#utility.yul\":3471:3472   */\n          0x00\n            /* \"#utility.yul\":3468:3469   */\n          dup1\n            /* \"#utility.yul\":3461:3473   */\n          revert\n            /* \"#utility.yul\":3412:3475   */\n        tag_87:\n            /* \"#utility.yul\":3359:3481   */\n          pop\n          jump\t// out\n            /* \"#utility.yul\":3487:3630   */\n        tag_40:\n            /* \"#utility.yul\":3544:3549   */\n          0x00\n            /* \"#utility.yul\":3575:3581   */\n          dup2\n            /* \"#utility.yul\":3569:3582   */\n          mload\n            /* \"#utility.yul\":3560:3582   */\n          swap1\n          pop\n            /* \"#utility.yul\":3591:3624   */\n          tag_89\n            /* \"#utility.yul\":3618:3623   */\n          dup2\n            /* \"#utility.yul\":3591:3624   */\n          tag_39\n          jump\t// in\n        tag_89:\n            /* \"#utility.yul\":3487:3630   */\n          swap3\n          swap2\n          pop\n          pop\n          jump\t// out\n            /* \"#utility.yul\":3636:4975   */\n        tag_3:\n            /* \"#utility.yul\":3770:3776   */\n          0x00\n            /* \"#utility.yul\":3778:3784   */\n          dup1\n            /* \"#utility.yul\":3786:3792   */\n          0x00\n            /* \"#utility.yul\":3794:3800   */\n          dup1\n            /* \"#utility.yul\":3802:3808   */\n          0x00\n            /* \"#utility.yul\":3851:3854   */\n          0xa0\n            /* \"#utility.yul\":3839:3848   */\n          dup7\n            /* \"#utility.yul\":3830:3837   */\n          dup9\n            /* \"#utility.yul\":3826:3849   */\n          sub\n            /* \"#utility.yul\":3822:3855   */\n          slt\n            /* \"#utility.yul\":3819:3939   */\n          iszero\n          tag_91\n          jumpi\n            /* \"#utility.yul\":3858:3937   */\n          tag_92\n          tag_22\n          jump\t// in\n        tag_92:\n            /* \"#utility.yul\":3819:3939   */\n        tag_91:\n            /* \"#utility.yul\":3978:3979   */\n          0x00\n            /* \"#utility.yul\":4003:4075   */\n          tag_93\n            /* \"#utility.yul\":4067:4074   */\n          dup9\n            /* \"#utility.yul\":4058:4064   */\n          dup3\n            /* \"#utility.yul\":4047:4056   */\n          dup10\n            /* \"#utility.yul\":4043:4065   */\n          add\n            /* \"#utility.yul\":4003:4075   */\n          tag_27\n          jump\t// in\n        tag_93:\n            /* \"#utility.yul\":3993:4075   */\n          swap6\n          pop\n            /* \"#utility.yul\":3949:4085   */\n          pop\n            /* \"#utility.yul\":4145:4147   */\n          0x20\n            /* \"#utility.yul\":4134:4143   */\n          dup7\n            /* \"#utility.yul\":4130:4148   */\n          add\n            /* \"#utility.yul\":4124:4149   */\n          mload\n            /* \"#utility.yul\":4176:4194   */\n          0xffffffffffffffff\n            /* \"#utility.yul\":4168:4174   */\n          dup2\n            /* \"#utility.yul\":4165:4195   */\n          gt\n            /* \"#utility.yul\":4162:4279   */\n          iszero\n          tag_94\n          jumpi\n            /* \"#utility.yul\":4198:4277   */\n          tag_95\n          tag_23\n          jump\t// in\n        tag_95:\n            /* \"#utility.yul\":4162:4279   */\n        tag_94:\n            /* \"#utility.yul\":4303:4377   */\n          tag_96\n            /* \"#utility.yul\":4369:4376   */\n          dup9\n            /* \"#utility.yul\":4360:4366   */\n          dup3\n            /* \"#utility.yul\":4349:4358   */\n          dup10\n            /* \"#utility.yul\":4345:4367   */\n          add\n            /* \"#utility.yul\":4303:4377   */\n          tag_37\n          jump\t// in\n        tag_96:\n            /* \"#utility.yul\":4293:4377   */\n          swap5\n          pop\n            /* \"#utility.yul\":4095:4387   */\n          pop\n            /* \"#utility.yul\":4447:4449   */\n          0x40\n            /* \"#utility.yul\":4436:4445   */\n          dup7\n            /* \"#utility.yul\":4432:4450   */\n          add\n            /* \"#utility.yul\":4426:4451   */\n          mload\n            /* \"#utility.yul\":4478:4496   */\n          0xffffffffffffffff\n            /* \"#utility.yul\":4470:4476   */\n          dup2\n            /* \"#utility.yul\":4467:4497   */\n          gt\n            /* \"#utility.yul\":4464:4581   */\n          iszero\n          tag_97\n          jumpi\n            /* \"#utility.yul\":4500:4579   */\n          tag_98\n          tag_23\n          jump\t// in\n        tag_98:\n            /* \"#utility.yul\":4464:4581   */\n        tag_97:\n            /* \"#utility.yul\":4605:4679   */\n          tag_99\n            /* \"#utility.yul\":4671:4678   */\n          dup9\n            /* \"#utility.yul\":4662:4668   */\n          dup3\n            /* \"#utility.yul\":4651:4660   */\n          dup10\n            /* \"#utility.yul\":4647:4669   */\n          add\n            /* \"#utility.yul\":4605:4679   */\n          tag_37\n          jump\t// in\n        tag_99:\n            /* \"#utility.yul\":4595:4679   */\n          swap4\n          pop\n            /* \"#utility.yul\":4397:4689   */\n          pop\n            /* \"#utility.yul\":4728:4730   */\n          0x60\n            /* \"#utility.yul\":4754:4818   */\n          tag_100\n            /* \"#utility.yul\":4810:4817   */\n          dup9\n            /* \"#utility.yul\":4801:4807   */\n          dup3\n            /* \"#utility.yul\":4790:4799   */\n          dup10\n            /* \"#utility.yul\":4786:4808   */\n          add\n            /* \"#utility.yul\":4754:4818   */\n          tag_40\n          jump\t// in\n        tag_100:\n            /* \"#utility.yul\":4744:4818   */\n          swap3\n          pop\n            /* \"#utility.yul\":4699:4828   */\n          pop\n            /* \"#utility.yul\":4867:4870   */\n          0x80\n            /* \"#utility.yul\":4894:4958   */\n          tag_101\n            /* \"#utility.yul\":4950:4957   */\n          dup9\n            /* \"#utility.yul\":4941:4947   */\n          dup3\n            /* \"#utility.yul\":4930:4939   */\n          dup10\n            /* \"#utility.yul\":4926:4948   */\n          add\n            /* \"#utility.yul\":4894:4958   */\n          tag_40\n          jump\t// in\n        tag_101:\n            /* \"#utility.yul\":4884:4958   */\n          swap2\n          pop\n            /* \"#utility.yul\":4838:4968   */\n          pop\n            /* \"#utility.yul\":3636:4975   */\n          swap3\n          swap6\n          pop\n          swap3\n          swap6\n          swap1\n          swap4\n          pop\n          jump\t// out\n            /* \"#utility.yul\":4981:5161   */\n        tag_41:\n            /* \"#utility.yul\":5029:5106   */\n          0x4e487b7100000000000000000000000000000000000000000000000000000000\n            /* \"#utility.yul\":5026:5027   */\n          0x00\n            /* \"#utility.yul\":5019:5107   */\n          mstore\n            /* \"#utility.yul\":5126:5130   */\n          0x22\n            /* \"#utility.yul\":5123:5124   */\n          0x04\n            /* \"#utility.yul\":5116:5131   */\n          mstore\n            /* \"#utility.yul\":5150:5154   */\n          0x24\n            /* \"#utility.yul\":5147:5148   */\n          0x00\n            /* \"#utility.yul\":5140:5155   */\n          revert\n            /* \"#utility.yul\":5167:5487   */\n        tag_11:\n            /* \"#utility.yul\":5211:5217   */\n          0x00\n            /* \"#utility.yul\":5248:5249   */\n          0x02\n            /* \"#utility.yul\":5242:5246   */\n          dup3\n            /* \"#utility.yul\":5238:5250   */\n          div\n            /* \"#utility.yul\":5228:5250   */\n          swap1\n          pop\n            /* \"#utility.yul\":5295:5296   */\n          0x01\n            /* \"#utility.yul\":5289:5293   */\n          dup3\n            /* \"#utility.yul\":5285:5297   */\n          and\n            /* \"#utility.yul\":5316:5334   */\n          dup1\n            /* \"#utility.yul\":5306:5387   */\n          tag_104\n          jumpi\n            /* \"#utility.yul\":5372:5376   */\n          0x7f\n            /* \"#utility.yul\":5364:5370   */\n          dup3\n            /* \"#utility.yul\":5360:5377   */\n          and\n            /* \"#utility.yul\":5350:5377   */\n          swap2\n          pop\n            /* \"#utility.yul\":5306:5387   */\n        tag_104:\n            /* \"#utility.yul\":5434:5436   */\n          0x20\n            /* \"#utility.yul\":5426:5432   */\n          dup3\n            /* \"#utility.yul\":5423:5437   */\n          lt\n            /* \"#utility.yul\":5403:5421   */\n          dup2\n            /* \"#utility.yul\":5400:5438   */\n          sub\n            /* \"#utility.yul\":5397:5481   */\n          tag_105\n          jumpi\n            /* \"#utility.yul\":5453:5471   */\n          tag_106\n          tag_41\n          jump\t// in\n        tag_106:\n            /* \"#utility.yul\":5397:5481   */\n        tag_105:\n            /* \"#utility.yul\":5218:5487   */\n          pop\n            /* \"#utility.yul\":5167:5487   */\n          swap2\n          swap1\n          pop\n          jump\t// out\n            /* \"contracts/Project.sol\":225:3719  contract Project {... */\n        tag_9:\n          dataSize(sub_0)\n          dup1\n          dataOffset(sub_0)\n          0x00\n          codecopy\n          0x00\n          return\n        stop\n\n        sub_0: assembly {\n                /* \"contracts/Project.sol\":225:3719  contract Project {... */\n              mstore(0x40, 0x80)\n              jumpi(tag_1, lt(calldatasize, 0x04))\n              shr(0xe0, calldataload(0x00))\n              dup1\n              0x1beab5e8\n              eq\n              tag_2\n              jumpi\n              dup1\n              0xa541a2a2\n              eq\n              tag_3\n              jumpi\n              dup1\n              0xc2052403\n              eq\n              tag_4\n              jumpi\n              dup1\n              0xd7bb99ba\n              eq\n              tag_5\n              jumpi\n            tag_1:\n              0x00\n              dup1\n              revert\n                /* \"contracts/Project.sol\":3363:3638  function retreiveFunds() isCreator(msg.sender) inState(State.Fundraising) public {... */\n            tag_2:\n              callvalue\n              dup1\n              iszero\n              tag_6\n              jumpi\n              0x00\n              dup1\n              revert\n            tag_6:\n              pop\n              tag_7\n              tag_8\n              jump\t// in\n            tag_7:\n              stop\n                /* \"contracts/Project.sol\":360:397  address payable public projectCreator */\n            tag_3:\n              callvalue\n              dup1\n              iszero\n              tag_9\n              jumpi\n              0x00\n              dup1\n              revert\n            tag_9:\n              pop\n              tag_10\n              tag_11\n              jump\t// in\n            tag_10:\n              mload(0x40)\n              tag_12\n              swap2\n              swap1\n              tag_13\n              jump\t// in\n            tag_12:\n              mload(0x40)\n              dup1\n              swap2\n              sub\n              swap1\n              return\n                /* \"contracts/Project.sol\":3110:3271  function payOut() public inState(State.Successful){... */\n            tag_4:\n              callvalue\n              dup1\n              iszero\n              tag_14\n              jumpi\n              0x00\n              dup1\n              revert\n            tag_14:\n              pop\n              tag_15\n              tag_16\n              jump\t// in\n            tag_15:\n              stop\n                /* \"contracts/Project.sol\":2347:2702  function contribute() public payable inState(State.Fundraising) isFundingDelayNotExpired {... */\n            tag_5:\n              tag_17\n              tag_18\n              jump\t// in\n            tag_17:\n              stop\n                /* \"contracts/Project.sol\":3363:3638  function retreiveFunds() isCreator(msg.sender) inState(State.Fundraising) public {... */\n            tag_8:\n                /* \"contracts/Project.sol\":3398:3408  msg.sender */\n              caller\n                /* \"contracts/Project.sol\":1301:1309  _address */\n              dup1\n                /* \"contracts/Project.sol\":1283:1309  projectCreator == _address */\n              0xffffffffffffffffffffffffffffffffffffffff\n              and\n                /* \"contracts/Project.sol\":1283:1297  projectCreator */\n              0x00\n              dup1\n              sload\n              swap1\n              0x0100\n              exp\n              swap1\n              div\n              0xffffffffffffffffffffffffffffffffffffffff\n              and\n                /* \"contracts/Project.sol\":1283:1309  projectCreator == _address */\n              0xffffffffffffffffffffffffffffffffffffffff\n              and\n              eq\n                /* \"contracts/Project.sol\":1275:1310  require(projectCreator == _address) */\n              tag_20\n              jumpi\n              0x00\n              dup1\n              revert\n            tag_20:\n                /* \"contracts/Project.sol\":3418:3435  State.Fundraising */\n              0x00\n                /* \"contracts/Project.sol\":1160:1166  _state */\n              dup1\n                /* \"contracts/Project.sol\":1151:1166  state == _state */\n              0x02\n              dup2\n              gt\n              iszero\n              tag_22\n              jumpi\n              tag_23\n              tag_24\n              jump\t// in\n            tag_23:\n            tag_22:\n                /* \"contracts/Project.sol\":1151:1156  state */\n              0x05\n              0x00\n              swap1\n              sload\n              swap1\n              0x0100\n              exp\n              swap1\n              div\n              0xff\n              and\n                /* \"contracts/Project.sol\":1151:1166  state == _state */\n              0x02\n              dup2\n              gt\n              iszero\n              tag_25\n              jumpi\n              tag_26\n              tag_24\n              jump\t// in\n            tag_26:\n            tag_25:\n              eq\n                /* \"contracts/Project.sol\":1143:1167  require(state == _state) */\n              tag_27\n              jumpi\n              0x00\n              dup1\n              revert\n            tag_27:\n                /* \"contracts/Project.sol\":3480:3488  deadLine */\n              sload(0x06)\n                /* \"contracts/Project.sol\":3462:3477  block.timestamp */\n              timestamp\n                /* \"contracts/Project.sol\":3462:3488  block.timestamp > deadLine */\n              gt\n                /* \"contracts/Project.sol\":3454:3489  require(block.timestamp > deadLine) */\n              tag_29\n              jumpi\n              0x00\n              dup1\n              revert\n            tag_29:\n                /* \"contracts/Project.sol\":3499:3522  setState(State.Expired) */\n              tag_30\n                /* \"contracts/Project.sol\":3508:3521  State.Expired */\n              0x01\n                /* \"contracts/Project.sol\":3499:3507  setState */\n              tag_31\n                /* \"contracts/Project.sol\":3499:3522  setState(State.Expired) */\n              jump\t// in\n            tag_30:\n                /* \"contracts/Project.sol\":3532:3546  projectCreator */\n              0x00\n              dup1\n              sload\n              swap1\n              0x0100\n              exp\n              swap1\n              div\n              0xffffffffffffffffffffffffffffffffffffffff\n              and\n                /* \"contracts/Project.sol\":3532:3555  projectCreator.transfer */\n              0xffffffffffffffffffffffffffffffffffffffff\n              and\n                /* \"contracts/Project.sol\":3532:3571  projectCreator.transfer(currentBalance) */\n              0x08fc\n                /* \"contracts/Project.sol\":3556:3570  currentBalance */\n              sload(0x04)\n                /* \"contracts/Project.sol\":3532:3571  projectCreator.transfer(currentBalance) */\n              swap1\n              dup2\n              iszero\n              mul\n              swap1\n              mload(0x40)\n              0x00\n              mload(0x40)\n              dup1\n              dup4\n              sub\n              dup2\n              dup6\n              dup9\n              dup9\n              call\n              swap4\n              pop\n              pop\n              pop\n              pop\n              iszero\n              dup1\n              iszero\n              tag_33\n              jumpi\n              returndatasize\n              0x00\n              dup1\n              returndatacopy\n              revert(0x00, returndatasize)\n            tag_33:\n              pop\n                /* \"contracts/Project.sol\":3586:3631  FundRetreived(\"Fund retreived\", projectTitle) */\n              0x6567369884327ec669abad9dc032c3fc1b6c1b77aed67e31f8311864551e74\n                /* \"contracts/Project.sol\":3618:3630  projectTitle */\n              0x01\n                /* \"contracts/Project.sol\":3586:3631  FundRetreived(\"Fund retreived\", projectTitle) */\n              mload(0x40)\n              tag_34\n              swap2\n              swap1\n              tag_35\n              jump\t// in\n            tag_34:\n              mload(0x40)\n              dup1\n              swap2\n              sub\n              swap1\n              log1\n                /* \"contracts/Project.sol\":1320:1321  _ */\n              pop\n                /* \"contracts/Project.sol\":3363:3638  function retreiveFunds() isCreator(msg.sender) inState(State.Fundraising) public {... */\n              pop\n              jump\t// out\n                /* \"contracts/Project.sol\":360:397  address payable public projectCreator */\n            tag_11:\n              0x00\n              dup1\n              sload\n              swap1\n              0x0100\n              exp\n              swap1\n              div\n              0xffffffffffffffffffffffffffffffffffffffff\n              and\n              dup2\n              jump\t// out\n                /* \"contracts/Project.sol\":3110:3271  function payOut() public inState(State.Successful){... */\n            tag_16:\n                /* \"contracts/Project.sol\":3143:3159  State.Successful */\n              0x02\n                /* \"contracts/Project.sol\":1160:1166  _state */\n              dup1\n                /* \"contracts/Project.sol\":1151:1166  state == _state */\n              0x02\n              dup2\n              gt\n              iszero\n              tag_37\n              jumpi\n              tag_38\n              tag_24\n              jump\t// in\n            tag_38:\n            tag_37:\n                /* \"contracts/Project.sol\":1151:1156  state */\n              0x05\n              0x00\n              swap1\n              sload\n              swap1\n              0x0100\n              exp\n              swap1\n              div\n              0xff\n              and\n                /* \"contracts/Project.sol\":1151:1166  state == _state */\n              0x02\n              dup2\n              gt\n              iszero\n              tag_39\n              jumpi\n              tag_40\n              tag_24\n              jump\t// in\n            tag_40:\n            tag_39:\n              eq\n                /* \"contracts/Project.sol\":1143:1167  require(state == _state) */\n              tag_41\n              jumpi\n              0x00\n              dup1\n              revert\n            tag_41:\n                /* \"contracts/Project.sol\":3170:3184  projectCreator */\n              0x00\n              dup1\n              sload\n              swap1\n              0x0100\n              exp\n              swap1\n              div\n              0xffffffffffffffffffffffffffffffffffffffff\n              and\n                /* \"contracts/Project.sol\":3170:3193  projectCreator.transfer */\n              0xffffffffffffffffffffffffffffffffffffffff\n              and\n                /* \"contracts/Project.sol\":3170:3209  projectCreator.transfer(currentBalance) */\n              0x08fc\n                /* \"contracts/Project.sol\":3194:3208  currentBalance */\n              sload(0x04)\n                /* \"contracts/Project.sol\":3170:3209  projectCreator.transfer(currentBalance) */\n              swap1\n              dup2\n              iszero\n              mul\n              swap1\n              mload(0x40)\n              0x00\n              mload(0x40)\n              dup1\n              dup4\n              sub\n              dup2\n              dup6\n              dup9\n              dup9\n              call\n              swap4\n              pop\n              pop\n              pop\n              pop\n              iszero\n              dup1\n              iszero\n              tag_44\n              jumpi\n              returndatasize\n              0x00\n              dup1\n              returndatacopy\n              revert(0x00, returndatasize)\n            tag_44:\n              pop\n                /* \"contracts/Project.sol\":3224:3264  ProjectFunded(projectTitle, \"is Funded\") */\n              0xda700ea0a4f90d17381707c06ca4125e32c8a65b28e82ff0d1850af50a6d4ccd\n                /* \"contracts/Project.sol\":3238:3250  projectTitle */\n              0x01\n                /* \"contracts/Project.sol\":3224:3264  ProjectFunded(projectTitle, \"is Funded\") */\n              mload(0x40)\n              tag_45\n              swap2\n              swap1\n              tag_46\n              jump\t// in\n            tag_45:\n              mload(0x40)\n              dup1\n              swap2\n              sub\n              swap1\n              log1\n                /* \"contracts/Project.sol\":3110:3271  function payOut() public inState(State.Successful){... */\n              pop\n              jump\t// out\n                /* \"contracts/Project.sol\":2347:2702  function contribute() public payable inState(State.Fundraising) isFundingDelayNotExpired {... */\n            tag_18:\n                /* \"contracts/Project.sol\":2392:2409  State.Fundraising */\n              0x00\n                /* \"contracts/Project.sol\":1160:1166  _state */\n              dup1\n                /* \"contracts/Project.sol\":1151:1166  state == _state */\n              0x02\n              dup2\n              gt\n              iszero\n              tag_48\n              jumpi\n              tag_49\n              tag_24\n              jump\t// in\n            tag_49:\n            tag_48:\n                /* \"contracts/Project.sol\":1151:1156  state */\n              0x05\n              0x00\n              swap1\n              sload\n              swap1\n              0x0100\n              exp\n              swap1\n              div\n              0xff\n              and\n                /* \"contracts/Project.sol\":1151:1166  state == _state */\n              0x02\n              dup2\n              gt\n              iszero\n              tag_50\n              jumpi\n              tag_51\n              tag_24\n              jump\t// in\n            tag_51:\n            tag_50:\n              eq\n                /* \"contracts/Project.sol\":1143:1167  require(state == _state) */\n              tag_52\n              jumpi\n              0x00\n              dup1\n              revert\n            tag_52:\n                /* \"contracts/Project.sol\":1463:1471  deadLine */\n              sload(0x06)\n                /* \"contracts/Project.sol\":1444:1459  block.timestamp */\n              timestamp\n                /* \"contracts/Project.sol\":1444:1471  block.timestamp <= deadLine */\n              gt\n              iszero\n                /* \"contracts/Project.sol\":1436:1472  require(block.timestamp <= deadLine) */\n              tag_54\n              jumpi\n              0x00\n              dup1\n              revert\n            tag_54:\n                /* \"contracts/Project.sol\":2468:2482  projectCreator */\n              0x00\n              dup1\n              sload\n              swap1\n              0x0100\n              exp\n              swap1\n              div\n              0xffffffffffffffffffffffffffffffffffffffff\n              and\n                /* \"contracts/Project.sol\":2454:2482  msg.sender != projectCreator */\n              0xffffffffffffffffffffffffffffffffffffffff\n              and\n                /* \"contracts/Project.sol\":2454:2464  msg.sender */\n              caller\n                /* \"contracts/Project.sol\":2454:2482  msg.sender != projectCreator */\n              0xffffffffffffffffffffffffffffffffffffffff\n              and\n              sub\n                /* \"contracts/Project.sol\":2446:2483  require(msg.sender != projectCreator) */\n              tag_56\n              jumpi\n              0x00\n              dup1\n              revert\n            tag_56:\n                /* \"contracts/Project.sol\":2521:2561  contributions[msg.sender].add(msg.value) */\n              tag_57\n                /* \"contracts/Project.sol\":2551:2560  msg.value */\n              callvalue\n                /* \"contracts/Project.sol\":2521:2534  contributions */\n              0x07\n                /* \"contracts/Project.sol\":2521:2546  contributions[msg.sender] */\n              0x00\n                /* \"contracts/Project.sol\":2535:2545  msg.sender */\n              caller\n                /* \"contracts/Project.sol\":2521:2546  contributions[msg.sender] */\n              0xffffffffffffffffffffffffffffffffffffffff\n              and\n              0xffffffffffffffffffffffffffffffffffffffff\n              and\n              dup2\n              mstore\n              0x20\n              add\n              swap1\n              dup2\n              mstore\n              0x20\n              add\n              0x00\n              keccak256\n              sload\n                /* \"contracts/Project.sol\":2521:2550  contributions[msg.sender].add */\n              tag_58\n              swap1\n                /* \"contracts/Project.sol\":2521:2561  contributions[msg.sender].add(msg.value) */\n              swap2\n              swap1\n              0xffffffff\n              and\n              jump\t// in\n            tag_57:\n                /* \"contracts/Project.sol\":2493:2506  contributions */\n              0x07\n                /* \"contracts/Project.sol\":2493:2518  contributions[msg.sender] */\n              0x00\n                /* \"contracts/Project.sol\":2507:2517  msg.sender */\n              caller\n                /* \"contracts/Project.sol\":2493:2518  contributions[msg.sender] */\n              0xffffffffffffffffffffffffffffffffffffffff\n              and\n              0xffffffffffffffffffffffffffffffffffffffff\n              and\n              dup2\n              mstore\n              0x20\n              add\n              swap1\n              dup2\n              mstore\n              0x20\n              add\n              0x00\n              keccak256\n                /* \"contracts/Project.sol\":2493:2561  contributions[msg.sender] = contributions[msg.sender].add(msg.value) */\n              dup2\n              swap1\n              sstore\n              pop\n                /* \"contracts/Project.sol\":2606:2615  msg.value */\n              callvalue\n                /* \"contracts/Project.sol\":2589:2603  currentBalance */\n              sload(0x04)\n                /* \"contracts/Project.sol\":2589:2615  currentBalance + msg.value */\n              tag_59\n              swap2\n              swap1\n              tag_60\n              jump\t// in\n            tag_59:\n                /* \"contracts/Project.sol\":2572:2586  currentBalance */\n              0x04\n                /* \"contracts/Project.sol\":2572:2615  currentBalance = currentBalance + msg.value */\n              dup2\n              swap1\n              sstore\n              pop\n                /* \"contracts/Project.sol\":2630:2667  FundReceivedBy(msg.sender, msg.value) */\n              0x75ae3e7c973a88747144369f710c5999060a6321be0506174d3f5c64bdfc674e\n                /* \"contracts/Project.sol\":2645:2655  msg.sender */\n              caller\n                /* \"contracts/Project.sol\":2657:2666  msg.value */\n              callvalue\n                /* \"contracts/Project.sol\":2630:2667  FundReceivedBy(msg.sender, msg.value) */\n              mload(0x40)\n              tag_61\n              swap3\n              swap2\n              swap1\n              tag_62\n              jump\t// in\n            tag_61:\n              mload(0x40)\n              dup1\n              swap2\n              sub\n              swap1\n              log1\n                /* \"contracts/Project.sol\":2677:2695  checkGoalReached() */\n              tag_63\n                /* \"contracts/Project.sol\":2677:2693  checkGoalReached */\n              tag_64\n                /* \"contracts/Project.sol\":2677:2695  checkGoalReached() */\n              jump\t// in\n            tag_63:\n                /* \"contracts/Project.sol\":2347:2702  function contribute() public payable inState(State.Fundraising) isFundingDelayNotExpired {... */\n              pop\n              jump\t// out\n                /* \"contracts/Project.sol\":3644:3716  function setState(State _state) internal {... */\n            tag_31:\n                /* \"contracts/Project.sol\":3703:3709  _state */\n              dup1\n                /* \"contracts/Project.sol\":3695:3700  state */\n              0x05\n              0x00\n                /* \"contracts/Project.sol\":3695:3709  state = _state */\n              0x0100\n              exp\n              dup2\n              sload\n              dup2\n              0xff\n              mul\n              not\n              and\n              swap1\n              dup4\n              0x02\n              dup2\n              gt\n              iszero\n              tag_66\n              jumpi\n              tag_67\n              tag_24\n              jump\t// in\n            tag_67:\n            tag_66:\n              mul\n              or\n              swap1\n              sstore\n              pop\n                /* \"contracts/Project.sol\":3644:3716  function setState(State _state) internal {... */\n              pop\n              jump\t// out\n                /* \"https://github.com/OpenZeppelin/openzeppelin-contracts/blob/master/contracts/utils/math/SafeMath.sol\":2755:2851  function add(uint256 a, uint256 b) internal pure returns (uint256) {... */\n            tag_58:\n                /* \"https://github.com/OpenZeppelin/openzeppelin-contracts/blob/master/contracts/utils/math/SafeMath.sol\":2813:2820  uint256 */\n              0x00\n                /* \"https://github.com/OpenZeppelin/openzeppelin-contracts/blob/master/contracts/utils/math/SafeMath.sol\":2843:2844  b */\n              dup2\n                /* \"https://github.com/OpenZeppelin/openzeppelin-contracts/blob/master/contracts/utils/math/SafeMath.sol\":2839:2840  a */\n              dup4\n                /* \"https://github.com/OpenZeppelin/openzeppelin-contracts/blob/master/contracts/utils/math/SafeMath.sol\":2839:2844  a + b */\n              tag_69\n              swap2\n              swap1\n              tag_60\n              jump\t// in\n            tag_69:\n                /* \"https://github.com/OpenZeppelin/openzeppelin-contracts/blob/master/contracts/utils/math/SafeMath.sol\":2832:2844  return a + b */\n              swap1\n              pop\n                /* \"https://github.com/OpenZeppelin/openzeppelin-contracts/blob/master/contracts/utils/math/SafeMath.sol\":2755:2851  function add(uint256 a, uint256 b) internal pure returns (uint256) {... */\n              swap3\n              swap2\n              pop\n              pop\n              jump\t// out\n                /* \"contracts/Project.sol\":2879:3104  function checkGoalReached() internal {... */\n            tag_64:\n                /* \"contracts/Project.sol\":2943:2957  currentBalance */\n              sload(0x04)\n                /* \"contracts/Project.sol\":2929:2939  amountGoal */\n              sload(0x03)\n                /* \"contracts/Project.sol\":2929:2957  amountGoal >= currentBalance */\n              lt\n                /* \"contracts/Project.sol\":2926:3098  if(amountGoal >= currentBalance){... */\n              tag_71\n              jumpi\n                /* \"contracts/Project.sol\":2977:3025  GoalReached(\"The Goal is reached\", projectTitle) */\n              0x15ac727d1ca51352f519e3f5899500ead795e56a4a39ceafeea835331346017a\n                /* \"contracts/Project.sol\":3012:3024  projectTitle */\n              0x01\n                /* \"contracts/Project.sol\":2977:3025  GoalReached(\"The Goal is reached\", projectTitle) */\n              mload(0x40)\n              tag_72\n              swap2\n              swap1\n              tag_73\n              jump\t// in\n            tag_72:\n              mload(0x40)\n              dup1\n              swap2\n              sub\n              swap1\n              log1\n                /* \"contracts/Project.sol\":3039:3065  setState(State.Successful) */\n              tag_74\n                /* \"contracts/Project.sol\":3048:3064  State.Successful */\n              0x02\n                /* \"contracts/Project.sol\":3039:3047  setState */\n              tag_31\n                /* \"contracts/Project.sol\":3039:3065  setState(State.Successful) */\n              jump\t// in\n            tag_74:\n                /* \"contracts/Project.sol\":3079:3087  payOut() */\n              tag_75\n                /* \"contracts/Project.sol\":3079:3085  payOut */\n              tag_16\n                /* \"contracts/Project.sol\":3079:3087  payOut() */\n              jump\t// in\n            tag_75:\n                /* \"contracts/Project.sol\":2926:3098  if(amountGoal >= currentBalance){... */\n            tag_71:\n                /* \"contracts/Project.sol\":2879:3104  function checkGoalReached() internal {... */\n              jump\t// out\n                /* \"#utility.yul\":7:133   */\n            tag_76:\n                /* \"#utility.yul\":44:51   */\n              0x00\n                /* \"#utility.yul\":84:126   */\n              0xffffffffffffffffffffffffffffffffffffffff\n                /* \"#utility.yul\":77:82   */\n              dup3\n                /* \"#utility.yul\":73:127   */\n              and\n                /* \"#utility.yul\":62:127   */\n              swap1\n              pop\n                /* \"#utility.yul\":7:133   */\n              swap2\n              swap1\n              pop\n              jump\t// out\n                /* \"#utility.yul\":139:243   */\n            tag_77:\n                /* \"#utility.yul\":184:191   */\n              0x00\n                /* \"#utility.yul\":213:237   */\n              tag_98\n                /* \"#utility.yul\":231:236   */\n              dup3\n                /* \"#utility.yul\":213:237   */\n              tag_76\n              jump\t// in\n            tag_98:\n                /* \"#utility.yul\":202:237   */\n              swap1\n              pop\n                /* \"#utility.yul\":139:243   */\n              swap2\n              swap1\n              pop\n              jump\t// out\n                /* \"#utility.yul\":249:391   */\n            tag_78:\n                /* \"#utility.yul\":352:384   */\n              tag_100\n                /* \"#utility.yul\":378:383   */\n              dup2\n                /* \"#utility.yul\":352:384   */\n              tag_77\n              jump\t// in\n            tag_100:\n                /* \"#utility.yul\":347:350   */\n              dup3\n                /* \"#utility.yul\":340:385   */\n              mstore\n                /* \"#utility.yul\":249:391   */\n              pop\n              pop\n              jump\t// out\n                /* \"#utility.yul\":397:651   */\n            tag_13:\n                /* \"#utility.yul\":506:510   */\n              0x00\n                /* \"#utility.yul\":544:546   */\n              0x20\n                /* \"#utility.yul\":533:542   */\n              dup3\n                /* \"#utility.yul\":529:547   */\n              add\n                /* \"#utility.yul\":521:547   */\n              swap1\n              pop\n                /* \"#utility.yul\":557:644   */\n              tag_102\n                /* \"#utility.yul\":641:642   */\n              0x00\n                /* \"#utility.yul\":630:639   */\n              dup4\n                /* \"#utility.yul\":626:643   */\n              add\n                /* \"#utility.yul\":617:623   */\n              dup5\n                /* \"#utility.yul\":557:644   */\n              tag_78\n              jump\t// in\n            tag_102:\n                /* \"#utility.yul\":397:651   */\n              swap3\n              swap2\n              pop\n              pop\n              jump\t// out\n                /* \"#utility.yul\":657:837   */\n            tag_24:\n                /* \"#utility.yul\":705:782   */\n              0x4e487b7100000000000000000000000000000000000000000000000000000000\n                /* \"#utility.yul\":702:703   */\n              0x00\n                /* \"#utility.yul\":695:783   */\n              mstore\n                /* \"#utility.yul\":802:806   */\n              0x21\n                /* \"#utility.yul\":799:800   */\n              0x04\n                /* \"#utility.yul\":792:807   */\n              mstore\n                /* \"#utility.yul\":826:830   */\n              0x24\n                /* \"#utility.yul\":823:824   */\n              0x00\n                /* \"#utility.yul\":816:831   */\n              revert\n                /* \"#utility.yul\":843:1012   */\n            tag_79:\n                /* \"#utility.yul\":927:938   */\n              0x00\n                /* \"#utility.yul\":961:967   */\n              dup3\n                /* \"#utility.yul\":956:959   */\n              dup3\n                /* \"#utility.yul\":949:968   */\n              mstore\n                /* \"#utility.yul\":1001:1005   */\n              0x20\n                /* \"#utility.yul\":996:999   */\n              dup3\n                /* \"#utility.yul\":992:1006   */\n              add\n                /* \"#utility.yul\":977:1006   */\n              swap1\n              pop\n                /* \"#utility.yul\":843:1012   */\n              swap3\n              swap2\n              pop\n              pop\n              jump\t// out\n                /* \"#utility.yul\":1018:1182   */\n            tag_80:\n                /* \"#utility.yul\":1158:1174   */\n              0x46756e6420726574726569766564000000000000000000000000000000000000\n                /* \"#utility.yul\":1154:1155   */\n              0x00\n                /* \"#utility.yul\":1146:1152   */\n              dup3\n                /* \"#utility.yul\":1142:1156   */\n              add\n                /* \"#utility.yul\":1135:1175   */\n              mstore\n                /* \"#utility.yul\":1018:1182   */\n              pop\n              jump\t// out\n                /* \"#utility.yul\":1188:1554   */\n            tag_81:\n                /* \"#utility.yul\":1330:1333   */\n              0x00\n                /* \"#utility.yul\":1351:1418   */\n              tag_107\n                /* \"#utility.yul\":1415:1417   */\n              0x0e\n                /* \"#utility.yul\":1410:1413   */\n              dup4\n                /* \"#utility.yul\":1351:1418   */\n              tag_79\n              jump\t// in\n            tag_107:\n                /* \"#utility.yul\":1344:1418   */\n              swap2\n              pop\n                /* \"#utility.yul\":1427:1520   */\n              tag_108\n                /* \"#utility.yul\":1516:1519   */\n              dup3\n                /* \"#utility.yul\":1427:1520   */\n              tag_80\n              jump\t// in\n            tag_108:\n                /* \"#utility.yul\":1545:1547   */\n              0x20\n                /* \"#utility.yul\":1540:1543   */\n              dup3\n                /* \"#utility.yul\":1536:1548   */\n              add\n                /* \"#utility.yul\":1529:1548   */\n              swap1\n              pop\n                /* \"#utility.yul\":1188:1554   */\n              swap2\n              swap1\n              pop\n              jump\t// out\n                /* \"#utility.yul\":1560:1740   */\n            tag_82:\n                /* \"#utility.yul\":1608:1685   */\n              0x4e487b7100000000000000000000000000000000000000000000000000000000\n                /* \"#utility.yul\":1605:1606   */\n              0x00\n                /* \"#utility.yul\":1598:1686   */\n              mstore\n                /* \"#utility.yul\":1705:1709   */\n              0x22\n                /* \"#utility.yul\":1702:1703   */\n              0x04\n                /* \"#utility.yul\":1695:1710   */\n              mstore\n                /* \"#utility.yul\":1729:1733   */\n              0x24\n                /* \"#utility.yul\":1726:1727   */\n              0x00\n                /* \"#utility.yul\":1719:1734   */\n              revert\n                /* \"#utility.yul\":1746:2066   */\n            tag_83:\n                /* \"#utility.yul\":1790:1796   */\n              0x00\n                /* \"#utility.yul\":1827:1828   */\n              0x02\n                /* \"#utility.yul\":1821:1825   */\n              dup3\n                /* \"#utility.yul\":1817:1829   */\n              div\n                /* \"#utility.yul\":1807:1829   */\n              swap1\n              pop\n                /* \"#utility.yul\":1874:1875   */\n              0x01\n                /* \"#utility.yul\":1868:1872   */\n              dup3\n                /* \"#utility.yul\":1864:1876   */\n              and\n                /* \"#utility.yul\":1895:1913   */\n              dup1\n                /* \"#utility.yul\":1885:1966   */\n              tag_111\n              jumpi\n                /* \"#utility.yul\":1951:1955   */\n              0x7f\n                /* \"#utility.yul\":1943:1949   */\n              dup3\n                /* \"#utility.yul\":1939:1956   */\n              and\n                /* \"#utility.yul\":1929:1956   */\n              swap2\n              pop\n                /* \"#utility.yul\":1885:1966   */\n            tag_111:\n                /* \"#utility.yul\":2013:2015   */\n              0x20\n                /* \"#utility.yul\":2005:2011   */\n              dup3\n                /* \"#utility.yul\":2002:2016   */\n              lt\n                /* \"#utility.yul\":1982:2000   */\n              dup2\n                /* \"#utility.yul\":1979:2017   */\n              sub\n                /* \"#utility.yul\":1976:2060   */\n              tag_112\n              jumpi\n                /* \"#utility.yul\":2032:2050   */\n              tag_113\n              tag_82\n              jump\t// in\n            tag_113:\n                /* \"#utility.yul\":1976:2060   */\n            tag_112:\n                /* \"#utility.yul\":1797:2066   */\n              pop\n                /* \"#utility.yul\":1746:2066   */\n              swap2\n              swap1\n              pop\n              jump\t// out\n                /* \"#utility.yul\":2072:2213   */\n            tag_84:\n                /* \"#utility.yul\":2121:2125   */\n              0x00\n                /* \"#utility.yul\":2144:2147   */\n              dup2\n                /* \"#utility.yul\":2136:2147   */\n              swap1\n              pop\n                /* \"#utility.yul\":2167:2170   */\n              dup2\n                /* \"#utility.yul\":2164:2165   */\n              0x00\n                /* \"#utility.yul\":2157:2171   */\n              mstore\n                /* \"#utility.yul\":2201:2205   */\n              0x20\n                /* \"#utility.yul\":2198:2199   */\n              0x00\n                /* \"#utility.yul\":2188:2206   */\n              keccak256\n                /* \"#utility.yul\":2180:2206   */\n              swap1\n              pop\n                /* \"#utility.yul\":2072:2213   */\n              swap2\n              swap1\n              pop\n              jump\t// out\n                /* \"#utility.yul\":2243:3045   */\n            tag_85:\n                /* \"#utility.yul\":2328:2331   */\n              0x00\n                /* \"#utility.yul\":2365:2370   */\n              dup2\n                /* \"#utility.yul\":2359:2371   */\n              sload\n                /* \"#utility.yul\":2394:2430   */\n              tag_116\n                /* \"#utility.yul\":2420:2429   */\n              dup2\n                /* \"#utility.yul\":2394:2430   */\n              tag_83\n              jump\t// in\n            tag_116:\n                /* \"#utility.yul\":2446:2517   */\n              tag_117\n                /* \"#utility.yul\":2510:2516   */\n              dup2\n                /* \"#utility.yul\":2505:2508   */\n              dup7\n                /* \"#utility.yul\":2446:2517   */\n              tag_79\n              jump\t// in\n            tag_117:\n                /* \"#utility.yul\":2439:2517   */\n              swap5\n              pop\n                /* \"#utility.yul\":2548:2549   */\n              0x01\n                /* \"#utility.yul\":2537:2546   */\n              dup3\n                /* \"#utility.yul\":2533:2550   */\n              and\n                /* \"#utility.yul\":2564:2565   */\n              0x00\n                /* \"#utility.yul\":2559:2694   */\n              dup2\n              eq\n              tag_119\n              jumpi\n                /* \"#utility.yul\":2708:2709   */\n              0x01\n                /* \"#utility.yul\":2703:3039   */\n              dup2\n              eq\n              tag_120\n              jumpi\n                /* \"#utility.yul\":2526:3039   */\n              jump(tag_118)\n                /* \"#utility.yul\":2559:2694   */\n            tag_119:\n                /* \"#utility.yul\":2643:2647   */\n              0xff\n                /* \"#utility.yul\":2639:2648   */\n              not\n                /* \"#utility.yul\":2628:2637   */\n              dup4\n                /* \"#utility.yul\":2624:2649   */\n              and\n                /* \"#utility.yul\":2619:2622   */\n              dup7\n                /* \"#utility.yul\":2612:2650   */\n              mstore\n                /* \"#utility.yul\":2679:2683   */\n              0x20\n                /* \"#utility.yul\":2674:2677   */\n              dup7\n                /* \"#utility.yul\":2670:2684   */\n              add\n                /* \"#utility.yul\":2663:2684   */\n              swap4\n              pop\n                /* \"#utility.yul\":2559:2694   */\n              jump(tag_118)\n                /* \"#utility.yul\":2703:3039   */\n            tag_120:\n                /* \"#utility.yul\":2770:2808   */\n              tag_121\n                /* \"#utility.yul\":2802:2807   */\n              dup6\n                /* \"#utility.yul\":2770:2808   */\n              tag_84\n              jump\t// in\n            tag_121:\n                /* \"#utility.yul\":2830:2831   */\n              0x00\n                /* \"#utility.yul\":2844:2998   */\n            tag_122:\n                /* \"#utility.yul\":2858:2864   */\n              dup4\n                /* \"#utility.yul\":2855:2856   */\n              dup2\n                /* \"#utility.yul\":2852:2865   */\n              lt\n                /* \"#utility.yul\":2844:2998   */\n              iszero\n              tag_124\n              jumpi\n                /* \"#utility.yul\":2932:2939   */\n              dup2\n                /* \"#utility.yul\":2926:2940   */\n              sload\n                /* \"#utility.yul\":2922:2923   */\n              dup2\n                /* \"#utility.yul\":2917:2920   */\n              dup10\n                /* \"#utility.yul\":2913:2924   */\n              add\n                /* \"#utility.yul\":2906:2941   */\n              mstore\n                /* \"#utility.yul\":2982:2983   */\n              0x01\n                /* \"#utility.yul\":2973:2980   */\n              dup3\n                /* \"#utility.yul\":2969:2984   */\n              add\n                /* \"#utility.yul\":2958:2984   */\n              swap2\n              pop\n                /* \"#utility.yul\":2880:2884   */\n              0x20\n                /* \"#utility.yul\":2877:2878   */\n              dup2\n                /* \"#utility.yul\":2873:2885   */\n              add\n                /* \"#utility.yul\":2868:2885   */\n              swap1\n              pop\n                /* \"#utility.yul\":2844:2998   */\n              jump(tag_122)\n            tag_124:\n                /* \"#utility.yul\":3027:3028   */\n              dup1\n                /* \"#utility.yul\":3022:3025   */\n              dup9\n                /* \"#utility.yul\":3018:3029   */\n              add\n                /* \"#utility.yul\":3011:3029   */\n              swap6\n              pop\n                /* \"#utility.yul\":2710:3039   */\n              pop\n              pop\n                /* \"#utility.yul\":2526:3039   */\n            tag_118:\n              pop\n                /* \"#utility.yul\":2332:3045   */\n              pop\n              pop\n                /* \"#utility.yul\":2243:3045   */\n              swap3\n              swap2\n              pop\n              pop\n              jump\t// out\n                /* \"#utility.yul\":3051:3665   */\n            tag_35:\n                /* \"#utility.yul\":3262:3266   */\n              0x00\n                /* \"#utility.yul\":3300:3302   */\n              0x40\n                /* \"#utility.yul\":3289:3298   */\n              dup3\n                /* \"#utility.yul\":3285:3303   */\n              add\n                /* \"#utility.yul\":3277:3303   */\n              swap1\n              pop\n                /* \"#utility.yul\":3349:3358   */\n              dup2\n                /* \"#utility.yul\":3343:3347   */\n              dup2\n                /* \"#utility.yul\":3339:3359   */\n              sub\n                /* \"#utility.yul\":3335:3336   */\n              0x00\n                /* \"#utility.yul\":3324:3333   */\n              dup4\n                /* \"#utility.yul\":3320:3337   */\n              add\n                /* \"#utility.yul\":3313:3360   */\n              mstore\n                /* \"#utility.yul\":3377:3508   */\n              tag_126\n                /* \"#utility.yul\":3503:3507   */\n              dup2\n                /* \"#utility.yul\":3377:3508   */\n              tag_81\n              jump\t// in\n            tag_126:\n                /* \"#utility.yul\":3369:3508   */\n              swap1\n              pop\n                /* \"#utility.yul\":3555:3564   */\n              dup2\n                /* \"#utility.yul\":3549:3553   */\n              dup2\n                /* \"#utility.yul\":3545:3565   */\n              sub\n                /* \"#utility.yul\":3540:3542   */\n              0x20\n                /* \"#utility.yul\":3529:3538   */\n              dup4\n                /* \"#utility.yul\":3525:3543   */\n              add\n                /* \"#utility.yul\":3518:3566   */\n              mstore\n                /* \"#utility.yul\":3583:3658   */\n              tag_127\n                /* \"#utility.yul\":3653:3657   */\n              dup2\n                /* \"#utility.yul\":3644:3650   */\n              dup5\n                /* \"#utility.yul\":3583:3658   */\n              tag_85\n              jump\t// in\n            tag_127:\n                /* \"#utility.yul\":3575:3658   */\n              swap1\n              pop\n                /* \"#utility.yul\":3051:3665   */\n              swap3\n              swap2\n              pop\n              pop\n              jump\t// out\n                /* \"#utility.yul\":3671:3830   */\n            tag_86:\n                /* \"#utility.yul\":3811:3822   */\n              0x69732046756e6465640000000000000000000000000000000000000000000000\n                /* \"#utility.yul\":3807:3808   */\n              0x00\n                /* \"#utility.yul\":3799:3805   */\n              dup3\n                /* \"#utility.yul\":3795:3809   */\n              add\n                /* \"#utility.yul\":3788:3823   */\n              mstore\n                /* \"#utility.yul\":3671:3830   */\n              pop\n              jump\t// out\n                /* \"#utility.yul\":3836:4201   */\n            tag_87:\n                /* \"#utility.yul\":3978:3981   */\n              0x00\n                /* \"#utility.yul\":3999:4065   */\n              tag_130\n                /* \"#utility.yul\":4063:4064   */\n              0x09\n                /* \"#utility.yul\":4058:4061   */\n              dup4\n                /* \"#utility.yul\":3999:4065   */\n              tag_79\n              jump\t// in\n            tag_130:\n                /* \"#utility.yul\":3992:4065   */\n              swap2\n              pop\n                /* \"#utility.yul\":4074:4167   */\n              tag_131\n                /* \"#utility.yul\":4163:4166   */\n              dup3\n                /* \"#utility.yul\":4074:4167   */\n              tag_86\n              jump\t// in\n            tag_131:\n                /* \"#utility.yul\":4192:4194   */\n              0x20\n                /* \"#utility.yul\":4187:4190   */\n              dup3\n                /* \"#utility.yul\":4183:4195   */\n              add\n                /* \"#utility.yul\":4176:4195   */\n              swap1\n              pop\n                /* \"#utility.yul\":3836:4201   */\n              swap2\n              swap1\n              pop\n              jump\t// out\n                /* \"#utility.yul\":4207:4821   */\n            tag_46:\n                /* \"#utility.yul\":4418:4422   */\n              0x00\n                /* \"#utility.yul\":4456:4458   */\n              0x40\n                /* \"#utility.yul\":4445:4454   */\n              dup3\n                /* \"#utility.yul\":4441:4459   */\n              add\n                /* \"#utility.yul\":4433:4459   */\n              swap1\n              pop\n                /* \"#utility.yul\":4505:4514   */\n              dup2\n                /* \"#utility.yul\":4499:4503   */\n              dup2\n                /* \"#utility.yul\":4495:4515   */\n              sub\n                /* \"#utility.yul\":4491:4492   */\n              0x00\n                /* \"#utility.yul\":4480:4489   */\n              dup4\n                /* \"#utility.yul\":4476:4493   */\n              add\n                /* \"#utility.yul\":4469:4516   */\n              mstore\n                /* \"#utility.yul\":4533:4608   */\n              tag_133\n                /* \"#utility.yul\":4603:4607   */\n              dup2\n                /* \"#utility.yul\":4594:4600   */\n              dup5\n                /* \"#utility.yul\":4533:4608   */\n              tag_85\n              jump\t// in\n            tag_133:\n                /* \"#utility.yul\":4525:4608   */\n              swap1\n              pop\n                /* \"#utility.yul\":4655:4664   */\n              dup2\n                /* \"#utility.yul\":4649:4653   */\n              dup2\n                /* \"#utility.yul\":4645:4665   */\n              sub\n                /* \"#utility.yul\":4640:4642   */\n              0x20\n                /* \"#utility.yul\":4629:4638   */\n              dup4\n                /* \"#utility.yul\":4625:4643   */\n              add\n                /* \"#utility.yul\":4618:4666   */\n              mstore\n                /* \"#utility.yul\":4683:4814   */\n              tag_134\n                /* \"#utility.yul\":4809:4813   */\n              dup2\n                /* \"#utility.yul\":4683:4814   */\n              tag_87\n              jump\t// in\n            tag_134:\n                /* \"#utility.yul\":4675:4814   */\n              swap1\n              pop\n                /* \"#utility.yul\":4207:4821   */\n              swap3\n              swap2\n              pop\n              pop\n              jump\t// out\n                /* \"#utility.yul\":4827:4904   */\n            tag_88:\n                /* \"#utility.yul\":4864:4871   */\n              0x00\n                /* \"#utility.yul\":4893:4898   */\n              dup2\n                /* \"#utility.yul\":4882:4898   */\n              swap1\n              pop\n                /* \"#utility.yul\":4827:4904   */\n              swap2\n              swap1\n              pop\n              jump\t// out\n                /* \"#utility.yul\":4910:5090   */\n            tag_89:\n                /* \"#utility.yul\":4958:5035   */\n              0x4e487b7100000000000000000000000000000000000000000000000000000000\n                /* \"#utility.yul\":4955:4956   */\n              0x00\n                /* \"#utility.yul\":4948:5036   */\n              mstore\n                /* \"#utility.yul\":5055:5059   */\n              0x11\n                /* \"#utility.yul\":5052:5053   */\n              0x04\n                /* \"#utility.yul\":5045:5060   */\n              mstore\n                /* \"#utility.yul\":5079:5083   */\n              0x24\n                /* \"#utility.yul\":5076:5077   */\n              0x00\n                /* \"#utility.yul\":5069:5084   */\n              revert\n                /* \"#utility.yul\":5096:5401   */\n            tag_60:\n                /* \"#utility.yul\":5136:5139   */\n              0x00\n                /* \"#utility.yul\":5155:5175   */\n              tag_138\n                /* \"#utility.yul\":5173:5174   */\n              dup3\n                /* \"#utility.yul\":5155:5175   */\n              tag_88\n              jump\t// in\n            tag_138:\n                /* \"#utility.yul\":5150:5175   */\n              swap2\n              pop\n                /* \"#utility.yul\":5189:5209   */\n              tag_139\n                /* \"#utility.yul\":5207:5208   */\n              dup4\n                /* \"#utility.yul\":5189:5209   */\n              tag_88\n              jump\t// in\n            tag_139:\n                /* \"#utility.yul\":5184:5209   */\n              swap3\n              pop\n                /* \"#utility.yul\":5343:5344   */\n              dup3\n                /* \"#utility.yul\":5275:5341   */\n              0xffffffffffffffffffffffffffffffffffffffffffffffffffffffffffffffff\n                /* \"#utility.yul\":5271:5345   */\n              sub\n                /* \"#utility.yul\":5268:5269   */\n              dup3\n                /* \"#utility.yul\":5265:5346   */\n              gt\n                /* \"#utility.yul\":5262:5369   */\n              iszero\n              tag_140\n              jumpi\n                /* \"#utility.yul\":5349:5367   */\n              tag_141\n              tag_89\n              jump\t// in\n            tag_141:\n                /* \"#utility.yul\":5262:5369   */\n            tag_140:\n                /* \"#utility.yul\":5393:5394   */\n              dup3\n                /* \"#utility.yul\":5390:5391   */\n              dup3\n                /* \"#utility.yul\":5386:5395   */\n              add\n                /* \"#utility.yul\":5379:5395   */\n              swap1\n              pop\n                /* \"#utility.yul\":5096:5401   */\n              swap3\n              swap2\n              pop\n              pop\n              jump\t// out\n                /* \"#utility.yul\":5407:5503   */\n            tag_90:\n                /* \"#utility.yul\":5444:5451   */\n              0x00\n                /* \"#utility.yul\":5473:5497   */\n              tag_143\n                /* \"#utility.yul\":5491:5496   */\n              dup3\n                /* \"#utility.yul\":5473:5497   */\n              tag_76\n              jump\t// in\n            tag_143:\n                /* \"#utility.yul\":5462:5497   */\n              swap1\n              pop\n                /* \"#utility.yul\":5407:5503   */\n              swap2\n              swap1\n              pop\n              jump\t// out\n                /* \"#utility.yul\":5509:5627   */\n            tag_91:\n                /* \"#utility.yul\":5596:5620   */\n              tag_145\n                /* \"#utility.yul\":5614:5619   */\n              dup2\n                /* \"#utility.yul\":5596:5620   */\n              tag_90\n              jump\t// in\n            tag_145:\n                /* \"#utility.yul\":5591:5594   */\n              dup3\n                /* \"#utility.yul\":5584:5621   */\n              mstore\n                /* \"#utility.yul\":5509:5627   */\n              pop\n              pop\n              jump\t// out\n                /* \"#utility.yul\":5633:5751   */\n            tag_92:\n                /* \"#utility.yul\":5720:5744   */\n              tag_147\n                /* \"#utility.yul\":5738:5743   */\n              dup2\n                /* \"#utility.yul\":5720:5744   */\n              tag_88\n              jump\t// in\n            tag_147:\n                /* \"#utility.yul\":5715:5718   */\n              dup3\n                /* \"#utility.yul\":5708:5745   */\n              mstore\n                /* \"#utility.yul\":5633:5751   */\n              pop\n              pop\n              jump\t// out\n                /* \"#utility.yul\":5757:6089   */\n            tag_62:\n                /* \"#utility.yul\":5878:5882   */\n              0x00\n                /* \"#utility.yul\":5916:5918   */\n              0x40\n                /* \"#utility.yul\":5905:5914   */\n              dup3\n                /* \"#utility.yul\":5901:5919   */\n              add\n                /* \"#utility.yul\":5893:5919   */\n              swap1\n              pop\n                /* \"#utility.yul\":5929:6000   */\n              tag_149\n                /* \"#utility.yul\":5997:5998   */\n              0x00\n                /* \"#utility.yul\":5986:5995   */\n              dup4\n                /* \"#utility.yul\":5982:5999   */\n              add\n                /* \"#utility.yul\":5973:5979   */\n              dup6\n                /* \"#utility.yul\":5929:6000   */\n              tag_91\n              jump\t// in\n            tag_149:\n                /* \"#utility.yul\":6010:6082   */\n              tag_150\n                /* \"#utility.yul\":6078:6080   */\n              0x20\n                /* \"#utility.yul\":6067:6076   */\n              dup4\n                /* \"#utility.yul\":6063:6081   */\n              add\n                /* \"#utility.yul\":6054:6060   */\n              dup5\n                /* \"#utility.yul\":6010:6082   */\n              tag_92\n              jump\t// in\n            tag_150:\n                /* \"#utility.yul\":5757:6089   */\n              swap4\n              swap3\n              pop\n              pop\n              pop\n              jump\t// out\n                /* \"#utility.yul\":6095:6264   */\n            tag_93:\n                /* \"#utility.yul\":6235:6256   */\n              0x54686520476f616c206973207265616368656400000000000000000000000000\n                /* \"#utility.yul\":6231:6232   */\n              0x00\n                /* \"#utility.yul\":6223:6229   */\n              dup3\n                /* \"#utility.yul\":6219:6233   */\n              add\n                /* \"#utility.yul\":6212:6257   */\n              mstore\n                /* \"#utility.yul\":6095:6264   */\n              pop\n              jump\t// out\n                /* \"#utility.yul\":6270:6636   */\n            tag_94:\n                /* \"#utility.yul\":6412:6415   */\n              0x00\n                /* \"#utility.yul\":6433:6500   */\n              tag_153\n                /* \"#utility.yul\":6497:6499   */\n              0x13\n                /* \"#utility.yul\":6492:6495   */\n              dup4\n                /* \"#utility.yul\":6433:6500   */\n              tag_79\n              jump\t// in\n            tag_153:\n                /* \"#utility.yul\":6426:6500   */\n              swap2\n              pop\n                /* \"#utility.yul\":6509:6602   */\n              tag_154\n                /* \"#utility.yul\":6598:6601   */\n              dup3\n                /* \"#utility.yul\":6509:6602   */\n              tag_93\n              jump\t// in\n            tag_154:\n                /* \"#utility.yul\":6627:6629   */\n              0x20\n                /* \"#utility.yul\":6622:6625   */\n              dup3\n                /* \"#utility.yul\":6618:6630   */\n              add\n                /* \"#utility.yul\":6611:6630   */\n              swap1\n              pop\n                /* \"#utility.yul\":6270:6636   */\n              swap2\n              swap1\n              pop\n              jump\t// out\n                /* \"#utility.yul\":6642:7256   */\n            tag_73:\n                /* \"#utility.yul\":6853:6857   */\n              0x00\n                /* \"#utility.yul\":6891:6893   */\n              0x40\n                /* \"#utility.yul\":6880:6889   */\n              dup3\n                /* \"#utility.yul\":6876:6894   */\n              add\n                /* \"#utility.yul\":6868:6894   */\n              swap1\n              pop\n                /* \"#utility.yul\":6940:6949   */\n              dup2\n                /* \"#utility.yul\":6934:6938   */\n              dup2\n                /* \"#utility.yul\":6930:6950   */\n              sub\n                /* \"#utility.yul\":6926:6927   */\n              0x00\n                /* \"#utility.yul\":6915:6924   */\n              dup4\n                /* \"#utility.yul\":6911:6928   */\n              add\n                /* \"#utility.yul\":6904:6951   */\n              mstore\n                /* \"#utility.yul\":6968:7099   */\n              tag_156\n                /* \"#utility.yul\":7094:7098   */\n              dup2\n                /* \"#utility.yul\":6968:7099   */\n              tag_94\n              jump\t// in\n            tag_156:\n                /* \"#utility.yul\":6960:7099   */\n              swap1\n              pop\n                /* \"#utility.yul\":7146:7155   */\n              dup2\n                /* \"#utility.yul\":7140:7144   */\n              dup2\n                /* \"#utility.yul\":7136:7156   */\n              sub\n                /* \"#utility.yul\":7131:7133   */\n              0x20\n                /* \"#utility.yul\":7120:7129   */\n              dup4\n                /* \"#utility.yul\":7116:7134   */\n              add\n                /* \"#utility.yul\":7109:7157   */\n              mstore\n                /* \"#utility.yul\":7174:7249   */\n              tag_157\n                /* \"#utility.yul\":7244:7248   */\n              dup2\n                /* \"#utility.yul\":7235:7241   */\n              dup5\n                /* \"#utility.yul\":7174:7249   */\n              tag_85\n              jump\t// in\n            tag_157:\n                /* \"#utility.yul\":7166:7249   */\n              swap1\n              pop\n                /* \"#utility.yul\":6642:7256   */\n              swap3\n              swap2\n              pop\n              pop\n              jump\t// out\n\n            auxdata: 0xa26469706673582212207e13eb572a68d47e32c00ab715871bbd2592952801967f7e0718adac1e557e9564736f6c634300080d0033\n        }\n    }\n\n    auxdata: 0xa2646970667358221220621f92d11e58cbcb94b86a5f19dfdb5be01d7ce06a586c8143e06da45e84703464736f6c634300080d0033\n}\n\nsub_1: assembly {\n        /* \"contracts/Project.sol\":225:3719  contract Project {... */\n      mstore(0x40, 0x80)\n        /* \"contracts/Project.sol\":1500:1926  constructor... */\n      callvalue\n      dup1\n      iszero\n      tag_1\n      jumpi\n      0x00\n      dup1\n      revert\n    tag_1:\n      pop\n      mload(0x40)\n      sub(codesize, bytecodeSize)\n      dup1\n      bytecodeSize\n      dup4\n      codecopy\n      dup2\n      dup2\n      add\n      0x40\n      mstore\n      dup2\n      add\n      swap1\n      tag_2\n      swap2\n      swap1\n      tag_3\n      jump\t// in\n    tag_2:\n        /* \"contracts/Project.sol\":1724:1739  _projectCreator */\n      dup5\n        /* \"contracts/Project.sol\":1707:1721  projectCreator */\n      0x00\n      dup1\n        /* \"contracts/Project.sol\":1707:1739  projectCreator = _projectCreator */\n      0x0100\n      exp\n      dup2\n      sload\n      dup2\n      0xffffffffffffffffffffffffffffffffffffffff\n      mul\n      not\n      and\n      swap1\n      dup4\n      0xffffffffffffffffffffffffffffffffffffffff\n      and\n      mul\n      or\n      swap1\n      sstore\n      pop\n        /* \"contracts/Project.sol\":1764:1777  _projectTitle */\n      dup4\n        /* \"contracts/Project.sol\":1749:1761  projectTitle */\n      0x01\n        /* \"contracts/Project.sol\":1749:1777  projectTitle = _projectTitle */\n      swap1\n      dup1\n      mload\n      swap1\n      0x20\n      add\n      swap1\n      tag_6\n      swap3\n      swap2\n      swap1\n      tag_7\n      jump\t// in\n    tag_6:\n      pop\n        /* \"contracts/Project.sol\":1808:1827  _projectDescription */\n      dup3\n        /* \"contracts/Project.sol\":1787:1805  projectDescription */\n      0x02\n        /* \"contracts/Project.sol\":1787:1827  projectDescription = _projectDescription */\n      swap1\n      dup1\n      mload\n      swap1\n      0x20\n      add\n      swap1\n      tag_8\n      swap3\n      swap2\n      swap1\n      tag_7\n      jump\t// in\n    tag_8:\n      pop\n        /* \"contracts/Project.sol\":1850:1861  _amountGoal */\n      dup2\n        /* \"contracts/Project.sol\":1837:1847  amountGoal */\n      0x03\n        /* \"contracts/Project.sol\":1837:1861  amountGoal = _amountGoal */\n      dup2\n      swap1\n      sstore\n      pop\n        /* \"contracts/Project.sol\":1882:1891  _deadLine */\n      dup1\n        /* \"contracts/Project.sol\":1871:1879  deadLine */\n      0x06\n        /* \"contracts/Project.sol\":1871:1891  deadLine = _deadLine */\n      dup2\n      swap1\n      sstore\n      pop\n        /* \"contracts/Project.sol\":1918:1919  0 */\n      0x00\n        /* \"contracts/Project.sol\":1901:1915  currentBalance */\n      0x04\n        /* \"contracts/Project.sol\":1901:1919  currentBalance = 0 */\n      dup2\n      swap1\n      sstore\n      pop\n        /* \"contracts/Project.sol\":1500:1926  constructor... */\n      pop\n      pop\n      pop\n      pop\n      pop\n        /* \"contracts/Project.sol\":225:3719  contract Project {... */\n      jump(tag_9)\n    tag_7:\n      dup3\n      dup1\n      sload\n      tag_10\n      swap1\n      tag_11\n      jump\t// in\n    tag_10:\n      swap1\n      0x00\n      mstore\n      keccak256(0x00, 0x20)\n      swap1\n      0x1f\n      add\n      0x20\n      swap1\n      div\n      dup2\n      add\n      swap3\n      dup3\n      tag_13\n      jumpi\n      0x00\n      dup6\n      sstore\n      jump(tag_12)\n    tag_13:\n      dup3\n      0x1f\n      lt\n      tag_14\n      jumpi\n      dup1\n      mload\n      not(0xff)\n      and\n      dup4\n      dup1\n      add\n      or\n      dup6\n      sstore\n      jump(tag_12)\n    tag_14:\n      dup3\n      dup1\n      add\n      0x01\n      add\n      dup6\n      sstore\n      dup3\n      iszero\n      tag_12\n      jumpi\n      swap2\n      dup3\n      add\n    tag_15:\n      dup3\n      dup2\n      gt\n      iszero\n      tag_16\n      jumpi\n      dup3\n      mload\n      dup3\n      sstore\n      swap2\n      0x20\n      add\n      swap2\n      swap1\n      0x01\n      add\n      swap1\n      jump(tag_15)\n    tag_16:\n    tag_12:\n      pop\n      swap1\n      pop\n      tag_17\n      swap2\n      swap1\n      tag_18\n      jump\t// in\n    tag_17:\n      pop\n      swap1\n      jump\t// out\n    tag_18:\n    tag_19:\n      dup1\n      dup3\n      gt\n      iszero\n      tag_20\n      jumpi\n      0x00\n      dup2\n      0x00\n      swap1\n      sstore\n      pop\n      0x01\n      add\n      jump(tag_19)\n    tag_20:\n      pop\n      swap1\n      jump\t// out\n        /* \"#utility.yul\":7:82   */\n    tag_21:\n        /* \"#utility.yul\":40:46   */\n      0x00\n        /* \"#utility.yul\":73:75   */\n      0x40\n        /* \"#utility.yul\":67:76   */\n      mload\n        /* \"#utility.yul\":57:76   */\n      swap1\n      pop\n        /* \"#utility.yul\":7:82   */\n      swap1\n      jump\t// out\n        /* \"#utility.yul\":88:205   */\n    tag_22:\n        /* \"#utility.yul\":197:198   */\n      0x00\n        /* \"#utility.yul\":194:195   */\n      dup1\n        /* \"#utility.yul\":187:199   */\n      revert\n        /* \"#utility.yul\":211:328   */\n    tag_23:\n        /* \"#utility.yul\":320:321   */\n      0x00\n        /* \"#utility.yul\":317:318   */\n      dup1\n        /* \"#utility.yul\":310:322   */\n      revert\n        /* \"#utility.yul\":334:460   */\n    tag_24:\n        /* \"#utility.yul\":371:378   */\n      0x00\n        /* \"#utility.yul\":411:453   */\n      0xffffffffffffffffffffffffffffffffffffffff\n        /* \"#utility.yul\":404:409   */\n      dup3\n        /* \"#utility.yul\":400:454   */\n      and\n        /* \"#utility.yul\":389:454   */\n      swap1\n      pop\n        /* \"#utility.yul\":334:460   */\n      swap2\n      swap1\n      pop\n      jump\t// out\n        /* \"#utility.yul\":466:570   */\n    tag_25:\n        /* \"#utility.yul\":511:518   */\n      0x00\n        /* \"#utility.yul\":540:564   */\n      tag_48\n        /* \"#utility.yul\":558:563   */\n      dup3\n        /* \"#utility.yul\":540:564   */\n      tag_24\n      jump\t// in\n    tag_48:\n        /* \"#utility.yul\":529:564   */\n      swap1\n      pop\n        /* \"#utility.yul\":466:570   */\n      swap2\n      swap1\n      pop\n      jump\t// out\n        /* \"#utility.yul\":576:714   */\n    tag_26:\n        /* \"#utility.yul\":657:689   */\n      tag_50\n        /* \"#utility.yul\":683:688   */\n      dup2\n        /* \"#utility.yul\":657:689   */\n      tag_25\n      jump\t// in\n    tag_50:\n        /* \"#utility.yul\":650:655   */\n      dup2\n        /* \"#utility.yul\":647:690   */\n      eq\n        /* \"#utility.yul\":637:708   */\n      tag_51\n      jumpi\n        /* \"#utility.yul\":704:705   */\n      0x00\n        /* \"#utility.yul\":701:702   */\n      dup1\n        /* \"#utility.yul\":694:706   */\n      revert\n        /* \"#utility.yul\":637:708   */\n    tag_51:\n        /* \"#utility.yul\":576:714   */\n      pop\n      jump\t// out\n        /* \"#utility.yul\":720:879   */\n    tag_27:\n        /* \"#utility.yul\":785:790   */\n      0x00\n        /* \"#utility.yul\":816:822   */\n      dup2\n        /* \"#utility.yul\":810:823   */\n      mload\n        /* \"#utility.yul\":801:823   */\n      swap1\n      pop\n        /* \"#utility.yul\":832:873   */\n      tag_53\n        /* \"#utility.yul\":867:872   */\n      dup2\n        /* \"#utility.yul\":832:873   */\n      tag_26\n      jump\t// in\n    tag_53:\n        /* \"#utility.yul\":720:879   */\n      swap3\n      swap2\n      pop\n      pop\n      jump\t// out\n        /* \"#utility.yul\":885:1002   */\n    tag_28:\n        /* \"#utility.yul\":994:995   */\n      0x00\n        /* \"#utility.yul\":991:992   */\n      dup1\n        /* \"#utility.yul\":984:996   */\n      revert\n        /* \"#utility.yul\":1008:1125   */\n    tag_29:\n        /* \"#utility.yul\":1117:1118   */\n      0x00\n        /* \"#utility.yul\":1114:1115   */\n      dup1\n        /* \"#utility.yul\":1107:1119   */\n      revert\n        /* \"#utility.yul\":1131:1233   */\n    tag_30:\n        /* \"#utility.yul\":1172:1178   */\n      0x00\n        /* \"#utility.yul\":1223:1225   */\n      0x1f\n        /* \"#utility.yul\":1219:1226   */\n      not\n        /* \"#utility.yul\":1214:1216   */\n      0x1f\n        /* \"#utility.yul\":1207:1212   */\n      dup4\n        /* \"#utility.yul\":1203:1217   */\n      add\n        /* \"#utility.yul\":1199:1227   */\n      and\n        /* \"#utility.yul\":1189:1227   */\n      swap1\n      pop\n        /* \"#utility.yul\":1131:1233   */\n      swap2\n      swap1\n      pop\n      jump\t// out\n        /* \"#utility.yul\":1239:1419   */\n    tag_31:\n        /* \"#utility.yul\":1287:1364   */\n      0x4e487b7100000000000000000000000000000000000000000000000000000000\n        /* \"#utility.yul\":1284:1285   */\n      0x00\n        /* \"#utility.yul\":1277:1365   */\n      mstore\n        /* \"#utility.yul\":1384:1388   */\n      0x41\n        /* \"#utility.yul\":1381:1382   */\n      0x04\n        /* \"#utility.yul\":1374:1389   */\n      mstore\n        /* \"#utility.yul\":1408:1412   */\n      0x24\n        /* \"#utility.yul\":1405:1406   */\n      0x00\n        /* \"#utility.yul\":1398:1413   */\n      revert\n        /* \"#utility.yul\":1425:1706   */\n    tag_32:\n        /* \"#utility.yul\":1508:1535   */\n      tag_59\n        /* \"#utility.yul\":1530:1534   */\n      dup3\n        /* \"#utility.yul\":1508:1535   */\n      tag_30\n      jump\t// in\n    tag_59:\n        /* \"#utility.yul\":1500:1506   */\n      dup2\n        /* \"#utility.yul\":1496:1536   */\n      add\n        /* \"#utility.yul\":1638:1644   */\n      dup2\n        /* \"#utility.yul\":1626:1636   */\n      dup2\n        /* \"#utility.yul\":1623:1645   */\n      lt\n        /* \"#utility.yul\":1602:1620   */\n      0xffffffffffffffff\n        /* \"#utility.yul\":1590:1600   */\n      dup3\n        /* \"#utility.yul\":1587:1621   */\n      gt\n        /* \"#utility.yul\":1584:1646   */\n      or\n        /* \"#utility.yul\":1581:1669   */\n      iszero\n      tag_60\n      jumpi\n        /* \"#utility.yul\":1649:1667   */\n      tag_61\n      tag_31\n      jump\t// in\n    tag_61:\n        /* \"#utility.yul\":1581:1669   */\n    tag_60:\n        /* \"#utility.yul\":1689:1699   */\n      dup1\n        /* \"#utility.yul\":1685:1687   */\n      0x40\n        /* \"#utility.yul\":1678:1700   */\n      mstore\n        /* \"#utility.yul\":1468:1706   */\n      pop\n        /* \"#utility.yul\":1425:1706   */\n      pop\n      pop\n      jump\t// out\n        /* \"#utility.yul\":1712:1841   */\n    tag_33:\n        /* \"#utility.yul\":1746:1752   */\n      0x00\n        /* \"#utility.yul\":1773:1793   */\n      tag_63\n      tag_21\n      jump\t// in\n    tag_63:\n        /* \"#utility.yul\":1763:1793   */\n      swap1\n      pop\n        /* \"#utility.yul\":1802:1835   */\n      tag_64\n        /* \"#utility.yul\":1830:1834   */\n      dup3\n        /* \"#utility.yul\":1822:1828   */\n      dup3\n        /* \"#utility.yul\":1802:1835   */\n      tag_32\n      jump\t// in\n    tag_64:\n        /* \"#utility.yul\":1712:1841   */\n      swap2\n      swap1\n      pop\n      jump\t// out\n        /* \"#utility.yul\":1847:2155   */\n    tag_34:\n        /* \"#utility.yul\":1909:1913   */\n      0x00\n        /* \"#utility.yul\":1999:2017   */\n      0xffffffffffffffff\n        /* \"#utility.yul\":1991:1997   */\n      dup3\n        /* \"#utility.yul\":1988:2018   */\n      gt\n        /* \"#utility.yul\":1985:2041   */\n      iszero\n      tag_66\n      jumpi\n        /* \"#utility.yul\":2021:2039   */\n      tag_67\n      tag_31\n      jump\t// in\n    tag_67:\n        /* \"#utility.yul\":1985:2041   */\n    tag_66:\n        /* \"#utility.yul\":2059:2088   */\n      tag_68\n        /* \"#utility.yul\":2081:2087   */\n      dup3\n        /* \"#utility.yul\":2059:2088   */\n      tag_30\n      jump\t// in\n    tag_68:\n        /* \"#utility.yul\":2051:2088   */\n      swap1\n      pop\n        /* \"#utility.yul\":2143:2147   */\n      0x20\n        /* \"#utility.yul\":2137:2141   */\n      dup2\n        /* \"#utility.yul\":2133:2148   */\n      add\n        /* \"#utility.yul\":2125:2148   */\n      swap1\n      pop\n        /* \"#utility.yul\":1847:2155   */\n      swap2\n      swap1\n      pop\n      jump\t// out\n        /* \"#utility.yul\":2161:2468   */\n    tag_35:\n        /* \"#utility.yul\":2229:2230   */\n      0x00\n        /* \"#utility.yul\":2239:2352   */\n    tag_70:\n        /* \"#utility.yul\":2253:2259   */\n      dup4\n        /* \"#utility.yul\":2250:2251   */\n      dup2\n        /* \"#utility.yul\":2247:2260   */\n      lt\n        /* \"#utility.yul\":2239:2352   */\n      iszero\n      tag_72\n      jumpi\n        /* \"#utility.yul\":2338:2339   */\n      dup1\n        /* \"#utility.yul\":2333:2336   */\n      dup3\n        /* \"#utility.yul\":2329:2340   */\n      add\n        /* \"#utility.yul\":2323:2341   */\n      mload\n        /* \"#utility.yul\":2319:2320   */\n      dup2\n        /* \"#utility.yul\":2314:2317   */\n      dup5\n        /* \"#utility.yul\":2310:2321   */\n      add\n        /* \"#utility.yul\":2303:2342   */\n      mstore\n        /* \"#utility.yul\":2275:2277   */\n      0x20\n        /* \"#utility.yul\":2272:2273   */\n      dup2\n        /* \"#utility.yul\":2268:2278   */\n      add\n        /* \"#utility.yul\":2263:2278   */\n      swap1\n      pop\n        /* \"#utility.yul\":2239:2352   */\n      jump(tag_70)\n    tag_72:\n        /* \"#utility.yul\":2370:2376   */\n      dup4\n        /* \"#utility.yul\":2367:2368   */\n      dup2\n        /* \"#utility.yul\":2364:2377   */\n      gt\n        /* \"#utility.yul\":2361:2462   */\n      iszero\n      tag_73\n      jumpi\n        /* \"#utility.yul\":2450:2451   */\n      0x00\n        /* \"#utility.yul\":2441:2447   */\n      dup5\n        /* \"#utility.yul\":2436:2439   */\n      dup5\n        /* \"#utility.yul\":2432:2448   */\n      add\n        /* \"#utility.yul\":2425:2452   */\n      mstore\n        /* \"#utility.yul\":2361:2462   */\n    tag_73:\n        /* \"#utility.yul\":2210:2468   */\n      pop\n        /* \"#utility.yul\":2161:2468   */\n      pop\n      pop\n      pop\n      jump\t// out\n        /* \"#utility.yul\":2474:2895   */\n    tag_36:\n        /* \"#utility.yul\":2563:2568   */\n      0x00\n        /* \"#utility.yul\":2588:2654   */\n      tag_75\n        /* \"#utility.yul\":2604:2653   */\n      tag_76\n        /* \"#utility.yul\":2646:2652   */\n      dup5\n        /* \"#utility.yul\":2604:2653   */\n      tag_34\n      jump\t// in\n    tag_76:\n        /* \"#utility.yul\":2588:2654   */\n      tag_33\n      jump\t// in\n    tag_75:\n        /* \"#utility.yul\":2579:2654   */\n      swap1\n      pop\n        /* \"#utility.yul\":2677:2683   */\n      dup3\n        /* \"#utility.yul\":2670:2675   */\n      dup2\n        /* \"#utility.yul\":2663:2684   */\n      mstore\n        /* \"#utility.yul\":2715:2719   */\n      0x20\n        /* \"#utility.yul\":2708:2713   */\n      dup2\n        /* \"#utility.yul\":2704:2720   */\n      add\n        /* \"#utility.yul\":2753:2756   */\n      dup5\n        /* \"#utility.yul\":2744:2750   */\n      dup5\n        /* \"#utility.yul\":2739:2742   */\n      dup5\n        /* \"#utility.yul\":2735:2751   */\n      add\n        /* \"#utility.yul\":2732:2757   */\n      gt\n        /* \"#utility.yul\":2729:2841   */\n      iszero\n      tag_77\n      jumpi\n        /* \"#utility.yul\":2760:2839   */\n      tag_78\n      tag_29\n      jump\t// in\n    tag_78:\n        /* \"#utility.yul\":2729:2841   */\n    tag_77:\n        /* \"#utility.yul\":2850:2889   */\n      tag_79\n        /* \"#utility.yul\":2882:2888   */\n      dup5\n        /* \"#utility.yul\":2877:2880   */\n      dup3\n        /* \"#utility.yul\":2872:2875   */\n      dup6\n        /* \"#utility.yul\":2850:2889   */\n      tag_35\n      jump\t// in\n    tag_79:\n        /* \"#utility.yul\":2569:2895   */\n      pop\n        /* \"#utility.yul\":2474:2895   */\n      swap4\n      swap3\n      pop\n      pop\n      pop\n      jump\t// out\n        /* \"#utility.yul\":2915:3270   */\n    tag_37:\n        /* \"#utility.yul\":2982:2987   */\n      0x00\n        /* \"#utility.yul\":3031:3034   */\n      dup3\n        /* \"#utility.yul\":3024:3028   */\n      0x1f\n        /* \"#utility.yul\":3016:3022   */\n      dup4\n        /* \"#utility.yul\":3012:3029   */\n      add\n        /* \"#utility.yul\":3008:3035   */\n      slt\n        /* \"#utility.yul\":2998:3120   */\n      tag_81\n      jumpi\n        /* \"#utility.yul\":3039:3118   */\n      tag_82\n      tag_28\n      jump\t// in\n    tag_82:\n        /* \"#utility.yul\":2998:3120   */\n    tag_81:\n        /* \"#utility.yul\":3149:3155   */\n      dup2\n        /* \"#utility.yul\":3143:3156   */\n      mload\n        /* \"#utility.yul\":3174:3264   */\n      tag_83\n        /* \"#utility.yul\":3260:3263   */\n      dup5\n        /* \"#utility.yul\":3252:3258   */\n      dup3\n        /* \"#utility.yul\":3245:3249   */\n      0x20\n        /* \"#utility.yul\":3237:3243   */\n      dup7\n        /* \"#utility.yul\":3233:3250   */\n      add\n        /* \"#utility.yul\":3174:3264   */\n      tag_36\n      jump\t// in\n    tag_83:\n        /* \"#utility.yul\":3165:3264   */\n      swap2\n      pop\n        /* \"#utility.yul\":2988:3270   */\n      pop\n        /* \"#utility.yul\":2915:3270   */\n      swap3\n      swap2\n      pop\n      pop\n      jump\t// out\n        /* \"#utility.yul\":3276:3353   */\n    tag_38:\n        /* \"#utility.yul\":3313:3320   */\n      0x00\n        /* \"#utility.yul\":3342:3347   */\n      dup2\n        /* \"#utility.yul\":3331:3347   */\n      swap1\n      pop\n        /* \"#utility.yul\":3276:3353   */\n      swap2\n      swap1\n      pop\n      jump\t// out\n        /* \"#utility.yul\":3359:3481   */\n    tag_39:\n        /* \"#utility.yul\":3432:3456   */\n      tag_86\n        /* \"#utility.yul\":3450:3455   */\n      dup2\n        /* \"#utility.yul\":3432:3456   */\n      tag_38\n      jump\t// in\n    tag_86:\n        /* \"#utility.yul\":3425:3430   */\n      dup2\n        /* \"#utility.yul\":3422:3457   */\n      eq\n        /* \"#utility.yul\":3412:3475   */\n      tag_87\n      jumpi\n        /* \"#utility.yul\":3471:3472   */\n      0x00\n        /* \"#utility.yul\":3468:3469   */\n      dup1\n        /* \"#utility.yul\":3461:3473   */\n      revert\n        /* \"#utility.yul\":3412:3475   */\n    tag_87:\n        /* \"#utility.yul\":3359:3481   */\n      pop\n      jump\t// out\n        /* \"#utility.yul\":3487:3630   */\n    tag_40:\n        /* \"#utility.yul\":3544:3549   */\n      0x00\n        /* \"#utility.yul\":3575:3581   */\n      dup2\n        /* \"#utility.yul\":3569:3582   */\n      mload\n        /* \"#utility.yul\":3560:3582   */\n      swap1\n      pop\n        /* \"#utility.yul\":3591:3624   */\n      tag_89\n        /* \"#utility.yul\":3618:3623   */\n      dup2\n        /* \"#utility.yul\":3591:3624   */\n      tag_39\n      jump\t// in\n    tag_89:\n        /* \"#utility.yul\":3487:3630   */\n      swap3\n      swap2\n      pop\n      pop\n      jump\t// out\n        /* \"#utility.yul\":3636:4975   */\n    tag_3:\n        /* \"#utility.yul\":3770:3776   */\n      0x00\n        /* \"#utility.yul\":3778:3784   */\n      dup1\n        /* \"#utility.yul\":3786:3792   */\n      0x00\n        /* \"#utility.yul\":3794:3800   */\n      dup1\n        /* \"#utility.yul\":3802:3808   */\n      0x00\n        /* \"#utility.yul\":3851:3854   */\n      0xa0\n        /* \"#utility.yul\":3839:3848   */\n      dup7\n        /* \"#utility.yul\":3830:3837   */\n      dup9\n        /* \"#utility.yul\":3826:3849   */\n      sub\n        /* \"#utility.yul\":3822:3855   */\n      slt\n        /* \"#utility.yul\":3819:3939   */\n      iszero\n      tag_91\n      jumpi\n        /* \"#utility.yul\":3858:3937   */\n      tag_92\n      tag_22\n      jump\t// in\n    tag_92:\n        /* \"#utility.yul\":3819:3939   */\n    tag_91:\n        /* \"#utility.yul\":3978:3979   */\n      0x00\n        /* \"#utility.yul\":4003:4075   */\n      tag_93\n        /* \"#utility.yul\":4067:4074   */\n      dup9\n        /* \"#utility.yul\":4058:4064   */\n      dup3\n        /* \"#utility.yul\":4047:4056   */\n      dup10\n        /* \"#utility.yul\":4043:4065   */\n      add\n        /* \"#utility.yul\":4003:4075   */\n      tag_27\n      jump\t// in\n    tag_93:\n        /* \"#utility.yul\":3993:4075   */\n      swap6\n      pop\n        /* \"#utility.yul\":3949:4085   */\n      pop\n        /* \"#utility.yul\":4145:4147   */\n      0x20\n        /* \"#utility.yul\":4134:4143   */\n      dup7\n        /* \"#utility.yul\":4130:4148   */\n      add\n        /* \"#utility.yul\":4124:4149   */\n      mload\n        /* \"#utility.yul\":4176:4194   */\n      0xffffffffffffffff\n        /* \"#utility.yul\":4168:4174   */\n      dup2\n        /* \"#utility.yul\":4165:4195   */\n      gt\n        /* \"#utility.yul\":4162:4279   */\n      iszero\n      tag_94\n      jumpi\n        /* \"#utility.yul\":4198:4277   */\n      tag_95\n      tag_23\n      jump\t// in\n    tag_95:\n        /* \"#utility.yul\":4162:4279   */\n    tag_94:\n        /* \"#utility.yul\":4303:4377   */\n      tag_96\n        /* \"#utility.yul\":4369:4376   */\n      dup9\n        /* \"#utility.yul\":4360:4366   */\n      dup3\n        /* \"#utility.yul\":4349:4358   */\n      dup10\n        /* \"#utility.yul\":4345:4367   */\n      add\n        /* \"#utility.yul\":4303:4377   */\n      tag_37\n      jump\t// in\n    tag_96:\n        /* \"#utility.yul\":4293:4377   */\n      swap5\n      pop\n        /* \"#utility.yul\":4095:4387   */\n      pop\n        /* \"#utility.yul\":4447:4449   */\n      0x40\n        /* \"#utility.yul\":4436:4445   */\n      dup7\n        /* \"#utility.yul\":4432:4450   */\n      add\n        /* \"#utility.yul\":4426:4451   */\n      mload\n        /* \"#utility.yul\":4478:4496   */\n      0xffffffffffffffff\n        /* \"#utility.yul\":4470:4476   */\n      dup2\n        /* \"#utility.yul\":4467:4497   */\n      gt\n        /* \"#utility.yul\":4464:4581   */\n      iszero\n      tag_97\n      jumpi\n        /* \"#utility.yul\":4500:4579   */\n      tag_98\n      tag_23\n      jump\t// in\n    tag_98:\n        /* \"#utility.yul\":4464:4581   */\n    tag_97:\n        /* \"#utility.yul\":4605:4679   */\n      tag_99\n        /* \"#utility.yul\":4671:4678   */\n      dup9\n        /* \"#utility.yul\":4662:4668   */\n      dup3\n        /* \"#utility.yul\":4651:4660   */\n      dup10\n        /* \"#utility.yul\":4647:4669   */\n      add\n        /* \"#utility.yul\":4605:4679   */\n      tag_37\n      jump\t// in\n    tag_99:\n        /* \"#utility.yul\":4595:4679   */\n      swap4\n      pop\n        /* \"#utility.yul\":4397:4689   */\n      pop\n        /* \"#utility.yul\":4728:4730   */\n      0x60\n        /* \"#utility.yul\":4754:4818   */\n      tag_100\n        /* \"#utility.yul\":4810:4817   */\n      dup9\n        /* \"#utility.yul\":4801:4807   */\n      dup3\n        /* \"#utility.yul\":4790:4799   */\n      dup10\n        /* \"#utility.yul\":4786:4808   */\n      add\n        /* \"#utility.yul\":4754:4818   */\n      tag_40\n      jump\t// in\n    tag_100:\n        /* \"#utility.yul\":4744:4818   */\n      swap3\n      pop\n        /* \"#utility.yul\":4699:4828   */\n      pop\n        /* \"#utility.yul\":4867:4870   */\n      0x80\n        /* \"#utility.yul\":4894:4958   */\n      tag_101\n        /* \"#utility.yul\":4950:4957   */\n      dup9\n        /* \"#utility.yul\":4941:4947   */\n      dup3\n        /* \"#utility.yul\":4930:4939   */\n      dup10\n        /* \"#utility.yul\":4926:4948   */\n      add\n        /* \"#utility.yul\":4894:4958   */\n      tag_40\n      jump\t// in\n    tag_101:\n        /* \"#utility.yul\":4884:4958   */\n      swap2\n      pop\n        /* \"#utility.yul\":4838:4968   */\n      pop\n        /* \"#utility.yul\":3636:4975   */\n      swap3\n      swap6\n      pop\n      swap3\n      swap6\n      swap1\n      swap4\n      pop\n      jump\t// out\n        /* \"#utility.yul\":4981:5161   */\n    tag_41:\n        /* \"#utility.yul\":5029:5106   */\n      0x4e487b7100000000000000000000000000000000000000000000000000000000\n        /* \"#utility.yul\":5026:5027   */\n      0x00\n        /* \"#utility.yul\":5019:5107   */\n      mstore\n        /* \"#utility.yul\":5126:5130   */\n      0x22\n        /* \"#utility.yul\":5123:5124   */\n      0x04\n        /* \"#utility.yul\":5116:5131   */\n      mstore\n        /* \"#utility.yul\":5150:5154   */\n      0x24\n        /* \"#utility.yul\":5147:5148   */\n      0x00\n        /* \"#utility.yul\":5140:5155   */\n      revert\n        /* \"#utility.yul\":5167:5487   */\n    tag_11:\n        /* \"#utility.yul\":5211:5217   */\n      0x00\n        /* \"#utility.yul\":5248:5249   */\n      0x02\n        /* \"#utility.yul\":5242:5246   */\n      dup3\n        /* \"#utility.yul\":5238:5250   */\n      div\n        /* \"#utility.yul\":5228:5250   */\n      swap1\n      pop\n        /* \"#utility.yul\":5295:5296   */\n      0x01\n        /* \"#utility.yul\":5289:5293   */\n      dup3\n        /* \"#utility.yul\":5285:5297   */\n      and\n        /* \"#utility.yul\":5316:5334   */\n      dup1\n        /* \"#utility.yul\":5306:5387   */\n      tag_104\n      jumpi\n        /* \"#utility.yul\":5372:5376   */\n      0x7f\n        /* \"#utility.yul\":5364:5370   */\n      dup3\n        /* \"#utility.yul\":5360:5377   */\n      and\n        /* \"#utility.yul\":5350:5377   */\n      swap2\n      pop\n        /* \"#utility.yul\":5306:5387   */\n    tag_104:\n        /* \"#utility.yul\":5434:5436   */\n      0x20\n        /* \"#utility.yul\":5426:5432   */\n      dup3\n        /* \"#utility.yul\":5423:5437   */\n      lt\n        /* \"#utility.yul\":5403:5421   */\n      dup2\n        /* \"#utility.yul\":5400:5438   */\n      sub\n        /* \"#utility.yul\":5397:5481   */\n      tag_105\n      jumpi\n        /* \"#utility.yul\":5453:5471   */\n      tag_106\n      tag_41\n      jump\t// in\n    tag_106:\n        /* \"#utility.yul\":5397:5481   */\n    tag_105:\n        /* \"#utility.yul\":5218:5487   */\n      pop\n        /* \"#utility.yul\":5167:5487   */\n      swap2\n      swap1\n      pop\n      jump\t// out\n        /* \"contracts/Project.sol\":225:3719  contract Project {... */\n    tag_9:\n      dataSize(sub_0)\n      dup1\n      dataOffset(sub_0)\n      0x00\n      codecopy\n      0x00\n      return\n    stop\n\n    sub_0: assembly {\n            /* \"contracts/Project.sol\":225:3719  contract Project {... */\n          mstore(0x40, 0x80)\n          jumpi(tag_1, lt(calldatasize, 0x04))\n          shr(0xe0, calldataload(0x00))\n          dup1\n          0x1beab5e8\n          eq\n          tag_2\n          jumpi\n          dup1\n          0xa541a2a2\n          eq\n          tag_3\n          jumpi\n          dup1\n          0xc2052403\n          eq\n          tag_4\n          jumpi\n          dup1\n          0xd7bb99ba\n          eq\n          tag_5\n          jumpi\n        tag_1:\n          0x00\n          dup1\n          revert\n            /* \"contracts/Project.sol\":3363:3638  function retreiveFunds() isCreator(msg.sender) inState(State.Fundraising) public {... */\n        tag_2:\n          callvalue\n          dup1\n          iszero\n          tag_6\n          jumpi\n          0x00\n          dup1\n          revert\n        tag_6:\n          pop\n          tag_7\n          tag_8\n          jump\t// in\n        tag_7:\n          stop\n            /* \"contracts/Project.sol\":360:397  address payable public projectCreator */\n        tag_3:\n          callvalue\n          dup1\n          iszero\n          tag_9\n          jumpi\n          0x00\n          dup1\n          revert\n        tag_9:\n          pop\n          tag_10\n          tag_11\n          jump\t// in\n        tag_10:\n          mload(0x40)\n          tag_12\n          swap2\n          swap1\n          tag_13\n          jump\t// in\n        tag_12:\n          mload(0x40)\n          dup1\n          swap2\n          sub\n          swap1\n          return\n            /* \"contracts/Project.sol\":3110:3271  function payOut() public inState(State.Successful){... */\n        tag_4:\n          callvalue\n          dup1\n          iszero\n          tag_14\n          jumpi\n          0x00\n          dup1\n          revert\n        tag_14:\n          pop\n          tag_15\n          tag_16\n          jump\t// in\n        tag_15:\n          stop\n            /* \"contracts/Project.sol\":2347:2702  function contribute() public payable inState(State.Fundraising) isFundingDelayNotExpired {... */\n        tag_5:\n          tag_17\n          tag_18\n          jump\t// in\n        tag_17:\n          stop\n            /* \"contracts/Project.sol\":3363:3638  function retreiveFunds() isCreator(msg.sender) inState(State.Fundraising) public {... */\n        tag_8:\n            /* \"contracts/Project.sol\":3398:3408  msg.sender */\n          caller\n            /* \"contracts/Project.sol\":1301:1309  _address */\n          dup1\n            /* \"contracts/Project.sol\":1283:1309  projectCreator == _address */\n          0xffffffffffffffffffffffffffffffffffffffff\n          and\n            /* \"contracts/Project.sol\":1283:1297  projectCreator */\n          0x00\n          dup1\n          sload\n          swap1\n          0x0100\n          exp\n          swap1\n          div\n          0xffffffffffffffffffffffffffffffffffffffff\n          and\n            /* \"contracts/Project.sol\":1283:1309  projectCreator == _address */\n          0xffffffffffffffffffffffffffffffffffffffff\n          and\n          eq\n            /* \"contracts/Project.sol\":1275:1310  require(projectCreator == _address) */\n          tag_20\n          jumpi\n          0x00\n          dup1\n          revert\n        tag_20:\n            /* \"contracts/Project.sol\":3418:3435  State.Fundraising */\n          0x00\n            /* \"contracts/Project.sol\":1160:1166  _state */\n          dup1\n            /* \"contracts/Project.sol\":1151:1166  state == _state */\n          0x02\n          dup2\n          gt\n          iszero\n          tag_22\n          jumpi\n          tag_23\n          tag_24\n          jump\t// in\n        tag_23:\n        tag_22:\n            /* \"contracts/Project.sol\":1151:1156  state */\n          0x05\n          0x00\n          swap1\n          sload\n          swap1\n          0x0100\n          exp\n          swap1\n          div\n          0xff\n          and\n            /* \"contracts/Project.sol\":1151:1166  state == _state */\n          0x02\n          dup2\n          gt\n          iszero\n          tag_25\n          jumpi\n          tag_26\n          tag_24\n          jump\t// in\n        tag_26:\n        tag_25:\n          eq\n            /* \"contracts/Project.sol\":1143:1167  require(state == _state) */\n          tag_27\n          jumpi\n          0x00\n          dup1\n          revert\n        tag_27:\n            /* \"contracts/Project.sol\":3480:3488  deadLine */\n          sload(0x06)\n            /* \"contracts/Project.sol\":3462:3477  block.timestamp */\n          timestamp\n            /* \"contracts/Project.sol\":3462:3488  block.timestamp > deadLine */\n          gt\n            /* \"contracts/Project.sol\":3454:3489  require(block.timestamp > deadLine) */\n          tag_29\n          jumpi\n          0x00\n          dup1\n          revert\n        tag_29:\n            /* \"contracts/Project.sol\":3499:3522  setState(State.Expired) */\n          tag_30\n            /* \"contracts/Project.sol\":3508:3521  State.Expired */\n          0x01\n            /* \"contracts/Project.sol\":3499:3507  setState */\n          tag_31\n            /* \"contracts/Project.sol\":3499:3522  setState(State.Expired) */\n          jump\t// in\n        tag_30:\n            /* \"contracts/Project.sol\":3532:3546  projectCreator */\n          0x00\n          dup1\n          sload\n          swap1\n          0x0100\n          exp\n          swap1\n          div\n          0xffffffffffffffffffffffffffffffffffffffff\n          and\n            /* \"contracts/Project.sol\":3532:3555  projectCreator.transfer */\n          0xffffffffffffffffffffffffffffffffffffffff\n          and\n            /* \"contracts/Project.sol\":3532:3571  projectCreator.transfer(currentBalance) */\n          0x08fc\n            /* \"contracts/Project.sol\":3556:3570  currentBalance */\n          sload(0x04)\n            /* \"contracts/Project.sol\":3532:3571  projectCreator.transfer(currentBalance) */\n          swap1\n          dup2\n          iszero\n          mul\n          swap1\n          mload(0x40)\n          0x00\n          mload(0x40)\n          dup1\n          dup4\n          sub\n          dup2\n          dup6\n          dup9\n          dup9\n          call\n          swap4\n          pop\n          pop\n          pop\n          pop\n          iszero\n          dup1\n          iszero\n          tag_33\n          jumpi\n          returndatasize\n          0x00\n          dup1\n          returndatacopy\n          revert(0x00, returndatasize)\n        tag_33:\n          pop\n            /* \"contracts/Project.sol\":3586:3631  FundRetreived(\"Fund retreived\", projectTitle) */\n          0x6567369884327ec669abad9dc032c3fc1b6c1b77aed67e31f8311864551e74\n            /* \"contracts/Project.sol\":3618:3630  projectTitle */\n          0x01\n            /* \"contracts/Project.sol\":3586:3631  FundRetreived(\"Fund retreived\", projectTitle) */\n          mload(0x40)\n          tag_34\n          swap2\n          swap1\n          tag_35\n          jump\t// in\n        tag_34:\n          mload(0x40)\n          dup1\n          swap2\n          sub\n          swap1\n          log1\n            /* \"contracts/Project.sol\":1320:1321  _ */\n          pop\n            /* \"contracts/Project.sol\":3363:3638  function retreiveFunds() isCreator(msg.sender) inState(State.Fundraising) public {... */\n          pop\n          jump\t// out\n            /* \"contracts/Project.sol\":360:397  address payable public projectCreator */\n        tag_11:\n          0x00\n          dup1\n          sload\n          swap1\n          0x0100\n          exp\n          swap1\n          div\n          0xffffffffffffffffffffffffffffffffffffffff\n          and\n          dup2\n          jump\t// out\n            /* \"contracts/Project.sol\":3110:3271  function payOut() public inState(State.Successful){... */\n        tag_16:\n            /* \"contracts/Project.sol\":3143:3159  State.Successful */\n          0x02\n            /* \"contracts/Project.sol\":1160:1166  _state */\n          dup1\n            /* \"contracts/Project.sol\":1151:1166  state == _state */\n          0x02\n          dup2\n          gt\n          iszero\n          tag_37\n          jumpi\n          tag_38\n          tag_24\n          jump\t// in\n        tag_38:\n        tag_37:\n            /* \"contracts/Project.sol\":1151:1156  state */\n          0x05\n          0x00\n          swap1\n          sload\n          swap1\n          0x0100\n          exp\n          swap1\n          div\n          0xff\n          and\n            /* \"contracts/Project.sol\":1151:1166  state == _state */\n          0x02\n          dup2\n          gt\n          iszero\n          tag_39\n          jumpi\n          tag_40\n          tag_24\n          jump\t// in\n        tag_40:\n        tag_39:\n          eq\n            /* \"contracts/Project.sol\":1143:1167  require(state == _state) */\n          tag_41\n          jumpi\n          0x00\n          dup1\n          revert\n        tag_41:\n            /* \"contracts/Project.sol\":3170:3184  projectCreator */\n          0x00\n          dup1\n          sload\n          swap1\n          0x0100\n          exp\n          swap1\n          div\n          0xffffffffffffffffffffffffffffffffffffffff\n          and\n            /* \"contracts/Project.sol\":3170:3193  projectCreator.transfer */\n          0xffffffffffffffffffffffffffffffffffffffff\n          and\n            /* \"contracts/Project.sol\":3170:3209  projectCreator.transfer(currentBalance) */\n          0x08fc\n            /* \"contracts/Project.sol\":3194:3208  currentBalance */\n          sload(0x04)\n            /* \"contracts/Project.sol\":3170:3209  projectCreator.transfer(currentBalance) */\n          swap1\n          dup2\n          iszero\n          mul\n          swap1\n          mload(0x40)\n          0x00\n          mload(0x40)\n          dup1\n          dup4\n          sub\n          dup2\n          dup6\n          dup9\n          dup9\n          call\n          swap4\n          pop\n          pop\n          pop\n          pop\n          iszero\n          dup1\n          iszero\n          tag_44\n          jumpi\n          returndatasize\n          0x00\n          dup1\n          returndatacopy\n          revert(0x00, returndatasize)\n        tag_44:\n          pop\n            /* \"contracts/Project.sol\":3224:3264  ProjectFunded(projectTitle, \"is Funded\") */\n          0xda700ea0a4f90d17381707c06ca4125e32c8a65b28e82ff0d1850af50a6d4ccd\n            /* \"contracts/Project.sol\":3238:3250  projectTitle */\n          0x01\n            /* \"contracts/Project.sol\":3224:3264  ProjectFunded(projectTitle, \"is Funded\") */\n          mload(0x40)\n          tag_45\n          swap2\n          swap1\n          tag_46\n          jump\t// in\n        tag_45:\n          mload(0x40)\n          dup1\n          swap2\n          sub\n          swap1\n          log1\n            /* \"contracts/Project.sol\":3110:3271  function payOut() public inState(State.Successful){... */\n          pop\n          jump\t// out\n            /* \"contracts/Project.sol\":2347:2702  function contribute() public payable inState(State.Fundraising) isFundingDelayNotExpired {... */\n        tag_18:\n            /* \"contracts/Project.sol\":2392:2409  State.Fundraising */\n          0x00\n            /* \"contracts/Project.sol\":1160:1166  _state */\n          dup1\n            /* \"contracts/Project.sol\":1151:1166  state == _state */\n          0x02\n          dup2\n          gt\n          iszero\n          tag_48\n          jumpi\n          tag_49\n          tag_24\n          jump\t// in\n        tag_49:\n        tag_48:\n            /* \"contracts/Project.sol\":1151:1156  state */\n          0x05\n          0x00\n          swap1\n          sload\n          swap1\n          0x0100\n          exp\n          swap1\n          div\n          0xff\n          and\n            /* \"contracts/Project.sol\":1151:1166  state == _state */\n          0x02\n          dup2\n          gt\n          iszero\n          tag_50\n          jumpi\n          tag_51\n          tag_24\n          jump\t// in\n        tag_51:\n        tag_50:\n          eq\n            /* \"contracts/Project.sol\":1143:1167  require(state == _state) */\n          tag_52\n          jumpi\n          0x00\n          dup1\n          revert\n        tag_52:\n            /* \"contracts/Project.sol\":1463:1471  deadLine */\n          sload(0x06)\n            /* \"contracts/Project.sol\":1444:1459  block.timestamp */\n          timestamp\n            /* \"contracts/Project.sol\":1444:1471  block.timestamp <= deadLine */\n          gt\n          iszero\n            /* \"contracts/Project.sol\":1436:1472  require(block.timestamp <= deadLine) */\n          tag_54\n          jumpi\n          0x00\n          dup1\n          revert\n        tag_54:\n            /* \"contracts/Project.sol\":2468:2482  projectCreator */\n          0x00\n          dup1\n          sload\n          swap1\n          0x0100\n          exp\n          swap1\n          div\n          0xffffffffffffffffffffffffffffffffffffffff\n          and\n            /* \"contracts/Project.sol\":2454:2482  msg.sender != projectCreator */\n          0xffffffffffffffffffffffffffffffffffffffff\n          and\n            /* \"contracts/Project.sol\":2454:2464  msg.sender */\n          caller\n            /* \"contracts/Project.sol\":2454:2482  msg.sender != projectCreator */\n          0xffffffffffffffffffffffffffffffffffffffff\n          and\n          sub\n            /* \"contracts/Project.sol\":2446:2483  require(msg.sender != projectCreator) */\n          tag_56\n          jumpi\n          0x00\n          dup1\n          revert\n        tag_56:\n            /* \"contracts/Project.sol\":2521:2561  contributions[msg.sender].add(msg.value) */\n          tag_57\n            /* \"contracts/Project.sol\":2551:2560  msg.value */\n          callvalue\n            /* \"contracts/Project.sol\":2521:2534  contributions */\n          0x07\n            /* \"contracts/Project.sol\":2521:2546  contributions[msg.sender] */\n          0x00\n            /* \"contracts/Project.sol\":2535:2545  msg.sender */\n          caller\n            /* \"contracts/Project.sol\":2521:2546  contributions[msg.sender] */\n          0xffffffffffffffffffffffffffffffffffffffff\n          and\n          0xffffffffffffffffffffffffffffffffffffffff\n          and\n          dup2\n          mstore\n          0x20\n          add\n          swap1\n          dup2\n          mstore\n          0x20\n          add\n          0x00\n          keccak256\n          sload\n            /* \"contracts/Project.sol\":2521:2550  contributions[msg.sender].add */\n          tag_58\n          swap1\n            /* \"contracts/Project.sol\":2521:2561  contributions[msg.sender].add(msg.value) */\n          swap2\n          swap1\n          0xffffffff\n          and\n          jump\t// in\n        tag_57:\n            /* \"contracts/Project.sol\":2493:2506  contributions */\n          0x07\n            /* \"contracts/Project.sol\":2493:2518  contributions[msg.sender] */\n          0x00\n            /* \"contracts/Project.sol\":2507:2517  msg.sender */\n          caller\n            /* \"contracts/Project.sol\":2493:2518  contributions[msg.sender] */\n          0xffffffffffffffffffffffffffffffffffffffff\n          and\n          0xffffffffffffffffffffffffffffffffffffffff\n          and\n          dup2\n          mstore\n          0x20\n          add\n          swap1\n          dup2\n          mstore\n          0x20\n          add\n          0x00\n          keccak256\n            /* \"contracts/Project.sol\":2493:2561  contributions[msg.sender] = contributions[msg.sender].add(msg.value) */\n          dup2\n          swap1\n          sstore\n          pop\n            /* \"contracts/Project.sol\":2606:2615  msg.value */\n          callvalue\n            /* \"contracts/Project.sol\":2589:2603  currentBalance */\n          sload(0x04)\n            /* \"contracts/Project.sol\":2589:2615  currentBalance + msg.value */\n          tag_59\n          swap2\n          swap1\n          tag_60\n          jump\t// in\n        tag_59:\n            /* \"contracts/Project.sol\":2572:2586  currentBalance */\n          0x04\n            /* \"contracts/Project.sol\":2572:2615  currentBalance = currentBalance + msg.value */\n          dup2\n          swap1\n          sstore\n          pop\n            /* \"contracts/Project.sol\":2630:2667  FundReceivedBy(msg.sender, msg.value) */\n          0x75ae3e7c973a88747144369f710c5999060a6321be0506174d3f5c64bdfc674e\n            /* \"contracts/Project.sol\":2645:2655  msg.sender */\n          caller\n            /* \"contracts/Project.sol\":2657:2666  msg.value */\n          callvalue\n            /* \"contracts/Project.sol\":2630:2667  FundReceivedBy(msg.sender, msg.value) */\n          mload(0x40)\n          tag_61\n          swap3\n          swap2\n          swap1\n          tag_62\n          jump\t// in\n        tag_61:\n          mload(0x40)\n          dup1\n          swap2\n          sub\n          swap1\n          log1\n            /* \"contracts/Project.sol\":2677:2695  checkGoalReached() */\n          tag_63\n            /* \"contracts/Project.sol\":2677:2693  checkGoalReached */\n          tag_64\n            /* \"contracts/Project.sol\":2677:2695  checkGoalReached() */\n          jump\t// in\n        tag_63:\n            /* \"contracts/Project.sol\":2347:2702  function contribute() public payable inState(State.Fundraising) isFundingDelayNotExpired {... */\n          pop\n          jump\t// out\n            /* \"contracts/Project.sol\":3644:3716  function setState(State _state) internal {... */\n        tag_31:\n            /* \"contracts/Project.sol\":3703:3709  _state */\n          dup1\n            /* \"contracts/Project.sol\":3695:3700  state */\n          0x05\n          0x00\n            /* \"contracts/Project.sol\":3695:3709  state = _state */\n          0x0100\n          exp\n          dup2\n          sload\n          dup2\n          0xff\n          mul\n          not\n          and\n          swap1\n          dup4\n          0x02\n          dup2\n          gt\n          iszero\n          tag_66\n          jumpi\n          tag_67\n          tag_24\n          jump\t// in\n        tag_67:\n        tag_66:\n          mul\n          or\n          swap1\n          sstore\n          pop\n            /* \"contracts/Project.sol\":3644:3716  function setState(State _state) internal {... */\n          pop\n          jump\t// out\n            /* \"https://github.com/OpenZeppelin/openzeppelin-contracts/blob/master/contracts/utils/math/SafeMath.sol\":2755:2851  function add(uint256 a, uint256 b) internal pure returns (uint256) {... */\n        tag_58:\n            /* \"https://github.com/OpenZeppelin/openzeppelin-contracts/blob/master/contracts/utils/math/SafeMath.sol\":2813:2820  uint256 */\n          0x00\n            /* \"https://github.com/OpenZeppelin/openzeppelin-contracts/blob/master/contracts/utils/math/SafeMath.sol\":2843:2844  b */\n          dup2\n            /* \"https://github.com/OpenZeppelin/openzeppelin-contracts/blob/master/contracts/utils/math/SafeMath.sol\":2839:2840  a */\n          dup4\n            /* \"https://github.com/OpenZeppelin/openzeppelin-contracts/blob/master/contracts/utils/math/SafeMath.sol\":2839:2844  a + b */\n          tag_69\n          swap2\n          swap1\n          tag_60\n          jump\t// in\n        tag_69:\n            /* \"https://github.com/OpenZeppelin/openzeppelin-contracts/blob/master/contracts/utils/math/SafeMath.sol\":2832:2844  return a + b */\n          swap1\n          pop\n            /* \"https://github.com/OpenZeppelin/openzeppelin-contracts/blob/master/contracts/utils/math/SafeMath.sol\":2755:2851  function add(uint256 a, uint256 b) internal pure returns (uint256) {... */\n          swap3\n          swap2\n          pop\n          pop\n          jump\t// out\n            /* \"contracts/Project.sol\":2879:3104  function checkGoalReached() internal {... */\n        tag_64:\n            /* \"contracts/Project.sol\":2943:2957  currentBalance */\n          sload(0x04)\n            /* \"contracts/Project.sol\":2929:2939  amountGoal */\n          sload(0x03)\n            /* \"contracts/Project.sol\":2929:2957  amountGoal >= currentBalance */\n          lt\n            /* \"contracts/Project.sol\":2926:3098  if(amountGoal >= currentBalance){... */\n          tag_71\n          jumpi\n            /* \"contracts/Project.sol\":2977:3025  GoalReached(\"The Goal is reached\", projectTitle) */\n          0x15ac727d1ca51352f519e3f5899500ead795e56a4a39ceafeea835331346017a\n            /* \"contracts/Project.sol\":3012:3024  projectTitle */\n          0x01\n            /* \"contracts/Project.sol\":2977:3025  GoalReached(\"The Goal is reached\", projectTitle) */\n          mload(0x40)\n          tag_72\n          swap2\n          swap1\n          tag_73\n          jump\t// in\n        tag_72:\n          mload(0x40)\n          dup1\n          swap2\n          sub\n          swap1\n          log1\n            /* \"contracts/Project.sol\":3039:3065  setState(State.Successful) */\n          tag_74\n            /* \"contracts/Project.sol\":3048:3064  State.Successful */\n          0x02\n            /* \"contracts/Project.sol\":3039:3047  setState */\n          tag_31\n            /* \"contracts/Project.sol\":3039:3065  setState(State.Successful) */\n          jump\t// in\n        tag_74:\n            /* \"contracts/Project.sol\":3079:3087  payOut() */\n          tag_75\n            /* \"contracts/Project.sol\":3079:3085  payOut */\n          tag_16\n            /* \"contracts/Project.sol\":3079:3087  payOut() */\n          jump\t// in\n        tag_75:\n            /* \"contracts/Project.sol\":2926:3098  if(amountGoal >= currentBalance){... */\n        tag_71:\n            /* \"contracts/Project.sol\":2879:3104  function checkGoalReached() internal {... */\n          jump\t// out\n            /* \"#utility.yul\":7:133   */\n        tag_76:\n            /* \"#utility.yul\":44:51   */\n          0x00\n            /* \"#utility.yul\":84:126   */\n          0xffffffffffffffffffffffffffffffffffffffff\n            /* \"#utility.yul\":77:82   */\n          dup3\n            /* \"#utility.yul\":73:127   */\n          and\n            /* \"#utility.yul\":62:127   */\n          swap1\n          pop\n            /* \"#utility.yul\":7:133   */\n          swap2\n          swap1\n          pop\n          jump\t// out\n            /* \"#utility.yul\":139:243   */\n        tag_77:\n            /* \"#utility.yul\":184:191   */\n          0x00\n            /* \"#utility.yul\":213:237   */\n          tag_98\n            /* \"#utility.yul\":231:236   */\n          dup3\n            /* \"#utility.yul\":213:237   */\n          tag_76\n          jump\t// in\n        tag_98:\n            /* \"#utility.yul\":202:237   */\n          swap1\n          pop\n            /* \"#utility.yul\":139:243   */\n          swap2\n          swap1\n          pop\n          jump\t// out\n            /* \"#utility.yul\":249:391   */\n        tag_78:\n            /* \"#utility.yul\":352:384   */\n          tag_100\n            /* \"#utility.yul\":378:383   */\n          dup2\n            /* \"#utility.yul\":352:384   */\n          tag_77\n          jump\t// in\n        tag_100:\n            /* \"#utility.yul\":347:350   */\n          dup3\n            /* \"#utility.yul\":340:385   */\n          mstore\n            /* \"#utility.yul\":249:391   */\n          pop\n          pop\n          jump\t// out\n            /* \"#utility.yul\":397:651   */\n        tag_13:\n            /* \"#utility.yul\":506:510   */\n          0x00\n            /* \"#utility.yul\":544:546   */\n          0x20\n            /* \"#utility.yul\":533:542   */\n          dup3\n            /* \"#utility.yul\":529:547   */\n          add\n            /* \"#utility.yul\":521:547   */\n          swap1\n          pop\n            /* \"#utility.yul\":557:644   */\n          tag_102\n            /* \"#utility.yul\":641:642   */\n          0x00\n            /* \"#utility.yul\":630:639   */\n          dup4\n            /* \"#utility.yul\":626:643   */\n          add\n            /* \"#utility.yul\":617:623   */\n          dup5\n            /* \"#utility.yul\":557:644   */\n          tag_78\n          jump\t// in\n        tag_102:\n            /* \"#utility.yul\":397:651   */\n          swap3\n          swap2\n          pop\n          pop\n          jump\t// out\n            /* \"#utility.yul\":657:837   */\n        tag_24:\n            /* \"#utility.yul\":705:782   */\n          0x4e487b7100000000000000000000000000000000000000000000000000000000\n            /* \"#utility.yul\":702:703   */\n          0x00\n            /* \"#utility.yul\":695:783   */\n          mstore\n            /* \"#utility.yul\":802:806   */\n          0x21\n            /* \"#utility.yul\":799:800   */\n          0x04\n            /* \"#utility.yul\":792:807   */\n          mstore\n            /* \"#utility.yul\":826:830   */\n          0x24\n            /* \"#utility.yul\":823:824   */\n          0x00\n            /* \"#utility.yul\":816:831   */\n          revert\n            /* \"#utility.yul\":843:1012   */\n        tag_79:\n            /* \"#utility.yul\":927:938   */\n          0x00\n            /* \"#utility.yul\":961:967   */\n          dup3\n            /* \"#utility.yul\":956:959   */\n          dup3\n            /* \"#utility.yul\":949:968   */\n          mstore\n            /* \"#utility.yul\":1001:1005   */\n          0x20\n            /* \"#utility.yul\":996:999   */\n          dup3\n            /* \"#utility.yul\":992:1006   */\n          add\n            /* \"#utility.yul\":977:1006   */\n          swap1\n          pop\n            /* \"#utility.yul\":843:1012   */\n          swap3\n          swap2\n          pop\n          pop\n          jump\t// out\n            /* \"#utility.yul\":1018:1182   */\n        tag_80:\n            /* \"#utility.yul\":1158:1174   */\n          0x46756e6420726574726569766564000000000000000000000000000000000000\n            /* \"#utility.yul\":1154:1155   */\n          0x00\n            /* \"#utility.yul\":1146:1152   */\n          dup3\n            /* \"#utility.yul\":1142:1156   */\n          add\n            /* \"#utility.yul\":1135:1175   */\n          mstore\n            /* \"#utility.yul\":1018:1182   */\n          pop\n          jump\t// out\n            /* \"#utility.yul\":1188:1554   */\n        tag_81:\n            /* \"#utility.yul\":1330:1333   */\n          0x00\n            /* \"#utility.yul\":1351:1418   */\n          tag_107\n            /* \"#utility.yul\":1415:1417   */\n          0x0e\n            /* \"#utility.yul\":1410:1413   */\n          dup4\n            /* \"#utility.yul\":1351:1418   */\n          tag_79\n          jump\t// in\n        tag_107:\n            /* \"#utility.yul\":1344:1418   */\n          swap2\n          pop\n            /* \"#utility.yul\":1427:1520   */\n          tag_108\n            /* \"#utility.yul\":1516:1519   */\n          dup3\n            /* \"#utility.yul\":1427:1520   */\n          tag_80\n          jump\t// in\n        tag_108:\n            /* \"#utility.yul\":1545:1547   */\n          0x20\n            /* \"#utility.yul\":1540:1543   */\n          dup3\n            /* \"#utility.yul\":1536:1548   */\n          add\n            /* \"#utility.yul\":1529:1548   */\n          swap1\n          pop\n            /* \"#utility.yul\":1188:1554   */\n          swap2\n          swap1\n          pop\n          jump\t// out\n            /* \"#utility.yul\":1560:1740   */\n        tag_82:\n            /* \"#utility.yul\":1608:1685   */\n          0x4e487b7100000000000000000000000000000000000000000000000000000000\n            /* \"#utility.yul\":1605:1606   */\n          0x00\n            /* \"#utility.yul\":1598:1686   */\n          mstore\n            /* \"#utility.yul\":1705:1709   */\n          0x22\n            /* \"#utility.yul\":1702:1703   */\n          0x04\n            /* \"#utility.yul\":1695:1710   */\n          mstore\n            /* \"#utility.yul\":1729:1733   */\n          0x24\n            /* \"#utility.yul\":1726:1727   */\n          0x00\n            /* \"#utility.yul\":1719:1734   */\n          revert\n            /* \"#utility.yul\":1746:2066   */\n        tag_83:\n            /* \"#utility.yul\":1790:1796   */\n          0x00\n            /* \"#utility.yul\":1827:1828   */\n          0x02\n            /* \"#utility.yul\":1821:1825   */\n          dup3\n            /* \"#utility.yul\":1817:1829   */\n          div\n            /* \"#utility.yul\":1807:1829   */\n          swap1\n          pop\n            /* \"#utility.yul\":1874:1875   */\n          0x01\n            /* \"#utility.yul\":1868:1872   */\n          dup3\n            /* \"#utility.yul\":1864:1876   */\n          and\n            /* \"#utility.yul\":1895:1913   */\n          dup1\n            /* \"#utility.yul\":1885:1966   */\n          tag_111\n          jumpi\n            /* \"#utility.yul\":1951:1955   */\n          0x7f\n            /* \"#utility.yul\":1943:1949   */\n          dup3\n            /* \"#utility.yul\":1939:1956   */\n          and\n            /* \"#utility.yul\":1929:1956   */\n          swap2\n          pop\n            /* \"#utility.yul\":1885:1966   */\n        tag_111:\n            /* \"#utility.yul\":2013:2015   */\n          0x20\n            /* \"#utility.yul\":2005:2011   */\n          dup3\n            /* \"#utility.yul\":2002:2016   */\n          lt\n            /* \"#utility.yul\":1982:2000   */\n          dup2\n            /* \"#utility.yul\":1979:2017   */\n          sub\n            /* \"#utility.yul\":1976:2060   */\n          tag_112\n          jumpi\n            /* \"#utility.yul\":2032:2050   */\n          tag_113\n          tag_82\n          jump\t// in\n        tag_113:\n            /* \"#utility.yul\":1976:2060   */\n        tag_112:\n            /* \"#utility.yul\":1797:2066   */\n          pop\n            /* \"#utility.yul\":1746:2066   */\n          swap2\n          swap1\n          pop\n          jump\t// out\n            /* \"#utility.yul\":2072:2213   */\n        tag_84:\n            /* \"#utility.yul\":2121:2125   */\n          0x00\n            /* \"#utility.yul\":2144:2147   */\n          dup2\n            /* \"#utility.yul\":2136:2147   */\n          swap1\n          pop\n            /* \"#utility.yul\":2167:2170   */\n          dup2\n            /* \"#utility.yul\":2164:2165   */\n          0x00\n            /* \"#utility.yul\":2157:2171   */\n          mstore\n            /* \"#utility.yul\":2201:2205   */\n          0x20\n            /* \"#utility.yul\":2198:2199   */\n          0x00\n            /* \"#utility.yul\":2188:2206   */\n          keccak256\n            /* \"#utility.yul\":2180:2206   */\n          swap1\n          pop\n            /* \"#utility.yul\":2072:2213   */\n          swap2\n          swap1\n          pop\n          jump\t// out\n            /* \"#utility.yul\":2243:3045   */\n        tag_85:\n            /* \"#utility.yul\":2328:2331   */\n          0x00\n            /* \"#utility.yul\":2365:2370   */\n          dup2\n            /* \"#utility.yul\":2359:2371   */\n          sload\n            /* \"#utility.yul\":2394:2430   */\n          tag_116\n            /* \"#utility.yul\":2420:2429   */\n          dup2\n            /* \"#utility.yul\":2394:2430   */\n          tag_83\n          jump\t// in\n        tag_116:\n            /* \"#utility.yul\":2446:2517   */\n          tag_117\n            /* \"#utility.yul\":2510:2516   */\n          dup2\n            /* \"#utility.yul\":2505:2508   */\n          dup7\n            /* \"#utility.yul\":2446:2517   */\n          tag_79\n          jump\t// in\n        tag_117:\n            /* \"#utility.yul\":2439:2517   */\n          swap5\n          pop\n            /* \"#utility.yul\":2548:2549   */\n          0x01\n            /* \"#utility.yul\":2537:2546   */\n          dup3\n            /* \"#utility.yul\":2533:2550   */\n          and\n            /* \"#utility.yul\":2564:2565   */\n          0x00\n            /* \"#utility.yul\":2559:2694   */\n          dup2\n          eq\n          tag_119\n          jumpi\n            /* \"#utility.yul\":2708:2709   */\n          0x01\n            /* \"#utility.yul\":2703:3039   */\n          dup2\n          eq\n          tag_120\n          jumpi\n            /* \"#utility.yul\":2526:3039   */\n          jump(tag_118)\n            /* \"#utility.yul\":2559:2694   */\n        tag_119:\n            /* \"#utility.yul\":2643:2647   */\n          0xff\n            /* \"#utility.yul\":2639:2648   */\n          not\n            /* \"#utility.yul\":2628:2637   */\n          dup4\n            /* \"#utility.yul\":2624:2649   */\n          and\n            /* \"#utility.yul\":2619:2622   */\n          dup7\n            /* \"#utility.yul\":2612:2650   */\n          mstore\n            /* \"#utility.yul\":2679:2683   */\n          0x20\n            /* \"#utility.yul\":2674:2677   */\n          dup7\n            /* \"#utility.yul\":2670:2684   */\n          add\n            /* \"#utility.yul\":2663:2684   */\n          swap4\n          pop\n            /* \"#utility.yul\":2559:2694   */\n          jump(tag_118)\n            /* \"#utility.yul\":2703:3039   */\n        tag_120:\n            /* \"#utility.yul\":2770:2808   */\n          tag_121\n            /* \"#utility.yul\":2802:2807   */\n          dup6\n            /* \"#utility.yul\":2770:2808   */\n          tag_84\n          jump\t// in\n        tag_121:\n            /* \"#utility.yul\":2830:2831   */\n          0x00\n            /* \"#utility.yul\":2844:2998   */\n        tag_122:\n            /* \"#utility.yul\":2858:2864   */\n          dup4\n            /* \"#utility.yul\":2855:2856   */\n          dup2\n            /* \"#utility.yul\":2852:2865   */\n          lt\n            /* \"#utility.yul\":2844:2998   */\n          iszero\n          tag_124\n          jumpi\n            /* \"#utility.yul\":2932:2939   */\n          dup2\n            /* \"#utility.yul\":2926:2940   */\n          sload\n            /* \"#utility.yul\":2922:2923   */\n          dup2\n            /* \"#utility.yul\":2917:2920   */\n          dup10\n            /* \"#utility.yul\":2913:2924   */\n          add\n            /* \"#utility.yul\":2906:2941   */\n          mstore\n            /* \"#utility.yul\":2982:2983   */\n          0x01\n            /* \"#utility.yul\":2973:2980   */\n          dup3\n            /* \"#utility.yul\":2969:2984   */\n          add\n            /* \"#utility.yul\":2958:2984   */\n          swap2\n          pop\n            /* \"#utility.yul\":2880:2884   */\n          0x20\n            /* \"#utility.yul\":2877:2878   */\n          dup2\n            /* \"#utility.yul\":2873:2885   */\n          add\n            /* \"#utility.yul\":2868:2885   */\n          swap1\n          pop\n            /* \"#utility.yul\":2844:2998   */\n          jump(tag_122)\n        tag_124:\n            /* \"#utility.yul\":3027:3028   */\n          dup1\n            /* \"#utility.yul\":3022:3025   */\n          dup9\n            /* \"#utility.yul\":3018:3029   */\n          add\n            /* \"#utility.yul\":3011:3029   */\n          swap6\n          pop\n            /* \"#utility.yul\":2710:3039   */\n          pop\n          pop\n            /* \"#utility.yul\":2526:3039   */\n        tag_118:\n          pop\n            /* \"#utility.yul\":2332:3045   */\n          pop\n          pop\n            /* \"#utility.yul\":2243:3045   */\n          swap3\n          swap2\n          pop\n          pop\n          jump\t// out\n            /* \"#utility.yul\":3051:3665   */\n        tag_35:\n            /* \"#utility.yul\":3262:3266   */\n          0x00\n            /* \"#utility.yul\":3300:3302   */\n          0x40\n            /* \"#utility.yul\":3289:3298   */\n          dup3\n            /* \"#utility.yul\":3285:3303   */\n          add\n            /* \"#utility.yul\":3277:3303   */\n          swap1\n          pop\n            /* \"#utility.yul\":3349:3358   */\n          dup2\n            /* \"#utility.yul\":3343:3347   */\n          dup2\n            /* \"#utility.yul\":3339:3359   */\n          sub\n            /* \"#utility.yul\":3335:3336   */\n          0x00\n            /* \"#utility.yul\":3324:3333   */\n          dup4\n            /* \"#utility.yul\":3320:3337   */\n          add\n            /* \"#utility.yul\":3313:3360   */\n          mstore\n            /* \"#utility.yul\":3377:3508   */\n          tag_126\n            /* \"#utility.yul\":3503:3507   */\n          dup2\n            /* \"#utility.yul\":3377:3508   */\n          tag_81\n          jump\t// in\n        tag_126:\n            /* \"#utility.yul\":3369:3508   */\n          swap1\n          pop\n            /* \"#utility.yul\":3555:3564   */\n          dup2\n            /* \"#utility.yul\":3549:3553   */\n          dup2\n            /* \"#utility.yul\":3545:3565   */\n          sub\n            /* \"#utility.yul\":3540:3542   */\n          0x20\n            /* \"#utility.yul\":3529:3538   */\n          dup4\n            /* \"#utility.yul\":3525:3543   */\n          add\n            /* \"#utility.yul\":3518:3566   */\n          mstore\n            /* \"#utility.yul\":3583:3658   */\n          tag_127\n            /* \"#utility.yul\":3653:3657   */\n          dup2\n            /* \"#utility.yul\":3644:3650   */\n          dup5\n            /* \"#utility.yul\":3583:3658   */\n          tag_85\n          jump\t// in\n        tag_127:\n            /* \"#utility.yul\":3575:3658   */\n          swap1\n          pop\n            /* \"#utility.yul\":3051:3665   */\n          swap3\n          swap2\n          pop\n          pop\n          jump\t// out\n            /* \"#utility.yul\":3671:3830   */\n        tag_86:\n            /* \"#utility.yul\":3811:3822   */\n          0x69732046756e6465640000000000000000000000000000000000000000000000\n            /* \"#utility.yul\":3807:3808   */\n          0x00\n            /* \"#utility.yul\":3799:3805   */\n          dup3\n            /* \"#utility.yul\":3795:3809   */\n          add\n            /* \"#utility.yul\":3788:3823   */\n          mstore\n            /* \"#utility.yul\":3671:3830   */\n          pop\n          jump\t// out\n            /* \"#utility.yul\":3836:4201   */\n        tag_87:\n            /* \"#utility.yul\":3978:3981   */\n          0x00\n            /* \"#utility.yul\":3999:4065   */\n          tag_130\n            /* \"#utility.yul\":4063:4064   */\n          0x09\n            /* \"#utility.yul\":4058:4061   */\n          dup4\n            /* \"#utility.yul\":3999:4065   */\n          tag_79\n          jump\t// in\n        tag_130:\n            /* \"#utility.yul\":3992:4065   */\n          swap2\n          pop\n            /* \"#utility.yul\":4074:4167   */\n          tag_131\n            /* \"#utility.yul\":4163:4166   */\n          dup3\n            /* \"#utility.yul\":4074:4167   */\n          tag_86\n          jump\t// in\n        tag_131:\n            /* \"#utility.yul\":4192:4194   */\n          0x20\n            /* \"#utility.yul\":4187:4190   */\n          dup3\n            /* \"#utility.yul\":4183:4195   */\n          add\n            /* \"#utility.yul\":4176:4195   */\n          swap1\n          pop\n            /* \"#utility.yul\":3836:4201   */\n          swap2\n          swap1\n          pop\n          jump\t// out\n            /* \"#utility.yul\":4207:4821   */\n        tag_46:\n            /* \"#utility.yul\":4418:4422   */\n          0x00\n            /* \"#utility.yul\":4456:4458   */\n          0x40\n            /* \"#utility.yul\":4445:4454   */\n          dup3\n            /* \"#utility.yul\":4441:4459   */\n          add\n            /* \"#utility.yul\":4433:4459   */\n          swap1\n          pop\n            /* \"#utility.yul\":4505:4514   */\n          dup2\n            /* \"#utility.yul\":4499:4503   */\n          dup2\n            /* \"#utility.yul\":4495:4515   */\n          sub\n            /* \"#utility.yul\":4491:4492   */\n          0x00\n            /* \"#utility.yul\":4480:4489   */\n          dup4\n            /* \"#utility.yul\":4476:4493   */\n          add\n            /* \"#utility.yul\":4469:4516   */\n          mstore\n            /* \"#utility.yul\":4533:4608   */\n          tag_133\n            /* \"#utility.yul\":4603:4607   */\n          dup2\n            /* \"#utility.yul\":4594:4600   */\n          dup5\n            /* \"#utility.yul\":4533:4608   */\n          tag_85\n          jump\t// in\n        tag_133:\n            /* \"#utility.yul\":4525:4608   */\n          swap1\n          pop\n            /* \"#utility.yul\":4655:4664   */\n          dup2\n            /* \"#utility.yul\":4649:4653   */\n          dup2\n            /* \"#utility.yul\":4645:4665   */\n          sub\n            /* \"#utility.yul\":4640:4642   */\n          0x20\n            /* \"#utility.yul\":4629:4638   */\n          dup4\n            /* \"#utility.yul\":4625:4643   */\n          add\n            /* \"#utility.yul\":4618:4666   */\n          mstore\n            /* \"#utility.yul\":4683:4814   */\n          tag_134\n            /* \"#utility.yul\":4809:4813   */\n          dup2\n            /* \"#utility.yul\":4683:4814   */\n          tag_87\n          jump\t// in\n        tag_134:\n            /* \"#utility.yul\":4675:4814   */\n          swap1\n          pop\n            /* \"#utility.yul\":4207:4821   */\n          swap3\n          swap2\n          pop\n          pop\n          jump\t// out\n            /* \"#utility.yul\":4827:4904   */\n        tag_88:\n            /* \"#utility.yul\":4864:4871   */\n          0x00\n            /* \"#utility.yul\":4893:4898   */\n          dup2\n            /* \"#utility.yul\":4882:4898   */\n          swap1\n          pop\n            /* \"#utility.yul\":4827:4904   */\n          swap2\n          swap1\n          pop\n          jump\t// out\n            /* \"#utility.yul\":4910:5090   */\n        tag_89:\n            /* \"#utility.yul\":4958:5035   */\n          0x4e487b7100000000000000000000000000000000000000000000000000000000\n            /* \"#utility.yul\":4955:4956   */\n          0x00\n            /* \"#utility.yul\":4948:5036   */\n          mstore\n            /* \"#utility.yul\":5055:5059   */\n          0x11\n            /* \"#utility.yul\":5052:5053   */\n          0x04\n            /* \"#utility.yul\":5045:5060   */\n          mstore\n            /* \"#utility.yul\":5079:5083   */\n          0x24\n            /* \"#utility.yul\":5076:5077   */\n          0x00\n            /* \"#utility.yul\":5069:5084   */\n          revert\n            /* \"#utility.yul\":5096:5401   */\n        tag_60:\n            /* \"#utility.yul\":5136:5139   */\n          0x00\n            /* \"#utility.yul\":5155:5175   */\n          tag_138\n            /* \"#utility.yul\":5173:5174   */\n          dup3\n            /* \"#utility.yul\":5155:5175   */\n          tag_88\n          jump\t// in\n        tag_138:\n            /* \"#utility.yul\":5150:5175   */\n          swap2\n          pop\n            /* \"#utility.yul\":5189:5209   */\n          tag_139\n            /* \"#utility.yul\":5207:5208   */\n          dup4\n            /* \"#utility.yul\":5189:5209   */\n          tag_88\n          jump\t// in\n        tag_139:\n            /* \"#utility.yul\":5184:5209   */\n          swap3\n          pop\n            /* \"#utility.yul\":5343:5344   */\n          dup3\n            /* \"#utility.yul\":5275:5341   */\n          0xffffffffffffffffffffffffffffffffffffffffffffffffffffffffffffffff\n            /* \"#utility.yul\":5271:5345   */\n          sub\n            /* \"#utility.yul\":5268:5269   */\n          dup3\n            /* \"#utility.yul\":5265:5346   */\n          gt\n            /* \"#utility.yul\":5262:5369   */\n          iszero\n          tag_140\n          jumpi\n            /* \"#utility.yul\":5349:5367   */\n          tag_141\n          tag_89\n          jump\t// in\n        tag_141:\n            /* \"#utility.yul\":5262:5369   */\n        tag_140:\n            /* \"#utility.yul\":5393:5394   */\n          dup3\n            /* \"#utility.yul\":5390:5391   */\n          dup3\n            /* \"#utility.yul\":5386:5395   */\n          add\n            /* \"#utility.yul\":5379:5395   */\n          swap1\n          pop\n            /* \"#utility.yul\":5096:5401   */\n          swap3\n          swap2\n          pop\n          pop\n          jump\t// out\n            /* \"#utility.yul\":5407:5503   */\n        tag_90:\n            /* \"#utility.yul\":5444:5451   */\n          0x00\n            /* \"#utility.yul\":5473:5497   */\n          tag_143\n            /* \"#utility.yul\":5491:5496   */\n          dup3\n            /* \"#utility.yul\":5473:5497   */\n          tag_76\n          jump\t// in\n        tag_143:\n            /* \"#utility.yul\":5462:5497   */\n          swap1\n          pop\n            /* \"#utility.yul\":5407:5503   */\n          swap2\n          swap1\n          pop\n          jump\t// out\n            /* \"#utility.yul\":5509:5627   */\n        tag_91:\n            /* \"#utility.yul\":5596:5620   */\n          tag_145\n            /* \"#utility.yul\":5614:5619   */\n          dup2\n            /* \"#utility.yul\":5596:5620   */\n          tag_90\n          jump\t// in\n        tag_145:\n            /* \"#utility.yul\":5591:5594   */\n          dup3\n            /* \"#utility.yul\":5584:5621   */\n          mstore\n            /* \"#utility.yul\":5509:5627   */\n          pop\n          pop\n          jump\t// out\n            /* \"#utility.yul\":5633:5751   */\n        tag_92:\n            /* \"#utility.yul\":5720:5744   */\n          tag_147\n            /* \"#utility.yul\":5738:5743   */\n          dup2\n            /* \"#utility.yul\":5720:5744   */\n          tag_88\n          jump\t// in\n        tag_147:\n            /* \"#utility.yul\":5715:5718   */\n          dup3\n            /* \"#utility.yul\":5708:5745   */\n          mstore\n            /* \"#utility.yul\":5633:5751   */\n          pop\n          pop\n          jump\t// out\n            /* \"#utility.yul\":5757:6089   */\n        tag_62:\n            /* \"#utility.yul\":5878:5882   */\n          0x00\n            /* \"#utility.yul\":5916:5918   */\n          0x40\n            /* \"#utility.yul\":5905:5914   */\n          dup3\n            /* \"#utility.yul\":5901:5919   */\n          add\n            /* \"#utility.yul\":5893:5919   */\n          swap1\n          pop\n            /* \"#utility.yul\":5929:6000   */\n          tag_149\n            /* \"#utility.yul\":5997:5998   */\n          0x00\n            /* \"#utility.yul\":5986:5995   */\n          dup4\n            /* \"#utility.yul\":5982:5999   */\n          add\n            /* \"#utility.yul\":5973:5979   */\n          dup6\n            /* \"#utility.yul\":5929:6000   */\n          tag_91\n          jump\t// in\n        tag_149:\n            /* \"#utility.yul\":6010:6082   */\n          tag_150\n            /* \"#utility.yul\":6078:6080   */\n          0x20\n            /* \"#utility.yul\":6067:6076   */\n          dup4\n            /* \"#utility.yul\":6063:6081   */\n          add\n            /* \"#utility.yul\":6054:6060   */\n          dup5\n            /* \"#utility.yul\":6010:6082   */\n          tag_92\n          jump\t// in\n        tag_150:\n            /* \"#utility.yul\":5757:6089   */\n          swap4\n          swap3\n          pop\n          pop\n          pop\n          jump\t// out\n            /* \"#utility.yul\":6095:6264   */\n        tag_93:\n            /* \"#utility.yul\":6235:6256   */\n          0x54686520476f616c206973207265616368656400000000000000000000000000\n            /* \"#utility.yul\":6231:6232   */\n          0x00\n            /* \"#utility.yul\":6223:6229   */\n          dup3\n            /* \"#utility.yul\":6219:6233   */\n          add\n            /* \"#utility.yul\":6212:6257   */\n          mstore\n            /* \"#utility.yul\":6095:6264   */\n          pop\n          jump\t// out\n            /* \"#utility.yul\":6270:6636   */\n        tag_94:\n            /* \"#utility.yul\":6412:6415   */\n          0x00\n            /* \"#utility.yul\":6433:6500   */\n          tag_153\n            /* \"#utility.yul\":6497:6499   */\n          0x13\n            /* \"#utility.yul\":6492:6495   */\n          dup4\n            /* \"#utility.yul\":6433:6500   */\n          tag_79\n          jump\t// in\n        tag_153:\n            /* \"#utility.yul\":6426:6500   */\n          swap2\n          pop\n            /* \"#utility.yul\":6509:6602   */\n          tag_154\n            /* \"#utility.yul\":6598:6601   */\n          dup3\n            /* \"#utility.yul\":6509:6602   */\n          tag_93\n          jump\t// in\n        tag_154:\n            /* \"#utility.yul\":6627:6629   */\n          0x20\n            /* \"#utility.yul\":6622:6625   */\n          dup3\n            /* \"#utility.yul\":6618:6630   */\n          add\n            /* \"#utility.yul\":6611:6630   */\n          swap1\n          pop\n            /* \"#utility.yul\":6270:6636   */\n          swap2\n          swap1\n          pop\n          jump\t// out\n            /* \"#utility.yul\":6642:7256   */\n        tag_73:\n            /* \"#utility.yul\":6853:6857   */\n          0x00\n            /* \"#utility.yul\":6891:6893   */\n          0x40\n            /* \"#utility.yul\":6880:6889   */\n          dup3\n            /* \"#utility.yul\":6876:6894   */\n          add\n            /* \"#utility.yul\":6868:6894   */\n          swap1\n          pop\n            /* \"#utility.yul\":6940:6949   */\n          dup2\n            /* \"#utility.yul\":6934:6938   */\n          dup2\n            /* \"#utility.yul\":6930:6950   */\n          sub\n            /* \"#utility.yul\":6926:6927   */\n          0x00\n            /* \"#utility.yul\":6915:6924   */\n          dup4\n            /* \"#utility.yul\":6911:6928   */\n          add\n            /* \"#utility.yul\":6904:6951   */\n          mstore\n            /* \"#utility.yul\":6968:7099   */\n          tag_156\n            /* \"#utility.yul\":7094:7098   */\n          dup2\n            /* \"#utility.yul\":6968:7099   */\n          tag_94\n          jump\t// in\n        tag_156:\n            /* \"#utility.yul\":6960:7099   */\n          swap1\n          pop\n            /* \"#utility.yul\":7146:7155   */\n          dup2\n            /* \"#utility.yul\":7140:7144   */\n          dup2\n            /* \"#utility.yul\":7136:7156   */\n          sub\n            /* \"#utility.yul\":7131:7133   */\n          0x20\n            /* \"#utility.yul\":7120:7129   */\n          dup4\n            /* \"#utility.yul\":7116:7134   */\n          add\n            /* \"#utility.yul\":7109:7157   */\n          mstore\n            /* \"#utility.yul\":7174:7249   */\n          tag_157\n            /* \"#utility.yul\":7244:7248   */\n          dup2\n            /* \"#utility.yul\":7235:7241   */\n          dup5\n            /* \"#utility.yul\":7174:7249   */\n          tag_85\n          jump\t// in\n        tag_157:\n            /* \"#utility.yul\":7166:7249   */\n          swap1\n          pop\n            /* \"#utility.yul\":6642:7256   */\n          swap3\n          swap2\n          pop\n          pop\n          jump\t// out\n\n        auxdata: 0xa26469706673582212207e13eb572a68d47e32c00ab715871bbd2592952801967f7e0718adac1e557e9564736f6c634300080d0033\n    }\n}\n",
				"bytecode": {
					"linkReferences": {},
					"object": "60806040523480156200001157600080fd5b506000336064600c6040516200002790620000bf565b62000035939291906200020d565b604051809103906000f08015801562000052573d6000803e3d6000fd5b5090506000819080600181540180825580915050600190039060005260206000200160009091909190916101000a81548173ffffffffffffffffffffffffffffffffffffffff021916908373ffffffffffffffffffffffffffffffffffffffff1602179055505062000274565b610e5980620021d683390190565b600073ffffffffffffffffffffffffffffffffffffffff82169050919050565b6000620000fa82620000cd565b9050919050565b6200010c81620000ed565b82525050565b600082825260208201905092915050565b7f44656661756c7400000000000000000000000000000000000000000000000000600082015250565b60006200015b60078362000112565b9150620001688262000123565b602082019050919050565b6000819050919050565b6000819050919050565b6000819050919050565b6000620001b2620001ac620001a68462000173565b62000187565b6200017d565b9050919050565b620001c48162000191565b82525050565b6000819050919050565b6000620001f5620001ef620001e984620001ca565b62000187565b6200017d565b9050919050565b6200020781620001d4565b82525050565b600060a08201905062000224600083018662000101565b818103602083015262000237816200014c565b905081810360408301526200024c816200014c565b90506200025d6060830185620001b9565b6200026c6080830184620001fc565b949350505050565b611f5280620002846000396000f3fe608060405260043610620000505760003560e01c80631beab5e814620000555780634bf28d9e146200006f57806373e888fd14620000b357806385b6e28e14620000d3578063a24a2d161462000103575b600080fd5b3480156200006257600080fd5b506200006d62000131565b005b3480156200007c57600080fd5b506200009b6004803603810190620000959190620007ca565b620001b1565b604051620000aa919062000867565b60405180910390f35b620000d16004803603810190620000cb9190620007ca565b62000351565b005b348015620000e057600080fd5b50620000eb620003d2565b604051620000fa919062000952565b60405180910390f35b3480156200011057600080fd5b506200012f600480360381019062000129919062000b13565b62000462565b005b6000806200013f3362000588565b915091508115620001ad578073ffffffffffffffffffffffffffffffffffffffff16631beab5e86040518163ffffffff1660e01b8152600401600060405180830381600087803b1580156200019357600080fd5b505af1158015620001a8573d6000803e3d6000fd5b505050505b5050565b600080600090505b6000805490508110156200030e578273ffffffffffffffffffffffffffffffffffffffff1660008281548110620001f557620001f462000bc3565b5b9060005260206000200160009054906101000a900473ffffffffffffffffffffffffffffffffffffffff1673ffffffffffffffffffffffffffffffffffffffff1663a541a2a26040518163ffffffff1660e01b8152600401602060405180830381865afa1580156200026b573d6000803e3d6000fd5b505050506040513d601f19601f8201168201806040525081019062000291919062000c37565b73ffffffffffffffffffffffffffffffffffffffff1603620002f85760008181548110620002c457620002c362000bc3565b5b9060005260206000200160009054906101000a900473ffffffffffffffffffffffffffffffffffffffff169150506200034c565b8080620003059062000c98565b915050620001b9565b506040517f08c379a0000000000000000000000000000000000000000000000000000000008152600401620003439062000d46565b60405180910390fd5b919050565b6000806200035f8362000588565b915091508115620003cd578073ffffffffffffffffffffffffffffffffffffffff1663d7bb99ba6040518163ffffffff1660e01b8152600401600060405180830381600087803b158015620003b357600080fd5b505af1158015620003c8573d6000803e3d6000fd5b505050505b505050565b606060008054806020026020016040519081016040528092919081815260200182805480156200045857602002820191906000526020600020905b8160009054906101000a900473ffffffffffffffffffffffffffffffffffffffff1673ffffffffffffffffffffffffffffffffffffffff16815260200190600101908083116200040d575b5050505050905090565b6000620004906200048062015180846200071390919063ffffffff16565b426200072b90919063ffffffff16565b905060003386868685604051620004a79062000743565b620004b795949392919062000e0c565b604051809103906000f080158015620004d4573d6000803e3d6000fd5b5090506000819080600181540180825580915050600190039060005260206000200160009091909190916101000a81548173ffffffffffffffffffffffffffffffffffffffff021916908373ffffffffffffffffffffffffffffffffffffffff1602179055507fc5e9958c1e6508265757e920137857e1e705c02eb9c0e6b2a02101af19d44880813388888689600060405162000578979695949392919062000f08565b60405180910390a1505050505050565b600080600080805490508110156200070c578373ffffffffffffffffffffffffffffffffffffffff1660008281548110620005c857620005c762000bc3565b5b9060005260206000200160009054906101000a900473ffffffffffffffffffffffffffffffffffffffff1673ffffffffffffffffffffffffffffffffffffffff1663a541a2a26040518163ffffffff1660e01b8152600401602060405180830381865afa1580156200063e573d6000803e3d6000fd5b505050506040513d601f19601f8201168201806040525081019062000664919062000c37565b73ffffffffffffffffffffffffffffffffffffffff1603620006cf5760019250600081815481106200069b576200069a62000bc3565b5b9060005260206000200160009054906101000a900473ffffffffffffffffffffffffffffffffffffffff169150506200070e565b6040517f08c379a0000000000000000000000000000000000000000000000000000000008152600401620007039062000fe3565b60405180910390fd5b505b915091565b6000818362000723919062001005565b905092915050565b600081836200073b919062001066565b905092915050565b610e5980620010c483390190565b6000604051905090565b600080fd5b600080fd5b600073ffffffffffffffffffffffffffffffffffffffff82169050919050565b6000620007928262000765565b9050919050565b620007a48162000785565b8114620007b057600080fd5b50565b600081359050620007c48162000799565b92915050565b600060208284031215620007e357620007e26200075b565b5b6000620007f384828501620007b3565b91505092915050565b6000819050919050565b600062000827620008216200081b8462000765565b620007fc565b62000765565b9050919050565b60006200083b8262000806565b9050919050565b60006200084f826200082e565b9050919050565b620008618162000842565b82525050565b60006020820190506200087e600083018462000856565b92915050565b600081519050919050565b600082825260208201905092915050565b6000819050602082019050919050565b620008bb8162000842565b82525050565b6000620008cf8383620008b0565b60208301905092915050565b6000602082019050919050565b6000620008f58262000884565b6200090181856200088f565b93506200090e83620008a0565b8060005b8381101562000945578151620009298882620008c1565b97506200093683620008db565b92505060018101905062000912565b5085935050505092915050565b600060208201905081810360008301526200096e8184620008e8565b905092915050565b600080fd5b600080fd5b6000601f19601f8301169050919050565b7f4e487b7100000000000000000000000000000000000000000000000000000000600052604160045260246000fd5b620009cb8262000980565b810181811067ffffffffffffffff82111715620009ed57620009ec62000991565b5b80604052505050565b600062000a0262000751565b905062000a108282620009c0565b919050565b600067ffffffffffffffff82111562000a335762000a3262000991565b5b62000a3e8262000980565b9050602081019050919050565b82818337600083830152505050565b600062000a7162000a6b8462000a15565b620009f6565b90508281526020810184848401111562000a905762000a8f6200097b565b5b62000a9d84828562000a4b565b509392505050565b600082601f83011262000abd5762000abc62000976565b5b813562000acf84826020860162000a5a565b91505092915050565b6000819050919050565b62000aed8162000ad8565b811462000af957600080fd5b50565b60008135905062000b0d8162000ae2565b92915050565b6000806000806080858703121562000b305762000b2f6200075b565b5b600085013567ffffffffffffffff81111562000b515762000b5062000760565b5b62000b5f8782880162000aa5565b945050602085013567ffffffffffffffff81111562000b835762000b8262000760565b5b62000b918782880162000aa5565b935050604062000ba48782880162000afc565b925050606062000bb78782880162000afc565b91505092959194509250565b7f4e487b7100000000000000000000000000000000000000000000000000000000600052603260045260246000fd5b600062000bff8262000765565b9050919050565b62000c118162000bf2565b811462000c1d57600080fd5b50565b60008151905062000c318162000c06565b92915050565b60006020828403121562000c505762000c4f6200075b565b5b600062000c608482850162000c20565b91505092915050565b7f4e487b7100000000000000000000000000000000000000000000000000000000600052601160045260246000fd5b600062000ca58262000ad8565b91507fffffffffffffffffffffffffffffffffffffffffffffffffffffffffffffffff820362000cda5762000cd962000c69565b5b600182019050919050565b600082825260208201905092915050565b7f50726f6a656374206e6f7420666f756e64202121000000000000000000000000600082015250565b600062000d2e60148362000ce5565b915062000d3b8262000cf6565b602082019050919050565b6000602082019050818103600083015262000d618162000d1f565b9050919050565b62000d738162000bf2565b82525050565b600081519050919050565b60005b8381101562000da457808201518184015260208101905062000d87565b8381111562000db4576000848401525b50505050565b600062000dc78262000d79565b62000dd3818562000ce5565b935062000de581856020860162000d84565b62000df08162000980565b840191505092915050565b62000e068162000ad8565b82525050565b600060a08201905062000e23600083018862000d68565b818103602083015262000e37818762000dba565b9050818103604083015262000e4d818662000dba565b905062000e5e606083018562000dfb565b62000e6d608083018462000dfb565b9695505050505050565b62000e828162000785565b82525050565b7f4e487b7100000000000000000000000000000000000000000000000000000000600052602160045260246000fd5b6003811062000ecb5762000eca62000e88565b5b50565b600081905062000ede8262000eb7565b919050565b600062000ef08262000ece565b9050919050565b62000f028162000ee3565b82525050565b600060e08201905062000f1f600083018a62000e77565b62000f2e602083018962000e77565b818103604083015262000f42818862000dba565b9050818103606083015262000f58818762000dba565b905062000f69608083018662000dfb565b62000f7860a083018562000dfb565b62000f8760c083018462000ef7565b98975050505050505050565b7f4e6f7420666f756e640000000000000000000000000000000000000000000000600082015250565b600062000fcb60098362000ce5565b915062000fd88262000f93565b602082019050919050565b6000602082019050818103600083015262000ffe8162000fbc565b9050919050565b6000620010128262000ad8565b91506200101f8362000ad8565b9250817fffffffffffffffffffffffffffffffffffffffffffffffffffffffffffffffff04831182151516156200105b576200105a62000c69565b5b828202905092915050565b6000620010738262000ad8565b9150620010808362000ad8565b9250827fffffffffffffffffffffffffffffffffffffffffffffffffffffffffffffffff03821115620010b857620010b762000c69565b5b82820190509291505056fe60806040523480156200001157600080fd5b5060405162000e5938038062000e598339818101604052810190620000379190620003b7565b846000806101000a81548173ffffffffffffffffffffffffffffffffffffffff021916908373ffffffffffffffffffffffffffffffffffffffff16021790555083600190805190602001906200008f929190620000ca565b508260029080519060200190620000a8929190620000ca565b50816003819055508060068190555060006004819055505050505050620004e1565b828054620000d890620004ac565b90600052602060002090601f016020900481019282620000fc576000855562000148565b82601f106200011757805160ff191683800117855562000148565b8280016001018555821562000148579182015b82811115620001475782518255916020019190600101906200012a565b5b5090506200015791906200015b565b5090565b5b80821115620001765760008160009055506001016200015c565b5090565b6000604051905090565b600080fd5b600080fd5b600073ffffffffffffffffffffffffffffffffffffffff82169050919050565b6000620001bb826200018e565b9050919050565b620001cd81620001ae565b8114620001d957600080fd5b50565b600081519050620001ed81620001c2565b92915050565b600080fd5b600080fd5b6000601f19601f8301169050919050565b7f4e487b7100000000000000000000000000000000000000000000000000000000600052604160045260246000fd5b6200024882620001fd565b810181811067ffffffffffffffff821117156200026a57620002696200020e565b5b80604052505050565b60006200027f6200017a565b90506200028d82826200023d565b919050565b600067ffffffffffffffff821115620002b057620002af6200020e565b5b620002bb82620001fd565b9050602081019050919050565b60005b83811015620002e8578082015181840152602081019050620002cb565b83811115620002f8576000848401525b50505050565b6000620003156200030f8462000292565b62000273565b905082815260208101848484011115620003345762000333620001f8565b5b62000341848285620002c8565b509392505050565b600082601f830112620003615762000360620001f3565b5b815162000373848260208601620002fe565b91505092915050565b6000819050919050565b62000391816200037c565b81146200039d57600080fd5b50565b600081519050620003b18162000386565b92915050565b600080600080600060a08688031215620003d657620003d562000184565b5b6000620003e688828901620001dc565b955050602086015167ffffffffffffffff8111156200040a576200040962000189565b5b620004188882890162000349565b945050604086015167ffffffffffffffff8111156200043c576200043b62000189565b5b6200044a8882890162000349565b93505060606200045d88828901620003a0565b92505060806200047088828901620003a0565b9150509295509295909350565b7f4e487b7100000000000000000000000000000000000000000000000000000000600052602260045260246000fd5b60006002820490506001821680620004c557607f821691505b602082108103620004db57620004da6200047d565b5b50919050565b61096880620004f16000396000f3fe60806040526004361061003f5760003560e01c80631beab5e814610044578063a541a2a21461005b578063c205240314610086578063d7bb99ba1461009d575b600080fd5b34801561005057600080fd5b506100596100a7565b005b34801561006757600080fd5b506100706101fd565b60405161007d9190610577565b60405180910390f35b34801561009257600080fd5b5061009b610221565b005b6100a5610306565b005b338073ffffffffffffffffffffffffffffffffffffffff1660008054906101000a900473ffffffffffffffffffffffffffffffffffffffff1673ffffffffffffffffffffffffffffffffffffffff161461010057600080fd5b600080600281111561011557610114610592565b5b600560009054906101000a900460ff16600281111561013757610136610592565b5b1461014157600080fd5b600654421161014f57600080fd5b610159600161049b565b60008054906101000a900473ffffffffffffffffffffffffffffffffffffffff1673ffffffffffffffffffffffffffffffffffffffff166108fc6004549081150290604051600060405180830381858888f193505050501580156101c1573d6000803e3d6000fd5b507e6567369884327ec669abad9dc032c3fc1b6c1b77aed67e31f8311864551e7460016040516101f19190610713565b60405180910390a15050565b60008054906101000a900473ffffffffffffffffffffffffffffffffffffffff1681565b600280600281111561023657610235610592565b5b600560009054906101000a900460ff16600281111561025857610257610592565b5b1461026257600080fd5b60008054906101000a900473ffffffffffffffffffffffffffffffffffffffff1673ffffffffffffffffffffffffffffffffffffffff166108fc6004549081150290604051600060405180830381858888f193505050501580156102ca573d6000803e3d6000fd5b507fda700ea0a4f90d17381707c06ca4125e32c8a65b28e82ff0d1850af50a6d4ccd60016040516102fb9190610794565b60405180910390a150565b600080600281111561031b5761031a610592565b5b600560009054906101000a900460ff16600281111561033d5761033c610592565b5b1461034757600080fd5b60065442111561035657600080fd5b60008054906101000a900473ffffffffffffffffffffffffffffffffffffffff1673ffffffffffffffffffffffffffffffffffffffff163373ffffffffffffffffffffffffffffffffffffffff16036103ae57600080fd5b61040034600760003373ffffffffffffffffffffffffffffffffffffffff1673ffffffffffffffffffffffffffffffffffffffff168152602001908152602001600020546104c890919063ffffffff16565b600760003373ffffffffffffffffffffffffffffffffffffffff1673ffffffffffffffffffffffffffffffffffffffff16815260200190815260200160002081905550346004546104519190610802565b6004819055507f75ae3e7c973a88747144369f710c5999060a6321be0506174d3f5c64bdfc674e3334604051610488929190610888565b60405180910390a16104986104de565b50565b80600560006101000a81548160ff021916908360028111156104c0576104bf610592565b5b021790555050565b600081836104d69190610802565b905092915050565b60045460035410610534577f15ac727d1ca51352f519e3f5899500ead795e56a4a39ceafeea835331346017a600160405161051991906108fd565b60405180910390a161052b600261049b565b610533610221565b5b565b600073ffffffffffffffffffffffffffffffffffffffff82169050919050565b600061056182610536565b9050919050565b61057181610556565b82525050565b600060208201905061058c6000830184610568565b92915050565b7f4e487b7100000000000000000000000000000000000000000000000000000000600052602160045260246000fd5b600082825260208201905092915050565b7f46756e6420726574726569766564000000000000000000000000000000000000600082015250565b6000610608600e836105c1565b9150610613826105d2565b602082019050919050565b7f4e487b7100000000000000000000000000000000000000000000000000000000600052602260045260246000fd5b6000600282049050600182168061066557607f821691505b6020821081036106785761067761061e565b5b50919050565b60008190508160005260206000209050919050565b600081546106a08161064d565b6106aa81866105c1565b945060018216600081146106c557600181146106d75761070a565b60ff198316865260208601935061070a565b6106e08561067e565b60005b83811015610702578154818901526001820191506020810190506106e3565b808801955050505b50505092915050565b6000604082019050818103600083015261072c816105fb565b905081810360208301526107408184610693565b905092915050565b7f69732046756e6465640000000000000000000000000000000000000000000000600082015250565b600061077e6009836105c1565b915061078982610748565b602082019050919050565b600060408201905081810360008301526107ae8184610693565b905081810360208301526107c181610771565b905092915050565b6000819050919050565b7f4e487b7100000000000000000000000000000000000000000000000000000000600052601160045260246000fd5b600061080d826107c9565b9150610818836107c9565b9250827fffffffffffffffffffffffffffffffffffffffffffffffffffffffffffffffff0382111561084d5761084c6107d3565b5b828201905092915050565b600061086382610536565b9050919050565b61087381610858565b82525050565b610882816107c9565b82525050565b600060408201905061089d600083018561086a565b6108aa6020830184610879565b9392505050565b7f54686520476f616c206973207265616368656400000000000000000000000000600082015250565b60006108e76013836105c1565b91506108f2826108b1565b602082019050919050565b60006040820190508181036000830152610916816108da565b9050818103602083015261092a8184610693565b90509291505056fea26469706673582212207e13eb572a68d47e32c00ab715871bbd2592952801967f7e0718adac1e557e9564736f6c634300080d0033a2646970667358221220621f92d11e58cbcb94b86a5f19dfdb5be01d7ce06a586c8143e06da45e84703464736f6c634300080d003360806040523480156200001157600080fd5b5060405162000e5938038062000e598339818101604052810190620000379190620003b7565b846000806101000a81548173ffffffffffffffffffffffffffffffffffffffff021916908373ffffffffffffffffffffffffffffffffffffffff16021790555083600190805190602001906200008f929190620000ca565b508260029080519060200190620000a8929190620000ca565b50816003819055508060068190555060006004819055505050505050620004e1565b828054620000d890620004ac565b90600052602060002090601f016020900481019282620000fc576000855562000148565b82601f106200011757805160ff191683800117855562000148565b8280016001018555821562000148579182015b82811115620001475782518255916020019190600101906200012a565b5b5090506200015791906200015b565b5090565b5b80821115620001765760008160009055506001016200015c565b5090565b6000604051905090565b600080fd5b600080fd5b600073ffffffffffffffffffffffffffffffffffffffff82169050919050565b6000620001bb826200018e565b9050919050565b620001cd81620001ae565b8114620001d957600080fd5b50565b600081519050620001ed81620001c2565b92915050565b600080fd5b600080fd5b6000601f19601f8301169050919050565b7f4e487b7100000000000000000000000000000000000000000000000000000000600052604160045260246000fd5b6200024882620001fd565b810181811067ffffffffffffffff821117156200026a57620002696200020e565b5b80604052505050565b60006200027f6200017a565b90506200028d82826200023d565b919050565b600067ffffffffffffffff821115620002b057620002af6200020e565b5b620002bb82620001fd565b9050602081019050919050565b60005b83811015620002e8578082015181840152602081019050620002cb565b83811115620002f8576000848401525b50505050565b6000620003156200030f8462000292565b62000273565b905082815260208101848484011115620003345762000333620001f8565b5b62000341848285620002c8565b509392505050565b600082601f830112620003615762000360620001f3565b5b815162000373848260208601620002fe565b91505092915050565b6000819050919050565b62000391816200037c565b81146200039d57600080fd5b50565b600081519050620003b18162000386565b92915050565b600080600080600060a08688031215620003d657620003d562000184565b5b6000620003e688828901620001dc565b955050602086015167ffffffffffffffff8111156200040a576200040962000189565b5b620004188882890162000349565b945050604086015167ffffffffffffffff8111156200043c576200043b62000189565b5b6200044a8882890162000349565b93505060606200045d88828901620003a0565b92505060806200047088828901620003a0565b9150509295509295909350565b7f4e487b7100000000000000000000000000000000000000000000000000000000600052602260045260246000fd5b60006002820490506001821680620004c557607f821691505b602082108103620004db57620004da6200047d565b5b50919050565b61096880620004f16000396000f3fe60806040526004361061003f5760003560e01c80631beab5e814610044578063a541a2a21461005b578063c205240314610086578063d7bb99ba1461009d575b600080fd5b34801561005057600080fd5b506100596100a7565b005b34801561006757600080fd5b506100706101fd565b60405161007d9190610577565b60405180910390f35b34801561009257600080fd5b5061009b610221565b005b6100a5610306565b005b338073ffffffffffffffffffffffffffffffffffffffff1660008054906101000a900473ffffffffffffffffffffffffffffffffffffffff1673ffffffffffffffffffffffffffffffffffffffff161461010057600080fd5b600080600281111561011557610114610592565b5b600560009054906101000a900460ff16600281111561013757610136610592565b5b1461014157600080fd5b600654421161014f57600080fd5b610159600161049b565b60008054906101000a900473ffffffffffffffffffffffffffffffffffffffff1673ffffffffffffffffffffffffffffffffffffffff166108fc6004549081150290604051600060405180830381858888f193505050501580156101c1573d6000803e3d6000fd5b507e6567369884327ec669abad9dc032c3fc1b6c1b77aed67e31f8311864551e7460016040516101f19190610713565b60405180910390a15050565b60008054906101000a900473ffffffffffffffffffffffffffffffffffffffff1681565b600280600281111561023657610235610592565b5b600560009054906101000a900460ff16600281111561025857610257610592565b5b1461026257600080fd5b60008054906101000a900473ffffffffffffffffffffffffffffffffffffffff1673ffffffffffffffffffffffffffffffffffffffff166108fc6004549081150290604051600060405180830381858888f193505050501580156102ca573d6000803e3d6000fd5b507fda700ea0a4f90d17381707c06ca4125e32c8a65b28e82ff0d1850af50a6d4ccd60016040516102fb9190610794565b60405180910390a150565b600080600281111561031b5761031a610592565b5b600560009054906101000a900460ff16600281111561033d5761033c610592565b5b1461034757600080fd5b60065442111561035657600080fd5b60008054906101000a900473ffffffffffffffffffffffffffffffffffffffff1673ffffffffffffffffffffffffffffffffffffffff163373ffffffffffffffffffffffffffffffffffffffff16036103ae57600080fd5b61040034600760003373ffffffffffffffffffffffffffffffffffffffff1673ffffffffffffffffffffffffffffffffffffffff168152602001908152602001600020546104c890919063ffffffff16565b600760003373ffffffffffffffffffffffffffffffffffffffff1673ffffffffffffffffffffffffffffffffffffffff16815260200190815260200160002081905550346004546104519190610802565b6004819055507f75ae3e7c973a88747144369f710c5999060a6321be0506174d3f5c64bdfc674e3334604051610488929190610888565b60405180910390a16104986104de565b50565b80600560006101000a81548160ff021916908360028111156104c0576104bf610592565b5b021790555050565b600081836104d69190610802565b905092915050565b60045460035410610534577f15ac727d1ca51352f519e3f5899500ead795e56a4a39ceafeea835331346017a600160405161051991906108fd565b60405180910390a161052b600261049b565b610533610221565b5b565b600073ffffffffffffffffffffffffffffffffffffffff82169050919050565b600061056182610536565b9050919050565b61057181610556565b82525050565b600060208201905061058c6000830184610568565b92915050565b7f4e487b7100000000000000000000000000000000000000000000000000000000600052602160045260246000fd5b600082825260208201905092915050565b7f46756e6420726574726569766564000000000000000000000000000000000000600082015250565b6000610608600e836105c1565b9150610613826105d2565b602082019050919050565b7f4e487b7100000000000000000000000000000000000000000000000000000000600052602260045260246000fd5b6000600282049050600182168061066557607f821691505b6020821081036106785761067761061e565b5b50919050565b60008190508160005260206000209050919050565b600081546106a08161064d565b6106aa81866105c1565b945060018216600081146106c557600181146106d75761070a565b60ff198316865260208601935061070a565b6106e08561067e565b60005b83811015610702578154818901526001820191506020810190506106e3565b808801955050505b50505092915050565b6000604082019050818103600083015261072c816105fb565b905081810360208301526107408184610693565b905092915050565b7f69732046756e6465640000000000000000000000000000000000000000000000600082015250565b600061077e6009836105c1565b915061078982610748565b602082019050919050565b600060408201905081810360008301526107ae8184610693565b905081810360208301526107c181610771565b905092915050565b6000819050919050565b7f4e487b7100000000000000000000000000000000000000000000000000000000600052601160045260246000fd5b600061080d826107c9565b9150610818836107c9565b9250827fffffffffffffffffffffffffffffffffffffffffffffffffffffffffffffffff0382111561084d5761084c6107d3565b5b828201905092915050565b600061086382610536565b9050919050565b61087381610858565b82525050565b610882816107c9565b82525050565b600060408201905061089d600083018561086a565b6108aa6020830184610879565b9392505050565b7f54686520476f616c206973207265616368656400000000000000000000000000600082015250565b60006108e76013836105c1565b91506108f2826108b1565b602082019050919050565b60006040820190508181036000830152610916816108da565b9050818103602083015261092a8184610693565b90509291505056fea26469706673582212207e13eb572a68d47e32c00ab715871bbd2592952801967f7e0718adac1e557e9564736f6c634300080d0033",
					"opcodes": "PUSH1 0x80 PUSH1 0x40 MSTORE CALLVALUE DUP1 ISZERO PUSH3 0x11 JUMPI PUSH1 0x0 DUP1 REVERT JUMPDEST POP PUSH1 0x0 CALLER PUSH1 0x64 PUSH1 0xC PUSH1 0x40 MLOAD PUSH3 0x27 SWAP1 PUSH3 0xBF JUMP JUMPDEST PUSH3 0x35 SWAP4 SWAP3 SWAP2 SWAP1 PUSH3 0x20D JUMP JUMPDEST PUSH1 0x40 MLOAD DUP1 SWAP2 SUB SWAP1 PUSH1 0x0 CREATE DUP1 ISZERO DUP1 ISZERO PUSH3 0x52 JUMPI RETURNDATASIZE PUSH1 0x0 DUP1 RETURNDATACOPY RETURNDATASIZE PUSH1 0x0 REVERT JUMPDEST POP SWAP1 POP PUSH1 0x0 DUP2 SWAP1 DUP1 PUSH1 0x1 DUP2 SLOAD ADD DUP1 DUP3 SSTORE DUP1 SWAP2 POP POP PUSH1 0x1 SWAP1 SUB SWAP1 PUSH1 0x0 MSTORE PUSH1 0x20 PUSH1 0x0 KECCAK256 ADD PUSH1 0x0 SWAP1 SWAP2 SWAP1 SWAP2 SWAP1 SWAP2 PUSH2 0x100 EXP DUP2 SLOAD DUP2 PUSH20 0xFFFFFFFFFFFFFFFFFFFFFFFFFFFFFFFFFFFFFFFF MUL NOT AND SWAP1 DUP4 PUSH20 0xFFFFFFFFFFFFFFFFFFFFFFFFFFFFFFFFFFFFFFFF AND MUL OR SWAP1 SSTORE POP POP PUSH3 0x274 JUMP JUMPDEST PUSH2 0xE59 DUP1 PUSH3 0x21D6 DUP4 CODECOPY ADD SWAP1 JUMP JUMPDEST PUSH1 0x0 PUSH20 0xFFFFFFFFFFFFFFFFFFFFFFFFFFFFFFFFFFFFFFFF DUP3 AND SWAP1 POP SWAP2 SWAP1 POP JUMP JUMPDEST PUSH1 0x0 PUSH3 0xFA DUP3 PUSH3 0xCD JUMP JUMPDEST SWAP1 POP SWAP2 SWAP1 POP JUMP JUMPDEST PUSH3 0x10C DUP2 PUSH3 0xED JUMP JUMPDEST DUP3 MSTORE POP POP JUMP JUMPDEST PUSH1 0x0 DUP3 DUP3 MSTORE PUSH1 0x20 DUP3 ADD SWAP1 POP SWAP3 SWAP2 POP POP JUMP JUMPDEST PUSH32 0x44656661756C7400000000000000000000000000000000000000000000000000 PUSH1 0x0 DUP3 ADD MSTORE POP JUMP JUMPDEST PUSH1 0x0 PUSH3 0x15B PUSH1 0x7 DUP4 PUSH3 0x112 JUMP JUMPDEST SWAP2 POP PUSH3 0x168 DUP3 PUSH3 0x123 JUMP JUMPDEST PUSH1 0x20 DUP3 ADD SWAP1 POP SWAP2 SWAP1 POP JUMP JUMPDEST PUSH1 0x0 DUP2 SWAP1 POP SWAP2 SWAP1 POP JUMP JUMPDEST PUSH1 0x0 DUP2 SWAP1 POP SWAP2 SWAP1 POP JUMP JUMPDEST PUSH1 0x0 DUP2 SWAP1 POP SWAP2 SWAP1 POP JUMP JUMPDEST PUSH1 0x0 PUSH3 0x1B2 PUSH3 0x1AC PUSH3 0x1A6 DUP5 PUSH3 0x173 JUMP JUMPDEST PUSH3 0x187 JUMP JUMPDEST PUSH3 0x17D JUMP JUMPDEST SWAP1 POP SWAP2 SWAP1 POP JUMP JUMPDEST PUSH3 0x1C4 DUP2 PUSH3 0x191 JUMP JUMPDEST DUP3 MSTORE POP POP JUMP JUMPDEST PUSH1 0x0 DUP2 SWAP1 POP SWAP2 SWAP1 POP JUMP JUMPDEST PUSH1 0x0 PUSH3 0x1F5 PUSH3 0x1EF PUSH3 0x1E9 DUP5 PUSH3 0x1CA JUMP JUMPDEST PUSH3 0x187 JUMP JUMPDEST PUSH3 0x17D JUMP JUMPDEST SWAP1 POP SWAP2 SWAP1 POP JUMP JUMPDEST PUSH3 0x207 DUP2 PUSH3 0x1D4 JUMP JUMPDEST DUP3 MSTORE POP POP JUMP JUMPDEST PUSH1 0x0 PUSH1 0xA0 DUP3 ADD SWAP1 POP PUSH3 0x224 PUSH1 0x0 DUP4 ADD DUP7 PUSH3 0x101 JUMP JUMPDEST DUP2 DUP2 SUB PUSH1 0x20 DUP4 ADD MSTORE PUSH3 0x237 DUP2 PUSH3 0x14C JUMP JUMPDEST SWAP1 POP DUP2 DUP2 SUB PUSH1 0x40 DUP4 ADD MSTORE PUSH3 0x24C DUP2 PUSH3 0x14C JUMP JUMPDEST SWAP1 POP PUSH3 0x25D PUSH1 0x60 DUP4 ADD DUP6 PUSH3 0x1B9 JUMP JUMPDEST PUSH3 0x26C PUSH1 0x80 DUP4 ADD DUP5 PUSH3 0x1FC JUMP JUMPDEST SWAP5 SWAP4 POP POP POP POP JUMP JUMPDEST PUSH2 0x1F52 DUP1 PUSH3 0x284 PUSH1 0x0 CODECOPY PUSH1 0x0 RETURN INVALID PUSH1 0x80 PUSH1 0x40 MSTORE PUSH1 0x4 CALLDATASIZE LT PUSH3 0x50 JUMPI PUSH1 0x0 CALLDATALOAD PUSH1 0xE0 SHR DUP1 PUSH4 0x1BEAB5E8 EQ PUSH3 0x55 JUMPI DUP1 PUSH4 0x4BF28D9E EQ PUSH3 0x6F JUMPI DUP1 PUSH4 0x73E888FD EQ PUSH3 0xB3 JUMPI DUP1 PUSH4 0x85B6E28E EQ PUSH3 0xD3 JUMPI DUP1 PUSH4 0xA24A2D16 EQ PUSH3 0x103 JUMPI JUMPDEST PUSH1 0x0 DUP1 REVERT JUMPDEST CALLVALUE DUP1 ISZERO PUSH3 0x62 JUMPI PUSH1 0x0 DUP1 REVERT JUMPDEST POP PUSH3 0x6D PUSH3 0x131 JUMP JUMPDEST STOP JUMPDEST CALLVALUE DUP1 ISZERO PUSH3 0x7C JUMPI PUSH1 0x0 DUP1 REVERT JUMPDEST POP PUSH3 0x9B PUSH1 0x4 DUP1 CALLDATASIZE SUB DUP2 ADD SWAP1 PUSH3 0x95 SWAP2 SWAP1 PUSH3 0x7CA JUMP JUMPDEST PUSH3 0x1B1 JUMP JUMPDEST PUSH1 0x40 MLOAD PUSH3 0xAA SWAP2 SWAP1 PUSH3 0x867 JUMP JUMPDEST PUSH1 0x40 MLOAD DUP1 SWAP2 SUB SWAP1 RETURN JUMPDEST PUSH3 0xD1 PUSH1 0x4 DUP1 CALLDATASIZE SUB DUP2 ADD SWAP1 PUSH3 0xCB SWAP2 SWAP1 PUSH3 0x7CA JUMP JUMPDEST PUSH3 0x351 JUMP JUMPDEST STOP JUMPDEST CALLVALUE DUP1 ISZERO PUSH3 0xE0 JUMPI PUSH1 0x0 DUP1 REVERT JUMPDEST POP PUSH3 0xEB PUSH3 0x3D2 JUMP JUMPDEST PUSH1 0x40 MLOAD PUSH3 0xFA SWAP2 SWAP1 PUSH3 0x952 JUMP JUMPDEST PUSH1 0x40 MLOAD DUP1 SWAP2 SUB SWAP1 RETURN JUMPDEST CALLVALUE DUP1 ISZERO PUSH3 0x110 JUMPI PUSH1 0x0 DUP1 REVERT JUMPDEST POP PUSH3 0x12F PUSH1 0x4 DUP1 CALLDATASIZE SUB DUP2 ADD SWAP1 PUSH3 0x129 SWAP2 SWAP1 PUSH3 0xB13 JUMP JUMPDEST PUSH3 0x462 JUMP JUMPDEST STOP JUMPDEST PUSH1 0x0 DUP1 PUSH3 0x13F CALLER PUSH3 0x588 JUMP JUMPDEST SWAP2 POP SWAP2 POP DUP2 ISZERO PUSH3 0x1AD JUMPI DUP1 PUSH20 0xFFFFFFFFFFFFFFFFFFFFFFFFFFFFFFFFFFFFFFFF AND PUSH4 0x1BEAB5E8 PUSH1 0x40 MLOAD DUP2 PUSH4 0xFFFFFFFF AND PUSH1 0xE0 SHL DUP2 MSTORE PUSH1 0x4 ADD PUSH1 0x0 PUSH1 0x40 MLOAD DUP1 DUP4 SUB DUP2 PUSH1 0x0 DUP8 DUP1 EXTCODESIZE ISZERO DUP1 ISZERO PUSH3 0x193 JUMPI PUSH1 0x0 DUP1 REVERT JUMPDEST POP GAS CALL ISZERO DUP1 ISZERO PUSH3 0x1A8 JUMPI RETURNDATASIZE PUSH1 0x0 DUP1 RETURNDATACOPY RETURNDATASIZE PUSH1 0x0 REVERT JUMPDEST POP POP POP POP JUMPDEST POP POP JUMP JUMPDEST PUSH1 0x0 DUP1 PUSH1 0x0 SWAP1 POP JUMPDEST PUSH1 0x0 DUP1 SLOAD SWAP1 POP DUP2 LT ISZERO PUSH3 0x30E JUMPI DUP3 PUSH20 0xFFFFFFFFFFFFFFFFFFFFFFFFFFFFFFFFFFFFFFFF AND PUSH1 0x0 DUP3 DUP2 SLOAD DUP2 LT PUSH3 0x1F5 JUMPI PUSH3 0x1F4 PUSH3 0xBC3 JUMP JUMPDEST JUMPDEST SWAP1 PUSH1 0x0 MSTORE PUSH1 0x20 PUSH1 0x0 KECCAK256 ADD PUSH1 0x0 SWAP1 SLOAD SWAP1 PUSH2 0x100 EXP SWAP1 DIV PUSH20 0xFFFFFFFFFFFFFFFFFFFFFFFFFFFFFFFFFFFFFFFF AND PUSH20 0xFFFFFFFFFFFFFFFFFFFFFFFFFFFFFFFFFFFFFFFF AND PUSH4 0xA541A2A2 PUSH1 0x40 MLOAD DUP2 PUSH4 0xFFFFFFFF AND PUSH1 0xE0 SHL DUP2 MSTORE PUSH1 0x4 ADD PUSH1 0x20 PUSH1 0x40 MLOAD DUP1 DUP4 SUB DUP2 DUP7 GAS STATICCALL ISZERO DUP1 ISZERO PUSH3 0x26B JUMPI RETURNDATASIZE PUSH1 0x0 DUP1 RETURNDATACOPY RETURNDATASIZE PUSH1 0x0 REVERT JUMPDEST POP POP POP POP PUSH1 0x40 MLOAD RETURNDATASIZE PUSH1 0x1F NOT PUSH1 0x1F DUP3 ADD AND DUP3 ADD DUP1 PUSH1 0x40 MSTORE POP DUP2 ADD SWAP1 PUSH3 0x291 SWAP2 SWAP1 PUSH3 0xC37 JUMP JUMPDEST PUSH20 0xFFFFFFFFFFFFFFFFFFFFFFFFFFFFFFFFFFFFFFFF AND SUB PUSH3 0x2F8 JUMPI PUSH1 0x0 DUP2 DUP2 SLOAD DUP2 LT PUSH3 0x2C4 JUMPI PUSH3 0x2C3 PUSH3 0xBC3 JUMP JUMPDEST JUMPDEST SWAP1 PUSH1 0x0 MSTORE PUSH1 0x20 PUSH1 0x0 KECCAK256 ADD PUSH1 0x0 SWAP1 SLOAD SWAP1 PUSH2 0x100 EXP SWAP1 DIV PUSH20 0xFFFFFFFFFFFFFFFFFFFFFFFFFFFFFFFFFFFFFFFF AND SWAP2 POP POP PUSH3 0x34C JUMP JUMPDEST DUP1 DUP1 PUSH3 0x305 SWAP1 PUSH3 0xC98 JUMP JUMPDEST SWAP2 POP POP PUSH3 0x1B9 JUMP JUMPDEST POP PUSH1 0x40 MLOAD PUSH32 0x8C379A000000000000000000000000000000000000000000000000000000000 DUP2 MSTORE PUSH1 0x4 ADD PUSH3 0x343 SWAP1 PUSH3 0xD46 JUMP JUMPDEST PUSH1 0x40 MLOAD DUP1 SWAP2 SUB SWAP1 REVERT JUMPDEST SWAP2 SWAP1 POP JUMP JUMPDEST PUSH1 0x0 DUP1 PUSH3 0x35F DUP4 PUSH3 0x588 JUMP JUMPDEST SWAP2 POP SWAP2 POP DUP2 ISZERO PUSH3 0x3CD JUMPI DUP1 PUSH20 0xFFFFFFFFFFFFFFFFFFFFFFFFFFFFFFFFFFFFFFFF AND PUSH4 0xD7BB99BA PUSH1 0x40 MLOAD DUP2 PUSH4 0xFFFFFFFF AND PUSH1 0xE0 SHL DUP2 MSTORE PUSH1 0x4 ADD PUSH1 0x0 PUSH1 0x40 MLOAD DUP1 DUP4 SUB DUP2 PUSH1 0x0 DUP8 DUP1 EXTCODESIZE ISZERO DUP1 ISZERO PUSH3 0x3B3 JUMPI PUSH1 0x0 DUP1 REVERT JUMPDEST POP GAS CALL ISZERO DUP1 ISZERO PUSH3 0x3C8 JUMPI RETURNDATASIZE PUSH1 0x0 DUP1 RETURNDATACOPY RETURNDATASIZE PUSH1 0x0 REVERT JUMPDEST POP POP POP POP JUMPDEST POP POP POP JUMP JUMPDEST PUSH1 0x60 PUSH1 0x0 DUP1 SLOAD DUP1 PUSH1 0x20 MUL PUSH1 0x20 ADD PUSH1 0x40 MLOAD SWAP1 DUP2 ADD PUSH1 0x40 MSTORE DUP1 SWAP3 SWAP2 SWAP1 DUP2 DUP2 MSTORE PUSH1 0x20 ADD DUP3 DUP1 SLOAD DUP1 ISZERO PUSH3 0x458 JUMPI PUSH1 0x20 MUL DUP3 ADD SWAP2 SWAP1 PUSH1 0x0 MSTORE PUSH1 0x20 PUSH1 0x0 KECCAK256 SWAP1 JUMPDEST DUP2 PUSH1 0x0 SWAP1 SLOAD SWAP1 PUSH2 0x100 EXP SWAP1 DIV PUSH20 0xFFFFFFFFFFFFFFFFFFFFFFFFFFFFFFFFFFFFFFFF AND PUSH20 0xFFFFFFFFFFFFFFFFFFFFFFFFFFFFFFFFFFFFFFFF AND DUP2 MSTORE PUSH1 0x20 ADD SWAP1 PUSH1 0x1 ADD SWAP1 DUP1 DUP4 GT PUSH3 0x40D JUMPI JUMPDEST POP POP POP POP POP SWAP1 POP SWAP1 JUMP JUMPDEST PUSH1 0x0 PUSH3 0x490 PUSH3 0x480 PUSH3 0x15180 DUP5 PUSH3 0x713 SWAP1 SWAP2 SWAP1 PUSH4 0xFFFFFFFF AND JUMP JUMPDEST TIMESTAMP PUSH3 0x72B SWAP1 SWAP2 SWAP1 PUSH4 0xFFFFFFFF AND JUMP JUMPDEST SWAP1 POP PUSH1 0x0 CALLER DUP7 DUP7 DUP7 DUP6 PUSH1 0x40 MLOAD PUSH3 0x4A7 SWAP1 PUSH3 0x743 JUMP JUMPDEST PUSH3 0x4B7 SWAP6 SWAP5 SWAP4 SWAP3 SWAP2 SWAP1 PUSH3 0xE0C JUMP JUMPDEST PUSH1 0x40 MLOAD DUP1 SWAP2 SUB SWAP1 PUSH1 0x0 CREATE DUP1 ISZERO DUP1 ISZERO PUSH3 0x4D4 JUMPI RETURNDATASIZE PUSH1 0x0 DUP1 RETURNDATACOPY RETURNDATASIZE PUSH1 0x0 REVERT JUMPDEST POP SWAP1 POP PUSH1 0x0 DUP2 SWAP1 DUP1 PUSH1 0x1 DUP2 SLOAD ADD DUP1 DUP3 SSTORE DUP1 SWAP2 POP POP PUSH1 0x1 SWAP1 SUB SWAP1 PUSH1 0x0 MSTORE PUSH1 0x20 PUSH1 0x0 KECCAK256 ADD PUSH1 0x0 SWAP1 SWAP2 SWAP1 SWAP2 SWAP1 SWAP2 PUSH2 0x100 EXP DUP2 SLOAD DUP2 PUSH20 0xFFFFFFFFFFFFFFFFFFFFFFFFFFFFFFFFFFFFFFFF MUL NOT AND SWAP1 DUP4 PUSH20 0xFFFFFFFFFFFFFFFFFFFFFFFFFFFFFFFFFFFFFFFF AND MUL OR SWAP1 SSTORE POP PUSH32 0xC5E9958C1E6508265757E920137857E1E705C02EB9C0E6B2A02101AF19D44880 DUP2 CALLER DUP9 DUP9 DUP7 DUP10 PUSH1 0x0 PUSH1 0x40 MLOAD PUSH3 0x578 SWAP8 SWAP7 SWAP6 SWAP5 SWAP4 SWAP3 SWAP2 SWAP1 PUSH3 0xF08 JUMP JUMPDEST PUSH1 0x40 MLOAD DUP1 SWAP2 SUB SWAP1 LOG1 POP POP POP POP POP POP JUMP JUMPDEST PUSH1 0x0 DUP1 PUSH1 0x0 DUP1 DUP1 SLOAD SWAP1 POP DUP2 LT ISZERO PUSH3 0x70C JUMPI DUP4 PUSH20 0xFFFFFFFFFFFFFFFFFFFFFFFFFFFFFFFFFFFFFFFF AND PUSH1 0x0 DUP3 DUP2 SLOAD DUP2 LT PUSH3 0x5C8 JUMPI PUSH3 0x5C7 PUSH3 0xBC3 JUMP JUMPDEST JUMPDEST SWAP1 PUSH1 0x0 MSTORE PUSH1 0x20 PUSH1 0x0 KECCAK256 ADD PUSH1 0x0 SWAP1 SLOAD SWAP1 PUSH2 0x100 EXP SWAP1 DIV PUSH20 0xFFFFFFFFFFFFFFFFFFFFFFFFFFFFFFFFFFFFFFFF AND PUSH20 0xFFFFFFFFFFFFFFFFFFFFFFFFFFFFFFFFFFFFFFFF AND PUSH4 0xA541A2A2 PUSH1 0x40 MLOAD DUP2 PUSH4 0xFFFFFFFF AND PUSH1 0xE0 SHL DUP2 MSTORE PUSH1 0x4 ADD PUSH1 0x20 PUSH1 0x40 MLOAD DUP1 DUP4 SUB DUP2 DUP7 GAS STATICCALL ISZERO DUP1 ISZERO PUSH3 0x63E JUMPI RETURNDATASIZE PUSH1 0x0 DUP1 RETURNDATACOPY RETURNDATASIZE PUSH1 0x0 REVERT JUMPDEST POP POP POP POP PUSH1 0x40 MLOAD RETURNDATASIZE PUSH1 0x1F NOT PUSH1 0x1F DUP3 ADD AND DUP3 ADD DUP1 PUSH1 0x40 MSTORE POP DUP2 ADD SWAP1 PUSH3 0x664 SWAP2 SWAP1 PUSH3 0xC37 JUMP JUMPDEST PUSH20 0xFFFFFFFFFFFFFFFFFFFFFFFFFFFFFFFFFFFFFFFF AND SUB PUSH3 0x6CF JUMPI PUSH1 0x1 SWAP3 POP PUSH1 0x0 DUP2 DUP2 SLOAD DUP2 LT PUSH3 0x69B JUMPI PUSH3 0x69A PUSH3 0xBC3 JUMP JUMPDEST JUMPDEST SWAP1 PUSH1 0x0 MSTORE PUSH1 0x20 PUSH1 0x0 KECCAK256 ADD PUSH1 0x0 SWAP1 SLOAD SWAP1 PUSH2 0x100 EXP SWAP1 DIV PUSH20 0xFFFFFFFFFFFFFFFFFFFFFFFFFFFFFFFFFFFFFFFF AND SWAP2 POP POP PUSH3 0x70E JUMP JUMPDEST PUSH1 0x40 MLOAD PUSH32 0x8C379A000000000000000000000000000000000000000000000000000000000 DUP2 MSTORE PUSH1 0x4 ADD PUSH3 0x703 SWAP1 PUSH3 0xFE3 JUMP JUMPDEST PUSH1 0x40 MLOAD DUP1 SWAP2 SUB SWAP1 REVERT JUMPDEST POP JUMPDEST SWAP2 POP SWAP2 JUMP JUMPDEST PUSH1 0x0 DUP2 DUP4 PUSH3 0x723 SWAP2 SWAP1 PUSH3 0x1005 JUMP JUMPDEST SWAP1 POP SWAP3 SWAP2 POP POP JUMP JUMPDEST PUSH1 0x0 DUP2 DUP4 PUSH3 0x73B SWAP2 SWAP1 PUSH3 0x1066 JUMP JUMPDEST SWAP1 POP SWAP3 SWAP2 POP POP JUMP JUMPDEST PUSH2 0xE59 DUP1 PUSH3 0x10C4 DUP4 CODECOPY ADD SWAP1 JUMP JUMPDEST PUSH1 0x0 PUSH1 0x40 MLOAD SWAP1 POP SWAP1 JUMP JUMPDEST PUSH1 0x0 DUP1 REVERT JUMPDEST PUSH1 0x0 DUP1 REVERT JUMPDEST PUSH1 0x0 PUSH20 0xFFFFFFFFFFFFFFFFFFFFFFFFFFFFFFFFFFFFFFFF DUP3 AND SWAP1 POP SWAP2 SWAP1 POP JUMP JUMPDEST PUSH1 0x0 PUSH3 0x792 DUP3 PUSH3 0x765 JUMP JUMPDEST SWAP1 POP SWAP2 SWAP1 POP JUMP JUMPDEST PUSH3 0x7A4 DUP2 PUSH3 0x785 JUMP JUMPDEST DUP2 EQ PUSH3 0x7B0 JUMPI PUSH1 0x0 DUP1 REVERT JUMPDEST POP JUMP JUMPDEST PUSH1 0x0 DUP2 CALLDATALOAD SWAP1 POP PUSH3 0x7C4 DUP2 PUSH3 0x799 JUMP JUMPDEST SWAP3 SWAP2 POP POP JUMP JUMPDEST PUSH1 0x0 PUSH1 0x20 DUP3 DUP5 SUB SLT ISZERO PUSH3 0x7E3 JUMPI PUSH3 0x7E2 PUSH3 0x75B JUMP JUMPDEST JUMPDEST PUSH1 0x0 PUSH3 0x7F3 DUP5 DUP3 DUP6 ADD PUSH3 0x7B3 JUMP JUMPDEST SWAP2 POP POP SWAP3 SWAP2 POP POP JUMP JUMPDEST PUSH1 0x0 DUP2 SWAP1 POP SWAP2 SWAP1 POP JUMP JUMPDEST PUSH1 0x0 PUSH3 0x827 PUSH3 0x821 PUSH3 0x81B DUP5 PUSH3 0x765 JUMP JUMPDEST PUSH3 0x7FC JUMP JUMPDEST PUSH3 0x765 JUMP JUMPDEST SWAP1 POP SWAP2 SWAP1 POP JUMP JUMPDEST PUSH1 0x0 PUSH3 0x83B DUP3 PUSH3 0x806 JUMP JUMPDEST SWAP1 POP SWAP2 SWAP1 POP JUMP JUMPDEST PUSH1 0x0 PUSH3 0x84F DUP3 PUSH3 0x82E JUMP JUMPDEST SWAP1 POP SWAP2 SWAP1 POP JUMP JUMPDEST PUSH3 0x861 DUP2 PUSH3 0x842 JUMP JUMPDEST DUP3 MSTORE POP POP JUMP JUMPDEST PUSH1 0x0 PUSH1 0x20 DUP3 ADD SWAP1 POP PUSH3 0x87E PUSH1 0x0 DUP4 ADD DUP5 PUSH3 0x856 JUMP JUMPDEST SWAP3 SWAP2 POP POP JUMP JUMPDEST PUSH1 0x0 DUP2 MLOAD SWAP1 POP SWAP2 SWAP1 POP JUMP JUMPDEST PUSH1 0x0 DUP3 DUP3 MSTORE PUSH1 0x20 DUP3 ADD SWAP1 POP SWAP3 SWAP2 POP POP JUMP JUMPDEST PUSH1 0x0 DUP2 SWAP1 POP PUSH1 0x20 DUP3 ADD SWAP1 POP SWAP2 SWAP1 POP JUMP JUMPDEST PUSH3 0x8BB DUP2 PUSH3 0x842 JUMP JUMPDEST DUP3 MSTORE POP POP JUMP JUMPDEST PUSH1 0x0 PUSH3 0x8CF DUP4 DUP4 PUSH3 0x8B0 JUMP JUMPDEST PUSH1 0x20 DUP4 ADD SWAP1 POP SWAP3 SWAP2 POP POP JUMP JUMPDEST PUSH1 0x0 PUSH1 0x20 DUP3 ADD SWAP1 POP SWAP2 SWAP1 POP JUMP JUMPDEST PUSH1 0x0 PUSH3 0x8F5 DUP3 PUSH3 0x884 JUMP JUMPDEST PUSH3 0x901 DUP2 DUP6 PUSH3 0x88F JUMP JUMPDEST SWAP4 POP PUSH3 0x90E DUP4 PUSH3 0x8A0 JUMP JUMPDEST DUP1 PUSH1 0x0 JUMPDEST DUP4 DUP2 LT ISZERO PUSH3 0x945 JUMPI DUP2 MLOAD PUSH3 0x929 DUP9 DUP3 PUSH3 0x8C1 JUMP JUMPDEST SWAP8 POP PUSH3 0x936 DUP4 PUSH3 0x8DB JUMP JUMPDEST SWAP3 POP POP PUSH1 0x1 DUP2 ADD SWAP1 POP PUSH3 0x912 JUMP JUMPDEST POP DUP6 SWAP4 POP POP POP POP SWAP3 SWAP2 POP POP JUMP JUMPDEST PUSH1 0x0 PUSH1 0x20 DUP3 ADD SWAP1 POP DUP2 DUP2 SUB PUSH1 0x0 DUP4 ADD MSTORE PUSH3 0x96E DUP2 DUP5 PUSH3 0x8E8 JUMP JUMPDEST SWAP1 POP SWAP3 SWAP2 POP POP JUMP JUMPDEST PUSH1 0x0 DUP1 REVERT JUMPDEST PUSH1 0x0 DUP1 REVERT JUMPDEST PUSH1 0x0 PUSH1 0x1F NOT PUSH1 0x1F DUP4 ADD AND SWAP1 POP SWAP2 SWAP1 POP JUMP JUMPDEST PUSH32 0x4E487B7100000000000000000000000000000000000000000000000000000000 PUSH1 0x0 MSTORE PUSH1 0x41 PUSH1 0x4 MSTORE PUSH1 0x24 PUSH1 0x0 REVERT JUMPDEST PUSH3 0x9CB DUP3 PUSH3 0x980 JUMP JUMPDEST DUP2 ADD DUP2 DUP2 LT PUSH8 0xFFFFFFFFFFFFFFFF DUP3 GT OR ISZERO PUSH3 0x9ED JUMPI PUSH3 0x9EC PUSH3 0x991 JUMP JUMPDEST JUMPDEST DUP1 PUSH1 0x40 MSTORE POP POP POP JUMP JUMPDEST PUSH1 0x0 PUSH3 0xA02 PUSH3 0x751 JUMP JUMPDEST SWAP1 POP PUSH3 0xA10 DUP3 DUP3 PUSH3 0x9C0 JUMP JUMPDEST SWAP2 SWAP1 POP JUMP JUMPDEST PUSH1 0x0 PUSH8 0xFFFFFFFFFFFFFFFF DUP3 GT ISZERO PUSH3 0xA33 JUMPI PUSH3 0xA32 PUSH3 0x991 JUMP JUMPDEST JUMPDEST PUSH3 0xA3E DUP3 PUSH3 0x980 JUMP JUMPDEST SWAP1 POP PUSH1 0x20 DUP2 ADD SWAP1 POP SWAP2 SWAP1 POP JUMP JUMPDEST DUP3 DUP2 DUP4 CALLDATACOPY PUSH1 0x0 DUP4 DUP4 ADD MSTORE POP POP POP JUMP JUMPDEST PUSH1 0x0 PUSH3 0xA71 PUSH3 0xA6B DUP5 PUSH3 0xA15 JUMP JUMPDEST PUSH3 0x9F6 JUMP JUMPDEST SWAP1 POP DUP3 DUP2 MSTORE PUSH1 0x20 DUP2 ADD DUP5 DUP5 DUP5 ADD GT ISZERO PUSH3 0xA90 JUMPI PUSH3 0xA8F PUSH3 0x97B JUMP JUMPDEST JUMPDEST PUSH3 0xA9D DUP5 DUP3 DUP6 PUSH3 0xA4B JUMP JUMPDEST POP SWAP4 SWAP3 POP POP POP JUMP JUMPDEST PUSH1 0x0 DUP3 PUSH1 0x1F DUP4 ADD SLT PUSH3 0xABD JUMPI PUSH3 0xABC PUSH3 0x976 JUMP JUMPDEST JUMPDEST DUP2 CALLDATALOAD PUSH3 0xACF DUP5 DUP3 PUSH1 0x20 DUP7 ADD PUSH3 0xA5A JUMP JUMPDEST SWAP2 POP POP SWAP3 SWAP2 POP POP JUMP JUMPDEST PUSH1 0x0 DUP2 SWAP1 POP SWAP2 SWAP1 POP JUMP JUMPDEST PUSH3 0xAED DUP2 PUSH3 0xAD8 JUMP JUMPDEST DUP2 EQ PUSH3 0xAF9 JUMPI PUSH1 0x0 DUP1 REVERT JUMPDEST POP JUMP JUMPDEST PUSH1 0x0 DUP2 CALLDATALOAD SWAP1 POP PUSH3 0xB0D DUP2 PUSH3 0xAE2 JUMP JUMPDEST SWAP3 SWAP2 POP POP JUMP JUMPDEST PUSH1 0x0 DUP1 PUSH1 0x0 DUP1 PUSH1 0x80 DUP6 DUP8 SUB SLT ISZERO PUSH3 0xB30 JUMPI PUSH3 0xB2F PUSH3 0x75B JUMP JUMPDEST JUMPDEST PUSH1 0x0 DUP6 ADD CALLDATALOAD PUSH8 0xFFFFFFFFFFFFFFFF DUP2 GT ISZERO PUSH3 0xB51 JUMPI PUSH3 0xB50 PUSH3 0x760 JUMP JUMPDEST JUMPDEST PUSH3 0xB5F DUP8 DUP3 DUP9 ADD PUSH3 0xAA5 JUMP JUMPDEST SWAP5 POP POP PUSH1 0x20 DUP6 ADD CALLDATALOAD PUSH8 0xFFFFFFFFFFFFFFFF DUP2 GT ISZERO PUSH3 0xB83 JUMPI PUSH3 0xB82 PUSH3 0x760 JUMP JUMPDEST JUMPDEST PUSH3 0xB91 DUP8 DUP3 DUP9 ADD PUSH3 0xAA5 JUMP JUMPDEST SWAP4 POP POP PUSH1 0x40 PUSH3 0xBA4 DUP8 DUP3 DUP9 ADD PUSH3 0xAFC JUMP JUMPDEST SWAP3 POP POP PUSH1 0x60 PUSH3 0xBB7 DUP8 DUP3 DUP9 ADD PUSH3 0xAFC JUMP JUMPDEST SWAP2 POP POP SWAP3 SWAP6 SWAP2 SWAP5 POP SWAP3 POP JUMP JUMPDEST PUSH32 0x4E487B7100000000000000000000000000000000000000000000000000000000 PUSH1 0x0 MSTORE PUSH1 0x32 PUSH1 0x4 MSTORE PUSH1 0x24 PUSH1 0x0 REVERT JUMPDEST PUSH1 0x0 PUSH3 0xBFF DUP3 PUSH3 0x765 JUMP JUMPDEST SWAP1 POP SWAP2 SWAP1 POP JUMP JUMPDEST PUSH3 0xC11 DUP2 PUSH3 0xBF2 JUMP JUMPDEST DUP2 EQ PUSH3 0xC1D JUMPI PUSH1 0x0 DUP1 REVERT JUMPDEST POP JUMP JUMPDEST PUSH1 0x0 DUP2 MLOAD SWAP1 POP PUSH3 0xC31 DUP2 PUSH3 0xC06 JUMP JUMPDEST SWAP3 SWAP2 POP POP JUMP JUMPDEST PUSH1 0x0 PUSH1 0x20 DUP3 DUP5 SUB SLT ISZERO PUSH3 0xC50 JUMPI PUSH3 0xC4F PUSH3 0x75B JUMP JUMPDEST JUMPDEST PUSH1 0x0 PUSH3 0xC60 DUP5 DUP3 DUP6 ADD PUSH3 0xC20 JUMP JUMPDEST SWAP2 POP POP SWAP3 SWAP2 POP POP JUMP JUMPDEST PUSH32 0x4E487B7100000000000000000000000000000000000000000000000000000000 PUSH1 0x0 MSTORE PUSH1 0x11 PUSH1 0x4 MSTORE PUSH1 0x24 PUSH1 0x0 REVERT JUMPDEST PUSH1 0x0 PUSH3 0xCA5 DUP3 PUSH3 0xAD8 JUMP JUMPDEST SWAP2 POP PUSH32 0xFFFFFFFFFFFFFFFFFFFFFFFFFFFFFFFFFFFFFFFFFFFFFFFFFFFFFFFFFFFFFFFF DUP3 SUB PUSH3 0xCDA JUMPI PUSH3 0xCD9 PUSH3 0xC69 JUMP JUMPDEST JUMPDEST PUSH1 0x1 DUP3 ADD SWAP1 POP SWAP2 SWAP1 POP JUMP JUMPDEST PUSH1 0x0 DUP3 DUP3 MSTORE PUSH1 0x20 DUP3 ADD SWAP1 POP SWAP3 SWAP2 POP POP JUMP JUMPDEST PUSH32 0x50726F6A656374206E6F7420666F756E64202121000000000000000000000000 PUSH1 0x0 DUP3 ADD MSTORE POP JUMP JUMPDEST PUSH1 0x0 PUSH3 0xD2E PUSH1 0x14 DUP4 PUSH3 0xCE5 JUMP JUMPDEST SWAP2 POP PUSH3 0xD3B DUP3 PUSH3 0xCF6 JUMP JUMPDEST PUSH1 0x20 DUP3 ADD SWAP1 POP SWAP2 SWAP1 POP JUMP JUMPDEST PUSH1 0x0 PUSH1 0x20 DUP3 ADD SWAP1 POP DUP2 DUP2 SUB PUSH1 0x0 DUP4 ADD MSTORE PUSH3 0xD61 DUP2 PUSH3 0xD1F JUMP JUMPDEST SWAP1 POP SWAP2 SWAP1 POP JUMP JUMPDEST PUSH3 0xD73 DUP2 PUSH3 0xBF2 JUMP JUMPDEST DUP3 MSTORE POP POP JUMP JUMPDEST PUSH1 0x0 DUP2 MLOAD SWAP1 POP SWAP2 SWAP1 POP JUMP JUMPDEST PUSH1 0x0 JUMPDEST DUP4 DUP2 LT ISZERO PUSH3 0xDA4 JUMPI DUP1 DUP3 ADD MLOAD DUP2 DUP5 ADD MSTORE PUSH1 0x20 DUP2 ADD SWAP1 POP PUSH3 0xD87 JUMP JUMPDEST DUP4 DUP2 GT ISZERO PUSH3 0xDB4 JUMPI PUSH1 0x0 DUP5 DUP5 ADD MSTORE JUMPDEST POP POP POP POP JUMP JUMPDEST PUSH1 0x0 PUSH3 0xDC7 DUP3 PUSH3 0xD79 JUMP JUMPDEST PUSH3 0xDD3 DUP2 DUP6 PUSH3 0xCE5 JUMP JUMPDEST SWAP4 POP PUSH3 0xDE5 DUP2 DUP6 PUSH1 0x20 DUP7 ADD PUSH3 0xD84 JUMP JUMPDEST PUSH3 0xDF0 DUP2 PUSH3 0x980 JUMP JUMPDEST DUP5 ADD SWAP2 POP POP SWAP3 SWAP2 POP POP JUMP JUMPDEST PUSH3 0xE06 DUP2 PUSH3 0xAD8 JUMP JUMPDEST DUP3 MSTORE POP POP JUMP JUMPDEST PUSH1 0x0 PUSH1 0xA0 DUP3 ADD SWAP1 POP PUSH3 0xE23 PUSH1 0x0 DUP4 ADD DUP9 PUSH3 0xD68 JUMP JUMPDEST DUP2 DUP2 SUB PUSH1 0x20 DUP4 ADD MSTORE PUSH3 0xE37 DUP2 DUP8 PUSH3 0xDBA JUMP JUMPDEST SWAP1 POP DUP2 DUP2 SUB PUSH1 0x40 DUP4 ADD MSTORE PUSH3 0xE4D DUP2 DUP7 PUSH3 0xDBA JUMP JUMPDEST SWAP1 POP PUSH3 0xE5E PUSH1 0x60 DUP4 ADD DUP6 PUSH3 0xDFB JUMP JUMPDEST PUSH3 0xE6D PUSH1 0x80 DUP4 ADD DUP5 PUSH3 0xDFB JUMP JUMPDEST SWAP7 SWAP6 POP POP POP POP POP POP JUMP JUMPDEST PUSH3 0xE82 DUP2 PUSH3 0x785 JUMP JUMPDEST DUP3 MSTORE POP POP JUMP JUMPDEST PUSH32 0x4E487B7100000000000000000000000000000000000000000000000000000000 PUSH1 0x0 MSTORE PUSH1 0x21 PUSH1 0x4 MSTORE PUSH1 0x24 PUSH1 0x0 REVERT JUMPDEST PUSH1 0x3 DUP2 LT PUSH3 0xECB JUMPI PUSH3 0xECA PUSH3 0xE88 JUMP JUMPDEST JUMPDEST POP JUMP JUMPDEST PUSH1 0x0 DUP2 SWAP1 POP PUSH3 0xEDE DUP3 PUSH3 0xEB7 JUMP JUMPDEST SWAP2 SWAP1 POP JUMP JUMPDEST PUSH1 0x0 PUSH3 0xEF0 DUP3 PUSH3 0xECE JUMP JUMPDEST SWAP1 POP SWAP2 SWAP1 POP JUMP JUMPDEST PUSH3 0xF02 DUP2 PUSH3 0xEE3 JUMP JUMPDEST DUP3 MSTORE POP POP JUMP JUMPDEST PUSH1 0x0 PUSH1 0xE0 DUP3 ADD SWAP1 POP PUSH3 0xF1F PUSH1 0x0 DUP4 ADD DUP11 PUSH3 0xE77 JUMP JUMPDEST PUSH3 0xF2E PUSH1 0x20 DUP4 ADD DUP10 PUSH3 0xE77 JUMP JUMPDEST DUP2 DUP2 SUB PUSH1 0x40 DUP4 ADD MSTORE PUSH3 0xF42 DUP2 DUP9 PUSH3 0xDBA JUMP JUMPDEST SWAP1 POP DUP2 DUP2 SUB PUSH1 0x60 DUP4 ADD MSTORE PUSH3 0xF58 DUP2 DUP8 PUSH3 0xDBA JUMP JUMPDEST SWAP1 POP PUSH3 0xF69 PUSH1 0x80 DUP4 ADD DUP7 PUSH3 0xDFB JUMP JUMPDEST PUSH3 0xF78 PUSH1 0xA0 DUP4 ADD DUP6 PUSH3 0xDFB JUMP JUMPDEST PUSH3 0xF87 PUSH1 0xC0 DUP4 ADD DUP5 PUSH3 0xEF7 JUMP JUMPDEST SWAP9 SWAP8 POP POP POP POP POP POP POP POP JUMP JUMPDEST PUSH32 0x4E6F7420666F756E640000000000000000000000000000000000000000000000 PUSH1 0x0 DUP3 ADD MSTORE POP JUMP JUMPDEST PUSH1 0x0 PUSH3 0xFCB PUSH1 0x9 DUP4 PUSH3 0xCE5 JUMP JUMPDEST SWAP2 POP PUSH3 0xFD8 DUP3 PUSH3 0xF93 JUMP JUMPDEST PUSH1 0x20 DUP3 ADD SWAP1 POP SWAP2 SWAP1 POP JUMP JUMPDEST PUSH1 0x0 PUSH1 0x20 DUP3 ADD SWAP1 POP DUP2 DUP2 SUB PUSH1 0x0 DUP4 ADD MSTORE PUSH3 0xFFE DUP2 PUSH3 0xFBC JUMP JUMPDEST SWAP1 POP SWAP2 SWAP1 POP JUMP JUMPDEST PUSH1 0x0 PUSH3 0x1012 DUP3 PUSH3 0xAD8 JUMP JUMPDEST SWAP2 POP PUSH3 0x101F DUP4 PUSH3 0xAD8 JUMP JUMPDEST SWAP3 POP DUP2 PUSH32 0xFFFFFFFFFFFFFFFFFFFFFFFFFFFFFFFFFFFFFFFFFFFFFFFFFFFFFFFFFFFFFFFF DIV DUP4 GT DUP3 ISZERO ISZERO AND ISZERO PUSH3 0x105B JUMPI PUSH3 0x105A PUSH3 0xC69 JUMP JUMPDEST JUMPDEST DUP3 DUP3 MUL SWAP1 POP SWAP3 SWAP2 POP POP JUMP JUMPDEST PUSH1 0x0 PUSH3 0x1073 DUP3 PUSH3 0xAD8 JUMP JUMPDEST SWAP2 POP PUSH3 0x1080 DUP4 PUSH3 0xAD8 JUMP JUMPDEST SWAP3 POP DUP3 PUSH32 0xFFFFFFFFFFFFFFFFFFFFFFFFFFFFFFFFFFFFFFFFFFFFFFFFFFFFFFFFFFFFFFFF SUB DUP3 GT ISZERO PUSH3 0x10B8 JUMPI PUSH3 0x10B7 PUSH3 0xC69 JUMP JUMPDEST JUMPDEST DUP3 DUP3 ADD SWAP1 POP SWAP3 SWAP2 POP POP JUMP INVALID PUSH1 0x80 PUSH1 0x40 MSTORE CALLVALUE DUP1 ISZERO PUSH3 0x11 JUMPI PUSH1 0x0 DUP1 REVERT JUMPDEST POP PUSH1 0x40 MLOAD PUSH3 0xE59 CODESIZE SUB DUP1 PUSH3 0xE59 DUP4 CODECOPY DUP2 DUP2 ADD PUSH1 0x40 MSTORE DUP2 ADD SWAP1 PUSH3 0x37 SWAP2 SWAP1 PUSH3 0x3B7 JUMP JUMPDEST DUP5 PUSH1 0x0 DUP1 PUSH2 0x100 EXP DUP2 SLOAD DUP2 PUSH20 0xFFFFFFFFFFFFFFFFFFFFFFFFFFFFFFFFFFFFFFFF MUL NOT AND SWAP1 DUP4 PUSH20 0xFFFFFFFFFFFFFFFFFFFFFFFFFFFFFFFFFFFFFFFF AND MUL OR SWAP1 SSTORE POP DUP4 PUSH1 0x1 SWAP1 DUP1 MLOAD SWAP1 PUSH1 0x20 ADD SWAP1 PUSH3 0x8F SWAP3 SWAP2 SWAP1 PUSH3 0xCA JUMP JUMPDEST POP DUP3 PUSH1 0x2 SWAP1 DUP1 MLOAD SWAP1 PUSH1 0x20 ADD SWAP1 PUSH3 0xA8 SWAP3 SWAP2 SWAP1 PUSH3 0xCA JUMP JUMPDEST POP DUP2 PUSH1 0x3 DUP2 SWAP1 SSTORE POP DUP1 PUSH1 0x6 DUP2 SWAP1 SSTORE POP PUSH1 0x0 PUSH1 0x4 DUP2 SWAP1 SSTORE POP POP POP POP POP POP PUSH3 0x4E1 JUMP JUMPDEST DUP3 DUP1 SLOAD PUSH3 0xD8 SWAP1 PUSH3 0x4AC JUMP JUMPDEST SWAP1 PUSH1 0x0 MSTORE PUSH1 0x20 PUSH1 0x0 KECCAK256 SWAP1 PUSH1 0x1F ADD PUSH1 0x20 SWAP1 DIV DUP2 ADD SWAP3 DUP3 PUSH3 0xFC JUMPI PUSH1 0x0 DUP6 SSTORE PUSH3 0x148 JUMP JUMPDEST DUP3 PUSH1 0x1F LT PUSH3 0x117 JUMPI DUP1 MLOAD PUSH1 0xFF NOT AND DUP4 DUP1 ADD OR DUP6 SSTORE PUSH3 0x148 JUMP JUMPDEST DUP3 DUP1 ADD PUSH1 0x1 ADD DUP6 SSTORE DUP3 ISZERO PUSH3 0x148 JUMPI SWAP2 DUP3 ADD JUMPDEST DUP3 DUP2 GT ISZERO PUSH3 0x147 JUMPI DUP3 MLOAD DUP3 SSTORE SWAP2 PUSH1 0x20 ADD SWAP2 SWAP1 PUSH1 0x1 ADD SWAP1 PUSH3 0x12A JUMP JUMPDEST JUMPDEST POP SWAP1 POP PUSH3 0x157 SWAP2 SWAP1 PUSH3 0x15B JUMP JUMPDEST POP SWAP1 JUMP JUMPDEST JUMPDEST DUP1 DUP3 GT ISZERO PUSH3 0x176 JUMPI PUSH1 0x0 DUP2 PUSH1 0x0 SWAP1 SSTORE POP PUSH1 0x1 ADD PUSH3 0x15C JUMP JUMPDEST POP SWAP1 JUMP JUMPDEST PUSH1 0x0 PUSH1 0x40 MLOAD SWAP1 POP SWAP1 JUMP JUMPDEST PUSH1 0x0 DUP1 REVERT JUMPDEST PUSH1 0x0 DUP1 REVERT JUMPDEST PUSH1 0x0 PUSH20 0xFFFFFFFFFFFFFFFFFFFFFFFFFFFFFFFFFFFFFFFF DUP3 AND SWAP1 POP SWAP2 SWAP1 POP JUMP JUMPDEST PUSH1 0x0 PUSH3 0x1BB DUP3 PUSH3 0x18E JUMP JUMPDEST SWAP1 POP SWAP2 SWAP1 POP JUMP JUMPDEST PUSH3 0x1CD DUP2 PUSH3 0x1AE JUMP JUMPDEST DUP2 EQ PUSH3 0x1D9 JUMPI PUSH1 0x0 DUP1 REVERT JUMPDEST POP JUMP JUMPDEST PUSH1 0x0 DUP2 MLOAD SWAP1 POP PUSH3 0x1ED DUP2 PUSH3 0x1C2 JUMP JUMPDEST SWAP3 SWAP2 POP POP JUMP JUMPDEST PUSH1 0x0 DUP1 REVERT JUMPDEST PUSH1 0x0 DUP1 REVERT JUMPDEST PUSH1 0x0 PUSH1 0x1F NOT PUSH1 0x1F DUP4 ADD AND SWAP1 POP SWAP2 SWAP1 POP JUMP JUMPDEST PUSH32 0x4E487B7100000000000000000000000000000000000000000000000000000000 PUSH1 0x0 MSTORE PUSH1 0x41 PUSH1 0x4 MSTORE PUSH1 0x24 PUSH1 0x0 REVERT JUMPDEST PUSH3 0x248 DUP3 PUSH3 0x1FD JUMP JUMPDEST DUP2 ADD DUP2 DUP2 LT PUSH8 0xFFFFFFFFFFFFFFFF DUP3 GT OR ISZERO PUSH3 0x26A JUMPI PUSH3 0x269 PUSH3 0x20E JUMP JUMPDEST JUMPDEST DUP1 PUSH1 0x40 MSTORE POP POP POP JUMP JUMPDEST PUSH1 0x0 PUSH3 0x27F PUSH3 0x17A JUMP JUMPDEST SWAP1 POP PUSH3 0x28D DUP3 DUP3 PUSH3 0x23D JUMP JUMPDEST SWAP2 SWAP1 POP JUMP JUMPDEST PUSH1 0x0 PUSH8 0xFFFFFFFFFFFFFFFF DUP3 GT ISZERO PUSH3 0x2B0 JUMPI PUSH3 0x2AF PUSH3 0x20E JUMP JUMPDEST JUMPDEST PUSH3 0x2BB DUP3 PUSH3 0x1FD JUMP JUMPDEST SWAP1 POP PUSH1 0x20 DUP2 ADD SWAP1 POP SWAP2 SWAP1 POP JUMP JUMPDEST PUSH1 0x0 JUMPDEST DUP4 DUP2 LT ISZERO PUSH3 0x2E8 JUMPI DUP1 DUP3 ADD MLOAD DUP2 DUP5 ADD MSTORE PUSH1 0x20 DUP2 ADD SWAP1 POP PUSH3 0x2CB JUMP JUMPDEST DUP4 DUP2 GT ISZERO PUSH3 0x2F8 JUMPI PUSH1 0x0 DUP5 DUP5 ADD MSTORE JUMPDEST POP POP POP POP JUMP JUMPDEST PUSH1 0x0 PUSH3 0x315 PUSH3 0x30F DUP5 PUSH3 0x292 JUMP JUMPDEST PUSH3 0x273 JUMP JUMPDEST SWAP1 POP DUP3 DUP2 MSTORE PUSH1 0x20 DUP2 ADD DUP5 DUP5 DUP5 ADD GT ISZERO PUSH3 0x334 JUMPI PUSH3 0x333 PUSH3 0x1F8 JUMP JUMPDEST JUMPDEST PUSH3 0x341 DUP5 DUP3 DUP6 PUSH3 0x2C8 JUMP JUMPDEST POP SWAP4 SWAP3 POP POP POP JUMP JUMPDEST PUSH1 0x0 DUP3 PUSH1 0x1F DUP4 ADD SLT PUSH3 0x361 JUMPI PUSH3 0x360 PUSH3 0x1F3 JUMP JUMPDEST JUMPDEST DUP2 MLOAD PUSH3 0x373 DUP5 DUP3 PUSH1 0x20 DUP7 ADD PUSH3 0x2FE JUMP JUMPDEST SWAP2 POP POP SWAP3 SWAP2 POP POP JUMP JUMPDEST PUSH1 0x0 DUP2 SWAP1 POP SWAP2 SWAP1 POP JUMP JUMPDEST PUSH3 0x391 DUP2 PUSH3 0x37C JUMP JUMPDEST DUP2 EQ PUSH3 0x39D JUMPI PUSH1 0x0 DUP1 REVERT JUMPDEST POP JUMP JUMPDEST PUSH1 0x0 DUP2 MLOAD SWAP1 POP PUSH3 0x3B1 DUP2 PUSH3 0x386 JUMP JUMPDEST SWAP3 SWAP2 POP POP JUMP JUMPDEST PUSH1 0x0 DUP1 PUSH1 0x0 DUP1 PUSH1 0x0 PUSH1 0xA0 DUP7 DUP9 SUB SLT ISZERO PUSH3 0x3D6 JUMPI PUSH3 0x3D5 PUSH3 0x184 JUMP JUMPDEST JUMPDEST PUSH1 0x0 PUSH3 0x3E6 DUP9 DUP3 DUP10 ADD PUSH3 0x1DC JUMP JUMPDEST SWAP6 POP POP PUSH1 0x20 DUP7 ADD MLOAD PUSH8 0xFFFFFFFFFFFFFFFF DUP2 GT ISZERO PUSH3 0x40A JUMPI PUSH3 0x409 PUSH3 0x189 JUMP JUMPDEST JUMPDEST PUSH3 0x418 DUP9 DUP3 DUP10 ADD PUSH3 0x349 JUMP JUMPDEST SWAP5 POP POP PUSH1 0x40 DUP7 ADD MLOAD PUSH8 0xFFFFFFFFFFFFFFFF DUP2 GT ISZERO PUSH3 0x43C JUMPI PUSH3 0x43B PUSH3 0x189 JUMP JUMPDEST JUMPDEST PUSH3 0x44A DUP9 DUP3 DUP10 ADD PUSH3 0x349 JUMP JUMPDEST SWAP4 POP POP PUSH1 0x60 PUSH3 0x45D DUP9 DUP3 DUP10 ADD PUSH3 0x3A0 JUMP JUMPDEST SWAP3 POP POP PUSH1 0x80 PUSH3 0x470 DUP9 DUP3 DUP10 ADD PUSH3 0x3A0 JUMP JUMPDEST SWAP2 POP POP SWAP3 SWAP6 POP SWAP3 SWAP6 SWAP1 SWAP4 POP JUMP JUMPDEST PUSH32 0x4E487B7100000000000000000000000000000000000000000000000000000000 PUSH1 0x0 MSTORE PUSH1 0x22 PUSH1 0x4 MSTORE PUSH1 0x24 PUSH1 0x0 REVERT JUMPDEST PUSH1 0x0 PUSH1 0x2 DUP3 DIV SWAP1 POP PUSH1 0x1 DUP3 AND DUP1 PUSH3 0x4C5 JUMPI PUSH1 0x7F DUP3 AND SWAP2 POP JUMPDEST PUSH1 0x20 DUP3 LT DUP2 SUB PUSH3 0x4DB JUMPI PUSH3 0x4DA PUSH3 0x47D JUMP JUMPDEST JUMPDEST POP SWAP2 SWAP1 POP JUMP JUMPDEST PUSH2 0x968 DUP1 PUSH3 0x4F1 PUSH1 0x0 CODECOPY PUSH1 0x0 RETURN INVALID PUSH1 0x80 PUSH1 0x40 MSTORE PUSH1 0x4 CALLDATASIZE LT PUSH2 0x3F JUMPI PUSH1 0x0 CALLDATALOAD PUSH1 0xE0 SHR DUP1 PUSH4 0x1BEAB5E8 EQ PUSH2 0x44 JUMPI DUP1 PUSH4 0xA541A2A2 EQ PUSH2 0x5B JUMPI DUP1 PUSH4 0xC2052403 EQ PUSH2 0x86 JUMPI DUP1 PUSH4 0xD7BB99BA EQ PUSH2 0x9D JUMPI JUMPDEST PUSH1 0x0 DUP1 REVERT JUMPDEST CALLVALUE DUP1 ISZERO PUSH2 0x50 JUMPI PUSH1 0x0 DUP1 REVERT JUMPDEST POP PUSH2 0x59 PUSH2 0xA7 JUMP JUMPDEST STOP JUMPDEST CALLVALUE DUP1 ISZERO PUSH2 0x67 JUMPI PUSH1 0x0 DUP1 REVERT JUMPDEST POP PUSH2 0x70 PUSH2 0x1FD JUMP JUMPDEST PUSH1 0x40 MLOAD PUSH2 0x7D SWAP2 SWAP1 PUSH2 0x577 JUMP JUMPDEST PUSH1 0x40 MLOAD DUP1 SWAP2 SUB SWAP1 RETURN JUMPDEST CALLVALUE DUP1 ISZERO PUSH2 0x92 JUMPI PUSH1 0x0 DUP1 REVERT JUMPDEST POP PUSH2 0x9B PUSH2 0x221 JUMP JUMPDEST STOP JUMPDEST PUSH2 0xA5 PUSH2 0x306 JUMP JUMPDEST STOP JUMPDEST CALLER DUP1 PUSH20 0xFFFFFFFFFFFFFFFFFFFFFFFFFFFFFFFFFFFFFFFF AND PUSH1 0x0 DUP1 SLOAD SWAP1 PUSH2 0x100 EXP SWAP1 DIV PUSH20 0xFFFFFFFFFFFFFFFFFFFFFFFFFFFFFFFFFFFFFFFF AND PUSH20 0xFFFFFFFFFFFFFFFFFFFFFFFFFFFFFFFFFFFFFFFF AND EQ PUSH2 0x100 JUMPI PUSH1 0x0 DUP1 REVERT JUMPDEST PUSH1 0x0 DUP1 PUSH1 0x2 DUP2 GT ISZERO PUSH2 0x115 JUMPI PUSH2 0x114 PUSH2 0x592 JUMP JUMPDEST JUMPDEST PUSH1 0x5 PUSH1 0x0 SWAP1 SLOAD SWAP1 PUSH2 0x100 EXP SWAP1 DIV PUSH1 0xFF AND PUSH1 0x2 DUP2 GT ISZERO PUSH2 0x137 JUMPI PUSH2 0x136 PUSH2 0x592 JUMP JUMPDEST JUMPDEST EQ PUSH2 0x141 JUMPI PUSH1 0x0 DUP1 REVERT JUMPDEST PUSH1 0x6 SLOAD TIMESTAMP GT PUSH2 0x14F JUMPI PUSH1 0x0 DUP1 REVERT JUMPDEST PUSH2 0x159 PUSH1 0x1 PUSH2 0x49B JUMP JUMPDEST PUSH1 0x0 DUP1 SLOAD SWAP1 PUSH2 0x100 EXP SWAP1 DIV PUSH20 0xFFFFFFFFFFFFFFFFFFFFFFFFFFFFFFFFFFFFFFFF AND PUSH20 0xFFFFFFFFFFFFFFFFFFFFFFFFFFFFFFFFFFFFFFFF AND PUSH2 0x8FC PUSH1 0x4 SLOAD SWAP1 DUP2 ISZERO MUL SWAP1 PUSH1 0x40 MLOAD PUSH1 0x0 PUSH1 0x40 MLOAD DUP1 DUP4 SUB DUP2 DUP6 DUP9 DUP9 CALL SWAP4 POP POP POP POP ISZERO DUP1 ISZERO PUSH2 0x1C1 JUMPI RETURNDATASIZE PUSH1 0x0 DUP1 RETURNDATACOPY RETURNDATASIZE PUSH1 0x0 REVERT JUMPDEST POP PUSH31 0x6567369884327EC669ABAD9DC032C3FC1B6C1B77AED67E31F8311864551E74 PUSH1 0x1 PUSH1 0x40 MLOAD PUSH2 0x1F1 SWAP2 SWAP1 PUSH2 0x713 JUMP JUMPDEST PUSH1 0x40 MLOAD DUP1 SWAP2 SUB SWAP1 LOG1 POP POP JUMP JUMPDEST PUSH1 0x0 DUP1 SLOAD SWAP1 PUSH2 0x100 EXP SWAP1 DIV PUSH20 0xFFFFFFFFFFFFFFFFFFFFFFFFFFFFFFFFFFFFFFFF AND DUP2 JUMP JUMPDEST PUSH1 0x2 DUP1 PUSH1 0x2 DUP2 GT ISZERO PUSH2 0x236 JUMPI PUSH2 0x235 PUSH2 0x592 JUMP JUMPDEST JUMPDEST PUSH1 0x5 PUSH1 0x0 SWAP1 SLOAD SWAP1 PUSH2 0x100 EXP SWAP1 DIV PUSH1 0xFF AND PUSH1 0x2 DUP2 GT ISZERO PUSH2 0x258 JUMPI PUSH2 0x257 PUSH2 0x592 JUMP JUMPDEST JUMPDEST EQ PUSH2 0x262 JUMPI PUSH1 0x0 DUP1 REVERT JUMPDEST PUSH1 0x0 DUP1 SLOAD SWAP1 PUSH2 0x100 EXP SWAP1 DIV PUSH20 0xFFFFFFFFFFFFFFFFFFFFFFFFFFFFFFFFFFFFFFFF AND PUSH20 0xFFFFFFFFFFFFFFFFFFFFFFFFFFFFFFFFFFFFFFFF AND PUSH2 0x8FC PUSH1 0x4 SLOAD SWAP1 DUP2 ISZERO MUL SWAP1 PUSH1 0x40 MLOAD PUSH1 0x0 PUSH1 0x40 MLOAD DUP1 DUP4 SUB DUP2 DUP6 DUP9 DUP9 CALL SWAP4 POP POP POP POP ISZERO DUP1 ISZERO PUSH2 0x2CA JUMPI RETURNDATASIZE PUSH1 0x0 DUP1 RETURNDATACOPY RETURNDATASIZE PUSH1 0x0 REVERT JUMPDEST POP PUSH32 0xDA700EA0A4F90D17381707C06CA4125E32C8A65B28E82FF0D1850AF50A6D4CCD PUSH1 0x1 PUSH1 0x40 MLOAD PUSH2 0x2FB SWAP2 SWAP1 PUSH2 0x794 JUMP JUMPDEST PUSH1 0x40 MLOAD DUP1 SWAP2 SUB SWAP1 LOG1 POP JUMP JUMPDEST PUSH1 0x0 DUP1 PUSH1 0x2 DUP2 GT ISZERO PUSH2 0x31B JUMPI PUSH2 0x31A PUSH2 0x592 JUMP JUMPDEST JUMPDEST PUSH1 0x5 PUSH1 0x0 SWAP1 SLOAD SWAP1 PUSH2 0x100 EXP SWAP1 DIV PUSH1 0xFF AND PUSH1 0x2 DUP2 GT ISZERO PUSH2 0x33D JUMPI PUSH2 0x33C PUSH2 0x592 JUMP JUMPDEST JUMPDEST EQ PUSH2 0x347 JUMPI PUSH1 0x0 DUP1 REVERT JUMPDEST PUSH1 0x6 SLOAD TIMESTAMP GT ISZERO PUSH2 0x356 JUMPI PUSH1 0x0 DUP1 REVERT JUMPDEST PUSH1 0x0 DUP1 SLOAD SWAP1 PUSH2 0x100 EXP SWAP1 DIV PUSH20 0xFFFFFFFFFFFFFFFFFFFFFFFFFFFFFFFFFFFFFFFF AND PUSH20 0xFFFFFFFFFFFFFFFFFFFFFFFFFFFFFFFFFFFFFFFF AND CALLER PUSH20 0xFFFFFFFFFFFFFFFFFFFFFFFFFFFFFFFFFFFFFFFF AND SUB PUSH2 0x3AE JUMPI PUSH1 0x0 DUP1 REVERT JUMPDEST PUSH2 0x400 CALLVALUE PUSH1 0x7 PUSH1 0x0 CALLER PUSH20 0xFFFFFFFFFFFFFFFFFFFFFFFFFFFFFFFFFFFFFFFF AND PUSH20 0xFFFFFFFFFFFFFFFFFFFFFFFFFFFFFFFFFFFFFFFF AND DUP2 MSTORE PUSH1 0x20 ADD SWAP1 DUP2 MSTORE PUSH1 0x20 ADD PUSH1 0x0 KECCAK256 SLOAD PUSH2 0x4C8 SWAP1 SWAP2 SWAP1 PUSH4 0xFFFFFFFF AND JUMP JUMPDEST PUSH1 0x7 PUSH1 0x0 CALLER PUSH20 0xFFFFFFFFFFFFFFFFFFFFFFFFFFFFFFFFFFFFFFFF AND PUSH20 0xFFFFFFFFFFFFFFFFFFFFFFFFFFFFFFFFFFFFFFFF AND DUP2 MSTORE PUSH1 0x20 ADD SWAP1 DUP2 MSTORE PUSH1 0x20 ADD PUSH1 0x0 KECCAK256 DUP2 SWAP1 SSTORE POP CALLVALUE PUSH1 0x4 SLOAD PUSH2 0x451 SWAP2 SWAP1 PUSH2 0x802 JUMP JUMPDEST PUSH1 0x4 DUP2 SWAP1 SSTORE POP PUSH32 0x75AE3E7C973A88747144369F710C5999060A6321BE0506174D3F5C64BDFC674E CALLER CALLVALUE PUSH1 0x40 MLOAD PUSH2 0x488 SWAP3 SWAP2 SWAP1 PUSH2 0x888 JUMP JUMPDEST PUSH1 0x40 MLOAD DUP1 SWAP2 SUB SWAP1 LOG1 PUSH2 0x498 PUSH2 0x4DE JUMP JUMPDEST POP JUMP JUMPDEST DUP1 PUSH1 0x5 PUSH1 0x0 PUSH2 0x100 EXP DUP2 SLOAD DUP2 PUSH1 0xFF MUL NOT AND SWAP1 DUP4 PUSH1 0x2 DUP2 GT ISZERO PUSH2 0x4C0 JUMPI PUSH2 0x4BF PUSH2 0x592 JUMP JUMPDEST JUMPDEST MUL OR SWAP1 SSTORE POP POP JUMP JUMPDEST PUSH1 0x0 DUP2 DUP4 PUSH2 0x4D6 SWAP2 SWAP1 PUSH2 0x802 JUMP JUMPDEST SWAP1 POP SWAP3 SWAP2 POP POP JUMP JUMPDEST PUSH1 0x4 SLOAD PUSH1 0x3 SLOAD LT PUSH2 0x534 JUMPI PUSH32 0x15AC727D1CA51352F519E3F5899500EAD795E56A4A39CEAFEEA835331346017A PUSH1 0x1 PUSH1 0x40 MLOAD PUSH2 0x519 SWAP2 SWAP1 PUSH2 0x8FD JUMP JUMPDEST PUSH1 0x40 MLOAD DUP1 SWAP2 SUB SWAP1 LOG1 PUSH2 0x52B PUSH1 0x2 PUSH2 0x49B JUMP JUMPDEST PUSH2 0x533 PUSH2 0x221 JUMP JUMPDEST JUMPDEST JUMP JUMPDEST PUSH1 0x0 PUSH20 0xFFFFFFFFFFFFFFFFFFFFFFFFFFFFFFFFFFFFFFFF DUP3 AND SWAP1 POP SWAP2 SWAP1 POP JUMP JUMPDEST PUSH1 0x0 PUSH2 0x561 DUP3 PUSH2 0x536 JUMP JUMPDEST SWAP1 POP SWAP2 SWAP1 POP JUMP JUMPDEST PUSH2 0x571 DUP2 PUSH2 0x556 JUMP JUMPDEST DUP3 MSTORE POP POP JUMP JUMPDEST PUSH1 0x0 PUSH1 0x20 DUP3 ADD SWAP1 POP PUSH2 0x58C PUSH1 0x0 DUP4 ADD DUP5 PUSH2 0x568 JUMP JUMPDEST SWAP3 SWAP2 POP POP JUMP JUMPDEST PUSH32 0x4E487B7100000000000000000000000000000000000000000000000000000000 PUSH1 0x0 MSTORE PUSH1 0x21 PUSH1 0x4 MSTORE PUSH1 0x24 PUSH1 0x0 REVERT JUMPDEST PUSH1 0x0 DUP3 DUP3 MSTORE PUSH1 0x20 DUP3 ADD SWAP1 POP SWAP3 SWAP2 POP POP JUMP JUMPDEST PUSH32 0x46756E6420726574726569766564000000000000000000000000000000000000 PUSH1 0x0 DUP3 ADD MSTORE POP JUMP JUMPDEST PUSH1 0x0 PUSH2 0x608 PUSH1 0xE DUP4 PUSH2 0x5C1 JUMP JUMPDEST SWAP2 POP PUSH2 0x613 DUP3 PUSH2 0x5D2 JUMP JUMPDEST PUSH1 0x20 DUP3 ADD SWAP1 POP SWAP2 SWAP1 POP JUMP JUMPDEST PUSH32 0x4E487B7100000000000000000000000000000000000000000000000000000000 PUSH1 0x0 MSTORE PUSH1 0x22 PUSH1 0x4 MSTORE PUSH1 0x24 PUSH1 0x0 REVERT JUMPDEST PUSH1 0x0 PUSH1 0x2 DUP3 DIV SWAP1 POP PUSH1 0x1 DUP3 AND DUP1 PUSH2 0x665 JUMPI PUSH1 0x7F DUP3 AND SWAP2 POP JUMPDEST PUSH1 0x20 DUP3 LT DUP2 SUB PUSH2 0x678 JUMPI PUSH2 0x677 PUSH2 0x61E JUMP JUMPDEST JUMPDEST POP SWAP2 SWAP1 POP JUMP JUMPDEST PUSH1 0x0 DUP2 SWAP1 POP DUP2 PUSH1 0x0 MSTORE PUSH1 0x20 PUSH1 0x0 KECCAK256 SWAP1 POP SWAP2 SWAP1 POP JUMP JUMPDEST PUSH1 0x0 DUP2 SLOAD PUSH2 0x6A0 DUP2 PUSH2 0x64D JUMP JUMPDEST PUSH2 0x6AA DUP2 DUP7 PUSH2 0x5C1 JUMP JUMPDEST SWAP5 POP PUSH1 0x1 DUP3 AND PUSH1 0x0 DUP2 EQ PUSH2 0x6C5 JUMPI PUSH1 0x1 DUP2 EQ PUSH2 0x6D7 JUMPI PUSH2 0x70A JUMP JUMPDEST PUSH1 0xFF NOT DUP4 AND DUP7 MSTORE PUSH1 0x20 DUP7 ADD SWAP4 POP PUSH2 0x70A JUMP JUMPDEST PUSH2 0x6E0 DUP6 PUSH2 0x67E JUMP JUMPDEST PUSH1 0x0 JUMPDEST DUP4 DUP2 LT ISZERO PUSH2 0x702 JUMPI DUP2 SLOAD DUP2 DUP10 ADD MSTORE PUSH1 0x1 DUP3 ADD SWAP2 POP PUSH1 0x20 DUP2 ADD SWAP1 POP PUSH2 0x6E3 JUMP JUMPDEST DUP1 DUP9 ADD SWAP6 POP POP POP JUMPDEST POP POP POP SWAP3 SWAP2 POP POP JUMP JUMPDEST PUSH1 0x0 PUSH1 0x40 DUP3 ADD SWAP1 POP DUP2 DUP2 SUB PUSH1 0x0 DUP4 ADD MSTORE PUSH2 0x72C DUP2 PUSH2 0x5FB JUMP JUMPDEST SWAP1 POP DUP2 DUP2 SUB PUSH1 0x20 DUP4 ADD MSTORE PUSH2 0x740 DUP2 DUP5 PUSH2 0x693 JUMP JUMPDEST SWAP1 POP SWAP3 SWAP2 POP POP JUMP JUMPDEST PUSH32 0x69732046756E6465640000000000000000000000000000000000000000000000 PUSH1 0x0 DUP3 ADD MSTORE POP JUMP JUMPDEST PUSH1 0x0 PUSH2 0x77E PUSH1 0x9 DUP4 PUSH2 0x5C1 JUMP JUMPDEST SWAP2 POP PUSH2 0x789 DUP3 PUSH2 0x748 JUMP JUMPDEST PUSH1 0x20 DUP3 ADD SWAP1 POP SWAP2 SWAP1 POP JUMP JUMPDEST PUSH1 0x0 PUSH1 0x40 DUP3 ADD SWAP1 POP DUP2 DUP2 SUB PUSH1 0x0 DUP4 ADD MSTORE PUSH2 0x7AE DUP2 DUP5 PUSH2 0x693 JUMP JUMPDEST SWAP1 POP DUP2 DUP2 SUB PUSH1 0x20 DUP4 ADD MSTORE PUSH2 0x7C1 DUP2 PUSH2 0x771 JUMP JUMPDEST SWAP1 POP SWAP3 SWAP2 POP POP JUMP JUMPDEST PUSH1 0x0 DUP2 SWAP1 POP SWAP2 SWAP1 POP JUMP JUMPDEST PUSH32 0x4E487B7100000000000000000000000000000000000000000000000000000000 PUSH1 0x0 MSTORE PUSH1 0x11 PUSH1 0x4 MSTORE PUSH1 0x24 PUSH1 0x0 REVERT JUMPDEST PUSH1 0x0 PUSH2 0x80D DUP3 PUSH2 0x7C9 JUMP JUMPDEST SWAP2 POP PUSH2 0x818 DUP4 PUSH2 0x7C9 JUMP JUMPDEST SWAP3 POP DUP3 PUSH32 0xFFFFFFFFFFFFFFFFFFFFFFFFFFFFFFFFFFFFFFFFFFFFFFFFFFFFFFFFFFFFFFFF SUB DUP3 GT ISZERO PUSH2 0x84D JUMPI PUSH2 0x84C PUSH2 0x7D3 JUMP JUMPDEST JUMPDEST DUP3 DUP3 ADD SWAP1 POP SWAP3 SWAP2 POP POP JUMP JUMPDEST PUSH1 0x0 PUSH2 0x863 DUP3 PUSH2 0x536 JUMP JUMPDEST SWAP1 POP SWAP2 SWAP1 POP JUMP JUMPDEST PUSH2 0x873 DUP2 PUSH2 0x858 JUMP JUMPDEST DUP3 MSTORE POP POP JUMP JUMPDEST PUSH2 0x882 DUP2 PUSH2 0x7C9 JUMP JUMPDEST DUP3 MSTORE POP POP JUMP JUMPDEST PUSH1 0x0 PUSH1 0x40 DUP3 ADD SWAP1 POP PUSH2 0x89D PUSH1 0x0 DUP4 ADD DUP6 PUSH2 0x86A JUMP JUMPDEST PUSH2 0x8AA PUSH1 0x20 DUP4 ADD DUP5 PUSH2 0x879 JUMP JUMPDEST SWAP4 SWAP3 POP POP POP JUMP JUMPDEST PUSH32 0x54686520476F616C206973207265616368656400000000000000000000000000 PUSH1 0x0 DUP3 ADD MSTORE POP JUMP JUMPDEST PUSH1 0x0 PUSH2 0x8E7 PUSH1 0x13 DUP4 PUSH2 0x5C1 JUMP JUMPDEST SWAP2 POP PUSH2 0x8F2 DUP3 PUSH2 0x8B1 JUMP JUMPDEST PUSH1 0x20 DUP3 ADD SWAP1 POP SWAP2 SWAP1 POP JUMP JUMPDEST PUSH1 0x0 PUSH1 0x40 DUP3 ADD SWAP1 POP DUP2 DUP2 SUB PUSH1 0x0 DUP4 ADD MSTORE PUSH2 0x916 DUP2 PUSH2 0x8DA JUMP JUMPDEST SWAP1 POP DUP2 DUP2 SUB PUSH1 0x20 DUP4 ADD MSTORE PUSH2 0x92A DUP2 DUP5 PUSH2 0x693 JUMP JUMPDEST SWAP1 POP SWAP3 SWAP2 POP POP JUMP INVALID LOG2 PUSH5 0x6970667358 0x22 SLT KECCAK256 PUSH31 0x13EB572A68D47E32C00AB715871BBD2592952801967F7E0718ADAC1E557E95 PUSH5 0x736F6C6343 STOP ADDMOD 0xD STOP CALLER LOG2 PUSH5 0x6970667358 0x22 SLT KECCAK256 PUSH3 0x1F92D1 0x1E PC 0xCB 0xCB SWAP5 0xB8 PUSH11 0x5F19DFDB5BE01D7CE06A58 PUSH13 0x8143E06DA45E84703464736F6C PUSH4 0x4300080D STOP CALLER PUSH1 0x80 PUSH1 0x40 MSTORE CALLVALUE DUP1 ISZERO PUSH3 0x11 JUMPI PUSH1 0x0 DUP1 REVERT JUMPDEST POP PUSH1 0x40 MLOAD PUSH3 0xE59 CODESIZE SUB DUP1 PUSH3 0xE59 DUP4 CODECOPY DUP2 DUP2 ADD PUSH1 0x40 MSTORE DUP2 ADD SWAP1 PUSH3 0x37 SWAP2 SWAP1 PUSH3 0x3B7 JUMP JUMPDEST DUP5 PUSH1 0x0 DUP1 PUSH2 0x100 EXP DUP2 SLOAD DUP2 PUSH20 0xFFFFFFFFFFFFFFFFFFFFFFFFFFFFFFFFFFFFFFFF MUL NOT AND SWAP1 DUP4 PUSH20 0xFFFFFFFFFFFFFFFFFFFFFFFFFFFFFFFFFFFFFFFF AND MUL OR SWAP1 SSTORE POP DUP4 PUSH1 0x1 SWAP1 DUP1 MLOAD SWAP1 PUSH1 0x20 ADD SWAP1 PUSH3 0x8F SWAP3 SWAP2 SWAP1 PUSH3 0xCA JUMP JUMPDEST POP DUP3 PUSH1 0x2 SWAP1 DUP1 MLOAD SWAP1 PUSH1 0x20 ADD SWAP1 PUSH3 0xA8 SWAP3 SWAP2 SWAP1 PUSH3 0xCA JUMP JUMPDEST POP DUP2 PUSH1 0x3 DUP2 SWAP1 SSTORE POP DUP1 PUSH1 0x6 DUP2 SWAP1 SSTORE POP PUSH1 0x0 PUSH1 0x4 DUP2 SWAP1 SSTORE POP POP POP POP POP POP PUSH3 0x4E1 JUMP JUMPDEST DUP3 DUP1 SLOAD PUSH3 0xD8 SWAP1 PUSH3 0x4AC JUMP JUMPDEST SWAP1 PUSH1 0x0 MSTORE PUSH1 0x20 PUSH1 0x0 KECCAK256 SWAP1 PUSH1 0x1F ADD PUSH1 0x20 SWAP1 DIV DUP2 ADD SWAP3 DUP3 PUSH3 0xFC JUMPI PUSH1 0x0 DUP6 SSTORE PUSH3 0x148 JUMP JUMPDEST DUP3 PUSH1 0x1F LT PUSH3 0x117 JUMPI DUP1 MLOAD PUSH1 0xFF NOT AND DUP4 DUP1 ADD OR DUP6 SSTORE PUSH3 0x148 JUMP JUMPDEST DUP3 DUP1 ADD PUSH1 0x1 ADD DUP6 SSTORE DUP3 ISZERO PUSH3 0x148 JUMPI SWAP2 DUP3 ADD JUMPDEST DUP3 DUP2 GT ISZERO PUSH3 0x147 JUMPI DUP3 MLOAD DUP3 SSTORE SWAP2 PUSH1 0x20 ADD SWAP2 SWAP1 PUSH1 0x1 ADD SWAP1 PUSH3 0x12A JUMP JUMPDEST JUMPDEST POP SWAP1 POP PUSH3 0x157 SWAP2 SWAP1 PUSH3 0x15B JUMP JUMPDEST POP SWAP1 JUMP JUMPDEST JUMPDEST DUP1 DUP3 GT ISZERO PUSH3 0x176 JUMPI PUSH1 0x0 DUP2 PUSH1 0x0 SWAP1 SSTORE POP PUSH1 0x1 ADD PUSH3 0x15C JUMP JUMPDEST POP SWAP1 JUMP JUMPDEST PUSH1 0x0 PUSH1 0x40 MLOAD SWAP1 POP SWAP1 JUMP JUMPDEST PUSH1 0x0 DUP1 REVERT JUMPDEST PUSH1 0x0 DUP1 REVERT JUMPDEST PUSH1 0x0 PUSH20 0xFFFFFFFFFFFFFFFFFFFFFFFFFFFFFFFFFFFFFFFF DUP3 AND SWAP1 POP SWAP2 SWAP1 POP JUMP JUMPDEST PUSH1 0x0 PUSH3 0x1BB DUP3 PUSH3 0x18E JUMP JUMPDEST SWAP1 POP SWAP2 SWAP1 POP JUMP JUMPDEST PUSH3 0x1CD DUP2 PUSH3 0x1AE JUMP JUMPDEST DUP2 EQ PUSH3 0x1D9 JUMPI PUSH1 0x0 DUP1 REVERT JUMPDEST POP JUMP JUMPDEST PUSH1 0x0 DUP2 MLOAD SWAP1 POP PUSH3 0x1ED DUP2 PUSH3 0x1C2 JUMP JUMPDEST SWAP3 SWAP2 POP POP JUMP JUMPDEST PUSH1 0x0 DUP1 REVERT JUMPDEST PUSH1 0x0 DUP1 REVERT JUMPDEST PUSH1 0x0 PUSH1 0x1F NOT PUSH1 0x1F DUP4 ADD AND SWAP1 POP SWAP2 SWAP1 POP JUMP JUMPDEST PUSH32 0x4E487B7100000000000000000000000000000000000000000000000000000000 PUSH1 0x0 MSTORE PUSH1 0x41 PUSH1 0x4 MSTORE PUSH1 0x24 PUSH1 0x0 REVERT JUMPDEST PUSH3 0x248 DUP3 PUSH3 0x1FD JUMP JUMPDEST DUP2 ADD DUP2 DUP2 LT PUSH8 0xFFFFFFFFFFFFFFFF DUP3 GT OR ISZERO PUSH3 0x26A JUMPI PUSH3 0x269 PUSH3 0x20E JUMP JUMPDEST JUMPDEST DUP1 PUSH1 0x40 MSTORE POP POP POP JUMP JUMPDEST PUSH1 0x0 PUSH3 0x27F PUSH3 0x17A JUMP JUMPDEST SWAP1 POP PUSH3 0x28D DUP3 DUP3 PUSH3 0x23D JUMP JUMPDEST SWAP2 SWAP1 POP JUMP JUMPDEST PUSH1 0x0 PUSH8 0xFFFFFFFFFFFFFFFF DUP3 GT ISZERO PUSH3 0x2B0 JUMPI PUSH3 0x2AF PUSH3 0x20E JUMP JUMPDEST JUMPDEST PUSH3 0x2BB DUP3 PUSH3 0x1FD JUMP JUMPDEST SWAP1 POP PUSH1 0x20 DUP2 ADD SWAP1 POP SWAP2 SWAP1 POP JUMP JUMPDEST PUSH1 0x0 JUMPDEST DUP4 DUP2 LT ISZERO PUSH3 0x2E8 JUMPI DUP1 DUP3 ADD MLOAD DUP2 DUP5 ADD MSTORE PUSH1 0x20 DUP2 ADD SWAP1 POP PUSH3 0x2CB JUMP JUMPDEST DUP4 DUP2 GT ISZERO PUSH3 0x2F8 JUMPI PUSH1 0x0 DUP5 DUP5 ADD MSTORE JUMPDEST POP POP POP POP JUMP JUMPDEST PUSH1 0x0 PUSH3 0x315 PUSH3 0x30F DUP5 PUSH3 0x292 JUMP JUMPDEST PUSH3 0x273 JUMP JUMPDEST SWAP1 POP DUP3 DUP2 MSTORE PUSH1 0x20 DUP2 ADD DUP5 DUP5 DUP5 ADD GT ISZERO PUSH3 0x334 JUMPI PUSH3 0x333 PUSH3 0x1F8 JUMP JUMPDEST JUMPDEST PUSH3 0x341 DUP5 DUP3 DUP6 PUSH3 0x2C8 JUMP JUMPDEST POP SWAP4 SWAP3 POP POP POP JUMP JUMPDEST PUSH1 0x0 DUP3 PUSH1 0x1F DUP4 ADD SLT PUSH3 0x361 JUMPI PUSH3 0x360 PUSH3 0x1F3 JUMP JUMPDEST JUMPDEST DUP2 MLOAD PUSH3 0x373 DUP5 DUP3 PUSH1 0x20 DUP7 ADD PUSH3 0x2FE JUMP JUMPDEST SWAP2 POP POP SWAP3 SWAP2 POP POP JUMP JUMPDEST PUSH1 0x0 DUP2 SWAP1 POP SWAP2 SWAP1 POP JUMP JUMPDEST PUSH3 0x391 DUP2 PUSH3 0x37C JUMP JUMPDEST DUP2 EQ PUSH3 0x39D JUMPI PUSH1 0x0 DUP1 REVERT JUMPDEST POP JUMP JUMPDEST PUSH1 0x0 DUP2 MLOAD SWAP1 POP PUSH3 0x3B1 DUP2 PUSH3 0x386 JUMP JUMPDEST SWAP3 SWAP2 POP POP JUMP JUMPDEST PUSH1 0x0 DUP1 PUSH1 0x0 DUP1 PUSH1 0x0 PUSH1 0xA0 DUP7 DUP9 SUB SLT ISZERO PUSH3 0x3D6 JUMPI PUSH3 0x3D5 PUSH3 0x184 JUMP JUMPDEST JUMPDEST PUSH1 0x0 PUSH3 0x3E6 DUP9 DUP3 DUP10 ADD PUSH3 0x1DC JUMP JUMPDEST SWAP6 POP POP PUSH1 0x20 DUP7 ADD MLOAD PUSH8 0xFFFFFFFFFFFFFFFF DUP2 GT ISZERO PUSH3 0x40A JUMPI PUSH3 0x409 PUSH3 0x189 JUMP JUMPDEST JUMPDEST PUSH3 0x418 DUP9 DUP3 DUP10 ADD PUSH3 0x349 JUMP JUMPDEST SWAP5 POP POP PUSH1 0x40 DUP7 ADD MLOAD PUSH8 0xFFFFFFFFFFFFFFFF DUP2 GT ISZERO PUSH3 0x43C JUMPI PUSH3 0x43B PUSH3 0x189 JUMP JUMPDEST JUMPDEST PUSH3 0x44A DUP9 DUP3 DUP10 ADD PUSH3 0x349 JUMP JUMPDEST SWAP4 POP POP PUSH1 0x60 PUSH3 0x45D DUP9 DUP3 DUP10 ADD PUSH3 0x3A0 JUMP JUMPDEST SWAP3 POP POP PUSH1 0x80 PUSH3 0x470 DUP9 DUP3 DUP10 ADD PUSH3 0x3A0 JUMP JUMPDEST SWAP2 POP POP SWAP3 SWAP6 POP SWAP3 SWAP6 SWAP1 SWAP4 POP JUMP JUMPDEST PUSH32 0x4E487B7100000000000000000000000000000000000000000000000000000000 PUSH1 0x0 MSTORE PUSH1 0x22 PUSH1 0x4 MSTORE PUSH1 0x24 PUSH1 0x0 REVERT JUMPDEST PUSH1 0x0 PUSH1 0x2 DUP3 DIV SWAP1 POP PUSH1 0x1 DUP3 AND DUP1 PUSH3 0x4C5 JUMPI PUSH1 0x7F DUP3 AND SWAP2 POP JUMPDEST PUSH1 0x20 DUP3 LT DUP2 SUB PUSH3 0x4DB JUMPI PUSH3 0x4DA PUSH3 0x47D JUMP JUMPDEST JUMPDEST POP SWAP2 SWAP1 POP JUMP JUMPDEST PUSH2 0x968 DUP1 PUSH3 0x4F1 PUSH1 0x0 CODECOPY PUSH1 0x0 RETURN INVALID PUSH1 0x80 PUSH1 0x40 MSTORE PUSH1 0x4 CALLDATASIZE LT PUSH2 0x3F JUMPI PUSH1 0x0 CALLDATALOAD PUSH1 0xE0 SHR DUP1 PUSH4 0x1BEAB5E8 EQ PUSH2 0x44 JUMPI DUP1 PUSH4 0xA541A2A2 EQ PUSH2 0x5B JUMPI DUP1 PUSH4 0xC2052403 EQ PUSH2 0x86 JUMPI DUP1 PUSH4 0xD7BB99BA EQ PUSH2 0x9D JUMPI JUMPDEST PUSH1 0x0 DUP1 REVERT JUMPDEST CALLVALUE DUP1 ISZERO PUSH2 0x50 JUMPI PUSH1 0x0 DUP1 REVERT JUMPDEST POP PUSH2 0x59 PUSH2 0xA7 JUMP JUMPDEST STOP JUMPDEST CALLVALUE DUP1 ISZERO PUSH2 0x67 JUMPI PUSH1 0x0 DUP1 REVERT JUMPDEST POP PUSH2 0x70 PUSH2 0x1FD JUMP JUMPDEST PUSH1 0x40 MLOAD PUSH2 0x7D SWAP2 SWAP1 PUSH2 0x577 JUMP JUMPDEST PUSH1 0x40 MLOAD DUP1 SWAP2 SUB SWAP1 RETURN JUMPDEST CALLVALUE DUP1 ISZERO PUSH2 0x92 JUMPI PUSH1 0x0 DUP1 REVERT JUMPDEST POP PUSH2 0x9B PUSH2 0x221 JUMP JUMPDEST STOP JUMPDEST PUSH2 0xA5 PUSH2 0x306 JUMP JUMPDEST STOP JUMPDEST CALLER DUP1 PUSH20 0xFFFFFFFFFFFFFFFFFFFFFFFFFFFFFFFFFFFFFFFF AND PUSH1 0x0 DUP1 SLOAD SWAP1 PUSH2 0x100 EXP SWAP1 DIV PUSH20 0xFFFFFFFFFFFFFFFFFFFFFFFFFFFFFFFFFFFFFFFF AND PUSH20 0xFFFFFFFFFFFFFFFFFFFFFFFFFFFFFFFFFFFFFFFF AND EQ PUSH2 0x100 JUMPI PUSH1 0x0 DUP1 REVERT JUMPDEST PUSH1 0x0 DUP1 PUSH1 0x2 DUP2 GT ISZERO PUSH2 0x115 JUMPI PUSH2 0x114 PUSH2 0x592 JUMP JUMPDEST JUMPDEST PUSH1 0x5 PUSH1 0x0 SWAP1 SLOAD SWAP1 PUSH2 0x100 EXP SWAP1 DIV PUSH1 0xFF AND PUSH1 0x2 DUP2 GT ISZERO PUSH2 0x137 JUMPI PUSH2 0x136 PUSH2 0x592 JUMP JUMPDEST JUMPDEST EQ PUSH2 0x141 JUMPI PUSH1 0x0 DUP1 REVERT JUMPDEST PUSH1 0x6 SLOAD TIMESTAMP GT PUSH2 0x14F JUMPI PUSH1 0x0 DUP1 REVERT JUMPDEST PUSH2 0x159 PUSH1 0x1 PUSH2 0x49B JUMP JUMPDEST PUSH1 0x0 DUP1 SLOAD SWAP1 PUSH2 0x100 EXP SWAP1 DIV PUSH20 0xFFFFFFFFFFFFFFFFFFFFFFFFFFFFFFFFFFFFFFFF AND PUSH20 0xFFFFFFFFFFFFFFFFFFFFFFFFFFFFFFFFFFFFFFFF AND PUSH2 0x8FC PUSH1 0x4 SLOAD SWAP1 DUP2 ISZERO MUL SWAP1 PUSH1 0x40 MLOAD PUSH1 0x0 PUSH1 0x40 MLOAD DUP1 DUP4 SUB DUP2 DUP6 DUP9 DUP9 CALL SWAP4 POP POP POP POP ISZERO DUP1 ISZERO PUSH2 0x1C1 JUMPI RETURNDATASIZE PUSH1 0x0 DUP1 RETURNDATACOPY RETURNDATASIZE PUSH1 0x0 REVERT JUMPDEST POP PUSH31 0x6567369884327EC669ABAD9DC032C3FC1B6C1B77AED67E31F8311864551E74 PUSH1 0x1 PUSH1 0x40 MLOAD PUSH2 0x1F1 SWAP2 SWAP1 PUSH2 0x713 JUMP JUMPDEST PUSH1 0x40 MLOAD DUP1 SWAP2 SUB SWAP1 LOG1 POP POP JUMP JUMPDEST PUSH1 0x0 DUP1 SLOAD SWAP1 PUSH2 0x100 EXP SWAP1 DIV PUSH20 0xFFFFFFFFFFFFFFFFFFFFFFFFFFFFFFFFFFFFFFFF AND DUP2 JUMP JUMPDEST PUSH1 0x2 DUP1 PUSH1 0x2 DUP2 GT ISZERO PUSH2 0x236 JUMPI PUSH2 0x235 PUSH2 0x592 JUMP JUMPDEST JUMPDEST PUSH1 0x5 PUSH1 0x0 SWAP1 SLOAD SWAP1 PUSH2 0x100 EXP SWAP1 DIV PUSH1 0xFF AND PUSH1 0x2 DUP2 GT ISZERO PUSH2 0x258 JUMPI PUSH2 0x257 PUSH2 0x592 JUMP JUMPDEST JUMPDEST EQ PUSH2 0x262 JUMPI PUSH1 0x0 DUP1 REVERT JUMPDEST PUSH1 0x0 DUP1 SLOAD SWAP1 PUSH2 0x100 EXP SWAP1 DIV PUSH20 0xFFFFFFFFFFFFFFFFFFFFFFFFFFFFFFFFFFFFFFFF AND PUSH20 0xFFFFFFFFFFFFFFFFFFFFFFFFFFFFFFFFFFFFFFFF AND PUSH2 0x8FC PUSH1 0x4 SLOAD SWAP1 DUP2 ISZERO MUL SWAP1 PUSH1 0x40 MLOAD PUSH1 0x0 PUSH1 0x40 MLOAD DUP1 DUP4 SUB DUP2 DUP6 DUP9 DUP9 CALL SWAP4 POP POP POP POP ISZERO DUP1 ISZERO PUSH2 0x2CA JUMPI RETURNDATASIZE PUSH1 0x0 DUP1 RETURNDATACOPY RETURNDATASIZE PUSH1 0x0 REVERT JUMPDEST POP PUSH32 0xDA700EA0A4F90D17381707C06CA4125E32C8A65B28E82FF0D1850AF50A6D4CCD PUSH1 0x1 PUSH1 0x40 MLOAD PUSH2 0x2FB SWAP2 SWAP1 PUSH2 0x794 JUMP JUMPDEST PUSH1 0x40 MLOAD DUP1 SWAP2 SUB SWAP1 LOG1 POP JUMP JUMPDEST PUSH1 0x0 DUP1 PUSH1 0x2 DUP2 GT ISZERO PUSH2 0x31B JUMPI PUSH2 0x31A PUSH2 0x592 JUMP JUMPDEST JUMPDEST PUSH1 0x5 PUSH1 0x0 SWAP1 SLOAD SWAP1 PUSH2 0x100 EXP SWAP1 DIV PUSH1 0xFF AND PUSH1 0x2 DUP2 GT ISZERO PUSH2 0x33D JUMPI PUSH2 0x33C PUSH2 0x592 JUMP JUMPDEST JUMPDEST EQ PUSH2 0x347 JUMPI PUSH1 0x0 DUP1 REVERT JUMPDEST PUSH1 0x6 SLOAD TIMESTAMP GT ISZERO PUSH2 0x356 JUMPI PUSH1 0x0 DUP1 REVERT JUMPDEST PUSH1 0x0 DUP1 SLOAD SWAP1 PUSH2 0x100 EXP SWAP1 DIV PUSH20 0xFFFFFFFFFFFFFFFFFFFFFFFFFFFFFFFFFFFFFFFF AND PUSH20 0xFFFFFFFFFFFFFFFFFFFFFFFFFFFFFFFFFFFFFFFF AND CALLER PUSH20 0xFFFFFFFFFFFFFFFFFFFFFFFFFFFFFFFFFFFFFFFF AND SUB PUSH2 0x3AE JUMPI PUSH1 0x0 DUP1 REVERT JUMPDEST PUSH2 0x400 CALLVALUE PUSH1 0x7 PUSH1 0x0 CALLER PUSH20 0xFFFFFFFFFFFFFFFFFFFFFFFFFFFFFFFFFFFFFFFF AND PUSH20 0xFFFFFFFFFFFFFFFFFFFFFFFFFFFFFFFFFFFFFFFF AND DUP2 MSTORE PUSH1 0x20 ADD SWAP1 DUP2 MSTORE PUSH1 0x20 ADD PUSH1 0x0 KECCAK256 SLOAD PUSH2 0x4C8 SWAP1 SWAP2 SWAP1 PUSH4 0xFFFFFFFF AND JUMP JUMPDEST PUSH1 0x7 PUSH1 0x0 CALLER PUSH20 0xFFFFFFFFFFFFFFFFFFFFFFFFFFFFFFFFFFFFFFFF AND PUSH20 0xFFFFFFFFFFFFFFFFFFFFFFFFFFFFFFFFFFFFFFFF AND DUP2 MSTORE PUSH1 0x20 ADD SWAP1 DUP2 MSTORE PUSH1 0x20 ADD PUSH1 0x0 KECCAK256 DUP2 SWAP1 SSTORE POP CALLVALUE PUSH1 0x4 SLOAD PUSH2 0x451 SWAP2 SWAP1 PUSH2 0x802 JUMP JUMPDEST PUSH1 0x4 DUP2 SWAP1 SSTORE POP PUSH32 0x75AE3E7C973A88747144369F710C5999060A6321BE0506174D3F5C64BDFC674E CALLER CALLVALUE PUSH1 0x40 MLOAD PUSH2 0x488 SWAP3 SWAP2 SWAP1 PUSH2 0x888 JUMP JUMPDEST PUSH1 0x40 MLOAD DUP1 SWAP2 SUB SWAP1 LOG1 PUSH2 0x498 PUSH2 0x4DE JUMP JUMPDEST POP JUMP JUMPDEST DUP1 PUSH1 0x5 PUSH1 0x0 PUSH2 0x100 EXP DUP2 SLOAD DUP2 PUSH1 0xFF MUL NOT AND SWAP1 DUP4 PUSH1 0x2 DUP2 GT ISZERO PUSH2 0x4C0 JUMPI PUSH2 0x4BF PUSH2 0x592 JUMP JUMPDEST JUMPDEST MUL OR SWAP1 SSTORE POP POP JUMP JUMPDEST PUSH1 0x0 DUP2 DUP4 PUSH2 0x4D6 SWAP2 SWAP1 PUSH2 0x802 JUMP JUMPDEST SWAP1 POP SWAP3 SWAP2 POP POP JUMP JUMPDEST PUSH1 0x4 SLOAD PUSH1 0x3 SLOAD LT PUSH2 0x534 JUMPI PUSH32 0x15AC727D1CA51352F519E3F5899500EAD795E56A4A39CEAFEEA835331346017A PUSH1 0x1 PUSH1 0x40 MLOAD PUSH2 0x519 SWAP2 SWAP1 PUSH2 0x8FD JUMP JUMPDEST PUSH1 0x40 MLOAD DUP1 SWAP2 SUB SWAP1 LOG1 PUSH2 0x52B PUSH1 0x2 PUSH2 0x49B JUMP JUMPDEST PUSH2 0x533 PUSH2 0x221 JUMP JUMPDEST JUMPDEST JUMP JUMPDEST PUSH1 0x0 PUSH20 0xFFFFFFFFFFFFFFFFFFFFFFFFFFFFFFFFFFFFFFFF DUP3 AND SWAP1 POP SWAP2 SWAP1 POP JUMP JUMPDEST PUSH1 0x0 PUSH2 0x561 DUP3 PUSH2 0x536 JUMP JUMPDEST SWAP1 POP SWAP2 SWAP1 POP JUMP JUMPDEST PUSH2 0x571 DUP2 PUSH2 0x556 JUMP JUMPDEST DUP3 MSTORE POP POP JUMP JUMPDEST PUSH1 0x0 PUSH1 0x20 DUP3 ADD SWAP1 POP PUSH2 0x58C PUSH1 0x0 DUP4 ADD DUP5 PUSH2 0x568 JUMP JUMPDEST SWAP3 SWAP2 POP POP JUMP JUMPDEST PUSH32 0x4E487B7100000000000000000000000000000000000000000000000000000000 PUSH1 0x0 MSTORE PUSH1 0x21 PUSH1 0x4 MSTORE PUSH1 0x24 PUSH1 0x0 REVERT JUMPDEST PUSH1 0x0 DUP3 DUP3 MSTORE PUSH1 0x20 DUP3 ADD SWAP1 POP SWAP3 SWAP2 POP POP JUMP JUMPDEST PUSH32 0x46756E6420726574726569766564000000000000000000000000000000000000 PUSH1 0x0 DUP3 ADD MSTORE POP JUMP JUMPDEST PUSH1 0x0 PUSH2 0x608 PUSH1 0xE DUP4 PUSH2 0x5C1 JUMP JUMPDEST SWAP2 POP PUSH2 0x613 DUP3 PUSH2 0x5D2 JUMP JUMPDEST PUSH1 0x20 DUP3 ADD SWAP1 POP SWAP2 SWAP1 POP JUMP JUMPDEST PUSH32 0x4E487B7100000000000000000000000000000000000000000000000000000000 PUSH1 0x0 MSTORE PUSH1 0x22 PUSH1 0x4 MSTORE PUSH1 0x24 PUSH1 0x0 REVERT JUMPDEST PUSH1 0x0 PUSH1 0x2 DUP3 DIV SWAP1 POP PUSH1 0x1 DUP3 AND DUP1 PUSH2 0x665 JUMPI PUSH1 0x7F DUP3 AND SWAP2 POP JUMPDEST PUSH1 0x20 DUP3 LT DUP2 SUB PUSH2 0x678 JUMPI PUSH2 0x677 PUSH2 0x61E JUMP JUMPDEST JUMPDEST POP SWAP2 SWAP1 POP JUMP JUMPDEST PUSH1 0x0 DUP2 SWAP1 POP DUP2 PUSH1 0x0 MSTORE PUSH1 0x20 PUSH1 0x0 KECCAK256 SWAP1 POP SWAP2 SWAP1 POP JUMP JUMPDEST PUSH1 0x0 DUP2 SLOAD PUSH2 0x6A0 DUP2 PUSH2 0x64D JUMP JUMPDEST PUSH2 0x6AA DUP2 DUP7 PUSH2 0x5C1 JUMP JUMPDEST SWAP5 POP PUSH1 0x1 DUP3 AND PUSH1 0x0 DUP2 EQ PUSH2 0x6C5 JUMPI PUSH1 0x1 DUP2 EQ PUSH2 0x6D7 JUMPI PUSH2 0x70A JUMP JUMPDEST PUSH1 0xFF NOT DUP4 AND DUP7 MSTORE PUSH1 0x20 DUP7 ADD SWAP4 POP PUSH2 0x70A JUMP JUMPDEST PUSH2 0x6E0 DUP6 PUSH2 0x67E JUMP JUMPDEST PUSH1 0x0 JUMPDEST DUP4 DUP2 LT ISZERO PUSH2 0x702 JUMPI DUP2 SLOAD DUP2 DUP10 ADD MSTORE PUSH1 0x1 DUP3 ADD SWAP2 POP PUSH1 0x20 DUP2 ADD SWAP1 POP PUSH2 0x6E3 JUMP JUMPDEST DUP1 DUP9 ADD SWAP6 POP POP POP JUMPDEST POP POP POP SWAP3 SWAP2 POP POP JUMP JUMPDEST PUSH1 0x0 PUSH1 0x40 DUP3 ADD SWAP1 POP DUP2 DUP2 SUB PUSH1 0x0 DUP4 ADD MSTORE PUSH2 0x72C DUP2 PUSH2 0x5FB JUMP JUMPDEST SWAP1 POP DUP2 DUP2 SUB PUSH1 0x20 DUP4 ADD MSTORE PUSH2 0x740 DUP2 DUP5 PUSH2 0x693 JUMP JUMPDEST SWAP1 POP SWAP3 SWAP2 POP POP JUMP JUMPDEST PUSH32 0x69732046756E6465640000000000000000000000000000000000000000000000 PUSH1 0x0 DUP3 ADD MSTORE POP JUMP JUMPDEST PUSH1 0x0 PUSH2 0x77E PUSH1 0x9 DUP4 PUSH2 0x5C1 JUMP JUMPDEST SWAP2 POP PUSH2 0x789 DUP3 PUSH2 0x748 JUMP JUMPDEST PUSH1 0x20 DUP3 ADD SWAP1 POP SWAP2 SWAP1 POP JUMP JUMPDEST PUSH1 0x0 PUSH1 0x40 DUP3 ADD SWAP1 POP DUP2 DUP2 SUB PUSH1 0x0 DUP4 ADD MSTORE PUSH2 0x7AE DUP2 DUP5 PUSH2 0x693 JUMP JUMPDEST SWAP1 POP DUP2 DUP2 SUB PUSH1 0x20 DUP4 ADD MSTORE PUSH2 0x7C1 DUP2 PUSH2 0x771 JUMP JUMPDEST SWAP1 POP SWAP3 SWAP2 POP POP JUMP JUMPDEST PUSH1 0x0 DUP2 SWAP1 POP SWAP2 SWAP1 POP JUMP JUMPDEST PUSH32 0x4E487B7100000000000000000000000000000000000000000000000000000000 PUSH1 0x0 MSTORE PUSH1 0x11 PUSH1 0x4 MSTORE PUSH1 0x24 PUSH1 0x0 REVERT JUMPDEST PUSH1 0x0 PUSH2 0x80D DUP3 PUSH2 0x7C9 JUMP JUMPDEST SWAP2 POP PUSH2 0x818 DUP4 PUSH2 0x7C9 JUMP JUMPDEST SWAP3 POP DUP3 PUSH32 0xFFFFFFFFFFFFFFFFFFFFFFFFFFFFFFFFFFFFFFFFFFFFFFFFFFFFFFFFFFFFFFFF SUB DUP3 GT ISZERO PUSH2 0x84D JUMPI PUSH2 0x84C PUSH2 0x7D3 JUMP JUMPDEST JUMPDEST DUP3 DUP3 ADD SWAP1 POP SWAP3 SWAP2 POP POP JUMP JUMPDEST PUSH1 0x0 PUSH2 0x863 DUP3 PUSH2 0x536 JUMP JUMPDEST SWAP1 POP SWAP2 SWAP1 POP JUMP JUMPDEST PUSH2 0x873 DUP2 PUSH2 0x858 JUMP JUMPDEST DUP3 MSTORE POP POP JUMP JUMPDEST PUSH2 0x882 DUP2 PUSH2 0x7C9 JUMP JUMPDEST DUP3 MSTORE POP POP JUMP JUMPDEST PUSH1 0x0 PUSH1 0x40 DUP3 ADD SWAP1 POP PUSH2 0x89D PUSH1 0x0 DUP4 ADD DUP6 PUSH2 0x86A JUMP JUMPDEST PUSH2 0x8AA PUSH1 0x20 DUP4 ADD DUP5 PUSH2 0x879 JUMP JUMPDEST SWAP4 SWAP3 POP POP POP JUMP JUMPDEST PUSH32 0x54686520476F616C206973207265616368656400000000000000000000000000 PUSH1 0x0 DUP3 ADD MSTORE POP JUMP JUMPDEST PUSH1 0x0 PUSH2 0x8E7 PUSH1 0x13 DUP4 PUSH2 0x5C1 JUMP JUMPDEST SWAP2 POP PUSH2 0x8F2 DUP3 PUSH2 0x8B1 JUMP JUMPDEST PUSH1 0x20 DUP3 ADD SWAP1 POP SWAP2 SWAP1 POP JUMP JUMPDEST PUSH1 0x0 PUSH1 0x40 DUP3 ADD SWAP1 POP DUP2 DUP2 SUB PUSH1 0x0 DUP4 ADD MSTORE PUSH2 0x916 DUP2 PUSH2 0x8DA JUMP JUMPDEST SWAP1 POP DUP2 DUP2 SUB PUSH1 0x20 DUP4 ADD MSTORE PUSH2 0x92A DUP2 DUP5 PUSH2 0x693 JUMP JUMPDEST SWAP1 POP SWAP3 SWAP2 POP POP JUMP INVALID LOG2 PUSH5 0x6970667358 0x22 SLT KECCAK256 PUSH31 0x13EB572A68D47E32C00AB715871BBD2592952801967F7E0718ADAC1E557E95 PUSH5 0x736F6C6343 STOP ADDMOD 0xD STOP CALLER "
				},
				"gasEstimates": {
					"creation": {
						"codeDepositCost": "1603600",
						"executionCost": "infinite",
						"totalCost": "infinite"
					},
					"external": {
						"contribute(address)": "infinite",
						"getProjectByAddressCreator(address)": "infinite",
						"retreiveFunds()": "infinite",
						"returnAllProjects()": "infinite",
						"startProject(string,string,uint256,uint256)": "infinite"
					},
					"internal": {
						"checkProjectExistence(address)": "infinite"
					}
				},
				"methodIdentifiers": {
					"contribute(address)": "73e888fd",
					"getProjectByAddressCreator(address)": "4bf28d9e",
					"retreiveFunds()": "1beab5e8",
					"returnAllProjects()": "85b6e28e",
					"startProject(string,string,uint256,uint256)": "a24a2d16"
				}
			},
			"storageLayout": {
				"storage": [
					{
						"astId": 10,
						"contract": "contracts/Crowfunding.sol:Crowfunding",
						"label": "projects",
						"offset": 0,
						"slot": "0",
						"type": "t_array(t_contract(Project)583)dyn_storage"
					}
				],
				"types": {
					"t_array(t_contract(Project)583)dyn_storage": {
						"base": "t_contract(Project)583",
						"encoding": "dynamic_array",
						"label": "contract Project[]",
						"numberOfBytes": "32"
					},
					"t_contract(Project)583": {
						"encoding": "inplace",
						"label": "contract Project",
						"numberOfBytes": "20"
					}
				}
			},
			"userdoc": {
				"kind": "user",
				"methods": {},
				"version": 1
			}
		}
	}
}