{
	"contracts/Project.sol": {
		"Project": {
			"abi": [
				{
					"inputs": [
						{
							"internalType": "address payable",
							"name": "_projectCreator",
							"type": "address"
						},
						{
							"internalType": "string",
							"name": "_projectTitle",
							"type": "string"
						},
						{
							"internalType": "string",
							"name": "_projectDescription",
							"type": "string"
						},
						{
							"internalType": "uint256",
							"name": "_amountGoal",
							"type": "uint256"
						},
						{
							"internalType": "uint256",
							"name": "_deadLine",
							"type": "uint256"
						}
					],
					"stateMutability": "nonpayable",
					"type": "constructor"
				},
				{
					"inputs": [],
					"name": "getProjectTitle",
					"outputs": [
						{
							"internalType": "string",
							"name": "",
							"type": "string"
						}
					],
					"stateMutability": "view",
					"type": "function"
				},
				{
					"inputs": [],
					"name": "projectCreator",
					"outputs": [
						{
							"internalType": "address payable",
							"name": "",
							"type": "address"
						}
					],
					"stateMutability": "view",
					"type": "function"
				},
				{
					"inputs": [
						{
							"internalType": "string",
							"name": "_projectTitle",
							"type": "string"
						}
					],
					"name": "setProjectTitle",
					"outputs": [],
					"stateMutability": "nonpayable",
					"type": "function"
				},
				{
					"inputs": [
						{
							"internalType": "string",
							"name": "_projectTitle",
							"type": "string"
						},
						{
							"internalType": "string",
							"name": "_projectDescription",
							"type": "string"
						},
						{
							"internalType": "uint256",
							"name": "_amountGoal",
							"type": "uint256"
						},
						{
							"internalType": "uint256",
							"name": "_deadLine",
							"type": "uint256"
						}
					],
					"name": "start",
					"outputs": [],
					"stateMutability": "nonpayable",
					"type": "function"
				}
			],
			"devdoc": {
				"kind": "dev",
				"methods": {},
				"version": 1
			},
			"evm": {
				"assembly": "    /* \"contracts/Project.sol\":62:1500  contract Project {... */\n  mstore(0x40, 0x80)\n    /* \"contracts/Project.sol\":434:860  constructor... */\n  callvalue\n  dup1\n  iszero\n  tag_1\n  jumpi\n  0x00\n  dup1\n  revert\ntag_1:\n  pop\n  mload(0x40)\n  sub(codesize, bytecodeSize)\n  dup1\n  bytecodeSize\n  dup4\n  codecopy\n  dup2\n  dup2\n  add\n  0x40\n  mstore\n  dup2\n  add\n  swap1\n  tag_2\n  swap2\n  swap1\n  tag_3\n  jump\t// in\ntag_2:\n    /* \"contracts/Project.sol\":658:673  _projectCreator */\n  dup5\n    /* \"contracts/Project.sol\":641:655  projectCreator */\n  0x00\n  dup1\n    /* \"contracts/Project.sol\":641:673  projectCreator = _projectCreator */\n  0x0100\n  exp\n  dup2\n  sload\n  dup2\n  0xffffffffffffffffffffffffffffffffffffffff\n  mul\n  not\n  and\n  swap1\n  dup4\n  0xffffffffffffffffffffffffffffffffffffffff\n  and\n  mul\n  or\n  swap1\n  sstore\n  pop\n    /* \"contracts/Project.sol\":698:711  _projectTitle */\n  dup4\n    /* \"contracts/Project.sol\":683:695  projectTitle */\n  0x01\n    /* \"contracts/Project.sol\":683:711  projectTitle = _projectTitle */\n  swap1\n  dup1\n  mload\n  swap1\n  0x20\n  add\n  swap1\n  tag_6\n  swap3\n  swap2\n  swap1\n  tag_7\n  jump\t// in\ntag_6:\n  pop\n    /* \"contracts/Project.sol\":742:761  _projectDescription */\n  dup3\n    /* \"contracts/Project.sol\":721:739  projectDescription */\n  0x02\n    /* \"contracts/Project.sol\":721:761  projectDescription = _projectDescription */\n  swap1\n  dup1\n  mload\n  swap1\n  0x20\n  add\n  swap1\n  tag_8\n  swap3\n  swap2\n  swap1\n  tag_7\n  jump\t// in\ntag_8:\n  pop\n    /* \"contracts/Project.sol\":784:795  _amountGoal */\n  dup2\n    /* \"contracts/Project.sol\":771:781  amountGoal */\n  0x03\n    /* \"contracts/Project.sol\":771:795  amountGoal = _amountGoal */\n  dup2\n  swap1\n  sstore\n  pop\n    /* \"contracts/Project.sol\":816:825  _deadLine */\n  dup1\n    /* \"contracts/Project.sol\":805:813  deadLine */\n  0x06\n    /* \"contracts/Project.sol\":805:825  deadLine = _deadLine */\n  dup2\n  swap1\n  sstore\n  pop\n    /* \"contracts/Project.sol\":852:853  0 */\n  0x00\n    /* \"contracts/Project.sol\":835:849  currentBalance */\n  0x04\n    /* \"contracts/Project.sol\":835:853  currentBalance = 0 */\n  dup2\n  swap1\n  sstore\n  pop\n    /* \"contracts/Project.sol\":434:860  constructor... */\n  pop\n  pop\n  pop\n  pop\n  pop\n    /* \"contracts/Project.sol\":62:1500  contract Project {... */\n  jump(tag_9)\ntag_7:\n  dup3\n  dup1\n  sload\n  tag_10\n  swap1\n  tag_11\n  jump\t// in\ntag_10:\n  swap1\n  0x00\n  mstore\n  keccak256(0x00, 0x20)\n  swap1\n  0x1f\n  add\n  0x20\n  swap1\n  div\n  dup2\n  add\n  swap3\n  dup3\n  tag_13\n  jumpi\n  0x00\n  dup6\n  sstore\n  jump(tag_12)\ntag_13:\n  dup3\n  0x1f\n  lt\n  tag_14\n  jumpi\n  dup1\n  mload\n  not(0xff)\n  and\n  dup4\n  dup1\n  add\n  or\n  dup6\n  sstore\n  jump(tag_12)\ntag_14:\n  dup3\n  dup1\n  add\n  0x01\n  add\n  dup6\n  sstore\n  dup3\n  iszero\n  tag_12\n  jumpi\n  swap2\n  dup3\n  add\ntag_15:\n  dup3\n  dup2\n  gt\n  iszero\n  tag_16\n  jumpi\n  dup3\n  mload\n  dup3\n  sstore\n  swap2\n  0x20\n  add\n  swap2\n  swap1\n  0x01\n  add\n  swap1\n  jump(tag_15)\ntag_16:\ntag_12:\n  pop\n  swap1\n  pop\n  tag_17\n  swap2\n  swap1\n  tag_18\n  jump\t// in\ntag_17:\n  pop\n  swap1\n  jump\t// out\ntag_18:\ntag_19:\n  dup1\n  dup3\n  gt\n  iszero\n  tag_20\n  jumpi\n  0x00\n  dup2\n  0x00\n  swap1\n  sstore\n  pop\n  0x01\n  add\n  jump(tag_19)\ntag_20:\n  pop\n  swap1\n  jump\t// out\n    /* \"#utility.yul\":7:82   */\ntag_21:\n    /* \"#utility.yul\":40:46   */\n  0x00\n    /* \"#utility.yul\":73:75   */\n  0x40\n    /* \"#utility.yul\":67:76   */\n  mload\n    /* \"#utility.yul\":57:76   */\n  swap1\n  pop\n    /* \"#utility.yul\":7:82   */\n  swap1\n  jump\t// out\n    /* \"#utility.yul\":88:205   */\ntag_22:\n    /* \"#utility.yul\":197:198   */\n  0x00\n    /* \"#utility.yul\":194:195   */\n  dup1\n    /* \"#utility.yul\":187:199   */\n  revert\n    /* \"#utility.yul\":211:328   */\ntag_23:\n    /* \"#utility.yul\":320:321   */\n  0x00\n    /* \"#utility.yul\":317:318   */\n  dup1\n    /* \"#utility.yul\":310:322   */\n  revert\n    /* \"#utility.yul\":334:460   */\ntag_24:\n    /* \"#utility.yul\":371:378   */\n  0x00\n    /* \"#utility.yul\":411:453   */\n  0xffffffffffffffffffffffffffffffffffffffff\n    /* \"#utility.yul\":404:409   */\n  dup3\n    /* \"#utility.yul\":400:454   */\n  and\n    /* \"#utility.yul\":389:454   */\n  swap1\n  pop\n    /* \"#utility.yul\":334:460   */\n  swap2\n  swap1\n  pop\n  jump\t// out\n    /* \"#utility.yul\":466:570   */\ntag_25:\n    /* \"#utility.yul\":511:518   */\n  0x00\n    /* \"#utility.yul\":540:564   */\n  tag_48\n    /* \"#utility.yul\":558:563   */\n  dup3\n    /* \"#utility.yul\":540:564   */\n  tag_24\n  jump\t// in\ntag_48:\n    /* \"#utility.yul\":529:564   */\n  swap1\n  pop\n    /* \"#utility.yul\":466:570   */\n  swap2\n  swap1\n  pop\n  jump\t// out\n    /* \"#utility.yul\":576:714   */\ntag_26:\n    /* \"#utility.yul\":657:689   */\n  tag_50\n    /* \"#utility.yul\":683:688   */\n  dup2\n    /* \"#utility.yul\":657:689   */\n  tag_25\n  jump\t// in\ntag_50:\n    /* \"#utility.yul\":650:655   */\n  dup2\n    /* \"#utility.yul\":647:690   */\n  eq\n    /* \"#utility.yul\":637:708   */\n  tag_51\n  jumpi\n    /* \"#utility.yul\":704:705   */\n  0x00\n    /* \"#utility.yul\":701:702   */\n  dup1\n    /* \"#utility.yul\":694:706   */\n  revert\n    /* \"#utility.yul\":637:708   */\ntag_51:\n    /* \"#utility.yul\":576:714   */\n  pop\n  jump\t// out\n    /* \"#utility.yul\":720:879   */\ntag_27:\n    /* \"#utility.yul\":785:790   */\n  0x00\n    /* \"#utility.yul\":816:822   */\n  dup2\n    /* \"#utility.yul\":810:823   */\n  mload\n    /* \"#utility.yul\":801:823   */\n  swap1\n  pop\n    /* \"#utility.yul\":832:873   */\n  tag_53\n    /* \"#utility.yul\":867:872   */\n  dup2\n    /* \"#utility.yul\":832:873   */\n  tag_26\n  jump\t// in\ntag_53:\n    /* \"#utility.yul\":720:879   */\n  swap3\n  swap2\n  pop\n  pop\n  jump\t// out\n    /* \"#utility.yul\":885:1002   */\ntag_28:\n    /* \"#utility.yul\":994:995   */\n  0x00\n    /* \"#utility.yul\":991:992   */\n  dup1\n    /* \"#utility.yul\":984:996   */\n  revert\n    /* \"#utility.yul\":1008:1125   */\ntag_29:\n    /* \"#utility.yul\":1117:1118   */\n  0x00\n    /* \"#utility.yul\":1114:1115   */\n  dup1\n    /* \"#utility.yul\":1107:1119   */\n  revert\n    /* \"#utility.yul\":1131:1233   */\ntag_30:\n    /* \"#utility.yul\":1172:1178   */\n  0x00\n    /* \"#utility.yul\":1223:1225   */\n  0x1f\n    /* \"#utility.yul\":1219:1226   */\n  not\n    /* \"#utility.yul\":1214:1216   */\n  0x1f\n    /* \"#utility.yul\":1207:1212   */\n  dup4\n    /* \"#utility.yul\":1203:1217   */\n  add\n    /* \"#utility.yul\":1199:1227   */\n  and\n    /* \"#utility.yul\":1189:1227   */\n  swap1\n  pop\n    /* \"#utility.yul\":1131:1233   */\n  swap2\n  swap1\n  pop\n  jump\t// out\n    /* \"#utility.yul\":1239:1419   */\ntag_31:\n    /* \"#utility.yul\":1287:1364   */\n  0x4e487b7100000000000000000000000000000000000000000000000000000000\n    /* \"#utility.yul\":1284:1285   */\n  0x00\n    /* \"#utility.yul\":1277:1365   */\n  mstore\n    /* \"#utility.yul\":1384:1388   */\n  0x41\n    /* \"#utility.yul\":1381:1382   */\n  0x04\n    /* \"#utility.yul\":1374:1389   */\n  mstore\n    /* \"#utility.yul\":1408:1412   */\n  0x24\n    /* \"#utility.yul\":1405:1406   */\n  0x00\n    /* \"#utility.yul\":1398:1413   */\n  revert\n    /* \"#utility.yul\":1425:1706   */\ntag_32:\n    /* \"#utility.yul\":1508:1535   */\n  tag_59\n    /* \"#utility.yul\":1530:1534   */\n  dup3\n    /* \"#utility.yul\":1508:1535   */\n  tag_30\n  jump\t// in\ntag_59:\n    /* \"#utility.yul\":1500:1506   */\n  dup2\n    /* \"#utility.yul\":1496:1536   */\n  add\n    /* \"#utility.yul\":1638:1644   */\n  dup2\n    /* \"#utility.yul\":1626:1636   */\n  dup2\n    /* \"#utility.yul\":1623:1645   */\n  lt\n    /* \"#utility.yul\":1602:1620   */\n  0xffffffffffffffff\n    /* \"#utility.yul\":1590:1600   */\n  dup3\n    /* \"#utility.yul\":1587:1621   */\n  gt\n    /* \"#utility.yul\":1584:1646   */\n  or\n    /* \"#utility.yul\":1581:1669   */\n  iszero\n  tag_60\n  jumpi\n    /* \"#utility.yul\":1649:1667   */\n  tag_61\n  tag_31\n  jump\t// in\ntag_61:\n    /* \"#utility.yul\":1581:1669   */\ntag_60:\n    /* \"#utility.yul\":1689:1699   */\n  dup1\n    /* \"#utility.yul\":1685:1687   */\n  0x40\n    /* \"#utility.yul\":1678:1700   */\n  mstore\n    /* \"#utility.yul\":1468:1706   */\n  pop\n    /* \"#utility.yul\":1425:1706   */\n  pop\n  pop\n  jump\t// out\n    /* \"#utility.yul\":1712:1841   */\ntag_33:\n    /* \"#utility.yul\":1746:1752   */\n  0x00\n    /* \"#utility.yul\":1773:1793   */\n  tag_63\n  tag_21\n  jump\t// in\ntag_63:\n    /* \"#utility.yul\":1763:1793   */\n  swap1\n  pop\n    /* \"#utility.yul\":1802:1835   */\n  tag_64\n    /* \"#utility.yul\":1830:1834   */\n  dup3\n    /* \"#utility.yul\":1822:1828   */\n  dup3\n    /* \"#utility.yul\":1802:1835   */\n  tag_32\n  jump\t// in\ntag_64:\n    /* \"#utility.yul\":1712:1841   */\n  swap2\n  swap1\n  pop\n  jump\t// out\n    /* \"#utility.yul\":1847:2155   */\ntag_34:\n    /* \"#utility.yul\":1909:1913   */\n  0x00\n    /* \"#utility.yul\":1999:2017   */\n  0xffffffffffffffff\n    /* \"#utility.yul\":1991:1997   */\n  dup3\n    /* \"#utility.yul\":1988:2018   */\n  gt\n    /* \"#utility.yul\":1985:2041   */\n  iszero\n  tag_66\n  jumpi\n    /* \"#utility.yul\":2021:2039   */\n  tag_67\n  tag_31\n  jump\t// in\ntag_67:\n    /* \"#utility.yul\":1985:2041   */\ntag_66:\n    /* \"#utility.yul\":2059:2088   */\n  tag_68\n    /* \"#utility.yul\":2081:2087   */\n  dup3\n    /* \"#utility.yul\":2059:2088   */\n  tag_30\n  jump\t// in\ntag_68:\n    /* \"#utility.yul\":2051:2088   */\n  swap1\n  pop\n    /* \"#utility.yul\":2143:2147   */\n  0x20\n    /* \"#utility.yul\":2137:2141   */\n  dup2\n    /* \"#utility.yul\":2133:2148   */\n  add\n    /* \"#utility.yul\":2125:2148   */\n  swap1\n  pop\n    /* \"#utility.yul\":1847:2155   */\n  swap2\n  swap1\n  pop\n  jump\t// out\n    /* \"#utility.yul\":2161:2468   */\ntag_35:\n    /* \"#utility.yul\":2229:2230   */\n  0x00\n    /* \"#utility.yul\":2239:2352   */\ntag_70:\n    /* \"#utility.yul\":2253:2259   */\n  dup4\n    /* \"#utility.yul\":2250:2251   */\n  dup2\n    /* \"#utility.yul\":2247:2260   */\n  lt\n    /* \"#utility.yul\":2239:2352   */\n  iszero\n  tag_72\n  jumpi\n    /* \"#utility.yul\":2338:2339   */\n  dup1\n    /* \"#utility.yul\":2333:2336   */\n  dup3\n    /* \"#utility.yul\":2329:2340   */\n  add\n    /* \"#utility.yul\":2323:2341   */\n  mload\n    /* \"#utility.yul\":2319:2320   */\n  dup2\n    /* \"#utility.yul\":2314:2317   */\n  dup5\n    /* \"#utility.yul\":2310:2321   */\n  add\n    /* \"#utility.yul\":2303:2342   */\n  mstore\n    /* \"#utility.yul\":2275:2277   */\n  0x20\n    /* \"#utility.yul\":2272:2273   */\n  dup2\n    /* \"#utility.yul\":2268:2278   */\n  add\n    /* \"#utility.yul\":2263:2278   */\n  swap1\n  pop\n    /* \"#utility.yul\":2239:2352   */\n  jump(tag_70)\ntag_72:\n    /* \"#utility.yul\":2370:2376   */\n  dup4\n    /* \"#utility.yul\":2367:2368   */\n  dup2\n    /* \"#utility.yul\":2364:2377   */\n  gt\n    /* \"#utility.yul\":2361:2462   */\n  iszero\n  tag_73\n  jumpi\n    /* \"#utility.yul\":2450:2451   */\n  0x00\n    /* \"#utility.yul\":2441:2447   */\n  dup5\n    /* \"#utility.yul\":2436:2439   */\n  dup5\n    /* \"#utility.yul\":2432:2448   */\n  add\n    /* \"#utility.yul\":2425:2452   */\n  mstore\n    /* \"#utility.yul\":2361:2462   */\ntag_73:\n    /* \"#utility.yul\":2210:2468   */\n  pop\n    /* \"#utility.yul\":2161:2468   */\n  pop\n  pop\n  pop\n  jump\t// out\n    /* \"#utility.yul\":2474:2895   */\ntag_36:\n    /* \"#utility.yul\":2563:2568   */\n  0x00\n    /* \"#utility.yul\":2588:2654   */\n  tag_75\n    /* \"#utility.yul\":2604:2653   */\n  tag_76\n    /* \"#utility.yul\":2646:2652   */\n  dup5\n    /* \"#utility.yul\":2604:2653   */\n  tag_34\n  jump\t// in\ntag_76:\n    /* \"#utility.yul\":2588:2654   */\n  tag_33\n  jump\t// in\ntag_75:\n    /* \"#utility.yul\":2579:2654   */\n  swap1\n  pop\n    /* \"#utility.yul\":2677:2683   */\n  dup3\n    /* \"#utility.yul\":2670:2675   */\n  dup2\n    /* \"#utility.yul\":2663:2684   */\n  mstore\n    /* \"#utility.yul\":2715:2719   */\n  0x20\n    /* \"#utility.yul\":2708:2713   */\n  dup2\n    /* \"#utility.yul\":2704:2720   */\n  add\n    /* \"#utility.yul\":2753:2756   */\n  dup5\n    /* \"#utility.yul\":2744:2750   */\n  dup5\n    /* \"#utility.yul\":2739:2742   */\n  dup5\n    /* \"#utility.yul\":2735:2751   */\n  add\n    /* \"#utility.yul\":2732:2757   */\n  gt\n    /* \"#utility.yul\":2729:2841   */\n  iszero\n  tag_77\n  jumpi\n    /* \"#utility.yul\":2760:2839   */\n  tag_78\n  tag_29\n  jump\t// in\ntag_78:\n    /* \"#utility.yul\":2729:2841   */\ntag_77:\n    /* \"#utility.yul\":2850:2889   */\n  tag_79\n    /* \"#utility.yul\":2882:2888   */\n  dup5\n    /* \"#utility.yul\":2877:2880   */\n  dup3\n    /* \"#utility.yul\":2872:2875   */\n  dup6\n    /* \"#utility.yul\":2850:2889   */\n  tag_35\n  jump\t// in\ntag_79:\n    /* \"#utility.yul\":2569:2895   */\n  pop\n    /* \"#utility.yul\":2474:2895   */\n  swap4\n  swap3\n  pop\n  pop\n  pop\n  jump\t// out\n    /* \"#utility.yul\":2915:3270   */\ntag_37:\n    /* \"#utility.yul\":2982:2987   */\n  0x00\n    /* \"#utility.yul\":3031:3034   */\n  dup3\n    /* \"#utility.yul\":3024:3028   */\n  0x1f\n    /* \"#utility.yul\":3016:3022   */\n  dup4\n    /* \"#utility.yul\":3012:3029   */\n  add\n    /* \"#utility.yul\":3008:3035   */\n  slt\n    /* \"#utility.yul\":2998:3120   */\n  tag_81\n  jumpi\n    /* \"#utility.yul\":3039:3118   */\n  tag_82\n  tag_28\n  jump\t// in\ntag_82:\n    /* \"#utility.yul\":2998:3120   */\ntag_81:\n    /* \"#utility.yul\":3149:3155   */\n  dup2\n    /* \"#utility.yul\":3143:3156   */\n  mload\n    /* \"#utility.yul\":3174:3264   */\n  tag_83\n    /* \"#utility.yul\":3260:3263   */\n  dup5\n    /* \"#utility.yul\":3252:3258   */\n  dup3\n    /* \"#utility.yul\":3245:3249   */\n  0x20\n    /* \"#utility.yul\":3237:3243   */\n  dup7\n    /* \"#utility.yul\":3233:3250   */\n  add\n    /* \"#utility.yul\":3174:3264   */\n  tag_36\n  jump\t// in\ntag_83:\n    /* \"#utility.yul\":3165:3264   */\n  swap2\n  pop\n    /* \"#utility.yul\":2988:3270   */\n  pop\n    /* \"#utility.yul\":2915:3270   */\n  swap3\n  swap2\n  pop\n  pop\n  jump\t// out\n    /* \"#utility.yul\":3276:3353   */\ntag_38:\n    /* \"#utility.yul\":3313:3320   */\n  0x00\n    /* \"#utility.yul\":3342:3347   */\n  dup2\n    /* \"#utility.yul\":3331:3347   */\n  swap1\n  pop\n    /* \"#utility.yul\":3276:3353   */\n  swap2\n  swap1\n  pop\n  jump\t// out\n    /* \"#utility.yul\":3359:3481   */\ntag_39:\n    /* \"#utility.yul\":3432:3456   */\n  tag_86\n    /* \"#utility.yul\":3450:3455   */\n  dup2\n    /* \"#utility.yul\":3432:3456   */\n  tag_38\n  jump\t// in\ntag_86:\n    /* \"#utility.yul\":3425:3430   */\n  dup2\n    /* \"#utility.yul\":3422:3457   */\n  eq\n    /* \"#utility.yul\":3412:3475   */\n  tag_87\n  jumpi\n    /* \"#utility.yul\":3471:3472   */\n  0x00\n    /* \"#utility.yul\":3468:3469   */\n  dup1\n    /* \"#utility.yul\":3461:3473   */\n  revert\n    /* \"#utility.yul\":3412:3475   */\ntag_87:\n    /* \"#utility.yul\":3359:3481   */\n  pop\n  jump\t// out\n    /* \"#utility.yul\":3487:3630   */\ntag_40:\n    /* \"#utility.yul\":3544:3549   */\n  0x00\n    /* \"#utility.yul\":3575:3581   */\n  dup2\n    /* \"#utility.yul\":3569:3582   */\n  mload\n    /* \"#utility.yul\":3560:3582   */\n  swap1\n  pop\n    /* \"#utility.yul\":3591:3624   */\n  tag_89\n    /* \"#utility.yul\":3618:3623   */\n  dup2\n    /* \"#utility.yul\":3591:3624   */\n  tag_39\n  jump\t// in\ntag_89:\n    /* \"#utility.yul\":3487:3630   */\n  swap3\n  swap2\n  pop\n  pop\n  jump\t// out\n    /* \"#utility.yul\":3636:4975   */\ntag_3:\n    /* \"#utility.yul\":3770:3776   */\n  0x00\n    /* \"#utility.yul\":3778:3784   */\n  dup1\n    /* \"#utility.yul\":3786:3792   */\n  0x00\n    /* \"#utility.yul\":3794:3800   */\n  dup1\n    /* \"#utility.yul\":3802:3808   */\n  0x00\n    /* \"#utility.yul\":3851:3854   */\n  0xa0\n    /* \"#utility.yul\":3839:3848   */\n  dup7\n    /* \"#utility.yul\":3830:3837   */\n  dup9\n    /* \"#utility.yul\":3826:3849   */\n  sub\n    /* \"#utility.yul\":3822:3855   */\n  slt\n    /* \"#utility.yul\":3819:3939   */\n  iszero\n  tag_91\n  jumpi\n    /* \"#utility.yul\":3858:3937   */\n  tag_92\n  tag_22\n  jump\t// in\ntag_92:\n    /* \"#utility.yul\":3819:3939   */\ntag_91:\n    /* \"#utility.yul\":3978:3979   */\n  0x00\n    /* \"#utility.yul\":4003:4075   */\n  tag_93\n    /* \"#utility.yul\":4067:4074   */\n  dup9\n    /* \"#utility.yul\":4058:4064   */\n  dup3\n    /* \"#utility.yul\":4047:4056   */\n  dup10\n    /* \"#utility.yul\":4043:4065   */\n  add\n    /* \"#utility.yul\":4003:4075   */\n  tag_27\n  jump\t// in\ntag_93:\n    /* \"#utility.yul\":3993:4075   */\n  swap6\n  pop\n    /* \"#utility.yul\":3949:4085   */\n  pop\n    /* \"#utility.yul\":4145:4147   */\n  0x20\n    /* \"#utility.yul\":4134:4143   */\n  dup7\n    /* \"#utility.yul\":4130:4148   */\n  add\n    /* \"#utility.yul\":4124:4149   */\n  mload\n    /* \"#utility.yul\":4176:4194   */\n  0xffffffffffffffff\n    /* \"#utility.yul\":4168:4174   */\n  dup2\n    /* \"#utility.yul\":4165:4195   */\n  gt\n    /* \"#utility.yul\":4162:4279   */\n  iszero\n  tag_94\n  jumpi\n    /* \"#utility.yul\":4198:4277   */\n  tag_95\n  tag_23\n  jump\t// in\ntag_95:\n    /* \"#utility.yul\":4162:4279   */\ntag_94:\n    /* \"#utility.yul\":4303:4377   */\n  tag_96\n    /* \"#utility.yul\":4369:4376   */\n  dup9\n    /* \"#utility.yul\":4360:4366   */\n  dup3\n    /* \"#utility.yul\":4349:4358   */\n  dup10\n    /* \"#utility.yul\":4345:4367   */\n  add\n    /* \"#utility.yul\":4303:4377   */\n  tag_37\n  jump\t// in\ntag_96:\n    /* \"#utility.yul\":4293:4377   */\n  swap5\n  pop\n    /* \"#utility.yul\":4095:4387   */\n  pop\n    /* \"#utility.yul\":4447:4449   */\n  0x40\n    /* \"#utility.yul\":4436:4445   */\n  dup7\n    /* \"#utility.yul\":4432:4450   */\n  add\n    /* \"#utility.yul\":4426:4451   */\n  mload\n    /* \"#utility.yul\":4478:4496   */\n  0xffffffffffffffff\n    /* \"#utility.yul\":4470:4476   */\n  dup2\n    /* \"#utility.yul\":4467:4497   */\n  gt\n    /* \"#utility.yul\":4464:4581   */\n  iszero\n  tag_97\n  jumpi\n    /* \"#utility.yul\":4500:4579   */\n  tag_98\n  tag_23\n  jump\t// in\ntag_98:\n    /* \"#utility.yul\":4464:4581   */\ntag_97:\n    /* \"#utility.yul\":4605:4679   */\n  tag_99\n    /* \"#utility.yul\":4671:4678   */\n  dup9\n    /* \"#utility.yul\":4662:4668   */\n  dup3\n    /* \"#utility.yul\":4651:4660   */\n  dup10\n    /* \"#utility.yul\":4647:4669   */\n  add\n    /* \"#utility.yul\":4605:4679   */\n  tag_37\n  jump\t// in\ntag_99:\n    /* \"#utility.yul\":4595:4679   */\n  swap4\n  pop\n    /* \"#utility.yul\":4397:4689   */\n  pop\n    /* \"#utility.yul\":4728:4730   */\n  0x60\n    /* \"#utility.yul\":4754:4818   */\n  tag_100\n    /* \"#utility.yul\":4810:4817   */\n  dup9\n    /* \"#utility.yul\":4801:4807   */\n  dup3\n    /* \"#utility.yul\":4790:4799   */\n  dup10\n    /* \"#utility.yul\":4786:4808   */\n  add\n    /* \"#utility.yul\":4754:4818   */\n  tag_40\n  jump\t// in\ntag_100:\n    /* \"#utility.yul\":4744:4818   */\n  swap3\n  pop\n    /* \"#utility.yul\":4699:4828   */\n  pop\n    /* \"#utility.yul\":4867:4870   */\n  0x80\n    /* \"#utility.yul\":4894:4958   */\n  tag_101\n    /* \"#utility.yul\":4950:4957   */\n  dup9\n    /* \"#utility.yul\":4941:4947   */\n  dup3\n    /* \"#utility.yul\":4930:4939   */\n  dup10\n    /* \"#utility.yul\":4926:4948   */\n  add\n    /* \"#utility.yul\":4894:4958   */\n  tag_40\n  jump\t// in\ntag_101:\n    /* \"#utility.yul\":4884:4958   */\n  swap2\n  pop\n    /* \"#utility.yul\":4838:4968   */\n  pop\n    /* \"#utility.yul\":3636:4975   */\n  swap3\n  swap6\n  pop\n  swap3\n  swap6\n  swap1\n  swap4\n  pop\n  jump\t// out\n    /* \"#utility.yul\":4981:5161   */\ntag_41:\n    /* \"#utility.yul\":5029:5106   */\n  0x4e487b7100000000000000000000000000000000000000000000000000000000\n    /* \"#utility.yul\":5026:5027   */\n  0x00\n    /* \"#utility.yul\":5019:5107   */\n  mstore\n    /* \"#utility.yul\":5126:5130   */\n  0x22\n    /* \"#utility.yul\":5123:5124   */\n  0x04\n    /* \"#utility.yul\":5116:5131   */\n  mstore\n    /* \"#utility.yul\":5150:5154   */\n  0x24\n    /* \"#utility.yul\":5147:5148   */\n  0x00\n    /* \"#utility.yul\":5140:5155   */\n  revert\n    /* \"#utility.yul\":5167:5487   */\ntag_11:\n    /* \"#utility.yul\":5211:5217   */\n  0x00\n    /* \"#utility.yul\":5248:5249   */\n  0x02\n    /* \"#utility.yul\":5242:5246   */\n  dup3\n    /* \"#utility.yul\":5238:5250   */\n  div\n    /* \"#utility.yul\":5228:5250   */\n  swap1\n  pop\n    /* \"#utility.yul\":5295:5296   */\n  0x01\n    /* \"#utility.yul\":5289:5293   */\n  dup3\n    /* \"#utility.yul\":5285:5297   */\n  and\n    /* \"#utility.yul\":5316:5334   */\n  dup1\n    /* \"#utility.yul\":5306:5387   */\n  tag_104\n  jumpi\n    /* \"#utility.yul\":5372:5376   */\n  0x7f\n    /* \"#utility.yul\":5364:5370   */\n  dup3\n    /* \"#utility.yul\":5360:5377   */\n  and\n    /* \"#utility.yul\":5350:5377   */\n  swap2\n  pop\n    /* \"#utility.yul\":5306:5387   */\ntag_104:\n    /* \"#utility.yul\":5434:5436   */\n  0x20\n    /* \"#utility.yul\":5426:5432   */\n  dup3\n    /* \"#utility.yul\":5423:5437   */\n  lt\n    /* \"#utility.yul\":5403:5421   */\n  dup2\n    /* \"#utility.yul\":5400:5438   */\n  sub\n    /* \"#utility.yul\":5397:5481   */\n  tag_105\n  jumpi\n    /* \"#utility.yul\":5453:5471   */\n  tag_106\n  tag_41\n  jump\t// in\ntag_106:\n    /* \"#utility.yul\":5397:5481   */\ntag_105:\n    /* \"#utility.yul\":5218:5487   */\n  pop\n    /* \"#utility.yul\":5167:5487   */\n  swap2\n  swap1\n  pop\n  jump\t// out\n    /* \"contracts/Project.sol\":62:1500  contract Project {... */\ntag_9:\n  dataSize(sub_0)\n  dup1\n  dataOffset(sub_0)\n  0x00\n  codecopy\n  0x00\n  return\nstop\n\nsub_0: assembly {\n        /* \"contracts/Project.sol\":62:1500  contract Project {... */\n      mstore(0x40, 0x80)\n      callvalue\n      dup1\n      iszero\n      tag_1\n      jumpi\n      0x00\n      dup1\n      revert\n    tag_1:\n      pop\n      jumpi(tag_2, lt(calldatasize, 0x04))\n      shr(0xe0, calldataload(0x00))\n      dup1\n      0x400ffb33\n      eq\n      tag_3\n      jumpi\n      dup1\n      0xa541a2a2\n      eq\n      tag_4\n      jumpi\n      dup1\n      0xa8b93c8d\n      eq\n      tag_5\n      jumpi\n      dup1\n      0xf020cd19\n      eq\n      tag_6\n      jumpi\n    tag_2:\n      0x00\n      dup1\n      revert\n        /* \"contracts/Project.sol\":866:1269  function start(string memory _projectTitle, string memory _projectDescription, ... */\n    tag_3:\n      tag_7\n      0x04\n      dup1\n      calldatasize\n      sub\n      dup2\n      add\n      swap1\n      tag_8\n      swap2\n      swap1\n      tag_9\n      jump\t// in\n    tag_8:\n      tag_10\n      jump\t// in\n    tag_7:\n      stop\n        /* \"contracts/Project.sol\":166:203  address payable public projectCreator */\n    tag_4:\n      tag_11\n      tag_12\n      jump\t// in\n    tag_11:\n      mload(0x40)\n      tag_13\n      swap2\n      swap1\n      tag_14\n      jump\t// in\n    tag_13:\n      mload(0x40)\n      dup1\n      swap2\n      sub\n      swap1\n      return\n        /* \"contracts/Project.sol\":1388:1494  function setProjectTitle(string memory _projectTitle) public {... */\n    tag_5:\n      tag_15\n      0x04\n      dup1\n      calldatasize\n      sub\n      dup2\n      add\n      swap1\n      tag_16\n      swap2\n      swap1\n      tag_17\n      jump\t// in\n    tag_16:\n      tag_18\n      jump\t// in\n    tag_15:\n      stop\n        /* \"contracts/Project.sol\":1280:1378  function getProjectTitle() public view returns(string memory) {... */\n    tag_6:\n      tag_19\n      tag_20\n      jump\t// in\n    tag_19:\n      mload(0x40)\n      tag_21\n      swap2\n      swap1\n      tag_22\n      jump\t// in\n    tag_21:\n      mload(0x40)\n      dup1\n      swap2\n      sub\n      swap1\n      return\n        /* \"contracts/Project.sol\":866:1269  function start(string memory _projectTitle, string memory _projectDescription, ... */\n    tag_10:\n        /* \"contracts/Project.sol\":1040:1050  msg.sender */\n      caller\n        /* \"contracts/Project.sol\":1015:1029  projectCreator */\n      0x00\n      dup1\n        /* \"contracts/Project.sol\":1015:1051  projectCreator = payable(msg.sender) */\n      0x0100\n      exp\n      dup2\n      sload\n      dup2\n      0xffffffffffffffffffffffffffffffffffffffff\n      mul\n      not\n      and\n      swap1\n      dup4\n      0xffffffffffffffffffffffffffffffffffffffff\n      and\n      mul\n      or\n      swap1\n      sstore\n      pop\n        /* \"contracts/Project.sol\":1080:1093  _projectTitle */\n      dup4\n        /* \"contracts/Project.sol\":1065:1077  projectTitle */\n      0x01\n        /* \"contracts/Project.sol\":1065:1093  projectTitle = _projectTitle */\n      swap1\n      dup1\n      mload\n      swap1\n      0x20\n      add\n      swap1\n      tag_24\n      swap3\n      swap2\n      swap1\n      tag_25\n      jump\t// in\n    tag_24:\n      pop\n        /* \"contracts/Project.sol\":1128:1147  _projectDescription */\n      dup3\n        /* \"contracts/Project.sol\":1107:1125  projectDescription */\n      0x02\n        /* \"contracts/Project.sol\":1107:1147  projectDescription = _projectDescription */\n      swap1\n      dup1\n      mload\n      swap1\n      0x20\n      add\n      swap1\n      tag_26\n      swap3\n      swap2\n      swap1\n      tag_25\n      jump\t// in\n    tag_26:\n      pop\n        /* \"contracts/Project.sol\":1174:1185  _amountGoal */\n      dup2\n        /* \"contracts/Project.sol\":1161:1171  amountGoal */\n      0x03\n        /* \"contracts/Project.sol\":1161:1185  amountGoal = _amountGoal */\n      dup2\n      swap1\n      sstore\n      pop\n        /* \"contracts/Project.sol\":1210:1219  _deadLine */\n      dup1\n        /* \"contracts/Project.sol\":1199:1207  deadLine */\n      0x06\n        /* \"contracts/Project.sol\":1199:1219  deadLine = _deadLine */\n      dup2\n      swap1\n      sstore\n      pop\n        /* \"contracts/Project.sol\":1241:1258  State.Fundraising */\n      0x00\n        /* \"contracts/Project.sol\":1233:1238  state */\n      0x05\n      0x00\n        /* \"contracts/Project.sol\":1233:1258  state = State.Fundraising */\n      0x0100\n      exp\n      dup2\n      sload\n      dup2\n      0xff\n      mul\n      not\n      and\n      swap1\n      dup4\n      0x02\n      dup2\n      gt\n      iszero\n      tag_27\n      jumpi\n      tag_28\n      tag_29\n      jump\t// in\n    tag_28:\n    tag_27:\n      mul\n      or\n      swap1\n      sstore\n      pop\n        /* \"contracts/Project.sol\":866:1269  function start(string memory _projectTitle, string memory _projectDescription, ... */\n      pop\n      pop\n      pop\n      pop\n      jump\t// out\n        /* \"contracts/Project.sol\":166:203  address payable public projectCreator */\n    tag_12:\n      0x00\n      dup1\n      sload\n      swap1\n      0x0100\n      exp\n      swap1\n      div\n      0xffffffffffffffffffffffffffffffffffffffff\n      and\n      dup2\n      jump\t// out\n        /* \"contracts/Project.sol\":1388:1494  function setProjectTitle(string memory _projectTitle) public {... */\n    tag_18:\n        /* \"contracts/Project.sol\":1474:1487  _projectTitle */\n      dup1\n        /* \"contracts/Project.sol\":1459:1471  projectTitle */\n      0x01\n        /* \"contracts/Project.sol\":1459:1487  projectTitle = _projectTitle */\n      swap1\n      dup1\n      mload\n      swap1\n      0x20\n      add\n      swap1\n      tag_31\n      swap3\n      swap2\n      swap1\n      tag_25\n      jump\t// in\n    tag_31:\n      pop\n        /* \"contracts/Project.sol\":1388:1494  function setProjectTitle(string memory _projectTitle) public {... */\n      pop\n      jump\t// out\n        /* \"contracts/Project.sol\":1280:1378  function getProjectTitle() public view returns(string memory) {... */\n    tag_20:\n        /* \"contracts/Project.sol\":1327:1340  string memory */\n      0x60\n        /* \"contracts/Project.sol\":1359:1371  projectTitle */\n      0x01\n        /* \"contracts/Project.sol\":1352:1371  return projectTitle */\n      dup1\n      sload\n      tag_33\n      swap1\n      tag_34\n      jump\t// in\n    tag_33:\n      dup1\n      0x1f\n      add\n      0x20\n      dup1\n      swap2\n      div\n      mul\n      0x20\n      add\n      mload(0x40)\n      swap1\n      dup2\n      add\n      0x40\n      mstore\n      dup1\n      swap3\n      swap2\n      swap1\n      dup2\n      dup2\n      mstore\n      0x20\n      add\n      dup3\n      dup1\n      sload\n      tag_35\n      swap1\n      tag_34\n      jump\t// in\n    tag_35:\n      dup1\n      iszero\n      tag_36\n      jumpi\n      dup1\n      0x1f\n      lt\n      tag_37\n      jumpi\n      0x0100\n      dup1\n      dup4\n      sload\n      div\n      mul\n      dup4\n      mstore\n      swap2\n      0x20\n      add\n      swap2\n      jump(tag_36)\n    tag_37:\n      dup3\n      add\n      swap2\n      swap1\n      0x00\n      mstore\n      keccak256(0x00, 0x20)\n      swap1\n    tag_38:\n      dup2\n      sload\n      dup2\n      mstore\n      swap1\n      0x01\n      add\n      swap1\n      0x20\n      add\n      dup1\n      dup4\n      gt\n      tag_38\n      jumpi\n      dup3\n      swap1\n      sub\n      0x1f\n      and\n      dup3\n      add\n      swap2\n    tag_36:\n      pop\n      pop\n      pop\n      pop\n      pop\n      swap1\n      pop\n        /* \"contracts/Project.sol\":1280:1378  function getProjectTitle() public view returns(string memory) {... */\n      swap1\n      jump\t// out\n    tag_25:\n      dup3\n      dup1\n      sload\n      tag_39\n      swap1\n      tag_34\n      jump\t// in\n    tag_39:\n      swap1\n      0x00\n      mstore\n      keccak256(0x00, 0x20)\n      swap1\n      0x1f\n      add\n      0x20\n      swap1\n      div\n      dup2\n      add\n      swap3\n      dup3\n      tag_41\n      jumpi\n      0x00\n      dup6\n      sstore\n      jump(tag_40)\n    tag_41:\n      dup3\n      0x1f\n      lt\n      tag_42\n      jumpi\n      dup1\n      mload\n      not(0xff)\n      and\n      dup4\n      dup1\n      add\n      or\n      dup6\n      sstore\n      jump(tag_40)\n    tag_42:\n      dup3\n      dup1\n      add\n      0x01\n      add\n      dup6\n      sstore\n      dup3\n      iszero\n      tag_40\n      jumpi\n      swap2\n      dup3\n      add\n    tag_43:\n      dup3\n      dup2\n      gt\n      iszero\n      tag_44\n      jumpi\n      dup3\n      mload\n      dup3\n      sstore\n      swap2\n      0x20\n      add\n      swap2\n      swap1\n      0x01\n      add\n      swap1\n      jump(tag_43)\n    tag_44:\n    tag_40:\n      pop\n      swap1\n      pop\n      tag_45\n      swap2\n      swap1\n      tag_46\n      jump\t// in\n    tag_45:\n      pop\n      swap1\n      jump\t// out\n    tag_46:\n    tag_47:\n      dup1\n      dup3\n      gt\n      iszero\n      tag_48\n      jumpi\n      0x00\n      dup2\n      0x00\n      swap1\n      sstore\n      pop\n      0x01\n      add\n      jump(tag_47)\n    tag_48:\n      pop\n      swap1\n      jump\t// out\n        /* \"#utility.yul\":7:82   */\n    tag_49:\n        /* \"#utility.yul\":40:46   */\n      0x00\n        /* \"#utility.yul\":73:75   */\n      0x40\n        /* \"#utility.yul\":67:76   */\n      mload\n        /* \"#utility.yul\":57:76   */\n      swap1\n      pop\n        /* \"#utility.yul\":7:82   */\n      swap1\n      jump\t// out\n        /* \"#utility.yul\":88:205   */\n    tag_50:\n        /* \"#utility.yul\":197:198   */\n      0x00\n        /* \"#utility.yul\":194:195   */\n      dup1\n        /* \"#utility.yul\":187:199   */\n      revert\n        /* \"#utility.yul\":211:328   */\n    tag_51:\n        /* \"#utility.yul\":320:321   */\n      0x00\n        /* \"#utility.yul\":317:318   */\n      dup1\n        /* \"#utility.yul\":310:322   */\n      revert\n        /* \"#utility.yul\":334:451   */\n    tag_52:\n        /* \"#utility.yul\":443:444   */\n      0x00\n        /* \"#utility.yul\":440:441   */\n      dup1\n        /* \"#utility.yul\":433:445   */\n      revert\n        /* \"#utility.yul\":457:574   */\n    tag_53:\n        /* \"#utility.yul\":566:567   */\n      0x00\n        /* \"#utility.yul\":563:564   */\n      dup1\n        /* \"#utility.yul\":556:568   */\n      revert\n        /* \"#utility.yul\":580:682   */\n    tag_54:\n        /* \"#utility.yul\":621:627   */\n      0x00\n        /* \"#utility.yul\":672:674   */\n      0x1f\n        /* \"#utility.yul\":668:675   */\n      not\n        /* \"#utility.yul\":663:665   */\n      0x1f\n        /* \"#utility.yul\":656:661   */\n      dup4\n        /* \"#utility.yul\":652:666   */\n      add\n        /* \"#utility.yul\":648:676   */\n      and\n        /* \"#utility.yul\":638:676   */\n      swap1\n      pop\n        /* \"#utility.yul\":580:682   */\n      swap2\n      swap1\n      pop\n      jump\t// out\n        /* \"#utility.yul\":688:868   */\n    tag_55:\n        /* \"#utility.yul\":736:813   */\n      0x4e487b7100000000000000000000000000000000000000000000000000000000\n        /* \"#utility.yul\":733:734   */\n      0x00\n        /* \"#utility.yul\":726:814   */\n      mstore\n        /* \"#utility.yul\":833:837   */\n      0x41\n        /* \"#utility.yul\":830:831   */\n      0x04\n        /* \"#utility.yul\":823:838   */\n      mstore\n        /* \"#utility.yul\":857:861   */\n      0x24\n        /* \"#utility.yul\":854:855   */\n      0x00\n        /* \"#utility.yul\":847:862   */\n      revert\n        /* \"#utility.yul\":874:1155   */\n    tag_56:\n        /* \"#utility.yul\":957:984   */\n      tag_82\n        /* \"#utility.yul\":979:983   */\n      dup3\n        /* \"#utility.yul\":957:984   */\n      tag_54\n      jump\t// in\n    tag_82:\n        /* \"#utility.yul\":949:955   */\n      dup2\n        /* \"#utility.yul\":945:985   */\n      add\n        /* \"#utility.yul\":1087:1093   */\n      dup2\n        /* \"#utility.yul\":1075:1085   */\n      dup2\n        /* \"#utility.yul\":1072:1094   */\n      lt\n        /* \"#utility.yul\":1051:1069   */\n      0xffffffffffffffff\n        /* \"#utility.yul\":1039:1049   */\n      dup3\n        /* \"#utility.yul\":1036:1070   */\n      gt\n        /* \"#utility.yul\":1033:1095   */\n      or\n        /* \"#utility.yul\":1030:1118   */\n      iszero\n      tag_83\n      jumpi\n        /* \"#utility.yul\":1098:1116   */\n      tag_84\n      tag_55\n      jump\t// in\n    tag_84:\n        /* \"#utility.yul\":1030:1118   */\n    tag_83:\n        /* \"#utility.yul\":1138:1148   */\n      dup1\n        /* \"#utility.yul\":1134:1136   */\n      0x40\n        /* \"#utility.yul\":1127:1149   */\n      mstore\n        /* \"#utility.yul\":917:1155   */\n      pop\n        /* \"#utility.yul\":874:1155   */\n      pop\n      pop\n      jump\t// out\n        /* \"#utility.yul\":1161:1290   */\n    tag_57:\n        /* \"#utility.yul\":1195:1201   */\n      0x00\n        /* \"#utility.yul\":1222:1242   */\n      tag_86\n      tag_49\n      jump\t// in\n    tag_86:\n        /* \"#utility.yul\":1212:1242   */\n      swap1\n      pop\n        /* \"#utility.yul\":1251:1284   */\n      tag_87\n        /* \"#utility.yul\":1279:1283   */\n      dup3\n        /* \"#utility.yul\":1271:1277   */\n      dup3\n        /* \"#utility.yul\":1251:1284   */\n      tag_56\n      jump\t// in\n    tag_87:\n        /* \"#utility.yul\":1161:1290   */\n      swap2\n      swap1\n      pop\n      jump\t// out\n        /* \"#utility.yul\":1296:1604   */\n    tag_58:\n        /* \"#utility.yul\":1358:1362   */\n      0x00\n        /* \"#utility.yul\":1448:1466   */\n      0xffffffffffffffff\n        /* \"#utility.yul\":1440:1446   */\n      dup3\n        /* \"#utility.yul\":1437:1467   */\n      gt\n        /* \"#utility.yul\":1434:1490   */\n      iszero\n      tag_89\n      jumpi\n        /* \"#utility.yul\":1470:1488   */\n      tag_90\n      tag_55\n      jump\t// in\n    tag_90:\n        /* \"#utility.yul\":1434:1490   */\n    tag_89:\n        /* \"#utility.yul\":1508:1537   */\n      tag_91\n        /* \"#utility.yul\":1530:1536   */\n      dup3\n        /* \"#utility.yul\":1508:1537   */\n      tag_54\n      jump\t// in\n    tag_91:\n        /* \"#utility.yul\":1500:1537   */\n      swap1\n      pop\n        /* \"#utility.yul\":1592:1596   */\n      0x20\n        /* \"#utility.yul\":1586:1590   */\n      dup2\n        /* \"#utility.yul\":1582:1597   */\n      add\n        /* \"#utility.yul\":1574:1597   */\n      swap1\n      pop\n        /* \"#utility.yul\":1296:1604   */\n      swap2\n      swap1\n      pop\n      jump\t// out\n        /* \"#utility.yul\":1610:1764   */\n    tag_59:\n        /* \"#utility.yul\":1694:1700   */\n      dup3\n        /* \"#utility.yul\":1689:1692   */\n      dup2\n        /* \"#utility.yul\":1684:1687   */\n      dup4\n        /* \"#utility.yul\":1671:1701   */\n      calldatacopy\n        /* \"#utility.yul\":1756:1757   */\n      0x00\n        /* \"#utility.yul\":1747:1753   */\n      dup4\n        /* \"#utility.yul\":1742:1745   */\n      dup4\n        /* \"#utility.yul\":1738:1754   */\n      add\n        /* \"#utility.yul\":1731:1758   */\n      mstore\n        /* \"#utility.yul\":1610:1764   */\n      pop\n      pop\n      pop\n      jump\t// out\n        /* \"#utility.yul\":1770:2182   */\n    tag_60:\n        /* \"#utility.yul\":1848:1853   */\n      0x00\n        /* \"#utility.yul\":1873:1939   */\n      tag_94\n        /* \"#utility.yul\":1889:1938   */\n      tag_95\n        /* \"#utility.yul\":1931:1937   */\n      dup5\n        /* \"#utility.yul\":1889:1938   */\n      tag_58\n      jump\t// in\n    tag_95:\n        /* \"#utility.yul\":1873:1939   */\n      tag_57\n      jump\t// in\n    tag_94:\n        /* \"#utility.yul\":1864:1939   */\n      swap1\n      pop\n        /* \"#utility.yul\":1962:1968   */\n      dup3\n        /* \"#utility.yul\":1955:1960   */\n      dup2\n        /* \"#utility.yul\":1948:1969   */\n      mstore\n        /* \"#utility.yul\":2000:2004   */\n      0x20\n        /* \"#utility.yul\":1993:1998   */\n      dup2\n        /* \"#utility.yul\":1989:2005   */\n      add\n        /* \"#utility.yul\":2038:2041   */\n      dup5\n        /* \"#utility.yul\":2029:2035   */\n      dup5\n        /* \"#utility.yul\":2024:2027   */\n      dup5\n        /* \"#utility.yul\":2020:2036   */\n      add\n        /* \"#utility.yul\":2017:2042   */\n      gt\n        /* \"#utility.yul\":2014:2126   */\n      iszero\n      tag_96\n      jumpi\n        /* \"#utility.yul\":2045:2124   */\n      tag_97\n      tag_53\n      jump\t// in\n    tag_97:\n        /* \"#utility.yul\":2014:2126   */\n    tag_96:\n        /* \"#utility.yul\":2135:2176   */\n      tag_98\n        /* \"#utility.yul\":2169:2175   */\n      dup5\n        /* \"#utility.yul\":2164:2167   */\n      dup3\n        /* \"#utility.yul\":2159:2162   */\n      dup6\n        /* \"#utility.yul\":2135:2176   */\n      tag_59\n      jump\t// in\n    tag_98:\n        /* \"#utility.yul\":1854:2182   */\n      pop\n        /* \"#utility.yul\":1770:2182   */\n      swap4\n      swap3\n      pop\n      pop\n      pop\n      jump\t// out\n        /* \"#utility.yul\":2202:2542   */\n    tag_61:\n        /* \"#utility.yul\":2258:2263   */\n      0x00\n        /* \"#utility.yul\":2307:2310   */\n      dup3\n        /* \"#utility.yul\":2300:2304   */\n      0x1f\n        /* \"#utility.yul\":2292:2298   */\n      dup4\n        /* \"#utility.yul\":2288:2305   */\n      add\n        /* \"#utility.yul\":2284:2311   */\n      slt\n        /* \"#utility.yul\":2274:2396   */\n      tag_100\n      jumpi\n        /* \"#utility.yul\":2315:2394   */\n      tag_101\n      tag_52\n      jump\t// in\n    tag_101:\n        /* \"#utility.yul\":2274:2396   */\n    tag_100:\n        /* \"#utility.yul\":2432:2438   */\n      dup2\n        /* \"#utility.yul\":2419:2439   */\n      calldataload\n        /* \"#utility.yul\":2457:2536   */\n      tag_102\n        /* \"#utility.yul\":2532:2535   */\n      dup5\n        /* \"#utility.yul\":2524:2530   */\n      dup3\n        /* \"#utility.yul\":2517:2521   */\n      0x20\n        /* \"#utility.yul\":2509:2515   */\n      dup7\n        /* \"#utility.yul\":2505:2522   */\n      add\n        /* \"#utility.yul\":2457:2536   */\n      tag_60\n      jump\t// in\n    tag_102:\n        /* \"#utility.yul\":2448:2536   */\n      swap2\n      pop\n        /* \"#utility.yul\":2264:2542   */\n      pop\n        /* \"#utility.yul\":2202:2542   */\n      swap3\n      swap2\n      pop\n      pop\n      jump\t// out\n        /* \"#utility.yul\":2548:2625   */\n    tag_62:\n        /* \"#utility.yul\":2585:2592   */\n      0x00\n        /* \"#utility.yul\":2614:2619   */\n      dup2\n        /* \"#utility.yul\":2603:2619   */\n      swap1\n      pop\n        /* \"#utility.yul\":2548:2625   */\n      swap2\n      swap1\n      pop\n      jump\t// out\n        /* \"#utility.yul\":2631:2753   */\n    tag_63:\n        /* \"#utility.yul\":2704:2728   */\n      tag_105\n        /* \"#utility.yul\":2722:2727   */\n      dup2\n        /* \"#utility.yul\":2704:2728   */\n      tag_62\n      jump\t// in\n    tag_105:\n        /* \"#utility.yul\":2697:2702   */\n      dup2\n        /* \"#utility.yul\":2694:2729   */\n      eq\n        /* \"#utility.yul\":2684:2747   */\n      tag_106\n      jumpi\n        /* \"#utility.yul\":2743:2744   */\n      0x00\n        /* \"#utility.yul\":2740:2741   */\n      dup1\n        /* \"#utility.yul\":2733:2745   */\n      revert\n        /* \"#utility.yul\":2684:2747   */\n    tag_106:\n        /* \"#utility.yul\":2631:2753   */\n      pop\n      jump\t// out\n        /* \"#utility.yul\":2759:2898   */\n    tag_64:\n        /* \"#utility.yul\":2805:2810   */\n      0x00\n        /* \"#utility.yul\":2843:2849   */\n      dup2\n        /* \"#utility.yul\":2830:2850   */\n      calldataload\n        /* \"#utility.yul\":2821:2850   */\n      swap1\n      pop\n        /* \"#utility.yul\":2859:2892   */\n      tag_108\n        /* \"#utility.yul\":2886:2891   */\n      dup2\n        /* \"#utility.yul\":2859:2892   */\n      tag_63\n      jump\t// in\n    tag_108:\n        /* \"#utility.yul\":2759:2898   */\n      swap3\n      swap2\n      pop\n      pop\n      jump\t// out\n        /* \"#utility.yul\":2904:4029   */\n    tag_9:\n        /* \"#utility.yul\":3010:3016   */\n      0x00\n        /* \"#utility.yul\":3018:3024   */\n      dup1\n        /* \"#utility.yul\":3026:3032   */\n      0x00\n        /* \"#utility.yul\":3034:3040   */\n      dup1\n        /* \"#utility.yul\":3083:3086   */\n      0x80\n        /* \"#utility.yul\":3071:3080   */\n      dup6\n        /* \"#utility.yul\":3062:3069   */\n      dup8\n        /* \"#utility.yul\":3058:3081   */\n      sub\n        /* \"#utility.yul\":3054:3087   */\n      slt\n        /* \"#utility.yul\":3051:3171   */\n      iszero\n      tag_110\n      jumpi\n        /* \"#utility.yul\":3090:3169   */\n      tag_111\n      tag_50\n      jump\t// in\n    tag_111:\n        /* \"#utility.yul\":3051:3171   */\n    tag_110:\n        /* \"#utility.yul\":3238:3239   */\n      0x00\n        /* \"#utility.yul\":3227:3236   */\n      dup6\n        /* \"#utility.yul\":3223:3240   */\n      add\n        /* \"#utility.yul\":3210:3241   */\n      calldataload\n        /* \"#utility.yul\":3268:3286   */\n      0xffffffffffffffff\n        /* \"#utility.yul\":3260:3266   */\n      dup2\n        /* \"#utility.yul\":3257:3287   */\n      gt\n        /* \"#utility.yul\":3254:3371   */\n      iszero\n      tag_112\n      jumpi\n        /* \"#utility.yul\":3290:3369   */\n      tag_113\n      tag_51\n      jump\t// in\n    tag_113:\n        /* \"#utility.yul\":3254:3371   */\n    tag_112:\n        /* \"#utility.yul\":3395:3458   */\n      tag_114\n        /* \"#utility.yul\":3450:3457   */\n      dup8\n        /* \"#utility.yul\":3441:3447   */\n      dup3\n        /* \"#utility.yul\":3430:3439   */\n      dup9\n        /* \"#utility.yul\":3426:3448   */\n      add\n        /* \"#utility.yul\":3395:3458   */\n      tag_61\n      jump\t// in\n    tag_114:\n        /* \"#utility.yul\":3385:3458   */\n      swap5\n      pop\n        /* \"#utility.yul\":3181:3468   */\n      pop\n        /* \"#utility.yul\":3535:3537   */\n      0x20\n        /* \"#utility.yul\":3524:3533   */\n      dup6\n        /* \"#utility.yul\":3520:3538   */\n      add\n        /* \"#utility.yul\":3507:3539   */\n      calldataload\n        /* \"#utility.yul\":3566:3584   */\n      0xffffffffffffffff\n        /* \"#utility.yul\":3558:3564   */\n      dup2\n        /* \"#utility.yul\":3555:3585   */\n      gt\n        /* \"#utility.yul\":3552:3669   */\n      iszero\n      tag_115\n      jumpi\n        /* \"#utility.yul\":3588:3667   */\n      tag_116\n      tag_51\n      jump\t// in\n    tag_116:\n        /* \"#utility.yul\":3552:3669   */\n    tag_115:\n        /* \"#utility.yul\":3693:3756   */\n      tag_117\n        /* \"#utility.yul\":3748:3755   */\n      dup8\n        /* \"#utility.yul\":3739:3745   */\n      dup3\n        /* \"#utility.yul\":3728:3737   */\n      dup9\n        /* \"#utility.yul\":3724:3746   */\n      add\n        /* \"#utility.yul\":3693:3756   */\n      tag_61\n      jump\t// in\n    tag_117:\n        /* \"#utility.yul\":3683:3756   */\n      swap4\n      pop\n        /* \"#utility.yul\":3478:3766   */\n      pop\n        /* \"#utility.yul\":3805:3807   */\n      0x40\n        /* \"#utility.yul\":3831:3884   */\n      tag_118\n        /* \"#utility.yul\":3876:3883   */\n      dup8\n        /* \"#utility.yul\":3867:3873   */\n      dup3\n        /* \"#utility.yul\":3856:3865   */\n      dup9\n        /* \"#utility.yul\":3852:3874   */\n      add\n        /* \"#utility.yul\":3831:3884   */\n      tag_64\n      jump\t// in\n    tag_118:\n        /* \"#utility.yul\":3821:3884   */\n      swap3\n      pop\n        /* \"#utility.yul\":3776:3894   */\n      pop\n        /* \"#utility.yul\":3933:3935   */\n      0x60\n        /* \"#utility.yul\":3959:4012   */\n      tag_119\n        /* \"#utility.yul\":4004:4011   */\n      dup8\n        /* \"#utility.yul\":3995:4001   */\n      dup3\n        /* \"#utility.yul\":3984:3993   */\n      dup9\n        /* \"#utility.yul\":3980:4002   */\n      add\n        /* \"#utility.yul\":3959:4012   */\n      tag_64\n      jump\t// in\n    tag_119:\n        /* \"#utility.yul\":3949:4012   */\n      swap2\n      pop\n        /* \"#utility.yul\":3904:4022   */\n      pop\n        /* \"#utility.yul\":2904:4029   */\n      swap3\n      swap6\n      swap2\n      swap5\n      pop\n      swap3\n      pop\n      jump\t// out\n        /* \"#utility.yul\":4035:4161   */\n    tag_65:\n        /* \"#utility.yul\":4072:4079   */\n      0x00\n        /* \"#utility.yul\":4112:4154   */\n      0xffffffffffffffffffffffffffffffffffffffff\n        /* \"#utility.yul\":4105:4110   */\n      dup3\n        /* \"#utility.yul\":4101:4155   */\n      and\n        /* \"#utility.yul\":4090:4155   */\n      swap1\n      pop\n        /* \"#utility.yul\":4035:4161   */\n      swap2\n      swap1\n      pop\n      jump\t// out\n        /* \"#utility.yul\":4167:4271   */\n    tag_66:\n        /* \"#utility.yul\":4212:4219   */\n      0x00\n        /* \"#utility.yul\":4241:4265   */\n      tag_122\n        /* \"#utility.yul\":4259:4264   */\n      dup3\n        /* \"#utility.yul\":4241:4265   */\n      tag_65\n      jump\t// in\n    tag_122:\n        /* \"#utility.yul\":4230:4265   */\n      swap1\n      pop\n        /* \"#utility.yul\":4167:4271   */\n      swap2\n      swap1\n      pop\n      jump\t// out\n        /* \"#utility.yul\":4277:4419   */\n    tag_67:\n        /* \"#utility.yul\":4380:4412   */\n      tag_124\n        /* \"#utility.yul\":4406:4411   */\n      dup2\n        /* \"#utility.yul\":4380:4412   */\n      tag_66\n      jump\t// in\n    tag_124:\n        /* \"#utility.yul\":4375:4378   */\n      dup3\n        /* \"#utility.yul\":4368:4413   */\n      mstore\n        /* \"#utility.yul\":4277:4419   */\n      pop\n      pop\n      jump\t// out\n        /* \"#utility.yul\":4425:4679   */\n    tag_14:\n        /* \"#utility.yul\":4534:4538   */\n      0x00\n        /* \"#utility.yul\":4572:4574   */\n      0x20\n        /* \"#utility.yul\":4561:4570   */\n      dup3\n        /* \"#utility.yul\":4557:4575   */\n      add\n        /* \"#utility.yul\":4549:4575   */\n      swap1\n      pop\n        /* \"#utility.yul\":4585:4672   */\n      tag_126\n        /* \"#utility.yul\":4669:4670   */\n      0x00\n        /* \"#utility.yul\":4658:4667   */\n      dup4\n        /* \"#utility.yul\":4654:4671   */\n      add\n        /* \"#utility.yul\":4645:4651   */\n      dup5\n        /* \"#utility.yul\":4585:4672   */\n      tag_67\n      jump\t// in\n    tag_126:\n        /* \"#utility.yul\":4425:4679   */\n      swap3\n      swap2\n      pop\n      pop\n      jump\t// out\n        /* \"#utility.yul\":4685:5194   */\n    tag_17:\n        /* \"#utility.yul\":4754:4760   */\n      0x00\n        /* \"#utility.yul\":4803:4805   */\n      0x20\n        /* \"#utility.yul\":4791:4800   */\n      dup3\n        /* \"#utility.yul\":4782:4789   */\n      dup5\n        /* \"#utility.yul\":4778:4801   */\n      sub\n        /* \"#utility.yul\":4774:4806   */\n      slt\n        /* \"#utility.yul\":4771:4890   */\n      iszero\n      tag_128\n      jumpi\n        /* \"#utility.yul\":4809:4888   */\n      tag_129\n      tag_50\n      jump\t// in\n    tag_129:\n        /* \"#utility.yul\":4771:4890   */\n    tag_128:\n        /* \"#utility.yul\":4957:4958   */\n      0x00\n        /* \"#utility.yul\":4946:4955   */\n      dup3\n        /* \"#utility.yul\":4942:4959   */\n      add\n        /* \"#utility.yul\":4929:4960   */\n      calldataload\n        /* \"#utility.yul\":4987:5005   */\n      0xffffffffffffffff\n        /* \"#utility.yul\":4979:4985   */\n      dup2\n        /* \"#utility.yul\":4976:5006   */\n      gt\n        /* \"#utility.yul\":4973:5090   */\n      iszero\n      tag_130\n      jumpi\n        /* \"#utility.yul\":5009:5088   */\n      tag_131\n      tag_51\n      jump\t// in\n    tag_131:\n        /* \"#utility.yul\":4973:5090   */\n    tag_130:\n        /* \"#utility.yul\":5114:5177   */\n      tag_132\n        /* \"#utility.yul\":5169:5176   */\n      dup5\n        /* \"#utility.yul\":5160:5166   */\n      dup3\n        /* \"#utility.yul\":5149:5158   */\n      dup6\n        /* \"#utility.yul\":5145:5167   */\n      add\n        /* \"#utility.yul\":5114:5177   */\n      tag_61\n      jump\t// in\n    tag_132:\n        /* \"#utility.yul\":5104:5177   */\n      swap2\n      pop\n        /* \"#utility.yul\":4900:5187   */\n      pop\n        /* \"#utility.yul\":4685:5194   */\n      swap3\n      swap2\n      pop\n      pop\n      jump\t// out\n        /* \"#utility.yul\":5200:5299   */\n    tag_68:\n        /* \"#utility.yul\":5252:5258   */\n      0x00\n        /* \"#utility.yul\":5286:5291   */\n      dup2\n        /* \"#utility.yul\":5280:5292   */\n      mload\n        /* \"#utility.yul\":5270:5292   */\n      swap1\n      pop\n        /* \"#utility.yul\":5200:5299   */\n      swap2\n      swap1\n      pop\n      jump\t// out\n        /* \"#utility.yul\":5305:5474   */\n    tag_69:\n        /* \"#utility.yul\":5389:5400   */\n      0x00\n        /* \"#utility.yul\":5423:5429   */\n      dup3\n        /* \"#utility.yul\":5418:5421   */\n      dup3\n        /* \"#utility.yul\":5411:5430   */\n      mstore\n        /* \"#utility.yul\":5463:5467   */\n      0x20\n        /* \"#utility.yul\":5458:5461   */\n      dup3\n        /* \"#utility.yul\":5454:5468   */\n      add\n        /* \"#utility.yul\":5439:5468   */\n      swap1\n      pop\n        /* \"#utility.yul\":5305:5474   */\n      swap3\n      swap2\n      pop\n      pop\n      jump\t// out\n        /* \"#utility.yul\":5480:5787   */\n    tag_70:\n        /* \"#utility.yul\":5548:5549   */\n      0x00\n        /* \"#utility.yul\":5558:5671   */\n    tag_136:\n        /* \"#utility.yul\":5572:5578   */\n      dup4\n        /* \"#utility.yul\":5569:5570   */\n      dup2\n        /* \"#utility.yul\":5566:5579   */\n      lt\n        /* \"#utility.yul\":5558:5671   */\n      iszero\n      tag_138\n      jumpi\n        /* \"#utility.yul\":5657:5658   */\n      dup1\n        /* \"#utility.yul\":5652:5655   */\n      dup3\n        /* \"#utility.yul\":5648:5659   */\n      add\n        /* \"#utility.yul\":5642:5660   */\n      mload\n        /* \"#utility.yul\":5638:5639   */\n      dup2\n        /* \"#utility.yul\":5633:5636   */\n      dup5\n        /* \"#utility.yul\":5629:5640   */\n      add\n        /* \"#utility.yul\":5622:5661   */\n      mstore\n        /* \"#utility.yul\":5594:5596   */\n      0x20\n        /* \"#utility.yul\":5591:5592   */\n      dup2\n        /* \"#utility.yul\":5587:5597   */\n      add\n        /* \"#utility.yul\":5582:5597   */\n      swap1\n      pop\n        /* \"#utility.yul\":5558:5671   */\n      jump(tag_136)\n    tag_138:\n        /* \"#utility.yul\":5689:5695   */\n      dup4\n        /* \"#utility.yul\":5686:5687   */\n      dup2\n        /* \"#utility.yul\":5683:5696   */\n      gt\n        /* \"#utility.yul\":5680:5781   */\n      iszero\n      tag_139\n      jumpi\n        /* \"#utility.yul\":5769:5770   */\n      0x00\n        /* \"#utility.yul\":5760:5766   */\n      dup5\n        /* \"#utility.yul\":5755:5758   */\n      dup5\n        /* \"#utility.yul\":5751:5767   */\n      add\n        /* \"#utility.yul\":5744:5771   */\n      mstore\n        /* \"#utility.yul\":5680:5781   */\n    tag_139:\n        /* \"#utility.yul\":5529:5787   */\n      pop\n        /* \"#utility.yul\":5480:5787   */\n      pop\n      pop\n      pop\n      jump\t// out\n        /* \"#utility.yul\":5793:6157   */\n    tag_71:\n        /* \"#utility.yul\":5881:5884   */\n      0x00\n        /* \"#utility.yul\":5909:5948   */\n      tag_141\n        /* \"#utility.yul\":5942:5947   */\n      dup3\n        /* \"#utility.yul\":5909:5948   */\n      tag_68\n      jump\t// in\n    tag_141:\n        /* \"#utility.yul\":5964:6035   */\n      tag_142\n        /* \"#utility.yul\":6028:6034   */\n      dup2\n        /* \"#utility.yul\":6023:6026   */\n      dup6\n        /* \"#utility.yul\":5964:6035   */\n      tag_69\n      jump\t// in\n    tag_142:\n        /* \"#utility.yul\":5957:6035   */\n      swap4\n      pop\n        /* \"#utility.yul\":6044:6096   */\n      tag_143\n        /* \"#utility.yul\":6089:6095   */\n      dup2\n        /* \"#utility.yul\":6084:6087   */\n      dup6\n        /* \"#utility.yul\":6077:6081   */\n      0x20\n        /* \"#utility.yul\":6070:6075   */\n      dup7\n        /* \"#utility.yul\":6066:6082   */\n      add\n        /* \"#utility.yul\":6044:6096   */\n      tag_70\n      jump\t// in\n    tag_143:\n        /* \"#utility.yul\":6121:6150   */\n      tag_144\n        /* \"#utility.yul\":6143:6149   */\n      dup2\n        /* \"#utility.yul\":6121:6150   */\n      tag_54\n      jump\t// in\n    tag_144:\n        /* \"#utility.yul\":6116:6119   */\n      dup5\n        /* \"#utility.yul\":6112:6151   */\n      add\n        /* \"#utility.yul\":6105:6151   */\n      swap2\n      pop\n        /* \"#utility.yul\":5885:6157   */\n      pop\n        /* \"#utility.yul\":5793:6157   */\n      swap3\n      swap2\n      pop\n      pop\n      jump\t// out\n        /* \"#utility.yul\":6163:6476   */\n    tag_22:\n        /* \"#utility.yul\":6276:6280   */\n      0x00\n        /* \"#utility.yul\":6314:6316   */\n      0x20\n        /* \"#utility.yul\":6303:6312   */\n      dup3\n        /* \"#utility.yul\":6299:6317   */\n      add\n        /* \"#utility.yul\":6291:6317   */\n      swap1\n      pop\n        /* \"#utility.yul\":6363:6372   */\n      dup2\n        /* \"#utility.yul\":6357:6361   */\n      dup2\n        /* \"#utility.yul\":6353:6373   */\n      sub\n        /* \"#utility.yul\":6349:6350   */\n      0x00\n        /* \"#utility.yul\":6338:6347   */\n      dup4\n        /* \"#utility.yul\":6334:6351   */\n      add\n        /* \"#utility.yul\":6327:6374   */\n      mstore\n        /* \"#utility.yul\":6391:6469   */\n      tag_146\n        /* \"#utility.yul\":6464:6468   */\n      dup2\n        /* \"#utility.yul\":6455:6461   */\n      dup5\n        /* \"#utility.yul\":6391:6469   */\n      tag_71\n      jump\t// in\n    tag_146:\n        /* \"#utility.yul\":6383:6469   */\n      swap1\n      pop\n        /* \"#utility.yul\":6163:6476   */\n      swap3\n      swap2\n      pop\n      pop\n      jump\t// out\n        /* \"#utility.yul\":6482:6662   */\n    tag_29:\n        /* \"#utility.yul\":6530:6607   */\n      0x4e487b7100000000000000000000000000000000000000000000000000000000\n        /* \"#utility.yul\":6527:6528   */\n      0x00\n        /* \"#utility.yul\":6520:6608   */\n      mstore\n        /* \"#utility.yul\":6627:6631   */\n      0x21\n        /* \"#utility.yul\":6624:6625   */\n      0x04\n        /* \"#utility.yul\":6617:6632   */\n      mstore\n        /* \"#utility.yul\":6651:6655   */\n      0x24\n        /* \"#utility.yul\":6648:6649   */\n      0x00\n        /* \"#utility.yul\":6641:6656   */\n      revert\n        /* \"#utility.yul\":6668:6848   */\n    tag_72:\n        /* \"#utility.yul\":6716:6793   */\n      0x4e487b7100000000000000000000000000000000000000000000000000000000\n        /* \"#utility.yul\":6713:6714   */\n      0x00\n        /* \"#utility.yul\":6706:6794   */\n      mstore\n        /* \"#utility.yul\":6813:6817   */\n      0x22\n        /* \"#utility.yul\":6810:6811   */\n      0x04\n        /* \"#utility.yul\":6803:6818   */\n      mstore\n        /* \"#utility.yul\":6837:6841   */\n      0x24\n        /* \"#utility.yul\":6834:6835   */\n      0x00\n        /* \"#utility.yul\":6827:6842   */\n      revert\n        /* \"#utility.yul\":6854:7174   */\n    tag_34:\n        /* \"#utility.yul\":6898:6904   */\n      0x00\n        /* \"#utility.yul\":6935:6936   */\n      0x02\n        /* \"#utility.yul\":6929:6933   */\n      dup3\n        /* \"#utility.yul\":6925:6937   */\n      div\n        /* \"#utility.yul\":6915:6937   */\n      swap1\n      pop\n        /* \"#utility.yul\":6982:6983   */\n      0x01\n        /* \"#utility.yul\":6976:6980   */\n      dup3\n        /* \"#utility.yul\":6972:6984   */\n      and\n        /* \"#utility.yul\":7003:7021   */\n      dup1\n        /* \"#utility.yul\":6993:7074   */\n      tag_150\n      jumpi\n        /* \"#utility.yul\":7059:7063   */\n      0x7f\n        /* \"#utility.yul\":7051:7057   */\n      dup3\n        /* \"#utility.yul\":7047:7064   */\n      and\n        /* \"#utility.yul\":7037:7064   */\n      swap2\n      pop\n        /* \"#utility.yul\":6993:7074   */\n    tag_150:\n        /* \"#utility.yul\":7121:7123   */\n      0x20\n        /* \"#utility.yul\":7113:7119   */\n      dup3\n        /* \"#utility.yul\":7110:7124   */\n      lt\n        /* \"#utility.yul\":7090:7108   */\n      dup2\n        /* \"#utility.yul\":7087:7125   */\n      sub\n        /* \"#utility.yul\":7084:7168   */\n      tag_151\n      jumpi\n        /* \"#utility.yul\":7140:7158   */\n      tag_152\n      tag_72\n      jump\t// in\n    tag_152:\n        /* \"#utility.yul\":7084:7168   */\n    tag_151:\n        /* \"#utility.yul\":6905:7174   */\n      pop\n        /* \"#utility.yul\":6854:7174   */\n      swap2\n      swap1\n      pop\n      jump\t// out\n\n    auxdata: 0xa2646970667358221220c063ec5769b6bd1bbf398fd71932cd4bd309c866bf42cabc49a43835f66dda9c64736f6c634300080d0033\n}\n",
				"bytecode": {
					"linkReferences": {},
					"object": "60806040523480156200001157600080fd5b5060405162000c1938038062000c198339818101604052810190620000379190620003b7565b846000806101000a81548173ffffffffffffffffffffffffffffffffffffffff021916908373ffffffffffffffffffffffffffffffffffffffff16021790555083600190805190602001906200008f929190620000ca565b508260029080519060200190620000a8929190620000ca565b50816003819055508060068190555060006004819055505050505050620004e1565b828054620000d890620004ac565b90600052602060002090601f016020900481019282620000fc576000855562000148565b82601f106200011757805160ff191683800117855562000148565b8280016001018555821562000148579182015b82811115620001475782518255916020019190600101906200012a565b5b5090506200015791906200015b565b5090565b5b80821115620001765760008160009055506001016200015c565b5090565b6000604051905090565b600080fd5b600080fd5b600073ffffffffffffffffffffffffffffffffffffffff82169050919050565b6000620001bb826200018e565b9050919050565b620001cd81620001ae565b8114620001d957600080fd5b50565b600081519050620001ed81620001c2565b92915050565b600080fd5b600080fd5b6000601f19601f8301169050919050565b7f4e487b7100000000000000000000000000000000000000000000000000000000600052604160045260246000fd5b6200024882620001fd565b810181811067ffffffffffffffff821117156200026a57620002696200020e565b5b80604052505050565b60006200027f6200017a565b90506200028d82826200023d565b919050565b600067ffffffffffffffff821115620002b057620002af6200020e565b5b620002bb82620001fd565b9050602081019050919050565b60005b83811015620002e8578082015181840152602081019050620002cb565b83811115620002f8576000848401525b50505050565b6000620003156200030f8462000292565b62000273565b905082815260208101848484011115620003345762000333620001f8565b5b62000341848285620002c8565b509392505050565b600082601f830112620003615762000360620001f3565b5b815162000373848260208601620002fe565b91505092915050565b6000819050919050565b62000391816200037c565b81146200039d57600080fd5b50565b600081519050620003b18162000386565b92915050565b600080600080600060a08688031215620003d657620003d562000184565b5b6000620003e688828901620001dc565b955050602086015167ffffffffffffffff8111156200040a576200040962000189565b5b620004188882890162000349565b945050604086015167ffffffffffffffff8111156200043c576200043b62000189565b5b6200044a8882890162000349565b93505060606200045d88828901620003a0565b92505060806200047088828901620003a0565b9150509295509295909350565b7f4e487b7100000000000000000000000000000000000000000000000000000000600052602260045260246000fd5b60006002820490506001821680620004c557607f821691505b602082108103620004db57620004da6200047d565b5b50919050565b61072880620004f16000396000f3fe608060405234801561001057600080fd5b506004361061004c5760003560e01c8063400ffb3314610051578063a541a2a21461006d578063a8b93c8d1461008b578063f020cd19146100a7575b600080fd5b61006b60048036038101906100669190610475565b6100c5565b005b610075610172565b6040516100829190610555565b60405180910390f35b6100a560048036038101906100a09190610570565b610196565b005b6100af6101b0565b6040516100bc9190610641565b60405180910390f35b336000806101000a81548173ffffffffffffffffffffffffffffffffffffffff021916908373ffffffffffffffffffffffffffffffffffffffff160217905550836001908051906020019061011b929190610242565b508260029080519060200190610132929190610242565b5081600381905550806006819055506000600560006101000a81548160ff0219169083600281111561016757610166610663565b5b021790555050505050565b60008054906101000a900473ffffffffffffffffffffffffffffffffffffffff1681565b80600190805190602001906101ac929190610242565b5050565b6060600180546101bf906106c1565b80601f01602080910402602001604051908101604052809291908181526020018280546101eb906106c1565b80156102385780601f1061020d57610100808354040283529160200191610238565b820191906000526020600020905b81548152906001019060200180831161021b57829003601f168201915b5050505050905090565b82805461024e906106c1565b90600052602060002090601f01602090048101928261027057600085556102b7565b82601f1061028957805160ff19168380011785556102b7565b828001600101855582156102b7579182015b828111156102b657825182559160200191906001019061029b565b5b5090506102c491906102c8565b5090565b5b808211156102e15760008160009055506001016102c9565b5090565b6000604051905090565b600080fd5b600080fd5b600080fd5b600080fd5b6000601f19601f8301169050919050565b7f4e487b7100000000000000000000000000000000000000000000000000000000600052604160045260246000fd5b61034c82610303565b810181811067ffffffffffffffff8211171561036b5761036a610314565b5b80604052505050565b600061037e6102e5565b905061038a8282610343565b919050565b600067ffffffffffffffff8211156103aa576103a9610314565b5b6103b382610303565b9050602081019050919050565b82818337600083830152505050565b60006103e26103dd8461038f565b610374565b9050828152602081018484840111156103fe576103fd6102fe565b5b6104098482856103c0565b509392505050565b600082601f830112610426576104256102f9565b5b81356104368482602086016103cf565b91505092915050565b6000819050919050565b6104528161043f565b811461045d57600080fd5b50565b60008135905061046f81610449565b92915050565b6000806000806080858703121561048f5761048e6102ef565b5b600085013567ffffffffffffffff8111156104ad576104ac6102f4565b5b6104b987828801610411565b945050602085013567ffffffffffffffff8111156104da576104d96102f4565b5b6104e687828801610411565b93505060406104f787828801610460565b925050606061050887828801610460565b91505092959194509250565b600073ffffffffffffffffffffffffffffffffffffffff82169050919050565b600061053f82610514565b9050919050565b61054f81610534565b82525050565b600060208201905061056a6000830184610546565b92915050565b600060208284031215610586576105856102ef565b5b600082013567ffffffffffffffff8111156105a4576105a36102f4565b5b6105b084828501610411565b91505092915050565b600081519050919050565b600082825260208201905092915050565b60005b838110156105f35780820151818401526020810190506105d8565b83811115610602576000848401525b50505050565b6000610613826105b9565b61061d81856105c4565b935061062d8185602086016105d5565b61063681610303565b840191505092915050565b6000602082019050818103600083015261065b8184610608565b905092915050565b7f4e487b7100000000000000000000000000000000000000000000000000000000600052602160045260246000fd5b7f4e487b7100000000000000000000000000000000000000000000000000000000600052602260045260246000fd5b600060028204905060018216806106d957607f821691505b6020821081036106ec576106eb610692565b5b5091905056fea2646970667358221220c063ec5769b6bd1bbf398fd71932cd4bd309c866bf42cabc49a43835f66dda9c64736f6c634300080d0033",
					"opcodes": "PUSH1 0x80 PUSH1 0x40 MSTORE CALLVALUE DUP1 ISZERO PUSH3 0x11 JUMPI PUSH1 0x0 DUP1 REVERT JUMPDEST POP PUSH1 0x40 MLOAD PUSH3 0xC19 CODESIZE SUB DUP1 PUSH3 0xC19 DUP4 CODECOPY DUP2 DUP2 ADD PUSH1 0x40 MSTORE DUP2 ADD SWAP1 PUSH3 0x37 SWAP2 SWAP1 PUSH3 0x3B7 JUMP JUMPDEST DUP5 PUSH1 0x0 DUP1 PUSH2 0x100 EXP DUP2 SLOAD DUP2 PUSH20 0xFFFFFFFFFFFFFFFFFFFFFFFFFFFFFFFFFFFFFFFF MUL NOT AND SWAP1 DUP4 PUSH20 0xFFFFFFFFFFFFFFFFFFFFFFFFFFFFFFFFFFFFFFFF AND MUL OR SWAP1 SSTORE POP DUP4 PUSH1 0x1 SWAP1 DUP1 MLOAD SWAP1 PUSH1 0x20 ADD SWAP1 PUSH3 0x8F SWAP3 SWAP2 SWAP1 PUSH3 0xCA JUMP JUMPDEST POP DUP3 PUSH1 0x2 SWAP1 DUP1 MLOAD SWAP1 PUSH1 0x20 ADD SWAP1 PUSH3 0xA8 SWAP3 SWAP2 SWAP1 PUSH3 0xCA JUMP JUMPDEST POP DUP2 PUSH1 0x3 DUP2 SWAP1 SSTORE POP DUP1 PUSH1 0x6 DUP2 SWAP1 SSTORE POP PUSH1 0x0 PUSH1 0x4 DUP2 SWAP1 SSTORE POP POP POP POP POP POP PUSH3 0x4E1 JUMP JUMPDEST DUP3 DUP1 SLOAD PUSH3 0xD8 SWAP1 PUSH3 0x4AC JUMP JUMPDEST SWAP1 PUSH1 0x0 MSTORE PUSH1 0x20 PUSH1 0x0 KECCAK256 SWAP1 PUSH1 0x1F ADD PUSH1 0x20 SWAP1 DIV DUP2 ADD SWAP3 DUP3 PUSH3 0xFC JUMPI PUSH1 0x0 DUP6 SSTORE PUSH3 0x148 JUMP JUMPDEST DUP3 PUSH1 0x1F LT PUSH3 0x117 JUMPI DUP1 MLOAD PUSH1 0xFF NOT AND DUP4 DUP1 ADD OR DUP6 SSTORE PUSH3 0x148 JUMP JUMPDEST DUP3 DUP1 ADD PUSH1 0x1 ADD DUP6 SSTORE DUP3 ISZERO PUSH3 0x148 JUMPI SWAP2 DUP3 ADD JUMPDEST DUP3 DUP2 GT ISZERO PUSH3 0x147 JUMPI DUP3 MLOAD DUP3 SSTORE SWAP2 PUSH1 0x20 ADD SWAP2 SWAP1 PUSH1 0x1 ADD SWAP1 PUSH3 0x12A JUMP JUMPDEST JUMPDEST POP SWAP1 POP PUSH3 0x157 SWAP2 SWAP1 PUSH3 0x15B JUMP JUMPDEST POP SWAP1 JUMP JUMPDEST JUMPDEST DUP1 DUP3 GT ISZERO PUSH3 0x176 JUMPI PUSH1 0x0 DUP2 PUSH1 0x0 SWAP1 SSTORE POP PUSH1 0x1 ADD PUSH3 0x15C JUMP JUMPDEST POP SWAP1 JUMP JUMPDEST PUSH1 0x0 PUSH1 0x40 MLOAD SWAP1 POP SWAP1 JUMP JUMPDEST PUSH1 0x0 DUP1 REVERT JUMPDEST PUSH1 0x0 DUP1 REVERT JUMPDEST PUSH1 0x0 PUSH20 0xFFFFFFFFFFFFFFFFFFFFFFFFFFFFFFFFFFFFFFFF DUP3 AND SWAP1 POP SWAP2 SWAP1 POP JUMP JUMPDEST PUSH1 0x0 PUSH3 0x1BB DUP3 PUSH3 0x18E JUMP JUMPDEST SWAP1 POP SWAP2 SWAP1 POP JUMP JUMPDEST PUSH3 0x1CD DUP2 PUSH3 0x1AE JUMP JUMPDEST DUP2 EQ PUSH3 0x1D9 JUMPI PUSH1 0x0 DUP1 REVERT JUMPDEST POP JUMP JUMPDEST PUSH1 0x0 DUP2 MLOAD SWAP1 POP PUSH3 0x1ED DUP2 PUSH3 0x1C2 JUMP JUMPDEST SWAP3 SWAP2 POP POP JUMP JUMPDEST PUSH1 0x0 DUP1 REVERT JUMPDEST PUSH1 0x0 DUP1 REVERT JUMPDEST PUSH1 0x0 PUSH1 0x1F NOT PUSH1 0x1F DUP4 ADD AND SWAP1 POP SWAP2 SWAP1 POP JUMP JUMPDEST PUSH32 0x4E487B7100000000000000000000000000000000000000000000000000000000 PUSH1 0x0 MSTORE PUSH1 0x41 PUSH1 0x4 MSTORE PUSH1 0x24 PUSH1 0x0 REVERT JUMPDEST PUSH3 0x248 DUP3 PUSH3 0x1FD JUMP JUMPDEST DUP2 ADD DUP2 DUP2 LT PUSH8 0xFFFFFFFFFFFFFFFF DUP3 GT OR ISZERO PUSH3 0x26A JUMPI PUSH3 0x269 PUSH3 0x20E JUMP JUMPDEST JUMPDEST DUP1 PUSH1 0x40 MSTORE POP POP POP JUMP JUMPDEST PUSH1 0x0 PUSH3 0x27F PUSH3 0x17A JUMP JUMPDEST SWAP1 POP PUSH3 0x28D DUP3 DUP3 PUSH3 0x23D JUMP JUMPDEST SWAP2 SWAP1 POP JUMP JUMPDEST PUSH1 0x0 PUSH8 0xFFFFFFFFFFFFFFFF DUP3 GT ISZERO PUSH3 0x2B0 JUMPI PUSH3 0x2AF PUSH3 0x20E JUMP JUMPDEST JUMPDEST PUSH3 0x2BB DUP3 PUSH3 0x1FD JUMP JUMPDEST SWAP1 POP PUSH1 0x20 DUP2 ADD SWAP1 POP SWAP2 SWAP1 POP JUMP JUMPDEST PUSH1 0x0 JUMPDEST DUP4 DUP2 LT ISZERO PUSH3 0x2E8 JUMPI DUP1 DUP3 ADD MLOAD DUP2 DUP5 ADD MSTORE PUSH1 0x20 DUP2 ADD SWAP1 POP PUSH3 0x2CB JUMP JUMPDEST DUP4 DUP2 GT ISZERO PUSH3 0x2F8 JUMPI PUSH1 0x0 DUP5 DUP5 ADD MSTORE JUMPDEST POP POP POP POP JUMP JUMPDEST PUSH1 0x0 PUSH3 0x315 PUSH3 0x30F DUP5 PUSH3 0x292 JUMP JUMPDEST PUSH3 0x273 JUMP JUMPDEST SWAP1 POP DUP3 DUP2 MSTORE PUSH1 0x20 DUP2 ADD DUP5 DUP5 DUP5 ADD GT ISZERO PUSH3 0x334 JUMPI PUSH3 0x333 PUSH3 0x1F8 JUMP JUMPDEST JUMPDEST PUSH3 0x341 DUP5 DUP3 DUP6 PUSH3 0x2C8 JUMP JUMPDEST POP SWAP4 SWAP3 POP POP POP JUMP JUMPDEST PUSH1 0x0 DUP3 PUSH1 0x1F DUP4 ADD SLT PUSH3 0x361 JUMPI PUSH3 0x360 PUSH3 0x1F3 JUMP JUMPDEST JUMPDEST DUP2 MLOAD PUSH3 0x373 DUP5 DUP3 PUSH1 0x20 DUP7 ADD PUSH3 0x2FE JUMP JUMPDEST SWAP2 POP POP SWAP3 SWAP2 POP POP JUMP JUMPDEST PUSH1 0x0 DUP2 SWAP1 POP SWAP2 SWAP1 POP JUMP JUMPDEST PUSH3 0x391 DUP2 PUSH3 0x37C JUMP JUMPDEST DUP2 EQ PUSH3 0x39D JUMPI PUSH1 0x0 DUP1 REVERT JUMPDEST POP JUMP JUMPDEST PUSH1 0x0 DUP2 MLOAD SWAP1 POP PUSH3 0x3B1 DUP2 PUSH3 0x386 JUMP JUMPDEST SWAP3 SWAP2 POP POP JUMP JUMPDEST PUSH1 0x0 DUP1 PUSH1 0x0 DUP1 PUSH1 0x0 PUSH1 0xA0 DUP7 DUP9 SUB SLT ISZERO PUSH3 0x3D6 JUMPI PUSH3 0x3D5 PUSH3 0x184 JUMP JUMPDEST JUMPDEST PUSH1 0x0 PUSH3 0x3E6 DUP9 DUP3 DUP10 ADD PUSH3 0x1DC JUMP JUMPDEST SWAP6 POP POP PUSH1 0x20 DUP7 ADD MLOAD PUSH8 0xFFFFFFFFFFFFFFFF DUP2 GT ISZERO PUSH3 0x40A JUMPI PUSH3 0x409 PUSH3 0x189 JUMP JUMPDEST JUMPDEST PUSH3 0x418 DUP9 DUP3 DUP10 ADD PUSH3 0x349 JUMP JUMPDEST SWAP5 POP POP PUSH1 0x40 DUP7 ADD MLOAD PUSH8 0xFFFFFFFFFFFFFFFF DUP2 GT ISZERO PUSH3 0x43C JUMPI PUSH3 0x43B PUSH3 0x189 JUMP JUMPDEST JUMPDEST PUSH3 0x44A DUP9 DUP3 DUP10 ADD PUSH3 0x349 JUMP JUMPDEST SWAP4 POP POP PUSH1 0x60 PUSH3 0x45D DUP9 DUP3 DUP10 ADD PUSH3 0x3A0 JUMP JUMPDEST SWAP3 POP POP PUSH1 0x80 PUSH3 0x470 DUP9 DUP3 DUP10 ADD PUSH3 0x3A0 JUMP JUMPDEST SWAP2 POP POP SWAP3 SWAP6 POP SWAP3 SWAP6 SWAP1 SWAP4 POP JUMP JUMPDEST PUSH32 0x4E487B7100000000000000000000000000000000000000000000000000000000 PUSH1 0x0 MSTORE PUSH1 0x22 PUSH1 0x4 MSTORE PUSH1 0x24 PUSH1 0x0 REVERT JUMPDEST PUSH1 0x0 PUSH1 0x2 DUP3 DIV SWAP1 POP PUSH1 0x1 DUP3 AND DUP1 PUSH3 0x4C5 JUMPI PUSH1 0x7F DUP3 AND SWAP2 POP JUMPDEST PUSH1 0x20 DUP3 LT DUP2 SUB PUSH3 0x4DB JUMPI PUSH3 0x4DA PUSH3 0x47D JUMP JUMPDEST JUMPDEST POP SWAP2 SWAP1 POP JUMP JUMPDEST PUSH2 0x728 DUP1 PUSH3 0x4F1 PUSH1 0x0 CODECOPY PUSH1 0x0 RETURN INVALID PUSH1 0x80 PUSH1 0x40 MSTORE CALLVALUE DUP1 ISZERO PUSH2 0x10 JUMPI PUSH1 0x0 DUP1 REVERT JUMPDEST POP PUSH1 0x4 CALLDATASIZE LT PUSH2 0x4C JUMPI PUSH1 0x0 CALLDATALOAD PUSH1 0xE0 SHR DUP1 PUSH4 0x400FFB33 EQ PUSH2 0x51 JUMPI DUP1 PUSH4 0xA541A2A2 EQ PUSH2 0x6D JUMPI DUP1 PUSH4 0xA8B93C8D EQ PUSH2 0x8B JUMPI DUP1 PUSH4 0xF020CD19 EQ PUSH2 0xA7 JUMPI JUMPDEST PUSH1 0x0 DUP1 REVERT JUMPDEST PUSH2 0x6B PUSH1 0x4 DUP1 CALLDATASIZE SUB DUP2 ADD SWAP1 PUSH2 0x66 SWAP2 SWAP1 PUSH2 0x475 JUMP JUMPDEST PUSH2 0xC5 JUMP JUMPDEST STOP JUMPDEST PUSH2 0x75 PUSH2 0x172 JUMP JUMPDEST PUSH1 0x40 MLOAD PUSH2 0x82 SWAP2 SWAP1 PUSH2 0x555 JUMP JUMPDEST PUSH1 0x40 MLOAD DUP1 SWAP2 SUB SWAP1 RETURN JUMPDEST PUSH2 0xA5 PUSH1 0x4 DUP1 CALLDATASIZE SUB DUP2 ADD SWAP1 PUSH2 0xA0 SWAP2 SWAP1 PUSH2 0x570 JUMP JUMPDEST PUSH2 0x196 JUMP JUMPDEST STOP JUMPDEST PUSH2 0xAF PUSH2 0x1B0 JUMP JUMPDEST PUSH1 0x40 MLOAD PUSH2 0xBC SWAP2 SWAP1 PUSH2 0x641 JUMP JUMPDEST PUSH1 0x40 MLOAD DUP1 SWAP2 SUB SWAP1 RETURN JUMPDEST CALLER PUSH1 0x0 DUP1 PUSH2 0x100 EXP DUP2 SLOAD DUP2 PUSH20 0xFFFFFFFFFFFFFFFFFFFFFFFFFFFFFFFFFFFFFFFF MUL NOT AND SWAP1 DUP4 PUSH20 0xFFFFFFFFFFFFFFFFFFFFFFFFFFFFFFFFFFFFFFFF AND MUL OR SWAP1 SSTORE POP DUP4 PUSH1 0x1 SWAP1 DUP1 MLOAD SWAP1 PUSH1 0x20 ADD SWAP1 PUSH2 0x11B SWAP3 SWAP2 SWAP1 PUSH2 0x242 JUMP JUMPDEST POP DUP3 PUSH1 0x2 SWAP1 DUP1 MLOAD SWAP1 PUSH1 0x20 ADD SWAP1 PUSH2 0x132 SWAP3 SWAP2 SWAP1 PUSH2 0x242 JUMP JUMPDEST POP DUP2 PUSH1 0x3 DUP2 SWAP1 SSTORE POP DUP1 PUSH1 0x6 DUP2 SWAP1 SSTORE POP PUSH1 0x0 PUSH1 0x5 PUSH1 0x0 PUSH2 0x100 EXP DUP2 SLOAD DUP2 PUSH1 0xFF MUL NOT AND SWAP1 DUP4 PUSH1 0x2 DUP2 GT ISZERO PUSH2 0x167 JUMPI PUSH2 0x166 PUSH2 0x663 JUMP JUMPDEST JUMPDEST MUL OR SWAP1 SSTORE POP POP POP POP POP JUMP JUMPDEST PUSH1 0x0 DUP1 SLOAD SWAP1 PUSH2 0x100 EXP SWAP1 DIV PUSH20 0xFFFFFFFFFFFFFFFFFFFFFFFFFFFFFFFFFFFFFFFF AND DUP2 JUMP JUMPDEST DUP1 PUSH1 0x1 SWAP1 DUP1 MLOAD SWAP1 PUSH1 0x20 ADD SWAP1 PUSH2 0x1AC SWAP3 SWAP2 SWAP1 PUSH2 0x242 JUMP JUMPDEST POP POP JUMP JUMPDEST PUSH1 0x60 PUSH1 0x1 DUP1 SLOAD PUSH2 0x1BF SWAP1 PUSH2 0x6C1 JUMP JUMPDEST DUP1 PUSH1 0x1F ADD PUSH1 0x20 DUP1 SWAP2 DIV MUL PUSH1 0x20 ADD PUSH1 0x40 MLOAD SWAP1 DUP2 ADD PUSH1 0x40 MSTORE DUP1 SWAP3 SWAP2 SWAP1 DUP2 DUP2 MSTORE PUSH1 0x20 ADD DUP3 DUP1 SLOAD PUSH2 0x1EB SWAP1 PUSH2 0x6C1 JUMP JUMPDEST DUP1 ISZERO PUSH2 0x238 JUMPI DUP1 PUSH1 0x1F LT PUSH2 0x20D JUMPI PUSH2 0x100 DUP1 DUP4 SLOAD DIV MUL DUP4 MSTORE SWAP2 PUSH1 0x20 ADD SWAP2 PUSH2 0x238 JUMP JUMPDEST DUP3 ADD SWAP2 SWAP1 PUSH1 0x0 MSTORE PUSH1 0x20 PUSH1 0x0 KECCAK256 SWAP1 JUMPDEST DUP2 SLOAD DUP2 MSTORE SWAP1 PUSH1 0x1 ADD SWAP1 PUSH1 0x20 ADD DUP1 DUP4 GT PUSH2 0x21B JUMPI DUP3 SWAP1 SUB PUSH1 0x1F AND DUP3 ADD SWAP2 JUMPDEST POP POP POP POP POP SWAP1 POP SWAP1 JUMP JUMPDEST DUP3 DUP1 SLOAD PUSH2 0x24E SWAP1 PUSH2 0x6C1 JUMP JUMPDEST SWAP1 PUSH1 0x0 MSTORE PUSH1 0x20 PUSH1 0x0 KECCAK256 SWAP1 PUSH1 0x1F ADD PUSH1 0x20 SWAP1 DIV DUP2 ADD SWAP3 DUP3 PUSH2 0x270 JUMPI PUSH1 0x0 DUP6 SSTORE PUSH2 0x2B7 JUMP JUMPDEST DUP3 PUSH1 0x1F LT PUSH2 0x289 JUMPI DUP1 MLOAD PUSH1 0xFF NOT AND DUP4 DUP1 ADD OR DUP6 SSTORE PUSH2 0x2B7 JUMP JUMPDEST DUP3 DUP1 ADD PUSH1 0x1 ADD DUP6 SSTORE DUP3 ISZERO PUSH2 0x2B7 JUMPI SWAP2 DUP3 ADD JUMPDEST DUP3 DUP2 GT ISZERO PUSH2 0x2B6 JUMPI DUP3 MLOAD DUP3 SSTORE SWAP2 PUSH1 0x20 ADD SWAP2 SWAP1 PUSH1 0x1 ADD SWAP1 PUSH2 0x29B JUMP JUMPDEST JUMPDEST POP SWAP1 POP PUSH2 0x2C4 SWAP2 SWAP1 PUSH2 0x2C8 JUMP JUMPDEST POP SWAP1 JUMP JUMPDEST JUMPDEST DUP1 DUP3 GT ISZERO PUSH2 0x2E1 JUMPI PUSH1 0x0 DUP2 PUSH1 0x0 SWAP1 SSTORE POP PUSH1 0x1 ADD PUSH2 0x2C9 JUMP JUMPDEST POP SWAP1 JUMP JUMPDEST PUSH1 0x0 PUSH1 0x40 MLOAD SWAP1 POP SWAP1 JUMP JUMPDEST PUSH1 0x0 DUP1 REVERT JUMPDEST PUSH1 0x0 DUP1 REVERT JUMPDEST PUSH1 0x0 DUP1 REVERT JUMPDEST PUSH1 0x0 DUP1 REVERT JUMPDEST PUSH1 0x0 PUSH1 0x1F NOT PUSH1 0x1F DUP4 ADD AND SWAP1 POP SWAP2 SWAP1 POP JUMP JUMPDEST PUSH32 0x4E487B7100000000000000000000000000000000000000000000000000000000 PUSH1 0x0 MSTORE PUSH1 0x41 PUSH1 0x4 MSTORE PUSH1 0x24 PUSH1 0x0 REVERT JUMPDEST PUSH2 0x34C DUP3 PUSH2 0x303 JUMP JUMPDEST DUP2 ADD DUP2 DUP2 LT PUSH8 0xFFFFFFFFFFFFFFFF DUP3 GT OR ISZERO PUSH2 0x36B JUMPI PUSH2 0x36A PUSH2 0x314 JUMP JUMPDEST JUMPDEST DUP1 PUSH1 0x40 MSTORE POP POP POP JUMP JUMPDEST PUSH1 0x0 PUSH2 0x37E PUSH2 0x2E5 JUMP JUMPDEST SWAP1 POP PUSH2 0x38A DUP3 DUP3 PUSH2 0x343 JUMP JUMPDEST SWAP2 SWAP1 POP JUMP JUMPDEST PUSH1 0x0 PUSH8 0xFFFFFFFFFFFFFFFF DUP3 GT ISZERO PUSH2 0x3AA JUMPI PUSH2 0x3A9 PUSH2 0x314 JUMP JUMPDEST JUMPDEST PUSH2 0x3B3 DUP3 PUSH2 0x303 JUMP JUMPDEST SWAP1 POP PUSH1 0x20 DUP2 ADD SWAP1 POP SWAP2 SWAP1 POP JUMP JUMPDEST DUP3 DUP2 DUP4 CALLDATACOPY PUSH1 0x0 DUP4 DUP4 ADD MSTORE POP POP POP JUMP JUMPDEST PUSH1 0x0 PUSH2 0x3E2 PUSH2 0x3DD DUP5 PUSH2 0x38F JUMP JUMPDEST PUSH2 0x374 JUMP JUMPDEST SWAP1 POP DUP3 DUP2 MSTORE PUSH1 0x20 DUP2 ADD DUP5 DUP5 DUP5 ADD GT ISZERO PUSH2 0x3FE JUMPI PUSH2 0x3FD PUSH2 0x2FE JUMP JUMPDEST JUMPDEST PUSH2 0x409 DUP5 DUP3 DUP6 PUSH2 0x3C0 JUMP JUMPDEST POP SWAP4 SWAP3 POP POP POP JUMP JUMPDEST PUSH1 0x0 DUP3 PUSH1 0x1F DUP4 ADD SLT PUSH2 0x426 JUMPI PUSH2 0x425 PUSH2 0x2F9 JUMP JUMPDEST JUMPDEST DUP2 CALLDATALOAD PUSH2 0x436 DUP5 DUP3 PUSH1 0x20 DUP7 ADD PUSH2 0x3CF JUMP JUMPDEST SWAP2 POP POP SWAP3 SWAP2 POP POP JUMP JUMPDEST PUSH1 0x0 DUP2 SWAP1 POP SWAP2 SWAP1 POP JUMP JUMPDEST PUSH2 0x452 DUP2 PUSH2 0x43F JUMP JUMPDEST DUP2 EQ PUSH2 0x45D JUMPI PUSH1 0x0 DUP1 REVERT JUMPDEST POP JUMP JUMPDEST PUSH1 0x0 DUP2 CALLDATALOAD SWAP1 POP PUSH2 0x46F DUP2 PUSH2 0x449 JUMP JUMPDEST SWAP3 SWAP2 POP POP JUMP JUMPDEST PUSH1 0x0 DUP1 PUSH1 0x0 DUP1 PUSH1 0x80 DUP6 DUP8 SUB SLT ISZERO PUSH2 0x48F JUMPI PUSH2 0x48E PUSH2 0x2EF JUMP JUMPDEST JUMPDEST PUSH1 0x0 DUP6 ADD CALLDATALOAD PUSH8 0xFFFFFFFFFFFFFFFF DUP2 GT ISZERO PUSH2 0x4AD JUMPI PUSH2 0x4AC PUSH2 0x2F4 JUMP JUMPDEST JUMPDEST PUSH2 0x4B9 DUP8 DUP3 DUP9 ADD PUSH2 0x411 JUMP JUMPDEST SWAP5 POP POP PUSH1 0x20 DUP6 ADD CALLDATALOAD PUSH8 0xFFFFFFFFFFFFFFFF DUP2 GT ISZERO PUSH2 0x4DA JUMPI PUSH2 0x4D9 PUSH2 0x2F4 JUMP JUMPDEST JUMPDEST PUSH2 0x4E6 DUP8 DUP3 DUP9 ADD PUSH2 0x411 JUMP JUMPDEST SWAP4 POP POP PUSH1 0x40 PUSH2 0x4F7 DUP8 DUP3 DUP9 ADD PUSH2 0x460 JUMP JUMPDEST SWAP3 POP POP PUSH1 0x60 PUSH2 0x508 DUP8 DUP3 DUP9 ADD PUSH2 0x460 JUMP JUMPDEST SWAP2 POP POP SWAP3 SWAP6 SWAP2 SWAP5 POP SWAP3 POP JUMP JUMPDEST PUSH1 0x0 PUSH20 0xFFFFFFFFFFFFFFFFFFFFFFFFFFFFFFFFFFFFFFFF DUP3 AND SWAP1 POP SWAP2 SWAP1 POP JUMP JUMPDEST PUSH1 0x0 PUSH2 0x53F DUP3 PUSH2 0x514 JUMP JUMPDEST SWAP1 POP SWAP2 SWAP1 POP JUMP JUMPDEST PUSH2 0x54F DUP2 PUSH2 0x534 JUMP JUMPDEST DUP3 MSTORE POP POP JUMP JUMPDEST PUSH1 0x0 PUSH1 0x20 DUP3 ADD SWAP1 POP PUSH2 0x56A PUSH1 0x0 DUP4 ADD DUP5 PUSH2 0x546 JUMP JUMPDEST SWAP3 SWAP2 POP POP JUMP JUMPDEST PUSH1 0x0 PUSH1 0x20 DUP3 DUP5 SUB SLT ISZERO PUSH2 0x586 JUMPI PUSH2 0x585 PUSH2 0x2EF JUMP JUMPDEST JUMPDEST PUSH1 0x0 DUP3 ADD CALLDATALOAD PUSH8 0xFFFFFFFFFFFFFFFF DUP2 GT ISZERO PUSH2 0x5A4 JUMPI PUSH2 0x5A3 PUSH2 0x2F4 JUMP JUMPDEST JUMPDEST PUSH2 0x5B0 DUP5 DUP3 DUP6 ADD PUSH2 0x411 JUMP JUMPDEST SWAP2 POP POP SWAP3 SWAP2 POP POP JUMP JUMPDEST PUSH1 0x0 DUP2 MLOAD SWAP1 POP SWAP2 SWAP1 POP JUMP JUMPDEST PUSH1 0x0 DUP3 DUP3 MSTORE PUSH1 0x20 DUP3 ADD SWAP1 POP SWAP3 SWAP2 POP POP JUMP JUMPDEST PUSH1 0x0 JUMPDEST DUP4 DUP2 LT ISZERO PUSH2 0x5F3 JUMPI DUP1 DUP3 ADD MLOAD DUP2 DUP5 ADD MSTORE PUSH1 0x20 DUP2 ADD SWAP1 POP PUSH2 0x5D8 JUMP JUMPDEST DUP4 DUP2 GT ISZERO PUSH2 0x602 JUMPI PUSH1 0x0 DUP5 DUP5 ADD MSTORE JUMPDEST POP POP POP POP JUMP JUMPDEST PUSH1 0x0 PUSH2 0x613 DUP3 PUSH2 0x5B9 JUMP JUMPDEST PUSH2 0x61D DUP2 DUP6 PUSH2 0x5C4 JUMP JUMPDEST SWAP4 POP PUSH2 0x62D DUP2 DUP6 PUSH1 0x20 DUP7 ADD PUSH2 0x5D5 JUMP JUMPDEST PUSH2 0x636 DUP2 PUSH2 0x303 JUMP JUMPDEST DUP5 ADD SWAP2 POP POP SWAP3 SWAP2 POP POP JUMP JUMPDEST PUSH1 0x0 PUSH1 0x20 DUP3 ADD SWAP1 POP DUP2 DUP2 SUB PUSH1 0x0 DUP4 ADD MSTORE PUSH2 0x65B DUP2 DUP5 PUSH2 0x608 JUMP JUMPDEST SWAP1 POP SWAP3 SWAP2 POP POP JUMP JUMPDEST PUSH32 0x4E487B7100000000000000000000000000000000000000000000000000000000 PUSH1 0x0 MSTORE PUSH1 0x21 PUSH1 0x4 MSTORE PUSH1 0x24 PUSH1 0x0 REVERT JUMPDEST PUSH32 0x4E487B7100000000000000000000000000000000000000000000000000000000 PUSH1 0x0 MSTORE PUSH1 0x22 PUSH1 0x4 MSTORE PUSH1 0x24 PUSH1 0x0 REVERT JUMPDEST PUSH1 0x0 PUSH1 0x2 DUP3 DIV SWAP1 POP PUSH1 0x1 DUP3 AND DUP1 PUSH2 0x6D9 JUMPI PUSH1 0x7F DUP3 AND SWAP2 POP JUMPDEST PUSH1 0x20 DUP3 LT DUP2 SUB PUSH2 0x6EC JUMPI PUSH2 0x6EB PUSH2 0x692 JUMP JUMPDEST JUMPDEST POP SWAP2 SWAP1 POP JUMP INVALID LOG2 PUSH5 0x6970667358 0x22 SLT KECCAK256 0xC0 PUSH4 0xEC5769B6 0xBD SHL 0xBF CODECOPY DUP16 0xD7 NOT ORIGIN 0xCD 0x4B 0xD3 MULMOD 0xC8 PUSH7 0xBF42CABC49A438 CALLDATALOAD 0xF6 PUSH14 0xDA9C64736F6C634300080D003300 "
				},
				"gasEstimates": {
					"creation": {
						"codeDepositCost": "366400",
						"executionCost": "infinite",
						"totalCost": "infinite"
					},
					"external": {
						"getProjectTitle()": "infinite",
						"projectCreator()": "2511",
						"setProjectTitle(string)": "infinite",
						"start(string,string,uint256,uint256)": "infinite"
					}
				},
				"methodIdentifiers": {
					"getProjectTitle()": "f020cd19",
					"projectCreator()": "a541a2a2",
					"setProjectTitle(string)": "a8b93c8d",
					"start(string,string,uint256,uint256)": "400ffb33"
				}
			},
			"storageLayout": {
				"storage": [
					{
						"astId": 148,
						"contract": "contracts/Project.sol:Project",
						"label": "projectCreator",
						"offset": 0,
						"slot": "0",
						"type": "t_address_payable"
					},
					{
						"astId": 150,
						"contract": "contracts/Project.sol:Project",
						"label": "projectTitle",
						"offset": 0,
						"slot": "1",
						"type": "t_string_storage"
					},
					{
						"astId": 152,
						"contract": "contracts/Project.sol:Project",
						"label": "projectDescription",
						"offset": 0,
						"slot": "2",
						"type": "t_string_storage"
					},
					{
						"astId": 154,
						"contract": "contracts/Project.sol:Project",
						"label": "amountGoal",
						"offset": 0,
						"slot": "3",
						"type": "t_uint256"
					},
					{
						"astId": 156,
						"contract": "contracts/Project.sol:Project",
						"label": "currentBalance",
						"offset": 0,
						"slot": "4",
						"type": "t_uint256"
					},
					{
						"astId": 159,
						"contract": "contracts/Project.sol:Project",
						"label": "state",
						"offset": 0,
						"slot": "5",
						"type": "t_enum(State)146"
					},
					{
						"astId": 161,
						"contract": "contracts/Project.sol:Project",
						"label": "deadLine",
						"offset": 0,
						"slot": "6",
						"type": "t_uint256"
					},
					{
						"astId": 165,
						"contract": "contracts/Project.sol:Project",
						"label": "contributions",
						"offset": 0,
						"slot": "7",
						"type": "t_mapping(t_address,t_uint256)"
					}
				],
				"types": {
					"t_address": {
						"encoding": "inplace",
						"label": "address",
						"numberOfBytes": "20"
					},
					"t_address_payable": {
						"encoding": "inplace",
						"label": "address payable",
						"numberOfBytes": "20"
					},
					"t_enum(State)146": {
						"encoding": "inplace",
						"label": "enum Project.State",
						"numberOfBytes": "1"
					},
					"t_mapping(t_address,t_uint256)": {
						"encoding": "mapping",
						"key": "t_address",
						"label": "mapping(address => uint256)",
						"numberOfBytes": "32",
						"value": "t_uint256"
					},
					"t_string_storage": {
						"encoding": "bytes",
						"label": "string",
						"numberOfBytes": "32"
					},
					"t_uint256": {
						"encoding": "inplace",
						"label": "uint256",
						"numberOfBytes": "32"
					}
				}
			},
			"userdoc": {
				"kind": "user",
				"methods": {},
				"version": 1
			}
		}
	}
}