{
	"contracts/Project.sol": {
		"Project": {
			"abi": [
				{
					"inputs": [
						{
							"internalType": "address payable",
							"name": "_projectCreator",
							"type": "address"
						},
						{
							"internalType": "string",
							"name": "_projectTitle",
							"type": "string"
						},
						{
							"internalType": "string",
							"name": "_projectDescription",
							"type": "string"
						},
						{
							"internalType": "uint256",
							"name": "_amountGoal",
							"type": "uint256"
						},
						{
							"internalType": "uint256",
							"name": "_deadLine",
							"type": "uint256"
						}
					],
					"stateMutability": "nonpayable",
					"type": "constructor"
				},
				{
					"anonymous": false,
					"inputs": [
						{
							"indexed": false,
							"internalType": "address",
							"name": "_contributor",
							"type": "address"
						},
						{
							"indexed": false,
							"internalType": "uint256",
							"name": "_value",
							"type": "uint256"
						}
					],
					"name": "FundReceivedBy",
					"type": "event"
				},
				{
					"anonymous": false,
					"inputs": [
						{
							"indexed": false,
							"internalType": "string",
							"name": "_desc",
							"type": "string"
						},
						{
							"indexed": false,
							"internalType": "string",
							"name": "_projectTitle",
							"type": "string"
						}
					],
					"name": "GoalReached",
					"type": "event"
				},
				{
					"inputs": [],
					"name": "contribute",
					"outputs": [],
					"stateMutability": "payable",
					"type": "function"
				},
				{
					"inputs": [],
					"name": "getProjectTitle",
					"outputs": [
						{
							"internalType": "string",
							"name": "",
							"type": "string"
						}
					],
					"stateMutability": "view",
					"type": "function"
				},
				{
					"inputs": [],
					"name": "projectCreator",
					"outputs": [
						{
							"internalType": "address payable",
							"name": "",
							"type": "address"
						}
					],
					"stateMutability": "view",
					"type": "function"
				},
				{
					"inputs": [
						{
							"internalType": "string",
							"name": "_projectTitle",
							"type": "string"
						}
					],
					"name": "setProjectTitle",
					"outputs": [],
					"stateMutability": "nonpayable",
					"type": "function"
				}
			],
			"devdoc": {
				"kind": "dev",
				"methods": {},
				"version": 1
			},
			"evm": {
				"assembly": "    /* \"contracts/Project.sol\":225:2996  contract Project {... */\n  mstore(0x40, 0x80)\n    /* \"contracts/Project.sol\":1253:1679  constructor... */\n  callvalue\n  dup1\n  iszero\n  tag_1\n  jumpi\n  0x00\n  dup1\n  revert\ntag_1:\n  pop\n  mload(0x40)\n  sub(codesize, bytecodeSize)\n  dup1\n  bytecodeSize\n  dup4\n  codecopy\n  dup2\n  dup2\n  add\n  0x40\n  mstore\n  dup2\n  add\n  swap1\n  tag_2\n  swap2\n  swap1\n  tag_3\n  jump\t// in\ntag_2:\n    /* \"contracts/Project.sol\":1477:1492  _projectCreator */\n  dup5\n    /* \"contracts/Project.sol\":1460:1474  projectCreator */\n  0x00\n  dup1\n    /* \"contracts/Project.sol\":1460:1492  projectCreator = _projectCreator */\n  0x0100\n  exp\n  dup2\n  sload\n  dup2\n  0xffffffffffffffffffffffffffffffffffffffff\n  mul\n  not\n  and\n  swap1\n  dup4\n  0xffffffffffffffffffffffffffffffffffffffff\n  and\n  mul\n  or\n  swap1\n  sstore\n  pop\n    /* \"contracts/Project.sol\":1517:1530  _projectTitle */\n  dup4\n    /* \"contracts/Project.sol\":1502:1514  projectTitle */\n  0x01\n    /* \"contracts/Project.sol\":1502:1530  projectTitle = _projectTitle */\n  swap1\n  dup1\n  mload\n  swap1\n  0x20\n  add\n  swap1\n  tag_6\n  swap3\n  swap2\n  swap1\n  tag_7\n  jump\t// in\ntag_6:\n  pop\n    /* \"contracts/Project.sol\":1561:1580  _projectDescription */\n  dup3\n    /* \"contracts/Project.sol\":1540:1558  projectDescription */\n  0x02\n    /* \"contracts/Project.sol\":1540:1580  projectDescription = _projectDescription */\n  swap1\n  dup1\n  mload\n  swap1\n  0x20\n  add\n  swap1\n  tag_8\n  swap3\n  swap2\n  swap1\n  tag_7\n  jump\t// in\ntag_8:\n  pop\n    /* \"contracts/Project.sol\":1603:1614  _amountGoal */\n  dup2\n    /* \"contracts/Project.sol\":1590:1600  amountGoal */\n  0x03\n    /* \"contracts/Project.sol\":1590:1614  amountGoal = _amountGoal */\n  dup2\n  swap1\n  sstore\n  pop\n    /* \"contracts/Project.sol\":1635:1644  _deadLine */\n  dup1\n    /* \"contracts/Project.sol\":1624:1632  deadLine */\n  0x06\n    /* \"contracts/Project.sol\":1624:1644  deadLine = _deadLine */\n  dup2\n  swap1\n  sstore\n  pop\n    /* \"contracts/Project.sol\":1671:1672  0 */\n  0x00\n    /* \"contracts/Project.sol\":1654:1668  currentBalance */\n  0x04\n    /* \"contracts/Project.sol\":1654:1672  currentBalance = 0 */\n  dup2\n  swap1\n  sstore\n  pop\n    /* \"contracts/Project.sol\":1253:1679  constructor... */\n  pop\n  pop\n  pop\n  pop\n  pop\n    /* \"contracts/Project.sol\":225:2996  contract Project {... */\n  jump(tag_9)\ntag_7:\n  dup3\n  dup1\n  sload\n  tag_10\n  swap1\n  tag_11\n  jump\t// in\ntag_10:\n  swap1\n  0x00\n  mstore\n  keccak256(0x00, 0x20)\n  swap1\n  0x1f\n  add\n  0x20\n  swap1\n  div\n  dup2\n  add\n  swap3\n  dup3\n  tag_13\n  jumpi\n  0x00\n  dup6\n  sstore\n  jump(tag_12)\ntag_13:\n  dup3\n  0x1f\n  lt\n  tag_14\n  jumpi\n  dup1\n  mload\n  not(0xff)\n  and\n  dup4\n  dup1\n  add\n  or\n  dup6\n  sstore\n  jump(tag_12)\ntag_14:\n  dup3\n  dup1\n  add\n  0x01\n  add\n  dup6\n  sstore\n  dup3\n  iszero\n  tag_12\n  jumpi\n  swap2\n  dup3\n  add\ntag_15:\n  dup3\n  dup2\n  gt\n  iszero\n  tag_16\n  jumpi\n  dup3\n  mload\n  dup3\n  sstore\n  swap2\n  0x20\n  add\n  swap2\n  swap1\n  0x01\n  add\n  swap1\n  jump(tag_15)\ntag_16:\ntag_12:\n  pop\n  swap1\n  pop\n  tag_17\n  swap2\n  swap1\n  tag_18\n  jump\t// in\ntag_17:\n  pop\n  swap1\n  jump\t// out\ntag_18:\ntag_19:\n  dup1\n  dup3\n  gt\n  iszero\n  tag_20\n  jumpi\n  0x00\n  dup2\n  0x00\n  swap1\n  sstore\n  pop\n  0x01\n  add\n  jump(tag_19)\ntag_20:\n  pop\n  swap1\n  jump\t// out\n    /* \"#utility.yul\":7:82   */\ntag_21:\n    /* \"#utility.yul\":40:46   */\n  0x00\n    /* \"#utility.yul\":73:75   */\n  0x40\n    /* \"#utility.yul\":67:76   */\n  mload\n    /* \"#utility.yul\":57:76   */\n  swap1\n  pop\n    /* \"#utility.yul\":7:82   */\n  swap1\n  jump\t// out\n    /* \"#utility.yul\":88:205   */\ntag_22:\n    /* \"#utility.yul\":197:198   */\n  0x00\n    /* \"#utility.yul\":194:195   */\n  dup1\n    /* \"#utility.yul\":187:199   */\n  revert\n    /* \"#utility.yul\":211:328   */\ntag_23:\n    /* \"#utility.yul\":320:321   */\n  0x00\n    /* \"#utility.yul\":317:318   */\n  dup1\n    /* \"#utility.yul\":310:322   */\n  revert\n    /* \"#utility.yul\":334:460   */\ntag_24:\n    /* \"#utility.yul\":371:378   */\n  0x00\n    /* \"#utility.yul\":411:453   */\n  0xffffffffffffffffffffffffffffffffffffffff\n    /* \"#utility.yul\":404:409   */\n  dup3\n    /* \"#utility.yul\":400:454   */\n  and\n    /* \"#utility.yul\":389:454   */\n  swap1\n  pop\n    /* \"#utility.yul\":334:460   */\n  swap2\n  swap1\n  pop\n  jump\t// out\n    /* \"#utility.yul\":466:570   */\ntag_25:\n    /* \"#utility.yul\":511:518   */\n  0x00\n    /* \"#utility.yul\":540:564   */\n  tag_48\n    /* \"#utility.yul\":558:563   */\n  dup3\n    /* \"#utility.yul\":540:564   */\n  tag_24\n  jump\t// in\ntag_48:\n    /* \"#utility.yul\":529:564   */\n  swap1\n  pop\n    /* \"#utility.yul\":466:570   */\n  swap2\n  swap1\n  pop\n  jump\t// out\n    /* \"#utility.yul\":576:714   */\ntag_26:\n    /* \"#utility.yul\":657:689   */\n  tag_50\n    /* \"#utility.yul\":683:688   */\n  dup2\n    /* \"#utility.yul\":657:689   */\n  tag_25\n  jump\t// in\ntag_50:\n    /* \"#utility.yul\":650:655   */\n  dup2\n    /* \"#utility.yul\":647:690   */\n  eq\n    /* \"#utility.yul\":637:708   */\n  tag_51\n  jumpi\n    /* \"#utility.yul\":704:705   */\n  0x00\n    /* \"#utility.yul\":701:702   */\n  dup1\n    /* \"#utility.yul\":694:706   */\n  revert\n    /* \"#utility.yul\":637:708   */\ntag_51:\n    /* \"#utility.yul\":576:714   */\n  pop\n  jump\t// out\n    /* \"#utility.yul\":720:879   */\ntag_27:\n    /* \"#utility.yul\":785:790   */\n  0x00\n    /* \"#utility.yul\":816:822   */\n  dup2\n    /* \"#utility.yul\":810:823   */\n  mload\n    /* \"#utility.yul\":801:823   */\n  swap1\n  pop\n    /* \"#utility.yul\":832:873   */\n  tag_53\n    /* \"#utility.yul\":867:872   */\n  dup2\n    /* \"#utility.yul\":832:873   */\n  tag_26\n  jump\t// in\ntag_53:\n    /* \"#utility.yul\":720:879   */\n  swap3\n  swap2\n  pop\n  pop\n  jump\t// out\n    /* \"#utility.yul\":885:1002   */\ntag_28:\n    /* \"#utility.yul\":994:995   */\n  0x00\n    /* \"#utility.yul\":991:992   */\n  dup1\n    /* \"#utility.yul\":984:996   */\n  revert\n    /* \"#utility.yul\":1008:1125   */\ntag_29:\n    /* \"#utility.yul\":1117:1118   */\n  0x00\n    /* \"#utility.yul\":1114:1115   */\n  dup1\n    /* \"#utility.yul\":1107:1119   */\n  revert\n    /* \"#utility.yul\":1131:1233   */\ntag_30:\n    /* \"#utility.yul\":1172:1178   */\n  0x00\n    /* \"#utility.yul\":1223:1225   */\n  0x1f\n    /* \"#utility.yul\":1219:1226   */\n  not\n    /* \"#utility.yul\":1214:1216   */\n  0x1f\n    /* \"#utility.yul\":1207:1212   */\n  dup4\n    /* \"#utility.yul\":1203:1217   */\n  add\n    /* \"#utility.yul\":1199:1227   */\n  and\n    /* \"#utility.yul\":1189:1227   */\n  swap1\n  pop\n    /* \"#utility.yul\":1131:1233   */\n  swap2\n  swap1\n  pop\n  jump\t// out\n    /* \"#utility.yul\":1239:1419   */\ntag_31:\n    /* \"#utility.yul\":1287:1364   */\n  0x4e487b7100000000000000000000000000000000000000000000000000000000\n    /* \"#utility.yul\":1284:1285   */\n  0x00\n    /* \"#utility.yul\":1277:1365   */\n  mstore\n    /* \"#utility.yul\":1384:1388   */\n  0x41\n    /* \"#utility.yul\":1381:1382   */\n  0x04\n    /* \"#utility.yul\":1374:1389   */\n  mstore\n    /* \"#utility.yul\":1408:1412   */\n  0x24\n    /* \"#utility.yul\":1405:1406   */\n  0x00\n    /* \"#utility.yul\":1398:1413   */\n  revert\n    /* \"#utility.yul\":1425:1706   */\ntag_32:\n    /* \"#utility.yul\":1508:1535   */\n  tag_59\n    /* \"#utility.yul\":1530:1534   */\n  dup3\n    /* \"#utility.yul\":1508:1535   */\n  tag_30\n  jump\t// in\ntag_59:\n    /* \"#utility.yul\":1500:1506   */\n  dup2\n    /* \"#utility.yul\":1496:1536   */\n  add\n    /* \"#utility.yul\":1638:1644   */\n  dup2\n    /* \"#utility.yul\":1626:1636   */\n  dup2\n    /* \"#utility.yul\":1623:1645   */\n  lt\n    /* \"#utility.yul\":1602:1620   */\n  0xffffffffffffffff\n    /* \"#utility.yul\":1590:1600   */\n  dup3\n    /* \"#utility.yul\":1587:1621   */\n  gt\n    /* \"#utility.yul\":1584:1646   */\n  or\n    /* \"#utility.yul\":1581:1669   */\n  iszero\n  tag_60\n  jumpi\n    /* \"#utility.yul\":1649:1667   */\n  tag_61\n  tag_31\n  jump\t// in\ntag_61:\n    /* \"#utility.yul\":1581:1669   */\ntag_60:\n    /* \"#utility.yul\":1689:1699   */\n  dup1\n    /* \"#utility.yul\":1685:1687   */\n  0x40\n    /* \"#utility.yul\":1678:1700   */\n  mstore\n    /* \"#utility.yul\":1468:1706   */\n  pop\n    /* \"#utility.yul\":1425:1706   */\n  pop\n  pop\n  jump\t// out\n    /* \"#utility.yul\":1712:1841   */\ntag_33:\n    /* \"#utility.yul\":1746:1752   */\n  0x00\n    /* \"#utility.yul\":1773:1793   */\n  tag_63\n  tag_21\n  jump\t// in\ntag_63:\n    /* \"#utility.yul\":1763:1793   */\n  swap1\n  pop\n    /* \"#utility.yul\":1802:1835   */\n  tag_64\n    /* \"#utility.yul\":1830:1834   */\n  dup3\n    /* \"#utility.yul\":1822:1828   */\n  dup3\n    /* \"#utility.yul\":1802:1835   */\n  tag_32\n  jump\t// in\ntag_64:\n    /* \"#utility.yul\":1712:1841   */\n  swap2\n  swap1\n  pop\n  jump\t// out\n    /* \"#utility.yul\":1847:2155   */\ntag_34:\n    /* \"#utility.yul\":1909:1913   */\n  0x00\n    /* \"#utility.yul\":1999:2017   */\n  0xffffffffffffffff\n    /* \"#utility.yul\":1991:1997   */\n  dup3\n    /* \"#utility.yul\":1988:2018   */\n  gt\n    /* \"#utility.yul\":1985:2041   */\n  iszero\n  tag_66\n  jumpi\n    /* \"#utility.yul\":2021:2039   */\n  tag_67\n  tag_31\n  jump\t// in\ntag_67:\n    /* \"#utility.yul\":1985:2041   */\ntag_66:\n    /* \"#utility.yul\":2059:2088   */\n  tag_68\n    /* \"#utility.yul\":2081:2087   */\n  dup3\n    /* \"#utility.yul\":2059:2088   */\n  tag_30\n  jump\t// in\ntag_68:\n    /* \"#utility.yul\":2051:2088   */\n  swap1\n  pop\n    /* \"#utility.yul\":2143:2147   */\n  0x20\n    /* \"#utility.yul\":2137:2141   */\n  dup2\n    /* \"#utility.yul\":2133:2148   */\n  add\n    /* \"#utility.yul\":2125:2148   */\n  swap1\n  pop\n    /* \"#utility.yul\":1847:2155   */\n  swap2\n  swap1\n  pop\n  jump\t// out\n    /* \"#utility.yul\":2161:2468   */\ntag_35:\n    /* \"#utility.yul\":2229:2230   */\n  0x00\n    /* \"#utility.yul\":2239:2352   */\ntag_70:\n    /* \"#utility.yul\":2253:2259   */\n  dup4\n    /* \"#utility.yul\":2250:2251   */\n  dup2\n    /* \"#utility.yul\":2247:2260   */\n  lt\n    /* \"#utility.yul\":2239:2352   */\n  iszero\n  tag_72\n  jumpi\n    /* \"#utility.yul\":2338:2339   */\n  dup1\n    /* \"#utility.yul\":2333:2336   */\n  dup3\n    /* \"#utility.yul\":2329:2340   */\n  add\n    /* \"#utility.yul\":2323:2341   */\n  mload\n    /* \"#utility.yul\":2319:2320   */\n  dup2\n    /* \"#utility.yul\":2314:2317   */\n  dup5\n    /* \"#utility.yul\":2310:2321   */\n  add\n    /* \"#utility.yul\":2303:2342   */\n  mstore\n    /* \"#utility.yul\":2275:2277   */\n  0x20\n    /* \"#utility.yul\":2272:2273   */\n  dup2\n    /* \"#utility.yul\":2268:2278   */\n  add\n    /* \"#utility.yul\":2263:2278   */\n  swap1\n  pop\n    /* \"#utility.yul\":2239:2352   */\n  jump(tag_70)\ntag_72:\n    /* \"#utility.yul\":2370:2376   */\n  dup4\n    /* \"#utility.yul\":2367:2368   */\n  dup2\n    /* \"#utility.yul\":2364:2377   */\n  gt\n    /* \"#utility.yul\":2361:2462   */\n  iszero\n  tag_73\n  jumpi\n    /* \"#utility.yul\":2450:2451   */\n  0x00\n    /* \"#utility.yul\":2441:2447   */\n  dup5\n    /* \"#utility.yul\":2436:2439   */\n  dup5\n    /* \"#utility.yul\":2432:2448   */\n  add\n    /* \"#utility.yul\":2425:2452   */\n  mstore\n    /* \"#utility.yul\":2361:2462   */\ntag_73:\n    /* \"#utility.yul\":2210:2468   */\n  pop\n    /* \"#utility.yul\":2161:2468   */\n  pop\n  pop\n  pop\n  jump\t// out\n    /* \"#utility.yul\":2474:2895   */\ntag_36:\n    /* \"#utility.yul\":2563:2568   */\n  0x00\n    /* \"#utility.yul\":2588:2654   */\n  tag_75\n    /* \"#utility.yul\":2604:2653   */\n  tag_76\n    /* \"#utility.yul\":2646:2652   */\n  dup5\n    /* \"#utility.yul\":2604:2653   */\n  tag_34\n  jump\t// in\ntag_76:\n    /* \"#utility.yul\":2588:2654   */\n  tag_33\n  jump\t// in\ntag_75:\n    /* \"#utility.yul\":2579:2654   */\n  swap1\n  pop\n    /* \"#utility.yul\":2677:2683   */\n  dup3\n    /* \"#utility.yul\":2670:2675   */\n  dup2\n    /* \"#utility.yul\":2663:2684   */\n  mstore\n    /* \"#utility.yul\":2715:2719   */\n  0x20\n    /* \"#utility.yul\":2708:2713   */\n  dup2\n    /* \"#utility.yul\":2704:2720   */\n  add\n    /* \"#utility.yul\":2753:2756   */\n  dup5\n    /* \"#utility.yul\":2744:2750   */\n  dup5\n    /* \"#utility.yul\":2739:2742   */\n  dup5\n    /* \"#utility.yul\":2735:2751   */\n  add\n    /* \"#utility.yul\":2732:2757   */\n  gt\n    /* \"#utility.yul\":2729:2841   */\n  iszero\n  tag_77\n  jumpi\n    /* \"#utility.yul\":2760:2839   */\n  tag_78\n  tag_29\n  jump\t// in\ntag_78:\n    /* \"#utility.yul\":2729:2841   */\ntag_77:\n    /* \"#utility.yul\":2850:2889   */\n  tag_79\n    /* \"#utility.yul\":2882:2888   */\n  dup5\n    /* \"#utility.yul\":2877:2880   */\n  dup3\n    /* \"#utility.yul\":2872:2875   */\n  dup6\n    /* \"#utility.yul\":2850:2889   */\n  tag_35\n  jump\t// in\ntag_79:\n    /* \"#utility.yul\":2569:2895   */\n  pop\n    /* \"#utility.yul\":2474:2895   */\n  swap4\n  swap3\n  pop\n  pop\n  pop\n  jump\t// out\n    /* \"#utility.yul\":2915:3270   */\ntag_37:\n    /* \"#utility.yul\":2982:2987   */\n  0x00\n    /* \"#utility.yul\":3031:3034   */\n  dup3\n    /* \"#utility.yul\":3024:3028   */\n  0x1f\n    /* \"#utility.yul\":3016:3022   */\n  dup4\n    /* \"#utility.yul\":3012:3029   */\n  add\n    /* \"#utility.yul\":3008:3035   */\n  slt\n    /* \"#utility.yul\":2998:3120   */\n  tag_81\n  jumpi\n    /* \"#utility.yul\":3039:3118   */\n  tag_82\n  tag_28\n  jump\t// in\ntag_82:\n    /* \"#utility.yul\":2998:3120   */\ntag_81:\n    /* \"#utility.yul\":3149:3155   */\n  dup2\n    /* \"#utility.yul\":3143:3156   */\n  mload\n    /* \"#utility.yul\":3174:3264   */\n  tag_83\n    /* \"#utility.yul\":3260:3263   */\n  dup5\n    /* \"#utility.yul\":3252:3258   */\n  dup3\n    /* \"#utility.yul\":3245:3249   */\n  0x20\n    /* \"#utility.yul\":3237:3243   */\n  dup7\n    /* \"#utility.yul\":3233:3250   */\n  add\n    /* \"#utility.yul\":3174:3264   */\n  tag_36\n  jump\t// in\ntag_83:\n    /* \"#utility.yul\":3165:3264   */\n  swap2\n  pop\n    /* \"#utility.yul\":2988:3270   */\n  pop\n    /* \"#utility.yul\":2915:3270   */\n  swap3\n  swap2\n  pop\n  pop\n  jump\t// out\n    /* \"#utility.yul\":3276:3353   */\ntag_38:\n    /* \"#utility.yul\":3313:3320   */\n  0x00\n    /* \"#utility.yul\":3342:3347   */\n  dup2\n    /* \"#utility.yul\":3331:3347   */\n  swap1\n  pop\n    /* \"#utility.yul\":3276:3353   */\n  swap2\n  swap1\n  pop\n  jump\t// out\n    /* \"#utility.yul\":3359:3481   */\ntag_39:\n    /* \"#utility.yul\":3432:3456   */\n  tag_86\n    /* \"#utility.yul\":3450:3455   */\n  dup2\n    /* \"#utility.yul\":3432:3456   */\n  tag_38\n  jump\t// in\ntag_86:\n    /* \"#utility.yul\":3425:3430   */\n  dup2\n    /* \"#utility.yul\":3422:3457   */\n  eq\n    /* \"#utility.yul\":3412:3475   */\n  tag_87\n  jumpi\n    /* \"#utility.yul\":3471:3472   */\n  0x00\n    /* \"#utility.yul\":3468:3469   */\n  dup1\n    /* \"#utility.yul\":3461:3473   */\n  revert\n    /* \"#utility.yul\":3412:3475   */\ntag_87:\n    /* \"#utility.yul\":3359:3481   */\n  pop\n  jump\t// out\n    /* \"#utility.yul\":3487:3630   */\ntag_40:\n    /* \"#utility.yul\":3544:3549   */\n  0x00\n    /* \"#utility.yul\":3575:3581   */\n  dup2\n    /* \"#utility.yul\":3569:3582   */\n  mload\n    /* \"#utility.yul\":3560:3582   */\n  swap1\n  pop\n    /* \"#utility.yul\":3591:3624   */\n  tag_89\n    /* \"#utility.yul\":3618:3623   */\n  dup2\n    /* \"#utility.yul\":3591:3624   */\n  tag_39\n  jump\t// in\ntag_89:\n    /* \"#utility.yul\":3487:3630   */\n  swap3\n  swap2\n  pop\n  pop\n  jump\t// out\n    /* \"#utility.yul\":3636:4975   */\ntag_3:\n    /* \"#utility.yul\":3770:3776   */\n  0x00\n    /* \"#utility.yul\":3778:3784   */\n  dup1\n    /* \"#utility.yul\":3786:3792   */\n  0x00\n    /* \"#utility.yul\":3794:3800   */\n  dup1\n    /* \"#utility.yul\":3802:3808   */\n  0x00\n    /* \"#utility.yul\":3851:3854   */\n  0xa0\n    /* \"#utility.yul\":3839:3848   */\n  dup7\n    /* \"#utility.yul\":3830:3837   */\n  dup9\n    /* \"#utility.yul\":3826:3849   */\n  sub\n    /* \"#utility.yul\":3822:3855   */\n  slt\n    /* \"#utility.yul\":3819:3939   */\n  iszero\n  tag_91\n  jumpi\n    /* \"#utility.yul\":3858:3937   */\n  tag_92\n  tag_22\n  jump\t// in\ntag_92:\n    /* \"#utility.yul\":3819:3939   */\ntag_91:\n    /* \"#utility.yul\":3978:3979   */\n  0x00\n    /* \"#utility.yul\":4003:4075   */\n  tag_93\n    /* \"#utility.yul\":4067:4074   */\n  dup9\n    /* \"#utility.yul\":4058:4064   */\n  dup3\n    /* \"#utility.yul\":4047:4056   */\n  dup10\n    /* \"#utility.yul\":4043:4065   */\n  add\n    /* \"#utility.yul\":4003:4075   */\n  tag_27\n  jump\t// in\ntag_93:\n    /* \"#utility.yul\":3993:4075   */\n  swap6\n  pop\n    /* \"#utility.yul\":3949:4085   */\n  pop\n    /* \"#utility.yul\":4145:4147   */\n  0x20\n    /* \"#utility.yul\":4134:4143   */\n  dup7\n    /* \"#utility.yul\":4130:4148   */\n  add\n    /* \"#utility.yul\":4124:4149   */\n  mload\n    /* \"#utility.yul\":4176:4194   */\n  0xffffffffffffffff\n    /* \"#utility.yul\":4168:4174   */\n  dup2\n    /* \"#utility.yul\":4165:4195   */\n  gt\n    /* \"#utility.yul\":4162:4279   */\n  iszero\n  tag_94\n  jumpi\n    /* \"#utility.yul\":4198:4277   */\n  tag_95\n  tag_23\n  jump\t// in\ntag_95:\n    /* \"#utility.yul\":4162:4279   */\ntag_94:\n    /* \"#utility.yul\":4303:4377   */\n  tag_96\n    /* \"#utility.yul\":4369:4376   */\n  dup9\n    /* \"#utility.yul\":4360:4366   */\n  dup3\n    /* \"#utility.yul\":4349:4358   */\n  dup10\n    /* \"#utility.yul\":4345:4367   */\n  add\n    /* \"#utility.yul\":4303:4377   */\n  tag_37\n  jump\t// in\ntag_96:\n    /* \"#utility.yul\":4293:4377   */\n  swap5\n  pop\n    /* \"#utility.yul\":4095:4387   */\n  pop\n    /* \"#utility.yul\":4447:4449   */\n  0x40\n    /* \"#utility.yul\":4436:4445   */\n  dup7\n    /* \"#utility.yul\":4432:4450   */\n  add\n    /* \"#utility.yul\":4426:4451   */\n  mload\n    /* \"#utility.yul\":4478:4496   */\n  0xffffffffffffffff\n    /* \"#utility.yul\":4470:4476   */\n  dup2\n    /* \"#utility.yul\":4467:4497   */\n  gt\n    /* \"#utility.yul\":4464:4581   */\n  iszero\n  tag_97\n  jumpi\n    /* \"#utility.yul\":4500:4579   */\n  tag_98\n  tag_23\n  jump\t// in\ntag_98:\n    /* \"#utility.yul\":4464:4581   */\ntag_97:\n    /* \"#utility.yul\":4605:4679   */\n  tag_99\n    /* \"#utility.yul\":4671:4678   */\n  dup9\n    /* \"#utility.yul\":4662:4668   */\n  dup3\n    /* \"#utility.yul\":4651:4660   */\n  dup10\n    /* \"#utility.yul\":4647:4669   */\n  add\n    /* \"#utility.yul\":4605:4679   */\n  tag_37\n  jump\t// in\ntag_99:\n    /* \"#utility.yul\":4595:4679   */\n  swap4\n  pop\n    /* \"#utility.yul\":4397:4689   */\n  pop\n    /* \"#utility.yul\":4728:4730   */\n  0x60\n    /* \"#utility.yul\":4754:4818   */\n  tag_100\n    /* \"#utility.yul\":4810:4817   */\n  dup9\n    /* \"#utility.yul\":4801:4807   */\n  dup3\n    /* \"#utility.yul\":4790:4799   */\n  dup10\n    /* \"#utility.yul\":4786:4808   */\n  add\n    /* \"#utility.yul\":4754:4818   */\n  tag_40\n  jump\t// in\ntag_100:\n    /* \"#utility.yul\":4744:4818   */\n  swap3\n  pop\n    /* \"#utility.yul\":4699:4828   */\n  pop\n    /* \"#utility.yul\":4867:4870   */\n  0x80\n    /* \"#utility.yul\":4894:4958   */\n  tag_101\n    /* \"#utility.yul\":4950:4957   */\n  dup9\n    /* \"#utility.yul\":4941:4947   */\n  dup3\n    /* \"#utility.yul\":4930:4939   */\n  dup10\n    /* \"#utility.yul\":4926:4948   */\n  add\n    /* \"#utility.yul\":4894:4958   */\n  tag_40\n  jump\t// in\ntag_101:\n    /* \"#utility.yul\":4884:4958   */\n  swap2\n  pop\n    /* \"#utility.yul\":4838:4968   */\n  pop\n    /* \"#utility.yul\":3636:4975   */\n  swap3\n  swap6\n  pop\n  swap3\n  swap6\n  swap1\n  swap4\n  pop\n  jump\t// out\n    /* \"#utility.yul\":4981:5161   */\ntag_41:\n    /* \"#utility.yul\":5029:5106   */\n  0x4e487b7100000000000000000000000000000000000000000000000000000000\n    /* \"#utility.yul\":5026:5027   */\n  0x00\n    /* \"#utility.yul\":5019:5107   */\n  mstore\n    /* \"#utility.yul\":5126:5130   */\n  0x22\n    /* \"#utility.yul\":5123:5124   */\n  0x04\n    /* \"#utility.yul\":5116:5131   */\n  mstore\n    /* \"#utility.yul\":5150:5154   */\n  0x24\n    /* \"#utility.yul\":5147:5148   */\n  0x00\n    /* \"#utility.yul\":5140:5155   */\n  revert\n    /* \"#utility.yul\":5167:5487   */\ntag_11:\n    /* \"#utility.yul\":5211:5217   */\n  0x00\n    /* \"#utility.yul\":5248:5249   */\n  0x02\n    /* \"#utility.yul\":5242:5246   */\n  dup3\n    /* \"#utility.yul\":5238:5250   */\n  div\n    /* \"#utility.yul\":5228:5250   */\n  swap1\n  pop\n    /* \"#utility.yul\":5295:5296   */\n  0x01\n    /* \"#utility.yul\":5289:5293   */\n  dup3\n    /* \"#utility.yul\":5285:5297   */\n  and\n    /* \"#utility.yul\":5316:5334   */\n  dup1\n    /* \"#utility.yul\":5306:5387   */\n  tag_104\n  jumpi\n    /* \"#utility.yul\":5372:5376   */\n  0x7f\n    /* \"#utility.yul\":5364:5370   */\n  dup3\n    /* \"#utility.yul\":5360:5377   */\n  and\n    /* \"#utility.yul\":5350:5377   */\n  swap2\n  pop\n    /* \"#utility.yul\":5306:5387   */\ntag_104:\n    /* \"#utility.yul\":5434:5436   */\n  0x20\n    /* \"#utility.yul\":5426:5432   */\n  dup3\n    /* \"#utility.yul\":5423:5437   */\n  lt\n    /* \"#utility.yul\":5403:5421   */\n  dup2\n    /* \"#utility.yul\":5400:5438   */\n  sub\n    /* \"#utility.yul\":5397:5481   */\n  tag_105\n  jumpi\n    /* \"#utility.yul\":5453:5471   */\n  tag_106\n  tag_41\n  jump\t// in\ntag_106:\n    /* \"#utility.yul\":5397:5481   */\ntag_105:\n    /* \"#utility.yul\":5218:5487   */\n  pop\n    /* \"#utility.yul\":5167:5487   */\n  swap2\n  swap1\n  pop\n  jump\t// out\n    /* \"contracts/Project.sol\":225:2996  contract Project {... */\ntag_9:\n  dataSize(sub_0)\n  dup1\n  dataOffset(sub_0)\n  0x00\n  codecopy\n  0x00\n  return\nstop\n\nsub_0: assembly {\n        /* \"contracts/Project.sol\":225:2996  contract Project {... */\n      mstore(0x40, 0x80)\n      jumpi(tag_1, lt(calldatasize, 0x04))\n      shr(0xe0, calldataload(0x00))\n      dup1\n      0xa541a2a2\n      eq\n      tag_2\n      jumpi\n      dup1\n      0xa8b93c8d\n      eq\n      tag_3\n      jumpi\n      dup1\n      0xd7bb99ba\n      eq\n      tag_4\n      jumpi\n      dup1\n      0xf020cd19\n      eq\n      tag_5\n      jumpi\n    tag_1:\n      0x00\n      dup1\n      revert\n        /* \"contracts/Project.sol\":360:397  address payable public projectCreator */\n    tag_2:\n      callvalue\n      dup1\n      iszero\n      tag_6\n      jumpi\n      0x00\n      dup1\n      revert\n    tag_6:\n      pop\n      tag_7\n      tag_8\n      jump\t// in\n    tag_7:\n      mload(0x40)\n      tag_9\n      swap2\n      swap1\n      tag_10\n      jump\t// in\n    tag_9:\n      mload(0x40)\n      dup1\n      swap2\n      sub\n      swap1\n      return\n        /* \"contracts/Project.sol\":2884:2990  function setProjectTitle(string memory _projectTitle) public {... */\n    tag_3:\n      callvalue\n      dup1\n      iszero\n      tag_11\n      jumpi\n      0x00\n      dup1\n      revert\n    tag_11:\n      pop\n      tag_12\n      0x04\n      dup1\n      calldatasize\n      sub\n      dup2\n      add\n      swap1\n      tag_13\n      swap2\n      swap1\n      tag_14\n      jump\t// in\n    tag_13:\n      tag_15\n      jump\t// in\n    tag_12:\n      stop\n        /* \"contracts/Project.sol\":2098:2429  function contribute() public payable inState(State.Fundraising) {... */\n    tag_4:\n      tag_16\n      tag_17\n      jump\t// in\n    tag_16:\n      stop\n        /* \"contracts/Project.sol\":2776:2874  function getProjectTitle() public view returns(string memory) {... */\n    tag_5:\n      callvalue\n      dup1\n      iszero\n      tag_18\n      jumpi\n      0x00\n      dup1\n      revert\n    tag_18:\n      pop\n      tag_19\n      tag_20\n      jump\t// in\n    tag_19:\n      mload(0x40)\n      tag_21\n      swap2\n      swap1\n      tag_22\n      jump\t// in\n    tag_21:\n      mload(0x40)\n      dup1\n      swap2\n      sub\n      swap1\n      return\n        /* \"contracts/Project.sol\":360:397  address payable public projectCreator */\n    tag_8:\n      0x00\n      dup1\n      sload\n      swap1\n      0x0100\n      exp\n      swap1\n      div\n      0xffffffffffffffffffffffffffffffffffffffff\n      and\n      dup2\n      jump\t// out\n        /* \"contracts/Project.sol\":2884:2990  function setProjectTitle(string memory _projectTitle) public {... */\n    tag_15:\n        /* \"contracts/Project.sol\":2970:2983  _projectTitle */\n      dup1\n        /* \"contracts/Project.sol\":2955:2967  projectTitle */\n      0x01\n        /* \"contracts/Project.sol\":2955:2983  projectTitle = _projectTitle */\n      swap1\n      dup1\n      mload\n      swap1\n      0x20\n      add\n      swap1\n      tag_24\n      swap3\n      swap2\n      swap1\n      tag_25\n      jump\t// in\n    tag_24:\n      pop\n        /* \"contracts/Project.sol\":2884:2990  function setProjectTitle(string memory _projectTitle) public {... */\n      pop\n      jump\t// out\n        /* \"contracts/Project.sol\":2098:2429  function contribute() public payable inState(State.Fundraising) {... */\n    tag_17:\n        /* \"contracts/Project.sol\":2143:2160  State.Fundraising */\n      0x00\n        /* \"contracts/Project.sol\":955:961  _state */\n      dup1\n        /* \"contracts/Project.sol\":946:961  state == _state */\n      0x02\n      dup2\n      gt\n      iszero\n      tag_27\n      jumpi\n      tag_28\n      tag_29\n      jump\t// in\n    tag_28:\n    tag_27:\n        /* \"contracts/Project.sol\":946:951  state */\n      0x05\n      0x00\n      swap1\n      sload\n      swap1\n      0x0100\n      exp\n      swap1\n      div\n      0xff\n      and\n        /* \"contracts/Project.sol\":946:961  state == _state */\n      0x02\n      dup2\n      gt\n      iszero\n      tag_30\n      jumpi\n      tag_31\n      tag_29\n      jump\t// in\n    tag_31:\n    tag_30:\n      eq\n        /* \"contracts/Project.sol\":938:962  require(state == _state) */\n      tag_32\n      jumpi\n      0x00\n      dup1\n      revert\n    tag_32:\n        /* \"contracts/Project.sol\":2194:2208  projectCreator */\n      0x00\n      dup1\n      sload\n      swap1\n      0x0100\n      exp\n      swap1\n      div\n      0xffffffffffffffffffffffffffffffffffffffff\n      and\n        /* \"contracts/Project.sol\":2180:2208  msg.sender != projectCreator */\n      0xffffffffffffffffffffffffffffffffffffffff\n      and\n        /* \"contracts/Project.sol\":2180:2190  msg.sender */\n      caller\n        /* \"contracts/Project.sol\":2180:2208  msg.sender != projectCreator */\n      0xffffffffffffffffffffffffffffffffffffffff\n      and\n      sub\n        /* \"contracts/Project.sol\":2172:2209  require(msg.sender != projectCreator) */\n      tag_34\n      jumpi\n      0x00\n      dup1\n      revert\n    tag_34:\n        /* \"contracts/Project.sol\":2247:2287  contributions[msg.sender].add(msg.value) */\n      tag_35\n        /* \"contracts/Project.sol\":2277:2286  msg.value */\n      callvalue\n        /* \"contracts/Project.sol\":2247:2260  contributions */\n      0x07\n        /* \"contracts/Project.sol\":2247:2272  contributions[msg.sender] */\n      0x00\n        /* \"contracts/Project.sol\":2261:2271  msg.sender */\n      caller\n        /* \"contracts/Project.sol\":2247:2272  contributions[msg.sender] */\n      0xffffffffffffffffffffffffffffffffffffffff\n      and\n      0xffffffffffffffffffffffffffffffffffffffff\n      and\n      dup2\n      mstore\n      0x20\n      add\n      swap1\n      dup2\n      mstore\n      0x20\n      add\n      0x00\n      keccak256\n      sload\n        /* \"contracts/Project.sol\":2247:2276  contributions[msg.sender].add */\n      tag_36\n      swap1\n        /* \"contracts/Project.sol\":2247:2287  contributions[msg.sender].add(msg.value) */\n      swap2\n      swap1\n      0xffffffff\n      and\n      jump\t// in\n    tag_35:\n        /* \"contracts/Project.sol\":2219:2232  contributions */\n      0x07\n        /* \"contracts/Project.sol\":2219:2244  contributions[msg.sender] */\n      0x00\n        /* \"contracts/Project.sol\":2233:2243  msg.sender */\n      caller\n        /* \"contracts/Project.sol\":2219:2244  contributions[msg.sender] */\n      0xffffffffffffffffffffffffffffffffffffffff\n      and\n      0xffffffffffffffffffffffffffffffffffffffff\n      and\n      dup2\n      mstore\n      0x20\n      add\n      swap1\n      dup2\n      mstore\n      0x20\n      add\n      0x00\n      keccak256\n        /* \"contracts/Project.sol\":2219:2287  contributions[msg.sender] = contributions[msg.sender].add(msg.value) */\n      dup2\n      swap1\n      sstore\n      pop\n        /* \"contracts/Project.sol\":2332:2341  msg.value */\n      callvalue\n        /* \"contracts/Project.sol\":2315:2329  currentBalance */\n      sload(0x04)\n        /* \"contracts/Project.sol\":2315:2341  currentBalance + msg.value */\n      tag_37\n      swap2\n      swap1\n      tag_38\n      jump\t// in\n    tag_37:\n        /* \"contracts/Project.sol\":2298:2312  currentBalance */\n      0x04\n        /* \"contracts/Project.sol\":2298:2341  currentBalance = currentBalance + msg.value */\n      dup2\n      swap1\n      sstore\n      pop\n        /* \"contracts/Project.sol\":2357:2394  FundReceivedBy(msg.sender, msg.value) */\n      0x75ae3e7c973a88747144369f710c5999060a6321be0506174d3f5c64bdfc674e\n        /* \"contracts/Project.sol\":2372:2382  msg.sender */\n      caller\n        /* \"contracts/Project.sol\":2384:2393  msg.value */\n      callvalue\n        /* \"contracts/Project.sol\":2357:2394  FundReceivedBy(msg.sender, msg.value) */\n      mload(0x40)\n      tag_39\n      swap3\n      swap2\n      swap1\n      tag_40\n      jump\t// in\n    tag_39:\n      mload(0x40)\n      dup1\n      swap2\n      sub\n      swap1\n      log1\n        /* \"contracts/Project.sol\":2404:2422  checkGoalReached() */\n      tag_41\n        /* \"contracts/Project.sol\":2404:2420  checkGoalReached */\n      tag_42\n        /* \"contracts/Project.sol\":2404:2422  checkGoalReached() */\n      jump\t// in\n    tag_41:\n        /* \"contracts/Project.sol\":2098:2429  function contribute() public payable inState(State.Fundraising) {... */\n      pop\n      jump\t// out\n        /* \"contracts/Project.sol\":2776:2874  function getProjectTitle() public view returns(string memory) {... */\n    tag_20:\n        /* \"contracts/Project.sol\":2823:2836  string memory */\n      0x60\n        /* \"contracts/Project.sol\":2855:2867  projectTitle */\n      0x01\n        /* \"contracts/Project.sol\":2848:2867  return projectTitle */\n      dup1\n      sload\n      tag_44\n      swap1\n      tag_45\n      jump\t// in\n    tag_44:\n      dup1\n      0x1f\n      add\n      0x20\n      dup1\n      swap2\n      div\n      mul\n      0x20\n      add\n      mload(0x40)\n      swap1\n      dup2\n      add\n      0x40\n      mstore\n      dup1\n      swap3\n      swap2\n      swap1\n      dup2\n      dup2\n      mstore\n      0x20\n      add\n      dup3\n      dup1\n      sload\n      tag_46\n      swap1\n      tag_45\n      jump\t// in\n    tag_46:\n      dup1\n      iszero\n      tag_47\n      jumpi\n      dup1\n      0x1f\n      lt\n      tag_48\n      jumpi\n      0x0100\n      dup1\n      dup4\n      sload\n      div\n      mul\n      dup4\n      mstore\n      swap2\n      0x20\n      add\n      swap2\n      jump(tag_47)\n    tag_48:\n      dup3\n      add\n      swap2\n      swap1\n      0x00\n      mstore\n      keccak256(0x00, 0x20)\n      swap1\n    tag_49:\n      dup2\n      sload\n      dup2\n      mstore\n      swap1\n      0x01\n      add\n      swap1\n      0x20\n      add\n      dup1\n      dup4\n      gt\n      tag_49\n      jumpi\n      dup3\n      swap1\n      sub\n      0x1f\n      and\n      dup3\n      add\n      swap2\n    tag_47:\n      pop\n      pop\n      pop\n      pop\n      pop\n      swap1\n      pop\n        /* \"contracts/Project.sol\":2776:2874  function getProjectTitle() public view returns(string memory) {... */\n      swap1\n      jump\t// out\n        /* \"https://github.com/OpenZeppelin/openzeppelin-contracts/blob/master/contracts/utils/math/SafeMath.sol\":2755:2851  function add(uint256 a, uint256 b) internal pure returns (uint256) {... */\n    tag_36:\n        /* \"https://github.com/OpenZeppelin/openzeppelin-contracts/blob/master/contracts/utils/math/SafeMath.sol\":2813:2820  uint256 */\n      0x00\n        /* \"https://github.com/OpenZeppelin/openzeppelin-contracts/blob/master/contracts/utils/math/SafeMath.sol\":2843:2844  b */\n      dup2\n        /* \"https://github.com/OpenZeppelin/openzeppelin-contracts/blob/master/contracts/utils/math/SafeMath.sol\":2839:2840  a */\n      dup4\n        /* \"https://github.com/OpenZeppelin/openzeppelin-contracts/blob/master/contracts/utils/math/SafeMath.sol\":2839:2844  a + b */\n      tag_51\n      swap2\n      swap1\n      tag_38\n      jump\t// in\n    tag_51:\n        /* \"https://github.com/OpenZeppelin/openzeppelin-contracts/blob/master/contracts/utils/math/SafeMath.sol\":2832:2844  return a + b */\n      swap1\n      pop\n        /* \"https://github.com/OpenZeppelin/openzeppelin-contracts/blob/master/contracts/utils/math/SafeMath.sol\":2755:2851  function add(uint256 a, uint256 b) internal pure returns (uint256) {... */\n      swap3\n      swap2\n      pop\n      pop\n      jump\t// out\n        /* \"contracts/Project.sol\":2436:2691  function checkGoalReached() internal {... */\n    tag_42:\n        /* \"contracts/Project.sol\":2553:2567  currentBalance */\n      sload(0x04)\n        /* \"contracts/Project.sol\":2539:2549  amountGoal */\n      sload(0x03)\n        /* \"contracts/Project.sol\":2539:2567  amountGoal >= currentBalance */\n      lt\n        /* \"contracts/Project.sol\":2536:2684  if(amountGoal >= currentBalance){... */\n      tag_53\n      jumpi\n        /* \"contracts/Project.sol\":2587:2635  GoalReached(\"The Goal is reached\", projectTitle) */\n      0x15ac727d1ca51352f519e3f5899500ead795e56a4a39ceafeea835331346017a\n        /* \"contracts/Project.sol\":2622:2634  projectTitle */\n      0x01\n        /* \"contracts/Project.sol\":2587:2635  GoalReached(\"The Goal is reached\", projectTitle) */\n      mload(0x40)\n      tag_54\n      swap2\n      swap1\n      tag_55\n      jump\t// in\n    tag_54:\n      mload(0x40)\n      dup1\n      swap2\n      sub\n      swap1\n      log1\n        /* \"contracts/Project.sol\":2657:2673  State.Successful */\n      0x02\n        /* \"contracts/Project.sol\":2649:2654  state */\n      0x05\n      0x00\n        /* \"contracts/Project.sol\":2649:2673  state = State.Successful */\n      0x0100\n      exp\n      dup2\n      sload\n      dup2\n      0xff\n      mul\n      not\n      and\n      swap1\n      dup4\n      0x02\n      dup2\n      gt\n      iszero\n      tag_56\n      jumpi\n      tag_57\n      tag_29\n      jump\t// in\n    tag_57:\n    tag_56:\n      mul\n      or\n      swap1\n      sstore\n      pop\n        /* \"contracts/Project.sol\":2536:2684  if(amountGoal >= currentBalance){... */\n    tag_53:\n        /* \"contracts/Project.sol\":2436:2691  function checkGoalReached() internal {... */\n      jump\t// out\n    tag_25:\n      dup3\n      dup1\n      sload\n      tag_58\n      swap1\n      tag_45\n      jump\t// in\n    tag_58:\n      swap1\n      0x00\n      mstore\n      keccak256(0x00, 0x20)\n      swap1\n      0x1f\n      add\n      0x20\n      swap1\n      div\n      dup2\n      add\n      swap3\n      dup3\n      tag_60\n      jumpi\n      0x00\n      dup6\n      sstore\n      jump(tag_59)\n    tag_60:\n      dup3\n      0x1f\n      lt\n      tag_61\n      jumpi\n      dup1\n      mload\n      not(0xff)\n      and\n      dup4\n      dup1\n      add\n      or\n      dup6\n      sstore\n      jump(tag_59)\n    tag_61:\n      dup3\n      dup1\n      add\n      0x01\n      add\n      dup6\n      sstore\n      dup3\n      iszero\n      tag_59\n      jumpi\n      swap2\n      dup3\n      add\n    tag_62:\n      dup3\n      dup2\n      gt\n      iszero\n      tag_63\n      jumpi\n      dup3\n      mload\n      dup3\n      sstore\n      swap2\n      0x20\n      add\n      swap2\n      swap1\n      0x01\n      add\n      swap1\n      jump(tag_62)\n    tag_63:\n    tag_59:\n      pop\n      swap1\n      pop\n      tag_64\n      swap2\n      swap1\n      tag_65\n      jump\t// in\n    tag_64:\n      pop\n      swap1\n      jump\t// out\n    tag_65:\n    tag_66:\n      dup1\n      dup3\n      gt\n      iszero\n      tag_67\n      jumpi\n      0x00\n      dup2\n      0x00\n      swap1\n      sstore\n      pop\n      0x01\n      add\n      jump(tag_66)\n    tag_67:\n      pop\n      swap1\n      jump\t// out\n        /* \"#utility.yul\":7:133   */\n    tag_68:\n        /* \"#utility.yul\":44:51   */\n      0x00\n        /* \"#utility.yul\":84:126   */\n      0xffffffffffffffffffffffffffffffffffffffff\n        /* \"#utility.yul\":77:82   */\n      dup3\n        /* \"#utility.yul\":73:127   */\n      and\n        /* \"#utility.yul\":62:127   */\n      swap1\n      pop\n        /* \"#utility.yul\":7:133   */\n      swap2\n      swap1\n      pop\n      jump\t// out\n        /* \"#utility.yul\":139:243   */\n    tag_69:\n        /* \"#utility.yul\":184:191   */\n      0x00\n        /* \"#utility.yul\":213:237   */\n      tag_101\n        /* \"#utility.yul\":231:236   */\n      dup3\n        /* \"#utility.yul\":213:237   */\n      tag_68\n      jump\t// in\n    tag_101:\n        /* \"#utility.yul\":202:237   */\n      swap1\n      pop\n        /* \"#utility.yul\":139:243   */\n      swap2\n      swap1\n      pop\n      jump\t// out\n        /* \"#utility.yul\":249:391   */\n    tag_70:\n        /* \"#utility.yul\":352:384   */\n      tag_103\n        /* \"#utility.yul\":378:383   */\n      dup2\n        /* \"#utility.yul\":352:384   */\n      tag_69\n      jump\t// in\n    tag_103:\n        /* \"#utility.yul\":347:350   */\n      dup3\n        /* \"#utility.yul\":340:385   */\n      mstore\n        /* \"#utility.yul\":249:391   */\n      pop\n      pop\n      jump\t// out\n        /* \"#utility.yul\":397:651   */\n    tag_10:\n        /* \"#utility.yul\":506:510   */\n      0x00\n        /* \"#utility.yul\":544:546   */\n      0x20\n        /* \"#utility.yul\":533:542   */\n      dup3\n        /* \"#utility.yul\":529:547   */\n      add\n        /* \"#utility.yul\":521:547   */\n      swap1\n      pop\n        /* \"#utility.yul\":557:644   */\n      tag_105\n        /* \"#utility.yul\":641:642   */\n      0x00\n        /* \"#utility.yul\":630:639   */\n      dup4\n        /* \"#utility.yul\":626:643   */\n      add\n        /* \"#utility.yul\":617:623   */\n      dup5\n        /* \"#utility.yul\":557:644   */\n      tag_70\n      jump\t// in\n    tag_105:\n        /* \"#utility.yul\":397:651   */\n      swap3\n      swap2\n      pop\n      pop\n      jump\t// out\n        /* \"#utility.yul\":657:732   */\n    tag_71:\n        /* \"#utility.yul\":690:696   */\n      0x00\n        /* \"#utility.yul\":723:725   */\n      0x40\n        /* \"#utility.yul\":717:726   */\n      mload\n        /* \"#utility.yul\":707:726   */\n      swap1\n      pop\n        /* \"#utility.yul\":657:732   */\n      swap1\n      jump\t// out\n        /* \"#utility.yul\":738:855   */\n    tag_72:\n        /* \"#utility.yul\":847:848   */\n      0x00\n        /* \"#utility.yul\":844:845   */\n      dup1\n        /* \"#utility.yul\":837:849   */\n      revert\n        /* \"#utility.yul\":861:978   */\n    tag_73:\n        /* \"#utility.yul\":970:971   */\n      0x00\n        /* \"#utility.yul\":967:968   */\n      dup1\n        /* \"#utility.yul\":960:972   */\n      revert\n        /* \"#utility.yul\":984:1101   */\n    tag_74:\n        /* \"#utility.yul\":1093:1094   */\n      0x00\n        /* \"#utility.yul\":1090:1091   */\n      dup1\n        /* \"#utility.yul\":1083:1095   */\n      revert\n        /* \"#utility.yul\":1107:1224   */\n    tag_75:\n        /* \"#utility.yul\":1216:1217   */\n      0x00\n        /* \"#utility.yul\":1213:1214   */\n      dup1\n        /* \"#utility.yul\":1206:1218   */\n      revert\n        /* \"#utility.yul\":1230:1332   */\n    tag_76:\n        /* \"#utility.yul\":1271:1277   */\n      0x00\n        /* \"#utility.yul\":1322:1324   */\n      0x1f\n        /* \"#utility.yul\":1318:1325   */\n      not\n        /* \"#utility.yul\":1313:1315   */\n      0x1f\n        /* \"#utility.yul\":1306:1311   */\n      dup4\n        /* \"#utility.yul\":1302:1316   */\n      add\n        /* \"#utility.yul\":1298:1326   */\n      and\n        /* \"#utility.yul\":1288:1326   */\n      swap1\n      pop\n        /* \"#utility.yul\":1230:1332   */\n      swap2\n      swap1\n      pop\n      jump\t// out\n        /* \"#utility.yul\":1338:1518   */\n    tag_77:\n        /* \"#utility.yul\":1386:1463   */\n      0x4e487b7100000000000000000000000000000000000000000000000000000000\n        /* \"#utility.yul\":1383:1384   */\n      0x00\n        /* \"#utility.yul\":1376:1464   */\n      mstore\n        /* \"#utility.yul\":1483:1487   */\n      0x41\n        /* \"#utility.yul\":1480:1481   */\n      0x04\n        /* \"#utility.yul\":1473:1488   */\n      mstore\n        /* \"#utility.yul\":1507:1511   */\n      0x24\n        /* \"#utility.yul\":1504:1505   */\n      0x00\n        /* \"#utility.yul\":1497:1512   */\n      revert\n        /* \"#utility.yul\":1524:1805   */\n    tag_78:\n        /* \"#utility.yul\":1607:1634   */\n      tag_114\n        /* \"#utility.yul\":1629:1633   */\n      dup3\n        /* \"#utility.yul\":1607:1634   */\n      tag_76\n      jump\t// in\n    tag_114:\n        /* \"#utility.yul\":1599:1605   */\n      dup2\n        /* \"#utility.yul\":1595:1635   */\n      add\n        /* \"#utility.yul\":1737:1743   */\n      dup2\n        /* \"#utility.yul\":1725:1735   */\n      dup2\n        /* \"#utility.yul\":1722:1744   */\n      lt\n        /* \"#utility.yul\":1701:1719   */\n      0xffffffffffffffff\n        /* \"#utility.yul\":1689:1699   */\n      dup3\n        /* \"#utility.yul\":1686:1720   */\n      gt\n        /* \"#utility.yul\":1683:1745   */\n      or\n        /* \"#utility.yul\":1680:1768   */\n      iszero\n      tag_115\n      jumpi\n        /* \"#utility.yul\":1748:1766   */\n      tag_116\n      tag_77\n      jump\t// in\n    tag_116:\n        /* \"#utility.yul\":1680:1768   */\n    tag_115:\n        /* \"#utility.yul\":1788:1798   */\n      dup1\n        /* \"#utility.yul\":1784:1786   */\n      0x40\n        /* \"#utility.yul\":1777:1799   */\n      mstore\n        /* \"#utility.yul\":1567:1805   */\n      pop\n        /* \"#utility.yul\":1524:1805   */\n      pop\n      pop\n      jump\t// out\n        /* \"#utility.yul\":1811:1940   */\n    tag_79:\n        /* \"#utility.yul\":1845:1851   */\n      0x00\n        /* \"#utility.yul\":1872:1892   */\n      tag_118\n      tag_71\n      jump\t// in\n    tag_118:\n        /* \"#utility.yul\":1862:1892   */\n      swap1\n      pop\n        /* \"#utility.yul\":1901:1934   */\n      tag_119\n        /* \"#utility.yul\":1929:1933   */\n      dup3\n        /* \"#utility.yul\":1921:1927   */\n      dup3\n        /* \"#utility.yul\":1901:1934   */\n      tag_78\n      jump\t// in\n    tag_119:\n        /* \"#utility.yul\":1811:1940   */\n      swap2\n      swap1\n      pop\n      jump\t// out\n        /* \"#utility.yul\":1946:2254   */\n    tag_80:\n        /* \"#utility.yul\":2008:2012   */\n      0x00\n        /* \"#utility.yul\":2098:2116   */\n      0xffffffffffffffff\n        /* \"#utility.yul\":2090:2096   */\n      dup3\n        /* \"#utility.yul\":2087:2117   */\n      gt\n        /* \"#utility.yul\":2084:2140   */\n      iszero\n      tag_121\n      jumpi\n        /* \"#utility.yul\":2120:2138   */\n      tag_122\n      tag_77\n      jump\t// in\n    tag_122:\n        /* \"#utility.yul\":2084:2140   */\n    tag_121:\n        /* \"#utility.yul\":2158:2187   */\n      tag_123\n        /* \"#utility.yul\":2180:2186   */\n      dup3\n        /* \"#utility.yul\":2158:2187   */\n      tag_76\n      jump\t// in\n    tag_123:\n        /* \"#utility.yul\":2150:2187   */\n      swap1\n      pop\n        /* \"#utility.yul\":2242:2246   */\n      0x20\n        /* \"#utility.yul\":2236:2240   */\n      dup2\n        /* \"#utility.yul\":2232:2247   */\n      add\n        /* \"#utility.yul\":2224:2247   */\n      swap1\n      pop\n        /* \"#utility.yul\":1946:2254   */\n      swap2\n      swap1\n      pop\n      jump\t// out\n        /* \"#utility.yul\":2260:2414   */\n    tag_81:\n        /* \"#utility.yul\":2344:2350   */\n      dup3\n        /* \"#utility.yul\":2339:2342   */\n      dup2\n        /* \"#utility.yul\":2334:2337   */\n      dup4\n        /* \"#utility.yul\":2321:2351   */\n      calldatacopy\n        /* \"#utility.yul\":2406:2407   */\n      0x00\n        /* \"#utility.yul\":2397:2403   */\n      dup4\n        /* \"#utility.yul\":2392:2395   */\n      dup4\n        /* \"#utility.yul\":2388:2404   */\n      add\n        /* \"#utility.yul\":2381:2408   */\n      mstore\n        /* \"#utility.yul\":2260:2414   */\n      pop\n      pop\n      pop\n      jump\t// out\n        /* \"#utility.yul\":2420:2832   */\n    tag_82:\n        /* \"#utility.yul\":2498:2503   */\n      0x00\n        /* \"#utility.yul\":2523:2589   */\n      tag_126\n        /* \"#utility.yul\":2539:2588   */\n      tag_127\n        /* \"#utility.yul\":2581:2587   */\n      dup5\n        /* \"#utility.yul\":2539:2588   */\n      tag_80\n      jump\t// in\n    tag_127:\n        /* \"#utility.yul\":2523:2589   */\n      tag_79\n      jump\t// in\n    tag_126:\n        /* \"#utility.yul\":2514:2589   */\n      swap1\n      pop\n        /* \"#utility.yul\":2612:2618   */\n      dup3\n        /* \"#utility.yul\":2605:2610   */\n      dup2\n        /* \"#utility.yul\":2598:2619   */\n      mstore\n        /* \"#utility.yul\":2650:2654   */\n      0x20\n        /* \"#utility.yul\":2643:2648   */\n      dup2\n        /* \"#utility.yul\":2639:2655   */\n      add\n        /* \"#utility.yul\":2688:2691   */\n      dup5\n        /* \"#utility.yul\":2679:2685   */\n      dup5\n        /* \"#utility.yul\":2674:2677   */\n      dup5\n        /* \"#utility.yul\":2670:2686   */\n      add\n        /* \"#utility.yul\":2667:2692   */\n      gt\n        /* \"#utility.yul\":2664:2776   */\n      iszero\n      tag_128\n      jumpi\n        /* \"#utility.yul\":2695:2774   */\n      tag_129\n      tag_75\n      jump\t// in\n    tag_129:\n        /* \"#utility.yul\":2664:2776   */\n    tag_128:\n        /* \"#utility.yul\":2785:2826   */\n      tag_130\n        /* \"#utility.yul\":2819:2825   */\n      dup5\n        /* \"#utility.yul\":2814:2817   */\n      dup3\n        /* \"#utility.yul\":2809:2812   */\n      dup6\n        /* \"#utility.yul\":2785:2826   */\n      tag_81\n      jump\t// in\n    tag_130:\n        /* \"#utility.yul\":2504:2832   */\n      pop\n        /* \"#utility.yul\":2420:2832   */\n      swap4\n      swap3\n      pop\n      pop\n      pop\n      jump\t// out\n        /* \"#utility.yul\":2852:3192   */\n    tag_83:\n        /* \"#utility.yul\":2908:2913   */\n      0x00\n        /* \"#utility.yul\":2957:2960   */\n      dup3\n        /* \"#utility.yul\":2950:2954   */\n      0x1f\n        /* \"#utility.yul\":2942:2948   */\n      dup4\n        /* \"#utility.yul\":2938:2955   */\n      add\n        /* \"#utility.yul\":2934:2961   */\n      slt\n        /* \"#utility.yul\":2924:3046   */\n      tag_132\n      jumpi\n        /* \"#utility.yul\":2965:3044   */\n      tag_133\n      tag_74\n      jump\t// in\n    tag_133:\n        /* \"#utility.yul\":2924:3046   */\n    tag_132:\n        /* \"#utility.yul\":3082:3088   */\n      dup2\n        /* \"#utility.yul\":3069:3089   */\n      calldataload\n        /* \"#utility.yul\":3107:3186   */\n      tag_134\n        /* \"#utility.yul\":3182:3185   */\n      dup5\n        /* \"#utility.yul\":3174:3180   */\n      dup3\n        /* \"#utility.yul\":3167:3171   */\n      0x20\n        /* \"#utility.yul\":3159:3165   */\n      dup7\n        /* \"#utility.yul\":3155:3172   */\n      add\n        /* \"#utility.yul\":3107:3186   */\n      tag_82\n      jump\t// in\n    tag_134:\n        /* \"#utility.yul\":3098:3186   */\n      swap2\n      pop\n        /* \"#utility.yul\":2914:3192   */\n      pop\n        /* \"#utility.yul\":2852:3192   */\n      swap3\n      swap2\n      pop\n      pop\n      jump\t// out\n        /* \"#utility.yul\":3198:3707   */\n    tag_14:\n        /* \"#utility.yul\":3267:3273   */\n      0x00\n        /* \"#utility.yul\":3316:3318   */\n      0x20\n        /* \"#utility.yul\":3304:3313   */\n      dup3\n        /* \"#utility.yul\":3295:3302   */\n      dup5\n        /* \"#utility.yul\":3291:3314   */\n      sub\n        /* \"#utility.yul\":3287:3319   */\n      slt\n        /* \"#utility.yul\":3284:3403   */\n      iszero\n      tag_136\n      jumpi\n        /* \"#utility.yul\":3322:3401   */\n      tag_137\n      tag_72\n      jump\t// in\n    tag_137:\n        /* \"#utility.yul\":3284:3403   */\n    tag_136:\n        /* \"#utility.yul\":3470:3471   */\n      0x00\n        /* \"#utility.yul\":3459:3468   */\n      dup3\n        /* \"#utility.yul\":3455:3472   */\n      add\n        /* \"#utility.yul\":3442:3473   */\n      calldataload\n        /* \"#utility.yul\":3500:3518   */\n      0xffffffffffffffff\n        /* \"#utility.yul\":3492:3498   */\n      dup2\n        /* \"#utility.yul\":3489:3519   */\n      gt\n        /* \"#utility.yul\":3486:3603   */\n      iszero\n      tag_138\n      jumpi\n        /* \"#utility.yul\":3522:3601   */\n      tag_139\n      tag_73\n      jump\t// in\n    tag_139:\n        /* \"#utility.yul\":3486:3603   */\n    tag_138:\n        /* \"#utility.yul\":3627:3690   */\n      tag_140\n        /* \"#utility.yul\":3682:3689   */\n      dup5\n        /* \"#utility.yul\":3673:3679   */\n      dup3\n        /* \"#utility.yul\":3662:3671   */\n      dup6\n        /* \"#utility.yul\":3658:3680   */\n      add\n        /* \"#utility.yul\":3627:3690   */\n      tag_83\n      jump\t// in\n    tag_140:\n        /* \"#utility.yul\":3617:3690   */\n      swap2\n      pop\n        /* \"#utility.yul\":3413:3700   */\n      pop\n        /* \"#utility.yul\":3198:3707   */\n      swap3\n      swap2\n      pop\n      pop\n      jump\t// out\n        /* \"#utility.yul\":3713:3812   */\n    tag_84:\n        /* \"#utility.yul\":3765:3771   */\n      0x00\n        /* \"#utility.yul\":3799:3804   */\n      dup2\n        /* \"#utility.yul\":3793:3805   */\n      mload\n        /* \"#utility.yul\":3783:3805   */\n      swap1\n      pop\n        /* \"#utility.yul\":3713:3812   */\n      swap2\n      swap1\n      pop\n      jump\t// out\n        /* \"#utility.yul\":3818:3987   */\n    tag_85:\n        /* \"#utility.yul\":3902:3913   */\n      0x00\n        /* \"#utility.yul\":3936:3942   */\n      dup3\n        /* \"#utility.yul\":3931:3934   */\n      dup3\n        /* \"#utility.yul\":3924:3943   */\n      mstore\n        /* \"#utility.yul\":3976:3980   */\n      0x20\n        /* \"#utility.yul\":3971:3974   */\n      dup3\n        /* \"#utility.yul\":3967:3981   */\n      add\n        /* \"#utility.yul\":3952:3981   */\n      swap1\n      pop\n        /* \"#utility.yul\":3818:3987   */\n      swap3\n      swap2\n      pop\n      pop\n      jump\t// out\n        /* \"#utility.yul\":3993:4300   */\n    tag_86:\n        /* \"#utility.yul\":4061:4062   */\n      0x00\n        /* \"#utility.yul\":4071:4184   */\n    tag_144:\n        /* \"#utility.yul\":4085:4091   */\n      dup4\n        /* \"#utility.yul\":4082:4083   */\n      dup2\n        /* \"#utility.yul\":4079:4092   */\n      lt\n        /* \"#utility.yul\":4071:4184   */\n      iszero\n      tag_146\n      jumpi\n        /* \"#utility.yul\":4170:4171   */\n      dup1\n        /* \"#utility.yul\":4165:4168   */\n      dup3\n        /* \"#utility.yul\":4161:4172   */\n      add\n        /* \"#utility.yul\":4155:4173   */\n      mload\n        /* \"#utility.yul\":4151:4152   */\n      dup2\n        /* \"#utility.yul\":4146:4149   */\n      dup5\n        /* \"#utility.yul\":4142:4153   */\n      add\n        /* \"#utility.yul\":4135:4174   */\n      mstore\n        /* \"#utility.yul\":4107:4109   */\n      0x20\n        /* \"#utility.yul\":4104:4105   */\n      dup2\n        /* \"#utility.yul\":4100:4110   */\n      add\n        /* \"#utility.yul\":4095:4110   */\n      swap1\n      pop\n        /* \"#utility.yul\":4071:4184   */\n      jump(tag_144)\n    tag_146:\n        /* \"#utility.yul\":4202:4208   */\n      dup4\n        /* \"#utility.yul\":4199:4200   */\n      dup2\n        /* \"#utility.yul\":4196:4209   */\n      gt\n        /* \"#utility.yul\":4193:4294   */\n      iszero\n      tag_147\n      jumpi\n        /* \"#utility.yul\":4282:4283   */\n      0x00\n        /* \"#utility.yul\":4273:4279   */\n      dup5\n        /* \"#utility.yul\":4268:4271   */\n      dup5\n        /* \"#utility.yul\":4264:4280   */\n      add\n        /* \"#utility.yul\":4257:4284   */\n      mstore\n        /* \"#utility.yul\":4193:4294   */\n    tag_147:\n        /* \"#utility.yul\":4042:4300   */\n      pop\n        /* \"#utility.yul\":3993:4300   */\n      pop\n      pop\n      pop\n      jump\t// out\n        /* \"#utility.yul\":4306:4670   */\n    tag_87:\n        /* \"#utility.yul\":4394:4397   */\n      0x00\n        /* \"#utility.yul\":4422:4461   */\n      tag_149\n        /* \"#utility.yul\":4455:4460   */\n      dup3\n        /* \"#utility.yul\":4422:4461   */\n      tag_84\n      jump\t// in\n    tag_149:\n        /* \"#utility.yul\":4477:4548   */\n      tag_150\n        /* \"#utility.yul\":4541:4547   */\n      dup2\n        /* \"#utility.yul\":4536:4539   */\n      dup6\n        /* \"#utility.yul\":4477:4548   */\n      tag_85\n      jump\t// in\n    tag_150:\n        /* \"#utility.yul\":4470:4548   */\n      swap4\n      pop\n        /* \"#utility.yul\":4557:4609   */\n      tag_151\n        /* \"#utility.yul\":4602:4608   */\n      dup2\n        /* \"#utility.yul\":4597:4600   */\n      dup6\n        /* \"#utility.yul\":4590:4594   */\n      0x20\n        /* \"#utility.yul\":4583:4588   */\n      dup7\n        /* \"#utility.yul\":4579:4595   */\n      add\n        /* \"#utility.yul\":4557:4609   */\n      tag_86\n      jump\t// in\n    tag_151:\n        /* \"#utility.yul\":4634:4663   */\n      tag_152\n        /* \"#utility.yul\":4656:4662   */\n      dup2\n        /* \"#utility.yul\":4634:4663   */\n      tag_76\n      jump\t// in\n    tag_152:\n        /* \"#utility.yul\":4629:4632   */\n      dup5\n        /* \"#utility.yul\":4625:4664   */\n      add\n        /* \"#utility.yul\":4618:4664   */\n      swap2\n      pop\n        /* \"#utility.yul\":4398:4670   */\n      pop\n        /* \"#utility.yul\":4306:4670   */\n      swap3\n      swap2\n      pop\n      pop\n      jump\t// out\n        /* \"#utility.yul\":4676:4989   */\n    tag_22:\n        /* \"#utility.yul\":4789:4793   */\n      0x00\n        /* \"#utility.yul\":4827:4829   */\n      0x20\n        /* \"#utility.yul\":4816:4825   */\n      dup3\n        /* \"#utility.yul\":4812:4830   */\n      add\n        /* \"#utility.yul\":4804:4830   */\n      swap1\n      pop\n        /* \"#utility.yul\":4876:4885   */\n      dup2\n        /* \"#utility.yul\":4870:4874   */\n      dup2\n        /* \"#utility.yul\":4866:4886   */\n      sub\n        /* \"#utility.yul\":4862:4863   */\n      0x00\n        /* \"#utility.yul\":4851:4860   */\n      dup4\n        /* \"#utility.yul\":4847:4864   */\n      add\n        /* \"#utility.yul\":4840:4887   */\n      mstore\n        /* \"#utility.yul\":4904:4982   */\n      tag_154\n        /* \"#utility.yul\":4977:4981   */\n      dup2\n        /* \"#utility.yul\":4968:4974   */\n      dup5\n        /* \"#utility.yul\":4904:4982   */\n      tag_87\n      jump\t// in\n    tag_154:\n        /* \"#utility.yul\":4896:4982   */\n      swap1\n      pop\n        /* \"#utility.yul\":4676:4989   */\n      swap3\n      swap2\n      pop\n      pop\n      jump\t// out\n        /* \"#utility.yul\":4995:5175   */\n    tag_29:\n        /* \"#utility.yul\":5043:5120   */\n      0x4e487b7100000000000000000000000000000000000000000000000000000000\n        /* \"#utility.yul\":5040:5041   */\n      0x00\n        /* \"#utility.yul\":5033:5121   */\n      mstore\n        /* \"#utility.yul\":5140:5144   */\n      0x21\n        /* \"#utility.yul\":5137:5138   */\n      0x04\n        /* \"#utility.yul\":5130:5145   */\n      mstore\n        /* \"#utility.yul\":5164:5168   */\n      0x24\n        /* \"#utility.yul\":5161:5162   */\n      0x00\n        /* \"#utility.yul\":5154:5169   */\n      revert\n        /* \"#utility.yul\":5181:5258   */\n    tag_88:\n        /* \"#utility.yul\":5218:5225   */\n      0x00\n        /* \"#utility.yul\":5247:5252   */\n      dup2\n        /* \"#utility.yul\":5236:5252   */\n      swap1\n      pop\n        /* \"#utility.yul\":5181:5258   */\n      swap2\n      swap1\n      pop\n      jump\t// out\n        /* \"#utility.yul\":5264:5444   */\n    tag_89:\n        /* \"#utility.yul\":5312:5389   */\n      0x4e487b7100000000000000000000000000000000000000000000000000000000\n        /* \"#utility.yul\":5309:5310   */\n      0x00\n        /* \"#utility.yul\":5302:5390   */\n      mstore\n        /* \"#utility.yul\":5409:5413   */\n      0x11\n        /* \"#utility.yul\":5406:5407   */\n      0x04\n        /* \"#utility.yul\":5399:5414   */\n      mstore\n        /* \"#utility.yul\":5433:5437   */\n      0x24\n        /* \"#utility.yul\":5430:5431   */\n      0x00\n        /* \"#utility.yul\":5423:5438   */\n      revert\n        /* \"#utility.yul\":5450:5755   */\n    tag_38:\n        /* \"#utility.yul\":5490:5493   */\n      0x00\n        /* \"#utility.yul\":5509:5529   */\n      tag_159\n        /* \"#utility.yul\":5527:5528   */\n      dup3\n        /* \"#utility.yul\":5509:5529   */\n      tag_88\n      jump\t// in\n    tag_159:\n        /* \"#utility.yul\":5504:5529   */\n      swap2\n      pop\n        /* \"#utility.yul\":5543:5563   */\n      tag_160\n        /* \"#utility.yul\":5561:5562   */\n      dup4\n        /* \"#utility.yul\":5543:5563   */\n      tag_88\n      jump\t// in\n    tag_160:\n        /* \"#utility.yul\":5538:5563   */\n      swap3\n      pop\n        /* \"#utility.yul\":5697:5698   */\n      dup3\n        /* \"#utility.yul\":5629:5695   */\n      0xffffffffffffffffffffffffffffffffffffffffffffffffffffffffffffffff\n        /* \"#utility.yul\":5625:5699   */\n      sub\n        /* \"#utility.yul\":5622:5623   */\n      dup3\n        /* \"#utility.yul\":5619:5700   */\n      gt\n        /* \"#utility.yul\":5616:5723   */\n      iszero\n      tag_161\n      jumpi\n        /* \"#utility.yul\":5703:5721   */\n      tag_162\n      tag_89\n      jump\t// in\n    tag_162:\n        /* \"#utility.yul\":5616:5723   */\n    tag_161:\n        /* \"#utility.yul\":5747:5748   */\n      dup3\n        /* \"#utility.yul\":5744:5745   */\n      dup3\n        /* \"#utility.yul\":5740:5749   */\n      add\n        /* \"#utility.yul\":5733:5749   */\n      swap1\n      pop\n        /* \"#utility.yul\":5450:5755   */\n      swap3\n      swap2\n      pop\n      pop\n      jump\t// out\n        /* \"#utility.yul\":5761:5857   */\n    tag_90:\n        /* \"#utility.yul\":5798:5805   */\n      0x00\n        /* \"#utility.yul\":5827:5851   */\n      tag_164\n        /* \"#utility.yul\":5845:5850   */\n      dup3\n        /* \"#utility.yul\":5827:5851   */\n      tag_68\n      jump\t// in\n    tag_164:\n        /* \"#utility.yul\":5816:5851   */\n      swap1\n      pop\n        /* \"#utility.yul\":5761:5857   */\n      swap2\n      swap1\n      pop\n      jump\t// out\n        /* \"#utility.yul\":5863:5981   */\n    tag_91:\n        /* \"#utility.yul\":5950:5974   */\n      tag_166\n        /* \"#utility.yul\":5968:5973   */\n      dup2\n        /* \"#utility.yul\":5950:5974   */\n      tag_90\n      jump\t// in\n    tag_166:\n        /* \"#utility.yul\":5945:5948   */\n      dup3\n        /* \"#utility.yul\":5938:5975   */\n      mstore\n        /* \"#utility.yul\":5863:5981   */\n      pop\n      pop\n      jump\t// out\n        /* \"#utility.yul\":5987:6105   */\n    tag_92:\n        /* \"#utility.yul\":6074:6098   */\n      tag_168\n        /* \"#utility.yul\":6092:6097   */\n      dup2\n        /* \"#utility.yul\":6074:6098   */\n      tag_88\n      jump\t// in\n    tag_168:\n        /* \"#utility.yul\":6069:6072   */\n      dup3\n        /* \"#utility.yul\":6062:6099   */\n      mstore\n        /* \"#utility.yul\":5987:6105   */\n      pop\n      pop\n      jump\t// out\n        /* \"#utility.yul\":6111:6443   */\n    tag_40:\n        /* \"#utility.yul\":6232:6236   */\n      0x00\n        /* \"#utility.yul\":6270:6272   */\n      0x40\n        /* \"#utility.yul\":6259:6268   */\n      dup3\n        /* \"#utility.yul\":6255:6273   */\n      add\n        /* \"#utility.yul\":6247:6273   */\n      swap1\n      pop\n        /* \"#utility.yul\":6283:6354   */\n      tag_170\n        /* \"#utility.yul\":6351:6352   */\n      0x00\n        /* \"#utility.yul\":6340:6349   */\n      dup4\n        /* \"#utility.yul\":6336:6353   */\n      add\n        /* \"#utility.yul\":6327:6333   */\n      dup6\n        /* \"#utility.yul\":6283:6354   */\n      tag_91\n      jump\t// in\n    tag_170:\n        /* \"#utility.yul\":6364:6436   */\n      tag_171\n        /* \"#utility.yul\":6432:6434   */\n      0x20\n        /* \"#utility.yul\":6421:6430   */\n      dup4\n        /* \"#utility.yul\":6417:6435   */\n      add\n        /* \"#utility.yul\":6408:6414   */\n      dup5\n        /* \"#utility.yul\":6364:6436   */\n      tag_92\n      jump\t// in\n    tag_171:\n        /* \"#utility.yul\":6111:6443   */\n      swap4\n      swap3\n      pop\n      pop\n      pop\n      jump\t// out\n        /* \"#utility.yul\":6449:6629   */\n    tag_93:\n        /* \"#utility.yul\":6497:6574   */\n      0x4e487b7100000000000000000000000000000000000000000000000000000000\n        /* \"#utility.yul\":6494:6495   */\n      0x00\n        /* \"#utility.yul\":6487:6575   */\n      mstore\n        /* \"#utility.yul\":6594:6598   */\n      0x22\n        /* \"#utility.yul\":6591:6592   */\n      0x04\n        /* \"#utility.yul\":6584:6599   */\n      mstore\n        /* \"#utility.yul\":6618:6622   */\n      0x24\n        /* \"#utility.yul\":6615:6616   */\n      0x00\n        /* \"#utility.yul\":6608:6623   */\n      revert\n        /* \"#utility.yul\":6635:6955   */\n    tag_45:\n        /* \"#utility.yul\":6679:6685   */\n      0x00\n        /* \"#utility.yul\":6716:6717   */\n      0x02\n        /* \"#utility.yul\":6710:6714   */\n      dup3\n        /* \"#utility.yul\":6706:6718   */\n      div\n        /* \"#utility.yul\":6696:6718   */\n      swap1\n      pop\n        /* \"#utility.yul\":6763:6764   */\n      0x01\n        /* \"#utility.yul\":6757:6761   */\n      dup3\n        /* \"#utility.yul\":6753:6765   */\n      and\n        /* \"#utility.yul\":6784:6802   */\n      dup1\n        /* \"#utility.yul\":6774:6855   */\n      tag_174\n      jumpi\n        /* \"#utility.yul\":6840:6844   */\n      0x7f\n        /* \"#utility.yul\":6832:6838   */\n      dup3\n        /* \"#utility.yul\":6828:6845   */\n      and\n        /* \"#utility.yul\":6818:6845   */\n      swap2\n      pop\n        /* \"#utility.yul\":6774:6855   */\n    tag_174:\n        /* \"#utility.yul\":6902:6904   */\n      0x20\n        /* \"#utility.yul\":6894:6900   */\n      dup3\n        /* \"#utility.yul\":6891:6905   */\n      lt\n        /* \"#utility.yul\":6871:6889   */\n      dup2\n        /* \"#utility.yul\":6868:6906   */\n      sub\n        /* \"#utility.yul\":6865:6949   */\n      tag_175\n      jumpi\n        /* \"#utility.yul\":6921:6939   */\n      tag_176\n      tag_93\n      jump\t// in\n    tag_176:\n        /* \"#utility.yul\":6865:6949   */\n    tag_175:\n        /* \"#utility.yul\":6686:6955   */\n      pop\n        /* \"#utility.yul\":6635:6955   */\n      swap2\n      swap1\n      pop\n      jump\t// out\n        /* \"#utility.yul\":6961:7130   */\n    tag_94:\n        /* \"#utility.yul\":7101:7122   */\n      0x54686520476f616c206973207265616368656400000000000000000000000000\n        /* \"#utility.yul\":7097:7098   */\n      0x00\n        /* \"#utility.yul\":7089:7095   */\n      dup3\n        /* \"#utility.yul\":7085:7099   */\n      add\n        /* \"#utility.yul\":7078:7123   */\n      mstore\n        /* \"#utility.yul\":6961:7130   */\n      pop\n      jump\t// out\n        /* \"#utility.yul\":7136:7502   */\n    tag_95:\n        /* \"#utility.yul\":7278:7281   */\n      0x00\n        /* \"#utility.yul\":7299:7366   */\n      tag_179\n        /* \"#utility.yul\":7363:7365   */\n      0x13\n        /* \"#utility.yul\":7358:7361   */\n      dup4\n        /* \"#utility.yul\":7299:7366   */\n      tag_85\n      jump\t// in\n    tag_179:\n        /* \"#utility.yul\":7292:7366   */\n      swap2\n      pop\n        /* \"#utility.yul\":7375:7468   */\n      tag_180\n        /* \"#utility.yul\":7464:7467   */\n      dup3\n        /* \"#utility.yul\":7375:7468   */\n      tag_94\n      jump\t// in\n    tag_180:\n        /* \"#utility.yul\":7493:7495   */\n      0x20\n        /* \"#utility.yul\":7488:7491   */\n      dup3\n        /* \"#utility.yul\":7484:7496   */\n      add\n        /* \"#utility.yul\":7477:7496   */\n      swap1\n      pop\n        /* \"#utility.yul\":7136:7502   */\n      swap2\n      swap1\n      pop\n      jump\t// out\n        /* \"#utility.yul\":7508:7649   */\n    tag_96:\n        /* \"#utility.yul\":7557:7561   */\n      0x00\n        /* \"#utility.yul\":7580:7583   */\n      dup2\n        /* \"#utility.yul\":7572:7583   */\n      swap1\n      pop\n        /* \"#utility.yul\":7603:7606   */\n      dup2\n        /* \"#utility.yul\":7600:7601   */\n      0x00\n        /* \"#utility.yul\":7593:7607   */\n      mstore\n        /* \"#utility.yul\":7637:7641   */\n      0x20\n        /* \"#utility.yul\":7634:7635   */\n      0x00\n        /* \"#utility.yul\":7624:7642   */\n      keccak256\n        /* \"#utility.yul\":7616:7642   */\n      swap1\n      pop\n        /* \"#utility.yul\":7508:7649   */\n      swap2\n      swap1\n      pop\n      jump\t// out\n        /* \"#utility.yul\":7679:8481   */\n    tag_97:\n        /* \"#utility.yul\":7764:7767   */\n      0x00\n        /* \"#utility.yul\":7801:7806   */\n      dup2\n        /* \"#utility.yul\":7795:7807   */\n      sload\n        /* \"#utility.yul\":7830:7866   */\n      tag_183\n        /* \"#utility.yul\":7856:7865   */\n      dup2\n        /* \"#utility.yul\":7830:7866   */\n      tag_45\n      jump\t// in\n    tag_183:\n        /* \"#utility.yul\":7882:7953   */\n      tag_184\n        /* \"#utility.yul\":7946:7952   */\n      dup2\n        /* \"#utility.yul\":7941:7944   */\n      dup7\n        /* \"#utility.yul\":7882:7953   */\n      tag_85\n      jump\t// in\n    tag_184:\n        /* \"#utility.yul\":7875:7953   */\n      swap5\n      pop\n        /* \"#utility.yul\":7984:7985   */\n      0x01\n        /* \"#utility.yul\":7973:7982   */\n      dup3\n        /* \"#utility.yul\":7969:7986   */\n      and\n        /* \"#utility.yul\":8000:8001   */\n      0x00\n        /* \"#utility.yul\":7995:8130   */\n      dup2\n      eq\n      tag_186\n      jumpi\n        /* \"#utility.yul\":8144:8145   */\n      0x01\n        /* \"#utility.yul\":8139:8475   */\n      dup2\n      eq\n      tag_187\n      jumpi\n        /* \"#utility.yul\":7962:8475   */\n      jump(tag_185)\n        /* \"#utility.yul\":7995:8130   */\n    tag_186:\n        /* \"#utility.yul\":8079:8083   */\n      0xff\n        /* \"#utility.yul\":8075:8084   */\n      not\n        /* \"#utility.yul\":8064:8073   */\n      dup4\n        /* \"#utility.yul\":8060:8085   */\n      and\n        /* \"#utility.yul\":8055:8058   */\n      dup7\n        /* \"#utility.yul\":8048:8086   */\n      mstore\n        /* \"#utility.yul\":8115:8119   */\n      0x20\n        /* \"#utility.yul\":8110:8113   */\n      dup7\n        /* \"#utility.yul\":8106:8120   */\n      add\n        /* \"#utility.yul\":8099:8120   */\n      swap4\n      pop\n        /* \"#utility.yul\":7995:8130   */\n      jump(tag_185)\n        /* \"#utility.yul\":8139:8475   */\n    tag_187:\n        /* \"#utility.yul\":8206:8244   */\n      tag_188\n        /* \"#utility.yul\":8238:8243   */\n      dup6\n        /* \"#utility.yul\":8206:8244   */\n      tag_96\n      jump\t// in\n    tag_188:\n        /* \"#utility.yul\":8266:8267   */\n      0x00\n        /* \"#utility.yul\":8280:8434   */\n    tag_189:\n        /* \"#utility.yul\":8294:8300   */\n      dup4\n        /* \"#utility.yul\":8291:8292   */\n      dup2\n        /* \"#utility.yul\":8288:8301   */\n      lt\n        /* \"#utility.yul\":8280:8434   */\n      iszero\n      tag_191\n      jumpi\n        /* \"#utility.yul\":8368:8375   */\n      dup2\n        /* \"#utility.yul\":8362:8376   */\n      sload\n        /* \"#utility.yul\":8358:8359   */\n      dup2\n        /* \"#utility.yul\":8353:8356   */\n      dup10\n        /* \"#utility.yul\":8349:8360   */\n      add\n        /* \"#utility.yul\":8342:8377   */\n      mstore\n        /* \"#utility.yul\":8418:8419   */\n      0x01\n        /* \"#utility.yul\":8409:8416   */\n      dup3\n        /* \"#utility.yul\":8405:8420   */\n      add\n        /* \"#utility.yul\":8394:8420   */\n      swap2\n      pop\n        /* \"#utility.yul\":8316:8320   */\n      0x20\n        /* \"#utility.yul\":8313:8314   */\n      dup2\n        /* \"#utility.yul\":8309:8321   */\n      add\n        /* \"#utility.yul\":8304:8321   */\n      swap1\n      pop\n        /* \"#utility.yul\":8280:8434   */\n      jump(tag_189)\n    tag_191:\n        /* \"#utility.yul\":8463:8464   */\n      dup1\n        /* \"#utility.yul\":8458:8461   */\n      dup9\n        /* \"#utility.yul\":8454:8465   */\n      add\n        /* \"#utility.yul\":8447:8465   */\n      swap6\n      pop\n        /* \"#utility.yul\":8146:8475   */\n      pop\n      pop\n        /* \"#utility.yul\":7962:8475   */\n    tag_185:\n      pop\n        /* \"#utility.yul\":7768:8481   */\n      pop\n      pop\n        /* \"#utility.yul\":7679:8481   */\n      swap3\n      swap2\n      pop\n      pop\n      jump\t// out\n        /* \"#utility.yul\":8487:9101   */\n    tag_55:\n        /* \"#utility.yul\":8698:8702   */\n      0x00\n        /* \"#utility.yul\":8736:8738   */\n      0x40\n        /* \"#utility.yul\":8725:8734   */\n      dup3\n        /* \"#utility.yul\":8721:8739   */\n      add\n        /* \"#utility.yul\":8713:8739   */\n      swap1\n      pop\n        /* \"#utility.yul\":8785:8794   */\n      dup2\n        /* \"#utility.yul\":8779:8783   */\n      dup2\n        /* \"#utility.yul\":8775:8795   */\n      sub\n        /* \"#utility.yul\":8771:8772   */\n      0x00\n        /* \"#utility.yul\":8760:8769   */\n      dup4\n        /* \"#utility.yul\":8756:8773   */\n      add\n        /* \"#utility.yul\":8749:8796   */\n      mstore\n        /* \"#utility.yul\":8813:8944   */\n      tag_193\n        /* \"#utility.yul\":8939:8943   */\n      dup2\n        /* \"#utility.yul\":8813:8944   */\n      tag_95\n      jump\t// in\n    tag_193:\n        /* \"#utility.yul\":8805:8944   */\n      swap1\n      pop\n        /* \"#utility.yul\":8991:9000   */\n      dup2\n        /* \"#utility.yul\":8985:8989   */\n      dup2\n        /* \"#utility.yul\":8981:9001   */\n      sub\n        /* \"#utility.yul\":8976:8978   */\n      0x20\n        /* \"#utility.yul\":8965:8974   */\n      dup4\n        /* \"#utility.yul\":8961:8979   */\n      add\n        /* \"#utility.yul\":8954:9002   */\n      mstore\n        /* \"#utility.yul\":9019:9094   */\n      tag_194\n        /* \"#utility.yul\":9089:9093   */\n      dup2\n        /* \"#utility.yul\":9080:9086   */\n      dup5\n        /* \"#utility.yul\":9019:9094   */\n      tag_97\n      jump\t// in\n    tag_194:\n        /* \"#utility.yul\":9011:9094   */\n      swap1\n      pop\n        /* \"#utility.yul\":8487:9101   */\n      swap3\n      swap2\n      pop\n      pop\n      jump\t// out\n\n    auxdata: 0xa26469706673582212205b86f29d47aaf11f1d4b65d0908593f941cd50d4544b829a0695a1ae1cae719764736f6c634300080d0033\n}\n",
				"bytecode": {
					"linkReferences": {},
					"object": "60806040523480156200001157600080fd5b5060405162000eaa38038062000eaa8339818101604052810190620000379190620003b7565b846000806101000a81548173ffffffffffffffffffffffffffffffffffffffff021916908373ffffffffffffffffffffffffffffffffffffffff16021790555083600190805190602001906200008f929190620000ca565b508260029080519060200190620000a8929190620000ca565b50816003819055508060068190555060006004819055505050505050620004e1565b828054620000d890620004ac565b90600052602060002090601f016020900481019282620000fc576000855562000148565b82601f106200011757805160ff191683800117855562000148565b8280016001018555821562000148579182015b82811115620001475782518255916020019190600101906200012a565b5b5090506200015791906200015b565b5090565b5b80821115620001765760008160009055506001016200015c565b5090565b6000604051905090565b600080fd5b600080fd5b600073ffffffffffffffffffffffffffffffffffffffff82169050919050565b6000620001bb826200018e565b9050919050565b620001cd81620001ae565b8114620001d957600080fd5b50565b600081519050620001ed81620001c2565b92915050565b600080fd5b600080fd5b6000601f19601f8301169050919050565b7f4e487b7100000000000000000000000000000000000000000000000000000000600052604160045260246000fd5b6200024882620001fd565b810181811067ffffffffffffffff821117156200026a57620002696200020e565b5b80604052505050565b60006200027f6200017a565b90506200028d82826200023d565b919050565b600067ffffffffffffffff821115620002b057620002af6200020e565b5b620002bb82620001fd565b9050602081019050919050565b60005b83811015620002e8578082015181840152602081019050620002cb565b83811115620002f8576000848401525b50505050565b6000620003156200030f8462000292565b62000273565b905082815260208101848484011115620003345762000333620001f8565b5b62000341848285620002c8565b509392505050565b600082601f830112620003615762000360620001f3565b5b815162000373848260208601620002fe565b91505092915050565b6000819050919050565b62000391816200037c565b81146200039d57600080fd5b50565b600081519050620003b18162000386565b92915050565b600080600080600060a08688031215620003d657620003d562000184565b5b6000620003e688828901620001dc565b955050602086015167ffffffffffffffff8111156200040a576200040962000189565b5b620004188882890162000349565b945050604086015167ffffffffffffffff8111156200043c576200043b62000189565b5b6200044a8882890162000349565b93505060606200045d88828901620003a0565b92505060806200047088828901620003a0565b9150509295509295909350565b7f4e487b7100000000000000000000000000000000000000000000000000000000600052602260045260246000fd5b60006002820490506001821680620004c557607f821691505b602082108103620004db57620004da6200047d565b5b50919050565b6109b980620004f16000396000f3fe60806040526004361061003f5760003560e01c8063a541a2a214610044578063a8b93c8d1461006f578063d7bb99ba14610098578063f020cd19146100a2575b600080fd5b34801561005057600080fd5b506100596100cd565b604051610066919061048e565b60405180910390f35b34801561007b57600080fd5b5061009660048036038101906100919190610603565b6100f1565b005b6100a061010b565b005b3480156100ae57600080fd5b506100b7610291565b6040516100c491906106d4565b60405180910390f35b60008054906101000a900473ffffffffffffffffffffffffffffffffffffffff1681565b80600190805190602001906101079291906103aa565b5050565b60008060028111156101205761011f6106f6565b5b600560009054906101000a900460ff166002811115610142576101416106f6565b5b1461014c57600080fd5b60008054906101000a900473ffffffffffffffffffffffffffffffffffffffff1673ffffffffffffffffffffffffffffffffffffffff163373ffffffffffffffffffffffffffffffffffffffff16036101a457600080fd5b6101f634600760003373ffffffffffffffffffffffffffffffffffffffff1673ffffffffffffffffffffffffffffffffffffffff1681526020019081526020016000205461032390919063ffffffff16565b600760003373ffffffffffffffffffffffffffffffffffffffff1673ffffffffffffffffffffffffffffffffffffffff1681526020019081526020016000208190555034600454610247919061075e565b6004819055507f75ae3e7c973a88747144369f710c5999060a6321be0506174d3f5c64bdfc674e333460405161027e9291906107e4565b60405180910390a161028e610339565b50565b6060600180546102a09061083c565b80601f01602080910402602001604051908101604052809291908181526020018280546102cc9061083c565b80156103195780601f106102ee57610100808354040283529160200191610319565b820191906000526020600020905b8154815290600101906020018083116102fc57829003601f168201915b5050505050905090565b60008183610331919061075e565b905092915050565b600454600354106103a8577f15ac727d1ca51352f519e3f5899500ead795e56a4a39ceafeea835331346017a6001604051610374919061094e565b60405180910390a16002600560006101000a81548160ff021916908360028111156103a2576103a16106f6565b5b02179055505b565b8280546103b69061083c565b90600052602060002090601f0160209004810192826103d8576000855561041f565b82601f106103f157805160ff191683800117855561041f565b8280016001018555821561041f579182015b8281111561041e578251825591602001919060010190610403565b5b50905061042c9190610430565b5090565b5b80821115610449576000816000905550600101610431565b5090565b600073ffffffffffffffffffffffffffffffffffffffff82169050919050565b60006104788261044d565b9050919050565b6104888161046d565b82525050565b60006020820190506104a3600083018461047f565b92915050565b6000604051905090565b600080fd5b600080fd5b600080fd5b600080fd5b6000601f19601f8301169050919050565b7f4e487b7100000000000000000000000000000000000000000000000000000000600052604160045260246000fd5b610510826104c7565b810181811067ffffffffffffffff8211171561052f5761052e6104d8565b5b80604052505050565b60006105426104a9565b905061054e8282610507565b919050565b600067ffffffffffffffff82111561056e5761056d6104d8565b5b610577826104c7565b9050602081019050919050565b82818337600083830152505050565b60006105a66105a184610553565b610538565b9050828152602081018484840111156105c2576105c16104c2565b5b6105cd848285610584565b509392505050565b600082601f8301126105ea576105e96104bd565b5b81356105fa848260208601610593565b91505092915050565b600060208284031215610619576106186104b3565b5b600082013567ffffffffffffffff811115610637576106366104b8565b5b610643848285016105d5565b91505092915050565b600081519050919050565b600082825260208201905092915050565b60005b8381101561068657808201518184015260208101905061066b565b83811115610695576000848401525b50505050565b60006106a68261064c565b6106b08185610657565b93506106c0818560208601610668565b6106c9816104c7565b840191505092915050565b600060208201905081810360008301526106ee818461069b565b905092915050565b7f4e487b7100000000000000000000000000000000000000000000000000000000600052602160045260246000fd5b6000819050919050565b7f4e487b7100000000000000000000000000000000000000000000000000000000600052601160045260246000fd5b600061076982610725565b915061077483610725565b9250827fffffffffffffffffffffffffffffffffffffffffffffffffffffffffffffffff038211156107a9576107a861072f565b5b828201905092915050565b60006107bf8261044d565b9050919050565b6107cf816107b4565b82525050565b6107de81610725565b82525050565b60006040820190506107f960008301856107c6565b61080660208301846107d5565b9392505050565b7f4e487b7100000000000000000000000000000000000000000000000000000000600052602260045260246000fd5b6000600282049050600182168061085457607f821691505b6020821081036108675761086661080d565b5b50919050565b7f54686520476f616c206973207265616368656400000000000000000000000000600082015250565b60006108a3601383610657565b91506108ae8261086d565b602082019050919050565b60008190508160005260206000209050919050565b600081546108db8161083c565b6108e58186610657565b94506001821660008114610900576001811461091257610945565b60ff1983168652602086019350610945565b61091b856108b9565b60005b8381101561093d5781548189015260018201915060208101905061091e565b808801955050505b50505092915050565b6000604082019050818103600083015261096781610896565b9050818103602083015261097b81846108ce565b90509291505056fea26469706673582212205b86f29d47aaf11f1d4b65d0908593f941cd50d4544b829a0695a1ae1cae719764736f6c634300080d0033",
					"opcodes": "PUSH1 0x80 PUSH1 0x40 MSTORE CALLVALUE DUP1 ISZERO PUSH3 0x11 JUMPI PUSH1 0x0 DUP1 REVERT JUMPDEST POP PUSH1 0x40 MLOAD PUSH3 0xEAA CODESIZE SUB DUP1 PUSH3 0xEAA DUP4 CODECOPY DUP2 DUP2 ADD PUSH1 0x40 MSTORE DUP2 ADD SWAP1 PUSH3 0x37 SWAP2 SWAP1 PUSH3 0x3B7 JUMP JUMPDEST DUP5 PUSH1 0x0 DUP1 PUSH2 0x100 EXP DUP2 SLOAD DUP2 PUSH20 0xFFFFFFFFFFFFFFFFFFFFFFFFFFFFFFFFFFFFFFFF MUL NOT AND SWAP1 DUP4 PUSH20 0xFFFFFFFFFFFFFFFFFFFFFFFFFFFFFFFFFFFFFFFF AND MUL OR SWAP1 SSTORE POP DUP4 PUSH1 0x1 SWAP1 DUP1 MLOAD SWAP1 PUSH1 0x20 ADD SWAP1 PUSH3 0x8F SWAP3 SWAP2 SWAP1 PUSH3 0xCA JUMP JUMPDEST POP DUP3 PUSH1 0x2 SWAP1 DUP1 MLOAD SWAP1 PUSH1 0x20 ADD SWAP1 PUSH3 0xA8 SWAP3 SWAP2 SWAP1 PUSH3 0xCA JUMP JUMPDEST POP DUP2 PUSH1 0x3 DUP2 SWAP1 SSTORE POP DUP1 PUSH1 0x6 DUP2 SWAP1 SSTORE POP PUSH1 0x0 PUSH1 0x4 DUP2 SWAP1 SSTORE POP POP POP POP POP POP PUSH3 0x4E1 JUMP JUMPDEST DUP3 DUP1 SLOAD PUSH3 0xD8 SWAP1 PUSH3 0x4AC JUMP JUMPDEST SWAP1 PUSH1 0x0 MSTORE PUSH1 0x20 PUSH1 0x0 KECCAK256 SWAP1 PUSH1 0x1F ADD PUSH1 0x20 SWAP1 DIV DUP2 ADD SWAP3 DUP3 PUSH3 0xFC JUMPI PUSH1 0x0 DUP6 SSTORE PUSH3 0x148 JUMP JUMPDEST DUP3 PUSH1 0x1F LT PUSH3 0x117 JUMPI DUP1 MLOAD PUSH1 0xFF NOT AND DUP4 DUP1 ADD OR DUP6 SSTORE PUSH3 0x148 JUMP JUMPDEST DUP3 DUP1 ADD PUSH1 0x1 ADD DUP6 SSTORE DUP3 ISZERO PUSH3 0x148 JUMPI SWAP2 DUP3 ADD JUMPDEST DUP3 DUP2 GT ISZERO PUSH3 0x147 JUMPI DUP3 MLOAD DUP3 SSTORE SWAP2 PUSH1 0x20 ADD SWAP2 SWAP1 PUSH1 0x1 ADD SWAP1 PUSH3 0x12A JUMP JUMPDEST JUMPDEST POP SWAP1 POP PUSH3 0x157 SWAP2 SWAP1 PUSH3 0x15B JUMP JUMPDEST POP SWAP1 JUMP JUMPDEST JUMPDEST DUP1 DUP3 GT ISZERO PUSH3 0x176 JUMPI PUSH1 0x0 DUP2 PUSH1 0x0 SWAP1 SSTORE POP PUSH1 0x1 ADD PUSH3 0x15C JUMP JUMPDEST POP SWAP1 JUMP JUMPDEST PUSH1 0x0 PUSH1 0x40 MLOAD SWAP1 POP SWAP1 JUMP JUMPDEST PUSH1 0x0 DUP1 REVERT JUMPDEST PUSH1 0x0 DUP1 REVERT JUMPDEST PUSH1 0x0 PUSH20 0xFFFFFFFFFFFFFFFFFFFFFFFFFFFFFFFFFFFFFFFF DUP3 AND SWAP1 POP SWAP2 SWAP1 POP JUMP JUMPDEST PUSH1 0x0 PUSH3 0x1BB DUP3 PUSH3 0x18E JUMP JUMPDEST SWAP1 POP SWAP2 SWAP1 POP JUMP JUMPDEST PUSH3 0x1CD DUP2 PUSH3 0x1AE JUMP JUMPDEST DUP2 EQ PUSH3 0x1D9 JUMPI PUSH1 0x0 DUP1 REVERT JUMPDEST POP JUMP JUMPDEST PUSH1 0x0 DUP2 MLOAD SWAP1 POP PUSH3 0x1ED DUP2 PUSH3 0x1C2 JUMP JUMPDEST SWAP3 SWAP2 POP POP JUMP JUMPDEST PUSH1 0x0 DUP1 REVERT JUMPDEST PUSH1 0x0 DUP1 REVERT JUMPDEST PUSH1 0x0 PUSH1 0x1F NOT PUSH1 0x1F DUP4 ADD AND SWAP1 POP SWAP2 SWAP1 POP JUMP JUMPDEST PUSH32 0x4E487B7100000000000000000000000000000000000000000000000000000000 PUSH1 0x0 MSTORE PUSH1 0x41 PUSH1 0x4 MSTORE PUSH1 0x24 PUSH1 0x0 REVERT JUMPDEST PUSH3 0x248 DUP3 PUSH3 0x1FD JUMP JUMPDEST DUP2 ADD DUP2 DUP2 LT PUSH8 0xFFFFFFFFFFFFFFFF DUP3 GT OR ISZERO PUSH3 0x26A JUMPI PUSH3 0x269 PUSH3 0x20E JUMP JUMPDEST JUMPDEST DUP1 PUSH1 0x40 MSTORE POP POP POP JUMP JUMPDEST PUSH1 0x0 PUSH3 0x27F PUSH3 0x17A JUMP JUMPDEST SWAP1 POP PUSH3 0x28D DUP3 DUP3 PUSH3 0x23D JUMP JUMPDEST SWAP2 SWAP1 POP JUMP JUMPDEST PUSH1 0x0 PUSH8 0xFFFFFFFFFFFFFFFF DUP3 GT ISZERO PUSH3 0x2B0 JUMPI PUSH3 0x2AF PUSH3 0x20E JUMP JUMPDEST JUMPDEST PUSH3 0x2BB DUP3 PUSH3 0x1FD JUMP JUMPDEST SWAP1 POP PUSH1 0x20 DUP2 ADD SWAP1 POP SWAP2 SWAP1 POP JUMP JUMPDEST PUSH1 0x0 JUMPDEST DUP4 DUP2 LT ISZERO PUSH3 0x2E8 JUMPI DUP1 DUP3 ADD MLOAD DUP2 DUP5 ADD MSTORE PUSH1 0x20 DUP2 ADD SWAP1 POP PUSH3 0x2CB JUMP JUMPDEST DUP4 DUP2 GT ISZERO PUSH3 0x2F8 JUMPI PUSH1 0x0 DUP5 DUP5 ADD MSTORE JUMPDEST POP POP POP POP JUMP JUMPDEST PUSH1 0x0 PUSH3 0x315 PUSH3 0x30F DUP5 PUSH3 0x292 JUMP JUMPDEST PUSH3 0x273 JUMP JUMPDEST SWAP1 POP DUP3 DUP2 MSTORE PUSH1 0x20 DUP2 ADD DUP5 DUP5 DUP5 ADD GT ISZERO PUSH3 0x334 JUMPI PUSH3 0x333 PUSH3 0x1F8 JUMP JUMPDEST JUMPDEST PUSH3 0x341 DUP5 DUP3 DUP6 PUSH3 0x2C8 JUMP JUMPDEST POP SWAP4 SWAP3 POP POP POP JUMP JUMPDEST PUSH1 0x0 DUP3 PUSH1 0x1F DUP4 ADD SLT PUSH3 0x361 JUMPI PUSH3 0x360 PUSH3 0x1F3 JUMP JUMPDEST JUMPDEST DUP2 MLOAD PUSH3 0x373 DUP5 DUP3 PUSH1 0x20 DUP7 ADD PUSH3 0x2FE JUMP JUMPDEST SWAP2 POP POP SWAP3 SWAP2 POP POP JUMP JUMPDEST PUSH1 0x0 DUP2 SWAP1 POP SWAP2 SWAP1 POP JUMP JUMPDEST PUSH3 0x391 DUP2 PUSH3 0x37C JUMP JUMPDEST DUP2 EQ PUSH3 0x39D JUMPI PUSH1 0x0 DUP1 REVERT JUMPDEST POP JUMP JUMPDEST PUSH1 0x0 DUP2 MLOAD SWAP1 POP PUSH3 0x3B1 DUP2 PUSH3 0x386 JUMP JUMPDEST SWAP3 SWAP2 POP POP JUMP JUMPDEST PUSH1 0x0 DUP1 PUSH1 0x0 DUP1 PUSH1 0x0 PUSH1 0xA0 DUP7 DUP9 SUB SLT ISZERO PUSH3 0x3D6 JUMPI PUSH3 0x3D5 PUSH3 0x184 JUMP JUMPDEST JUMPDEST PUSH1 0x0 PUSH3 0x3E6 DUP9 DUP3 DUP10 ADD PUSH3 0x1DC JUMP JUMPDEST SWAP6 POP POP PUSH1 0x20 DUP7 ADD MLOAD PUSH8 0xFFFFFFFFFFFFFFFF DUP2 GT ISZERO PUSH3 0x40A JUMPI PUSH3 0x409 PUSH3 0x189 JUMP JUMPDEST JUMPDEST PUSH3 0x418 DUP9 DUP3 DUP10 ADD PUSH3 0x349 JUMP JUMPDEST SWAP5 POP POP PUSH1 0x40 DUP7 ADD MLOAD PUSH8 0xFFFFFFFFFFFFFFFF DUP2 GT ISZERO PUSH3 0x43C JUMPI PUSH3 0x43B PUSH3 0x189 JUMP JUMPDEST JUMPDEST PUSH3 0x44A DUP9 DUP3 DUP10 ADD PUSH3 0x349 JUMP JUMPDEST SWAP4 POP POP PUSH1 0x60 PUSH3 0x45D DUP9 DUP3 DUP10 ADD PUSH3 0x3A0 JUMP JUMPDEST SWAP3 POP POP PUSH1 0x80 PUSH3 0x470 DUP9 DUP3 DUP10 ADD PUSH3 0x3A0 JUMP JUMPDEST SWAP2 POP POP SWAP3 SWAP6 POP SWAP3 SWAP6 SWAP1 SWAP4 POP JUMP JUMPDEST PUSH32 0x4E487B7100000000000000000000000000000000000000000000000000000000 PUSH1 0x0 MSTORE PUSH1 0x22 PUSH1 0x4 MSTORE PUSH1 0x24 PUSH1 0x0 REVERT JUMPDEST PUSH1 0x0 PUSH1 0x2 DUP3 DIV SWAP1 POP PUSH1 0x1 DUP3 AND DUP1 PUSH3 0x4C5 JUMPI PUSH1 0x7F DUP3 AND SWAP2 POP JUMPDEST PUSH1 0x20 DUP3 LT DUP2 SUB PUSH3 0x4DB JUMPI PUSH3 0x4DA PUSH3 0x47D JUMP JUMPDEST JUMPDEST POP SWAP2 SWAP1 POP JUMP JUMPDEST PUSH2 0x9B9 DUP1 PUSH3 0x4F1 PUSH1 0x0 CODECOPY PUSH1 0x0 RETURN INVALID PUSH1 0x80 PUSH1 0x40 MSTORE PUSH1 0x4 CALLDATASIZE LT PUSH2 0x3F JUMPI PUSH1 0x0 CALLDATALOAD PUSH1 0xE0 SHR DUP1 PUSH4 0xA541A2A2 EQ PUSH2 0x44 JUMPI DUP1 PUSH4 0xA8B93C8D EQ PUSH2 0x6F JUMPI DUP1 PUSH4 0xD7BB99BA EQ PUSH2 0x98 JUMPI DUP1 PUSH4 0xF020CD19 EQ PUSH2 0xA2 JUMPI JUMPDEST PUSH1 0x0 DUP1 REVERT JUMPDEST CALLVALUE DUP1 ISZERO PUSH2 0x50 JUMPI PUSH1 0x0 DUP1 REVERT JUMPDEST POP PUSH2 0x59 PUSH2 0xCD JUMP JUMPDEST PUSH1 0x40 MLOAD PUSH2 0x66 SWAP2 SWAP1 PUSH2 0x48E JUMP JUMPDEST PUSH1 0x40 MLOAD DUP1 SWAP2 SUB SWAP1 RETURN JUMPDEST CALLVALUE DUP1 ISZERO PUSH2 0x7B JUMPI PUSH1 0x0 DUP1 REVERT JUMPDEST POP PUSH2 0x96 PUSH1 0x4 DUP1 CALLDATASIZE SUB DUP2 ADD SWAP1 PUSH2 0x91 SWAP2 SWAP1 PUSH2 0x603 JUMP JUMPDEST PUSH2 0xF1 JUMP JUMPDEST STOP JUMPDEST PUSH2 0xA0 PUSH2 0x10B JUMP JUMPDEST STOP JUMPDEST CALLVALUE DUP1 ISZERO PUSH2 0xAE JUMPI PUSH1 0x0 DUP1 REVERT JUMPDEST POP PUSH2 0xB7 PUSH2 0x291 JUMP JUMPDEST PUSH1 0x40 MLOAD PUSH2 0xC4 SWAP2 SWAP1 PUSH2 0x6D4 JUMP JUMPDEST PUSH1 0x40 MLOAD DUP1 SWAP2 SUB SWAP1 RETURN JUMPDEST PUSH1 0x0 DUP1 SLOAD SWAP1 PUSH2 0x100 EXP SWAP1 DIV PUSH20 0xFFFFFFFFFFFFFFFFFFFFFFFFFFFFFFFFFFFFFFFF AND DUP2 JUMP JUMPDEST DUP1 PUSH1 0x1 SWAP1 DUP1 MLOAD SWAP1 PUSH1 0x20 ADD SWAP1 PUSH2 0x107 SWAP3 SWAP2 SWAP1 PUSH2 0x3AA JUMP JUMPDEST POP POP JUMP JUMPDEST PUSH1 0x0 DUP1 PUSH1 0x2 DUP2 GT ISZERO PUSH2 0x120 JUMPI PUSH2 0x11F PUSH2 0x6F6 JUMP JUMPDEST JUMPDEST PUSH1 0x5 PUSH1 0x0 SWAP1 SLOAD SWAP1 PUSH2 0x100 EXP SWAP1 DIV PUSH1 0xFF AND PUSH1 0x2 DUP2 GT ISZERO PUSH2 0x142 JUMPI PUSH2 0x141 PUSH2 0x6F6 JUMP JUMPDEST JUMPDEST EQ PUSH2 0x14C JUMPI PUSH1 0x0 DUP1 REVERT JUMPDEST PUSH1 0x0 DUP1 SLOAD SWAP1 PUSH2 0x100 EXP SWAP1 DIV PUSH20 0xFFFFFFFFFFFFFFFFFFFFFFFFFFFFFFFFFFFFFFFF AND PUSH20 0xFFFFFFFFFFFFFFFFFFFFFFFFFFFFFFFFFFFFFFFF AND CALLER PUSH20 0xFFFFFFFFFFFFFFFFFFFFFFFFFFFFFFFFFFFFFFFF AND SUB PUSH2 0x1A4 JUMPI PUSH1 0x0 DUP1 REVERT JUMPDEST PUSH2 0x1F6 CALLVALUE PUSH1 0x7 PUSH1 0x0 CALLER PUSH20 0xFFFFFFFFFFFFFFFFFFFFFFFFFFFFFFFFFFFFFFFF AND PUSH20 0xFFFFFFFFFFFFFFFFFFFFFFFFFFFFFFFFFFFFFFFF AND DUP2 MSTORE PUSH1 0x20 ADD SWAP1 DUP2 MSTORE PUSH1 0x20 ADD PUSH1 0x0 KECCAK256 SLOAD PUSH2 0x323 SWAP1 SWAP2 SWAP1 PUSH4 0xFFFFFFFF AND JUMP JUMPDEST PUSH1 0x7 PUSH1 0x0 CALLER PUSH20 0xFFFFFFFFFFFFFFFFFFFFFFFFFFFFFFFFFFFFFFFF AND PUSH20 0xFFFFFFFFFFFFFFFFFFFFFFFFFFFFFFFFFFFFFFFF AND DUP2 MSTORE PUSH1 0x20 ADD SWAP1 DUP2 MSTORE PUSH1 0x20 ADD PUSH1 0x0 KECCAK256 DUP2 SWAP1 SSTORE POP CALLVALUE PUSH1 0x4 SLOAD PUSH2 0x247 SWAP2 SWAP1 PUSH2 0x75E JUMP JUMPDEST PUSH1 0x4 DUP2 SWAP1 SSTORE POP PUSH32 0x75AE3E7C973A88747144369F710C5999060A6321BE0506174D3F5C64BDFC674E CALLER CALLVALUE PUSH1 0x40 MLOAD PUSH2 0x27E SWAP3 SWAP2 SWAP1 PUSH2 0x7E4 JUMP JUMPDEST PUSH1 0x40 MLOAD DUP1 SWAP2 SUB SWAP1 LOG1 PUSH2 0x28E PUSH2 0x339 JUMP JUMPDEST POP JUMP JUMPDEST PUSH1 0x60 PUSH1 0x1 DUP1 SLOAD PUSH2 0x2A0 SWAP1 PUSH2 0x83C JUMP JUMPDEST DUP1 PUSH1 0x1F ADD PUSH1 0x20 DUP1 SWAP2 DIV MUL PUSH1 0x20 ADD PUSH1 0x40 MLOAD SWAP1 DUP2 ADD PUSH1 0x40 MSTORE DUP1 SWAP3 SWAP2 SWAP1 DUP2 DUP2 MSTORE PUSH1 0x20 ADD DUP3 DUP1 SLOAD PUSH2 0x2CC SWAP1 PUSH2 0x83C JUMP JUMPDEST DUP1 ISZERO PUSH2 0x319 JUMPI DUP1 PUSH1 0x1F LT PUSH2 0x2EE JUMPI PUSH2 0x100 DUP1 DUP4 SLOAD DIV MUL DUP4 MSTORE SWAP2 PUSH1 0x20 ADD SWAP2 PUSH2 0x319 JUMP JUMPDEST DUP3 ADD SWAP2 SWAP1 PUSH1 0x0 MSTORE PUSH1 0x20 PUSH1 0x0 KECCAK256 SWAP1 JUMPDEST DUP2 SLOAD DUP2 MSTORE SWAP1 PUSH1 0x1 ADD SWAP1 PUSH1 0x20 ADD DUP1 DUP4 GT PUSH2 0x2FC JUMPI DUP3 SWAP1 SUB PUSH1 0x1F AND DUP3 ADD SWAP2 JUMPDEST POP POP POP POP POP SWAP1 POP SWAP1 JUMP JUMPDEST PUSH1 0x0 DUP2 DUP4 PUSH2 0x331 SWAP2 SWAP1 PUSH2 0x75E JUMP JUMPDEST SWAP1 POP SWAP3 SWAP2 POP POP JUMP JUMPDEST PUSH1 0x4 SLOAD PUSH1 0x3 SLOAD LT PUSH2 0x3A8 JUMPI PUSH32 0x15AC727D1CA51352F519E3F5899500EAD795E56A4A39CEAFEEA835331346017A PUSH1 0x1 PUSH1 0x40 MLOAD PUSH2 0x374 SWAP2 SWAP1 PUSH2 0x94E JUMP JUMPDEST PUSH1 0x40 MLOAD DUP1 SWAP2 SUB SWAP1 LOG1 PUSH1 0x2 PUSH1 0x5 PUSH1 0x0 PUSH2 0x100 EXP DUP2 SLOAD DUP2 PUSH1 0xFF MUL NOT AND SWAP1 DUP4 PUSH1 0x2 DUP2 GT ISZERO PUSH2 0x3A2 JUMPI PUSH2 0x3A1 PUSH2 0x6F6 JUMP JUMPDEST JUMPDEST MUL OR SWAP1 SSTORE POP JUMPDEST JUMP JUMPDEST DUP3 DUP1 SLOAD PUSH2 0x3B6 SWAP1 PUSH2 0x83C JUMP JUMPDEST SWAP1 PUSH1 0x0 MSTORE PUSH1 0x20 PUSH1 0x0 KECCAK256 SWAP1 PUSH1 0x1F ADD PUSH1 0x20 SWAP1 DIV DUP2 ADD SWAP3 DUP3 PUSH2 0x3D8 JUMPI PUSH1 0x0 DUP6 SSTORE PUSH2 0x41F JUMP JUMPDEST DUP3 PUSH1 0x1F LT PUSH2 0x3F1 JUMPI DUP1 MLOAD PUSH1 0xFF NOT AND DUP4 DUP1 ADD OR DUP6 SSTORE PUSH2 0x41F JUMP JUMPDEST DUP3 DUP1 ADD PUSH1 0x1 ADD DUP6 SSTORE DUP3 ISZERO PUSH2 0x41F JUMPI SWAP2 DUP3 ADD JUMPDEST DUP3 DUP2 GT ISZERO PUSH2 0x41E JUMPI DUP3 MLOAD DUP3 SSTORE SWAP2 PUSH1 0x20 ADD SWAP2 SWAP1 PUSH1 0x1 ADD SWAP1 PUSH2 0x403 JUMP JUMPDEST JUMPDEST POP SWAP1 POP PUSH2 0x42C SWAP2 SWAP1 PUSH2 0x430 JUMP JUMPDEST POP SWAP1 JUMP JUMPDEST JUMPDEST DUP1 DUP3 GT ISZERO PUSH2 0x449 JUMPI PUSH1 0x0 DUP2 PUSH1 0x0 SWAP1 SSTORE POP PUSH1 0x1 ADD PUSH2 0x431 JUMP JUMPDEST POP SWAP1 JUMP JUMPDEST PUSH1 0x0 PUSH20 0xFFFFFFFFFFFFFFFFFFFFFFFFFFFFFFFFFFFFFFFF DUP3 AND SWAP1 POP SWAP2 SWAP1 POP JUMP JUMPDEST PUSH1 0x0 PUSH2 0x478 DUP3 PUSH2 0x44D JUMP JUMPDEST SWAP1 POP SWAP2 SWAP1 POP JUMP JUMPDEST PUSH2 0x488 DUP2 PUSH2 0x46D JUMP JUMPDEST DUP3 MSTORE POP POP JUMP JUMPDEST PUSH1 0x0 PUSH1 0x20 DUP3 ADD SWAP1 POP PUSH2 0x4A3 PUSH1 0x0 DUP4 ADD DUP5 PUSH2 0x47F JUMP JUMPDEST SWAP3 SWAP2 POP POP JUMP JUMPDEST PUSH1 0x0 PUSH1 0x40 MLOAD SWAP1 POP SWAP1 JUMP JUMPDEST PUSH1 0x0 DUP1 REVERT JUMPDEST PUSH1 0x0 DUP1 REVERT JUMPDEST PUSH1 0x0 DUP1 REVERT JUMPDEST PUSH1 0x0 DUP1 REVERT JUMPDEST PUSH1 0x0 PUSH1 0x1F NOT PUSH1 0x1F DUP4 ADD AND SWAP1 POP SWAP2 SWAP1 POP JUMP JUMPDEST PUSH32 0x4E487B7100000000000000000000000000000000000000000000000000000000 PUSH1 0x0 MSTORE PUSH1 0x41 PUSH1 0x4 MSTORE PUSH1 0x24 PUSH1 0x0 REVERT JUMPDEST PUSH2 0x510 DUP3 PUSH2 0x4C7 JUMP JUMPDEST DUP2 ADD DUP2 DUP2 LT PUSH8 0xFFFFFFFFFFFFFFFF DUP3 GT OR ISZERO PUSH2 0x52F JUMPI PUSH2 0x52E PUSH2 0x4D8 JUMP JUMPDEST JUMPDEST DUP1 PUSH1 0x40 MSTORE POP POP POP JUMP JUMPDEST PUSH1 0x0 PUSH2 0x542 PUSH2 0x4A9 JUMP JUMPDEST SWAP1 POP PUSH2 0x54E DUP3 DUP3 PUSH2 0x507 JUMP JUMPDEST SWAP2 SWAP1 POP JUMP JUMPDEST PUSH1 0x0 PUSH8 0xFFFFFFFFFFFFFFFF DUP3 GT ISZERO PUSH2 0x56E JUMPI PUSH2 0x56D PUSH2 0x4D8 JUMP JUMPDEST JUMPDEST PUSH2 0x577 DUP3 PUSH2 0x4C7 JUMP JUMPDEST SWAP1 POP PUSH1 0x20 DUP2 ADD SWAP1 POP SWAP2 SWAP1 POP JUMP JUMPDEST DUP3 DUP2 DUP4 CALLDATACOPY PUSH1 0x0 DUP4 DUP4 ADD MSTORE POP POP POP JUMP JUMPDEST PUSH1 0x0 PUSH2 0x5A6 PUSH2 0x5A1 DUP5 PUSH2 0x553 JUMP JUMPDEST PUSH2 0x538 JUMP JUMPDEST SWAP1 POP DUP3 DUP2 MSTORE PUSH1 0x20 DUP2 ADD DUP5 DUP5 DUP5 ADD GT ISZERO PUSH2 0x5C2 JUMPI PUSH2 0x5C1 PUSH2 0x4C2 JUMP JUMPDEST JUMPDEST PUSH2 0x5CD DUP5 DUP3 DUP6 PUSH2 0x584 JUMP JUMPDEST POP SWAP4 SWAP3 POP POP POP JUMP JUMPDEST PUSH1 0x0 DUP3 PUSH1 0x1F DUP4 ADD SLT PUSH2 0x5EA JUMPI PUSH2 0x5E9 PUSH2 0x4BD JUMP JUMPDEST JUMPDEST DUP2 CALLDATALOAD PUSH2 0x5FA DUP5 DUP3 PUSH1 0x20 DUP7 ADD PUSH2 0x593 JUMP JUMPDEST SWAP2 POP POP SWAP3 SWAP2 POP POP JUMP JUMPDEST PUSH1 0x0 PUSH1 0x20 DUP3 DUP5 SUB SLT ISZERO PUSH2 0x619 JUMPI PUSH2 0x618 PUSH2 0x4B3 JUMP JUMPDEST JUMPDEST PUSH1 0x0 DUP3 ADD CALLDATALOAD PUSH8 0xFFFFFFFFFFFFFFFF DUP2 GT ISZERO PUSH2 0x637 JUMPI PUSH2 0x636 PUSH2 0x4B8 JUMP JUMPDEST JUMPDEST PUSH2 0x643 DUP5 DUP3 DUP6 ADD PUSH2 0x5D5 JUMP JUMPDEST SWAP2 POP POP SWAP3 SWAP2 POP POP JUMP JUMPDEST PUSH1 0x0 DUP2 MLOAD SWAP1 POP SWAP2 SWAP1 POP JUMP JUMPDEST PUSH1 0x0 DUP3 DUP3 MSTORE PUSH1 0x20 DUP3 ADD SWAP1 POP SWAP3 SWAP2 POP POP JUMP JUMPDEST PUSH1 0x0 JUMPDEST DUP4 DUP2 LT ISZERO PUSH2 0x686 JUMPI DUP1 DUP3 ADD MLOAD DUP2 DUP5 ADD MSTORE PUSH1 0x20 DUP2 ADD SWAP1 POP PUSH2 0x66B JUMP JUMPDEST DUP4 DUP2 GT ISZERO PUSH2 0x695 JUMPI PUSH1 0x0 DUP5 DUP5 ADD MSTORE JUMPDEST POP POP POP POP JUMP JUMPDEST PUSH1 0x0 PUSH2 0x6A6 DUP3 PUSH2 0x64C JUMP JUMPDEST PUSH2 0x6B0 DUP2 DUP6 PUSH2 0x657 JUMP JUMPDEST SWAP4 POP PUSH2 0x6C0 DUP2 DUP6 PUSH1 0x20 DUP7 ADD PUSH2 0x668 JUMP JUMPDEST PUSH2 0x6C9 DUP2 PUSH2 0x4C7 JUMP JUMPDEST DUP5 ADD SWAP2 POP POP SWAP3 SWAP2 POP POP JUMP JUMPDEST PUSH1 0x0 PUSH1 0x20 DUP3 ADD SWAP1 POP DUP2 DUP2 SUB PUSH1 0x0 DUP4 ADD MSTORE PUSH2 0x6EE DUP2 DUP5 PUSH2 0x69B JUMP JUMPDEST SWAP1 POP SWAP3 SWAP2 POP POP JUMP JUMPDEST PUSH32 0x4E487B7100000000000000000000000000000000000000000000000000000000 PUSH1 0x0 MSTORE PUSH1 0x21 PUSH1 0x4 MSTORE PUSH1 0x24 PUSH1 0x0 REVERT JUMPDEST PUSH1 0x0 DUP2 SWAP1 POP SWAP2 SWAP1 POP JUMP JUMPDEST PUSH32 0x4E487B7100000000000000000000000000000000000000000000000000000000 PUSH1 0x0 MSTORE PUSH1 0x11 PUSH1 0x4 MSTORE PUSH1 0x24 PUSH1 0x0 REVERT JUMPDEST PUSH1 0x0 PUSH2 0x769 DUP3 PUSH2 0x725 JUMP JUMPDEST SWAP2 POP PUSH2 0x774 DUP4 PUSH2 0x725 JUMP JUMPDEST SWAP3 POP DUP3 PUSH32 0xFFFFFFFFFFFFFFFFFFFFFFFFFFFFFFFFFFFFFFFFFFFFFFFFFFFFFFFFFFFFFFFF SUB DUP3 GT ISZERO PUSH2 0x7A9 JUMPI PUSH2 0x7A8 PUSH2 0x72F JUMP JUMPDEST JUMPDEST DUP3 DUP3 ADD SWAP1 POP SWAP3 SWAP2 POP POP JUMP JUMPDEST PUSH1 0x0 PUSH2 0x7BF DUP3 PUSH2 0x44D JUMP JUMPDEST SWAP1 POP SWAP2 SWAP1 POP JUMP JUMPDEST PUSH2 0x7CF DUP2 PUSH2 0x7B4 JUMP JUMPDEST DUP3 MSTORE POP POP JUMP JUMPDEST PUSH2 0x7DE DUP2 PUSH2 0x725 JUMP JUMPDEST DUP3 MSTORE POP POP JUMP JUMPDEST PUSH1 0x0 PUSH1 0x40 DUP3 ADD SWAP1 POP PUSH2 0x7F9 PUSH1 0x0 DUP4 ADD DUP6 PUSH2 0x7C6 JUMP JUMPDEST PUSH2 0x806 PUSH1 0x20 DUP4 ADD DUP5 PUSH2 0x7D5 JUMP JUMPDEST SWAP4 SWAP3 POP POP POP JUMP JUMPDEST PUSH32 0x4E487B7100000000000000000000000000000000000000000000000000000000 PUSH1 0x0 MSTORE PUSH1 0x22 PUSH1 0x4 MSTORE PUSH1 0x24 PUSH1 0x0 REVERT JUMPDEST PUSH1 0x0 PUSH1 0x2 DUP3 DIV SWAP1 POP PUSH1 0x1 DUP3 AND DUP1 PUSH2 0x854 JUMPI PUSH1 0x7F DUP3 AND SWAP2 POP JUMPDEST PUSH1 0x20 DUP3 LT DUP2 SUB PUSH2 0x867 JUMPI PUSH2 0x866 PUSH2 0x80D JUMP JUMPDEST JUMPDEST POP SWAP2 SWAP1 POP JUMP JUMPDEST PUSH32 0x54686520476F616C206973207265616368656400000000000000000000000000 PUSH1 0x0 DUP3 ADD MSTORE POP JUMP JUMPDEST PUSH1 0x0 PUSH2 0x8A3 PUSH1 0x13 DUP4 PUSH2 0x657 JUMP JUMPDEST SWAP2 POP PUSH2 0x8AE DUP3 PUSH2 0x86D JUMP JUMPDEST PUSH1 0x20 DUP3 ADD SWAP1 POP SWAP2 SWAP1 POP JUMP JUMPDEST PUSH1 0x0 DUP2 SWAP1 POP DUP2 PUSH1 0x0 MSTORE PUSH1 0x20 PUSH1 0x0 KECCAK256 SWAP1 POP SWAP2 SWAP1 POP JUMP JUMPDEST PUSH1 0x0 DUP2 SLOAD PUSH2 0x8DB DUP2 PUSH2 0x83C JUMP JUMPDEST PUSH2 0x8E5 DUP2 DUP7 PUSH2 0x657 JUMP JUMPDEST SWAP5 POP PUSH1 0x1 DUP3 AND PUSH1 0x0 DUP2 EQ PUSH2 0x900 JUMPI PUSH1 0x1 DUP2 EQ PUSH2 0x912 JUMPI PUSH2 0x945 JUMP JUMPDEST PUSH1 0xFF NOT DUP4 AND DUP7 MSTORE PUSH1 0x20 DUP7 ADD SWAP4 POP PUSH2 0x945 JUMP JUMPDEST PUSH2 0x91B DUP6 PUSH2 0x8B9 JUMP JUMPDEST PUSH1 0x0 JUMPDEST DUP4 DUP2 LT ISZERO PUSH2 0x93D JUMPI DUP2 SLOAD DUP2 DUP10 ADD MSTORE PUSH1 0x1 DUP3 ADD SWAP2 POP PUSH1 0x20 DUP2 ADD SWAP1 POP PUSH2 0x91E JUMP JUMPDEST DUP1 DUP9 ADD SWAP6 POP POP POP JUMPDEST POP POP POP SWAP3 SWAP2 POP POP JUMP JUMPDEST PUSH1 0x0 PUSH1 0x40 DUP3 ADD SWAP1 POP DUP2 DUP2 SUB PUSH1 0x0 DUP4 ADD MSTORE PUSH2 0x967 DUP2 PUSH2 0x896 JUMP JUMPDEST SWAP1 POP DUP2 DUP2 SUB PUSH1 0x20 DUP4 ADD MSTORE PUSH2 0x97B DUP2 DUP5 PUSH2 0x8CE JUMP JUMPDEST SWAP1 POP SWAP3 SWAP2 POP POP JUMP INVALID LOG2 PUSH5 0x6970667358 0x22 SLT KECCAK256 JUMPDEST DUP7 CALLCODE SWAP14 SELFBALANCE 0xAA CALL 0x1F SAR 0x4B PUSH6 0xD0908593F941 0xCD POP 0xD4 SLOAD 0x4B DUP3 SWAP11 MOD SWAP6 LOG1 0xAE SHR 0xAE PUSH18 0x9764736F6C634300080D0033000000000000 "
				},
				"gasEstimates": {
					"creation": {
						"codeDepositCost": "497800",
						"executionCost": "infinite",
						"totalCost": "infinite"
					},
					"external": {
						"contribute()": "infinite",
						"getProjectTitle()": "infinite",
						"projectCreator()": "2489",
						"setProjectTitle(string)": "infinite"
					},
					"internal": {
						"checkGoalReached()": "infinite",
						"setState(enum Project.State)": "infinite",
						"start(string memory,string memory,uint256,uint256)": "infinite"
					}
				},
				"methodIdentifiers": {
					"contribute()": "d7bb99ba",
					"getProjectTitle()": "f020cd19",
					"projectCreator()": "a541a2a2",
					"setProjectTitle(string)": "a8b93c8d"
				}
			},
			"storageLayout": {
				"storage": [
					{
						"astId": 224,
						"contract": "contracts/Project.sol:Project",
						"label": "projectCreator",
						"offset": 0,
						"slot": "0",
						"type": "t_address_payable"
					},
					{
						"astId": 226,
						"contract": "contracts/Project.sol:Project",
						"label": "projectTitle",
						"offset": 0,
						"slot": "1",
						"type": "t_string_storage"
					},
					{
						"astId": 228,
						"contract": "contracts/Project.sol:Project",
						"label": "projectDescription",
						"offset": 0,
						"slot": "2",
						"type": "t_string_storage"
					},
					{
						"astId": 230,
						"contract": "contracts/Project.sol:Project",
						"label": "amountGoal",
						"offset": 0,
						"slot": "3",
						"type": "t_uint256"
					},
					{
						"astId": 232,
						"contract": "contracts/Project.sol:Project",
						"label": "currentBalance",
						"offset": 0,
						"slot": "4",
						"type": "t_uint256"
					},
					{
						"astId": 235,
						"contract": "contracts/Project.sol:Project",
						"label": "state",
						"offset": 0,
						"slot": "5",
						"type": "t_enum(State)222"
					},
					{
						"astId": 237,
						"contract": "contracts/Project.sol:Project",
						"label": "deadLine",
						"offset": 0,
						"slot": "6",
						"type": "t_uint256"
					},
					{
						"astId": 241,
						"contract": "contracts/Project.sol:Project",
						"label": "contributions",
						"offset": 0,
						"slot": "7",
						"type": "t_mapping(t_address,t_uint256)"
					}
				],
				"types": {
					"t_address": {
						"encoding": "inplace",
						"label": "address",
						"numberOfBytes": "20"
					},
					"t_address_payable": {
						"encoding": "inplace",
						"label": "address payable",
						"numberOfBytes": "20"
					},
					"t_enum(State)222": {
						"encoding": "inplace",
						"label": "enum Project.State",
						"numberOfBytes": "1"
					},
					"t_mapping(t_address,t_uint256)": {
						"encoding": "mapping",
						"key": "t_address",
						"label": "mapping(address => uint256)",
						"numberOfBytes": "32",
						"value": "t_uint256"
					},
					"t_string_storage": {
						"encoding": "bytes",
						"label": "string",
						"numberOfBytes": "32"
					},
					"t_uint256": {
						"encoding": "inplace",
						"label": "uint256",
						"numberOfBytes": "32"
					}
				}
			},
			"userdoc": {
				"kind": "user",
				"methods": {
					"constructor": {
						"notice": "// Modifier to check if funding delay is ok modifier isFundingDelayOK(){ require(); _; }*"
					}
				},
				"version": 1
			}
		}
	}
}