{
	"contracts/Crowfunding.sol": {
		"Crowfunding": {
			"abi": [
				{
					"inputs": [
						{
							"internalType": "address",
							"name": "_address",
							"type": "address"
						}
					],
					"name": "getProjectByAddressCreator",
					"outputs": [
						{
							"internalType": "contract Project",
							"name": "",
							"type": "address"
						}
					],
					"stateMutability": "nonpayable",
					"type": "function"
				},
				{
					"inputs": [],
					"name": "returnAllProjects",
					"outputs": [
						{
							"internalType": "contract Project[]",
							"name": "",
							"type": "address[]"
						}
					],
					"stateMutability": "view",
					"type": "function"
				}
			],
			"devdoc": {
				"kind": "dev",
				"methods": {
					"returnAllProjects()": {
						"details": "Function to get all projects' contract addresses.",
						"returns": {
							"_0": "A list of all projects' contract addreses"
						}
					}
				},
				"version": 1
			},
			"evm": {
				"assembly": "    /* \"contracts/Crowfunding.sol\":250:679  contract Crowfunding {... */\n  mstore(0x40, 0x80)\n  callvalue\n  dup1\n  iszero\n  tag_1\n  jumpi\n  0x00\n  dup1\n  revert\ntag_1:\n  pop\n  dataSize(sub_0)\n  dup1\n  dataOffset(sub_0)\n  0x00\n  codecopy\n  0x00\n  return\nstop\n\nsub_0: assembly {\n        /* \"contracts/Crowfunding.sol\":250:679  contract Crowfunding {... */\n      mstore(0x40, 0x80)\n      callvalue\n      dup1\n      iszero\n      tag_1\n      jumpi\n      0x00\n      dup1\n      revert\n    tag_1:\n      pop\n      jumpi(tag_2, lt(calldatasize, 0x04))\n      shr(0xe0, calldataload(0x00))\n      dup1\n      0x4bf28d9e\n      eq\n      tag_3\n      jumpi\n      dup1\n      0x85b6e28e\n      eq\n      tag_4\n      jumpi\n    tag_2:\n      0x00\n      dup1\n      revert\n        /* \"contracts/Crowfunding.sol\":551:673  function getProjectByAddressCreator(address _address) public returns (Project) {... */\n    tag_3:\n      tag_5\n      0x04\n      dup1\n      calldatasize\n      sub\n      dup2\n      add\n      swap1\n      tag_6\n      swap2\n      swap1\n      tag_7\n      jump\t// in\n    tag_6:\n      tag_8\n      jump\t// in\n    tag_5:\n      mload(0x40)\n      tag_9\n      swap2\n      swap1\n      tag_10\n      jump\t// in\n    tag_9:\n      mload(0x40)\n      dup1\n      swap2\n      sub\n      swap1\n      return\n        /* \"contracts/Crowfunding.sol\":444:544  function returnAllProjects() external view returns(Project[] memory){... */\n    tag_4:\n      tag_11\n      tag_12\n      jump\t// in\n    tag_11:\n      mload(0x40)\n      tag_13\n      swap2\n      swap1\n      tag_14\n      jump\t// in\n    tag_13:\n      mload(0x40)\n      dup1\n      swap2\n      sub\n      swap1\n      return\n        /* \"contracts/Crowfunding.sol\":551:673  function getProjectByAddressCreator(address _address) public returns (Project) {... */\n    tag_8:\n        /* \"contracts/Crowfunding.sol\":621:628  Project */\n      0x00\n        /* \"contracts/Crowfunding.sol\":655:663  projects */\n      dup1\n        /* \"contracts/Crowfunding.sol\":664:665  1 */\n      0x01\n        /* \"contracts/Crowfunding.sol\":655:666  projects[1] */\n      dup2\n      sload\n      dup2\n      lt\n      tag_16\n      jumpi\n      tag_17\n      tag_18\n      jump\t// in\n    tag_17:\n    tag_16:\n      swap1\n      0x00\n      mstore\n      keccak256(0x00, 0x20)\n      add\n      0x00\n      swap1\n      sload\n      swap1\n      0x0100\n      exp\n      swap1\n      div\n      0xffffffffffffffffffffffffffffffffffffffff\n      and\n        /* \"contracts/Crowfunding.sol\":648:666  return projects[1] */\n      swap1\n      pop\n        /* \"contracts/Crowfunding.sol\":551:673  function getProjectByAddressCreator(address _address) public returns (Project) {... */\n      swap2\n      swap1\n      pop\n      jump\t// out\n        /* \"contracts/Crowfunding.sol\":444:544  function returnAllProjects() external view returns(Project[] memory){... */\n    tag_12:\n        /* \"contracts/Crowfunding.sol\":495:511  Project[] memory */\n      0x60\n        /* \"contracts/Crowfunding.sol\":529:537  projects */\n      0x00\n        /* \"contracts/Crowfunding.sol\":522:537  return projects */\n      dup1\n      sload\n      dup1\n      0x20\n      mul\n      0x20\n      add\n      mload(0x40)\n      swap1\n      dup2\n      add\n      0x40\n      mstore\n      dup1\n      swap3\n      swap2\n      swap1\n      dup2\n      dup2\n      mstore\n      0x20\n      add\n      dup3\n      dup1\n      sload\n      dup1\n      iszero\n      tag_21\n      jumpi\n      0x20\n      mul\n      dup3\n      add\n      swap2\n      swap1\n      0x00\n      mstore\n      keccak256(0x00, 0x20)\n      swap1\n    tag_22:\n      dup2\n      0x00\n      swap1\n      sload\n      swap1\n      0x0100\n      exp\n      swap1\n      div\n      0xffffffffffffffffffffffffffffffffffffffff\n      and\n      0xffffffffffffffffffffffffffffffffffffffff\n      and\n      dup2\n      mstore\n      0x20\n      add\n      swap1\n      0x01\n      add\n      swap1\n      dup1\n      dup4\n      gt\n      tag_22\n      jumpi\n    tag_21:\n      pop\n      pop\n      pop\n      pop\n      pop\n      swap1\n      pop\n        /* \"contracts/Crowfunding.sol\":444:544  function returnAllProjects() external view returns(Project[] memory){... */\n      swap1\n      jump\t// out\n        /* \"#utility.yul\":88:205   */\n    tag_24:\n        /* \"#utility.yul\":197:198   */\n      0x00\n        /* \"#utility.yul\":194:195   */\n      dup1\n        /* \"#utility.yul\":187:199   */\n      revert\n        /* \"#utility.yul\":334:460   */\n    tag_26:\n        /* \"#utility.yul\":371:378   */\n      0x00\n        /* \"#utility.yul\":411:453   */\n      0xffffffffffffffffffffffffffffffffffffffff\n        /* \"#utility.yul\":404:409   */\n      dup3\n        /* \"#utility.yul\":400:454   */\n      and\n        /* \"#utility.yul\":389:454   */\n      swap1\n      pop\n        /* \"#utility.yul\":334:460   */\n      swap2\n      swap1\n      pop\n      jump\t// out\n        /* \"#utility.yul\":466:562   */\n    tag_27:\n        /* \"#utility.yul\":503:510   */\n      0x00\n        /* \"#utility.yul\":532:556   */\n      tag_48\n        /* \"#utility.yul\":550:555   */\n      dup3\n        /* \"#utility.yul\":532:556   */\n      tag_26\n      jump\t// in\n    tag_48:\n        /* \"#utility.yul\":521:556   */\n      swap1\n      pop\n        /* \"#utility.yul\":466:562   */\n      swap2\n      swap1\n      pop\n      jump\t// out\n        /* \"#utility.yul\":568:690   */\n    tag_28:\n        /* \"#utility.yul\":641:665   */\n      tag_50\n        /* \"#utility.yul\":659:664   */\n      dup2\n        /* \"#utility.yul\":641:665   */\n      tag_27\n      jump\t// in\n    tag_50:\n        /* \"#utility.yul\":634:639   */\n      dup2\n        /* \"#utility.yul\":631:666   */\n      eq\n        /* \"#utility.yul\":621:684   */\n      tag_51\n      jumpi\n        /* \"#utility.yul\":680:681   */\n      0x00\n        /* \"#utility.yul\":677:678   */\n      dup1\n        /* \"#utility.yul\":670:682   */\n      revert\n        /* \"#utility.yul\":621:684   */\n    tag_51:\n        /* \"#utility.yul\":568:690   */\n      pop\n      jump\t// out\n        /* \"#utility.yul\":696:835   */\n    tag_29:\n        /* \"#utility.yul\":742:747   */\n      0x00\n        /* \"#utility.yul\":780:786   */\n      dup2\n        /* \"#utility.yul\":767:787   */\n      calldataload\n        /* \"#utility.yul\":758:787   */\n      swap1\n      pop\n        /* \"#utility.yul\":796:829   */\n      tag_53\n        /* \"#utility.yul\":823:828   */\n      dup2\n        /* \"#utility.yul\":796:829   */\n      tag_28\n      jump\t// in\n    tag_53:\n        /* \"#utility.yul\":696:835   */\n      swap3\n      swap2\n      pop\n      pop\n      jump\t// out\n        /* \"#utility.yul\":841:1170   */\n    tag_7:\n        /* \"#utility.yul\":900:906   */\n      0x00\n        /* \"#utility.yul\":949:951   */\n      0x20\n        /* \"#utility.yul\":937:946   */\n      dup3\n        /* \"#utility.yul\":928:935   */\n      dup5\n        /* \"#utility.yul\":924:947   */\n      sub\n        /* \"#utility.yul\":920:952   */\n      slt\n        /* \"#utility.yul\":917:1036   */\n      iszero\n      tag_55\n      jumpi\n        /* \"#utility.yul\":955:1034   */\n      tag_56\n      tag_24\n      jump\t// in\n    tag_56:\n        /* \"#utility.yul\":917:1036   */\n    tag_55:\n        /* \"#utility.yul\":1075:1076   */\n      0x00\n        /* \"#utility.yul\":1100:1153   */\n      tag_57\n        /* \"#utility.yul\":1145:1152   */\n      dup5\n        /* \"#utility.yul\":1136:1142   */\n      dup3\n        /* \"#utility.yul\":1125:1134   */\n      dup6\n        /* \"#utility.yul\":1121:1143   */\n      add\n        /* \"#utility.yul\":1100:1153   */\n      tag_29\n      jump\t// in\n    tag_57:\n        /* \"#utility.yul\":1090:1153   */\n      swap2\n      pop\n        /* \"#utility.yul\":1046:1163   */\n      pop\n        /* \"#utility.yul\":841:1170   */\n      swap3\n      swap2\n      pop\n      pop\n      jump\t// out\n        /* \"#utility.yul\":1176:1236   */\n    tag_30:\n        /* \"#utility.yul\":1204:1207   */\n      0x00\n        /* \"#utility.yul\":1225:1230   */\n      dup2\n        /* \"#utility.yul\":1218:1230   */\n      swap1\n      pop\n        /* \"#utility.yul\":1176:1236   */\n      swap2\n      swap1\n      pop\n      jump\t// out\n        /* \"#utility.yul\":1242:1384   */\n    tag_31:\n        /* \"#utility.yul\":1292:1301   */\n      0x00\n        /* \"#utility.yul\":1325:1378   */\n      tag_60\n        /* \"#utility.yul\":1343:1377   */\n      tag_61\n        /* \"#utility.yul\":1352:1376   */\n      tag_62\n        /* \"#utility.yul\":1370:1375   */\n      dup5\n        /* \"#utility.yul\":1352:1376   */\n      tag_26\n      jump\t// in\n    tag_62:\n        /* \"#utility.yul\":1343:1377   */\n      tag_30\n      jump\t// in\n    tag_61:\n        /* \"#utility.yul\":1325:1378   */\n      tag_26\n      jump\t// in\n    tag_60:\n        /* \"#utility.yul\":1312:1378   */\n      swap1\n      pop\n        /* \"#utility.yul\":1242:1384   */\n      swap2\n      swap1\n      pop\n      jump\t// out\n        /* \"#utility.yul\":1390:1516   */\n    tag_32:\n        /* \"#utility.yul\":1440:1449   */\n      0x00\n        /* \"#utility.yul\":1473:1510   */\n      tag_64\n        /* \"#utility.yul\":1504:1509   */\n      dup3\n        /* \"#utility.yul\":1473:1510   */\n      tag_31\n      jump\t// in\n    tag_64:\n        /* \"#utility.yul\":1460:1510   */\n      swap1\n      pop\n        /* \"#utility.yul\":1390:1516   */\n      swap2\n      swap1\n      pop\n      jump\t// out\n        /* \"#utility.yul\":1522:1662   */\n    tag_33:\n        /* \"#utility.yul\":1586:1595   */\n      0x00\n        /* \"#utility.yul\":1619:1656   */\n      tag_66\n        /* \"#utility.yul\":1650:1655   */\n      dup3\n        /* \"#utility.yul\":1619:1656   */\n      tag_32\n      jump\t// in\n    tag_66:\n        /* \"#utility.yul\":1606:1656   */\n      swap1\n      pop\n        /* \"#utility.yul\":1522:1662   */\n      swap2\n      swap1\n      pop\n      jump\t// out\n        /* \"#utility.yul\":1668:1827   */\n    tag_34:\n        /* \"#utility.yul\":1769:1820   */\n      tag_68\n        /* \"#utility.yul\":1814:1819   */\n      dup2\n        /* \"#utility.yul\":1769:1820   */\n      tag_33\n      jump\t// in\n    tag_68:\n        /* \"#utility.yul\":1764:1767   */\n      dup3\n        /* \"#utility.yul\":1757:1821   */\n      mstore\n        /* \"#utility.yul\":1668:1827   */\n      pop\n      pop\n      jump\t// out\n        /* \"#utility.yul\":1833:2083   */\n    tag_10:\n        /* \"#utility.yul\":1940:1944   */\n      0x00\n        /* \"#utility.yul\":1978:1980   */\n      0x20\n        /* \"#utility.yul\":1967:1976   */\n      dup3\n        /* \"#utility.yul\":1963:1981   */\n      add\n        /* \"#utility.yul\":1955:1981   */\n      swap1\n      pop\n        /* \"#utility.yul\":1991:2076   */\n      tag_70\n        /* \"#utility.yul\":2073:2074   */\n      0x00\n        /* \"#utility.yul\":2062:2071   */\n      dup4\n        /* \"#utility.yul\":2058:2075   */\n      add\n        /* \"#utility.yul\":2049:2055   */\n      dup5\n        /* \"#utility.yul\":1991:2076   */\n      tag_34\n      jump\t// in\n    tag_70:\n        /* \"#utility.yul\":1833:2083   */\n      swap3\n      swap2\n      pop\n      pop\n      jump\t// out\n        /* \"#utility.yul\":2089:2217   */\n    tag_35:\n        /* \"#utility.yul\":2170:2176   */\n      0x00\n        /* \"#utility.yul\":2204:2209   */\n      dup2\n        /* \"#utility.yul\":2198:2210   */\n      mload\n        /* \"#utility.yul\":2188:2210   */\n      swap1\n      pop\n        /* \"#utility.yul\":2089:2217   */\n      swap2\n      swap1\n      pop\n      jump\t// out\n        /* \"#utility.yul\":2223:2407   */\n    tag_36:\n        /* \"#utility.yul\":2322:2333   */\n      0x00\n        /* \"#utility.yul\":2356:2362   */\n      dup3\n        /* \"#utility.yul\":2351:2354   */\n      dup3\n        /* \"#utility.yul\":2344:2363   */\n      mstore\n        /* \"#utility.yul\":2396:2400   */\n      0x20\n        /* \"#utility.yul\":2391:2394   */\n      dup3\n        /* \"#utility.yul\":2387:2401   */\n      add\n        /* \"#utility.yul\":2372:2401   */\n      swap1\n      pop\n        /* \"#utility.yul\":2223:2407   */\n      swap3\n      swap2\n      pop\n      pop\n      jump\t// out\n        /* \"#utility.yul\":2413:2559   */\n    tag_37:\n        /* \"#utility.yul\":2494:2498   */\n      0x00\n        /* \"#utility.yul\":2517:2520   */\n      dup2\n        /* \"#utility.yul\":2509:2520   */\n      swap1\n      pop\n        /* \"#utility.yul\":2547:2551   */\n      0x20\n        /* \"#utility.yul\":2542:2545   */\n      dup3\n        /* \"#utility.yul\":2538:2552   */\n      add\n        /* \"#utility.yul\":2530:2552   */\n      swap1\n      pop\n        /* \"#utility.yul\":2413:2559   */\n      swap2\n      swap1\n      pop\n      jump\t// out\n        /* \"#utility.yul\":2565:2714   */\n    tag_38:\n        /* \"#utility.yul\":2656:2707   */\n      tag_75\n        /* \"#utility.yul\":2701:2706   */\n      dup2\n        /* \"#utility.yul\":2656:2707   */\n      tag_33\n      jump\t// in\n    tag_75:\n        /* \"#utility.yul\":2651:2654   */\n      dup3\n        /* \"#utility.yul\":2644:2708   */\n      mstore\n        /* \"#utility.yul\":2565:2714   */\n      pop\n      pop\n      jump\t// out\n        /* \"#utility.yul\":2720:2927   */\n    tag_39:\n        /* \"#utility.yul\":2803:2813   */\n      0x00\n        /* \"#utility.yul\":2824:2884   */\n      tag_77\n        /* \"#utility.yul\":2880:2883   */\n      dup4\n        /* \"#utility.yul\":2872:2878   */\n      dup4\n        /* \"#utility.yul\":2824:2884   */\n      tag_38\n      jump\t// in\n    tag_77:\n        /* \"#utility.yul\":2916:2920   */\n      0x20\n        /* \"#utility.yul\":2911:2914   */\n      dup4\n        /* \"#utility.yul\":2907:2921   */\n      add\n        /* \"#utility.yul\":2893:2921   */\n      swap1\n      pop\n        /* \"#utility.yul\":2720:2927   */\n      swap3\n      swap2\n      pop\n      pop\n      jump\t// out\n        /* \"#utility.yul\":2933:3060   */\n    tag_40:\n        /* \"#utility.yul\":3017:3021   */\n      0x00\n        /* \"#utility.yul\":3049:3053   */\n      0x20\n        /* \"#utility.yul\":3044:3047   */\n      dup3\n        /* \"#utility.yul\":3040:3054   */\n      add\n        /* \"#utility.yul\":3032:3054   */\n      swap1\n      pop\n        /* \"#utility.yul\":2933:3060   */\n      swap2\n      swap1\n      pop\n      jump\t// out\n        /* \"#utility.yul\":3105:3907   */\n    tag_41:\n        /* \"#utility.yul\":3238:3241   */\n      0x00\n        /* \"#utility.yul\":3267:3335   */\n      tag_80\n        /* \"#utility.yul\":3329:3334   */\n      dup3\n        /* \"#utility.yul\":3267:3335   */\n      tag_35\n      jump\t// in\n    tag_80:\n        /* \"#utility.yul\":3351:3437   */\n      tag_81\n        /* \"#utility.yul\":3430:3436   */\n      dup2\n        /* \"#utility.yul\":3425:3428   */\n      dup6\n        /* \"#utility.yul\":3351:3437   */\n      tag_36\n      jump\t// in\n    tag_81:\n        /* \"#utility.yul\":3344:3437   */\n      swap4\n      pop\n        /* \"#utility.yul\":3461:3531   */\n      tag_82\n        /* \"#utility.yul\":3525:3530   */\n      dup4\n        /* \"#utility.yul\":3461:3531   */\n      tag_37\n      jump\t// in\n    tag_82:\n        /* \"#utility.yul\":3554:3561   */\n      dup1\n        /* \"#utility.yul\":3585:3586   */\n      0x00\n        /* \"#utility.yul\":3570:3882   */\n    tag_83:\n        /* \"#utility.yul\":3595:3601   */\n      dup4\n        /* \"#utility.yul\":3592:3593   */\n      dup2\n        /* \"#utility.yul\":3589:3602   */\n      lt\n        /* \"#utility.yul\":3570:3882   */\n      iszero\n      tag_85\n      jumpi\n        /* \"#utility.yul\":3671:3677   */\n      dup2\n        /* \"#utility.yul\":3665:3678   */\n      mload\n        /* \"#utility.yul\":3698:3775   */\n      tag_86\n        /* \"#utility.yul\":3771:3774   */\n      dup9\n        /* \"#utility.yul\":3756:3769   */\n      dup3\n        /* \"#utility.yul\":3698:3775   */\n      tag_39\n      jump\t// in\n    tag_86:\n        /* \"#utility.yul\":3691:3775   */\n      swap8\n      pop\n        /* \"#utility.yul\":3798:3872   */\n      tag_87\n        /* \"#utility.yul\":3865:3871   */\n      dup4\n        /* \"#utility.yul\":3798:3872   */\n      tag_40\n      jump\t// in\n    tag_87:\n        /* \"#utility.yul\":3788:3872   */\n      swap3\n      pop\n        /* \"#utility.yul\":3630:3882   */\n      pop\n        /* \"#utility.yul\":3617:3618   */\n      0x01\n        /* \"#utility.yul\":3614:3615   */\n      dup2\n        /* \"#utility.yul\":3610:3619   */\n      add\n        /* \"#utility.yul\":3605:3619   */\n      swap1\n      pop\n        /* \"#utility.yul\":3570:3882   */\n      jump(tag_83)\n    tag_85:\n        /* \"#utility.yul\":3574:3588   */\n      pop\n        /* \"#utility.yul\":3898:3901   */\n      dup6\n        /* \"#utility.yul\":3891:3901   */\n      swap4\n      pop\n        /* \"#utility.yul\":3243:3907   */\n      pop\n      pop\n      pop\n        /* \"#utility.yul\":3105:3907   */\n      swap3\n      swap2\n      pop\n      pop\n      jump\t// out\n        /* \"#utility.yul\":3913:4314   */\n    tag_14:\n        /* \"#utility.yul\":4070:4074   */\n      0x00\n        /* \"#utility.yul\":4108:4110   */\n      0x20\n        /* \"#utility.yul\":4097:4106   */\n      dup3\n        /* \"#utility.yul\":4093:4111   */\n      add\n        /* \"#utility.yul\":4085:4111   */\n      swap1\n      pop\n        /* \"#utility.yul\":4157:4166   */\n      dup2\n        /* \"#utility.yul\":4151:4155   */\n      dup2\n        /* \"#utility.yul\":4147:4167   */\n      sub\n        /* \"#utility.yul\":4143:4144   */\n      0x00\n        /* \"#utility.yul\":4132:4141   */\n      dup4\n        /* \"#utility.yul\":4128:4145   */\n      add\n        /* \"#utility.yul\":4121:4168   */\n      mstore\n        /* \"#utility.yul\":4185:4307   */\n      tag_89\n        /* \"#utility.yul\":4302:4306   */\n      dup2\n        /* \"#utility.yul\":4293:4299   */\n      dup5\n        /* \"#utility.yul\":4185:4307   */\n      tag_41\n      jump\t// in\n    tag_89:\n        /* \"#utility.yul\":4177:4307   */\n      swap1\n      pop\n        /* \"#utility.yul\":3913:4314   */\n      swap3\n      swap2\n      pop\n      pop\n      jump\t// out\n        /* \"#utility.yul\":4320:4500   */\n    tag_18:\n        /* \"#utility.yul\":4368:4445   */\n      0x4e487b7100000000000000000000000000000000000000000000000000000000\n        /* \"#utility.yul\":4365:4366   */\n      0x00\n        /* \"#utility.yul\":4358:4446   */\n      mstore\n        /* \"#utility.yul\":4465:4469   */\n      0x32\n        /* \"#utility.yul\":4462:4463   */\n      0x04\n        /* \"#utility.yul\":4455:4470   */\n      mstore\n        /* \"#utility.yul\":4489:4493   */\n      0x24\n        /* \"#utility.yul\":4486:4487   */\n      0x00\n        /* \"#utility.yul\":4479:4494   */\n      revert\n\n    auxdata: 0xa2646970667358221220d97e8590e96e2fd47855e7aff57b2b3713415d314c4c6d152faaeb4842805a3e64736f6c634300080d0033\n}\n",
				"bytecode": {
					"linkReferences": {},
					"object": "608060405234801561001057600080fd5b506103ae806100206000396000f3fe608060405234801561001057600080fd5b50600436106100365760003560e01c80634bf28d9e1461003b57806385b6e28e1461006b575b600080fd5b610055600480360381019061005091906101c2565b610089565b604051610062919061024e565b60405180910390f35b6100736100d1565b6040516100809190610327565b60405180910390f35b60008060018154811061009f5761009e610349565b5b9060005260206000200160009054906101000a900473ffffffffffffffffffffffffffffffffffffffff169050919050565b6060600080548060200260200160405190810160405280929190818152602001828054801561015557602002820191906000526020600020905b8160009054906101000a900473ffffffffffffffffffffffffffffffffffffffff1673ffffffffffffffffffffffffffffffffffffffff168152602001906001019080831161010b575b5050505050905090565b600080fd5b600073ffffffffffffffffffffffffffffffffffffffff82169050919050565b600061018f82610164565b9050919050565b61019f81610184565b81146101aa57600080fd5b50565b6000813590506101bc81610196565b92915050565b6000602082840312156101d8576101d761015f565b5b60006101e6848285016101ad565b91505092915050565b6000819050919050565b600061021461020f61020a84610164565b6101ef565b610164565b9050919050565b6000610226826101f9565b9050919050565b60006102388261021b565b9050919050565b6102488161022d565b82525050565b6000602082019050610263600083018461023f565b92915050565b600081519050919050565b600082825260208201905092915050565b6000819050602082019050919050565b61029e8161022d565b82525050565b60006102b08383610295565b60208301905092915050565b6000602082019050919050565b60006102d482610269565b6102de8185610274565b93506102e983610285565b8060005b8381101561031a57815161030188826102a4565b975061030c836102bc565b9250506001810190506102ed565b5085935050505092915050565b6000602082019050818103600083015261034181846102c9565b905092915050565b7f4e487b7100000000000000000000000000000000000000000000000000000000600052603260045260246000fdfea2646970667358221220d97e8590e96e2fd47855e7aff57b2b3713415d314c4c6d152faaeb4842805a3e64736f6c634300080d0033",
					"opcodes": "PUSH1 0x80 PUSH1 0x40 MSTORE CALLVALUE DUP1 ISZERO PUSH2 0x10 JUMPI PUSH1 0x0 DUP1 REVERT JUMPDEST POP PUSH2 0x3AE DUP1 PUSH2 0x20 PUSH1 0x0 CODECOPY PUSH1 0x0 RETURN INVALID PUSH1 0x80 PUSH1 0x40 MSTORE CALLVALUE DUP1 ISZERO PUSH2 0x10 JUMPI PUSH1 0x0 DUP1 REVERT JUMPDEST POP PUSH1 0x4 CALLDATASIZE LT PUSH2 0x36 JUMPI PUSH1 0x0 CALLDATALOAD PUSH1 0xE0 SHR DUP1 PUSH4 0x4BF28D9E EQ PUSH2 0x3B JUMPI DUP1 PUSH4 0x85B6E28E EQ PUSH2 0x6B JUMPI JUMPDEST PUSH1 0x0 DUP1 REVERT JUMPDEST PUSH2 0x55 PUSH1 0x4 DUP1 CALLDATASIZE SUB DUP2 ADD SWAP1 PUSH2 0x50 SWAP2 SWAP1 PUSH2 0x1C2 JUMP JUMPDEST PUSH2 0x89 JUMP JUMPDEST PUSH1 0x40 MLOAD PUSH2 0x62 SWAP2 SWAP1 PUSH2 0x24E JUMP JUMPDEST PUSH1 0x40 MLOAD DUP1 SWAP2 SUB SWAP1 RETURN JUMPDEST PUSH2 0x73 PUSH2 0xD1 JUMP JUMPDEST PUSH1 0x40 MLOAD PUSH2 0x80 SWAP2 SWAP1 PUSH2 0x327 JUMP JUMPDEST PUSH1 0x40 MLOAD DUP1 SWAP2 SUB SWAP1 RETURN JUMPDEST PUSH1 0x0 DUP1 PUSH1 0x1 DUP2 SLOAD DUP2 LT PUSH2 0x9F JUMPI PUSH2 0x9E PUSH2 0x349 JUMP JUMPDEST JUMPDEST SWAP1 PUSH1 0x0 MSTORE PUSH1 0x20 PUSH1 0x0 KECCAK256 ADD PUSH1 0x0 SWAP1 SLOAD SWAP1 PUSH2 0x100 EXP SWAP1 DIV PUSH20 0xFFFFFFFFFFFFFFFFFFFFFFFFFFFFFFFFFFFFFFFF AND SWAP1 POP SWAP2 SWAP1 POP JUMP JUMPDEST PUSH1 0x60 PUSH1 0x0 DUP1 SLOAD DUP1 PUSH1 0x20 MUL PUSH1 0x20 ADD PUSH1 0x40 MLOAD SWAP1 DUP2 ADD PUSH1 0x40 MSTORE DUP1 SWAP3 SWAP2 SWAP1 DUP2 DUP2 MSTORE PUSH1 0x20 ADD DUP3 DUP1 SLOAD DUP1 ISZERO PUSH2 0x155 JUMPI PUSH1 0x20 MUL DUP3 ADD SWAP2 SWAP1 PUSH1 0x0 MSTORE PUSH1 0x20 PUSH1 0x0 KECCAK256 SWAP1 JUMPDEST DUP2 PUSH1 0x0 SWAP1 SLOAD SWAP1 PUSH2 0x100 EXP SWAP1 DIV PUSH20 0xFFFFFFFFFFFFFFFFFFFFFFFFFFFFFFFFFFFFFFFF AND PUSH20 0xFFFFFFFFFFFFFFFFFFFFFFFFFFFFFFFFFFFFFFFF AND DUP2 MSTORE PUSH1 0x20 ADD SWAP1 PUSH1 0x1 ADD SWAP1 DUP1 DUP4 GT PUSH2 0x10B JUMPI JUMPDEST POP POP POP POP POP SWAP1 POP SWAP1 JUMP JUMPDEST PUSH1 0x0 DUP1 REVERT JUMPDEST PUSH1 0x0 PUSH20 0xFFFFFFFFFFFFFFFFFFFFFFFFFFFFFFFFFFFFFFFF DUP3 AND SWAP1 POP SWAP2 SWAP1 POP JUMP JUMPDEST PUSH1 0x0 PUSH2 0x18F DUP3 PUSH2 0x164 JUMP JUMPDEST SWAP1 POP SWAP2 SWAP1 POP JUMP JUMPDEST PUSH2 0x19F DUP2 PUSH2 0x184 JUMP JUMPDEST DUP2 EQ PUSH2 0x1AA JUMPI PUSH1 0x0 DUP1 REVERT JUMPDEST POP JUMP JUMPDEST PUSH1 0x0 DUP2 CALLDATALOAD SWAP1 POP PUSH2 0x1BC DUP2 PUSH2 0x196 JUMP JUMPDEST SWAP3 SWAP2 POP POP JUMP JUMPDEST PUSH1 0x0 PUSH1 0x20 DUP3 DUP5 SUB SLT ISZERO PUSH2 0x1D8 JUMPI PUSH2 0x1D7 PUSH2 0x15F JUMP JUMPDEST JUMPDEST PUSH1 0x0 PUSH2 0x1E6 DUP5 DUP3 DUP6 ADD PUSH2 0x1AD JUMP JUMPDEST SWAP2 POP POP SWAP3 SWAP2 POP POP JUMP JUMPDEST PUSH1 0x0 DUP2 SWAP1 POP SWAP2 SWAP1 POP JUMP JUMPDEST PUSH1 0x0 PUSH2 0x214 PUSH2 0x20F PUSH2 0x20A DUP5 PUSH2 0x164 JUMP JUMPDEST PUSH2 0x1EF JUMP JUMPDEST PUSH2 0x164 JUMP JUMPDEST SWAP1 POP SWAP2 SWAP1 POP JUMP JUMPDEST PUSH1 0x0 PUSH2 0x226 DUP3 PUSH2 0x1F9 JUMP JUMPDEST SWAP1 POP SWAP2 SWAP1 POP JUMP JUMPDEST PUSH1 0x0 PUSH2 0x238 DUP3 PUSH2 0x21B JUMP JUMPDEST SWAP1 POP SWAP2 SWAP1 POP JUMP JUMPDEST PUSH2 0x248 DUP2 PUSH2 0x22D JUMP JUMPDEST DUP3 MSTORE POP POP JUMP JUMPDEST PUSH1 0x0 PUSH1 0x20 DUP3 ADD SWAP1 POP PUSH2 0x263 PUSH1 0x0 DUP4 ADD DUP5 PUSH2 0x23F JUMP JUMPDEST SWAP3 SWAP2 POP POP JUMP JUMPDEST PUSH1 0x0 DUP2 MLOAD SWAP1 POP SWAP2 SWAP1 POP JUMP JUMPDEST PUSH1 0x0 DUP3 DUP3 MSTORE PUSH1 0x20 DUP3 ADD SWAP1 POP SWAP3 SWAP2 POP POP JUMP JUMPDEST PUSH1 0x0 DUP2 SWAP1 POP PUSH1 0x20 DUP3 ADD SWAP1 POP SWAP2 SWAP1 POP JUMP JUMPDEST PUSH2 0x29E DUP2 PUSH2 0x22D JUMP JUMPDEST DUP3 MSTORE POP POP JUMP JUMPDEST PUSH1 0x0 PUSH2 0x2B0 DUP4 DUP4 PUSH2 0x295 JUMP JUMPDEST PUSH1 0x20 DUP4 ADD SWAP1 POP SWAP3 SWAP2 POP POP JUMP JUMPDEST PUSH1 0x0 PUSH1 0x20 DUP3 ADD SWAP1 POP SWAP2 SWAP1 POP JUMP JUMPDEST PUSH1 0x0 PUSH2 0x2D4 DUP3 PUSH2 0x269 JUMP JUMPDEST PUSH2 0x2DE DUP2 DUP6 PUSH2 0x274 JUMP JUMPDEST SWAP4 POP PUSH2 0x2E9 DUP4 PUSH2 0x285 JUMP JUMPDEST DUP1 PUSH1 0x0 JUMPDEST DUP4 DUP2 LT ISZERO PUSH2 0x31A JUMPI DUP2 MLOAD PUSH2 0x301 DUP9 DUP3 PUSH2 0x2A4 JUMP JUMPDEST SWAP8 POP PUSH2 0x30C DUP4 PUSH2 0x2BC JUMP JUMPDEST SWAP3 POP POP PUSH1 0x1 DUP2 ADD SWAP1 POP PUSH2 0x2ED JUMP JUMPDEST POP DUP6 SWAP4 POP POP POP POP SWAP3 SWAP2 POP POP JUMP JUMPDEST PUSH1 0x0 PUSH1 0x20 DUP3 ADD SWAP1 POP DUP2 DUP2 SUB PUSH1 0x0 DUP4 ADD MSTORE PUSH2 0x341 DUP2 DUP5 PUSH2 0x2C9 JUMP JUMPDEST SWAP1 POP SWAP3 SWAP2 POP POP JUMP JUMPDEST PUSH32 0x4E487B7100000000000000000000000000000000000000000000000000000000 PUSH1 0x0 MSTORE PUSH1 0x32 PUSH1 0x4 MSTORE PUSH1 0x24 PUSH1 0x0 REVERT INVALID LOG2 PUSH5 0x6970667358 0x22 SLT KECCAK256 0xD9 PUSH31 0x8590E96E2FD47855E7AFF57B2B3713415D314C4C6D152FAAEB4842805A3E64 PUSH20 0x6F6C634300080D00330000000000000000000000 "
				},
				"gasEstimates": {
					"creation": {
						"codeDepositCost": "188400",
						"executionCost": "232",
						"totalCost": "188632"
					},
					"external": {
						"getProjectByAddressCreator(address)": "infinite",
						"returnAllProjects()": "infinite"
					}
				},
				"methodIdentifiers": {
					"getProjectByAddressCreator(address)": "4bf28d9e",
					"returnAllProjects()": "85b6e28e"
				}
			},
			"storageLayout": {
				"storage": [
					{
						"astId": 7,
						"contract": "contracts/Crowfunding.sol:Crowfunding",
						"label": "projects",
						"offset": 0,
						"slot": "0",
						"type": "t_array(t_contract(Project)76)dyn_storage"
					}
				],
				"types": {
					"t_array(t_contract(Project)76)dyn_storage": {
						"base": "t_contract(Project)76",
						"encoding": "dynamic_array",
						"label": "contract Project[]",
						"numberOfBytes": "32"
					},
					"t_contract(Project)76": {
						"encoding": "inplace",
						"label": "contract Project",
						"numberOfBytes": "20"
					}
				}
			},
			"userdoc": {
				"kind": "user",
				"methods": {},
				"version": 1
			}
		}
	}
}