{
	"contracts/Project.sol": {
		"Project": {
			"abi": [
				{
					"inputs": [],
					"name": "getProjectTitle",
					"outputs": [
						{
							"internalType": "string",
							"name": "",
							"type": "string"
						}
					],
					"stateMutability": "view",
					"type": "function"
				},
				{
					"inputs": [],
					"name": "projectCreator",
					"outputs": [
						{
							"internalType": "address payable",
							"name": "",
							"type": "address"
						}
					],
					"stateMutability": "view",
					"type": "function"
				},
				{
					"inputs": [
						{
							"internalType": "string",
							"name": "_projectTitle",
							"type": "string"
						}
					],
					"name": "setProjectTitle",
					"outputs": [],
					"stateMutability": "nonpayable",
					"type": "function"
				},
				{
					"inputs": [
						{
							"internalType": "string",
							"name": "_projectTitle",
							"type": "string"
						},
						{
							"internalType": "string",
							"name": "_projectDescription",
							"type": "string"
						},
						{
							"internalType": "uint256",
							"name": "_amountGoal",
							"type": "uint256"
						},
						{
							"internalType": "uint256",
							"name": "_nbDays",
							"type": "uint256"
						}
					],
					"name": "startProject",
					"outputs": [],
					"stateMutability": "nonpayable",
					"type": "function"
				}
			],
			"devdoc": {
				"kind": "dev",
				"methods": {},
				"version": 1
			},
			"evm": {
				"assembly": "    /* \"contracts/Project.sol\":62:1031  contract Project {... */\n  mstore(0x40, 0x80)\n  callvalue\n  dup1\n  iszero\n  tag_1\n  jumpi\n  0x00\n  dup1\n  revert\ntag_1:\n  pop\n  dataSize(sub_0)\n  dup1\n  dataOffset(sub_0)\n  0x00\n  codecopy\n  0x00\n  return\nstop\n\nsub_0: assembly {\n        /* \"contracts/Project.sol\":62:1031  contract Project {... */\n      mstore(0x40, 0x80)\n      callvalue\n      dup1\n      iszero\n      tag_1\n      jumpi\n      0x00\n      dup1\n      revert\n    tag_1:\n      pop\n      jumpi(tag_2, lt(calldatasize, 0x04))\n      shr(0xe0, calldataload(0x00))\n      dup1\n      0xa24a2d16\n      eq\n      tag_3\n      jumpi\n      dup1\n      0xa541a2a2\n      eq\n      tag_4\n      jumpi\n      dup1\n      0xa8b93c8d\n      eq\n      tag_5\n      jumpi\n      dup1\n      0xf020cd19\n      eq\n      tag_6\n      jumpi\n    tag_2:\n      0x00\n      dup1\n      revert\n        /* \"contracts/Project.sol\":435:800  function startProject(string memory _projectTitle, string memory _projectDescription, ... */\n    tag_3:\n      tag_7\n      0x04\n      dup1\n      calldatasize\n      sub\n      dup2\n      add\n      swap1\n      tag_8\n      swap2\n      swap1\n      tag_9\n      jump\t// in\n    tag_8:\n      tag_10\n      jump\t// in\n    tag_7:\n      stop\n        /* \"contracts/Project.sol\":166:203  address payable public projectCreator */\n    tag_4:\n      tag_11\n      tag_12\n      jump\t// in\n    tag_11:\n      mload(0x40)\n      tag_13\n      swap2\n      swap1\n      tag_14\n      jump\t// in\n    tag_13:\n      mload(0x40)\n      dup1\n      swap2\n      sub\n      swap1\n      return\n        /* \"contracts/Project.sol\":919:1025  function setProjectTitle(string memory _projectTitle) public {... */\n    tag_5:\n      tag_15\n      0x04\n      dup1\n      calldatasize\n      sub\n      dup2\n      add\n      swap1\n      tag_16\n      swap2\n      swap1\n      tag_17\n      jump\t// in\n    tag_16:\n      tag_18\n      jump\t// in\n    tag_15:\n      stop\n        /* \"contracts/Project.sol\":811:909  function getProjectTitle() public view returns(string memory) {... */\n    tag_6:\n      tag_19\n      tag_20\n      jump\t// in\n    tag_19:\n      mload(0x40)\n      tag_21\n      swap2\n      swap1\n      tag_22\n      jump\t// in\n    tag_21:\n      mload(0x40)\n      dup1\n      swap2\n      sub\n      swap1\n      return\n        /* \"contracts/Project.sol\":435:800  function startProject(string memory _projectTitle, string memory _projectDescription, ... */\n    tag_10:\n        /* \"contracts/Project.sol\":614:624  msg.sender */\n      caller\n        /* \"contracts/Project.sol\":589:603  projectCreator */\n      0x00\n      dup1\n        /* \"contracts/Project.sol\":589:625  projectCreator = payable(msg.sender) */\n      0x0100\n      exp\n      dup2\n      sload\n      dup2\n      0xffffffffffffffffffffffffffffffffffffffff\n      mul\n      not\n      and\n      swap1\n      dup4\n      0xffffffffffffffffffffffffffffffffffffffff\n      and\n      mul\n      or\n      swap1\n      sstore\n      pop\n        /* \"contracts/Project.sol\":654:667  _projectTitle */\n      dup4\n        /* \"contracts/Project.sol\":639:651  projectTitle */\n      0x01\n        /* \"contracts/Project.sol\":639:667  projectTitle = _projectTitle */\n      swap1\n      dup1\n      mload\n      swap1\n      0x20\n      add\n      swap1\n      tag_24\n      swap3\n      swap2\n      swap1\n      tag_25\n      jump\t// in\n    tag_24:\n      pop\n        /* \"contracts/Project.sol\":702:721  _projectDescription */\n      dup3\n        /* \"contracts/Project.sol\":681:699  projectDescription */\n      0x02\n        /* \"contracts/Project.sol\":681:721  projectDescription = _projectDescription */\n      swap1\n      dup1\n      mload\n      swap1\n      0x20\n      add\n      swap1\n      tag_26\n      swap3\n      swap2\n      swap1\n      tag_25\n      jump\t// in\n    tag_26:\n      pop\n        /* \"contracts/Project.sol\":748:759  _amountGoal */\n      dup2\n        /* \"contracts/Project.sol\":735:745  amountGoal */\n      0x03\n        /* \"contracts/Project.sol\":735:759  amountGoal = _amountGoal */\n      dup2\n      swap1\n      sstore\n      pop\n        /* \"contracts/Project.sol\":782:789  _nbDays */\n      dup1\n        /* \"contracts/Project.sol\":773:779  nbDays */\n      0x06\n        /* \"contracts/Project.sol\":773:789  nbDays = _nbDays */\n      dup2\n      swap1\n      sstore\n      pop\n        /* \"contracts/Project.sol\":435:800  function startProject(string memory _projectTitle, string memory _projectDescription, ... */\n      pop\n      pop\n      pop\n      pop\n      jump\t// out\n        /* \"contracts/Project.sol\":166:203  address payable public projectCreator */\n    tag_12:\n      0x00\n      dup1\n      sload\n      swap1\n      0x0100\n      exp\n      swap1\n      div\n      0xffffffffffffffffffffffffffffffffffffffff\n      and\n      dup2\n      jump\t// out\n        /* \"contracts/Project.sol\":919:1025  function setProjectTitle(string memory _projectTitle) public {... */\n    tag_18:\n        /* \"contracts/Project.sol\":1005:1018  _projectTitle */\n      dup1\n        /* \"contracts/Project.sol\":990:1002  projectTitle */\n      0x01\n        /* \"contracts/Project.sol\":990:1018  projectTitle = _projectTitle */\n      swap1\n      dup1\n      mload\n      swap1\n      0x20\n      add\n      swap1\n      tag_28\n      swap3\n      swap2\n      swap1\n      tag_25\n      jump\t// in\n    tag_28:\n      pop\n        /* \"contracts/Project.sol\":919:1025  function setProjectTitle(string memory _projectTitle) public {... */\n      pop\n      jump\t// out\n        /* \"contracts/Project.sol\":811:909  function getProjectTitle() public view returns(string memory) {... */\n    tag_20:\n        /* \"contracts/Project.sol\":858:871  string memory */\n      0x60\n        /* \"contracts/Project.sol\":890:902  projectTitle */\n      0x01\n        /* \"contracts/Project.sol\":883:902  return projectTitle */\n      dup1\n      sload\n      tag_30\n      swap1\n      tag_31\n      jump\t// in\n    tag_30:\n      dup1\n      0x1f\n      add\n      0x20\n      dup1\n      swap2\n      div\n      mul\n      0x20\n      add\n      mload(0x40)\n      swap1\n      dup2\n      add\n      0x40\n      mstore\n      dup1\n      swap3\n      swap2\n      swap1\n      dup2\n      dup2\n      mstore\n      0x20\n      add\n      dup3\n      dup1\n      sload\n      tag_32\n      swap1\n      tag_31\n      jump\t// in\n    tag_32:\n      dup1\n      iszero\n      tag_33\n      jumpi\n      dup1\n      0x1f\n      lt\n      tag_34\n      jumpi\n      0x0100\n      dup1\n      dup4\n      sload\n      div\n      mul\n      dup4\n      mstore\n      swap2\n      0x20\n      add\n      swap2\n      jump(tag_33)\n    tag_34:\n      dup3\n      add\n      swap2\n      swap1\n      0x00\n      mstore\n      keccak256(0x00, 0x20)\n      swap1\n    tag_35:\n      dup2\n      sload\n      dup2\n      mstore\n      swap1\n      0x01\n      add\n      swap1\n      0x20\n      add\n      dup1\n      dup4\n      gt\n      tag_35\n      jumpi\n      dup3\n      swap1\n      sub\n      0x1f\n      and\n      dup3\n      add\n      swap2\n    tag_33:\n      pop\n      pop\n      pop\n      pop\n      pop\n      swap1\n      pop\n        /* \"contracts/Project.sol\":811:909  function getProjectTitle() public view returns(string memory) {... */\n      swap1\n      jump\t// out\n    tag_25:\n      dup3\n      dup1\n      sload\n      tag_36\n      swap1\n      tag_31\n      jump\t// in\n    tag_36:\n      swap1\n      0x00\n      mstore\n      keccak256(0x00, 0x20)\n      swap1\n      0x1f\n      add\n      0x20\n      swap1\n      div\n      dup2\n      add\n      swap3\n      dup3\n      tag_38\n      jumpi\n      0x00\n      dup6\n      sstore\n      jump(tag_37)\n    tag_38:\n      dup3\n      0x1f\n      lt\n      tag_39\n      jumpi\n      dup1\n      mload\n      not(0xff)\n      and\n      dup4\n      dup1\n      add\n      or\n      dup6\n      sstore\n      jump(tag_37)\n    tag_39:\n      dup3\n      dup1\n      add\n      0x01\n      add\n      dup6\n      sstore\n      dup3\n      iszero\n      tag_37\n      jumpi\n      swap2\n      dup3\n      add\n    tag_40:\n      dup3\n      dup2\n      gt\n      iszero\n      tag_41\n      jumpi\n      dup3\n      mload\n      dup3\n      sstore\n      swap2\n      0x20\n      add\n      swap2\n      swap1\n      0x01\n      add\n      swap1\n      jump(tag_40)\n    tag_41:\n    tag_37:\n      pop\n      swap1\n      pop\n      tag_42\n      swap2\n      swap1\n      tag_43\n      jump\t// in\n    tag_42:\n      pop\n      swap1\n      jump\t// out\n    tag_43:\n    tag_44:\n      dup1\n      dup3\n      gt\n      iszero\n      tag_45\n      jumpi\n      0x00\n      dup2\n      0x00\n      swap1\n      sstore\n      pop\n      0x01\n      add\n      jump(tag_44)\n    tag_45:\n      pop\n      swap1\n      jump\t// out\n        /* \"#utility.yul\":7:82   */\n    tag_46:\n        /* \"#utility.yul\":40:46   */\n      0x00\n        /* \"#utility.yul\":73:75   */\n      0x40\n        /* \"#utility.yul\":67:76   */\n      mload\n        /* \"#utility.yul\":57:76   */\n      swap1\n      pop\n        /* \"#utility.yul\":7:82   */\n      swap1\n      jump\t// out\n        /* \"#utility.yul\":88:205   */\n    tag_47:\n        /* \"#utility.yul\":197:198   */\n      0x00\n        /* \"#utility.yul\":194:195   */\n      dup1\n        /* \"#utility.yul\":187:199   */\n      revert\n        /* \"#utility.yul\":211:328   */\n    tag_48:\n        /* \"#utility.yul\":320:321   */\n      0x00\n        /* \"#utility.yul\":317:318   */\n      dup1\n        /* \"#utility.yul\":310:322   */\n      revert\n        /* \"#utility.yul\":334:451   */\n    tag_49:\n        /* \"#utility.yul\":443:444   */\n      0x00\n        /* \"#utility.yul\":440:441   */\n      dup1\n        /* \"#utility.yul\":433:445   */\n      revert\n        /* \"#utility.yul\":457:574   */\n    tag_50:\n        /* \"#utility.yul\":566:567   */\n      0x00\n        /* \"#utility.yul\":563:564   */\n      dup1\n        /* \"#utility.yul\":556:568   */\n      revert\n        /* \"#utility.yul\":580:682   */\n    tag_51:\n        /* \"#utility.yul\":621:627   */\n      0x00\n        /* \"#utility.yul\":672:674   */\n      0x1f\n        /* \"#utility.yul\":668:675   */\n      not\n        /* \"#utility.yul\":663:665   */\n      0x1f\n        /* \"#utility.yul\":656:661   */\n      dup4\n        /* \"#utility.yul\":652:666   */\n      add\n        /* \"#utility.yul\":648:676   */\n      and\n        /* \"#utility.yul\":638:676   */\n      swap1\n      pop\n        /* \"#utility.yul\":580:682   */\n      swap2\n      swap1\n      pop\n      jump\t// out\n        /* \"#utility.yul\":688:868   */\n    tag_52:\n        /* \"#utility.yul\":736:813   */\n      0x4e487b7100000000000000000000000000000000000000000000000000000000\n        /* \"#utility.yul\":733:734   */\n      0x00\n        /* \"#utility.yul\":726:814   */\n      mstore\n        /* \"#utility.yul\":833:837   */\n      0x41\n        /* \"#utility.yul\":830:831   */\n      0x04\n        /* \"#utility.yul\":823:838   */\n      mstore\n        /* \"#utility.yul\":857:861   */\n      0x24\n        /* \"#utility.yul\":854:855   */\n      0x00\n        /* \"#utility.yul\":847:862   */\n      revert\n        /* \"#utility.yul\":874:1155   */\n    tag_53:\n        /* \"#utility.yul\":957:984   */\n      tag_79\n        /* \"#utility.yul\":979:983   */\n      dup3\n        /* \"#utility.yul\":957:984   */\n      tag_51\n      jump\t// in\n    tag_79:\n        /* \"#utility.yul\":949:955   */\n      dup2\n        /* \"#utility.yul\":945:985   */\n      add\n        /* \"#utility.yul\":1087:1093   */\n      dup2\n        /* \"#utility.yul\":1075:1085   */\n      dup2\n        /* \"#utility.yul\":1072:1094   */\n      lt\n        /* \"#utility.yul\":1051:1069   */\n      0xffffffffffffffff\n        /* \"#utility.yul\":1039:1049   */\n      dup3\n        /* \"#utility.yul\":1036:1070   */\n      gt\n        /* \"#utility.yul\":1033:1095   */\n      or\n        /* \"#utility.yul\":1030:1118   */\n      iszero\n      tag_80\n      jumpi\n        /* \"#utility.yul\":1098:1116   */\n      tag_81\n      tag_52\n      jump\t// in\n    tag_81:\n        /* \"#utility.yul\":1030:1118   */\n    tag_80:\n        /* \"#utility.yul\":1138:1148   */\n      dup1\n        /* \"#utility.yul\":1134:1136   */\n      0x40\n        /* \"#utility.yul\":1127:1149   */\n      mstore\n        /* \"#utility.yul\":917:1155   */\n      pop\n        /* \"#utility.yul\":874:1155   */\n      pop\n      pop\n      jump\t// out\n        /* \"#utility.yul\":1161:1290   */\n    tag_54:\n        /* \"#utility.yul\":1195:1201   */\n      0x00\n        /* \"#utility.yul\":1222:1242   */\n      tag_83\n      tag_46\n      jump\t// in\n    tag_83:\n        /* \"#utility.yul\":1212:1242   */\n      swap1\n      pop\n        /* \"#utility.yul\":1251:1284   */\n      tag_84\n        /* \"#utility.yul\":1279:1283   */\n      dup3\n        /* \"#utility.yul\":1271:1277   */\n      dup3\n        /* \"#utility.yul\":1251:1284   */\n      tag_53\n      jump\t// in\n    tag_84:\n        /* \"#utility.yul\":1161:1290   */\n      swap2\n      swap1\n      pop\n      jump\t// out\n        /* \"#utility.yul\":1296:1604   */\n    tag_55:\n        /* \"#utility.yul\":1358:1362   */\n      0x00\n        /* \"#utility.yul\":1448:1466   */\n      0xffffffffffffffff\n        /* \"#utility.yul\":1440:1446   */\n      dup3\n        /* \"#utility.yul\":1437:1467   */\n      gt\n        /* \"#utility.yul\":1434:1490   */\n      iszero\n      tag_86\n      jumpi\n        /* \"#utility.yul\":1470:1488   */\n      tag_87\n      tag_52\n      jump\t// in\n    tag_87:\n        /* \"#utility.yul\":1434:1490   */\n    tag_86:\n        /* \"#utility.yul\":1508:1537   */\n      tag_88\n        /* \"#utility.yul\":1530:1536   */\n      dup3\n        /* \"#utility.yul\":1508:1537   */\n      tag_51\n      jump\t// in\n    tag_88:\n        /* \"#utility.yul\":1500:1537   */\n      swap1\n      pop\n        /* \"#utility.yul\":1592:1596   */\n      0x20\n        /* \"#utility.yul\":1586:1590   */\n      dup2\n        /* \"#utility.yul\":1582:1597   */\n      add\n        /* \"#utility.yul\":1574:1597   */\n      swap1\n      pop\n        /* \"#utility.yul\":1296:1604   */\n      swap2\n      swap1\n      pop\n      jump\t// out\n        /* \"#utility.yul\":1610:1764   */\n    tag_56:\n        /* \"#utility.yul\":1694:1700   */\n      dup3\n        /* \"#utility.yul\":1689:1692   */\n      dup2\n        /* \"#utility.yul\":1684:1687   */\n      dup4\n        /* \"#utility.yul\":1671:1701   */\n      calldatacopy\n        /* \"#utility.yul\":1756:1757   */\n      0x00\n        /* \"#utility.yul\":1747:1753   */\n      dup4\n        /* \"#utility.yul\":1742:1745   */\n      dup4\n        /* \"#utility.yul\":1738:1754   */\n      add\n        /* \"#utility.yul\":1731:1758   */\n      mstore\n        /* \"#utility.yul\":1610:1764   */\n      pop\n      pop\n      pop\n      jump\t// out\n        /* \"#utility.yul\":1770:2182   */\n    tag_57:\n        /* \"#utility.yul\":1848:1853   */\n      0x00\n        /* \"#utility.yul\":1873:1939   */\n      tag_91\n        /* \"#utility.yul\":1889:1938   */\n      tag_92\n        /* \"#utility.yul\":1931:1937   */\n      dup5\n        /* \"#utility.yul\":1889:1938   */\n      tag_55\n      jump\t// in\n    tag_92:\n        /* \"#utility.yul\":1873:1939   */\n      tag_54\n      jump\t// in\n    tag_91:\n        /* \"#utility.yul\":1864:1939   */\n      swap1\n      pop\n        /* \"#utility.yul\":1962:1968   */\n      dup3\n        /* \"#utility.yul\":1955:1960   */\n      dup2\n        /* \"#utility.yul\":1948:1969   */\n      mstore\n        /* \"#utility.yul\":2000:2004   */\n      0x20\n        /* \"#utility.yul\":1993:1998   */\n      dup2\n        /* \"#utility.yul\":1989:2005   */\n      add\n        /* \"#utility.yul\":2038:2041   */\n      dup5\n        /* \"#utility.yul\":2029:2035   */\n      dup5\n        /* \"#utility.yul\":2024:2027   */\n      dup5\n        /* \"#utility.yul\":2020:2036   */\n      add\n        /* \"#utility.yul\":2017:2042   */\n      gt\n        /* \"#utility.yul\":2014:2126   */\n      iszero\n      tag_93\n      jumpi\n        /* \"#utility.yul\":2045:2124   */\n      tag_94\n      tag_50\n      jump\t// in\n    tag_94:\n        /* \"#utility.yul\":2014:2126   */\n    tag_93:\n        /* \"#utility.yul\":2135:2176   */\n      tag_95\n        /* \"#utility.yul\":2169:2175   */\n      dup5\n        /* \"#utility.yul\":2164:2167   */\n      dup3\n        /* \"#utility.yul\":2159:2162   */\n      dup6\n        /* \"#utility.yul\":2135:2176   */\n      tag_56\n      jump\t// in\n    tag_95:\n        /* \"#utility.yul\":1854:2182   */\n      pop\n        /* \"#utility.yul\":1770:2182   */\n      swap4\n      swap3\n      pop\n      pop\n      pop\n      jump\t// out\n        /* \"#utility.yul\":2202:2542   */\n    tag_58:\n        /* \"#utility.yul\":2258:2263   */\n      0x00\n        /* \"#utility.yul\":2307:2310   */\n      dup3\n        /* \"#utility.yul\":2300:2304   */\n      0x1f\n        /* \"#utility.yul\":2292:2298   */\n      dup4\n        /* \"#utility.yul\":2288:2305   */\n      add\n        /* \"#utility.yul\":2284:2311   */\n      slt\n        /* \"#utility.yul\":2274:2396   */\n      tag_97\n      jumpi\n        /* \"#utility.yul\":2315:2394   */\n      tag_98\n      tag_49\n      jump\t// in\n    tag_98:\n        /* \"#utility.yul\":2274:2396   */\n    tag_97:\n        /* \"#utility.yul\":2432:2438   */\n      dup2\n        /* \"#utility.yul\":2419:2439   */\n      calldataload\n        /* \"#utility.yul\":2457:2536   */\n      tag_99\n        /* \"#utility.yul\":2532:2535   */\n      dup5\n        /* \"#utility.yul\":2524:2530   */\n      dup3\n        /* \"#utility.yul\":2517:2521   */\n      0x20\n        /* \"#utility.yul\":2509:2515   */\n      dup7\n        /* \"#utility.yul\":2505:2522   */\n      add\n        /* \"#utility.yul\":2457:2536   */\n      tag_57\n      jump\t// in\n    tag_99:\n        /* \"#utility.yul\":2448:2536   */\n      swap2\n      pop\n        /* \"#utility.yul\":2264:2542   */\n      pop\n        /* \"#utility.yul\":2202:2542   */\n      swap3\n      swap2\n      pop\n      pop\n      jump\t// out\n        /* \"#utility.yul\":2548:2625   */\n    tag_59:\n        /* \"#utility.yul\":2585:2592   */\n      0x00\n        /* \"#utility.yul\":2614:2619   */\n      dup2\n        /* \"#utility.yul\":2603:2619   */\n      swap1\n      pop\n        /* \"#utility.yul\":2548:2625   */\n      swap2\n      swap1\n      pop\n      jump\t// out\n        /* \"#utility.yul\":2631:2753   */\n    tag_60:\n        /* \"#utility.yul\":2704:2728   */\n      tag_102\n        /* \"#utility.yul\":2722:2727   */\n      dup2\n        /* \"#utility.yul\":2704:2728   */\n      tag_59\n      jump\t// in\n    tag_102:\n        /* \"#utility.yul\":2697:2702   */\n      dup2\n        /* \"#utility.yul\":2694:2729   */\n      eq\n        /* \"#utility.yul\":2684:2747   */\n      tag_103\n      jumpi\n        /* \"#utility.yul\":2743:2744   */\n      0x00\n        /* \"#utility.yul\":2740:2741   */\n      dup1\n        /* \"#utility.yul\":2733:2745   */\n      revert\n        /* \"#utility.yul\":2684:2747   */\n    tag_103:\n        /* \"#utility.yul\":2631:2753   */\n      pop\n      jump\t// out\n        /* \"#utility.yul\":2759:2898   */\n    tag_61:\n        /* \"#utility.yul\":2805:2810   */\n      0x00\n        /* \"#utility.yul\":2843:2849   */\n      dup2\n        /* \"#utility.yul\":2830:2850   */\n      calldataload\n        /* \"#utility.yul\":2821:2850   */\n      swap1\n      pop\n        /* \"#utility.yul\":2859:2892   */\n      tag_105\n        /* \"#utility.yul\":2886:2891   */\n      dup2\n        /* \"#utility.yul\":2859:2892   */\n      tag_60\n      jump\t// in\n    tag_105:\n        /* \"#utility.yul\":2759:2898   */\n      swap3\n      swap2\n      pop\n      pop\n      jump\t// out\n        /* \"#utility.yul\":2904:4029   */\n    tag_9:\n        /* \"#utility.yul\":3010:3016   */\n      0x00\n        /* \"#utility.yul\":3018:3024   */\n      dup1\n        /* \"#utility.yul\":3026:3032   */\n      0x00\n        /* \"#utility.yul\":3034:3040   */\n      dup1\n        /* \"#utility.yul\":3083:3086   */\n      0x80\n        /* \"#utility.yul\":3071:3080   */\n      dup6\n        /* \"#utility.yul\":3062:3069   */\n      dup8\n        /* \"#utility.yul\":3058:3081   */\n      sub\n        /* \"#utility.yul\":3054:3087   */\n      slt\n        /* \"#utility.yul\":3051:3171   */\n      iszero\n      tag_107\n      jumpi\n        /* \"#utility.yul\":3090:3169   */\n      tag_108\n      tag_47\n      jump\t// in\n    tag_108:\n        /* \"#utility.yul\":3051:3171   */\n    tag_107:\n        /* \"#utility.yul\":3238:3239   */\n      0x00\n        /* \"#utility.yul\":3227:3236   */\n      dup6\n        /* \"#utility.yul\":3223:3240   */\n      add\n        /* \"#utility.yul\":3210:3241   */\n      calldataload\n        /* \"#utility.yul\":3268:3286   */\n      0xffffffffffffffff\n        /* \"#utility.yul\":3260:3266   */\n      dup2\n        /* \"#utility.yul\":3257:3287   */\n      gt\n        /* \"#utility.yul\":3254:3371   */\n      iszero\n      tag_109\n      jumpi\n        /* \"#utility.yul\":3290:3369   */\n      tag_110\n      tag_48\n      jump\t// in\n    tag_110:\n        /* \"#utility.yul\":3254:3371   */\n    tag_109:\n        /* \"#utility.yul\":3395:3458   */\n      tag_111\n        /* \"#utility.yul\":3450:3457   */\n      dup8\n        /* \"#utility.yul\":3441:3447   */\n      dup3\n        /* \"#utility.yul\":3430:3439   */\n      dup9\n        /* \"#utility.yul\":3426:3448   */\n      add\n        /* \"#utility.yul\":3395:3458   */\n      tag_58\n      jump\t// in\n    tag_111:\n        /* \"#utility.yul\":3385:3458   */\n      swap5\n      pop\n        /* \"#utility.yul\":3181:3468   */\n      pop\n        /* \"#utility.yul\":3535:3537   */\n      0x20\n        /* \"#utility.yul\":3524:3533   */\n      dup6\n        /* \"#utility.yul\":3520:3538   */\n      add\n        /* \"#utility.yul\":3507:3539   */\n      calldataload\n        /* \"#utility.yul\":3566:3584   */\n      0xffffffffffffffff\n        /* \"#utility.yul\":3558:3564   */\n      dup2\n        /* \"#utility.yul\":3555:3585   */\n      gt\n        /* \"#utility.yul\":3552:3669   */\n      iszero\n      tag_112\n      jumpi\n        /* \"#utility.yul\":3588:3667   */\n      tag_113\n      tag_48\n      jump\t// in\n    tag_113:\n        /* \"#utility.yul\":3552:3669   */\n    tag_112:\n        /* \"#utility.yul\":3693:3756   */\n      tag_114\n        /* \"#utility.yul\":3748:3755   */\n      dup8\n        /* \"#utility.yul\":3739:3745   */\n      dup3\n        /* \"#utility.yul\":3728:3737   */\n      dup9\n        /* \"#utility.yul\":3724:3746   */\n      add\n        /* \"#utility.yul\":3693:3756   */\n      tag_58\n      jump\t// in\n    tag_114:\n        /* \"#utility.yul\":3683:3756   */\n      swap4\n      pop\n        /* \"#utility.yul\":3478:3766   */\n      pop\n        /* \"#utility.yul\":3805:3807   */\n      0x40\n        /* \"#utility.yul\":3831:3884   */\n      tag_115\n        /* \"#utility.yul\":3876:3883   */\n      dup8\n        /* \"#utility.yul\":3867:3873   */\n      dup3\n        /* \"#utility.yul\":3856:3865   */\n      dup9\n        /* \"#utility.yul\":3852:3874   */\n      add\n        /* \"#utility.yul\":3831:3884   */\n      tag_61\n      jump\t// in\n    tag_115:\n        /* \"#utility.yul\":3821:3884   */\n      swap3\n      pop\n        /* \"#utility.yul\":3776:3894   */\n      pop\n        /* \"#utility.yul\":3933:3935   */\n      0x60\n        /* \"#utility.yul\":3959:4012   */\n      tag_116\n        /* \"#utility.yul\":4004:4011   */\n      dup8\n        /* \"#utility.yul\":3995:4001   */\n      dup3\n        /* \"#utility.yul\":3984:3993   */\n      dup9\n        /* \"#utility.yul\":3980:4002   */\n      add\n        /* \"#utility.yul\":3959:4012   */\n      tag_61\n      jump\t// in\n    tag_116:\n        /* \"#utility.yul\":3949:4012   */\n      swap2\n      pop\n        /* \"#utility.yul\":3904:4022   */\n      pop\n        /* \"#utility.yul\":2904:4029   */\n      swap3\n      swap6\n      swap2\n      swap5\n      pop\n      swap3\n      pop\n      jump\t// out\n        /* \"#utility.yul\":4035:4161   */\n    tag_62:\n        /* \"#utility.yul\":4072:4079   */\n      0x00\n        /* \"#utility.yul\":4112:4154   */\n      0xffffffffffffffffffffffffffffffffffffffff\n        /* \"#utility.yul\":4105:4110   */\n      dup3\n        /* \"#utility.yul\":4101:4155   */\n      and\n        /* \"#utility.yul\":4090:4155   */\n      swap1\n      pop\n        /* \"#utility.yul\":4035:4161   */\n      swap2\n      swap1\n      pop\n      jump\t// out\n        /* \"#utility.yul\":4167:4271   */\n    tag_63:\n        /* \"#utility.yul\":4212:4219   */\n      0x00\n        /* \"#utility.yul\":4241:4265   */\n      tag_119\n        /* \"#utility.yul\":4259:4264   */\n      dup3\n        /* \"#utility.yul\":4241:4265   */\n      tag_62\n      jump\t// in\n    tag_119:\n        /* \"#utility.yul\":4230:4265   */\n      swap1\n      pop\n        /* \"#utility.yul\":4167:4271   */\n      swap2\n      swap1\n      pop\n      jump\t// out\n        /* \"#utility.yul\":4277:4419   */\n    tag_64:\n        /* \"#utility.yul\":4380:4412   */\n      tag_121\n        /* \"#utility.yul\":4406:4411   */\n      dup2\n        /* \"#utility.yul\":4380:4412   */\n      tag_63\n      jump\t// in\n    tag_121:\n        /* \"#utility.yul\":4375:4378   */\n      dup3\n        /* \"#utility.yul\":4368:4413   */\n      mstore\n        /* \"#utility.yul\":4277:4419   */\n      pop\n      pop\n      jump\t// out\n        /* \"#utility.yul\":4425:4679   */\n    tag_14:\n        /* \"#utility.yul\":4534:4538   */\n      0x00\n        /* \"#utility.yul\":4572:4574   */\n      0x20\n        /* \"#utility.yul\":4561:4570   */\n      dup3\n        /* \"#utility.yul\":4557:4575   */\n      add\n        /* \"#utility.yul\":4549:4575   */\n      swap1\n      pop\n        /* \"#utility.yul\":4585:4672   */\n      tag_123\n        /* \"#utility.yul\":4669:4670   */\n      0x00\n        /* \"#utility.yul\":4658:4667   */\n      dup4\n        /* \"#utility.yul\":4654:4671   */\n      add\n        /* \"#utility.yul\":4645:4651   */\n      dup5\n        /* \"#utility.yul\":4585:4672   */\n      tag_64\n      jump\t// in\n    tag_123:\n        /* \"#utility.yul\":4425:4679   */\n      swap3\n      swap2\n      pop\n      pop\n      jump\t// out\n        /* \"#utility.yul\":4685:5194   */\n    tag_17:\n        /* \"#utility.yul\":4754:4760   */\n      0x00\n        /* \"#utility.yul\":4803:4805   */\n      0x20\n        /* \"#utility.yul\":4791:4800   */\n      dup3\n        /* \"#utility.yul\":4782:4789   */\n      dup5\n        /* \"#utility.yul\":4778:4801   */\n      sub\n        /* \"#utility.yul\":4774:4806   */\n      slt\n        /* \"#utility.yul\":4771:4890   */\n      iszero\n      tag_125\n      jumpi\n        /* \"#utility.yul\":4809:4888   */\n      tag_126\n      tag_47\n      jump\t// in\n    tag_126:\n        /* \"#utility.yul\":4771:4890   */\n    tag_125:\n        /* \"#utility.yul\":4957:4958   */\n      0x00\n        /* \"#utility.yul\":4946:4955   */\n      dup3\n        /* \"#utility.yul\":4942:4959   */\n      add\n        /* \"#utility.yul\":4929:4960   */\n      calldataload\n        /* \"#utility.yul\":4987:5005   */\n      0xffffffffffffffff\n        /* \"#utility.yul\":4979:4985   */\n      dup2\n        /* \"#utility.yul\":4976:5006   */\n      gt\n        /* \"#utility.yul\":4973:5090   */\n      iszero\n      tag_127\n      jumpi\n        /* \"#utility.yul\":5009:5088   */\n      tag_128\n      tag_48\n      jump\t// in\n    tag_128:\n        /* \"#utility.yul\":4973:5090   */\n    tag_127:\n        /* \"#utility.yul\":5114:5177   */\n      tag_129\n        /* \"#utility.yul\":5169:5176   */\n      dup5\n        /* \"#utility.yul\":5160:5166   */\n      dup3\n        /* \"#utility.yul\":5149:5158   */\n      dup6\n        /* \"#utility.yul\":5145:5167   */\n      add\n        /* \"#utility.yul\":5114:5177   */\n      tag_58\n      jump\t// in\n    tag_129:\n        /* \"#utility.yul\":5104:5177   */\n      swap2\n      pop\n        /* \"#utility.yul\":4900:5187   */\n      pop\n        /* \"#utility.yul\":4685:5194   */\n      swap3\n      swap2\n      pop\n      pop\n      jump\t// out\n        /* \"#utility.yul\":5200:5299   */\n    tag_65:\n        /* \"#utility.yul\":5252:5258   */\n      0x00\n        /* \"#utility.yul\":5286:5291   */\n      dup2\n        /* \"#utility.yul\":5280:5292   */\n      mload\n        /* \"#utility.yul\":5270:5292   */\n      swap1\n      pop\n        /* \"#utility.yul\":5200:5299   */\n      swap2\n      swap1\n      pop\n      jump\t// out\n        /* \"#utility.yul\":5305:5474   */\n    tag_66:\n        /* \"#utility.yul\":5389:5400   */\n      0x00\n        /* \"#utility.yul\":5423:5429   */\n      dup3\n        /* \"#utility.yul\":5418:5421   */\n      dup3\n        /* \"#utility.yul\":5411:5430   */\n      mstore\n        /* \"#utility.yul\":5463:5467   */\n      0x20\n        /* \"#utility.yul\":5458:5461   */\n      dup3\n        /* \"#utility.yul\":5454:5468   */\n      add\n        /* \"#utility.yul\":5439:5468   */\n      swap1\n      pop\n        /* \"#utility.yul\":5305:5474   */\n      swap3\n      swap2\n      pop\n      pop\n      jump\t// out\n        /* \"#utility.yul\":5480:5787   */\n    tag_67:\n        /* \"#utility.yul\":5548:5549   */\n      0x00\n        /* \"#utility.yul\":5558:5671   */\n    tag_133:\n        /* \"#utility.yul\":5572:5578   */\n      dup4\n        /* \"#utility.yul\":5569:5570   */\n      dup2\n        /* \"#utility.yul\":5566:5579   */\n      lt\n        /* \"#utility.yul\":5558:5671   */\n      iszero\n      tag_135\n      jumpi\n        /* \"#utility.yul\":5657:5658   */\n      dup1\n        /* \"#utility.yul\":5652:5655   */\n      dup3\n        /* \"#utility.yul\":5648:5659   */\n      add\n        /* \"#utility.yul\":5642:5660   */\n      mload\n        /* \"#utility.yul\":5638:5639   */\n      dup2\n        /* \"#utility.yul\":5633:5636   */\n      dup5\n        /* \"#utility.yul\":5629:5640   */\n      add\n        /* \"#utility.yul\":5622:5661   */\n      mstore\n        /* \"#utility.yul\":5594:5596   */\n      0x20\n        /* \"#utility.yul\":5591:5592   */\n      dup2\n        /* \"#utility.yul\":5587:5597   */\n      add\n        /* \"#utility.yul\":5582:5597   */\n      swap1\n      pop\n        /* \"#utility.yul\":5558:5671   */\n      jump(tag_133)\n    tag_135:\n        /* \"#utility.yul\":5689:5695   */\n      dup4\n        /* \"#utility.yul\":5686:5687   */\n      dup2\n        /* \"#utility.yul\":5683:5696   */\n      gt\n        /* \"#utility.yul\":5680:5781   */\n      iszero\n      tag_136\n      jumpi\n        /* \"#utility.yul\":5769:5770   */\n      0x00\n        /* \"#utility.yul\":5760:5766   */\n      dup5\n        /* \"#utility.yul\":5755:5758   */\n      dup5\n        /* \"#utility.yul\":5751:5767   */\n      add\n        /* \"#utility.yul\":5744:5771   */\n      mstore\n        /* \"#utility.yul\":5680:5781   */\n    tag_136:\n        /* \"#utility.yul\":5529:5787   */\n      pop\n        /* \"#utility.yul\":5480:5787   */\n      pop\n      pop\n      pop\n      jump\t// out\n        /* \"#utility.yul\":5793:6157   */\n    tag_68:\n        /* \"#utility.yul\":5881:5884   */\n      0x00\n        /* \"#utility.yul\":5909:5948   */\n      tag_138\n        /* \"#utility.yul\":5942:5947   */\n      dup3\n        /* \"#utility.yul\":5909:5948   */\n      tag_65\n      jump\t// in\n    tag_138:\n        /* \"#utility.yul\":5964:6035   */\n      tag_139\n        /* \"#utility.yul\":6028:6034   */\n      dup2\n        /* \"#utility.yul\":6023:6026   */\n      dup6\n        /* \"#utility.yul\":5964:6035   */\n      tag_66\n      jump\t// in\n    tag_139:\n        /* \"#utility.yul\":5957:6035   */\n      swap4\n      pop\n        /* \"#utility.yul\":6044:6096   */\n      tag_140\n        /* \"#utility.yul\":6089:6095   */\n      dup2\n        /* \"#utility.yul\":6084:6087   */\n      dup6\n        /* \"#utility.yul\":6077:6081   */\n      0x20\n        /* \"#utility.yul\":6070:6075   */\n      dup7\n        /* \"#utility.yul\":6066:6082   */\n      add\n        /* \"#utility.yul\":6044:6096   */\n      tag_67\n      jump\t// in\n    tag_140:\n        /* \"#utility.yul\":6121:6150   */\n      tag_141\n        /* \"#utility.yul\":6143:6149   */\n      dup2\n        /* \"#utility.yul\":6121:6150   */\n      tag_51\n      jump\t// in\n    tag_141:\n        /* \"#utility.yul\":6116:6119   */\n      dup5\n        /* \"#utility.yul\":6112:6151   */\n      add\n        /* \"#utility.yul\":6105:6151   */\n      swap2\n      pop\n        /* \"#utility.yul\":5885:6157   */\n      pop\n        /* \"#utility.yul\":5793:6157   */\n      swap3\n      swap2\n      pop\n      pop\n      jump\t// out\n        /* \"#utility.yul\":6163:6476   */\n    tag_22:\n        /* \"#utility.yul\":6276:6280   */\n      0x00\n        /* \"#utility.yul\":6314:6316   */\n      0x20\n        /* \"#utility.yul\":6303:6312   */\n      dup3\n        /* \"#utility.yul\":6299:6317   */\n      add\n        /* \"#utility.yul\":6291:6317   */\n      swap1\n      pop\n        /* \"#utility.yul\":6363:6372   */\n      dup2\n        /* \"#utility.yul\":6357:6361   */\n      dup2\n        /* \"#utility.yul\":6353:6373   */\n      sub\n        /* \"#utility.yul\":6349:6350   */\n      0x00\n        /* \"#utility.yul\":6338:6347   */\n      dup4\n        /* \"#utility.yul\":6334:6351   */\n      add\n        /* \"#utility.yul\":6327:6374   */\n      mstore\n        /* \"#utility.yul\":6391:6469   */\n      tag_143\n        /* \"#utility.yul\":6464:6468   */\n      dup2\n        /* \"#utility.yul\":6455:6461   */\n      dup5\n        /* \"#utility.yul\":6391:6469   */\n      tag_68\n      jump\t// in\n    tag_143:\n        /* \"#utility.yul\":6383:6469   */\n      swap1\n      pop\n        /* \"#utility.yul\":6163:6476   */\n      swap3\n      swap2\n      pop\n      pop\n      jump\t// out\n        /* \"#utility.yul\":6482:6662   */\n    tag_69:\n        /* \"#utility.yul\":6530:6607   */\n      0x4e487b7100000000000000000000000000000000000000000000000000000000\n        /* \"#utility.yul\":6527:6528   */\n      0x00\n        /* \"#utility.yul\":6520:6608   */\n      mstore\n        /* \"#utility.yul\":6627:6631   */\n      0x22\n        /* \"#utility.yul\":6624:6625   */\n      0x04\n        /* \"#utility.yul\":6617:6632   */\n      mstore\n        /* \"#utility.yul\":6651:6655   */\n      0x24\n        /* \"#utility.yul\":6648:6649   */\n      0x00\n        /* \"#utility.yul\":6641:6656   */\n      revert\n        /* \"#utility.yul\":6668:6988   */\n    tag_31:\n        /* \"#utility.yul\":6712:6718   */\n      0x00\n        /* \"#utility.yul\":6749:6750   */\n      0x02\n        /* \"#utility.yul\":6743:6747   */\n      dup3\n        /* \"#utility.yul\":6739:6751   */\n      div\n        /* \"#utility.yul\":6729:6751   */\n      swap1\n      pop\n        /* \"#utility.yul\":6796:6797   */\n      0x01\n        /* \"#utility.yul\":6790:6794   */\n      dup3\n        /* \"#utility.yul\":6786:6798   */\n      and\n        /* \"#utility.yul\":6817:6835   */\n      dup1\n        /* \"#utility.yul\":6807:6888   */\n      tag_146\n      jumpi\n        /* \"#utility.yul\":6873:6877   */\n      0x7f\n        /* \"#utility.yul\":6865:6871   */\n      dup3\n        /* \"#utility.yul\":6861:6878   */\n      and\n        /* \"#utility.yul\":6851:6878   */\n      swap2\n      pop\n        /* \"#utility.yul\":6807:6888   */\n    tag_146:\n        /* \"#utility.yul\":6935:6937   */\n      0x20\n        /* \"#utility.yul\":6927:6933   */\n      dup3\n        /* \"#utility.yul\":6924:6938   */\n      lt\n        /* \"#utility.yul\":6904:6922   */\n      dup2\n        /* \"#utility.yul\":6901:6939   */\n      sub\n        /* \"#utility.yul\":6898:6982   */\n      tag_147\n      jumpi\n        /* \"#utility.yul\":6954:6972   */\n      tag_148\n      tag_69\n      jump\t// in\n    tag_148:\n        /* \"#utility.yul\":6898:6982   */\n    tag_147:\n        /* \"#utility.yul\":6719:6988   */\n      pop\n        /* \"#utility.yul\":6668:6988   */\n      swap2\n      swap1\n      pop\n      jump\t// out\n\n    auxdata: 0xa2646970667358221220a2236f37a28dcdcab207ee44b7daab491acbfb38f49cffdc16cb7d2dcb27611b64736f6c634300080d0033\n}\n",
				"bytecode": {
					"linkReferences": {},
					"object": "608060405234801561001057600080fd5b506106ce806100206000396000f3fe608060405234801561001057600080fd5b506004361061004c5760003560e01c8063a24a2d1614610051578063a541a2a21461006d578063a8b93c8d1461008b578063f020cd19146100a7575b600080fd5b61006b6004803603810190610066919061044a565b6100c5565b005b610075610147565b604051610082919061052a565b60405180910390f35b6100a560048036038101906100a09190610545565b61016b565b005b6100af610185565b6040516100bc9190610616565b60405180910390f35b336000806101000a81548173ffffffffffffffffffffffffffffffffffffffff021916908373ffffffffffffffffffffffffffffffffffffffff160217905550836001908051906020019061011b929190610217565b508260029080519060200190610132929190610217565b50816003819055508060068190555050505050565b60008054906101000a900473ffffffffffffffffffffffffffffffffffffffff1681565b8060019080519060200190610181929190610217565b5050565b60606001805461019490610667565b80601f01602080910402602001604051908101604052809291908181526020018280546101c090610667565b801561020d5780601f106101e25761010080835404028352916020019161020d565b820191906000526020600020905b8154815290600101906020018083116101f057829003601f168201915b5050505050905090565b82805461022390610667565b90600052602060002090601f016020900481019282610245576000855561028c565b82601f1061025e57805160ff191683800117855561028c565b8280016001018555821561028c579182015b8281111561028b578251825591602001919060010190610270565b5b509050610299919061029d565b5090565b5b808211156102b657600081600090555060010161029e565b5090565b6000604051905090565b600080fd5b600080fd5b600080fd5b600080fd5b6000601f19601f8301169050919050565b7f4e487b7100000000000000000000000000000000000000000000000000000000600052604160045260246000fd5b610321826102d8565b810181811067ffffffffffffffff821117156103405761033f6102e9565b5b80604052505050565b60006103536102ba565b905061035f8282610318565b919050565b600067ffffffffffffffff82111561037f5761037e6102e9565b5b610388826102d8565b9050602081019050919050565b82818337600083830152505050565b60006103b76103b284610364565b610349565b9050828152602081018484840111156103d3576103d26102d3565b5b6103de848285610395565b509392505050565b600082601f8301126103fb576103fa6102ce565b5b813561040b8482602086016103a4565b91505092915050565b6000819050919050565b61042781610414565b811461043257600080fd5b50565b6000813590506104448161041e565b92915050565b60008060008060808587031215610464576104636102c4565b5b600085013567ffffffffffffffff811115610482576104816102c9565b5b61048e878288016103e6565b945050602085013567ffffffffffffffff8111156104af576104ae6102c9565b5b6104bb878288016103e6565b93505060406104cc87828801610435565b92505060606104dd87828801610435565b91505092959194509250565b600073ffffffffffffffffffffffffffffffffffffffff82169050919050565b6000610514826104e9565b9050919050565b61052481610509565b82525050565b600060208201905061053f600083018461051b565b92915050565b60006020828403121561055b5761055a6102c4565b5b600082013567ffffffffffffffff811115610579576105786102c9565b5b610585848285016103e6565b91505092915050565b600081519050919050565b600082825260208201905092915050565b60005b838110156105c85780820151818401526020810190506105ad565b838111156105d7576000848401525b50505050565b60006105e88261058e565b6105f28185610599565b93506106028185602086016105aa565b61060b816102d8565b840191505092915050565b6000602082019050818103600083015261063081846105dd565b905092915050565b7f4e487b7100000000000000000000000000000000000000000000000000000000600052602260045260246000fd5b6000600282049050600182168061067f57607f821691505b60208210810361069257610691610638565b5b5091905056fea2646970667358221220a2236f37a28dcdcab207ee44b7daab491acbfb38f49cffdc16cb7d2dcb27611b64736f6c634300080d0033",
					"opcodes": "PUSH1 0x80 PUSH1 0x40 MSTORE CALLVALUE DUP1 ISZERO PUSH2 0x10 JUMPI PUSH1 0x0 DUP1 REVERT JUMPDEST POP PUSH2 0x6CE DUP1 PUSH2 0x20 PUSH1 0x0 CODECOPY PUSH1 0x0 RETURN INVALID PUSH1 0x80 PUSH1 0x40 MSTORE CALLVALUE DUP1 ISZERO PUSH2 0x10 JUMPI PUSH1 0x0 DUP1 REVERT JUMPDEST POP PUSH1 0x4 CALLDATASIZE LT PUSH2 0x4C JUMPI PUSH1 0x0 CALLDATALOAD PUSH1 0xE0 SHR DUP1 PUSH4 0xA24A2D16 EQ PUSH2 0x51 JUMPI DUP1 PUSH4 0xA541A2A2 EQ PUSH2 0x6D JUMPI DUP1 PUSH4 0xA8B93C8D EQ PUSH2 0x8B JUMPI DUP1 PUSH4 0xF020CD19 EQ PUSH2 0xA7 JUMPI JUMPDEST PUSH1 0x0 DUP1 REVERT JUMPDEST PUSH2 0x6B PUSH1 0x4 DUP1 CALLDATASIZE SUB DUP2 ADD SWAP1 PUSH2 0x66 SWAP2 SWAP1 PUSH2 0x44A JUMP JUMPDEST PUSH2 0xC5 JUMP JUMPDEST STOP JUMPDEST PUSH2 0x75 PUSH2 0x147 JUMP JUMPDEST PUSH1 0x40 MLOAD PUSH2 0x82 SWAP2 SWAP1 PUSH2 0x52A JUMP JUMPDEST PUSH1 0x40 MLOAD DUP1 SWAP2 SUB SWAP1 RETURN JUMPDEST PUSH2 0xA5 PUSH1 0x4 DUP1 CALLDATASIZE SUB DUP2 ADD SWAP1 PUSH2 0xA0 SWAP2 SWAP1 PUSH2 0x545 JUMP JUMPDEST PUSH2 0x16B JUMP JUMPDEST STOP JUMPDEST PUSH2 0xAF PUSH2 0x185 JUMP JUMPDEST PUSH1 0x40 MLOAD PUSH2 0xBC SWAP2 SWAP1 PUSH2 0x616 JUMP JUMPDEST PUSH1 0x40 MLOAD DUP1 SWAP2 SUB SWAP1 RETURN JUMPDEST CALLER PUSH1 0x0 DUP1 PUSH2 0x100 EXP DUP2 SLOAD DUP2 PUSH20 0xFFFFFFFFFFFFFFFFFFFFFFFFFFFFFFFFFFFFFFFF MUL NOT AND SWAP1 DUP4 PUSH20 0xFFFFFFFFFFFFFFFFFFFFFFFFFFFFFFFFFFFFFFFF AND MUL OR SWAP1 SSTORE POP DUP4 PUSH1 0x1 SWAP1 DUP1 MLOAD SWAP1 PUSH1 0x20 ADD SWAP1 PUSH2 0x11B SWAP3 SWAP2 SWAP1 PUSH2 0x217 JUMP JUMPDEST POP DUP3 PUSH1 0x2 SWAP1 DUP1 MLOAD SWAP1 PUSH1 0x20 ADD SWAP1 PUSH2 0x132 SWAP3 SWAP2 SWAP1 PUSH2 0x217 JUMP JUMPDEST POP DUP2 PUSH1 0x3 DUP2 SWAP1 SSTORE POP DUP1 PUSH1 0x6 DUP2 SWAP1 SSTORE POP POP POP POP POP JUMP JUMPDEST PUSH1 0x0 DUP1 SLOAD SWAP1 PUSH2 0x100 EXP SWAP1 DIV PUSH20 0xFFFFFFFFFFFFFFFFFFFFFFFFFFFFFFFFFFFFFFFF AND DUP2 JUMP JUMPDEST DUP1 PUSH1 0x1 SWAP1 DUP1 MLOAD SWAP1 PUSH1 0x20 ADD SWAP1 PUSH2 0x181 SWAP3 SWAP2 SWAP1 PUSH2 0x217 JUMP JUMPDEST POP POP JUMP JUMPDEST PUSH1 0x60 PUSH1 0x1 DUP1 SLOAD PUSH2 0x194 SWAP1 PUSH2 0x667 JUMP JUMPDEST DUP1 PUSH1 0x1F ADD PUSH1 0x20 DUP1 SWAP2 DIV MUL PUSH1 0x20 ADD PUSH1 0x40 MLOAD SWAP1 DUP2 ADD PUSH1 0x40 MSTORE DUP1 SWAP3 SWAP2 SWAP1 DUP2 DUP2 MSTORE PUSH1 0x20 ADD DUP3 DUP1 SLOAD PUSH2 0x1C0 SWAP1 PUSH2 0x667 JUMP JUMPDEST DUP1 ISZERO PUSH2 0x20D JUMPI DUP1 PUSH1 0x1F LT PUSH2 0x1E2 JUMPI PUSH2 0x100 DUP1 DUP4 SLOAD DIV MUL DUP4 MSTORE SWAP2 PUSH1 0x20 ADD SWAP2 PUSH2 0x20D JUMP JUMPDEST DUP3 ADD SWAP2 SWAP1 PUSH1 0x0 MSTORE PUSH1 0x20 PUSH1 0x0 KECCAK256 SWAP1 JUMPDEST DUP2 SLOAD DUP2 MSTORE SWAP1 PUSH1 0x1 ADD SWAP1 PUSH1 0x20 ADD DUP1 DUP4 GT PUSH2 0x1F0 JUMPI DUP3 SWAP1 SUB PUSH1 0x1F AND DUP3 ADD SWAP2 JUMPDEST POP POP POP POP POP SWAP1 POP SWAP1 JUMP JUMPDEST DUP3 DUP1 SLOAD PUSH2 0x223 SWAP1 PUSH2 0x667 JUMP JUMPDEST SWAP1 PUSH1 0x0 MSTORE PUSH1 0x20 PUSH1 0x0 KECCAK256 SWAP1 PUSH1 0x1F ADD PUSH1 0x20 SWAP1 DIV DUP2 ADD SWAP3 DUP3 PUSH2 0x245 JUMPI PUSH1 0x0 DUP6 SSTORE PUSH2 0x28C JUMP JUMPDEST DUP3 PUSH1 0x1F LT PUSH2 0x25E JUMPI DUP1 MLOAD PUSH1 0xFF NOT AND DUP4 DUP1 ADD OR DUP6 SSTORE PUSH2 0x28C JUMP JUMPDEST DUP3 DUP1 ADD PUSH1 0x1 ADD DUP6 SSTORE DUP3 ISZERO PUSH2 0x28C JUMPI SWAP2 DUP3 ADD JUMPDEST DUP3 DUP2 GT ISZERO PUSH2 0x28B JUMPI DUP3 MLOAD DUP3 SSTORE SWAP2 PUSH1 0x20 ADD SWAP2 SWAP1 PUSH1 0x1 ADD SWAP1 PUSH2 0x270 JUMP JUMPDEST JUMPDEST POP SWAP1 POP PUSH2 0x299 SWAP2 SWAP1 PUSH2 0x29D JUMP JUMPDEST POP SWAP1 JUMP JUMPDEST JUMPDEST DUP1 DUP3 GT ISZERO PUSH2 0x2B6 JUMPI PUSH1 0x0 DUP2 PUSH1 0x0 SWAP1 SSTORE POP PUSH1 0x1 ADD PUSH2 0x29E JUMP JUMPDEST POP SWAP1 JUMP JUMPDEST PUSH1 0x0 PUSH1 0x40 MLOAD SWAP1 POP SWAP1 JUMP JUMPDEST PUSH1 0x0 DUP1 REVERT JUMPDEST PUSH1 0x0 DUP1 REVERT JUMPDEST PUSH1 0x0 DUP1 REVERT JUMPDEST PUSH1 0x0 DUP1 REVERT JUMPDEST PUSH1 0x0 PUSH1 0x1F NOT PUSH1 0x1F DUP4 ADD AND SWAP1 POP SWAP2 SWAP1 POP JUMP JUMPDEST PUSH32 0x4E487B7100000000000000000000000000000000000000000000000000000000 PUSH1 0x0 MSTORE PUSH1 0x41 PUSH1 0x4 MSTORE PUSH1 0x24 PUSH1 0x0 REVERT JUMPDEST PUSH2 0x321 DUP3 PUSH2 0x2D8 JUMP JUMPDEST DUP2 ADD DUP2 DUP2 LT PUSH8 0xFFFFFFFFFFFFFFFF DUP3 GT OR ISZERO PUSH2 0x340 JUMPI PUSH2 0x33F PUSH2 0x2E9 JUMP JUMPDEST JUMPDEST DUP1 PUSH1 0x40 MSTORE POP POP POP JUMP JUMPDEST PUSH1 0x0 PUSH2 0x353 PUSH2 0x2BA JUMP JUMPDEST SWAP1 POP PUSH2 0x35F DUP3 DUP3 PUSH2 0x318 JUMP JUMPDEST SWAP2 SWAP1 POP JUMP JUMPDEST PUSH1 0x0 PUSH8 0xFFFFFFFFFFFFFFFF DUP3 GT ISZERO PUSH2 0x37F JUMPI PUSH2 0x37E PUSH2 0x2E9 JUMP JUMPDEST JUMPDEST PUSH2 0x388 DUP3 PUSH2 0x2D8 JUMP JUMPDEST SWAP1 POP PUSH1 0x20 DUP2 ADD SWAP1 POP SWAP2 SWAP1 POP JUMP JUMPDEST DUP3 DUP2 DUP4 CALLDATACOPY PUSH1 0x0 DUP4 DUP4 ADD MSTORE POP POP POP JUMP JUMPDEST PUSH1 0x0 PUSH2 0x3B7 PUSH2 0x3B2 DUP5 PUSH2 0x364 JUMP JUMPDEST PUSH2 0x349 JUMP JUMPDEST SWAP1 POP DUP3 DUP2 MSTORE PUSH1 0x20 DUP2 ADD DUP5 DUP5 DUP5 ADD GT ISZERO PUSH2 0x3D3 JUMPI PUSH2 0x3D2 PUSH2 0x2D3 JUMP JUMPDEST JUMPDEST PUSH2 0x3DE DUP5 DUP3 DUP6 PUSH2 0x395 JUMP JUMPDEST POP SWAP4 SWAP3 POP POP POP JUMP JUMPDEST PUSH1 0x0 DUP3 PUSH1 0x1F DUP4 ADD SLT PUSH2 0x3FB JUMPI PUSH2 0x3FA PUSH2 0x2CE JUMP JUMPDEST JUMPDEST DUP2 CALLDATALOAD PUSH2 0x40B DUP5 DUP3 PUSH1 0x20 DUP7 ADD PUSH2 0x3A4 JUMP JUMPDEST SWAP2 POP POP SWAP3 SWAP2 POP POP JUMP JUMPDEST PUSH1 0x0 DUP2 SWAP1 POP SWAP2 SWAP1 POP JUMP JUMPDEST PUSH2 0x427 DUP2 PUSH2 0x414 JUMP JUMPDEST DUP2 EQ PUSH2 0x432 JUMPI PUSH1 0x0 DUP1 REVERT JUMPDEST POP JUMP JUMPDEST PUSH1 0x0 DUP2 CALLDATALOAD SWAP1 POP PUSH2 0x444 DUP2 PUSH2 0x41E JUMP JUMPDEST SWAP3 SWAP2 POP POP JUMP JUMPDEST PUSH1 0x0 DUP1 PUSH1 0x0 DUP1 PUSH1 0x80 DUP6 DUP8 SUB SLT ISZERO PUSH2 0x464 JUMPI PUSH2 0x463 PUSH2 0x2C4 JUMP JUMPDEST JUMPDEST PUSH1 0x0 DUP6 ADD CALLDATALOAD PUSH8 0xFFFFFFFFFFFFFFFF DUP2 GT ISZERO PUSH2 0x482 JUMPI PUSH2 0x481 PUSH2 0x2C9 JUMP JUMPDEST JUMPDEST PUSH2 0x48E DUP8 DUP3 DUP9 ADD PUSH2 0x3E6 JUMP JUMPDEST SWAP5 POP POP PUSH1 0x20 DUP6 ADD CALLDATALOAD PUSH8 0xFFFFFFFFFFFFFFFF DUP2 GT ISZERO PUSH2 0x4AF JUMPI PUSH2 0x4AE PUSH2 0x2C9 JUMP JUMPDEST JUMPDEST PUSH2 0x4BB DUP8 DUP3 DUP9 ADD PUSH2 0x3E6 JUMP JUMPDEST SWAP4 POP POP PUSH1 0x40 PUSH2 0x4CC DUP8 DUP3 DUP9 ADD PUSH2 0x435 JUMP JUMPDEST SWAP3 POP POP PUSH1 0x60 PUSH2 0x4DD DUP8 DUP3 DUP9 ADD PUSH2 0x435 JUMP JUMPDEST SWAP2 POP POP SWAP3 SWAP6 SWAP2 SWAP5 POP SWAP3 POP JUMP JUMPDEST PUSH1 0x0 PUSH20 0xFFFFFFFFFFFFFFFFFFFFFFFFFFFFFFFFFFFFFFFF DUP3 AND SWAP1 POP SWAP2 SWAP1 POP JUMP JUMPDEST PUSH1 0x0 PUSH2 0x514 DUP3 PUSH2 0x4E9 JUMP JUMPDEST SWAP1 POP SWAP2 SWAP1 POP JUMP JUMPDEST PUSH2 0x524 DUP2 PUSH2 0x509 JUMP JUMPDEST DUP3 MSTORE POP POP JUMP JUMPDEST PUSH1 0x0 PUSH1 0x20 DUP3 ADD SWAP1 POP PUSH2 0x53F PUSH1 0x0 DUP4 ADD DUP5 PUSH2 0x51B JUMP JUMPDEST SWAP3 SWAP2 POP POP JUMP JUMPDEST PUSH1 0x0 PUSH1 0x20 DUP3 DUP5 SUB SLT ISZERO PUSH2 0x55B JUMPI PUSH2 0x55A PUSH2 0x2C4 JUMP JUMPDEST JUMPDEST PUSH1 0x0 DUP3 ADD CALLDATALOAD PUSH8 0xFFFFFFFFFFFFFFFF DUP2 GT ISZERO PUSH2 0x579 JUMPI PUSH2 0x578 PUSH2 0x2C9 JUMP JUMPDEST JUMPDEST PUSH2 0x585 DUP5 DUP3 DUP6 ADD PUSH2 0x3E6 JUMP JUMPDEST SWAP2 POP POP SWAP3 SWAP2 POP POP JUMP JUMPDEST PUSH1 0x0 DUP2 MLOAD SWAP1 POP SWAP2 SWAP1 POP JUMP JUMPDEST PUSH1 0x0 DUP3 DUP3 MSTORE PUSH1 0x20 DUP3 ADD SWAP1 POP SWAP3 SWAP2 POP POP JUMP JUMPDEST PUSH1 0x0 JUMPDEST DUP4 DUP2 LT ISZERO PUSH2 0x5C8 JUMPI DUP1 DUP3 ADD MLOAD DUP2 DUP5 ADD MSTORE PUSH1 0x20 DUP2 ADD SWAP1 POP PUSH2 0x5AD JUMP JUMPDEST DUP4 DUP2 GT ISZERO PUSH2 0x5D7 JUMPI PUSH1 0x0 DUP5 DUP5 ADD MSTORE JUMPDEST POP POP POP POP JUMP JUMPDEST PUSH1 0x0 PUSH2 0x5E8 DUP3 PUSH2 0x58E JUMP JUMPDEST PUSH2 0x5F2 DUP2 DUP6 PUSH2 0x599 JUMP JUMPDEST SWAP4 POP PUSH2 0x602 DUP2 DUP6 PUSH1 0x20 DUP7 ADD PUSH2 0x5AA JUMP JUMPDEST PUSH2 0x60B DUP2 PUSH2 0x2D8 JUMP JUMPDEST DUP5 ADD SWAP2 POP POP SWAP3 SWAP2 POP POP JUMP JUMPDEST PUSH1 0x0 PUSH1 0x20 DUP3 ADD SWAP1 POP DUP2 DUP2 SUB PUSH1 0x0 DUP4 ADD MSTORE PUSH2 0x630 DUP2 DUP5 PUSH2 0x5DD JUMP JUMPDEST SWAP1 POP SWAP3 SWAP2 POP POP JUMP JUMPDEST PUSH32 0x4E487B7100000000000000000000000000000000000000000000000000000000 PUSH1 0x0 MSTORE PUSH1 0x22 PUSH1 0x4 MSTORE PUSH1 0x24 PUSH1 0x0 REVERT JUMPDEST PUSH1 0x0 PUSH1 0x2 DUP3 DIV SWAP1 POP PUSH1 0x1 DUP3 AND DUP1 PUSH2 0x67F JUMPI PUSH1 0x7F DUP3 AND SWAP2 POP JUMPDEST PUSH1 0x20 DUP3 LT DUP2 SUB PUSH2 0x692 JUMPI PUSH2 0x691 PUSH2 0x638 JUMP JUMPDEST JUMPDEST POP SWAP2 SWAP1 POP JUMP INVALID LOG2 PUSH5 0x6970667358 0x22 SLT KECCAK256 LOG2 0x23 PUSH16 0x37A28DCDCAB207EE44B7DAAB491ACBFB CODESIZE DELEGATECALL SWAP13 SELFDESTRUCT 0xDC AND 0xCB PUSH30 0x2DCB27611B64736F6C634300080D00330000000000000000000000000000 "
				},
				"gasEstimates": {
					"creation": {
						"codeDepositCost": "348400",
						"executionCost": "386",
						"totalCost": "348786"
					},
					"external": {
						"getProjectTitle()": "infinite",
						"projectCreator()": "2511",
						"setProjectTitle(string)": "infinite",
						"startProject(string,string,uint256,uint256)": "infinite"
					}
				},
				"methodIdentifiers": {
					"getProjectTitle()": "f020cd19",
					"projectCreator()": "a541a2a2",
					"setProjectTitle(string)": "a8b93c8d",
					"startProject(string,string,uint256,uint256)": "a24a2d16"
				}
			},
			"storageLayout": {
				"storage": [
					{
						"astId": 7,
						"contract": "contracts/Project.sol:Project",
						"label": "projectCreator",
						"offset": 0,
						"slot": "0",
						"type": "t_address_payable"
					},
					{
						"astId": 9,
						"contract": "contracts/Project.sol:Project",
						"label": "projectTitle",
						"offset": 0,
						"slot": "1",
						"type": "t_string_storage"
					},
					{
						"astId": 11,
						"contract": "contracts/Project.sol:Project",
						"label": "projectDescription",
						"offset": 0,
						"slot": "2",
						"type": "t_string_storage"
					},
					{
						"astId": 13,
						"contract": "contracts/Project.sol:Project",
						"label": "amountGoal",
						"offset": 0,
						"slot": "3",
						"type": "t_uint256"
					},
					{
						"astId": 15,
						"contract": "contracts/Project.sol:Project",
						"label": "currentBalance",
						"offset": 0,
						"slot": "4",
						"type": "t_uint256"
					},
					{
						"astId": 18,
						"contract": "contracts/Project.sol:Project",
						"label": "state",
						"offset": 0,
						"slot": "5",
						"type": "t_enum(State)5"
					},
					{
						"astId": 20,
						"contract": "contracts/Project.sol:Project",
						"label": "nbDays",
						"offset": 0,
						"slot": "6",
						"type": "t_uint256"
					},
					{
						"astId": 24,
						"contract": "contracts/Project.sol:Project",
						"label": "contributions",
						"offset": 0,
						"slot": "7",
						"type": "t_mapping(t_address,t_uint256)"
					}
				],
				"types": {
					"t_address": {
						"encoding": "inplace",
						"label": "address",
						"numberOfBytes": "20"
					},
					"t_address_payable": {
						"encoding": "inplace",
						"label": "address payable",
						"numberOfBytes": "20"
					},
					"t_enum(State)5": {
						"encoding": "inplace",
						"label": "enum Project.State",
						"numberOfBytes": "1"
					},
					"t_mapping(t_address,t_uint256)": {
						"encoding": "mapping",
						"key": "t_address",
						"label": "mapping(address => uint256)",
						"numberOfBytes": "32",
						"value": "t_uint256"
					},
					"t_string_storage": {
						"encoding": "bytes",
						"label": "string",
						"numberOfBytes": "32"
					},
					"t_uint256": {
						"encoding": "inplace",
						"label": "uint256",
						"numberOfBytes": "32"
					}
				}
			},
			"userdoc": {
				"kind": "user",
				"methods": {},
				"version": 1
			}
		}
	}
}