{
	"contracts/Project.sol": {
		"Project": {
			"abi": [
				{
					"inputs": [],
					"name": "getProjectTitle",
					"outputs": [
						{
							"internalType": "string",
							"name": "",
							"type": "string"
						}
					],
					"stateMutability": "view",
					"type": "function"
				},
				{
					"inputs": [],
					"name": "projectCreator",
					"outputs": [
						{
							"internalType": "address payable",
							"name": "",
							"type": "address"
						}
					],
					"stateMutability": "view",
					"type": "function"
				},
				{
					"inputs": [
						{
							"internalType": "string",
							"name": "_projectTitle",
							"type": "string"
						}
					],
					"name": "setProjectTitle",
					"outputs": [],
					"stateMutability": "nonpayable",
					"type": "function"
				}
			],
			"devdoc": {
				"kind": "dev",
				"methods": {},
				"version": 1
			},
			"evm": {
				"assembly": "    /* \"contracts/Project.sol\":62:659  contract Project {... */\n  mstore(0x40, 0x80)\n  callvalue\n  dup1\n  iszero\n  tag_1\n  jumpi\n  0x00\n  dup1\n  revert\ntag_1:\n  pop\n  dataSize(sub_0)\n  dup1\n  dataOffset(sub_0)\n  0x00\n  codecopy\n  0x00\n  return\nstop\n\nsub_0: assembly {\n        /* \"contracts/Project.sol\":62:659  contract Project {... */\n      mstore(0x40, 0x80)\n      callvalue\n      dup1\n      iszero\n      tag_1\n      jumpi\n      0x00\n      dup1\n      revert\n    tag_1:\n      pop\n      jumpi(tag_2, lt(calldatasize, 0x04))\n      shr(0xe0, calldataload(0x00))\n      dup1\n      0xa541a2a2\n      eq\n      tag_3\n      jumpi\n      dup1\n      0xa8b93c8d\n      eq\n      tag_4\n      jumpi\n      dup1\n      0xf020cd19\n      eq\n      tag_5\n      jumpi\n    tag_2:\n      0x00\n      dup1\n      revert\n        /* \"contracts/Project.sol\":166:203  address payable public projectCreator */\n    tag_3:\n      tag_6\n      tag_7\n      jump\t// in\n    tag_6:\n      mload(0x40)\n      tag_8\n      swap2\n      swap1\n      tag_9\n      jump\t// in\n    tag_8:\n      mload(0x40)\n      dup1\n      swap2\n      sub\n      swap1\n      return\n        /* \"contracts/Project.sol\":547:653  function setProjectTitle(string memory _projectTitle) public {... */\n    tag_4:\n      tag_10\n      0x04\n      dup1\n      calldatasize\n      sub\n      dup2\n      add\n      swap1\n      tag_11\n      swap2\n      swap1\n      tag_12\n      jump\t// in\n    tag_11:\n      tag_13\n      jump\t// in\n    tag_10:\n      stop\n        /* \"contracts/Project.sol\":439:537  function getProjectTitle() public view returns(string memory) {... */\n    tag_5:\n      tag_14\n      tag_15\n      jump\t// in\n    tag_14:\n      mload(0x40)\n      tag_16\n      swap2\n      swap1\n      tag_17\n      jump\t// in\n    tag_16:\n      mload(0x40)\n      dup1\n      swap2\n      sub\n      swap1\n      return\n        /* \"contracts/Project.sol\":166:203  address payable public projectCreator */\n    tag_7:\n      0x00\n      dup1\n      sload\n      swap1\n      0x0100\n      exp\n      swap1\n      div\n      0xffffffffffffffffffffffffffffffffffffffff\n      and\n      dup2\n      jump\t// out\n        /* \"contracts/Project.sol\":547:653  function setProjectTitle(string memory _projectTitle) public {... */\n    tag_13:\n        /* \"contracts/Project.sol\":633:646  _projectTitle */\n      dup1\n        /* \"contracts/Project.sol\":618:630  projectTitle */\n      0x01\n        /* \"contracts/Project.sol\":618:646  projectTitle = _projectTitle */\n      swap1\n      dup1\n      mload\n      swap1\n      0x20\n      add\n      swap1\n      tag_19\n      swap3\n      swap2\n      swap1\n      tag_20\n      jump\t// in\n    tag_19:\n      pop\n        /* \"contracts/Project.sol\":547:653  function setProjectTitle(string memory _projectTitle) public {... */\n      pop\n      jump\t// out\n        /* \"contracts/Project.sol\":439:537  function getProjectTitle() public view returns(string memory) {... */\n    tag_15:\n        /* \"contracts/Project.sol\":486:499  string memory */\n      0x60\n        /* \"contracts/Project.sol\":518:530  projectTitle */\n      0x01\n        /* \"contracts/Project.sol\":511:530  return projectTitle */\n      dup1\n      sload\n      tag_22\n      swap1\n      tag_23\n      jump\t// in\n    tag_22:\n      dup1\n      0x1f\n      add\n      0x20\n      dup1\n      swap2\n      div\n      mul\n      0x20\n      add\n      mload(0x40)\n      swap1\n      dup2\n      add\n      0x40\n      mstore\n      dup1\n      swap3\n      swap2\n      swap1\n      dup2\n      dup2\n      mstore\n      0x20\n      add\n      dup3\n      dup1\n      sload\n      tag_24\n      swap1\n      tag_23\n      jump\t// in\n    tag_24:\n      dup1\n      iszero\n      tag_25\n      jumpi\n      dup1\n      0x1f\n      lt\n      tag_26\n      jumpi\n      0x0100\n      dup1\n      dup4\n      sload\n      div\n      mul\n      dup4\n      mstore\n      swap2\n      0x20\n      add\n      swap2\n      jump(tag_25)\n    tag_26:\n      dup3\n      add\n      swap2\n      swap1\n      0x00\n      mstore\n      keccak256(0x00, 0x20)\n      swap1\n    tag_27:\n      dup2\n      sload\n      dup2\n      mstore\n      swap1\n      0x01\n      add\n      swap1\n      0x20\n      add\n      dup1\n      dup4\n      gt\n      tag_27\n      jumpi\n      dup3\n      swap1\n      sub\n      0x1f\n      and\n      dup3\n      add\n      swap2\n    tag_25:\n      pop\n      pop\n      pop\n      pop\n      pop\n      swap1\n      pop\n        /* \"contracts/Project.sol\":439:537  function getProjectTitle() public view returns(string memory) {... */\n      swap1\n      jump\t// out\n    tag_20:\n      dup3\n      dup1\n      sload\n      tag_28\n      swap1\n      tag_23\n      jump\t// in\n    tag_28:\n      swap1\n      0x00\n      mstore\n      keccak256(0x00, 0x20)\n      swap1\n      0x1f\n      add\n      0x20\n      swap1\n      div\n      dup2\n      add\n      swap3\n      dup3\n      tag_30\n      jumpi\n      0x00\n      dup6\n      sstore\n      jump(tag_29)\n    tag_30:\n      dup3\n      0x1f\n      lt\n      tag_31\n      jumpi\n      dup1\n      mload\n      not(0xff)\n      and\n      dup4\n      dup1\n      add\n      or\n      dup6\n      sstore\n      jump(tag_29)\n    tag_31:\n      dup3\n      dup1\n      add\n      0x01\n      add\n      dup6\n      sstore\n      dup3\n      iszero\n      tag_29\n      jumpi\n      swap2\n      dup3\n      add\n    tag_32:\n      dup3\n      dup2\n      gt\n      iszero\n      tag_33\n      jumpi\n      dup3\n      mload\n      dup3\n      sstore\n      swap2\n      0x20\n      add\n      swap2\n      swap1\n      0x01\n      add\n      swap1\n      jump(tag_32)\n    tag_33:\n    tag_29:\n      pop\n      swap1\n      pop\n      tag_34\n      swap2\n      swap1\n      tag_35\n      jump\t// in\n    tag_34:\n      pop\n      swap1\n      jump\t// out\n    tag_35:\n    tag_36:\n      dup1\n      dup3\n      gt\n      iszero\n      tag_37\n      jumpi\n      0x00\n      dup2\n      0x00\n      swap1\n      sstore\n      pop\n      0x01\n      add\n      jump(tag_36)\n    tag_37:\n      pop\n      swap1\n      jump\t// out\n        /* \"#utility.yul\":7:133   */\n    tag_38:\n        /* \"#utility.yul\":44:51   */\n      0x00\n        /* \"#utility.yul\":84:126   */\n      0xffffffffffffffffffffffffffffffffffffffff\n        /* \"#utility.yul\":77:82   */\n      dup3\n        /* \"#utility.yul\":73:127   */\n      and\n        /* \"#utility.yul\":62:127   */\n      swap1\n      pop\n        /* \"#utility.yul\":7:133   */\n      swap2\n      swap1\n      pop\n      jump\t// out\n        /* \"#utility.yul\":139:243   */\n    tag_39:\n        /* \"#utility.yul\":184:191   */\n      0x00\n        /* \"#utility.yul\":213:237   */\n      tag_62\n        /* \"#utility.yul\":231:236   */\n      dup3\n        /* \"#utility.yul\":213:237   */\n      tag_38\n      jump\t// in\n    tag_62:\n        /* \"#utility.yul\":202:237   */\n      swap1\n      pop\n        /* \"#utility.yul\":139:243   */\n      swap2\n      swap1\n      pop\n      jump\t// out\n        /* \"#utility.yul\":249:391   */\n    tag_40:\n        /* \"#utility.yul\":352:384   */\n      tag_64\n        /* \"#utility.yul\":378:383   */\n      dup2\n        /* \"#utility.yul\":352:384   */\n      tag_39\n      jump\t// in\n    tag_64:\n        /* \"#utility.yul\":347:350   */\n      dup3\n        /* \"#utility.yul\":340:385   */\n      mstore\n        /* \"#utility.yul\":249:391   */\n      pop\n      pop\n      jump\t// out\n        /* \"#utility.yul\":397:651   */\n    tag_9:\n        /* \"#utility.yul\":506:510   */\n      0x00\n        /* \"#utility.yul\":544:546   */\n      0x20\n        /* \"#utility.yul\":533:542   */\n      dup3\n        /* \"#utility.yul\":529:547   */\n      add\n        /* \"#utility.yul\":521:547   */\n      swap1\n      pop\n        /* \"#utility.yul\":557:644   */\n      tag_66\n        /* \"#utility.yul\":641:642   */\n      0x00\n        /* \"#utility.yul\":630:639   */\n      dup4\n        /* \"#utility.yul\":626:643   */\n      add\n        /* \"#utility.yul\":617:623   */\n      dup5\n        /* \"#utility.yul\":557:644   */\n      tag_40\n      jump\t// in\n    tag_66:\n        /* \"#utility.yul\":397:651   */\n      swap3\n      swap2\n      pop\n      pop\n      jump\t// out\n        /* \"#utility.yul\":657:732   */\n    tag_41:\n        /* \"#utility.yul\":690:696   */\n      0x00\n        /* \"#utility.yul\":723:725   */\n      0x40\n        /* \"#utility.yul\":717:726   */\n      mload\n        /* \"#utility.yul\":707:726   */\n      swap1\n      pop\n        /* \"#utility.yul\":657:732   */\n      swap1\n      jump\t// out\n        /* \"#utility.yul\":738:855   */\n    tag_42:\n        /* \"#utility.yul\":847:848   */\n      0x00\n        /* \"#utility.yul\":844:845   */\n      dup1\n        /* \"#utility.yul\":837:849   */\n      revert\n        /* \"#utility.yul\":861:978   */\n    tag_43:\n        /* \"#utility.yul\":970:971   */\n      0x00\n        /* \"#utility.yul\":967:968   */\n      dup1\n        /* \"#utility.yul\":960:972   */\n      revert\n        /* \"#utility.yul\":984:1101   */\n    tag_44:\n        /* \"#utility.yul\":1093:1094   */\n      0x00\n        /* \"#utility.yul\":1090:1091   */\n      dup1\n        /* \"#utility.yul\":1083:1095   */\n      revert\n        /* \"#utility.yul\":1107:1224   */\n    tag_45:\n        /* \"#utility.yul\":1216:1217   */\n      0x00\n        /* \"#utility.yul\":1213:1214   */\n      dup1\n        /* \"#utility.yul\":1206:1218   */\n      revert\n        /* \"#utility.yul\":1230:1332   */\n    tag_46:\n        /* \"#utility.yul\":1271:1277   */\n      0x00\n        /* \"#utility.yul\":1322:1324   */\n      0x1f\n        /* \"#utility.yul\":1318:1325   */\n      not\n        /* \"#utility.yul\":1313:1315   */\n      0x1f\n        /* \"#utility.yul\":1306:1311   */\n      dup4\n        /* \"#utility.yul\":1302:1316   */\n      add\n        /* \"#utility.yul\":1298:1326   */\n      and\n        /* \"#utility.yul\":1288:1326   */\n      swap1\n      pop\n        /* \"#utility.yul\":1230:1332   */\n      swap2\n      swap1\n      pop\n      jump\t// out\n        /* \"#utility.yul\":1338:1518   */\n    tag_47:\n        /* \"#utility.yul\":1386:1463   */\n      0x4e487b7100000000000000000000000000000000000000000000000000000000\n        /* \"#utility.yul\":1383:1384   */\n      0x00\n        /* \"#utility.yul\":1376:1464   */\n      mstore\n        /* \"#utility.yul\":1483:1487   */\n      0x41\n        /* \"#utility.yul\":1480:1481   */\n      0x04\n        /* \"#utility.yul\":1473:1488   */\n      mstore\n        /* \"#utility.yul\":1507:1511   */\n      0x24\n        /* \"#utility.yul\":1504:1505   */\n      0x00\n        /* \"#utility.yul\":1497:1512   */\n      revert\n        /* \"#utility.yul\":1524:1805   */\n    tag_48:\n        /* \"#utility.yul\":1607:1634   */\n      tag_75\n        /* \"#utility.yul\":1629:1633   */\n      dup3\n        /* \"#utility.yul\":1607:1634   */\n      tag_46\n      jump\t// in\n    tag_75:\n        /* \"#utility.yul\":1599:1605   */\n      dup2\n        /* \"#utility.yul\":1595:1635   */\n      add\n        /* \"#utility.yul\":1737:1743   */\n      dup2\n        /* \"#utility.yul\":1725:1735   */\n      dup2\n        /* \"#utility.yul\":1722:1744   */\n      lt\n        /* \"#utility.yul\":1701:1719   */\n      0xffffffffffffffff\n        /* \"#utility.yul\":1689:1699   */\n      dup3\n        /* \"#utility.yul\":1686:1720   */\n      gt\n        /* \"#utility.yul\":1683:1745   */\n      or\n        /* \"#utility.yul\":1680:1768   */\n      iszero\n      tag_76\n      jumpi\n        /* \"#utility.yul\":1748:1766   */\n      tag_77\n      tag_47\n      jump\t// in\n    tag_77:\n        /* \"#utility.yul\":1680:1768   */\n    tag_76:\n        /* \"#utility.yul\":1788:1798   */\n      dup1\n        /* \"#utility.yul\":1784:1786   */\n      0x40\n        /* \"#utility.yul\":1777:1799   */\n      mstore\n        /* \"#utility.yul\":1567:1805   */\n      pop\n        /* \"#utility.yul\":1524:1805   */\n      pop\n      pop\n      jump\t// out\n        /* \"#utility.yul\":1811:1940   */\n    tag_49:\n        /* \"#utility.yul\":1845:1851   */\n      0x00\n        /* \"#utility.yul\":1872:1892   */\n      tag_79\n      tag_41\n      jump\t// in\n    tag_79:\n        /* \"#utility.yul\":1862:1892   */\n      swap1\n      pop\n        /* \"#utility.yul\":1901:1934   */\n      tag_80\n        /* \"#utility.yul\":1929:1933   */\n      dup3\n        /* \"#utility.yul\":1921:1927   */\n      dup3\n        /* \"#utility.yul\":1901:1934   */\n      tag_48\n      jump\t// in\n    tag_80:\n        /* \"#utility.yul\":1811:1940   */\n      swap2\n      swap1\n      pop\n      jump\t// out\n        /* \"#utility.yul\":1946:2254   */\n    tag_50:\n        /* \"#utility.yul\":2008:2012   */\n      0x00\n        /* \"#utility.yul\":2098:2116   */\n      0xffffffffffffffff\n        /* \"#utility.yul\":2090:2096   */\n      dup3\n        /* \"#utility.yul\":2087:2117   */\n      gt\n        /* \"#utility.yul\":2084:2140   */\n      iszero\n      tag_82\n      jumpi\n        /* \"#utility.yul\":2120:2138   */\n      tag_83\n      tag_47\n      jump\t// in\n    tag_83:\n        /* \"#utility.yul\":2084:2140   */\n    tag_82:\n        /* \"#utility.yul\":2158:2187   */\n      tag_84\n        /* \"#utility.yul\":2180:2186   */\n      dup3\n        /* \"#utility.yul\":2158:2187   */\n      tag_46\n      jump\t// in\n    tag_84:\n        /* \"#utility.yul\":2150:2187   */\n      swap1\n      pop\n        /* \"#utility.yul\":2242:2246   */\n      0x20\n        /* \"#utility.yul\":2236:2240   */\n      dup2\n        /* \"#utility.yul\":2232:2247   */\n      add\n        /* \"#utility.yul\":2224:2247   */\n      swap1\n      pop\n        /* \"#utility.yul\":1946:2254   */\n      swap2\n      swap1\n      pop\n      jump\t// out\n        /* \"#utility.yul\":2260:2414   */\n    tag_51:\n        /* \"#utility.yul\":2344:2350   */\n      dup3\n        /* \"#utility.yul\":2339:2342   */\n      dup2\n        /* \"#utility.yul\":2334:2337   */\n      dup4\n        /* \"#utility.yul\":2321:2351   */\n      calldatacopy\n        /* \"#utility.yul\":2406:2407   */\n      0x00\n        /* \"#utility.yul\":2397:2403   */\n      dup4\n        /* \"#utility.yul\":2392:2395   */\n      dup4\n        /* \"#utility.yul\":2388:2404   */\n      add\n        /* \"#utility.yul\":2381:2408   */\n      mstore\n        /* \"#utility.yul\":2260:2414   */\n      pop\n      pop\n      pop\n      jump\t// out\n        /* \"#utility.yul\":2420:2832   */\n    tag_52:\n        /* \"#utility.yul\":2498:2503   */\n      0x00\n        /* \"#utility.yul\":2523:2589   */\n      tag_87\n        /* \"#utility.yul\":2539:2588   */\n      tag_88\n        /* \"#utility.yul\":2581:2587   */\n      dup5\n        /* \"#utility.yul\":2539:2588   */\n      tag_50\n      jump\t// in\n    tag_88:\n        /* \"#utility.yul\":2523:2589   */\n      tag_49\n      jump\t// in\n    tag_87:\n        /* \"#utility.yul\":2514:2589   */\n      swap1\n      pop\n        /* \"#utility.yul\":2612:2618   */\n      dup3\n        /* \"#utility.yul\":2605:2610   */\n      dup2\n        /* \"#utility.yul\":2598:2619   */\n      mstore\n        /* \"#utility.yul\":2650:2654   */\n      0x20\n        /* \"#utility.yul\":2643:2648   */\n      dup2\n        /* \"#utility.yul\":2639:2655   */\n      add\n        /* \"#utility.yul\":2688:2691   */\n      dup5\n        /* \"#utility.yul\":2679:2685   */\n      dup5\n        /* \"#utility.yul\":2674:2677   */\n      dup5\n        /* \"#utility.yul\":2670:2686   */\n      add\n        /* \"#utility.yul\":2667:2692   */\n      gt\n        /* \"#utility.yul\":2664:2776   */\n      iszero\n      tag_89\n      jumpi\n        /* \"#utility.yul\":2695:2774   */\n      tag_90\n      tag_45\n      jump\t// in\n    tag_90:\n        /* \"#utility.yul\":2664:2776   */\n    tag_89:\n        /* \"#utility.yul\":2785:2826   */\n      tag_91\n        /* \"#utility.yul\":2819:2825   */\n      dup5\n        /* \"#utility.yul\":2814:2817   */\n      dup3\n        /* \"#utility.yul\":2809:2812   */\n      dup6\n        /* \"#utility.yul\":2785:2826   */\n      tag_51\n      jump\t// in\n    tag_91:\n        /* \"#utility.yul\":2504:2832   */\n      pop\n        /* \"#utility.yul\":2420:2832   */\n      swap4\n      swap3\n      pop\n      pop\n      pop\n      jump\t// out\n        /* \"#utility.yul\":2852:3192   */\n    tag_53:\n        /* \"#utility.yul\":2908:2913   */\n      0x00\n        /* \"#utility.yul\":2957:2960   */\n      dup3\n        /* \"#utility.yul\":2950:2954   */\n      0x1f\n        /* \"#utility.yul\":2942:2948   */\n      dup4\n        /* \"#utility.yul\":2938:2955   */\n      add\n        /* \"#utility.yul\":2934:2961   */\n      slt\n        /* \"#utility.yul\":2924:3046   */\n      tag_93\n      jumpi\n        /* \"#utility.yul\":2965:3044   */\n      tag_94\n      tag_44\n      jump\t// in\n    tag_94:\n        /* \"#utility.yul\":2924:3046   */\n    tag_93:\n        /* \"#utility.yul\":3082:3088   */\n      dup2\n        /* \"#utility.yul\":3069:3089   */\n      calldataload\n        /* \"#utility.yul\":3107:3186   */\n      tag_95\n        /* \"#utility.yul\":3182:3185   */\n      dup5\n        /* \"#utility.yul\":3174:3180   */\n      dup3\n        /* \"#utility.yul\":3167:3171   */\n      0x20\n        /* \"#utility.yul\":3159:3165   */\n      dup7\n        /* \"#utility.yul\":3155:3172   */\n      add\n        /* \"#utility.yul\":3107:3186   */\n      tag_52\n      jump\t// in\n    tag_95:\n        /* \"#utility.yul\":3098:3186   */\n      swap2\n      pop\n        /* \"#utility.yul\":2914:3192   */\n      pop\n        /* \"#utility.yul\":2852:3192   */\n      swap3\n      swap2\n      pop\n      pop\n      jump\t// out\n        /* \"#utility.yul\":3198:3707   */\n    tag_12:\n        /* \"#utility.yul\":3267:3273   */\n      0x00\n        /* \"#utility.yul\":3316:3318   */\n      0x20\n        /* \"#utility.yul\":3304:3313   */\n      dup3\n        /* \"#utility.yul\":3295:3302   */\n      dup5\n        /* \"#utility.yul\":3291:3314   */\n      sub\n        /* \"#utility.yul\":3287:3319   */\n      slt\n        /* \"#utility.yul\":3284:3403   */\n      iszero\n      tag_97\n      jumpi\n        /* \"#utility.yul\":3322:3401   */\n      tag_98\n      tag_42\n      jump\t// in\n    tag_98:\n        /* \"#utility.yul\":3284:3403   */\n    tag_97:\n        /* \"#utility.yul\":3470:3471   */\n      0x00\n        /* \"#utility.yul\":3459:3468   */\n      dup3\n        /* \"#utility.yul\":3455:3472   */\n      add\n        /* \"#utility.yul\":3442:3473   */\n      calldataload\n        /* \"#utility.yul\":3500:3518   */\n      0xffffffffffffffff\n        /* \"#utility.yul\":3492:3498   */\n      dup2\n        /* \"#utility.yul\":3489:3519   */\n      gt\n        /* \"#utility.yul\":3486:3603   */\n      iszero\n      tag_99\n      jumpi\n        /* \"#utility.yul\":3522:3601   */\n      tag_100\n      tag_43\n      jump\t// in\n    tag_100:\n        /* \"#utility.yul\":3486:3603   */\n    tag_99:\n        /* \"#utility.yul\":3627:3690   */\n      tag_101\n        /* \"#utility.yul\":3682:3689   */\n      dup5\n        /* \"#utility.yul\":3673:3679   */\n      dup3\n        /* \"#utility.yul\":3662:3671   */\n      dup6\n        /* \"#utility.yul\":3658:3680   */\n      add\n        /* \"#utility.yul\":3627:3690   */\n      tag_53\n      jump\t// in\n    tag_101:\n        /* \"#utility.yul\":3617:3690   */\n      swap2\n      pop\n        /* \"#utility.yul\":3413:3700   */\n      pop\n        /* \"#utility.yul\":3198:3707   */\n      swap3\n      swap2\n      pop\n      pop\n      jump\t// out\n        /* \"#utility.yul\":3713:3812   */\n    tag_54:\n        /* \"#utility.yul\":3765:3771   */\n      0x00\n        /* \"#utility.yul\":3799:3804   */\n      dup2\n        /* \"#utility.yul\":3793:3805   */\n      mload\n        /* \"#utility.yul\":3783:3805   */\n      swap1\n      pop\n        /* \"#utility.yul\":3713:3812   */\n      swap2\n      swap1\n      pop\n      jump\t// out\n        /* \"#utility.yul\":3818:3987   */\n    tag_55:\n        /* \"#utility.yul\":3902:3913   */\n      0x00\n        /* \"#utility.yul\":3936:3942   */\n      dup3\n        /* \"#utility.yul\":3931:3934   */\n      dup3\n        /* \"#utility.yul\":3924:3943   */\n      mstore\n        /* \"#utility.yul\":3976:3980   */\n      0x20\n        /* \"#utility.yul\":3971:3974   */\n      dup3\n        /* \"#utility.yul\":3967:3981   */\n      add\n        /* \"#utility.yul\":3952:3981   */\n      swap1\n      pop\n        /* \"#utility.yul\":3818:3987   */\n      swap3\n      swap2\n      pop\n      pop\n      jump\t// out\n        /* \"#utility.yul\":3993:4300   */\n    tag_56:\n        /* \"#utility.yul\":4061:4062   */\n      0x00\n        /* \"#utility.yul\":4071:4184   */\n    tag_105:\n        /* \"#utility.yul\":4085:4091   */\n      dup4\n        /* \"#utility.yul\":4082:4083   */\n      dup2\n        /* \"#utility.yul\":4079:4092   */\n      lt\n        /* \"#utility.yul\":4071:4184   */\n      iszero\n      tag_107\n      jumpi\n        /* \"#utility.yul\":4170:4171   */\n      dup1\n        /* \"#utility.yul\":4165:4168   */\n      dup3\n        /* \"#utility.yul\":4161:4172   */\n      add\n        /* \"#utility.yul\":4155:4173   */\n      mload\n        /* \"#utility.yul\":4151:4152   */\n      dup2\n        /* \"#utility.yul\":4146:4149   */\n      dup5\n        /* \"#utility.yul\":4142:4153   */\n      add\n        /* \"#utility.yul\":4135:4174   */\n      mstore\n        /* \"#utility.yul\":4107:4109   */\n      0x20\n        /* \"#utility.yul\":4104:4105   */\n      dup2\n        /* \"#utility.yul\":4100:4110   */\n      add\n        /* \"#utility.yul\":4095:4110   */\n      swap1\n      pop\n        /* \"#utility.yul\":4071:4184   */\n      jump(tag_105)\n    tag_107:\n        /* \"#utility.yul\":4202:4208   */\n      dup4\n        /* \"#utility.yul\":4199:4200   */\n      dup2\n        /* \"#utility.yul\":4196:4209   */\n      gt\n        /* \"#utility.yul\":4193:4294   */\n      iszero\n      tag_108\n      jumpi\n        /* \"#utility.yul\":4282:4283   */\n      0x00\n        /* \"#utility.yul\":4273:4279   */\n      dup5\n        /* \"#utility.yul\":4268:4271   */\n      dup5\n        /* \"#utility.yul\":4264:4280   */\n      add\n        /* \"#utility.yul\":4257:4284   */\n      mstore\n        /* \"#utility.yul\":4193:4294   */\n    tag_108:\n        /* \"#utility.yul\":4042:4300   */\n      pop\n        /* \"#utility.yul\":3993:4300   */\n      pop\n      pop\n      pop\n      jump\t// out\n        /* \"#utility.yul\":4306:4670   */\n    tag_57:\n        /* \"#utility.yul\":4394:4397   */\n      0x00\n        /* \"#utility.yul\":4422:4461   */\n      tag_110\n        /* \"#utility.yul\":4455:4460   */\n      dup3\n        /* \"#utility.yul\":4422:4461   */\n      tag_54\n      jump\t// in\n    tag_110:\n        /* \"#utility.yul\":4477:4548   */\n      tag_111\n        /* \"#utility.yul\":4541:4547   */\n      dup2\n        /* \"#utility.yul\":4536:4539   */\n      dup6\n        /* \"#utility.yul\":4477:4548   */\n      tag_55\n      jump\t// in\n    tag_111:\n        /* \"#utility.yul\":4470:4548   */\n      swap4\n      pop\n        /* \"#utility.yul\":4557:4609   */\n      tag_112\n        /* \"#utility.yul\":4602:4608   */\n      dup2\n        /* \"#utility.yul\":4597:4600   */\n      dup6\n        /* \"#utility.yul\":4590:4594   */\n      0x20\n        /* \"#utility.yul\":4583:4588   */\n      dup7\n        /* \"#utility.yul\":4579:4595   */\n      add\n        /* \"#utility.yul\":4557:4609   */\n      tag_56\n      jump\t// in\n    tag_112:\n        /* \"#utility.yul\":4634:4663   */\n      tag_113\n        /* \"#utility.yul\":4656:4662   */\n      dup2\n        /* \"#utility.yul\":4634:4663   */\n      tag_46\n      jump\t// in\n    tag_113:\n        /* \"#utility.yul\":4629:4632   */\n      dup5\n        /* \"#utility.yul\":4625:4664   */\n      add\n        /* \"#utility.yul\":4618:4664   */\n      swap2\n      pop\n        /* \"#utility.yul\":4398:4670   */\n      pop\n        /* \"#utility.yul\":4306:4670   */\n      swap3\n      swap2\n      pop\n      pop\n      jump\t// out\n        /* \"#utility.yul\":4676:4989   */\n    tag_17:\n        /* \"#utility.yul\":4789:4793   */\n      0x00\n        /* \"#utility.yul\":4827:4829   */\n      0x20\n        /* \"#utility.yul\":4816:4825   */\n      dup3\n        /* \"#utility.yul\":4812:4830   */\n      add\n        /* \"#utility.yul\":4804:4830   */\n      swap1\n      pop\n        /* \"#utility.yul\":4876:4885   */\n      dup2\n        /* \"#utility.yul\":4870:4874   */\n      dup2\n        /* \"#utility.yul\":4866:4886   */\n      sub\n        /* \"#utility.yul\":4862:4863   */\n      0x00\n        /* \"#utility.yul\":4851:4860   */\n      dup4\n        /* \"#utility.yul\":4847:4864   */\n      add\n        /* \"#utility.yul\":4840:4887   */\n      mstore\n        /* \"#utility.yul\":4904:4982   */\n      tag_115\n        /* \"#utility.yul\":4977:4981   */\n      dup2\n        /* \"#utility.yul\":4968:4974   */\n      dup5\n        /* \"#utility.yul\":4904:4982   */\n      tag_57\n      jump\t// in\n    tag_115:\n        /* \"#utility.yul\":4896:4982   */\n      swap1\n      pop\n        /* \"#utility.yul\":4676:4989   */\n      swap3\n      swap2\n      pop\n      pop\n      jump\t// out\n        /* \"#utility.yul\":4995:5175   */\n    tag_58:\n        /* \"#utility.yul\":5043:5120   */\n      0x4e487b7100000000000000000000000000000000000000000000000000000000\n        /* \"#utility.yul\":5040:5041   */\n      0x00\n        /* \"#utility.yul\":5033:5121   */\n      mstore\n        /* \"#utility.yul\":5140:5144   */\n      0x22\n        /* \"#utility.yul\":5137:5138   */\n      0x04\n        /* \"#utility.yul\":5130:5145   */\n      mstore\n        /* \"#utility.yul\":5164:5168   */\n      0x24\n        /* \"#utility.yul\":5161:5162   */\n      0x00\n        /* \"#utility.yul\":5154:5169   */\n      revert\n        /* \"#utility.yul\":5181:5501   */\n    tag_23:\n        /* \"#utility.yul\":5225:5231   */\n      0x00\n        /* \"#utility.yul\":5262:5263   */\n      0x02\n        /* \"#utility.yul\":5256:5260   */\n      dup3\n        /* \"#utility.yul\":5252:5264   */\n      div\n        /* \"#utility.yul\":5242:5264   */\n      swap1\n      pop\n        /* \"#utility.yul\":5309:5310   */\n      0x01\n        /* \"#utility.yul\":5303:5307   */\n      dup3\n        /* \"#utility.yul\":5299:5311   */\n      and\n        /* \"#utility.yul\":5330:5348   */\n      dup1\n        /* \"#utility.yul\":5320:5401   */\n      tag_118\n      jumpi\n        /* \"#utility.yul\":5386:5390   */\n      0x7f\n        /* \"#utility.yul\":5378:5384   */\n      dup3\n        /* \"#utility.yul\":5374:5391   */\n      and\n        /* \"#utility.yul\":5364:5391   */\n      swap2\n      pop\n        /* \"#utility.yul\":5320:5401   */\n    tag_118:\n        /* \"#utility.yul\":5448:5450   */\n      0x20\n        /* \"#utility.yul\":5440:5446   */\n      dup3\n        /* \"#utility.yul\":5437:5451   */\n      lt\n        /* \"#utility.yul\":5417:5435   */\n      dup2\n        /* \"#utility.yul\":5414:5452   */\n      sub\n        /* \"#utility.yul\":5411:5495   */\n      tag_119\n      jumpi\n        /* \"#utility.yul\":5467:5485   */\n      tag_120\n      tag_58\n      jump\t// in\n    tag_120:\n        /* \"#utility.yul\":5411:5495   */\n    tag_119:\n        /* \"#utility.yul\":5232:5501   */\n      pop\n        /* \"#utility.yul\":5181:5501   */\n      swap2\n      swap1\n      pop\n      jump\t// out\n\n    auxdata: 0xa264697066735822122059a8dcc96500e5b11a698bbce3894945dca98964967df438f9517ba23cf7bd7064736f6c634300080d0033\n}\n",
				"bytecode": {
					"linkReferences": {},
					"object": "608060405234801561001057600080fd5b50610550806100206000396000f3fe608060405234801561001057600080fd5b50600436106100415760003560e01c8063a541a2a214610046578063a8b93c8d14610064578063f020cd1914610080575b600080fd5b61004e61009e565b60405161005b9190610252565b60405180910390f35b61007e600480360381019061007991906103c7565b6100c2565b005b6100886100dc565b6040516100959190610498565b60405180910390f35b60008054906101000a900473ffffffffffffffffffffffffffffffffffffffff1681565b80600190805190602001906100d892919061016e565b5050565b6060600180546100eb906104e9565b80601f0160208091040260200160405190810160405280929190818152602001828054610117906104e9565b80156101645780601f1061013957610100808354040283529160200191610164565b820191906000526020600020905b81548152906001019060200180831161014757829003601f168201915b5050505050905090565b82805461017a906104e9565b90600052602060002090601f01602090048101928261019c57600085556101e3565b82601f106101b557805160ff19168380011785556101e3565b828001600101855582156101e3579182015b828111156101e25782518255916020019190600101906101c7565b5b5090506101f091906101f4565b5090565b5b8082111561020d5760008160009055506001016101f5565b5090565b600073ffffffffffffffffffffffffffffffffffffffff82169050919050565b600061023c82610211565b9050919050565b61024c81610231565b82525050565b60006020820190506102676000830184610243565b92915050565b6000604051905090565b600080fd5b600080fd5b600080fd5b600080fd5b6000601f19601f8301169050919050565b7f4e487b7100000000000000000000000000000000000000000000000000000000600052604160045260246000fd5b6102d48261028b565b810181811067ffffffffffffffff821117156102f3576102f261029c565b5b80604052505050565b600061030661026d565b905061031282826102cb565b919050565b600067ffffffffffffffff8211156103325761033161029c565b5b61033b8261028b565b9050602081019050919050565b82818337600083830152505050565b600061036a61036584610317565b6102fc565b90508281526020810184848401111561038657610385610286565b5b610391848285610348565b509392505050565b600082601f8301126103ae576103ad610281565b5b81356103be848260208601610357565b91505092915050565b6000602082840312156103dd576103dc610277565b5b600082013567ffffffffffffffff8111156103fb576103fa61027c565b5b61040784828501610399565b91505092915050565b600081519050919050565b600082825260208201905092915050565b60005b8381101561044a57808201518184015260208101905061042f565b83811115610459576000848401525b50505050565b600061046a82610410565b610474818561041b565b935061048481856020860161042c565b61048d8161028b565b840191505092915050565b600060208201905081810360008301526104b2818461045f565b905092915050565b7f4e487b7100000000000000000000000000000000000000000000000000000000600052602260045260246000fd5b6000600282049050600182168061050157607f821691505b602082108103610514576105136104ba565b5b5091905056fea264697066735822122059a8dcc96500e5b11a698bbce3894945dca98964967df438f9517ba23cf7bd7064736f6c634300080d0033",
					"opcodes": "PUSH1 0x80 PUSH1 0x40 MSTORE CALLVALUE DUP1 ISZERO PUSH2 0x10 JUMPI PUSH1 0x0 DUP1 REVERT JUMPDEST POP PUSH2 0x550 DUP1 PUSH2 0x20 PUSH1 0x0 CODECOPY PUSH1 0x0 RETURN INVALID PUSH1 0x80 PUSH1 0x40 MSTORE CALLVALUE DUP1 ISZERO PUSH2 0x10 JUMPI PUSH1 0x0 DUP1 REVERT JUMPDEST POP PUSH1 0x4 CALLDATASIZE LT PUSH2 0x41 JUMPI PUSH1 0x0 CALLDATALOAD PUSH1 0xE0 SHR DUP1 PUSH4 0xA541A2A2 EQ PUSH2 0x46 JUMPI DUP1 PUSH4 0xA8B93C8D EQ PUSH2 0x64 JUMPI DUP1 PUSH4 0xF020CD19 EQ PUSH2 0x80 JUMPI JUMPDEST PUSH1 0x0 DUP1 REVERT JUMPDEST PUSH2 0x4E PUSH2 0x9E JUMP JUMPDEST PUSH1 0x40 MLOAD PUSH2 0x5B SWAP2 SWAP1 PUSH2 0x252 JUMP JUMPDEST PUSH1 0x40 MLOAD DUP1 SWAP2 SUB SWAP1 RETURN JUMPDEST PUSH2 0x7E PUSH1 0x4 DUP1 CALLDATASIZE SUB DUP2 ADD SWAP1 PUSH2 0x79 SWAP2 SWAP1 PUSH2 0x3C7 JUMP JUMPDEST PUSH2 0xC2 JUMP JUMPDEST STOP JUMPDEST PUSH2 0x88 PUSH2 0xDC JUMP JUMPDEST PUSH1 0x40 MLOAD PUSH2 0x95 SWAP2 SWAP1 PUSH2 0x498 JUMP JUMPDEST PUSH1 0x40 MLOAD DUP1 SWAP2 SUB SWAP1 RETURN JUMPDEST PUSH1 0x0 DUP1 SLOAD SWAP1 PUSH2 0x100 EXP SWAP1 DIV PUSH20 0xFFFFFFFFFFFFFFFFFFFFFFFFFFFFFFFFFFFFFFFF AND DUP2 JUMP JUMPDEST DUP1 PUSH1 0x1 SWAP1 DUP1 MLOAD SWAP1 PUSH1 0x20 ADD SWAP1 PUSH2 0xD8 SWAP3 SWAP2 SWAP1 PUSH2 0x16E JUMP JUMPDEST POP POP JUMP JUMPDEST PUSH1 0x60 PUSH1 0x1 DUP1 SLOAD PUSH2 0xEB SWAP1 PUSH2 0x4E9 JUMP JUMPDEST DUP1 PUSH1 0x1F ADD PUSH1 0x20 DUP1 SWAP2 DIV MUL PUSH1 0x20 ADD PUSH1 0x40 MLOAD SWAP1 DUP2 ADD PUSH1 0x40 MSTORE DUP1 SWAP3 SWAP2 SWAP1 DUP2 DUP2 MSTORE PUSH1 0x20 ADD DUP3 DUP1 SLOAD PUSH2 0x117 SWAP1 PUSH2 0x4E9 JUMP JUMPDEST DUP1 ISZERO PUSH2 0x164 JUMPI DUP1 PUSH1 0x1F LT PUSH2 0x139 JUMPI PUSH2 0x100 DUP1 DUP4 SLOAD DIV MUL DUP4 MSTORE SWAP2 PUSH1 0x20 ADD SWAP2 PUSH2 0x164 JUMP JUMPDEST DUP3 ADD SWAP2 SWAP1 PUSH1 0x0 MSTORE PUSH1 0x20 PUSH1 0x0 KECCAK256 SWAP1 JUMPDEST DUP2 SLOAD DUP2 MSTORE SWAP1 PUSH1 0x1 ADD SWAP1 PUSH1 0x20 ADD DUP1 DUP4 GT PUSH2 0x147 JUMPI DUP3 SWAP1 SUB PUSH1 0x1F AND DUP3 ADD SWAP2 JUMPDEST POP POP POP POP POP SWAP1 POP SWAP1 JUMP JUMPDEST DUP3 DUP1 SLOAD PUSH2 0x17A SWAP1 PUSH2 0x4E9 JUMP JUMPDEST SWAP1 PUSH1 0x0 MSTORE PUSH1 0x20 PUSH1 0x0 KECCAK256 SWAP1 PUSH1 0x1F ADD PUSH1 0x20 SWAP1 DIV DUP2 ADD SWAP3 DUP3 PUSH2 0x19C JUMPI PUSH1 0x0 DUP6 SSTORE PUSH2 0x1E3 JUMP JUMPDEST DUP3 PUSH1 0x1F LT PUSH2 0x1B5 JUMPI DUP1 MLOAD PUSH1 0xFF NOT AND DUP4 DUP1 ADD OR DUP6 SSTORE PUSH2 0x1E3 JUMP JUMPDEST DUP3 DUP1 ADD PUSH1 0x1 ADD DUP6 SSTORE DUP3 ISZERO PUSH2 0x1E3 JUMPI SWAP2 DUP3 ADD JUMPDEST DUP3 DUP2 GT ISZERO PUSH2 0x1E2 JUMPI DUP3 MLOAD DUP3 SSTORE SWAP2 PUSH1 0x20 ADD SWAP2 SWAP1 PUSH1 0x1 ADD SWAP1 PUSH2 0x1C7 JUMP JUMPDEST JUMPDEST POP SWAP1 POP PUSH2 0x1F0 SWAP2 SWAP1 PUSH2 0x1F4 JUMP JUMPDEST POP SWAP1 JUMP JUMPDEST JUMPDEST DUP1 DUP3 GT ISZERO PUSH2 0x20D JUMPI PUSH1 0x0 DUP2 PUSH1 0x0 SWAP1 SSTORE POP PUSH1 0x1 ADD PUSH2 0x1F5 JUMP JUMPDEST POP SWAP1 JUMP JUMPDEST PUSH1 0x0 PUSH20 0xFFFFFFFFFFFFFFFFFFFFFFFFFFFFFFFFFFFFFFFF DUP3 AND SWAP1 POP SWAP2 SWAP1 POP JUMP JUMPDEST PUSH1 0x0 PUSH2 0x23C DUP3 PUSH2 0x211 JUMP JUMPDEST SWAP1 POP SWAP2 SWAP1 POP JUMP JUMPDEST PUSH2 0x24C DUP2 PUSH2 0x231 JUMP JUMPDEST DUP3 MSTORE POP POP JUMP JUMPDEST PUSH1 0x0 PUSH1 0x20 DUP3 ADD SWAP1 POP PUSH2 0x267 PUSH1 0x0 DUP4 ADD DUP5 PUSH2 0x243 JUMP JUMPDEST SWAP3 SWAP2 POP POP JUMP JUMPDEST PUSH1 0x0 PUSH1 0x40 MLOAD SWAP1 POP SWAP1 JUMP JUMPDEST PUSH1 0x0 DUP1 REVERT JUMPDEST PUSH1 0x0 DUP1 REVERT JUMPDEST PUSH1 0x0 DUP1 REVERT JUMPDEST PUSH1 0x0 DUP1 REVERT JUMPDEST PUSH1 0x0 PUSH1 0x1F NOT PUSH1 0x1F DUP4 ADD AND SWAP1 POP SWAP2 SWAP1 POP JUMP JUMPDEST PUSH32 0x4E487B7100000000000000000000000000000000000000000000000000000000 PUSH1 0x0 MSTORE PUSH1 0x41 PUSH1 0x4 MSTORE PUSH1 0x24 PUSH1 0x0 REVERT JUMPDEST PUSH2 0x2D4 DUP3 PUSH2 0x28B JUMP JUMPDEST DUP2 ADD DUP2 DUP2 LT PUSH8 0xFFFFFFFFFFFFFFFF DUP3 GT OR ISZERO PUSH2 0x2F3 JUMPI PUSH2 0x2F2 PUSH2 0x29C JUMP JUMPDEST JUMPDEST DUP1 PUSH1 0x40 MSTORE POP POP POP JUMP JUMPDEST PUSH1 0x0 PUSH2 0x306 PUSH2 0x26D JUMP JUMPDEST SWAP1 POP PUSH2 0x312 DUP3 DUP3 PUSH2 0x2CB JUMP JUMPDEST SWAP2 SWAP1 POP JUMP JUMPDEST PUSH1 0x0 PUSH8 0xFFFFFFFFFFFFFFFF DUP3 GT ISZERO PUSH2 0x332 JUMPI PUSH2 0x331 PUSH2 0x29C JUMP JUMPDEST JUMPDEST PUSH2 0x33B DUP3 PUSH2 0x28B JUMP JUMPDEST SWAP1 POP PUSH1 0x20 DUP2 ADD SWAP1 POP SWAP2 SWAP1 POP JUMP JUMPDEST DUP3 DUP2 DUP4 CALLDATACOPY PUSH1 0x0 DUP4 DUP4 ADD MSTORE POP POP POP JUMP JUMPDEST PUSH1 0x0 PUSH2 0x36A PUSH2 0x365 DUP5 PUSH2 0x317 JUMP JUMPDEST PUSH2 0x2FC JUMP JUMPDEST SWAP1 POP DUP3 DUP2 MSTORE PUSH1 0x20 DUP2 ADD DUP5 DUP5 DUP5 ADD GT ISZERO PUSH2 0x386 JUMPI PUSH2 0x385 PUSH2 0x286 JUMP JUMPDEST JUMPDEST PUSH2 0x391 DUP5 DUP3 DUP6 PUSH2 0x348 JUMP JUMPDEST POP SWAP4 SWAP3 POP POP POP JUMP JUMPDEST PUSH1 0x0 DUP3 PUSH1 0x1F DUP4 ADD SLT PUSH2 0x3AE JUMPI PUSH2 0x3AD PUSH2 0x281 JUMP JUMPDEST JUMPDEST DUP2 CALLDATALOAD PUSH2 0x3BE DUP5 DUP3 PUSH1 0x20 DUP7 ADD PUSH2 0x357 JUMP JUMPDEST SWAP2 POP POP SWAP3 SWAP2 POP POP JUMP JUMPDEST PUSH1 0x0 PUSH1 0x20 DUP3 DUP5 SUB SLT ISZERO PUSH2 0x3DD JUMPI PUSH2 0x3DC PUSH2 0x277 JUMP JUMPDEST JUMPDEST PUSH1 0x0 DUP3 ADD CALLDATALOAD PUSH8 0xFFFFFFFFFFFFFFFF DUP2 GT ISZERO PUSH2 0x3FB JUMPI PUSH2 0x3FA PUSH2 0x27C JUMP JUMPDEST JUMPDEST PUSH2 0x407 DUP5 DUP3 DUP6 ADD PUSH2 0x399 JUMP JUMPDEST SWAP2 POP POP SWAP3 SWAP2 POP POP JUMP JUMPDEST PUSH1 0x0 DUP2 MLOAD SWAP1 POP SWAP2 SWAP1 POP JUMP JUMPDEST PUSH1 0x0 DUP3 DUP3 MSTORE PUSH1 0x20 DUP3 ADD SWAP1 POP SWAP3 SWAP2 POP POP JUMP JUMPDEST PUSH1 0x0 JUMPDEST DUP4 DUP2 LT ISZERO PUSH2 0x44A JUMPI DUP1 DUP3 ADD MLOAD DUP2 DUP5 ADD MSTORE PUSH1 0x20 DUP2 ADD SWAP1 POP PUSH2 0x42F JUMP JUMPDEST DUP4 DUP2 GT ISZERO PUSH2 0x459 JUMPI PUSH1 0x0 DUP5 DUP5 ADD MSTORE JUMPDEST POP POP POP POP JUMP JUMPDEST PUSH1 0x0 PUSH2 0x46A DUP3 PUSH2 0x410 JUMP JUMPDEST PUSH2 0x474 DUP2 DUP6 PUSH2 0x41B JUMP JUMPDEST SWAP4 POP PUSH2 0x484 DUP2 DUP6 PUSH1 0x20 DUP7 ADD PUSH2 0x42C JUMP JUMPDEST PUSH2 0x48D DUP2 PUSH2 0x28B JUMP JUMPDEST DUP5 ADD SWAP2 POP POP SWAP3 SWAP2 POP POP JUMP JUMPDEST PUSH1 0x0 PUSH1 0x20 DUP3 ADD SWAP1 POP DUP2 DUP2 SUB PUSH1 0x0 DUP4 ADD MSTORE PUSH2 0x4B2 DUP2 DUP5 PUSH2 0x45F JUMP JUMPDEST SWAP1 POP SWAP3 SWAP2 POP POP JUMP JUMPDEST PUSH32 0x4E487B7100000000000000000000000000000000000000000000000000000000 PUSH1 0x0 MSTORE PUSH1 0x22 PUSH1 0x4 MSTORE PUSH1 0x24 PUSH1 0x0 REVERT JUMPDEST PUSH1 0x0 PUSH1 0x2 DUP3 DIV SWAP1 POP PUSH1 0x1 DUP3 AND DUP1 PUSH2 0x501 JUMPI PUSH1 0x7F DUP3 AND SWAP2 POP JUMPDEST PUSH1 0x20 DUP3 LT DUP2 SUB PUSH2 0x514 JUMPI PUSH2 0x513 PUSH2 0x4BA JUMP JUMPDEST JUMPDEST POP SWAP2 SWAP1 POP JUMP INVALID LOG2 PUSH5 0x6970667358 0x22 SLT KECCAK256 MSIZE 0xA8 0xDC 0xC9 PUSH6 0xE5B11A698B 0xBC 0xE3 DUP10 0x49 GASLIMIT 0xDC 0xA9 DUP10 PUSH5 0x967DF438F9 MLOAD PUSH28 0xA23CF7BD7064736F6C634300080D0033000000000000000000000000 "
				},
				"gasEstimates": {
					"creation": {
						"codeDepositCost": "272000",
						"executionCost": "312",
						"totalCost": "272312"
					},
					"external": {
						"getProjectTitle()": "infinite",
						"projectCreator()": "2489",
						"setProjectTitle(string)": "infinite"
					}
				},
				"methodIdentifiers": {
					"getProjectTitle()": "f020cd19",
					"projectCreator()": "a541a2a2",
					"setProjectTitle(string)": "a8b93c8d"
				}
			},
			"storageLayout": {
				"storage": [
					{
						"astId": 66,
						"contract": "contracts/Project.sol:Project",
						"label": "projectCreator",
						"offset": 0,
						"slot": "0",
						"type": "t_address_payable"
					},
					{
						"astId": 68,
						"contract": "contracts/Project.sol:Project",
						"label": "projectTitle",
						"offset": 0,
						"slot": "1",
						"type": "t_string_storage"
					},
					{
						"astId": 70,
						"contract": "contracts/Project.sol:Project",
						"label": "projectDescription",
						"offset": 0,
						"slot": "2",
						"type": "t_string_storage"
					},
					{
						"astId": 72,
						"contract": "contracts/Project.sol:Project",
						"label": "amountGoal",
						"offset": 0,
						"slot": "3",
						"type": "t_uint256"
					},
					{
						"astId": 74,
						"contract": "contracts/Project.sol:Project",
						"label": "currentBalance",
						"offset": 0,
						"slot": "4",
						"type": "t_uint256"
					},
					{
						"astId": 77,
						"contract": "contracts/Project.sol:Project",
						"label": "state",
						"offset": 0,
						"slot": "5",
						"type": "t_enum(State)64"
					},
					{
						"astId": 79,
						"contract": "contracts/Project.sol:Project",
						"label": "nbDays",
						"offset": 0,
						"slot": "6",
						"type": "t_uint256"
					},
					{
						"astId": 83,
						"contract": "contracts/Project.sol:Project",
						"label": "contributions",
						"offset": 0,
						"slot": "7",
						"type": "t_mapping(t_address,t_uint256)"
					}
				],
				"types": {
					"t_address": {
						"encoding": "inplace",
						"label": "address",
						"numberOfBytes": "20"
					},
					"t_address_payable": {
						"encoding": "inplace",
						"label": "address payable",
						"numberOfBytes": "20"
					},
					"t_enum(State)64": {
						"encoding": "inplace",
						"label": "enum Project.State",
						"numberOfBytes": "1"
					},
					"t_mapping(t_address,t_uint256)": {
						"encoding": "mapping",
						"key": "t_address",
						"label": "mapping(address => uint256)",
						"numberOfBytes": "32",
						"value": "t_uint256"
					},
					"t_string_storage": {
						"encoding": "bytes",
						"label": "string",
						"numberOfBytes": "32"
					},
					"t_uint256": {
						"encoding": "inplace",
						"label": "uint256",
						"numberOfBytes": "32"
					}
				}
			},
			"userdoc": {
				"kind": "user",
				"methods": {},
				"version": 1
			}
		}
	}
}