{
	"contracts/Crowfunding.sol": {
		"Crowfunding": {
			"abi": [
				{
					"inputs": [
						{
							"internalType": "address",
							"name": "_address",
							"type": "address"
						}
					],
					"name": "getProjectByAddressCreator",
					"outputs": [
						{
							"internalType": "contract Project",
							"name": "",
							"type": "address"
						}
					],
					"stateMutability": "view",
					"type": "function"
				},
				{
					"inputs": [],
					"name": "returnAllProjects",
					"outputs": [
						{
							"internalType": "contract Project[]",
							"name": "",
							"type": "address[]"
						}
					],
					"stateMutability": "view",
					"type": "function"
				}
			],
			"devdoc": {
				"kind": "dev",
				"methods": {
					"returnAllProjects()": {
						"details": "Function to get all projects' contract addresses.",
						"returns": {
							"_0": "A list of all projects' contract addreses"
						}
					}
				},
				"version": 1
			},
			"evm": {
				"assembly": "    /* \"contracts/Crowfunding.sol\":250:845  contract Crowfunding {... */\n  mstore(0x40, 0x80)\n  callvalue\n  dup1\n  iszero\n  tag_1\n  jumpi\n  0x00\n  dup1\n  revert\ntag_1:\n  pop\n  dataSize(sub_0)\n  dup1\n  dataOffset(sub_0)\n  0x00\n  codecopy\n  0x00\n  return\nstop\n\nsub_0: assembly {\n        /* \"contracts/Crowfunding.sol\":250:845  contract Crowfunding {... */\n      mstore(0x40, 0x80)\n      callvalue\n      dup1\n      iszero\n      tag_1\n      jumpi\n      0x00\n      dup1\n      revert\n    tag_1:\n      pop\n      jumpi(tag_2, lt(calldatasize, 0x04))\n      shr(0xe0, calldataload(0x00))\n      dup1\n      0x4bf28d9e\n      eq\n      tag_3\n      jumpi\n      dup1\n      0x85b6e28e\n      eq\n      tag_4\n      jumpi\n    tag_2:\n      0x00\n      dup1\n      revert\n        /* \"contracts/Crowfunding.sol\":551:839  function getProjectByAddressCreator(address _address) external view returns (Project) {... */\n    tag_3:\n      tag_5\n      0x04\n      dup1\n      calldatasize\n      sub\n      dup2\n      add\n      swap1\n      tag_6\n      swap2\n      swap1\n      tag_7\n      jump\t// in\n    tag_6:\n      tag_8\n      jump\t// in\n    tag_5:\n      mload(0x40)\n      tag_9\n      swap2\n      swap1\n      tag_10\n      jump\t// in\n    tag_9:\n      mload(0x40)\n      dup1\n      swap2\n      sub\n      swap1\n      return\n        /* \"contracts/Crowfunding.sol\":444:544  function returnAllProjects() external view returns(Project[] memory){... */\n    tag_4:\n      tag_11\n      tag_12\n      jump\t// in\n    tag_11:\n      mload(0x40)\n      tag_13\n      swap2\n      swap1\n      tag_14\n      jump\t// in\n    tag_13:\n      mload(0x40)\n      dup1\n      swap2\n      sub\n      swap1\n      return\n        /* \"contracts/Crowfunding.sol\":551:839  function getProjectByAddressCreator(address _address) external view returns (Project) {... */\n    tag_8:\n        /* \"contracts/Crowfunding.sol\":628:635  Project */\n      0x00\n        /* \"contracts/Crowfunding.sol\":650:656  uint i */\n      dup1\n        /* \"contracts/Crowfunding.sol\":657:658  0 */\n      0x00\n        /* \"contracts/Crowfunding.sol\":650:658  uint i=0 */\n      swap1\n      pop\n        /* \"contracts/Crowfunding.sol\":646:798  for(uint i=0; i<projects.length; i++){... */\n    tag_16:\n        /* \"contracts/Crowfunding.sol\":662:670  projects */\n      0x00\n        /* \"contracts/Crowfunding.sol\":662:677  projects.length */\n      dup1\n      sload\n      swap1\n      pop\n        /* \"contracts/Crowfunding.sol\":660:661  i */\n      dup2\n        /* \"contracts/Crowfunding.sol\":660:677  i<projects.length */\n      lt\n        /* \"contracts/Crowfunding.sol\":646:798  for(uint i=0; i<projects.length; i++){... */\n      iszero\n      tag_17\n      jumpi\n        /* \"contracts/Crowfunding.sol\":731:739  _address */\n      dup3\n        /* \"contracts/Crowfunding.sol\":699:739  projects[i].projectCreator() == _address */\n      0xffffffffffffffffffffffffffffffffffffffff\n      and\n        /* \"contracts/Crowfunding.sol\":699:707  projects */\n      0x00\n        /* \"contracts/Crowfunding.sol\":708:709  i */\n      dup3\n        /* \"contracts/Crowfunding.sol\":699:710  projects[i] */\n      dup2\n      sload\n      dup2\n      lt\n      tag_19\n      jumpi\n      tag_20\n      tag_21\n      jump\t// in\n    tag_20:\n    tag_19:\n      swap1\n      0x00\n      mstore\n      keccak256(0x00, 0x20)\n      add\n      0x00\n      swap1\n      sload\n      swap1\n      0x0100\n      exp\n      swap1\n      div\n      0xffffffffffffffffffffffffffffffffffffffff\n      and\n        /* \"contracts/Crowfunding.sol\":699:725  projects[i].projectCreator */\n      0xffffffffffffffffffffffffffffffffffffffff\n      and\n      0xa541a2a2\n        /* \"contracts/Crowfunding.sol\":699:727  projects[i].projectCreator() */\n      mload(0x40)\n      dup2\n      0xffffffff\n      and\n      0xe0\n      shl\n      dup2\n      mstore\n      0x04\n      add\n      0x20\n      mload(0x40)\n      dup1\n      dup4\n      sub\n      dup2\n      dup7\n      gas\n      staticcall\n      iszero\n      dup1\n      iszero\n      tag_24\n      jumpi\n      returndatasize\n      0x00\n      dup1\n      returndatacopy\n      revert(0x00, returndatasize)\n    tag_24:\n      pop\n      pop\n      pop\n      pop\n      mload(0x40)\n      returndatasize\n      not(0x1f)\n      0x1f\n      dup3\n      add\n      and\n      dup3\n      add\n      dup1\n      0x40\n      mstore\n      pop\n      dup2\n      add\n      swap1\n      tag_25\n      swap2\n      swap1\n      tag_26\n      jump\t// in\n    tag_25:\n        /* \"contracts/Crowfunding.sol\":699:739  projects[i].projectCreator() == _address */\n      0xffffffffffffffffffffffffffffffffffffffff\n      and\n      sub\n        /* \"contracts/Crowfunding.sol\":696:789  if(projects[i].projectCreator() == _address){... */\n      tag_27\n      jumpi\n        /* \"contracts/Crowfunding.sol\":764:772  projects */\n      0x00\n        /* \"contracts/Crowfunding.sol\":773:774  i */\n      dup2\n        /* \"contracts/Crowfunding.sol\":764:775  projects[i] */\n      dup2\n      sload\n      dup2\n      lt\n      tag_28\n      jumpi\n      tag_29\n      tag_21\n      jump\t// in\n    tag_29:\n    tag_28:\n      swap1\n      0x00\n      mstore\n      keccak256(0x00, 0x20)\n      add\n      0x00\n      swap1\n      sload\n      swap1\n      0x0100\n      exp\n      swap1\n      div\n      0xffffffffffffffffffffffffffffffffffffffff\n      and\n        /* \"contracts/Crowfunding.sol\":757:775  return projects[i] */\n      swap2\n      pop\n      pop\n      jump(tag_15)\n        /* \"contracts/Crowfunding.sol\":696:789  if(projects[i].projectCreator() == _address){... */\n    tag_27:\n        /* \"contracts/Crowfunding.sol\":679:682  i++ */\n      dup1\n      dup1\n      tag_31\n      swap1\n      tag_32\n      jump\t// in\n    tag_31:\n      swap2\n      pop\n      pop\n        /* \"contracts/Crowfunding.sol\":646:798  for(uint i=0; i<projects.length; i++){... */\n      jump(tag_16)\n    tag_17:\n      pop\n        /* \"contracts/Crowfunding.sol\":821:829  projects */\n      0x00\n        /* \"contracts/Crowfunding.sol\":830:831  1 */\n      0x01\n        /* \"contracts/Crowfunding.sol\":821:832  projects[1] */\n      dup2\n      sload\n      dup2\n      lt\n      tag_33\n      jumpi\n      tag_34\n      tag_21\n      jump\t// in\n    tag_34:\n    tag_33:\n      swap1\n      0x00\n      mstore\n      keccak256(0x00, 0x20)\n      add\n      0x00\n      swap1\n      sload\n      swap1\n      0x0100\n      exp\n      swap1\n      div\n      0xffffffffffffffffffffffffffffffffffffffff\n      and\n        /* \"contracts/Crowfunding.sol\":814:832  return projects[1] */\n      swap1\n      pop\n        /* \"contracts/Crowfunding.sol\":551:839  function getProjectByAddressCreator(address _address) external view returns (Project) {... */\n    tag_15:\n      swap2\n      swap1\n      pop\n      jump\t// out\n        /* \"contracts/Crowfunding.sol\":444:544  function returnAllProjects() external view returns(Project[] memory){... */\n    tag_12:\n        /* \"contracts/Crowfunding.sol\":495:511  Project[] memory */\n      0x60\n        /* \"contracts/Crowfunding.sol\":529:537  projects */\n      0x00\n        /* \"contracts/Crowfunding.sol\":522:537  return projects */\n      dup1\n      sload\n      dup1\n      0x20\n      mul\n      0x20\n      add\n      mload(0x40)\n      swap1\n      dup2\n      add\n      0x40\n      mstore\n      dup1\n      swap3\n      swap2\n      swap1\n      dup2\n      dup2\n      mstore\n      0x20\n      add\n      dup3\n      dup1\n      sload\n      dup1\n      iszero\n      tag_37\n      jumpi\n      0x20\n      mul\n      dup3\n      add\n      swap2\n      swap1\n      0x00\n      mstore\n      keccak256(0x00, 0x20)\n      swap1\n    tag_38:\n      dup2\n      0x00\n      swap1\n      sload\n      swap1\n      0x0100\n      exp\n      swap1\n      div\n      0xffffffffffffffffffffffffffffffffffffffff\n      and\n      0xffffffffffffffffffffffffffffffffffffffff\n      and\n      dup2\n      mstore\n      0x20\n      add\n      swap1\n      0x01\n      add\n      swap1\n      dup1\n      dup4\n      gt\n      tag_38\n      jumpi\n    tag_37:\n      pop\n      pop\n      pop\n      pop\n      pop\n      swap1\n      pop\n        /* \"contracts/Crowfunding.sol\":444:544  function returnAllProjects() external view returns(Project[] memory){... */\n      swap1\n      jump\t// out\n        /* \"#utility.yul\":88:205   */\n    tag_40:\n        /* \"#utility.yul\":197:198   */\n      0x00\n        /* \"#utility.yul\":194:195   */\n      dup1\n        /* \"#utility.yul\":187:199   */\n      revert\n        /* \"#utility.yul\":334:460   */\n    tag_42:\n        /* \"#utility.yul\":371:378   */\n      0x00\n        /* \"#utility.yul\":411:453   */\n      0xffffffffffffffffffffffffffffffffffffffff\n        /* \"#utility.yul\":404:409   */\n      dup3\n        /* \"#utility.yul\":400:454   */\n      and\n        /* \"#utility.yul\":389:454   */\n      swap1\n      pop\n        /* \"#utility.yul\":334:460   */\n      swap2\n      swap1\n      pop\n      jump\t// out\n        /* \"#utility.yul\":466:562   */\n    tag_43:\n        /* \"#utility.yul\":503:510   */\n      0x00\n        /* \"#utility.yul\":532:556   */\n      tag_69\n        /* \"#utility.yul\":550:555   */\n      dup3\n        /* \"#utility.yul\":532:556   */\n      tag_42\n      jump\t// in\n    tag_69:\n        /* \"#utility.yul\":521:556   */\n      swap1\n      pop\n        /* \"#utility.yul\":466:562   */\n      swap2\n      swap1\n      pop\n      jump\t// out\n        /* \"#utility.yul\":568:690   */\n    tag_44:\n        /* \"#utility.yul\":641:665   */\n      tag_71\n        /* \"#utility.yul\":659:664   */\n      dup2\n        /* \"#utility.yul\":641:665   */\n      tag_43\n      jump\t// in\n    tag_71:\n        /* \"#utility.yul\":634:639   */\n      dup2\n        /* \"#utility.yul\":631:666   */\n      eq\n        /* \"#utility.yul\":621:684   */\n      tag_72\n      jumpi\n        /* \"#utility.yul\":680:681   */\n      0x00\n        /* \"#utility.yul\":677:678   */\n      dup1\n        /* \"#utility.yul\":670:682   */\n      revert\n        /* \"#utility.yul\":621:684   */\n    tag_72:\n        /* \"#utility.yul\":568:690   */\n      pop\n      jump\t// out\n        /* \"#utility.yul\":696:835   */\n    tag_45:\n        /* \"#utility.yul\":742:747   */\n      0x00\n        /* \"#utility.yul\":780:786   */\n      dup2\n        /* \"#utility.yul\":767:787   */\n      calldataload\n        /* \"#utility.yul\":758:787   */\n      swap1\n      pop\n        /* \"#utility.yul\":796:829   */\n      tag_74\n        /* \"#utility.yul\":823:828   */\n      dup2\n        /* \"#utility.yul\":796:829   */\n      tag_44\n      jump\t// in\n    tag_74:\n        /* \"#utility.yul\":696:835   */\n      swap3\n      swap2\n      pop\n      pop\n      jump\t// out\n        /* \"#utility.yul\":841:1170   */\n    tag_7:\n        /* \"#utility.yul\":900:906   */\n      0x00\n        /* \"#utility.yul\":949:951   */\n      0x20\n        /* \"#utility.yul\":937:946   */\n      dup3\n        /* \"#utility.yul\":928:935   */\n      dup5\n        /* \"#utility.yul\":924:947   */\n      sub\n        /* \"#utility.yul\":920:952   */\n      slt\n        /* \"#utility.yul\":917:1036   */\n      iszero\n      tag_76\n      jumpi\n        /* \"#utility.yul\":955:1034   */\n      tag_77\n      tag_40\n      jump\t// in\n    tag_77:\n        /* \"#utility.yul\":917:1036   */\n    tag_76:\n        /* \"#utility.yul\":1075:1076   */\n      0x00\n        /* \"#utility.yul\":1100:1153   */\n      tag_78\n        /* \"#utility.yul\":1145:1152   */\n      dup5\n        /* \"#utility.yul\":1136:1142   */\n      dup3\n        /* \"#utility.yul\":1125:1134   */\n      dup6\n        /* \"#utility.yul\":1121:1143   */\n      add\n        /* \"#utility.yul\":1100:1153   */\n      tag_45\n      jump\t// in\n    tag_78:\n        /* \"#utility.yul\":1090:1153   */\n      swap2\n      pop\n        /* \"#utility.yul\":1046:1163   */\n      pop\n        /* \"#utility.yul\":841:1170   */\n      swap3\n      swap2\n      pop\n      pop\n      jump\t// out\n        /* \"#utility.yul\":1176:1236   */\n    tag_46:\n        /* \"#utility.yul\":1204:1207   */\n      0x00\n        /* \"#utility.yul\":1225:1230   */\n      dup2\n        /* \"#utility.yul\":1218:1230   */\n      swap1\n      pop\n        /* \"#utility.yul\":1176:1236   */\n      swap2\n      swap1\n      pop\n      jump\t// out\n        /* \"#utility.yul\":1242:1384   */\n    tag_47:\n        /* \"#utility.yul\":1292:1301   */\n      0x00\n        /* \"#utility.yul\":1325:1378   */\n      tag_81\n        /* \"#utility.yul\":1343:1377   */\n      tag_82\n        /* \"#utility.yul\":1352:1376   */\n      tag_83\n        /* \"#utility.yul\":1370:1375   */\n      dup5\n        /* \"#utility.yul\":1352:1376   */\n      tag_42\n      jump\t// in\n    tag_83:\n        /* \"#utility.yul\":1343:1377   */\n      tag_46\n      jump\t// in\n    tag_82:\n        /* \"#utility.yul\":1325:1378   */\n      tag_42\n      jump\t// in\n    tag_81:\n        /* \"#utility.yul\":1312:1378   */\n      swap1\n      pop\n        /* \"#utility.yul\":1242:1384   */\n      swap2\n      swap1\n      pop\n      jump\t// out\n        /* \"#utility.yul\":1390:1516   */\n    tag_48:\n        /* \"#utility.yul\":1440:1449   */\n      0x00\n        /* \"#utility.yul\":1473:1510   */\n      tag_85\n        /* \"#utility.yul\":1504:1509   */\n      dup3\n        /* \"#utility.yul\":1473:1510   */\n      tag_47\n      jump\t// in\n    tag_85:\n        /* \"#utility.yul\":1460:1510   */\n      swap1\n      pop\n        /* \"#utility.yul\":1390:1516   */\n      swap2\n      swap1\n      pop\n      jump\t// out\n        /* \"#utility.yul\":1522:1663   */\n    tag_49:\n        /* \"#utility.yul\":1587:1596   */\n      0x00\n        /* \"#utility.yul\":1620:1657   */\n      tag_87\n        /* \"#utility.yul\":1651:1656   */\n      dup3\n        /* \"#utility.yul\":1620:1657   */\n      tag_48\n      jump\t// in\n    tag_87:\n        /* \"#utility.yul\":1607:1657   */\n      swap1\n      pop\n        /* \"#utility.yul\":1522:1663   */\n      swap2\n      swap1\n      pop\n      jump\t// out\n        /* \"#utility.yul\":1669:1830   */\n    tag_50:\n        /* \"#utility.yul\":1771:1823   */\n      tag_89\n        /* \"#utility.yul\":1817:1822   */\n      dup2\n        /* \"#utility.yul\":1771:1823   */\n      tag_49\n      jump\t// in\n    tag_89:\n        /* \"#utility.yul\":1766:1769   */\n      dup3\n        /* \"#utility.yul\":1759:1824   */\n      mstore\n        /* \"#utility.yul\":1669:1830   */\n      pop\n      pop\n      jump\t// out\n        /* \"#utility.yul\":1836:2088   */\n    tag_10:\n        /* \"#utility.yul\":1944:1948   */\n      0x00\n        /* \"#utility.yul\":1982:1984   */\n      0x20\n        /* \"#utility.yul\":1971:1980   */\n      dup3\n        /* \"#utility.yul\":1967:1985   */\n      add\n        /* \"#utility.yul\":1959:1985   */\n      swap1\n      pop\n        /* \"#utility.yul\":1995:2081   */\n      tag_91\n        /* \"#utility.yul\":2078:2079   */\n      0x00\n        /* \"#utility.yul\":2067:2076   */\n      dup4\n        /* \"#utility.yul\":2063:2080   */\n      add\n        /* \"#utility.yul\":2054:2060   */\n      dup5\n        /* \"#utility.yul\":1995:2081   */\n      tag_50\n      jump\t// in\n    tag_91:\n        /* \"#utility.yul\":1836:2088   */\n      swap3\n      swap2\n      pop\n      pop\n      jump\t// out\n        /* \"#utility.yul\":2094:2223   */\n    tag_51:\n        /* \"#utility.yul\":2176:2182   */\n      0x00\n        /* \"#utility.yul\":2210:2215   */\n      dup2\n        /* \"#utility.yul\":2204:2216   */\n      mload\n        /* \"#utility.yul\":2194:2216   */\n      swap1\n      pop\n        /* \"#utility.yul\":2094:2223   */\n      swap2\n      swap1\n      pop\n      jump\t// out\n        /* \"#utility.yul\":2229:2413   */\n    tag_52:\n        /* \"#utility.yul\":2328:2339   */\n      0x00\n        /* \"#utility.yul\":2362:2368   */\n      dup3\n        /* \"#utility.yul\":2357:2360   */\n      dup3\n        /* \"#utility.yul\":2350:2369   */\n      mstore\n        /* \"#utility.yul\":2402:2406   */\n      0x20\n        /* \"#utility.yul\":2397:2400   */\n      dup3\n        /* \"#utility.yul\":2393:2407   */\n      add\n        /* \"#utility.yul\":2378:2407   */\n      swap1\n      pop\n        /* \"#utility.yul\":2229:2413   */\n      swap3\n      swap2\n      pop\n      pop\n      jump\t// out\n        /* \"#utility.yul\":2419:2566   */\n    tag_53:\n        /* \"#utility.yul\":2501:2505   */\n      0x00\n        /* \"#utility.yul\":2524:2527   */\n      dup2\n        /* \"#utility.yul\":2516:2527   */\n      swap1\n      pop\n        /* \"#utility.yul\":2554:2558   */\n      0x20\n        /* \"#utility.yul\":2549:2552   */\n      dup3\n        /* \"#utility.yul\":2545:2559   */\n      add\n        /* \"#utility.yul\":2537:2559   */\n      swap1\n      pop\n        /* \"#utility.yul\":2419:2566   */\n      swap2\n      swap1\n      pop\n      jump\t// out\n        /* \"#utility.yul\":2572:2723   */\n    tag_54:\n        /* \"#utility.yul\":2664:2716   */\n      tag_96\n        /* \"#utility.yul\":2710:2715   */\n      dup2\n        /* \"#utility.yul\":2664:2716   */\n      tag_49\n      jump\t// in\n    tag_96:\n        /* \"#utility.yul\":2659:2662   */\n      dup3\n        /* \"#utility.yul\":2652:2717   */\n      mstore\n        /* \"#utility.yul\":2572:2723   */\n      pop\n      pop\n      jump\t// out\n        /* \"#utility.yul\":2729:2938   */\n    tag_55:\n        /* \"#utility.yul\":2813:2823   */\n      0x00\n        /* \"#utility.yul\":2834:2895   */\n      tag_98\n        /* \"#utility.yul\":2891:2894   */\n      dup4\n        /* \"#utility.yul\":2883:2889   */\n      dup4\n        /* \"#utility.yul\":2834:2895   */\n      tag_54\n      jump\t// in\n    tag_98:\n        /* \"#utility.yul\":2927:2931   */\n      0x20\n        /* \"#utility.yul\":2922:2925   */\n      dup4\n        /* \"#utility.yul\":2918:2932   */\n      add\n        /* \"#utility.yul\":2904:2932   */\n      swap1\n      pop\n        /* \"#utility.yul\":2729:2938   */\n      swap3\n      swap2\n      pop\n      pop\n      jump\t// out\n        /* \"#utility.yul\":2944:3072   */\n    tag_56:\n        /* \"#utility.yul\":3029:3033   */\n      0x00\n        /* \"#utility.yul\":3061:3065   */\n      0x20\n        /* \"#utility.yul\":3056:3059   */\n      dup3\n        /* \"#utility.yul\":3052:3066   */\n      add\n        /* \"#utility.yul\":3044:3066   */\n      swap1\n      pop\n        /* \"#utility.yul\":2944:3072   */\n      swap2\n      swap1\n      pop\n      jump\t// out\n        /* \"#utility.yul\":3117:3924   */\n    tag_57:\n        /* \"#utility.yul\":3251:3254   */\n      0x00\n        /* \"#utility.yul\":3280:3349   */\n      tag_101\n        /* \"#utility.yul\":3343:3348   */\n      dup3\n        /* \"#utility.yul\":3280:3349   */\n      tag_51\n      jump\t// in\n    tag_101:\n        /* \"#utility.yul\":3365:3451   */\n      tag_102\n        /* \"#utility.yul\":3444:3450   */\n      dup2\n        /* \"#utility.yul\":3439:3442   */\n      dup6\n        /* \"#utility.yul\":3365:3451   */\n      tag_52\n      jump\t// in\n    tag_102:\n        /* \"#utility.yul\":3358:3451   */\n      swap4\n      pop\n        /* \"#utility.yul\":3475:3546   */\n      tag_103\n        /* \"#utility.yul\":3540:3545   */\n      dup4\n        /* \"#utility.yul\":3475:3546   */\n      tag_53\n      jump\t// in\n    tag_103:\n        /* \"#utility.yul\":3569:3576   */\n      dup1\n        /* \"#utility.yul\":3600:3601   */\n      0x00\n        /* \"#utility.yul\":3585:3899   */\n    tag_104:\n        /* \"#utility.yul\":3610:3616   */\n      dup4\n        /* \"#utility.yul\":3607:3608   */\n      dup2\n        /* \"#utility.yul\":3604:3617   */\n      lt\n        /* \"#utility.yul\":3585:3899   */\n      iszero\n      tag_106\n      jumpi\n        /* \"#utility.yul\":3686:3692   */\n      dup2\n        /* \"#utility.yul\":3680:3693   */\n      mload\n        /* \"#utility.yul\":3713:3791   */\n      tag_107\n        /* \"#utility.yul\":3787:3790   */\n      dup9\n        /* \"#utility.yul\":3772:3785   */\n      dup3\n        /* \"#utility.yul\":3713:3791   */\n      tag_55\n      jump\t// in\n    tag_107:\n        /* \"#utility.yul\":3706:3791   */\n      swap8\n      pop\n        /* \"#utility.yul\":3814:3889   */\n      tag_108\n        /* \"#utility.yul\":3882:3888   */\n      dup4\n        /* \"#utility.yul\":3814:3889   */\n      tag_56\n      jump\t// in\n    tag_108:\n        /* \"#utility.yul\":3804:3889   */\n      swap3\n      pop\n        /* \"#utility.yul\":3645:3899   */\n      pop\n        /* \"#utility.yul\":3632:3633   */\n      0x01\n        /* \"#utility.yul\":3629:3630   */\n      dup2\n        /* \"#utility.yul\":3625:3634   */\n      add\n        /* \"#utility.yul\":3620:3634   */\n      swap1\n      pop\n        /* \"#utility.yul\":3585:3899   */\n      jump(tag_104)\n    tag_106:\n        /* \"#utility.yul\":3589:3603   */\n      pop\n        /* \"#utility.yul\":3915:3918   */\n      dup6\n        /* \"#utility.yul\":3908:3918   */\n      swap4\n      pop\n        /* \"#utility.yul\":3256:3924   */\n      pop\n      pop\n      pop\n        /* \"#utility.yul\":3117:3924   */\n      swap3\n      swap2\n      pop\n      pop\n      jump\t// out\n        /* \"#utility.yul\":3930:4333   */\n    tag_14:\n        /* \"#utility.yul\":4088:4092   */\n      0x00\n        /* \"#utility.yul\":4126:4128   */\n      0x20\n        /* \"#utility.yul\":4115:4124   */\n      dup3\n        /* \"#utility.yul\":4111:4129   */\n      add\n        /* \"#utility.yul\":4103:4129   */\n      swap1\n      pop\n        /* \"#utility.yul\":4175:4184   */\n      dup2\n        /* \"#utility.yul\":4169:4173   */\n      dup2\n        /* \"#utility.yul\":4165:4185   */\n      sub\n        /* \"#utility.yul\":4161:4162   */\n      0x00\n        /* \"#utility.yul\":4150:4159   */\n      dup4\n        /* \"#utility.yul\":4146:4163   */\n      add\n        /* \"#utility.yul\":4139:4186   */\n      mstore\n        /* \"#utility.yul\":4203:4326   */\n      tag_110\n        /* \"#utility.yul\":4321:4325   */\n      dup2\n        /* \"#utility.yul\":4312:4318   */\n      dup5\n        /* \"#utility.yul\":4203:4326   */\n      tag_57\n      jump\t// in\n    tag_110:\n        /* \"#utility.yul\":4195:4326   */\n      swap1\n      pop\n        /* \"#utility.yul\":3930:4333   */\n      swap3\n      swap2\n      pop\n      pop\n      jump\t// out\n        /* \"#utility.yul\":4339:4519   */\n    tag_21:\n        /* \"#utility.yul\":4387:4464   */\n      0x4e487b7100000000000000000000000000000000000000000000000000000000\n        /* \"#utility.yul\":4384:4385   */\n      0x00\n        /* \"#utility.yul\":4377:4465   */\n      mstore\n        /* \"#utility.yul\":4484:4488   */\n      0x32\n        /* \"#utility.yul\":4481:4482   */\n      0x04\n        /* \"#utility.yul\":4474:4489   */\n      mstore\n        /* \"#utility.yul\":4508:4512   */\n      0x24\n        /* \"#utility.yul\":4505:4506   */\n      0x00\n        /* \"#utility.yul\":4498:4513   */\n      revert\n        /* \"#utility.yul\":4525:4629   */\n    tag_58:\n        /* \"#utility.yul\":4570:4577   */\n      0x00\n        /* \"#utility.yul\":4599:4623   */\n      tag_113\n        /* \"#utility.yul\":4617:4622   */\n      dup3\n        /* \"#utility.yul\":4599:4623   */\n      tag_42\n      jump\t// in\n    tag_113:\n        /* \"#utility.yul\":4588:4623   */\n      swap1\n      pop\n        /* \"#utility.yul\":4525:4629   */\n      swap2\n      swap1\n      pop\n      jump\t// out\n        /* \"#utility.yul\":4635:4773   */\n    tag_59:\n        /* \"#utility.yul\":4716:4748   */\n      tag_115\n        /* \"#utility.yul\":4742:4747   */\n      dup2\n        /* \"#utility.yul\":4716:4748   */\n      tag_58\n      jump\t// in\n    tag_115:\n        /* \"#utility.yul\":4709:4714   */\n      dup2\n        /* \"#utility.yul\":4706:4749   */\n      eq\n        /* \"#utility.yul\":4696:4767   */\n      tag_116\n      jumpi\n        /* \"#utility.yul\":4763:4764   */\n      0x00\n        /* \"#utility.yul\":4760:4761   */\n      dup1\n        /* \"#utility.yul\":4753:4765   */\n      revert\n        /* \"#utility.yul\":4696:4767   */\n    tag_116:\n        /* \"#utility.yul\":4635:4773   */\n      pop\n      jump\t// out\n        /* \"#utility.yul\":4779:4938   */\n    tag_60:\n        /* \"#utility.yul\":4844:4849   */\n      0x00\n        /* \"#utility.yul\":4875:4881   */\n      dup2\n        /* \"#utility.yul\":4869:4882   */\n      mload\n        /* \"#utility.yul\":4860:4882   */\n      swap1\n      pop\n        /* \"#utility.yul\":4891:4932   */\n      tag_118\n        /* \"#utility.yul\":4926:4931   */\n      dup2\n        /* \"#utility.yul\":4891:4932   */\n      tag_59\n      jump\t// in\n    tag_118:\n        /* \"#utility.yul\":4779:4938   */\n      swap3\n      swap2\n      pop\n      pop\n      jump\t// out\n        /* \"#utility.yul\":4944:5311   */\n    tag_26:\n        /* \"#utility.yul\":5022:5028   */\n      0x00\n        /* \"#utility.yul\":5071:5073   */\n      0x20\n        /* \"#utility.yul\":5059:5068   */\n      dup3\n        /* \"#utility.yul\":5050:5057   */\n      dup5\n        /* \"#utility.yul\":5046:5069   */\n      sub\n        /* \"#utility.yul\":5042:5074   */\n      slt\n        /* \"#utility.yul\":5039:5158   */\n      iszero\n      tag_120\n      jumpi\n        /* \"#utility.yul\":5077:5156   */\n      tag_121\n      tag_40\n      jump\t// in\n    tag_121:\n        /* \"#utility.yul\":5039:5158   */\n    tag_120:\n        /* \"#utility.yul\":5197:5198   */\n      0x00\n        /* \"#utility.yul\":5222:5294   */\n      tag_122\n        /* \"#utility.yul\":5286:5293   */\n      dup5\n        /* \"#utility.yul\":5277:5283   */\n      dup3\n        /* \"#utility.yul\":5266:5275   */\n      dup6\n        /* \"#utility.yul\":5262:5284   */\n      add\n        /* \"#utility.yul\":5222:5294   */\n      tag_60\n      jump\t// in\n    tag_122:\n        /* \"#utility.yul\":5212:5294   */\n      swap2\n      pop\n        /* \"#utility.yul\":5168:5304   */\n      pop\n        /* \"#utility.yul\":4944:5311   */\n      swap3\n      swap2\n      pop\n      pop\n      jump\t// out\n        /* \"#utility.yul\":5317:5497   */\n    tag_61:\n        /* \"#utility.yul\":5365:5442   */\n      0x4e487b7100000000000000000000000000000000000000000000000000000000\n        /* \"#utility.yul\":5362:5363   */\n      0x00\n        /* \"#utility.yul\":5355:5443   */\n      mstore\n        /* \"#utility.yul\":5462:5466   */\n      0x11\n        /* \"#utility.yul\":5459:5460   */\n      0x04\n        /* \"#utility.yul\":5452:5467   */\n      mstore\n        /* \"#utility.yul\":5486:5490   */\n      0x24\n        /* \"#utility.yul\":5483:5484   */\n      0x00\n        /* \"#utility.yul\":5476:5491   */\n      revert\n        /* \"#utility.yul\":5503:5580   */\n    tag_62:\n        /* \"#utility.yul\":5540:5547   */\n      0x00\n        /* \"#utility.yul\":5569:5574   */\n      dup2\n        /* \"#utility.yul\":5558:5574   */\n      swap1\n      pop\n        /* \"#utility.yul\":5503:5580   */\n      swap2\n      swap1\n      pop\n      jump\t// out\n        /* \"#utility.yul\":5586:5819   */\n    tag_32:\n        /* \"#utility.yul\":5625:5628   */\n      0x00\n        /* \"#utility.yul\":5648:5672   */\n      tag_126\n        /* \"#utility.yul\":5666:5671   */\n      dup3\n        /* \"#utility.yul\":5648:5672   */\n      tag_62\n      jump\t// in\n    tag_126:\n        /* \"#utility.yul\":5639:5672   */\n      swap2\n      pop\n        /* \"#utility.yul\":5694:5760   */\n      0xffffffffffffffffffffffffffffffffffffffffffffffffffffffffffffffff\n        /* \"#utility.yul\":5687:5692   */\n      dup3\n        /* \"#utility.yul\":5684:5761   */\n      sub\n        /* \"#utility.yul\":5681:5784   */\n      tag_127\n      jumpi\n        /* \"#utility.yul\":5764:5782   */\n      tag_128\n      tag_61\n      jump\t// in\n    tag_128:\n        /* \"#utility.yul\":5681:5784   */\n    tag_127:\n        /* \"#utility.yul\":5811:5812   */\n      0x01\n        /* \"#utility.yul\":5804:5809   */\n      dup3\n        /* \"#utility.yul\":5800:5813   */\n      add\n        /* \"#utility.yul\":5793:5813   */\n      swap1\n      pop\n        /* \"#utility.yul\":5586:5819   */\n      swap2\n      swap1\n      pop\n      jump\t// out\n\n    auxdata: 0xa26469706673582212208f946665bcd8c0da8f3e6d4767fa6e7e0f24afaaf1cf6e6e971888ec2e80220264736f6c634300080d0033\n}\n",
				"bytecode": {
					"linkReferences": {},
					"object": "608060405234801561001057600080fd5b506105e9806100206000396000f3fe608060405234801561001057600080fd5b50600436106100365760003560e01c80634bf28d9e1461003b57806385b6e28e1461006b575b600080fd5b61005560048036038101906100509190610311565b610089565b604051610062919061039d565b60405180910390f35b610073610220565b6040516100809190610476565b60405180910390f35b600080600090505b6000805490508110156101d7578273ffffffffffffffffffffffffffffffffffffffff16600082815481106100c9576100c8610498565b5b9060005260206000200160009054906101000a900473ffffffffffffffffffffffffffffffffffffffff1673ffffffffffffffffffffffffffffffffffffffff1663a541a2a26040518163ffffffff1660e01b8152600401602060405180830381865afa15801561013e573d6000803e3d6000fd5b505050506040513d601f19601f820116820180604052508101906101629190610505565b73ffffffffffffffffffffffffffffffffffffffff16036101c4576000818154811061019157610190610498565b5b9060005260206000200160009054906101000a900473ffffffffffffffffffffffffffffffffffffffff1691505061021b565b80806101cf9061056b565b915050610091565b5060006001815481106101ed576101ec610498565b5b9060005260206000200160009054906101000a900473ffffffffffffffffffffffffffffffffffffffff1690505b919050565b606060008054806020026020016040519081016040528092919081815260200182805480156102a457602002820191906000526020600020905b8160009054906101000a900473ffffffffffffffffffffffffffffffffffffffff1673ffffffffffffffffffffffffffffffffffffffff168152602001906001019080831161025a575b5050505050905090565b600080fd5b600073ffffffffffffffffffffffffffffffffffffffff82169050919050565b60006102de826102b3565b9050919050565b6102ee816102d3565b81146102f957600080fd5b50565b60008135905061030b816102e5565b92915050565b600060208284031215610327576103266102ae565b5b6000610335848285016102fc565b91505092915050565b6000819050919050565b600061036361035e610359846102b3565b61033e565b6102b3565b9050919050565b600061037582610348565b9050919050565b60006103878261036a565b9050919050565b6103978161037c565b82525050565b60006020820190506103b2600083018461038e565b92915050565b600081519050919050565b600082825260208201905092915050565b6000819050602082019050919050565b6103ed8161037c565b82525050565b60006103ff83836103e4565b60208301905092915050565b6000602082019050919050565b6000610423826103b8565b61042d81856103c3565b9350610438836103d4565b8060005b8381101561046957815161045088826103f3565b975061045b8361040b565b92505060018101905061043c565b5085935050505092915050565b600060208201905081810360008301526104908184610418565b905092915050565b7f4e487b7100000000000000000000000000000000000000000000000000000000600052603260045260246000fd5b60006104d2826102b3565b9050919050565b6104e2816104c7565b81146104ed57600080fd5b50565b6000815190506104ff816104d9565b92915050565b60006020828403121561051b5761051a6102ae565b5b6000610529848285016104f0565b91505092915050565b7f4e487b7100000000000000000000000000000000000000000000000000000000600052601160045260246000fd5b6000819050919050565b600061057682610561565b91507fffffffffffffffffffffffffffffffffffffffffffffffffffffffffffffffff82036105a8576105a7610532565b5b60018201905091905056fea26469706673582212208f946665bcd8c0da8f3e6d4767fa6e7e0f24afaaf1cf6e6e971888ec2e80220264736f6c634300080d0033",
					"opcodes": "PUSH1 0x80 PUSH1 0x40 MSTORE CALLVALUE DUP1 ISZERO PUSH2 0x10 JUMPI PUSH1 0x0 DUP1 REVERT JUMPDEST POP PUSH2 0x5E9 DUP1 PUSH2 0x20 PUSH1 0x0 CODECOPY PUSH1 0x0 RETURN INVALID PUSH1 0x80 PUSH1 0x40 MSTORE CALLVALUE DUP1 ISZERO PUSH2 0x10 JUMPI PUSH1 0x0 DUP1 REVERT JUMPDEST POP PUSH1 0x4 CALLDATASIZE LT PUSH2 0x36 JUMPI PUSH1 0x0 CALLDATALOAD PUSH1 0xE0 SHR DUP1 PUSH4 0x4BF28D9E EQ PUSH2 0x3B JUMPI DUP1 PUSH4 0x85B6E28E EQ PUSH2 0x6B JUMPI JUMPDEST PUSH1 0x0 DUP1 REVERT JUMPDEST PUSH2 0x55 PUSH1 0x4 DUP1 CALLDATASIZE SUB DUP2 ADD SWAP1 PUSH2 0x50 SWAP2 SWAP1 PUSH2 0x311 JUMP JUMPDEST PUSH2 0x89 JUMP JUMPDEST PUSH1 0x40 MLOAD PUSH2 0x62 SWAP2 SWAP1 PUSH2 0x39D JUMP JUMPDEST PUSH1 0x40 MLOAD DUP1 SWAP2 SUB SWAP1 RETURN JUMPDEST PUSH2 0x73 PUSH2 0x220 JUMP JUMPDEST PUSH1 0x40 MLOAD PUSH2 0x80 SWAP2 SWAP1 PUSH2 0x476 JUMP JUMPDEST PUSH1 0x40 MLOAD DUP1 SWAP2 SUB SWAP1 RETURN JUMPDEST PUSH1 0x0 DUP1 PUSH1 0x0 SWAP1 POP JUMPDEST PUSH1 0x0 DUP1 SLOAD SWAP1 POP DUP2 LT ISZERO PUSH2 0x1D7 JUMPI DUP3 PUSH20 0xFFFFFFFFFFFFFFFFFFFFFFFFFFFFFFFFFFFFFFFF AND PUSH1 0x0 DUP3 DUP2 SLOAD DUP2 LT PUSH2 0xC9 JUMPI PUSH2 0xC8 PUSH2 0x498 JUMP JUMPDEST JUMPDEST SWAP1 PUSH1 0x0 MSTORE PUSH1 0x20 PUSH1 0x0 KECCAK256 ADD PUSH1 0x0 SWAP1 SLOAD SWAP1 PUSH2 0x100 EXP SWAP1 DIV PUSH20 0xFFFFFFFFFFFFFFFFFFFFFFFFFFFFFFFFFFFFFFFF AND PUSH20 0xFFFFFFFFFFFFFFFFFFFFFFFFFFFFFFFFFFFFFFFF AND PUSH4 0xA541A2A2 PUSH1 0x40 MLOAD DUP2 PUSH4 0xFFFFFFFF AND PUSH1 0xE0 SHL DUP2 MSTORE PUSH1 0x4 ADD PUSH1 0x20 PUSH1 0x40 MLOAD DUP1 DUP4 SUB DUP2 DUP7 GAS STATICCALL ISZERO DUP1 ISZERO PUSH2 0x13E JUMPI RETURNDATASIZE PUSH1 0x0 DUP1 RETURNDATACOPY RETURNDATASIZE PUSH1 0x0 REVERT JUMPDEST POP POP POP POP PUSH1 0x40 MLOAD RETURNDATASIZE PUSH1 0x1F NOT PUSH1 0x1F DUP3 ADD AND DUP3 ADD DUP1 PUSH1 0x40 MSTORE POP DUP2 ADD SWAP1 PUSH2 0x162 SWAP2 SWAP1 PUSH2 0x505 JUMP JUMPDEST PUSH20 0xFFFFFFFFFFFFFFFFFFFFFFFFFFFFFFFFFFFFFFFF AND SUB PUSH2 0x1C4 JUMPI PUSH1 0x0 DUP2 DUP2 SLOAD DUP2 LT PUSH2 0x191 JUMPI PUSH2 0x190 PUSH2 0x498 JUMP JUMPDEST JUMPDEST SWAP1 PUSH1 0x0 MSTORE PUSH1 0x20 PUSH1 0x0 KECCAK256 ADD PUSH1 0x0 SWAP1 SLOAD SWAP1 PUSH2 0x100 EXP SWAP1 DIV PUSH20 0xFFFFFFFFFFFFFFFFFFFFFFFFFFFFFFFFFFFFFFFF AND SWAP2 POP POP PUSH2 0x21B JUMP JUMPDEST DUP1 DUP1 PUSH2 0x1CF SWAP1 PUSH2 0x56B JUMP JUMPDEST SWAP2 POP POP PUSH2 0x91 JUMP JUMPDEST POP PUSH1 0x0 PUSH1 0x1 DUP2 SLOAD DUP2 LT PUSH2 0x1ED JUMPI PUSH2 0x1EC PUSH2 0x498 JUMP JUMPDEST JUMPDEST SWAP1 PUSH1 0x0 MSTORE PUSH1 0x20 PUSH1 0x0 KECCAK256 ADD PUSH1 0x0 SWAP1 SLOAD SWAP1 PUSH2 0x100 EXP SWAP1 DIV PUSH20 0xFFFFFFFFFFFFFFFFFFFFFFFFFFFFFFFFFFFFFFFF AND SWAP1 POP JUMPDEST SWAP2 SWAP1 POP JUMP JUMPDEST PUSH1 0x60 PUSH1 0x0 DUP1 SLOAD DUP1 PUSH1 0x20 MUL PUSH1 0x20 ADD PUSH1 0x40 MLOAD SWAP1 DUP2 ADD PUSH1 0x40 MSTORE DUP1 SWAP3 SWAP2 SWAP1 DUP2 DUP2 MSTORE PUSH1 0x20 ADD DUP3 DUP1 SLOAD DUP1 ISZERO PUSH2 0x2A4 JUMPI PUSH1 0x20 MUL DUP3 ADD SWAP2 SWAP1 PUSH1 0x0 MSTORE PUSH1 0x20 PUSH1 0x0 KECCAK256 SWAP1 JUMPDEST DUP2 PUSH1 0x0 SWAP1 SLOAD SWAP1 PUSH2 0x100 EXP SWAP1 DIV PUSH20 0xFFFFFFFFFFFFFFFFFFFFFFFFFFFFFFFFFFFFFFFF AND PUSH20 0xFFFFFFFFFFFFFFFFFFFFFFFFFFFFFFFFFFFFFFFF AND DUP2 MSTORE PUSH1 0x20 ADD SWAP1 PUSH1 0x1 ADD SWAP1 DUP1 DUP4 GT PUSH2 0x25A JUMPI JUMPDEST POP POP POP POP POP SWAP1 POP SWAP1 JUMP JUMPDEST PUSH1 0x0 DUP1 REVERT JUMPDEST PUSH1 0x0 PUSH20 0xFFFFFFFFFFFFFFFFFFFFFFFFFFFFFFFFFFFFFFFF DUP3 AND SWAP1 POP SWAP2 SWAP1 POP JUMP JUMPDEST PUSH1 0x0 PUSH2 0x2DE DUP3 PUSH2 0x2B3 JUMP JUMPDEST SWAP1 POP SWAP2 SWAP1 POP JUMP JUMPDEST PUSH2 0x2EE DUP2 PUSH2 0x2D3 JUMP JUMPDEST DUP2 EQ PUSH2 0x2F9 JUMPI PUSH1 0x0 DUP1 REVERT JUMPDEST POP JUMP JUMPDEST PUSH1 0x0 DUP2 CALLDATALOAD SWAP1 POP PUSH2 0x30B DUP2 PUSH2 0x2E5 JUMP JUMPDEST SWAP3 SWAP2 POP POP JUMP JUMPDEST PUSH1 0x0 PUSH1 0x20 DUP3 DUP5 SUB SLT ISZERO PUSH2 0x327 JUMPI PUSH2 0x326 PUSH2 0x2AE JUMP JUMPDEST JUMPDEST PUSH1 0x0 PUSH2 0x335 DUP5 DUP3 DUP6 ADD PUSH2 0x2FC JUMP JUMPDEST SWAP2 POP POP SWAP3 SWAP2 POP POP JUMP JUMPDEST PUSH1 0x0 DUP2 SWAP1 POP SWAP2 SWAP1 POP JUMP JUMPDEST PUSH1 0x0 PUSH2 0x363 PUSH2 0x35E PUSH2 0x359 DUP5 PUSH2 0x2B3 JUMP JUMPDEST PUSH2 0x33E JUMP JUMPDEST PUSH2 0x2B3 JUMP JUMPDEST SWAP1 POP SWAP2 SWAP1 POP JUMP JUMPDEST PUSH1 0x0 PUSH2 0x375 DUP3 PUSH2 0x348 JUMP JUMPDEST SWAP1 POP SWAP2 SWAP1 POP JUMP JUMPDEST PUSH1 0x0 PUSH2 0x387 DUP3 PUSH2 0x36A JUMP JUMPDEST SWAP1 POP SWAP2 SWAP1 POP JUMP JUMPDEST PUSH2 0x397 DUP2 PUSH2 0x37C JUMP JUMPDEST DUP3 MSTORE POP POP JUMP JUMPDEST PUSH1 0x0 PUSH1 0x20 DUP3 ADD SWAP1 POP PUSH2 0x3B2 PUSH1 0x0 DUP4 ADD DUP5 PUSH2 0x38E JUMP JUMPDEST SWAP3 SWAP2 POP POP JUMP JUMPDEST PUSH1 0x0 DUP2 MLOAD SWAP1 POP SWAP2 SWAP1 POP JUMP JUMPDEST PUSH1 0x0 DUP3 DUP3 MSTORE PUSH1 0x20 DUP3 ADD SWAP1 POP SWAP3 SWAP2 POP POP JUMP JUMPDEST PUSH1 0x0 DUP2 SWAP1 POP PUSH1 0x20 DUP3 ADD SWAP1 POP SWAP2 SWAP1 POP JUMP JUMPDEST PUSH2 0x3ED DUP2 PUSH2 0x37C JUMP JUMPDEST DUP3 MSTORE POP POP JUMP JUMPDEST PUSH1 0x0 PUSH2 0x3FF DUP4 DUP4 PUSH2 0x3E4 JUMP JUMPDEST PUSH1 0x20 DUP4 ADD SWAP1 POP SWAP3 SWAP2 POP POP JUMP JUMPDEST PUSH1 0x0 PUSH1 0x20 DUP3 ADD SWAP1 POP SWAP2 SWAP1 POP JUMP JUMPDEST PUSH1 0x0 PUSH2 0x423 DUP3 PUSH2 0x3B8 JUMP JUMPDEST PUSH2 0x42D DUP2 DUP6 PUSH2 0x3C3 JUMP JUMPDEST SWAP4 POP PUSH2 0x438 DUP4 PUSH2 0x3D4 JUMP JUMPDEST DUP1 PUSH1 0x0 JUMPDEST DUP4 DUP2 LT ISZERO PUSH2 0x469 JUMPI DUP2 MLOAD PUSH2 0x450 DUP9 DUP3 PUSH2 0x3F3 JUMP JUMPDEST SWAP8 POP PUSH2 0x45B DUP4 PUSH2 0x40B JUMP JUMPDEST SWAP3 POP POP PUSH1 0x1 DUP2 ADD SWAP1 POP PUSH2 0x43C JUMP JUMPDEST POP DUP6 SWAP4 POP POP POP POP SWAP3 SWAP2 POP POP JUMP JUMPDEST PUSH1 0x0 PUSH1 0x20 DUP3 ADD SWAP1 POP DUP2 DUP2 SUB PUSH1 0x0 DUP4 ADD MSTORE PUSH2 0x490 DUP2 DUP5 PUSH2 0x418 JUMP JUMPDEST SWAP1 POP SWAP3 SWAP2 POP POP JUMP JUMPDEST PUSH32 0x4E487B7100000000000000000000000000000000000000000000000000000000 PUSH1 0x0 MSTORE PUSH1 0x32 PUSH1 0x4 MSTORE PUSH1 0x24 PUSH1 0x0 REVERT JUMPDEST PUSH1 0x0 PUSH2 0x4D2 DUP3 PUSH2 0x2B3 JUMP JUMPDEST SWAP1 POP SWAP2 SWAP1 POP JUMP JUMPDEST PUSH2 0x4E2 DUP2 PUSH2 0x4C7 JUMP JUMPDEST DUP2 EQ PUSH2 0x4ED JUMPI PUSH1 0x0 DUP1 REVERT JUMPDEST POP JUMP JUMPDEST PUSH1 0x0 DUP2 MLOAD SWAP1 POP PUSH2 0x4FF DUP2 PUSH2 0x4D9 JUMP JUMPDEST SWAP3 SWAP2 POP POP JUMP JUMPDEST PUSH1 0x0 PUSH1 0x20 DUP3 DUP5 SUB SLT ISZERO PUSH2 0x51B JUMPI PUSH2 0x51A PUSH2 0x2AE JUMP JUMPDEST JUMPDEST PUSH1 0x0 PUSH2 0x529 DUP5 DUP3 DUP6 ADD PUSH2 0x4F0 JUMP JUMPDEST SWAP2 POP POP SWAP3 SWAP2 POP POP JUMP JUMPDEST PUSH32 0x4E487B7100000000000000000000000000000000000000000000000000000000 PUSH1 0x0 MSTORE PUSH1 0x11 PUSH1 0x4 MSTORE PUSH1 0x24 PUSH1 0x0 REVERT JUMPDEST PUSH1 0x0 DUP2 SWAP1 POP SWAP2 SWAP1 POP JUMP JUMPDEST PUSH1 0x0 PUSH2 0x576 DUP3 PUSH2 0x561 JUMP JUMPDEST SWAP2 POP PUSH32 0xFFFFFFFFFFFFFFFFFFFFFFFFFFFFFFFFFFFFFFFFFFFFFFFFFFFFFFFFFFFFFFFF DUP3 SUB PUSH2 0x5A8 JUMPI PUSH2 0x5A7 PUSH2 0x532 JUMP JUMPDEST JUMPDEST PUSH1 0x1 DUP3 ADD SWAP1 POP SWAP2 SWAP1 POP JUMP INVALID LOG2 PUSH5 0x6970667358 0x22 SLT KECCAK256 DUP16 SWAP5 PUSH7 0x65BCD8C0DA8F3E PUSH14 0x4767FA6E7E0F24AFAAF1CF6E6E97 XOR DUP9 0xEC 0x2E DUP1 0x22 MUL PUSH5 0x736F6C6343 STOP ADDMOD 0xD STOP CALLER "
				},
				"gasEstimates": {
					"creation": {
						"codeDepositCost": "302600",
						"executionCost": "343",
						"totalCost": "302943"
					},
					"external": {
						"getProjectByAddressCreator(address)": "infinite",
						"returnAllProjects()": "infinite"
					}
				},
				"methodIdentifiers": {
					"getProjectByAddressCreator(address)": "4bf28d9e",
					"returnAllProjects()": "85b6e28e"
				}
			},
			"storageLayout": {
				"storage": [
					{
						"astId": 7,
						"contract": "contracts/Crowfunding.sol:Crowfunding",
						"label": "projects",
						"offset": 0,
						"slot": "0",
						"type": "t_array(t_contract(Project)102)dyn_storage"
					}
				],
				"types": {
					"t_array(t_contract(Project)102)dyn_storage": {
						"base": "t_contract(Project)102",
						"encoding": "dynamic_array",
						"label": "contract Project[]",
						"numberOfBytes": "32"
					},
					"t_contract(Project)102": {
						"encoding": "inplace",
						"label": "contract Project",
						"numberOfBytes": "20"
					}
				}
			},
			"userdoc": {
				"kind": "user",
				"methods": {},
				"version": 1
			}
		}
	}
}