{
	"contracts/Crowfunding.sol": {
		"Crowfunding": {
			"abi": [
				{
					"anonymous": false,
					"inputs": [
						{
							"indexed": false,
							"internalType": "address",
							"name": "contractAddress",
							"type": "address"
						},
						{
							"indexed": false,
							"internalType": "address",
							"name": "projectCreator",
							"type": "address"
						},
						{
							"indexed": false,
							"internalType": "string",
							"name": "projectTitle",
							"type": "string"
						},
						{
							"indexed": false,
							"internalType": "string",
							"name": "projectDesc",
							"type": "string"
						},
						{
							"indexed": false,
							"internalType": "uint256",
							"name": "deadline",
							"type": "uint256"
						},
						{
							"indexed": false,
							"internalType": "uint256",
							"name": "goalAmount",
							"type": "uint256"
						},
						{
							"indexed": false,
							"internalType": "enum Project.State",
							"name": "state",
							"type": "uint8"
						}
					],
					"name": "ProjectStarted",
					"type": "event"
				},
				{
					"inputs": [
						{
							"internalType": "address",
							"name": "_addressProjectCreator",
							"type": "address"
						}
					],
					"name": "contribute",
					"outputs": [],
					"stateMutability": "payable",
					"type": "function"
				},
				{
					"inputs": [
						{
							"internalType": "address",
							"name": "_address",
							"type": "address"
						}
					],
					"name": "getProjectByAddressCreator",
					"outputs": [
						{
							"internalType": "contract Project",
							"name": "",
							"type": "address"
						}
					],
					"stateMutability": "view",
					"type": "function"
				},
				{
					"inputs": [],
					"name": "returnAllProjects",
					"outputs": [
						{
							"internalType": "contract Project[]",
							"name": "",
							"type": "address[]"
						}
					],
					"stateMutability": "view",
					"type": "function"
				},
				{
					"inputs": [
						{
							"internalType": "string",
							"name": "_projectTitle",
							"type": "string"
						},
						{
							"internalType": "string",
							"name": "_projectDescription",
							"type": "string"
						},
						{
							"internalType": "uint256",
							"name": "_amountGoal",
							"type": "uint256"
						},
						{
							"internalType": "uint256",
							"name": "_nbDays",
							"type": "uint256"
						}
					],
					"name": "startProject",
					"outputs": [],
					"stateMutability": "nonpayable",
					"type": "function"
				}
			],
			"devdoc": {
				"kind": "dev",
				"methods": {
					"returnAllProjects()": {
						"details": "Function to get all projects' contract addresses.",
						"returns": {
							"_0": "A list of all projects' contract addreses"
						}
					}
				},
				"version": 1
			},
			"evm": {
				"assembly": "    /* \"contracts/Crowfunding.sol\":226:2327  contract Crowfunding {... */\n  mstore(0x40, 0x80)\n  callvalue\n  dup1\n  iszero\n  tag_1\n  jumpi\n  0x00\n  dup1\n  revert\ntag_1:\n  pop\n  dataSize(sub_0)\n  dup1\n  dataOffset(sub_0)\n  0x00\n  codecopy\n  0x00\n  return\nstop\n\nsub_0: assembly {\n        /* \"contracts/Crowfunding.sol\":226:2327  contract Crowfunding {... */\n      mstore(0x40, 0x80)\n      jumpi(tag_1, lt(calldatasize, 0x04))\n      shr(0xe0, calldataload(0x00))\n      dup1\n      0x4bf28d9e\n      eq\n      tag_2\n      jumpi\n      dup1\n      0x73e888fd\n      eq\n      tag_3\n      jumpi\n      dup1\n      0x85b6e28e\n      eq\n      tag_4\n      jumpi\n      dup1\n      0xa24a2d16\n      eq\n      tag_5\n      jumpi\n    tag_1:\n      0x00\n      dup1\n      revert\n        /* \"contracts/Crowfunding.sol\":1161:1459  function getProjectByAddressCreator(address _address) public view returns (Project) {... */\n    tag_2:\n      callvalue\n      dup1\n      iszero\n      tag_6\n      jumpi\n      0x00\n      dup1\n      revert\n    tag_6:\n      pop\n      tag_7\n      0x04\n      dup1\n      calldatasize\n      sub\n      dup2\n      add\n      swap1\n      tag_8\n      swap2\n      swap1\n      tag_9\n      jump\t// in\n    tag_8:\n      tag_10\n      jump\t// in\n    tag_7:\n      mload(0x40)\n      tag_11\n      swap2\n      swap1\n      tag_12\n      jump\t// in\n    tag_11:\n      mload(0x40)\n      dup1\n      swap2\n      sub\n      swap1\n      return\n        /* \"contracts/Crowfunding.sol\":2094:2324  function contribute(address _addressProjectCreator) payable public {... */\n    tag_3:\n      tag_13\n      0x04\n      dup1\n      calldatasize\n      sub\n      dup2\n      add\n      swap1\n      tag_14\n      swap2\n      swap1\n      tag_9\n      jump\t// in\n    tag_14:\n      tag_15\n      jump\t// in\n    tag_13:\n      stop\n        /* \"contracts/Crowfunding.sol\":756:856  function returnAllProjects() external view returns(Project[] memory){... */\n    tag_4:\n      callvalue\n      dup1\n      iszero\n      tag_16\n      jumpi\n      0x00\n      dup1\n      revert\n    tag_16:\n      pop\n      tag_17\n      tag_18\n      jump\t// in\n    tag_17:\n      mload(0x40)\n      tag_19\n      swap2\n      swap1\n      tag_20\n      jump\t// in\n    tag_19:\n      mload(0x40)\n      dup1\n      swap2\n      sub\n      swap1\n      return\n        /* \"contracts/Crowfunding.sol\":1465:2088  function startProject (string memory _projectTitle, string memory _projectDescription, ... */\n    tag_5:\n      callvalue\n      dup1\n      iszero\n      tag_21\n      jumpi\n      0x00\n      dup1\n      revert\n    tag_21:\n      pop\n      tag_22\n      0x04\n      dup1\n      calldatasize\n      sub\n      dup2\n      add\n      swap1\n      tag_23\n      swap2\n      swap1\n      tag_24\n      jump\t// in\n    tag_23:\n      tag_25\n      jump\t// in\n    tag_22:\n      stop\n        /* \"contracts/Crowfunding.sol\":1161:1459  function getProjectByAddressCreator(address _address) public view returns (Project) {... */\n    tag_10:\n        /* \"contracts/Crowfunding.sol\":1236:1243  Project */\n      0x00\n        /* \"contracts/Crowfunding.sol\":1258:1264  uint i */\n      dup1\n        /* \"contracts/Crowfunding.sol\":1265:1266  0 */\n      0x00\n        /* \"contracts/Crowfunding.sol\":1258:1266  uint i=0 */\n      swap1\n      pop\n        /* \"contracts/Crowfunding.sol\":1254:1406  for(uint i=0; i<projects.length; i++){... */\n    tag_27:\n        /* \"contracts/Crowfunding.sol\":1270:1278  projects */\n      0x00\n        /* \"contracts/Crowfunding.sol\":1270:1285  projects.length */\n      dup1\n      sload\n      swap1\n      pop\n        /* \"contracts/Crowfunding.sol\":1268:1269  i */\n      dup2\n        /* \"contracts/Crowfunding.sol\":1268:1285  i<projects.length */\n      lt\n        /* \"contracts/Crowfunding.sol\":1254:1406  for(uint i=0; i<projects.length; i++){... */\n      iszero\n      tag_28\n      jumpi\n        /* \"contracts/Crowfunding.sol\":1339:1347  _address */\n      dup3\n        /* \"contracts/Crowfunding.sol\":1307:1347  projects[i].projectCreator() == _address */\n      0xffffffffffffffffffffffffffffffffffffffff\n      and\n        /* \"contracts/Crowfunding.sol\":1307:1315  projects */\n      0x00\n        /* \"contracts/Crowfunding.sol\":1316:1317  i */\n      dup3\n        /* \"contracts/Crowfunding.sol\":1307:1318  projects[i] */\n      dup2\n      sload\n      dup2\n      lt\n      tag_30\n      jumpi\n      tag_31\n      tag_32\n      jump\t// in\n    tag_31:\n    tag_30:\n      swap1\n      0x00\n      mstore\n      keccak256(0x00, 0x20)\n      add\n      0x00\n      swap1\n      sload\n      swap1\n      0x0100\n      exp\n      swap1\n      div\n      0xffffffffffffffffffffffffffffffffffffffff\n      and\n        /* \"contracts/Crowfunding.sol\":1307:1333  projects[i].projectCreator */\n      0xffffffffffffffffffffffffffffffffffffffff\n      and\n      0xa541a2a2\n        /* \"contracts/Crowfunding.sol\":1307:1335  projects[i].projectCreator() */\n      mload(0x40)\n      dup2\n      0xffffffff\n      and\n      0xe0\n      shl\n      dup2\n      mstore\n      0x04\n      add\n      0x20\n      mload(0x40)\n      dup1\n      dup4\n      sub\n      dup2\n      dup7\n      gas\n      staticcall\n      iszero\n      dup1\n      iszero\n      tag_35\n      jumpi\n      returndatasize\n      0x00\n      dup1\n      returndatacopy\n      revert(0x00, returndatasize)\n    tag_35:\n      pop\n      pop\n      pop\n      pop\n      mload(0x40)\n      returndatasize\n      not(0x1f)\n      0x1f\n      dup3\n      add\n      and\n      dup3\n      add\n      dup1\n      0x40\n      mstore\n      pop\n      dup2\n      add\n      swap1\n      tag_36\n      swap2\n      swap1\n      tag_37\n      jump\t// in\n    tag_36:\n        /* \"contracts/Crowfunding.sol\":1307:1347  projects[i].projectCreator() == _address */\n      0xffffffffffffffffffffffffffffffffffffffff\n      and\n      sub\n        /* \"contracts/Crowfunding.sol\":1304:1397  if(projects[i].projectCreator() == _address){... */\n      tag_38\n      jumpi\n        /* \"contracts/Crowfunding.sol\":1372:1380  projects */\n      0x00\n        /* \"contracts/Crowfunding.sol\":1381:1382  i */\n      dup2\n        /* \"contracts/Crowfunding.sol\":1372:1383  projects[i] */\n      dup2\n      sload\n      dup2\n      lt\n      tag_39\n      jumpi\n      tag_40\n      tag_32\n      jump\t// in\n    tag_40:\n    tag_39:\n      swap1\n      0x00\n      mstore\n      keccak256(0x00, 0x20)\n      add\n      0x00\n      swap1\n      sload\n      swap1\n      0x0100\n      exp\n      swap1\n      div\n      0xffffffffffffffffffffffffffffffffffffffff\n      and\n        /* \"contracts/Crowfunding.sol\":1365:1383  return projects[i] */\n      swap2\n      pop\n      pop\n      jump(tag_26)\n        /* \"contracts/Crowfunding.sol\":1304:1397  if(projects[i].projectCreator() == _address){... */\n    tag_38:\n        /* \"contracts/Crowfunding.sol\":1287:1290  i++ */\n      dup1\n      dup1\n      tag_42\n      swap1\n      tag_43\n      jump\t// in\n    tag_42:\n      swap2\n      pop\n      pop\n        /* \"contracts/Crowfunding.sol\":1254:1406  for(uint i=0; i<projects.length; i++){... */\n      jump(tag_27)\n    tag_28:\n      pop\n        /* \"contracts/Crowfunding.sol\":1422:1452  revert(\"Project not found !!\") */\n      mload(0x40)\n      0x08c379a000000000000000000000000000000000000000000000000000000000\n      dup2\n      mstore\n      0x04\n      add\n      tag_44\n      swap1\n      tag_45\n      jump\t// in\n    tag_44:\n      mload(0x40)\n      dup1\n      swap2\n      sub\n      swap1\n      revert\n        /* \"contracts/Crowfunding.sol\":1161:1459  function getProjectByAddressCreator(address _address) public view returns (Project) {... */\n    tag_26:\n      swap2\n      swap1\n      pop\n      jump\t// out\n        /* \"contracts/Crowfunding.sol\":2094:2324  function contribute(address _addressProjectCreator) payable public {... */\n    tag_15:\n        /* \"contracts/Crowfunding.sol\":2172:2184  bool isExist */\n      0x00\n        /* \"contracts/Crowfunding.sol\":2186:2201  Project project */\n      dup1\n        /* \"contracts/Crowfunding.sol\":2205:2250  checkProjectExistence(_addressProjectCreator) */\n      tag_47\n        /* \"contracts/Crowfunding.sol\":2227:2249  _addressProjectCreator */\n      dup4\n        /* \"contracts/Crowfunding.sol\":2205:2226  checkProjectExistence */\n      tag_48\n        /* \"contracts/Crowfunding.sol\":2205:2250  checkProjectExistence(_addressProjectCreator) */\n      jump\t// in\n    tag_47:\n        /* \"contracts/Crowfunding.sol\":2171:2250  (bool isExist, Project project) = checkProjectExistence(_addressProjectCreator) */\n      swap2\n      pop\n      swap2\n      pop\n        /* \"contracts/Crowfunding.sol\":2263:2270  isExist */\n      dup2\n        /* \"contracts/Crowfunding.sol\":2260:2317  if(isExist) {... */\n      iszero\n      tag_49\n      jumpi\n        /* \"contracts/Crowfunding.sol\":2286:2293  project */\n      dup1\n        /* \"contracts/Crowfunding.sol\":2286:2304  project.contribute */\n      0xffffffffffffffffffffffffffffffffffffffff\n      and\n      0xd7bb99ba\n        /* \"contracts/Crowfunding.sol\":2286:2306  project.contribute() */\n      mload(0x40)\n      dup2\n      0xffffffff\n      and\n      0xe0\n      shl\n      dup2\n      mstore\n      0x04\n      add\n      0x00\n      mload(0x40)\n      dup1\n      dup4\n      sub\n      dup2\n      0x00\n      dup8\n      dup1\n      extcodesize\n      iszero\n      dup1\n      iszero\n      tag_50\n      jumpi\n      0x00\n      dup1\n      revert\n    tag_50:\n      pop\n      gas\n      call\n      iszero\n      dup1\n      iszero\n      tag_52\n      jumpi\n      returndatasize\n      0x00\n      dup1\n      returndatacopy\n      revert(0x00, returndatasize)\n    tag_52:\n      pop\n      pop\n      pop\n      pop\n        /* \"contracts/Crowfunding.sol\":2260:2317  if(isExist) {... */\n    tag_49:\n        /* \"contracts/Crowfunding.sol\":2161:2324  {... */\n      pop\n      pop\n        /* \"contracts/Crowfunding.sol\":2094:2324  function contribute(address _addressProjectCreator) payable public {... */\n      pop\n      jump\t// out\n        /* \"contracts/Crowfunding.sol\":756:856  function returnAllProjects() external view returns(Project[] memory){... */\n    tag_18:\n        /* \"contracts/Crowfunding.sol\":807:823  Project[] memory */\n      0x60\n        /* \"contracts/Crowfunding.sol\":841:849  projects */\n      0x00\n        /* \"contracts/Crowfunding.sol\":834:849  return projects */\n      dup1\n      sload\n      dup1\n      0x20\n      mul\n      0x20\n      add\n      mload(0x40)\n      swap1\n      dup2\n      add\n      0x40\n      mstore\n      dup1\n      swap3\n      swap2\n      swap1\n      dup2\n      dup2\n      mstore\n      0x20\n      add\n      dup3\n      dup1\n      sload\n      dup1\n      iszero\n      tag_54\n      jumpi\n      0x20\n      mul\n      dup3\n      add\n      swap2\n      swap1\n      0x00\n      mstore\n      keccak256(0x00, 0x20)\n      swap1\n    tag_55:\n      dup2\n      0x00\n      swap1\n      sload\n      swap1\n      0x0100\n      exp\n      swap1\n      div\n      0xffffffffffffffffffffffffffffffffffffffff\n      and\n      0xffffffffffffffffffffffffffffffffffffffff\n      and\n      dup2\n      mstore\n      0x20\n      add\n      swap1\n      0x01\n      add\n      swap1\n      dup1\n      dup4\n      gt\n      tag_55\n      jumpi\n    tag_54:\n      pop\n      pop\n      pop\n      pop\n      pop\n      swap1\n      pop\n        /* \"contracts/Crowfunding.sol\":756:856  function returnAllProjects() external view returns(Project[] memory){... */\n      swap1\n      jump\t// out\n        /* \"contracts/Crowfunding.sol\":1465:2088  function startProject (string memory _projectTitle, string memory _projectDescription, ... */\n    tag_25:\n        /* \"contracts/Crowfunding.sol\":1617:1633  uint _raiseUntil */\n      0x00\n        /* \"contracts/Crowfunding.sol\":1636:1676  block.timestamp.add(_nbDays.mul(1 days)) */\n      tag_57\n        /* \"contracts/Crowfunding.sol\":1656:1675  _nbDays.mul(1 days) */\n      tag_58\n        /* \"contracts/Crowfunding.sol\":1668:1674  1 days */\n      0x015180\n        /* \"contracts/Crowfunding.sol\":1656:1663  _nbDays */\n      dup5\n        /* \"contracts/Crowfunding.sol\":1656:1667  _nbDays.mul */\n      tag_59\n      swap1\n        /* \"contracts/Crowfunding.sol\":1656:1675  _nbDays.mul(1 days) */\n      swap2\n      swap1\n      0xffffffff\n      and\n      jump\t// in\n    tag_58:\n        /* \"contracts/Crowfunding.sol\":1636:1651  block.timestamp */\n      timestamp\n        /* \"contracts/Crowfunding.sol\":1636:1655  block.timestamp.add */\n      tag_60\n      swap1\n        /* \"contracts/Crowfunding.sol\":1636:1676  block.timestamp.add(_nbDays.mul(1 days)) */\n      swap2\n      swap1\n      0xffffffff\n      and\n      jump\t// in\n    tag_57:\n        /* \"contracts/Crowfunding.sol\":1617:1676  uint _raiseUntil = block.timestamp.add(_nbDays.mul(1 days)) */\n      swap1\n      pop\n        /* \"contracts/Crowfunding.sol\":1687:1705  Project newProject */\n      0x00\n        /* \"contracts/Crowfunding.sol\":1728:1738  msg.sender */\n      caller\n        /* \"contracts/Crowfunding.sol\":1741:1754  _projectTitle */\n      dup7\n        /* \"contracts/Crowfunding.sol\":1755:1774  _projectDescription */\n      dup7\n        /* \"contracts/Crowfunding.sol\":1775:1786  _amountGoal */\n      dup7\n        /* \"contracts/Crowfunding.sol\":1787:1798  _raiseUntil */\n      dup6\n        /* \"contracts/Crowfunding.sol\":1708:1799  new Project(payable(msg.sender), _projectTitle,_projectDescription,_amountGoal,_raiseUntil) */\n      mload(0x40)\n      tag_61\n      swap1\n      tag_62\n      jump\t// in\n    tag_61:\n      tag_63\n      swap6\n      swap5\n      swap4\n      swap3\n      swap2\n      swap1\n      tag_64\n      jump\t// in\n    tag_63:\n      mload(0x40)\n      dup1\n      swap2\n      sub\n      swap1\n      0x00\n      create\n      dup1\n      iszero\n      dup1\n      iszero\n      tag_65\n      jumpi\n      returndatasize\n      0x00\n      dup1\n      returndatacopy\n      revert(0x00, returndatasize)\n    tag_65:\n      pop\n        /* \"contracts/Crowfunding.sol\":1687:1799  Project newProject = new Project(payable(msg.sender), _projectTitle,_projectDescription,_amountGoal,_raiseUntil) */\n      swap1\n      pop\n        /* \"contracts/Crowfunding.sol\":1810:1818  projects */\n      0x00\n        /* \"contracts/Crowfunding.sol\":1824:1834  newProject */\n      dup2\n        /* \"contracts/Crowfunding.sol\":1810:1835  projects.push(newProject) */\n      swap1\n      dup1\n      0x01\n      dup2\n      sload\n      add\n      dup1\n      dup3\n      sstore\n      dup1\n      swap2\n      pop\n      pop\n      0x01\n      swap1\n      sub\n      swap1\n      0x00\n      mstore\n      keccak256(0x00, 0x20)\n      add\n      0x00\n      swap1\n      swap2\n      swap1\n      swap2\n      swap1\n      swap2\n      0x0100\n      exp\n      dup2\n      sload\n      dup2\n      0xffffffffffffffffffffffffffffffffffffffff\n      mul\n      not\n      and\n      swap1\n      dup4\n      0xffffffffffffffffffffffffffffffffffffffff\n      and\n      mul\n      or\n      swap1\n      sstore\n      pop\n        /* \"contracts/Crowfunding.sol\":1851:2081  ProjectStarted(... */\n      0xc5e9958c1e6508265757e920137857e1e705c02eb9c0e6b2a02101af19d44880\n        /* \"contracts/Crowfunding.sol\":1887:1897  newProject */\n      dup2\n        /* \"contracts/Crowfunding.sol\":1912:1922  msg.sender */\n      caller\n        /* \"contracts/Crowfunding.sol\":1936:1949  _projectTitle */\n      dup9\n        /* \"contracts/Crowfunding.sol\":1963:1982  _projectDescription */\n      dup9\n        /* \"contracts/Crowfunding.sol\":1996:2007  _raiseUntil */\n      dup7\n        /* \"contracts/Crowfunding.sol\":2021:2032  _amountGoal */\n      dup10\n        /* \"contracts/Crowfunding.sol\":2046:2071  Project.State.Fundraising */\n      0x00\n        /* \"contracts/Crowfunding.sol\":1851:2081  ProjectStarted(... */\n      mload(0x40)\n      tag_67\n      swap8\n      swap7\n      swap6\n      swap5\n      swap4\n      swap3\n      swap2\n      swap1\n      tag_68\n      jump\t// in\n    tag_67:\n      mload(0x40)\n      dup1\n      swap2\n      sub\n      swap1\n      log1\n        /* \"contracts/Crowfunding.sol\":1606:2088  {... */\n      pop\n      pop\n        /* \"contracts/Crowfunding.sol\":1465:2088  function startProject (string memory _projectTitle, string memory _projectDescription, ... */\n      pop\n      pop\n      pop\n      pop\n      jump\t// out\n        /* \"contracts/Crowfunding.sol\":863:1155  function checkProjectExistence(address _address) internal returns(bool, Project){... */\n    tag_48:\n        /* \"contracts/Crowfunding.sol\":929:933  bool */\n      0x00\n        /* \"contracts/Crowfunding.sol\":935:942  Project */\n      dup1\n        /* \"contracts/Crowfunding.sol\":958:964  uint i */\n      0x00\n        /* \"contracts/Crowfunding.sol\":970:978  projects */\n      dup1\n        /* \"contracts/Crowfunding.sol\":970:985  projects.length */\n      dup1\n      sload\n      swap1\n      pop\n        /* \"contracts/Crowfunding.sol\":968:969  i */\n      dup2\n        /* \"contracts/Crowfunding.sol\":968:985  i<projects.length */\n      lt\n        /* \"contracts/Crowfunding.sol\":954:1146  for(uint i=0; i<projects.length; i++){... */\n      iszero\n      tag_71\n      jumpi\n        /* \"contracts/Crowfunding.sol\":1039:1047  _address */\n      dup4\n        /* \"contracts/Crowfunding.sol\":1007:1047  projects[i].projectCreator() == _address */\n      0xffffffffffffffffffffffffffffffffffffffff\n      and\n        /* \"contracts/Crowfunding.sol\":1007:1015  projects */\n      0x00\n        /* \"contracts/Crowfunding.sol\":1016:1017  i */\n      dup3\n        /* \"contracts/Crowfunding.sol\":1007:1018  projects[i] */\n      dup2\n      sload\n      dup2\n      lt\n      tag_73\n      jumpi\n      tag_74\n      tag_32\n      jump\t// in\n    tag_74:\n    tag_73:\n      swap1\n      0x00\n      mstore\n      keccak256(0x00, 0x20)\n      add\n      0x00\n      swap1\n      sload\n      swap1\n      0x0100\n      exp\n      swap1\n      div\n      0xffffffffffffffffffffffffffffffffffffffff\n      and\n        /* \"contracts/Crowfunding.sol\":1007:1033  projects[i].projectCreator */\n      0xffffffffffffffffffffffffffffffffffffffff\n      and\n      0xa541a2a2\n        /* \"contracts/Crowfunding.sol\":1007:1035  projects[i].projectCreator() */\n      mload(0x40)\n      dup2\n      0xffffffff\n      and\n      0xe0\n      shl\n      dup2\n      mstore\n      0x04\n      add\n      0x20\n      mload(0x40)\n      dup1\n      dup4\n      sub\n      dup2\n      dup7\n      gas\n      staticcall\n      iszero\n      dup1\n      iszero\n      tag_77\n      jumpi\n      returndatasize\n      0x00\n      dup1\n      returndatacopy\n      revert(0x00, returndatasize)\n    tag_77:\n      pop\n      pop\n      pop\n      pop\n      mload(0x40)\n      returndatasize\n      not(0x1f)\n      0x1f\n      dup3\n      add\n      and\n      dup3\n      add\n      dup1\n      0x40\n      mstore\n      pop\n      dup2\n      add\n      swap1\n      tag_78\n      swap2\n      swap1\n      tag_37\n      jump\t// in\n    tag_78:\n        /* \"contracts/Crowfunding.sol\":1007:1047  projects[i].projectCreator() == _address */\n      0xffffffffffffffffffffffffffffffffffffffff\n      and\n      sub\n        /* \"contracts/Crowfunding.sol\":1004:1105  if(projects[i].projectCreator() == _address){... */\n      tag_79\n      jumpi\n        /* \"contracts/Crowfunding.sol\":1073:1077  true */\n      0x01\n        /* \"contracts/Crowfunding.sol\":1079:1087  projects */\n      0x00\n        /* \"contracts/Crowfunding.sol\":1088:1089  i */\n      dup3\n        /* \"contracts/Crowfunding.sol\":1079:1090  projects[i] */\n      dup2\n      sload\n      dup2\n      lt\n      tag_80\n      jumpi\n      tag_81\n      tag_32\n      jump\t// in\n    tag_81:\n    tag_80:\n      swap1\n      0x00\n      mstore\n      keccak256(0x00, 0x20)\n      add\n      0x00\n      swap1\n      sload\n      swap1\n      0x0100\n      exp\n      swap1\n      div\n      0xffffffffffffffffffffffffffffffffffffffff\n      and\n        /* \"contracts/Crowfunding.sol\":1065:1091  return (true, projects[i]) */\n      swap3\n      pop\n      swap3\n      pop\n      pop\n      jump(tag_69)\n        /* \"contracts/Crowfunding.sol\":1004:1105  if(projects[i].projectCreator() == _address){... */\n    tag_79:\n        /* \"contracts/Crowfunding.sol\":1117:1136  revert('Not found') */\n      mload(0x40)\n      0x08c379a000000000000000000000000000000000000000000000000000000000\n      dup2\n      mstore\n      0x04\n      add\n      tag_83\n      swap1\n      tag_84\n      jump\t// in\n    tag_83:\n      mload(0x40)\n      dup1\n      swap2\n      sub\n      swap1\n      revert\n        /* \"contracts/Crowfunding.sol\":954:1146  for(uint i=0; i<projects.length; i++){... */\n    tag_71:\n      pop\n        /* \"contracts/Crowfunding.sol\":863:1155  function checkProjectExistence(address _address) internal returns(bool, Project){... */\n    tag_69:\n      swap2\n      pop\n      swap2\n      jump\t// out\n        /* \"https://github.com/OpenZeppelin/openzeppelin-contracts/blob/master/contracts/utils/math/SafeMath.sol\":3465:3561  function mul(uint256 a, uint256 b) internal pure returns (uint256) {... */\n    tag_59:\n        /* \"https://github.com/OpenZeppelin/openzeppelin-contracts/blob/master/contracts/utils/math/SafeMath.sol\":3523:3530  uint256 */\n      0x00\n        /* \"https://github.com/OpenZeppelin/openzeppelin-contracts/blob/master/contracts/utils/math/SafeMath.sol\":3553:3554  b */\n      dup2\n        /* \"https://github.com/OpenZeppelin/openzeppelin-contracts/blob/master/contracts/utils/math/SafeMath.sol\":3549:3550  a */\n      dup4\n        /* \"https://github.com/OpenZeppelin/openzeppelin-contracts/blob/master/contracts/utils/math/SafeMath.sol\":3549:3554  a * b */\n      tag_87\n      swap2\n      swap1\n      tag_88\n      jump\t// in\n    tag_87:\n        /* \"https://github.com/OpenZeppelin/openzeppelin-contracts/blob/master/contracts/utils/math/SafeMath.sol\":3542:3554  return a * b */\n      swap1\n      pop\n        /* \"https://github.com/OpenZeppelin/openzeppelin-contracts/blob/master/contracts/utils/math/SafeMath.sol\":3465:3561  function mul(uint256 a, uint256 b) internal pure returns (uint256) {... */\n      swap3\n      swap2\n      pop\n      pop\n      jump\t// out\n        /* \"https://github.com/OpenZeppelin/openzeppelin-contracts/blob/master/contracts/utils/math/SafeMath.sol\":2755:2851  function add(uint256 a, uint256 b) internal pure returns (uint256) {... */\n    tag_60:\n        /* \"https://github.com/OpenZeppelin/openzeppelin-contracts/blob/master/contracts/utils/math/SafeMath.sol\":2813:2820  uint256 */\n      0x00\n        /* \"https://github.com/OpenZeppelin/openzeppelin-contracts/blob/master/contracts/utils/math/SafeMath.sol\":2843:2844  b */\n      dup2\n        /* \"https://github.com/OpenZeppelin/openzeppelin-contracts/blob/master/contracts/utils/math/SafeMath.sol\":2839:2840  a */\n      dup4\n        /* \"https://github.com/OpenZeppelin/openzeppelin-contracts/blob/master/contracts/utils/math/SafeMath.sol\":2839:2844  a + b */\n      tag_90\n      swap2\n      swap1\n      tag_91\n      jump\t// in\n    tag_90:\n        /* \"https://github.com/OpenZeppelin/openzeppelin-contracts/blob/master/contracts/utils/math/SafeMath.sol\":2832:2844  return a + b */\n      swap1\n      pop\n        /* \"https://github.com/OpenZeppelin/openzeppelin-contracts/blob/master/contracts/utils/math/SafeMath.sol\":2755:2851  function add(uint256 a, uint256 b) internal pure returns (uint256) {... */\n      swap3\n      swap2\n      pop\n      pop\n      jump\t// out\n    tag_62:\n      dataSize(sub_0)\n      dup1\n      dataOffset(sub_0)\n      dup4\n      codecopy\n      add\n      swap1\n      jump\t// out\n        /* \"#utility.yul\":7:82   */\n    tag_92:\n        /* \"#utility.yul\":40:46   */\n      0x00\n        /* \"#utility.yul\":73:75   */\n      0x40\n        /* \"#utility.yul\":67:76   */\n      mload\n        /* \"#utility.yul\":57:76   */\n      swap1\n      pop\n        /* \"#utility.yul\":7:82   */\n      swap1\n      jump\t// out\n        /* \"#utility.yul\":88:205   */\n    tag_93:\n        /* \"#utility.yul\":197:198   */\n      0x00\n        /* \"#utility.yul\":194:195   */\n      dup1\n        /* \"#utility.yul\":187:199   */\n      revert\n        /* \"#utility.yul\":211:328   */\n    tag_94:\n        /* \"#utility.yul\":320:321   */\n      0x00\n        /* \"#utility.yul\":317:318   */\n      dup1\n        /* \"#utility.yul\":310:322   */\n      revert\n        /* \"#utility.yul\":334:460   */\n    tag_95:\n        /* \"#utility.yul\":371:378   */\n      0x00\n        /* \"#utility.yul\":411:453   */\n      0xffffffffffffffffffffffffffffffffffffffff\n        /* \"#utility.yul\":404:409   */\n      dup3\n        /* \"#utility.yul\":400:454   */\n      and\n        /* \"#utility.yul\":389:454   */\n      swap1\n      pop\n        /* \"#utility.yul\":334:460   */\n      swap2\n      swap1\n      pop\n      jump\t// out\n        /* \"#utility.yul\":466:562   */\n    tag_96:\n        /* \"#utility.yul\":503:510   */\n      0x00\n        /* \"#utility.yul\":532:556   */\n      tag_150\n        /* \"#utility.yul\":550:555   */\n      dup3\n        /* \"#utility.yul\":532:556   */\n      tag_95\n      jump\t// in\n    tag_150:\n        /* \"#utility.yul\":521:556   */\n      swap1\n      pop\n        /* \"#utility.yul\":466:562   */\n      swap2\n      swap1\n      pop\n      jump\t// out\n        /* \"#utility.yul\":568:690   */\n    tag_97:\n        /* \"#utility.yul\":641:665   */\n      tag_152\n        /* \"#utility.yul\":659:664   */\n      dup2\n        /* \"#utility.yul\":641:665   */\n      tag_96\n      jump\t// in\n    tag_152:\n        /* \"#utility.yul\":634:639   */\n      dup2\n        /* \"#utility.yul\":631:666   */\n      eq\n        /* \"#utility.yul\":621:684   */\n      tag_153\n      jumpi\n        /* \"#utility.yul\":680:681   */\n      0x00\n        /* \"#utility.yul\":677:678   */\n      dup1\n        /* \"#utility.yul\":670:682   */\n      revert\n        /* \"#utility.yul\":621:684   */\n    tag_153:\n        /* \"#utility.yul\":568:690   */\n      pop\n      jump\t// out\n        /* \"#utility.yul\":696:835   */\n    tag_98:\n        /* \"#utility.yul\":742:747   */\n      0x00\n        /* \"#utility.yul\":780:786   */\n      dup2\n        /* \"#utility.yul\":767:787   */\n      calldataload\n        /* \"#utility.yul\":758:787   */\n      swap1\n      pop\n        /* \"#utility.yul\":796:829   */\n      tag_155\n        /* \"#utility.yul\":823:828   */\n      dup2\n        /* \"#utility.yul\":796:829   */\n      tag_97\n      jump\t// in\n    tag_155:\n        /* \"#utility.yul\":696:835   */\n      swap3\n      swap2\n      pop\n      pop\n      jump\t// out\n        /* \"#utility.yul\":841:1170   */\n    tag_9:\n        /* \"#utility.yul\":900:906   */\n      0x00\n        /* \"#utility.yul\":949:951   */\n      0x20\n        /* \"#utility.yul\":937:946   */\n      dup3\n        /* \"#utility.yul\":928:935   */\n      dup5\n        /* \"#utility.yul\":924:947   */\n      sub\n        /* \"#utility.yul\":920:952   */\n      slt\n        /* \"#utility.yul\":917:1036   */\n      iszero\n      tag_157\n      jumpi\n        /* \"#utility.yul\":955:1034   */\n      tag_158\n      tag_93\n      jump\t// in\n    tag_158:\n        /* \"#utility.yul\":917:1036   */\n    tag_157:\n        /* \"#utility.yul\":1075:1076   */\n      0x00\n        /* \"#utility.yul\":1100:1153   */\n      tag_159\n        /* \"#utility.yul\":1145:1152   */\n      dup5\n        /* \"#utility.yul\":1136:1142   */\n      dup3\n        /* \"#utility.yul\":1125:1134   */\n      dup6\n        /* \"#utility.yul\":1121:1143   */\n      add\n        /* \"#utility.yul\":1100:1153   */\n      tag_98\n      jump\t// in\n    tag_159:\n        /* \"#utility.yul\":1090:1153   */\n      swap2\n      pop\n        /* \"#utility.yul\":1046:1163   */\n      pop\n        /* \"#utility.yul\":841:1170   */\n      swap3\n      swap2\n      pop\n      pop\n      jump\t// out\n        /* \"#utility.yul\":1176:1236   */\n    tag_99:\n        /* \"#utility.yul\":1204:1207   */\n      0x00\n        /* \"#utility.yul\":1225:1230   */\n      dup2\n        /* \"#utility.yul\":1218:1230   */\n      swap1\n      pop\n        /* \"#utility.yul\":1176:1236   */\n      swap2\n      swap1\n      pop\n      jump\t// out\n        /* \"#utility.yul\":1242:1384   */\n    tag_100:\n        /* \"#utility.yul\":1292:1301   */\n      0x00\n        /* \"#utility.yul\":1325:1378   */\n      tag_162\n        /* \"#utility.yul\":1343:1377   */\n      tag_163\n        /* \"#utility.yul\":1352:1376   */\n      tag_164\n        /* \"#utility.yul\":1370:1375   */\n      dup5\n        /* \"#utility.yul\":1352:1376   */\n      tag_95\n      jump\t// in\n    tag_164:\n        /* \"#utility.yul\":1343:1377   */\n      tag_99\n      jump\t// in\n    tag_163:\n        /* \"#utility.yul\":1325:1378   */\n      tag_95\n      jump\t// in\n    tag_162:\n        /* \"#utility.yul\":1312:1378   */\n      swap1\n      pop\n        /* \"#utility.yul\":1242:1384   */\n      swap2\n      swap1\n      pop\n      jump\t// out\n        /* \"#utility.yul\":1390:1516   */\n    tag_101:\n        /* \"#utility.yul\":1440:1449   */\n      0x00\n        /* \"#utility.yul\":1473:1510   */\n      tag_166\n        /* \"#utility.yul\":1504:1509   */\n      dup3\n        /* \"#utility.yul\":1473:1510   */\n      tag_100\n      jump\t// in\n    tag_166:\n        /* \"#utility.yul\":1460:1510   */\n      swap1\n      pop\n        /* \"#utility.yul\":1390:1516   */\n      swap2\n      swap1\n      pop\n      jump\t// out\n        /* \"#utility.yul\":1522:1663   */\n    tag_102:\n        /* \"#utility.yul\":1587:1596   */\n      0x00\n        /* \"#utility.yul\":1620:1657   */\n      tag_168\n        /* \"#utility.yul\":1651:1656   */\n      dup3\n        /* \"#utility.yul\":1620:1657   */\n      tag_101\n      jump\t// in\n    tag_168:\n        /* \"#utility.yul\":1607:1657   */\n      swap1\n      pop\n        /* \"#utility.yul\":1522:1663   */\n      swap2\n      swap1\n      pop\n      jump\t// out\n        /* \"#utility.yul\":1669:1830   */\n    tag_103:\n        /* \"#utility.yul\":1771:1823   */\n      tag_170\n        /* \"#utility.yul\":1817:1822   */\n      dup2\n        /* \"#utility.yul\":1771:1823   */\n      tag_102\n      jump\t// in\n    tag_170:\n        /* \"#utility.yul\":1766:1769   */\n      dup3\n        /* \"#utility.yul\":1759:1824   */\n      mstore\n        /* \"#utility.yul\":1669:1830   */\n      pop\n      pop\n      jump\t// out\n        /* \"#utility.yul\":1836:2088   */\n    tag_12:\n        /* \"#utility.yul\":1944:1948   */\n      0x00\n        /* \"#utility.yul\":1982:1984   */\n      0x20\n        /* \"#utility.yul\":1971:1980   */\n      dup3\n        /* \"#utility.yul\":1967:1985   */\n      add\n        /* \"#utility.yul\":1959:1985   */\n      swap1\n      pop\n        /* \"#utility.yul\":1995:2081   */\n      tag_172\n        /* \"#utility.yul\":2078:2079   */\n      0x00\n        /* \"#utility.yul\":2067:2076   */\n      dup4\n        /* \"#utility.yul\":2063:2080   */\n      add\n        /* \"#utility.yul\":2054:2060   */\n      dup5\n        /* \"#utility.yul\":1995:2081   */\n      tag_103\n      jump\t// in\n    tag_172:\n        /* \"#utility.yul\":1836:2088   */\n      swap3\n      swap2\n      pop\n      pop\n      jump\t// out\n        /* \"#utility.yul\":2094:2223   */\n    tag_104:\n        /* \"#utility.yul\":2176:2182   */\n      0x00\n        /* \"#utility.yul\":2210:2215   */\n      dup2\n        /* \"#utility.yul\":2204:2216   */\n      mload\n        /* \"#utility.yul\":2194:2216   */\n      swap1\n      pop\n        /* \"#utility.yul\":2094:2223   */\n      swap2\n      swap1\n      pop\n      jump\t// out\n        /* \"#utility.yul\":2229:2413   */\n    tag_105:\n        /* \"#utility.yul\":2328:2339   */\n      0x00\n        /* \"#utility.yul\":2362:2368   */\n      dup3\n        /* \"#utility.yul\":2357:2360   */\n      dup3\n        /* \"#utility.yul\":2350:2369   */\n      mstore\n        /* \"#utility.yul\":2402:2406   */\n      0x20\n        /* \"#utility.yul\":2397:2400   */\n      dup3\n        /* \"#utility.yul\":2393:2407   */\n      add\n        /* \"#utility.yul\":2378:2407   */\n      swap1\n      pop\n        /* \"#utility.yul\":2229:2413   */\n      swap3\n      swap2\n      pop\n      pop\n      jump\t// out\n        /* \"#utility.yul\":2419:2566   */\n    tag_106:\n        /* \"#utility.yul\":2501:2505   */\n      0x00\n        /* \"#utility.yul\":2524:2527   */\n      dup2\n        /* \"#utility.yul\":2516:2527   */\n      swap1\n      pop\n        /* \"#utility.yul\":2554:2558   */\n      0x20\n        /* \"#utility.yul\":2549:2552   */\n      dup3\n        /* \"#utility.yul\":2545:2559   */\n      add\n        /* \"#utility.yul\":2537:2559   */\n      swap1\n      pop\n        /* \"#utility.yul\":2419:2566   */\n      swap2\n      swap1\n      pop\n      jump\t// out\n        /* \"#utility.yul\":2572:2723   */\n    tag_107:\n        /* \"#utility.yul\":2664:2716   */\n      tag_177\n        /* \"#utility.yul\":2710:2715   */\n      dup2\n        /* \"#utility.yul\":2664:2716   */\n      tag_102\n      jump\t// in\n    tag_177:\n        /* \"#utility.yul\":2659:2662   */\n      dup3\n        /* \"#utility.yul\":2652:2717   */\n      mstore\n        /* \"#utility.yul\":2572:2723   */\n      pop\n      pop\n      jump\t// out\n        /* \"#utility.yul\":2729:2938   */\n    tag_108:\n        /* \"#utility.yul\":2813:2823   */\n      0x00\n        /* \"#utility.yul\":2834:2895   */\n      tag_179\n        /* \"#utility.yul\":2891:2894   */\n      dup4\n        /* \"#utility.yul\":2883:2889   */\n      dup4\n        /* \"#utility.yul\":2834:2895   */\n      tag_107\n      jump\t// in\n    tag_179:\n        /* \"#utility.yul\":2927:2931   */\n      0x20\n        /* \"#utility.yul\":2922:2925   */\n      dup4\n        /* \"#utility.yul\":2918:2932   */\n      add\n        /* \"#utility.yul\":2904:2932   */\n      swap1\n      pop\n        /* \"#utility.yul\":2729:2938   */\n      swap3\n      swap2\n      pop\n      pop\n      jump\t// out\n        /* \"#utility.yul\":2944:3072   */\n    tag_109:\n        /* \"#utility.yul\":3029:3033   */\n      0x00\n        /* \"#utility.yul\":3061:3065   */\n      0x20\n        /* \"#utility.yul\":3056:3059   */\n      dup3\n        /* \"#utility.yul\":3052:3066   */\n      add\n        /* \"#utility.yul\":3044:3066   */\n      swap1\n      pop\n        /* \"#utility.yul\":2944:3072   */\n      swap2\n      swap1\n      pop\n      jump\t// out\n        /* \"#utility.yul\":3117:3924   */\n    tag_110:\n        /* \"#utility.yul\":3251:3254   */\n      0x00\n        /* \"#utility.yul\":3280:3349   */\n      tag_182\n        /* \"#utility.yul\":3343:3348   */\n      dup3\n        /* \"#utility.yul\":3280:3349   */\n      tag_104\n      jump\t// in\n    tag_182:\n        /* \"#utility.yul\":3365:3451   */\n      tag_183\n        /* \"#utility.yul\":3444:3450   */\n      dup2\n        /* \"#utility.yul\":3439:3442   */\n      dup6\n        /* \"#utility.yul\":3365:3451   */\n      tag_105\n      jump\t// in\n    tag_183:\n        /* \"#utility.yul\":3358:3451   */\n      swap4\n      pop\n        /* \"#utility.yul\":3475:3546   */\n      tag_184\n        /* \"#utility.yul\":3540:3545   */\n      dup4\n        /* \"#utility.yul\":3475:3546   */\n      tag_106\n      jump\t// in\n    tag_184:\n        /* \"#utility.yul\":3569:3576   */\n      dup1\n        /* \"#utility.yul\":3600:3601   */\n      0x00\n        /* \"#utility.yul\":3585:3899   */\n    tag_185:\n        /* \"#utility.yul\":3610:3616   */\n      dup4\n        /* \"#utility.yul\":3607:3608   */\n      dup2\n        /* \"#utility.yul\":3604:3617   */\n      lt\n        /* \"#utility.yul\":3585:3899   */\n      iszero\n      tag_187\n      jumpi\n        /* \"#utility.yul\":3686:3692   */\n      dup2\n        /* \"#utility.yul\":3680:3693   */\n      mload\n        /* \"#utility.yul\":3713:3791   */\n      tag_188\n        /* \"#utility.yul\":3787:3790   */\n      dup9\n        /* \"#utility.yul\":3772:3785   */\n      dup3\n        /* \"#utility.yul\":3713:3791   */\n      tag_108\n      jump\t// in\n    tag_188:\n        /* \"#utility.yul\":3706:3791   */\n      swap8\n      pop\n        /* \"#utility.yul\":3814:3889   */\n      tag_189\n        /* \"#utility.yul\":3882:3888   */\n      dup4\n        /* \"#utility.yul\":3814:3889   */\n      tag_109\n      jump\t// in\n    tag_189:\n        /* \"#utility.yul\":3804:3889   */\n      swap3\n      pop\n        /* \"#utility.yul\":3645:3899   */\n      pop\n        /* \"#utility.yul\":3632:3633   */\n      0x01\n        /* \"#utility.yul\":3629:3630   */\n      dup2\n        /* \"#utility.yul\":3625:3634   */\n      add\n        /* \"#utility.yul\":3620:3634   */\n      swap1\n      pop\n        /* \"#utility.yul\":3585:3899   */\n      jump(tag_185)\n    tag_187:\n        /* \"#utility.yul\":3589:3603   */\n      pop\n        /* \"#utility.yul\":3915:3918   */\n      dup6\n        /* \"#utility.yul\":3908:3918   */\n      swap4\n      pop\n        /* \"#utility.yul\":3256:3924   */\n      pop\n      pop\n      pop\n        /* \"#utility.yul\":3117:3924   */\n      swap3\n      swap2\n      pop\n      pop\n      jump\t// out\n        /* \"#utility.yul\":3930:4333   */\n    tag_20:\n        /* \"#utility.yul\":4088:4092   */\n      0x00\n        /* \"#utility.yul\":4126:4128   */\n      0x20\n        /* \"#utility.yul\":4115:4124   */\n      dup3\n        /* \"#utility.yul\":4111:4129   */\n      add\n        /* \"#utility.yul\":4103:4129   */\n      swap1\n      pop\n        /* \"#utility.yul\":4175:4184   */\n      dup2\n        /* \"#utility.yul\":4169:4173   */\n      dup2\n        /* \"#utility.yul\":4165:4185   */\n      sub\n        /* \"#utility.yul\":4161:4162   */\n      0x00\n        /* \"#utility.yul\":4150:4159   */\n      dup4\n        /* \"#utility.yul\":4146:4163   */\n      add\n        /* \"#utility.yul\":4139:4186   */\n      mstore\n        /* \"#utility.yul\":4203:4326   */\n      tag_191\n        /* \"#utility.yul\":4321:4325   */\n      dup2\n        /* \"#utility.yul\":4312:4318   */\n      dup5\n        /* \"#utility.yul\":4203:4326   */\n      tag_110\n      jump\t// in\n    tag_191:\n        /* \"#utility.yul\":4195:4326   */\n      swap1\n      pop\n        /* \"#utility.yul\":3930:4333   */\n      swap3\n      swap2\n      pop\n      pop\n      jump\t// out\n        /* \"#utility.yul\":4339:4456   */\n    tag_111:\n        /* \"#utility.yul\":4448:4449   */\n      0x00\n        /* \"#utility.yul\":4445:4446   */\n      dup1\n        /* \"#utility.yul\":4438:4450   */\n      revert\n        /* \"#utility.yul\":4462:4579   */\n    tag_112:\n        /* \"#utility.yul\":4571:4572   */\n      0x00\n        /* \"#utility.yul\":4568:4569   */\n      dup1\n        /* \"#utility.yul\":4561:4573   */\n      revert\n        /* \"#utility.yul\":4585:4687   */\n    tag_113:\n        /* \"#utility.yul\":4626:4632   */\n      0x00\n        /* \"#utility.yul\":4677:4679   */\n      0x1f\n        /* \"#utility.yul\":4673:4680   */\n      not\n        /* \"#utility.yul\":4668:4670   */\n      0x1f\n        /* \"#utility.yul\":4661:4666   */\n      dup4\n        /* \"#utility.yul\":4657:4671   */\n      add\n        /* \"#utility.yul\":4653:4681   */\n      and\n        /* \"#utility.yul\":4643:4681   */\n      swap1\n      pop\n        /* \"#utility.yul\":4585:4687   */\n      swap2\n      swap1\n      pop\n      jump\t// out\n        /* \"#utility.yul\":4693:4873   */\n    tag_114:\n        /* \"#utility.yul\":4741:4818   */\n      0x4e487b7100000000000000000000000000000000000000000000000000000000\n        /* \"#utility.yul\":4738:4739   */\n      0x00\n        /* \"#utility.yul\":4731:4819   */\n      mstore\n        /* \"#utility.yul\":4838:4842   */\n      0x41\n        /* \"#utility.yul\":4835:4836   */\n      0x04\n        /* \"#utility.yul\":4828:4843   */\n      mstore\n        /* \"#utility.yul\":4862:4866   */\n      0x24\n        /* \"#utility.yul\":4859:4860   */\n      0x00\n        /* \"#utility.yul\":4852:4867   */\n      revert\n        /* \"#utility.yul\":4879:5160   */\n    tag_115:\n        /* \"#utility.yul\":4962:4989   */\n      tag_197\n        /* \"#utility.yul\":4984:4988   */\n      dup3\n        /* \"#utility.yul\":4962:4989   */\n      tag_113\n      jump\t// in\n    tag_197:\n        /* \"#utility.yul\":4954:4960   */\n      dup2\n        /* \"#utility.yul\":4950:4990   */\n      add\n        /* \"#utility.yul\":5092:5098   */\n      dup2\n        /* \"#utility.yul\":5080:5090   */\n      dup2\n        /* \"#utility.yul\":5077:5099   */\n      lt\n        /* \"#utility.yul\":5056:5074   */\n      0xffffffffffffffff\n        /* \"#utility.yul\":5044:5054   */\n      dup3\n        /* \"#utility.yul\":5041:5075   */\n      gt\n        /* \"#utility.yul\":5038:5100   */\n      or\n        /* \"#utility.yul\":5035:5123   */\n      iszero\n      tag_198\n      jumpi\n        /* \"#utility.yul\":5103:5121   */\n      tag_199\n      tag_114\n      jump\t// in\n    tag_199:\n        /* \"#utility.yul\":5035:5123   */\n    tag_198:\n        /* \"#utility.yul\":5143:5153   */\n      dup1\n        /* \"#utility.yul\":5139:5141   */\n      0x40\n        /* \"#utility.yul\":5132:5154   */\n      mstore\n        /* \"#utility.yul\":4922:5160   */\n      pop\n        /* \"#utility.yul\":4879:5160   */\n      pop\n      pop\n      jump\t// out\n        /* \"#utility.yul\":5166:5295   */\n    tag_116:\n        /* \"#utility.yul\":5200:5206   */\n      0x00\n        /* \"#utility.yul\":5227:5247   */\n      tag_201\n      tag_92\n      jump\t// in\n    tag_201:\n        /* \"#utility.yul\":5217:5247   */\n      swap1\n      pop\n        /* \"#utility.yul\":5256:5289   */\n      tag_202\n        /* \"#utility.yul\":5284:5288   */\n      dup3\n        /* \"#utility.yul\":5276:5282   */\n      dup3\n        /* \"#utility.yul\":5256:5289   */\n      tag_115\n      jump\t// in\n    tag_202:\n        /* \"#utility.yul\":5166:5295   */\n      swap2\n      swap1\n      pop\n      jump\t// out\n        /* \"#utility.yul\":5301:5609   */\n    tag_117:\n        /* \"#utility.yul\":5363:5367   */\n      0x00\n        /* \"#utility.yul\":5453:5471   */\n      0xffffffffffffffff\n        /* \"#utility.yul\":5445:5451   */\n      dup3\n        /* \"#utility.yul\":5442:5472   */\n      gt\n        /* \"#utility.yul\":5439:5495   */\n      iszero\n      tag_204\n      jumpi\n        /* \"#utility.yul\":5475:5493   */\n      tag_205\n      tag_114\n      jump\t// in\n    tag_205:\n        /* \"#utility.yul\":5439:5495   */\n    tag_204:\n        /* \"#utility.yul\":5513:5542   */\n      tag_206\n        /* \"#utility.yul\":5535:5541   */\n      dup3\n        /* \"#utility.yul\":5513:5542   */\n      tag_113\n      jump\t// in\n    tag_206:\n        /* \"#utility.yul\":5505:5542   */\n      swap1\n      pop\n        /* \"#utility.yul\":5597:5601   */\n      0x20\n        /* \"#utility.yul\":5591:5595   */\n      dup2\n        /* \"#utility.yul\":5587:5602   */\n      add\n        /* \"#utility.yul\":5579:5602   */\n      swap1\n      pop\n        /* \"#utility.yul\":5301:5609   */\n      swap2\n      swap1\n      pop\n      jump\t// out\n        /* \"#utility.yul\":5615:5769   */\n    tag_118:\n        /* \"#utility.yul\":5699:5705   */\n      dup3\n        /* \"#utility.yul\":5694:5697   */\n      dup2\n        /* \"#utility.yul\":5689:5692   */\n      dup4\n        /* \"#utility.yul\":5676:5706   */\n      calldatacopy\n        /* \"#utility.yul\":5761:5762   */\n      0x00\n        /* \"#utility.yul\":5752:5758   */\n      dup4\n        /* \"#utility.yul\":5747:5750   */\n      dup4\n        /* \"#utility.yul\":5743:5759   */\n      add\n        /* \"#utility.yul\":5736:5763   */\n      mstore\n        /* \"#utility.yul\":5615:5769   */\n      pop\n      pop\n      pop\n      jump\t// out\n        /* \"#utility.yul\":5775:6187   */\n    tag_119:\n        /* \"#utility.yul\":5853:5858   */\n      0x00\n        /* \"#utility.yul\":5878:5944   */\n      tag_209\n        /* \"#utility.yul\":5894:5943   */\n      tag_210\n        /* \"#utility.yul\":5936:5942   */\n      dup5\n        /* \"#utility.yul\":5894:5943   */\n      tag_117\n      jump\t// in\n    tag_210:\n        /* \"#utility.yul\":5878:5944   */\n      tag_116\n      jump\t// in\n    tag_209:\n        /* \"#utility.yul\":5869:5944   */\n      swap1\n      pop\n        /* \"#utility.yul\":5967:5973   */\n      dup3\n        /* \"#utility.yul\":5960:5965   */\n      dup2\n        /* \"#utility.yul\":5953:5974   */\n      mstore\n        /* \"#utility.yul\":6005:6009   */\n      0x20\n        /* \"#utility.yul\":5998:6003   */\n      dup2\n        /* \"#utility.yul\":5994:6010   */\n      add\n        /* \"#utility.yul\":6043:6046   */\n      dup5\n        /* \"#utility.yul\":6034:6040   */\n      dup5\n        /* \"#utility.yul\":6029:6032   */\n      dup5\n        /* \"#utility.yul\":6025:6041   */\n      add\n        /* \"#utility.yul\":6022:6047   */\n      gt\n        /* \"#utility.yul\":6019:6131   */\n      iszero\n      tag_211\n      jumpi\n        /* \"#utility.yul\":6050:6129   */\n      tag_212\n      tag_112\n      jump\t// in\n    tag_212:\n        /* \"#utility.yul\":6019:6131   */\n    tag_211:\n        /* \"#utility.yul\":6140:6181   */\n      tag_213\n        /* \"#utility.yul\":6174:6180   */\n      dup5\n        /* \"#utility.yul\":6169:6172   */\n      dup3\n        /* \"#utility.yul\":6164:6167   */\n      dup6\n        /* \"#utility.yul\":6140:6181   */\n      tag_118\n      jump\t// in\n    tag_213:\n        /* \"#utility.yul\":5859:6187   */\n      pop\n        /* \"#utility.yul\":5775:6187   */\n      swap4\n      swap3\n      pop\n      pop\n      pop\n      jump\t// out\n        /* \"#utility.yul\":6207:6547   */\n    tag_120:\n        /* \"#utility.yul\":6263:6268   */\n      0x00\n        /* \"#utility.yul\":6312:6315   */\n      dup3\n        /* \"#utility.yul\":6305:6309   */\n      0x1f\n        /* \"#utility.yul\":6297:6303   */\n      dup4\n        /* \"#utility.yul\":6293:6310   */\n      add\n        /* \"#utility.yul\":6289:6316   */\n      slt\n        /* \"#utility.yul\":6279:6401   */\n      tag_215\n      jumpi\n        /* \"#utility.yul\":6320:6399   */\n      tag_216\n      tag_111\n      jump\t// in\n    tag_216:\n        /* \"#utility.yul\":6279:6401   */\n    tag_215:\n        /* \"#utility.yul\":6437:6443   */\n      dup2\n        /* \"#utility.yul\":6424:6444   */\n      calldataload\n        /* \"#utility.yul\":6462:6541   */\n      tag_217\n        /* \"#utility.yul\":6537:6540   */\n      dup5\n        /* \"#utility.yul\":6529:6535   */\n      dup3\n        /* \"#utility.yul\":6522:6526   */\n      0x20\n        /* \"#utility.yul\":6514:6520   */\n      dup7\n        /* \"#utility.yul\":6510:6527   */\n      add\n        /* \"#utility.yul\":6462:6541   */\n      tag_119\n      jump\t// in\n    tag_217:\n        /* \"#utility.yul\":6453:6541   */\n      swap2\n      pop\n        /* \"#utility.yul\":6269:6547   */\n      pop\n        /* \"#utility.yul\":6207:6547   */\n      swap3\n      swap2\n      pop\n      pop\n      jump\t// out\n        /* \"#utility.yul\":6553:6630   */\n    tag_121:\n        /* \"#utility.yul\":6590:6597   */\n      0x00\n        /* \"#utility.yul\":6619:6624   */\n      dup2\n        /* \"#utility.yul\":6608:6624   */\n      swap1\n      pop\n        /* \"#utility.yul\":6553:6630   */\n      swap2\n      swap1\n      pop\n      jump\t// out\n        /* \"#utility.yul\":6636:6758   */\n    tag_122:\n        /* \"#utility.yul\":6709:6733   */\n      tag_220\n        /* \"#utility.yul\":6727:6732   */\n      dup2\n        /* \"#utility.yul\":6709:6733   */\n      tag_121\n      jump\t// in\n    tag_220:\n        /* \"#utility.yul\":6702:6707   */\n      dup2\n        /* \"#utility.yul\":6699:6734   */\n      eq\n        /* \"#utility.yul\":6689:6752   */\n      tag_221\n      jumpi\n        /* \"#utility.yul\":6748:6749   */\n      0x00\n        /* \"#utility.yul\":6745:6746   */\n      dup1\n        /* \"#utility.yul\":6738:6750   */\n      revert\n        /* \"#utility.yul\":6689:6752   */\n    tag_221:\n        /* \"#utility.yul\":6636:6758   */\n      pop\n      jump\t// out\n        /* \"#utility.yul\":6764:6903   */\n    tag_123:\n        /* \"#utility.yul\":6810:6815   */\n      0x00\n        /* \"#utility.yul\":6848:6854   */\n      dup2\n        /* \"#utility.yul\":6835:6855   */\n      calldataload\n        /* \"#utility.yul\":6826:6855   */\n      swap1\n      pop\n        /* \"#utility.yul\":6864:6897   */\n      tag_223\n        /* \"#utility.yul\":6891:6896   */\n      dup2\n        /* \"#utility.yul\":6864:6897   */\n      tag_122\n      jump\t// in\n    tag_223:\n        /* \"#utility.yul\":6764:6903   */\n      swap3\n      swap2\n      pop\n      pop\n      jump\t// out\n        /* \"#utility.yul\":6909:8034   */\n    tag_24:\n        /* \"#utility.yul\":7015:7021   */\n      0x00\n        /* \"#utility.yul\":7023:7029   */\n      dup1\n        /* \"#utility.yul\":7031:7037   */\n      0x00\n        /* \"#utility.yul\":7039:7045   */\n      dup1\n        /* \"#utility.yul\":7088:7091   */\n      0x80\n        /* \"#utility.yul\":7076:7085   */\n      dup6\n        /* \"#utility.yul\":7067:7074   */\n      dup8\n        /* \"#utility.yul\":7063:7086   */\n      sub\n        /* \"#utility.yul\":7059:7092   */\n      slt\n        /* \"#utility.yul\":7056:7176   */\n      iszero\n      tag_225\n      jumpi\n        /* \"#utility.yul\":7095:7174   */\n      tag_226\n      tag_93\n      jump\t// in\n    tag_226:\n        /* \"#utility.yul\":7056:7176   */\n    tag_225:\n        /* \"#utility.yul\":7243:7244   */\n      0x00\n        /* \"#utility.yul\":7232:7241   */\n      dup6\n        /* \"#utility.yul\":7228:7245   */\n      add\n        /* \"#utility.yul\":7215:7246   */\n      calldataload\n        /* \"#utility.yul\":7273:7291   */\n      0xffffffffffffffff\n        /* \"#utility.yul\":7265:7271   */\n      dup2\n        /* \"#utility.yul\":7262:7292   */\n      gt\n        /* \"#utility.yul\":7259:7376   */\n      iszero\n      tag_227\n      jumpi\n        /* \"#utility.yul\":7295:7374   */\n      tag_228\n      tag_94\n      jump\t// in\n    tag_228:\n        /* \"#utility.yul\":7259:7376   */\n    tag_227:\n        /* \"#utility.yul\":7400:7463   */\n      tag_229\n        /* \"#utility.yul\":7455:7462   */\n      dup8\n        /* \"#utility.yul\":7446:7452   */\n      dup3\n        /* \"#utility.yul\":7435:7444   */\n      dup9\n        /* \"#utility.yul\":7431:7453   */\n      add\n        /* \"#utility.yul\":7400:7463   */\n      tag_120\n      jump\t// in\n    tag_229:\n        /* \"#utility.yul\":7390:7463   */\n      swap5\n      pop\n        /* \"#utility.yul\":7186:7473   */\n      pop\n        /* \"#utility.yul\":7540:7542   */\n      0x20\n        /* \"#utility.yul\":7529:7538   */\n      dup6\n        /* \"#utility.yul\":7525:7543   */\n      add\n        /* \"#utility.yul\":7512:7544   */\n      calldataload\n        /* \"#utility.yul\":7571:7589   */\n      0xffffffffffffffff\n        /* \"#utility.yul\":7563:7569   */\n      dup2\n        /* \"#utility.yul\":7560:7590   */\n      gt\n        /* \"#utility.yul\":7557:7674   */\n      iszero\n      tag_230\n      jumpi\n        /* \"#utility.yul\":7593:7672   */\n      tag_231\n      tag_94\n      jump\t// in\n    tag_231:\n        /* \"#utility.yul\":7557:7674   */\n    tag_230:\n        /* \"#utility.yul\":7698:7761   */\n      tag_232\n        /* \"#utility.yul\":7753:7760   */\n      dup8\n        /* \"#utility.yul\":7744:7750   */\n      dup3\n        /* \"#utility.yul\":7733:7742   */\n      dup9\n        /* \"#utility.yul\":7729:7751   */\n      add\n        /* \"#utility.yul\":7698:7761   */\n      tag_120\n      jump\t// in\n    tag_232:\n        /* \"#utility.yul\":7688:7761   */\n      swap4\n      pop\n        /* \"#utility.yul\":7483:7771   */\n      pop\n        /* \"#utility.yul\":7810:7812   */\n      0x40\n        /* \"#utility.yul\":7836:7889   */\n      tag_233\n        /* \"#utility.yul\":7881:7888   */\n      dup8\n        /* \"#utility.yul\":7872:7878   */\n      dup3\n        /* \"#utility.yul\":7861:7870   */\n      dup9\n        /* \"#utility.yul\":7857:7879   */\n      add\n        /* \"#utility.yul\":7836:7889   */\n      tag_123\n      jump\t// in\n    tag_233:\n        /* \"#utility.yul\":7826:7889   */\n      swap3\n      pop\n        /* \"#utility.yul\":7781:7899   */\n      pop\n        /* \"#utility.yul\":7938:7940   */\n      0x60\n        /* \"#utility.yul\":7964:8017   */\n      tag_234\n        /* \"#utility.yul\":8009:8016   */\n      dup8\n        /* \"#utility.yul\":8000:8006   */\n      dup3\n        /* \"#utility.yul\":7989:7998   */\n      dup9\n        /* \"#utility.yul\":7985:8007   */\n      add\n        /* \"#utility.yul\":7964:8017   */\n      tag_123\n      jump\t// in\n    tag_234:\n        /* \"#utility.yul\":7954:8017   */\n      swap2\n      pop\n        /* \"#utility.yul\":7909:8027   */\n      pop\n        /* \"#utility.yul\":6909:8034   */\n      swap3\n      swap6\n      swap2\n      swap5\n      pop\n      swap3\n      pop\n      jump\t// out\n        /* \"#utility.yul\":8040:8220   */\n    tag_32:\n        /* \"#utility.yul\":8088:8165   */\n      0x4e487b7100000000000000000000000000000000000000000000000000000000\n        /* \"#utility.yul\":8085:8086   */\n      0x00\n        /* \"#utility.yul\":8078:8166   */\n      mstore\n        /* \"#utility.yul\":8185:8189   */\n      0x32\n        /* \"#utility.yul\":8182:8183   */\n      0x04\n        /* \"#utility.yul\":8175:8190   */\n      mstore\n        /* \"#utility.yul\":8209:8213   */\n      0x24\n        /* \"#utility.yul\":8206:8207   */\n      0x00\n        /* \"#utility.yul\":8199:8214   */\n      revert\n        /* \"#utility.yul\":8226:8330   */\n    tag_124:\n        /* \"#utility.yul\":8271:8278   */\n      0x00\n        /* \"#utility.yul\":8300:8324   */\n      tag_237\n        /* \"#utility.yul\":8318:8323   */\n      dup3\n        /* \"#utility.yul\":8300:8324   */\n      tag_95\n      jump\t// in\n    tag_237:\n        /* \"#utility.yul\":8289:8324   */\n      swap1\n      pop\n        /* \"#utility.yul\":8226:8330   */\n      swap2\n      swap1\n      pop\n      jump\t// out\n        /* \"#utility.yul\":8336:8474   */\n    tag_125:\n        /* \"#utility.yul\":8417:8449   */\n      tag_239\n        /* \"#utility.yul\":8443:8448   */\n      dup2\n        /* \"#utility.yul\":8417:8449   */\n      tag_124\n      jump\t// in\n    tag_239:\n        /* \"#utility.yul\":8410:8415   */\n      dup2\n        /* \"#utility.yul\":8407:8450   */\n      eq\n        /* \"#utility.yul\":8397:8468   */\n      tag_240\n      jumpi\n        /* \"#utility.yul\":8464:8465   */\n      0x00\n        /* \"#utility.yul\":8461:8462   */\n      dup1\n        /* \"#utility.yul\":8454:8466   */\n      revert\n        /* \"#utility.yul\":8397:8468   */\n    tag_240:\n        /* \"#utility.yul\":8336:8474   */\n      pop\n      jump\t// out\n        /* \"#utility.yul\":8480:8639   */\n    tag_126:\n        /* \"#utility.yul\":8545:8550   */\n      0x00\n        /* \"#utility.yul\":8576:8582   */\n      dup2\n        /* \"#utility.yul\":8570:8583   */\n      mload\n        /* \"#utility.yul\":8561:8583   */\n      swap1\n      pop\n        /* \"#utility.yul\":8592:8633   */\n      tag_242\n        /* \"#utility.yul\":8627:8632   */\n      dup2\n        /* \"#utility.yul\":8592:8633   */\n      tag_125\n      jump\t// in\n    tag_242:\n        /* \"#utility.yul\":8480:8639   */\n      swap3\n      swap2\n      pop\n      pop\n      jump\t// out\n        /* \"#utility.yul\":8645:9012   */\n    tag_37:\n        /* \"#utility.yul\":8723:8729   */\n      0x00\n        /* \"#utility.yul\":8772:8774   */\n      0x20\n        /* \"#utility.yul\":8760:8769   */\n      dup3\n        /* \"#utility.yul\":8751:8758   */\n      dup5\n        /* \"#utility.yul\":8747:8770   */\n      sub\n        /* \"#utility.yul\":8743:8775   */\n      slt\n        /* \"#utility.yul\":8740:8859   */\n      iszero\n      tag_244\n      jumpi\n        /* \"#utility.yul\":8778:8857   */\n      tag_245\n      tag_93\n      jump\t// in\n    tag_245:\n        /* \"#utility.yul\":8740:8859   */\n    tag_244:\n        /* \"#utility.yul\":8898:8899   */\n      0x00\n        /* \"#utility.yul\":8923:8995   */\n      tag_246\n        /* \"#utility.yul\":8987:8994   */\n      dup5\n        /* \"#utility.yul\":8978:8984   */\n      dup3\n        /* \"#utility.yul\":8967:8976   */\n      dup6\n        /* \"#utility.yul\":8963:8985   */\n      add\n        /* \"#utility.yul\":8923:8995   */\n      tag_126\n      jump\t// in\n    tag_246:\n        /* \"#utility.yul\":8913:8995   */\n      swap2\n      pop\n        /* \"#utility.yul\":8869:9005   */\n      pop\n        /* \"#utility.yul\":8645:9012   */\n      swap3\n      swap2\n      pop\n      pop\n      jump\t// out\n        /* \"#utility.yul\":9018:9198   */\n    tag_127:\n        /* \"#utility.yul\":9066:9143   */\n      0x4e487b7100000000000000000000000000000000000000000000000000000000\n        /* \"#utility.yul\":9063:9064   */\n      0x00\n        /* \"#utility.yul\":9056:9144   */\n      mstore\n        /* \"#utility.yul\":9163:9167   */\n      0x11\n        /* \"#utility.yul\":9160:9161   */\n      0x04\n        /* \"#utility.yul\":9153:9168   */\n      mstore\n        /* \"#utility.yul\":9187:9191   */\n      0x24\n        /* \"#utility.yul\":9184:9185   */\n      0x00\n        /* \"#utility.yul\":9177:9192   */\n      revert\n        /* \"#utility.yul\":9204:9437   */\n    tag_43:\n        /* \"#utility.yul\":9243:9246   */\n      0x00\n        /* \"#utility.yul\":9266:9290   */\n      tag_249\n        /* \"#utility.yul\":9284:9289   */\n      dup3\n        /* \"#utility.yul\":9266:9290   */\n      tag_121\n      jump\t// in\n    tag_249:\n        /* \"#utility.yul\":9257:9290   */\n      swap2\n      pop\n        /* \"#utility.yul\":9312:9378   */\n      0xffffffffffffffffffffffffffffffffffffffffffffffffffffffffffffffff\n        /* \"#utility.yul\":9305:9310   */\n      dup3\n        /* \"#utility.yul\":9302:9379   */\n      sub\n        /* \"#utility.yul\":9299:9402   */\n      tag_250\n      jumpi\n        /* \"#utility.yul\":9382:9400   */\n      tag_251\n      tag_127\n      jump\t// in\n    tag_251:\n        /* \"#utility.yul\":9299:9402   */\n    tag_250:\n        /* \"#utility.yul\":9429:9430   */\n      0x01\n        /* \"#utility.yul\":9422:9427   */\n      dup3\n        /* \"#utility.yul\":9418:9431   */\n      add\n        /* \"#utility.yul\":9411:9431   */\n      swap1\n      pop\n        /* \"#utility.yul\":9204:9437   */\n      swap2\n      swap1\n      pop\n      jump\t// out\n        /* \"#utility.yul\":9443:9612   */\n    tag_128:\n        /* \"#utility.yul\":9527:9538   */\n      0x00\n        /* \"#utility.yul\":9561:9567   */\n      dup3\n        /* \"#utility.yul\":9556:9559   */\n      dup3\n        /* \"#utility.yul\":9549:9568   */\n      mstore\n        /* \"#utility.yul\":9601:9605   */\n      0x20\n        /* \"#utility.yul\":9596:9599   */\n      dup3\n        /* \"#utility.yul\":9592:9606   */\n      add\n        /* \"#utility.yul\":9577:9606   */\n      swap1\n      pop\n        /* \"#utility.yul\":9443:9612   */\n      swap3\n      swap2\n      pop\n      pop\n      jump\t// out\n        /* \"#utility.yul\":9618:9788   */\n    tag_129:\n        /* \"#utility.yul\":9758:9780   */\n      0x50726f6a656374206e6f7420666f756e64202121000000000000000000000000\n        /* \"#utility.yul\":9754:9755   */\n      0x00\n        /* \"#utility.yul\":9746:9752   */\n      dup3\n        /* \"#utility.yul\":9742:9756   */\n      add\n        /* \"#utility.yul\":9735:9781   */\n      mstore\n        /* \"#utility.yul\":9618:9788   */\n      pop\n      jump\t// out\n        /* \"#utility.yul\":9794:10160   */\n    tag_130:\n        /* \"#utility.yul\":9936:9939   */\n      0x00\n        /* \"#utility.yul\":9957:10024   */\n      tag_255\n        /* \"#utility.yul\":10021:10023   */\n      0x14\n        /* \"#utility.yul\":10016:10019   */\n      dup4\n        /* \"#utility.yul\":9957:10024   */\n      tag_128\n      jump\t// in\n    tag_255:\n        /* \"#utility.yul\":9950:10024   */\n      swap2\n      pop\n        /* \"#utility.yul\":10033:10126   */\n      tag_256\n        /* \"#utility.yul\":10122:10125   */\n      dup3\n        /* \"#utility.yul\":10033:10126   */\n      tag_129\n      jump\t// in\n    tag_256:\n        /* \"#utility.yul\":10151:10153   */\n      0x20\n        /* \"#utility.yul\":10146:10149   */\n      dup3\n        /* \"#utility.yul\":10142:10154   */\n      add\n        /* \"#utility.yul\":10135:10154   */\n      swap1\n      pop\n        /* \"#utility.yul\":9794:10160   */\n      swap2\n      swap1\n      pop\n      jump\t// out\n        /* \"#utility.yul\":10166:10585   */\n    tag_45:\n        /* \"#utility.yul\":10332:10336   */\n      0x00\n        /* \"#utility.yul\":10370:10372   */\n      0x20\n        /* \"#utility.yul\":10359:10368   */\n      dup3\n        /* \"#utility.yul\":10355:10373   */\n      add\n        /* \"#utility.yul\":10347:10373   */\n      swap1\n      pop\n        /* \"#utility.yul\":10419:10428   */\n      dup2\n        /* \"#utility.yul\":10413:10417   */\n      dup2\n        /* \"#utility.yul\":10409:10429   */\n      sub\n        /* \"#utility.yul\":10405:10406   */\n      0x00\n        /* \"#utility.yul\":10394:10403   */\n      dup4\n        /* \"#utility.yul\":10390:10407   */\n      add\n        /* \"#utility.yul\":10383:10430   */\n      mstore\n        /* \"#utility.yul\":10447:10578   */\n      tag_258\n        /* \"#utility.yul\":10573:10577   */\n      dup2\n        /* \"#utility.yul\":10447:10578   */\n      tag_130\n      jump\t// in\n    tag_258:\n        /* \"#utility.yul\":10439:10578   */\n      swap1\n      pop\n        /* \"#utility.yul\":10166:10585   */\n      swap2\n      swap1\n      pop\n      jump\t// out\n        /* \"#utility.yul\":10591:10733   */\n    tag_131:\n        /* \"#utility.yul\":10694:10726   */\n      tag_260\n        /* \"#utility.yul\":10720:10725   */\n      dup2\n        /* \"#utility.yul\":10694:10726   */\n      tag_124\n      jump\t// in\n    tag_260:\n        /* \"#utility.yul\":10689:10692   */\n      dup3\n        /* \"#utility.yul\":10682:10727   */\n      mstore\n        /* \"#utility.yul\":10591:10733   */\n      pop\n      pop\n      jump\t// out\n        /* \"#utility.yul\":10739:10838   */\n    tag_132:\n        /* \"#utility.yul\":10791:10797   */\n      0x00\n        /* \"#utility.yul\":10825:10830   */\n      dup2\n        /* \"#utility.yul\":10819:10831   */\n      mload\n        /* \"#utility.yul\":10809:10831   */\n      swap1\n      pop\n        /* \"#utility.yul\":10739:10838   */\n      swap2\n      swap1\n      pop\n      jump\t// out\n        /* \"#utility.yul\":10844:11151   */\n    tag_133:\n        /* \"#utility.yul\":10912:10913   */\n      0x00\n        /* \"#utility.yul\":10922:11035   */\n    tag_263:\n        /* \"#utility.yul\":10936:10942   */\n      dup4\n        /* \"#utility.yul\":10933:10934   */\n      dup2\n        /* \"#utility.yul\":10930:10943   */\n      lt\n        /* \"#utility.yul\":10922:11035   */\n      iszero\n      tag_265\n      jumpi\n        /* \"#utility.yul\":11021:11022   */\n      dup1\n        /* \"#utility.yul\":11016:11019   */\n      dup3\n        /* \"#utility.yul\":11012:11023   */\n      add\n        /* \"#utility.yul\":11006:11024   */\n      mload\n        /* \"#utility.yul\":11002:11003   */\n      dup2\n        /* \"#utility.yul\":10997:11000   */\n      dup5\n        /* \"#utility.yul\":10993:11004   */\n      add\n        /* \"#utility.yul\":10986:11025   */\n      mstore\n        /* \"#utility.yul\":10958:10960   */\n      0x20\n        /* \"#utility.yul\":10955:10956   */\n      dup2\n        /* \"#utility.yul\":10951:10961   */\n      add\n        /* \"#utility.yul\":10946:10961   */\n      swap1\n      pop\n        /* \"#utility.yul\":10922:11035   */\n      jump(tag_263)\n    tag_265:\n        /* \"#utility.yul\":11053:11059   */\n      dup4\n        /* \"#utility.yul\":11050:11051   */\n      dup2\n        /* \"#utility.yul\":11047:11060   */\n      gt\n        /* \"#utility.yul\":11044:11145   */\n      iszero\n      tag_266\n      jumpi\n        /* \"#utility.yul\":11133:11134   */\n      0x00\n        /* \"#utility.yul\":11124:11130   */\n      dup5\n        /* \"#utility.yul\":11119:11122   */\n      dup5\n        /* \"#utility.yul\":11115:11131   */\n      add\n        /* \"#utility.yul\":11108:11135   */\n      mstore\n        /* \"#utility.yul\":11044:11145   */\n    tag_266:\n        /* \"#utility.yul\":10893:11151   */\n      pop\n        /* \"#utility.yul\":10844:11151   */\n      pop\n      pop\n      pop\n      jump\t// out\n        /* \"#utility.yul\":11157:11521   */\n    tag_134:\n        /* \"#utility.yul\":11245:11248   */\n      0x00\n        /* \"#utility.yul\":11273:11312   */\n      tag_268\n        /* \"#utility.yul\":11306:11311   */\n      dup3\n        /* \"#utility.yul\":11273:11312   */\n      tag_132\n      jump\t// in\n    tag_268:\n        /* \"#utility.yul\":11328:11399   */\n      tag_269\n        /* \"#utility.yul\":11392:11398   */\n      dup2\n        /* \"#utility.yul\":11387:11390   */\n      dup6\n        /* \"#utility.yul\":11328:11399   */\n      tag_128\n      jump\t// in\n    tag_269:\n        /* \"#utility.yul\":11321:11399   */\n      swap4\n      pop\n        /* \"#utility.yul\":11408:11460   */\n      tag_270\n        /* \"#utility.yul\":11453:11459   */\n      dup2\n        /* \"#utility.yul\":11448:11451   */\n      dup6\n        /* \"#utility.yul\":11441:11445   */\n      0x20\n        /* \"#utility.yul\":11434:11439   */\n      dup7\n        /* \"#utility.yul\":11430:11446   */\n      add\n        /* \"#utility.yul\":11408:11460   */\n      tag_133\n      jump\t// in\n    tag_270:\n        /* \"#utility.yul\":11485:11514   */\n      tag_271\n        /* \"#utility.yul\":11507:11513   */\n      dup2\n        /* \"#utility.yul\":11485:11514   */\n      tag_113\n      jump\t// in\n    tag_271:\n        /* \"#utility.yul\":11480:11483   */\n      dup5\n        /* \"#utility.yul\":11476:11515   */\n      add\n        /* \"#utility.yul\":11469:11515   */\n      swap2\n      pop\n        /* \"#utility.yul\":11249:11521   */\n      pop\n        /* \"#utility.yul\":11157:11521   */\n      swap3\n      swap2\n      pop\n      pop\n      jump\t// out\n        /* \"#utility.yul\":11527:11645   */\n    tag_135:\n        /* \"#utility.yul\":11614:11638   */\n      tag_273\n        /* \"#utility.yul\":11632:11637   */\n      dup2\n        /* \"#utility.yul\":11614:11638   */\n      tag_121\n      jump\t// in\n    tag_273:\n        /* \"#utility.yul\":11609:11612   */\n      dup3\n        /* \"#utility.yul\":11602:11639   */\n      mstore\n        /* \"#utility.yul\":11527:11645   */\n      pop\n      pop\n      jump\t// out\n        /* \"#utility.yul\":11651:12529   */\n    tag_64:\n        /* \"#utility.yul\":11912:11916   */\n      0x00\n        /* \"#utility.yul\":11950:11953   */\n      0xa0\n        /* \"#utility.yul\":11939:11948   */\n      dup3\n        /* \"#utility.yul\":11935:11954   */\n      add\n        /* \"#utility.yul\":11927:11954   */\n      swap1\n      pop\n        /* \"#utility.yul\":11964:12051   */\n      tag_275\n        /* \"#utility.yul\":12048:12049   */\n      0x00\n        /* \"#utility.yul\":12037:12046   */\n      dup4\n        /* \"#utility.yul\":12033:12050   */\n      add\n        /* \"#utility.yul\":12024:12030   */\n      dup9\n        /* \"#utility.yul\":11964:12051   */\n      tag_131\n      jump\t// in\n    tag_275:\n        /* \"#utility.yul\":12098:12107   */\n      dup2\n        /* \"#utility.yul\":12092:12096   */\n      dup2\n        /* \"#utility.yul\":12088:12108   */\n      sub\n        /* \"#utility.yul\":12083:12085   */\n      0x20\n        /* \"#utility.yul\":12072:12081   */\n      dup4\n        /* \"#utility.yul\":12068:12086   */\n      add\n        /* \"#utility.yul\":12061:12109   */\n      mstore\n        /* \"#utility.yul\":12126:12204   */\n      tag_276\n        /* \"#utility.yul\":12199:12203   */\n      dup2\n        /* \"#utility.yul\":12190:12196   */\n      dup8\n        /* \"#utility.yul\":12126:12204   */\n      tag_134\n      jump\t// in\n    tag_276:\n        /* \"#utility.yul\":12118:12204   */\n      swap1\n      pop\n        /* \"#utility.yul\":12251:12260   */\n      dup2\n        /* \"#utility.yul\":12245:12249   */\n      dup2\n        /* \"#utility.yul\":12241:12261   */\n      sub\n        /* \"#utility.yul\":12236:12238   */\n      0x40\n        /* \"#utility.yul\":12225:12234   */\n      dup4\n        /* \"#utility.yul\":12221:12239   */\n      add\n        /* \"#utility.yul\":12214:12262   */\n      mstore\n        /* \"#utility.yul\":12279:12357   */\n      tag_277\n        /* \"#utility.yul\":12352:12356   */\n      dup2\n        /* \"#utility.yul\":12343:12349   */\n      dup7\n        /* \"#utility.yul\":12279:12357   */\n      tag_134\n      jump\t// in\n    tag_277:\n        /* \"#utility.yul\":12271:12357   */\n      swap1\n      pop\n        /* \"#utility.yul\":12367:12439   */\n      tag_278\n        /* \"#utility.yul\":12435:12437   */\n      0x60\n        /* \"#utility.yul\":12424:12433   */\n      dup4\n        /* \"#utility.yul\":12420:12438   */\n      add\n        /* \"#utility.yul\":12411:12417   */\n      dup6\n        /* \"#utility.yul\":12367:12439   */\n      tag_135\n      jump\t// in\n    tag_278:\n        /* \"#utility.yul\":12449:12522   */\n      tag_279\n        /* \"#utility.yul\":12517:12520   */\n      0x80\n        /* \"#utility.yul\":12506:12515   */\n      dup4\n        /* \"#utility.yul\":12502:12521   */\n      add\n        /* \"#utility.yul\":12493:12499   */\n      dup5\n        /* \"#utility.yul\":12449:12522   */\n      tag_135\n      jump\t// in\n    tag_279:\n        /* \"#utility.yul\":11651:12529   */\n      swap7\n      swap6\n      pop\n      pop\n      pop\n      pop\n      pop\n      pop\n      jump\t// out\n        /* \"#utility.yul\":12535:12653   */\n    tag_136:\n        /* \"#utility.yul\":12622:12646   */\n      tag_281\n        /* \"#utility.yul\":12640:12645   */\n      dup2\n        /* \"#utility.yul\":12622:12646   */\n      tag_96\n      jump\t// in\n    tag_281:\n        /* \"#utility.yul\":12617:12620   */\n      dup3\n        /* \"#utility.yul\":12610:12647   */\n      mstore\n        /* \"#utility.yul\":12535:12653   */\n      pop\n      pop\n      jump\t// out\n        /* \"#utility.yul\":12659:12839   */\n    tag_137:\n        /* \"#utility.yul\":12707:12784   */\n      0x4e487b7100000000000000000000000000000000000000000000000000000000\n        /* \"#utility.yul\":12704:12705   */\n      0x00\n        /* \"#utility.yul\":12697:12785   */\n      mstore\n        /* \"#utility.yul\":12804:12808   */\n      0x21\n        /* \"#utility.yul\":12801:12802   */\n      0x04\n        /* \"#utility.yul\":12794:12809   */\n      mstore\n        /* \"#utility.yul\":12828:12832   */\n      0x24\n        /* \"#utility.yul\":12825:12826   */\n      0x00\n        /* \"#utility.yul\":12818:12833   */\n      revert\n        /* \"#utility.yul\":12845:12959   */\n    tag_138:\n        /* \"#utility.yul\":12927:12928   */\n      0x03\n        /* \"#utility.yul\":12920:12925   */\n      dup2\n        /* \"#utility.yul\":12917:12929   */\n      lt\n        /* \"#utility.yul\":12907:12953   */\n      tag_284\n      jumpi\n        /* \"#utility.yul\":12933:12951   */\n      tag_285\n      tag_137\n      jump\t// in\n    tag_285:\n        /* \"#utility.yul\":12907:12953   */\n    tag_284:\n        /* \"#utility.yul\":12845:12959   */\n      pop\n      jump\t// out\n        /* \"#utility.yul\":12965:13094   */\n    tag_139:\n        /* \"#utility.yul\":13011:13018   */\n      0x00\n        /* \"#utility.yul\":13040:13045   */\n      dup2\n        /* \"#utility.yul\":13029:13045   */\n      swap1\n      pop\n        /* \"#utility.yul\":13046:13088   */\n      tag_287\n        /* \"#utility.yul\":13082:13087   */\n      dup3\n        /* \"#utility.yul\":13046:13088   */\n      tag_138\n      jump\t// in\n    tag_287:\n        /* \"#utility.yul\":12965:13094   */\n      swap2\n      swap1\n      pop\n      jump\t// out\n        /* \"#utility.yul\":13100:13229   */\n    tag_140:\n        /* \"#utility.yul\":13157:13166   */\n      0x00\n        /* \"#utility.yul\":13190:13223   */\n      tag_289\n        /* \"#utility.yul\":13217:13222   */\n      dup3\n        /* \"#utility.yul\":13190:13223   */\n      tag_139\n      jump\t// in\n    tag_289:\n        /* \"#utility.yul\":13177:13223   */\n      swap1\n      pop\n        /* \"#utility.yul\":13100:13229   */\n      swap2\n      swap1\n      pop\n      jump\t// out\n        /* \"#utility.yul\":13235:13380   */\n    tag_141:\n        /* \"#utility.yul\":13329:13373   */\n      tag_291\n        /* \"#utility.yul\":13367:13372   */\n      dup2\n        /* \"#utility.yul\":13329:13373   */\n      tag_140\n      jump\t// in\n    tag_291:\n        /* \"#utility.yul\":13324:13327   */\n      dup3\n        /* \"#utility.yul\":13317:13374   */\n      mstore\n        /* \"#utility.yul\":13235:13380   */\n      pop\n      pop\n      jump\t// out\n        /* \"#utility.yul\":13386:14468   */\n    tag_68:\n        /* \"#utility.yul\":13694:13698   */\n      0x00\n        /* \"#utility.yul\":13732:13735   */\n      0xe0\n        /* \"#utility.yul\":13721:13730   */\n      dup3\n        /* \"#utility.yul\":13717:13736   */\n      add\n        /* \"#utility.yul\":13709:13736   */\n      swap1\n      pop\n        /* \"#utility.yul\":13746:13817   */\n      tag_293\n        /* \"#utility.yul\":13814:13815   */\n      0x00\n        /* \"#utility.yul\":13803:13812   */\n      dup4\n        /* \"#utility.yul\":13799:13816   */\n      add\n        /* \"#utility.yul\":13790:13796   */\n      dup11\n        /* \"#utility.yul\":13746:13817   */\n      tag_136\n      jump\t// in\n    tag_293:\n        /* \"#utility.yul\":13827:13899   */\n      tag_294\n        /* \"#utility.yul\":13895:13897   */\n      0x20\n        /* \"#utility.yul\":13884:13893   */\n      dup4\n        /* \"#utility.yul\":13880:13898   */\n      add\n        /* \"#utility.yul\":13871:13877   */\n      dup10\n        /* \"#utility.yul\":13827:13899   */\n      tag_136\n      jump\t// in\n    tag_294:\n        /* \"#utility.yul\":13946:13955   */\n      dup2\n        /* \"#utility.yul\":13940:13944   */\n      dup2\n        /* \"#utility.yul\":13936:13956   */\n      sub\n        /* \"#utility.yul\":13931:13933   */\n      0x40\n        /* \"#utility.yul\":13920:13929   */\n      dup4\n        /* \"#utility.yul\":13916:13934   */\n      add\n        /* \"#utility.yul\":13909:13957   */\n      mstore\n        /* \"#utility.yul\":13974:14052   */\n      tag_295\n        /* \"#utility.yul\":14047:14051   */\n      dup2\n        /* \"#utility.yul\":14038:14044   */\n      dup9\n        /* \"#utility.yul\":13974:14052   */\n      tag_134\n      jump\t// in\n    tag_295:\n        /* \"#utility.yul\":13966:14052   */\n      swap1\n      pop\n        /* \"#utility.yul\":14099:14108   */\n      dup2\n        /* \"#utility.yul\":14093:14097   */\n      dup2\n        /* \"#utility.yul\":14089:14109   */\n      sub\n        /* \"#utility.yul\":14084:14086   */\n      0x60\n        /* \"#utility.yul\":14073:14082   */\n      dup4\n        /* \"#utility.yul\":14069:14087   */\n      add\n        /* \"#utility.yul\":14062:14110   */\n      mstore\n        /* \"#utility.yul\":14127:14205   */\n      tag_296\n        /* \"#utility.yul\":14200:14204   */\n      dup2\n        /* \"#utility.yul\":14191:14197   */\n      dup8\n        /* \"#utility.yul\":14127:14205   */\n      tag_134\n      jump\t// in\n    tag_296:\n        /* \"#utility.yul\":14119:14205   */\n      swap1\n      pop\n        /* \"#utility.yul\":14215:14288   */\n      tag_297\n        /* \"#utility.yul\":14283:14286   */\n      0x80\n        /* \"#utility.yul\":14272:14281   */\n      dup4\n        /* \"#utility.yul\":14268:14287   */\n      add\n        /* \"#utility.yul\":14259:14265   */\n      dup7\n        /* \"#utility.yul\":14215:14288   */\n      tag_135\n      jump\t// in\n    tag_297:\n        /* \"#utility.yul\":14298:14371   */\n      tag_298\n        /* \"#utility.yul\":14366:14369   */\n      0xa0\n        /* \"#utility.yul\":14355:14364   */\n      dup4\n        /* \"#utility.yul\":14351:14370   */\n      add\n        /* \"#utility.yul\":14342:14348   */\n      dup6\n        /* \"#utility.yul\":14298:14371   */\n      tag_135\n      jump\t// in\n    tag_298:\n        /* \"#utility.yul\":14381:14461   */\n      tag_299\n        /* \"#utility.yul\":14456:14459   */\n      0xc0\n        /* \"#utility.yul\":14445:14454   */\n      dup4\n        /* \"#utility.yul\":14441:14460   */\n      add\n        /* \"#utility.yul\":14432:14438   */\n      dup5\n        /* \"#utility.yul\":14381:14461   */\n      tag_141\n      jump\t// in\n    tag_299:\n        /* \"#utility.yul\":13386:14468   */\n      swap9\n      swap8\n      pop\n      pop\n      pop\n      pop\n      pop\n      pop\n      pop\n      pop\n      jump\t// out\n        /* \"#utility.yul\":14474:14633   */\n    tag_142:\n        /* \"#utility.yul\":14614:14625   */\n      0x4e6f7420666f756e640000000000000000000000000000000000000000000000\n        /* \"#utility.yul\":14610:14611   */\n      0x00\n        /* \"#utility.yul\":14602:14608   */\n      dup3\n        /* \"#utility.yul\":14598:14612   */\n      add\n        /* \"#utility.yul\":14591:14626   */\n      mstore\n        /* \"#utility.yul\":14474:14633   */\n      pop\n      jump\t// out\n        /* \"#utility.yul\":14639:15004   */\n    tag_143:\n        /* \"#utility.yul\":14781:14784   */\n      0x00\n        /* \"#utility.yul\":14802:14868   */\n      tag_302\n        /* \"#utility.yul\":14866:14867   */\n      0x09\n        /* \"#utility.yul\":14861:14864   */\n      dup4\n        /* \"#utility.yul\":14802:14868   */\n      tag_128\n      jump\t// in\n    tag_302:\n        /* \"#utility.yul\":14795:14868   */\n      swap2\n      pop\n        /* \"#utility.yul\":14877:14970   */\n      tag_303\n        /* \"#utility.yul\":14966:14969   */\n      dup3\n        /* \"#utility.yul\":14877:14970   */\n      tag_142\n      jump\t// in\n    tag_303:\n        /* \"#utility.yul\":14995:14997   */\n      0x20\n        /* \"#utility.yul\":14990:14993   */\n      dup3\n        /* \"#utility.yul\":14986:14998   */\n      add\n        /* \"#utility.yul\":14979:14998   */\n      swap1\n      pop\n        /* \"#utility.yul\":14639:15004   */\n      swap2\n      swap1\n      pop\n      jump\t// out\n        /* \"#utility.yul\":15010:15429   */\n    tag_84:\n        /* \"#utility.yul\":15176:15180   */\n      0x00\n        /* \"#utility.yul\":15214:15216   */\n      0x20\n        /* \"#utility.yul\":15203:15212   */\n      dup3\n        /* \"#utility.yul\":15199:15217   */\n      add\n        /* \"#utility.yul\":15191:15217   */\n      swap1\n      pop\n        /* \"#utility.yul\":15263:15272   */\n      dup2\n        /* \"#utility.yul\":15257:15261   */\n      dup2\n        /* \"#utility.yul\":15253:15273   */\n      sub\n        /* \"#utility.yul\":15249:15250   */\n      0x00\n        /* \"#utility.yul\":15238:15247   */\n      dup4\n        /* \"#utility.yul\":15234:15251   */\n      add\n        /* \"#utility.yul\":15227:15274   */\n      mstore\n        /* \"#utility.yul\":15291:15422   */\n      tag_305\n        /* \"#utility.yul\":15417:15421   */\n      dup2\n        /* \"#utility.yul\":15291:15422   */\n      tag_143\n      jump\t// in\n    tag_305:\n        /* \"#utility.yul\":15283:15422   */\n      swap1\n      pop\n        /* \"#utility.yul\":15010:15429   */\n      swap2\n      swap1\n      pop\n      jump\t// out\n        /* \"#utility.yul\":15435:15783   */\n    tag_88:\n        /* \"#utility.yul\":15475:15482   */\n      0x00\n        /* \"#utility.yul\":15498:15518   */\n      tag_307\n        /* \"#utility.yul\":15516:15517   */\n      dup3\n        /* \"#utility.yul\":15498:15518   */\n      tag_121\n      jump\t// in\n    tag_307:\n        /* \"#utility.yul\":15493:15518   */\n      swap2\n      pop\n        /* \"#utility.yul\":15532:15552   */\n      tag_308\n        /* \"#utility.yul\":15550:15551   */\n      dup4\n        /* \"#utility.yul\":15532:15552   */\n      tag_121\n      jump\t// in\n    tag_308:\n        /* \"#utility.yul\":15527:15552   */\n      swap3\n      pop\n        /* \"#utility.yul\":15720:15721   */\n      dup2\n        /* \"#utility.yul\":15652:15718   */\n      0xffffffffffffffffffffffffffffffffffffffffffffffffffffffffffffffff\n        /* \"#utility.yul\":15648:15722   */\n      div\n        /* \"#utility.yul\":15645:15646   */\n      dup4\n        /* \"#utility.yul\":15642:15723   */\n      gt\n        /* \"#utility.yul\":15637:15638   */\n      dup3\n        /* \"#utility.yul\":15630:15639   */\n      iszero\n        /* \"#utility.yul\":15623:15640   */\n      iszero\n        /* \"#utility.yul\":15619:15724   */\n      and\n        /* \"#utility.yul\":15616:15747   */\n      iszero\n      tag_309\n      jumpi\n        /* \"#utility.yul\":15727:15745   */\n      tag_310\n      tag_127\n      jump\t// in\n    tag_310:\n        /* \"#utility.yul\":15616:15747   */\n    tag_309:\n        /* \"#utility.yul\":15775:15776   */\n      dup3\n        /* \"#utility.yul\":15772:15773   */\n      dup3\n        /* \"#utility.yul\":15768:15777   */\n      mul\n        /* \"#utility.yul\":15757:15777   */\n      swap1\n      pop\n        /* \"#utility.yul\":15435:15783   */\n      swap3\n      swap2\n      pop\n      pop\n      jump\t// out\n        /* \"#utility.yul\":15789:16094   */\n    tag_91:\n        /* \"#utility.yul\":15829:15832   */\n      0x00\n        /* \"#utility.yul\":15848:15868   */\n      tag_312\n        /* \"#utility.yul\":15866:15867   */\n      dup3\n        /* \"#utility.yul\":15848:15868   */\n      tag_121\n      jump\t// in\n    tag_312:\n        /* \"#utility.yul\":15843:15868   */\n      swap2\n      pop\n        /* \"#utility.yul\":15882:15902   */\n      tag_313\n        /* \"#utility.yul\":15900:15901   */\n      dup4\n        /* \"#utility.yul\":15882:15902   */\n      tag_121\n      jump\t// in\n    tag_313:\n        /* \"#utility.yul\":15877:15902   */\n      swap3\n      pop\n        /* \"#utility.yul\":16036:16037   */\n      dup3\n        /* \"#utility.yul\":15968:16034   */\n      0xffffffffffffffffffffffffffffffffffffffffffffffffffffffffffffffff\n        /* \"#utility.yul\":15964:16038   */\n      sub\n        /* \"#utility.yul\":15961:15962   */\n      dup3\n        /* \"#utility.yul\":15958:16039   */\n      gt\n        /* \"#utility.yul\":15955:16062   */\n      iszero\n      tag_314\n      jumpi\n        /* \"#utility.yul\":16042:16060   */\n      tag_315\n      tag_127\n      jump\t// in\n    tag_315:\n        /* \"#utility.yul\":15955:16062   */\n    tag_314:\n        /* \"#utility.yul\":16086:16087   */\n      dup3\n        /* \"#utility.yul\":16083:16084   */\n      dup3\n        /* \"#utility.yul\":16079:16088   */\n      add\n        /* \"#utility.yul\":16072:16088   */\n      swap1\n      pop\n        /* \"#utility.yul\":15789:16094   */\n      swap3\n      swap2\n      pop\n      pop\n      jump\t// out\n    stop\n\n    sub_0: assembly {\n            /* \"contracts/Crowfunding.sol\":2328:5395  contract Project {... */\n          mstore(0x40, 0x80)\n            /* \"contracts/Crowfunding.sol\":3488:3914  constructor... */\n          callvalue\n          dup1\n          iszero\n          tag_1\n          jumpi\n          0x00\n          dup1\n          revert\n        tag_1:\n          pop\n          mload(0x40)\n          sub(codesize, bytecodeSize)\n          dup1\n          bytecodeSize\n          dup4\n          codecopy\n          dup2\n          dup2\n          add\n          0x40\n          mstore\n          dup2\n          add\n          swap1\n          tag_2\n          swap2\n          swap1\n          tag_3\n          jump\t// in\n        tag_2:\n            /* \"contracts/Crowfunding.sol\":3712:3727  _projectCreator */\n          dup5\n            /* \"contracts/Crowfunding.sol\":3695:3709  projectCreator */\n          0x00\n          dup1\n            /* \"contracts/Crowfunding.sol\":3695:3727  projectCreator = _projectCreator */\n          0x0100\n          exp\n          dup2\n          sload\n          dup2\n          0xffffffffffffffffffffffffffffffffffffffff\n          mul\n          not\n          and\n          swap1\n          dup4\n          0xffffffffffffffffffffffffffffffffffffffff\n          and\n          mul\n          or\n          swap1\n          sstore\n          pop\n            /* \"contracts/Crowfunding.sol\":3752:3765  _projectTitle */\n          dup4\n            /* \"contracts/Crowfunding.sol\":3737:3749  projectTitle */\n          0x01\n            /* \"contracts/Crowfunding.sol\":3737:3765  projectTitle = _projectTitle */\n          swap1\n          dup1\n          mload\n          swap1\n          0x20\n          add\n          swap1\n          tag_6\n          swap3\n          swap2\n          swap1\n          tag_7\n          jump\t// in\n        tag_6:\n          pop\n            /* \"contracts/Crowfunding.sol\":3796:3815  _projectDescription */\n          dup3\n            /* \"contracts/Crowfunding.sol\":3775:3793  projectDescription */\n          0x02\n            /* \"contracts/Crowfunding.sol\":3775:3815  projectDescription = _projectDescription */\n          swap1\n          dup1\n          mload\n          swap1\n          0x20\n          add\n          swap1\n          tag_8\n          swap3\n          swap2\n          swap1\n          tag_7\n          jump\t// in\n        tag_8:\n          pop\n            /* \"contracts/Crowfunding.sol\":3838:3849  _amountGoal */\n          dup2\n            /* \"contracts/Crowfunding.sol\":3825:3835  amountGoal */\n          0x03\n            /* \"contracts/Crowfunding.sol\":3825:3849  amountGoal = _amountGoal */\n          dup2\n          swap1\n          sstore\n          pop\n            /* \"contracts/Crowfunding.sol\":3870:3879  _deadLine */\n          dup1\n            /* \"contracts/Crowfunding.sol\":3859:3867  deadLine */\n          0x06\n            /* \"contracts/Crowfunding.sol\":3859:3879  deadLine = _deadLine */\n          dup2\n          swap1\n          sstore\n          pop\n            /* \"contracts/Crowfunding.sol\":3906:3907  0 */\n          0x00\n            /* \"contracts/Crowfunding.sol\":3889:3903  currentBalance */\n          0x04\n            /* \"contracts/Crowfunding.sol\":3889:3907  currentBalance = 0 */\n          dup2\n          swap1\n          sstore\n          pop\n            /* \"contracts/Crowfunding.sol\":3488:3914  constructor... */\n          pop\n          pop\n          pop\n          pop\n          pop\n            /* \"contracts/Crowfunding.sol\":2328:5395  contract Project {... */\n          jump(tag_9)\n        tag_7:\n          dup3\n          dup1\n          sload\n          tag_10\n          swap1\n          tag_11\n          jump\t// in\n        tag_10:\n          swap1\n          0x00\n          mstore\n          keccak256(0x00, 0x20)\n          swap1\n          0x1f\n          add\n          0x20\n          swap1\n          div\n          dup2\n          add\n          swap3\n          dup3\n          tag_13\n          jumpi\n          0x00\n          dup6\n          sstore\n          jump(tag_12)\n        tag_13:\n          dup3\n          0x1f\n          lt\n          tag_14\n          jumpi\n          dup1\n          mload\n          not(0xff)\n          and\n          dup4\n          dup1\n          add\n          or\n          dup6\n          sstore\n          jump(tag_12)\n        tag_14:\n          dup3\n          dup1\n          add\n          0x01\n          add\n          dup6\n          sstore\n          dup3\n          iszero\n          tag_12\n          jumpi\n          swap2\n          dup3\n          add\n        tag_15:\n          dup3\n          dup2\n          gt\n          iszero\n          tag_16\n          jumpi\n          dup3\n          mload\n          dup3\n          sstore\n          swap2\n          0x20\n          add\n          swap2\n          swap1\n          0x01\n          add\n          swap1\n          jump(tag_15)\n        tag_16:\n        tag_12:\n          pop\n          swap1\n          pop\n          tag_17\n          swap2\n          swap1\n          tag_18\n          jump\t// in\n        tag_17:\n          pop\n          swap1\n          jump\t// out\n        tag_18:\n        tag_19:\n          dup1\n          dup3\n          gt\n          iszero\n          tag_20\n          jumpi\n          0x00\n          dup2\n          0x00\n          swap1\n          sstore\n          pop\n          0x01\n          add\n          jump(tag_19)\n        tag_20:\n          pop\n          swap1\n          jump\t// out\n            /* \"#utility.yul\":7:82   */\n        tag_21:\n            /* \"#utility.yul\":40:46   */\n          0x00\n            /* \"#utility.yul\":73:75   */\n          0x40\n            /* \"#utility.yul\":67:76   */\n          mload\n            /* \"#utility.yul\":57:76   */\n          swap1\n          pop\n            /* \"#utility.yul\":7:82   */\n          swap1\n          jump\t// out\n            /* \"#utility.yul\":88:205   */\n        tag_22:\n            /* \"#utility.yul\":197:198   */\n          0x00\n            /* \"#utility.yul\":194:195   */\n          dup1\n            /* \"#utility.yul\":187:199   */\n          revert\n            /* \"#utility.yul\":211:328   */\n        tag_23:\n            /* \"#utility.yul\":320:321   */\n          0x00\n            /* \"#utility.yul\":317:318   */\n          dup1\n            /* \"#utility.yul\":310:322   */\n          revert\n            /* \"#utility.yul\":334:460   */\n        tag_24:\n            /* \"#utility.yul\":371:378   */\n          0x00\n            /* \"#utility.yul\":411:453   */\n          0xffffffffffffffffffffffffffffffffffffffff\n            /* \"#utility.yul\":404:409   */\n          dup3\n            /* \"#utility.yul\":400:454   */\n          and\n            /* \"#utility.yul\":389:454   */\n          swap1\n          pop\n            /* \"#utility.yul\":334:460   */\n          swap2\n          swap1\n          pop\n          jump\t// out\n            /* \"#utility.yul\":466:570   */\n        tag_25:\n            /* \"#utility.yul\":511:518   */\n          0x00\n            /* \"#utility.yul\":540:564   */\n          tag_48\n            /* \"#utility.yul\":558:563   */\n          dup3\n            /* \"#utility.yul\":540:564   */\n          tag_24\n          jump\t// in\n        tag_48:\n            /* \"#utility.yul\":529:564   */\n          swap1\n          pop\n            /* \"#utility.yul\":466:570   */\n          swap2\n          swap1\n          pop\n          jump\t// out\n            /* \"#utility.yul\":576:714   */\n        tag_26:\n            /* \"#utility.yul\":657:689   */\n          tag_50\n            /* \"#utility.yul\":683:688   */\n          dup2\n            /* \"#utility.yul\":657:689   */\n          tag_25\n          jump\t// in\n        tag_50:\n            /* \"#utility.yul\":650:655   */\n          dup2\n            /* \"#utility.yul\":647:690   */\n          eq\n            /* \"#utility.yul\":637:708   */\n          tag_51\n          jumpi\n            /* \"#utility.yul\":704:705   */\n          0x00\n            /* \"#utility.yul\":701:702   */\n          dup1\n            /* \"#utility.yul\":694:706   */\n          revert\n            /* \"#utility.yul\":637:708   */\n        tag_51:\n            /* \"#utility.yul\":576:714   */\n          pop\n          jump\t// out\n            /* \"#utility.yul\":720:879   */\n        tag_27:\n            /* \"#utility.yul\":785:790   */\n          0x00\n            /* \"#utility.yul\":816:822   */\n          dup2\n            /* \"#utility.yul\":810:823   */\n          mload\n            /* \"#utility.yul\":801:823   */\n          swap1\n          pop\n            /* \"#utility.yul\":832:873   */\n          tag_53\n            /* \"#utility.yul\":867:872   */\n          dup2\n            /* \"#utility.yul\":832:873   */\n          tag_26\n          jump\t// in\n        tag_53:\n            /* \"#utility.yul\":720:879   */\n          swap3\n          swap2\n          pop\n          pop\n          jump\t// out\n            /* \"#utility.yul\":885:1002   */\n        tag_28:\n            /* \"#utility.yul\":994:995   */\n          0x00\n            /* \"#utility.yul\":991:992   */\n          dup1\n            /* \"#utility.yul\":984:996   */\n          revert\n            /* \"#utility.yul\":1008:1125   */\n        tag_29:\n            /* \"#utility.yul\":1117:1118   */\n          0x00\n            /* \"#utility.yul\":1114:1115   */\n          dup1\n            /* \"#utility.yul\":1107:1119   */\n          revert\n            /* \"#utility.yul\":1131:1233   */\n        tag_30:\n            /* \"#utility.yul\":1172:1178   */\n          0x00\n            /* \"#utility.yul\":1223:1225   */\n          0x1f\n            /* \"#utility.yul\":1219:1226   */\n          not\n            /* \"#utility.yul\":1214:1216   */\n          0x1f\n            /* \"#utility.yul\":1207:1212   */\n          dup4\n            /* \"#utility.yul\":1203:1217   */\n          add\n            /* \"#utility.yul\":1199:1227   */\n          and\n            /* \"#utility.yul\":1189:1227   */\n          swap1\n          pop\n            /* \"#utility.yul\":1131:1233   */\n          swap2\n          swap1\n          pop\n          jump\t// out\n            /* \"#utility.yul\":1239:1419   */\n        tag_31:\n            /* \"#utility.yul\":1287:1364   */\n          0x4e487b7100000000000000000000000000000000000000000000000000000000\n            /* \"#utility.yul\":1284:1285   */\n          0x00\n            /* \"#utility.yul\":1277:1365   */\n          mstore\n            /* \"#utility.yul\":1384:1388   */\n          0x41\n            /* \"#utility.yul\":1381:1382   */\n          0x04\n            /* \"#utility.yul\":1374:1389   */\n          mstore\n            /* \"#utility.yul\":1408:1412   */\n          0x24\n            /* \"#utility.yul\":1405:1406   */\n          0x00\n            /* \"#utility.yul\":1398:1413   */\n          revert\n            /* \"#utility.yul\":1425:1706   */\n        tag_32:\n            /* \"#utility.yul\":1508:1535   */\n          tag_59\n            /* \"#utility.yul\":1530:1534   */\n          dup3\n            /* \"#utility.yul\":1508:1535   */\n          tag_30\n          jump\t// in\n        tag_59:\n            /* \"#utility.yul\":1500:1506   */\n          dup2\n            /* \"#utility.yul\":1496:1536   */\n          add\n            /* \"#utility.yul\":1638:1644   */\n          dup2\n            /* \"#utility.yul\":1626:1636   */\n          dup2\n            /* \"#utility.yul\":1623:1645   */\n          lt\n            /* \"#utility.yul\":1602:1620   */\n          0xffffffffffffffff\n            /* \"#utility.yul\":1590:1600   */\n          dup3\n            /* \"#utility.yul\":1587:1621   */\n          gt\n            /* \"#utility.yul\":1584:1646   */\n          or\n            /* \"#utility.yul\":1581:1669   */\n          iszero\n          tag_60\n          jumpi\n            /* \"#utility.yul\":1649:1667   */\n          tag_61\n          tag_31\n          jump\t// in\n        tag_61:\n            /* \"#utility.yul\":1581:1669   */\n        tag_60:\n            /* \"#utility.yul\":1689:1699   */\n          dup1\n            /* \"#utility.yul\":1685:1687   */\n          0x40\n            /* \"#utility.yul\":1678:1700   */\n          mstore\n            /* \"#utility.yul\":1468:1706   */\n          pop\n            /* \"#utility.yul\":1425:1706   */\n          pop\n          pop\n          jump\t// out\n            /* \"#utility.yul\":1712:1841   */\n        tag_33:\n            /* \"#utility.yul\":1746:1752   */\n          0x00\n            /* \"#utility.yul\":1773:1793   */\n          tag_63\n          tag_21\n          jump\t// in\n        tag_63:\n            /* \"#utility.yul\":1763:1793   */\n          swap1\n          pop\n            /* \"#utility.yul\":1802:1835   */\n          tag_64\n            /* \"#utility.yul\":1830:1834   */\n          dup3\n            /* \"#utility.yul\":1822:1828   */\n          dup3\n            /* \"#utility.yul\":1802:1835   */\n          tag_32\n          jump\t// in\n        tag_64:\n            /* \"#utility.yul\":1712:1841   */\n          swap2\n          swap1\n          pop\n          jump\t// out\n            /* \"#utility.yul\":1847:2155   */\n        tag_34:\n            /* \"#utility.yul\":1909:1913   */\n          0x00\n            /* \"#utility.yul\":1999:2017   */\n          0xffffffffffffffff\n            /* \"#utility.yul\":1991:1997   */\n          dup3\n            /* \"#utility.yul\":1988:2018   */\n          gt\n            /* \"#utility.yul\":1985:2041   */\n          iszero\n          tag_66\n          jumpi\n            /* \"#utility.yul\":2021:2039   */\n          tag_67\n          tag_31\n          jump\t// in\n        tag_67:\n            /* \"#utility.yul\":1985:2041   */\n        tag_66:\n            /* \"#utility.yul\":2059:2088   */\n          tag_68\n            /* \"#utility.yul\":2081:2087   */\n          dup3\n            /* \"#utility.yul\":2059:2088   */\n          tag_30\n          jump\t// in\n        tag_68:\n            /* \"#utility.yul\":2051:2088   */\n          swap1\n          pop\n            /* \"#utility.yul\":2143:2147   */\n          0x20\n            /* \"#utility.yul\":2137:2141   */\n          dup2\n            /* \"#utility.yul\":2133:2148   */\n          add\n            /* \"#utility.yul\":2125:2148   */\n          swap1\n          pop\n            /* \"#utility.yul\":1847:2155   */\n          swap2\n          swap1\n          pop\n          jump\t// out\n            /* \"#utility.yul\":2161:2468   */\n        tag_35:\n            /* \"#utility.yul\":2229:2230   */\n          0x00\n            /* \"#utility.yul\":2239:2352   */\n        tag_70:\n            /* \"#utility.yul\":2253:2259   */\n          dup4\n            /* \"#utility.yul\":2250:2251   */\n          dup2\n            /* \"#utility.yul\":2247:2260   */\n          lt\n            /* \"#utility.yul\":2239:2352   */\n          iszero\n          tag_72\n          jumpi\n            /* \"#utility.yul\":2338:2339   */\n          dup1\n            /* \"#utility.yul\":2333:2336   */\n          dup3\n            /* \"#utility.yul\":2329:2340   */\n          add\n            /* \"#utility.yul\":2323:2341   */\n          mload\n            /* \"#utility.yul\":2319:2320   */\n          dup2\n            /* \"#utility.yul\":2314:2317   */\n          dup5\n            /* \"#utility.yul\":2310:2321   */\n          add\n            /* \"#utility.yul\":2303:2342   */\n          mstore\n            /* \"#utility.yul\":2275:2277   */\n          0x20\n            /* \"#utility.yul\":2272:2273   */\n          dup2\n            /* \"#utility.yul\":2268:2278   */\n          add\n            /* \"#utility.yul\":2263:2278   */\n          swap1\n          pop\n            /* \"#utility.yul\":2239:2352   */\n          jump(tag_70)\n        tag_72:\n            /* \"#utility.yul\":2370:2376   */\n          dup4\n            /* \"#utility.yul\":2367:2368   */\n          dup2\n            /* \"#utility.yul\":2364:2377   */\n          gt\n            /* \"#utility.yul\":2361:2462   */\n          iszero\n          tag_73\n          jumpi\n            /* \"#utility.yul\":2450:2451   */\n          0x00\n            /* \"#utility.yul\":2441:2447   */\n          dup5\n            /* \"#utility.yul\":2436:2439   */\n          dup5\n            /* \"#utility.yul\":2432:2448   */\n          add\n            /* \"#utility.yul\":2425:2452   */\n          mstore\n            /* \"#utility.yul\":2361:2462   */\n        tag_73:\n            /* \"#utility.yul\":2210:2468   */\n          pop\n            /* \"#utility.yul\":2161:2468   */\n          pop\n          pop\n          pop\n          jump\t// out\n            /* \"#utility.yul\":2474:2895   */\n        tag_36:\n            /* \"#utility.yul\":2563:2568   */\n          0x00\n            /* \"#utility.yul\":2588:2654   */\n          tag_75\n            /* \"#utility.yul\":2604:2653   */\n          tag_76\n            /* \"#utility.yul\":2646:2652   */\n          dup5\n            /* \"#utility.yul\":2604:2653   */\n          tag_34\n          jump\t// in\n        tag_76:\n            /* \"#utility.yul\":2588:2654   */\n          tag_33\n          jump\t// in\n        tag_75:\n            /* \"#utility.yul\":2579:2654   */\n          swap1\n          pop\n            /* \"#utility.yul\":2677:2683   */\n          dup3\n            /* \"#utility.yul\":2670:2675   */\n          dup2\n            /* \"#utility.yul\":2663:2684   */\n          mstore\n            /* \"#utility.yul\":2715:2719   */\n          0x20\n            /* \"#utility.yul\":2708:2713   */\n          dup2\n            /* \"#utility.yul\":2704:2720   */\n          add\n            /* \"#utility.yul\":2753:2756   */\n          dup5\n            /* \"#utility.yul\":2744:2750   */\n          dup5\n            /* \"#utility.yul\":2739:2742   */\n          dup5\n            /* \"#utility.yul\":2735:2751   */\n          add\n            /* \"#utility.yul\":2732:2757   */\n          gt\n            /* \"#utility.yul\":2729:2841   */\n          iszero\n          tag_77\n          jumpi\n            /* \"#utility.yul\":2760:2839   */\n          tag_78\n          tag_29\n          jump\t// in\n        tag_78:\n            /* \"#utility.yul\":2729:2841   */\n        tag_77:\n            /* \"#utility.yul\":2850:2889   */\n          tag_79\n            /* \"#utility.yul\":2882:2888   */\n          dup5\n            /* \"#utility.yul\":2877:2880   */\n          dup3\n            /* \"#utility.yul\":2872:2875   */\n          dup6\n            /* \"#utility.yul\":2850:2889   */\n          tag_35\n          jump\t// in\n        tag_79:\n            /* \"#utility.yul\":2569:2895   */\n          pop\n            /* \"#utility.yul\":2474:2895   */\n          swap4\n          swap3\n          pop\n          pop\n          pop\n          jump\t// out\n            /* \"#utility.yul\":2915:3270   */\n        tag_37:\n            /* \"#utility.yul\":2982:2987   */\n          0x00\n            /* \"#utility.yul\":3031:3034   */\n          dup3\n            /* \"#utility.yul\":3024:3028   */\n          0x1f\n            /* \"#utility.yul\":3016:3022   */\n          dup4\n            /* \"#utility.yul\":3012:3029   */\n          add\n            /* \"#utility.yul\":3008:3035   */\n          slt\n            /* \"#utility.yul\":2998:3120   */\n          tag_81\n          jumpi\n            /* \"#utility.yul\":3039:3118   */\n          tag_82\n          tag_28\n          jump\t// in\n        tag_82:\n            /* \"#utility.yul\":2998:3120   */\n        tag_81:\n            /* \"#utility.yul\":3149:3155   */\n          dup2\n            /* \"#utility.yul\":3143:3156   */\n          mload\n            /* \"#utility.yul\":3174:3264   */\n          tag_83\n            /* \"#utility.yul\":3260:3263   */\n          dup5\n            /* \"#utility.yul\":3252:3258   */\n          dup3\n            /* \"#utility.yul\":3245:3249   */\n          0x20\n            /* \"#utility.yul\":3237:3243   */\n          dup7\n            /* \"#utility.yul\":3233:3250   */\n          add\n            /* \"#utility.yul\":3174:3264   */\n          tag_36\n          jump\t// in\n        tag_83:\n            /* \"#utility.yul\":3165:3264   */\n          swap2\n          pop\n            /* \"#utility.yul\":2988:3270   */\n          pop\n            /* \"#utility.yul\":2915:3270   */\n          swap3\n          swap2\n          pop\n          pop\n          jump\t// out\n            /* \"#utility.yul\":3276:3353   */\n        tag_38:\n            /* \"#utility.yul\":3313:3320   */\n          0x00\n            /* \"#utility.yul\":3342:3347   */\n          dup2\n            /* \"#utility.yul\":3331:3347   */\n          swap1\n          pop\n            /* \"#utility.yul\":3276:3353   */\n          swap2\n          swap1\n          pop\n          jump\t// out\n            /* \"#utility.yul\":3359:3481   */\n        tag_39:\n            /* \"#utility.yul\":3432:3456   */\n          tag_86\n            /* \"#utility.yul\":3450:3455   */\n          dup2\n            /* \"#utility.yul\":3432:3456   */\n          tag_38\n          jump\t// in\n        tag_86:\n            /* \"#utility.yul\":3425:3430   */\n          dup2\n            /* \"#utility.yul\":3422:3457   */\n          eq\n            /* \"#utility.yul\":3412:3475   */\n          tag_87\n          jumpi\n            /* \"#utility.yul\":3471:3472   */\n          0x00\n            /* \"#utility.yul\":3468:3469   */\n          dup1\n            /* \"#utility.yul\":3461:3473   */\n          revert\n            /* \"#utility.yul\":3412:3475   */\n        tag_87:\n            /* \"#utility.yul\":3359:3481   */\n          pop\n          jump\t// out\n            /* \"#utility.yul\":3487:3630   */\n        tag_40:\n            /* \"#utility.yul\":3544:3549   */\n          0x00\n            /* \"#utility.yul\":3575:3581   */\n          dup2\n            /* \"#utility.yul\":3569:3582   */\n          mload\n            /* \"#utility.yul\":3560:3582   */\n          swap1\n          pop\n            /* \"#utility.yul\":3591:3624   */\n          tag_89\n            /* \"#utility.yul\":3618:3623   */\n          dup2\n            /* \"#utility.yul\":3591:3624   */\n          tag_39\n          jump\t// in\n        tag_89:\n            /* \"#utility.yul\":3487:3630   */\n          swap3\n          swap2\n          pop\n          pop\n          jump\t// out\n            /* \"#utility.yul\":3636:4975   */\n        tag_3:\n            /* \"#utility.yul\":3770:3776   */\n          0x00\n            /* \"#utility.yul\":3778:3784   */\n          dup1\n            /* \"#utility.yul\":3786:3792   */\n          0x00\n            /* \"#utility.yul\":3794:3800   */\n          dup1\n            /* \"#utility.yul\":3802:3808   */\n          0x00\n            /* \"#utility.yul\":3851:3854   */\n          0xa0\n            /* \"#utility.yul\":3839:3848   */\n          dup7\n            /* \"#utility.yul\":3830:3837   */\n          dup9\n            /* \"#utility.yul\":3826:3849   */\n          sub\n            /* \"#utility.yul\":3822:3855   */\n          slt\n            /* \"#utility.yul\":3819:3939   */\n          iszero\n          tag_91\n          jumpi\n            /* \"#utility.yul\":3858:3937   */\n          tag_92\n          tag_22\n          jump\t// in\n        tag_92:\n            /* \"#utility.yul\":3819:3939   */\n        tag_91:\n            /* \"#utility.yul\":3978:3979   */\n          0x00\n            /* \"#utility.yul\":4003:4075   */\n          tag_93\n            /* \"#utility.yul\":4067:4074   */\n          dup9\n            /* \"#utility.yul\":4058:4064   */\n          dup3\n            /* \"#utility.yul\":4047:4056   */\n          dup10\n            /* \"#utility.yul\":4043:4065   */\n          add\n            /* \"#utility.yul\":4003:4075   */\n          tag_27\n          jump\t// in\n        tag_93:\n            /* \"#utility.yul\":3993:4075   */\n          swap6\n          pop\n            /* \"#utility.yul\":3949:4085   */\n          pop\n            /* \"#utility.yul\":4145:4147   */\n          0x20\n            /* \"#utility.yul\":4134:4143   */\n          dup7\n            /* \"#utility.yul\":4130:4148   */\n          add\n            /* \"#utility.yul\":4124:4149   */\n          mload\n            /* \"#utility.yul\":4176:4194   */\n          0xffffffffffffffff\n            /* \"#utility.yul\":4168:4174   */\n          dup2\n            /* \"#utility.yul\":4165:4195   */\n          gt\n            /* \"#utility.yul\":4162:4279   */\n          iszero\n          tag_94\n          jumpi\n            /* \"#utility.yul\":4198:4277   */\n          tag_95\n          tag_23\n          jump\t// in\n        tag_95:\n            /* \"#utility.yul\":4162:4279   */\n        tag_94:\n            /* \"#utility.yul\":4303:4377   */\n          tag_96\n            /* \"#utility.yul\":4369:4376   */\n          dup9\n            /* \"#utility.yul\":4360:4366   */\n          dup3\n            /* \"#utility.yul\":4349:4358   */\n          dup10\n            /* \"#utility.yul\":4345:4367   */\n          add\n            /* \"#utility.yul\":4303:4377   */\n          tag_37\n          jump\t// in\n        tag_96:\n            /* \"#utility.yul\":4293:4377   */\n          swap5\n          pop\n            /* \"#utility.yul\":4095:4387   */\n          pop\n            /* \"#utility.yul\":4447:4449   */\n          0x40\n            /* \"#utility.yul\":4436:4445   */\n          dup7\n            /* \"#utility.yul\":4432:4450   */\n          add\n            /* \"#utility.yul\":4426:4451   */\n          mload\n            /* \"#utility.yul\":4478:4496   */\n          0xffffffffffffffff\n            /* \"#utility.yul\":4470:4476   */\n          dup2\n            /* \"#utility.yul\":4467:4497   */\n          gt\n            /* \"#utility.yul\":4464:4581   */\n          iszero\n          tag_97\n          jumpi\n            /* \"#utility.yul\":4500:4579   */\n          tag_98\n          tag_23\n          jump\t// in\n        tag_98:\n            /* \"#utility.yul\":4464:4581   */\n        tag_97:\n            /* \"#utility.yul\":4605:4679   */\n          tag_99\n            /* \"#utility.yul\":4671:4678   */\n          dup9\n            /* \"#utility.yul\":4662:4668   */\n          dup3\n            /* \"#utility.yul\":4651:4660   */\n          dup10\n            /* \"#utility.yul\":4647:4669   */\n          add\n            /* \"#utility.yul\":4605:4679   */\n          tag_37\n          jump\t// in\n        tag_99:\n            /* \"#utility.yul\":4595:4679   */\n          swap4\n          pop\n            /* \"#utility.yul\":4397:4689   */\n          pop\n            /* \"#utility.yul\":4728:4730   */\n          0x60\n            /* \"#utility.yul\":4754:4818   */\n          tag_100\n            /* \"#utility.yul\":4810:4817   */\n          dup9\n            /* \"#utility.yul\":4801:4807   */\n          dup3\n            /* \"#utility.yul\":4790:4799   */\n          dup10\n            /* \"#utility.yul\":4786:4808   */\n          add\n            /* \"#utility.yul\":4754:4818   */\n          tag_40\n          jump\t// in\n        tag_100:\n            /* \"#utility.yul\":4744:4818   */\n          swap3\n          pop\n            /* \"#utility.yul\":4699:4828   */\n          pop\n            /* \"#utility.yul\":4867:4870   */\n          0x80\n            /* \"#utility.yul\":4894:4958   */\n          tag_101\n            /* \"#utility.yul\":4950:4957   */\n          dup9\n            /* \"#utility.yul\":4941:4947   */\n          dup3\n            /* \"#utility.yul\":4930:4939   */\n          dup10\n            /* \"#utility.yul\":4926:4948   */\n          add\n            /* \"#utility.yul\":4894:4958   */\n          tag_40\n          jump\t// in\n        tag_101:\n            /* \"#utility.yul\":4884:4958   */\n          swap2\n          pop\n            /* \"#utility.yul\":4838:4968   */\n          pop\n            /* \"#utility.yul\":3636:4975   */\n          swap3\n          swap6\n          pop\n          swap3\n          swap6\n          swap1\n          swap4\n          pop\n          jump\t// out\n            /* \"#utility.yul\":4981:5161   */\n        tag_41:\n            /* \"#utility.yul\":5029:5106   */\n          0x4e487b7100000000000000000000000000000000000000000000000000000000\n            /* \"#utility.yul\":5026:5027   */\n          0x00\n            /* \"#utility.yul\":5019:5107   */\n          mstore\n            /* \"#utility.yul\":5126:5130   */\n          0x22\n            /* \"#utility.yul\":5123:5124   */\n          0x04\n            /* \"#utility.yul\":5116:5131   */\n          mstore\n            /* \"#utility.yul\":5150:5154   */\n          0x24\n            /* \"#utility.yul\":5147:5148   */\n          0x00\n            /* \"#utility.yul\":5140:5155   */\n          revert\n            /* \"#utility.yul\":5167:5487   */\n        tag_11:\n            /* \"#utility.yul\":5211:5217   */\n          0x00\n            /* \"#utility.yul\":5248:5249   */\n          0x02\n            /* \"#utility.yul\":5242:5246   */\n          dup3\n            /* \"#utility.yul\":5238:5250   */\n          div\n            /* \"#utility.yul\":5228:5250   */\n          swap1\n          pop\n            /* \"#utility.yul\":5295:5296   */\n          0x01\n            /* \"#utility.yul\":5289:5293   */\n          dup3\n            /* \"#utility.yul\":5285:5297   */\n          and\n            /* \"#utility.yul\":5316:5334   */\n          dup1\n            /* \"#utility.yul\":5306:5387   */\n          tag_104\n          jumpi\n            /* \"#utility.yul\":5372:5376   */\n          0x7f\n            /* \"#utility.yul\":5364:5370   */\n          dup3\n            /* \"#utility.yul\":5360:5377   */\n          and\n            /* \"#utility.yul\":5350:5377   */\n          swap2\n          pop\n            /* \"#utility.yul\":5306:5387   */\n        tag_104:\n            /* \"#utility.yul\":5434:5436   */\n          0x20\n            /* \"#utility.yul\":5426:5432   */\n          dup3\n            /* \"#utility.yul\":5423:5437   */\n          lt\n            /* \"#utility.yul\":5403:5421   */\n          dup2\n            /* \"#utility.yul\":5400:5438   */\n          sub\n            /* \"#utility.yul\":5397:5481   */\n          tag_105\n          jumpi\n            /* \"#utility.yul\":5453:5471   */\n          tag_106\n          tag_41\n          jump\t// in\n        tag_106:\n            /* \"#utility.yul\":5397:5481   */\n        tag_105:\n            /* \"#utility.yul\":5218:5487   */\n          pop\n            /* \"#utility.yul\":5167:5487   */\n          swap2\n          swap1\n          pop\n          jump\t// out\n            /* \"contracts/Crowfunding.sol\":2328:5395  contract Project {... */\n        tag_9:\n          dataSize(sub_0)\n          dup1\n          dataOffset(sub_0)\n          0x00\n          codecopy\n          0x00\n          return\n        stop\n\n        sub_0: assembly {\n                /* \"contracts/Crowfunding.sol\":2328:5395  contract Project {... */\n              mstore(0x40, 0x80)\n              jumpi(tag_1, lt(calldatasize, 0x04))\n              shr(0xe0, calldataload(0x00))\n              dup1\n              0xa541a2a2\n              eq\n              tag_2\n              jumpi\n              dup1\n              0xa8b93c8d\n              eq\n              tag_3\n              jumpi\n              dup1\n              0xc2052403\n              eq\n              tag_4\n              jumpi\n              dup1\n              0xd7bb99ba\n              eq\n              tag_5\n              jumpi\n              dup1\n              0xf020cd19\n              eq\n              tag_6\n              jumpi\n            tag_1:\n              0x00\n              dup1\n              revert\n                /* \"contracts/Crowfunding.sol\":2463:2500  address payable public projectCreator */\n            tag_2:\n              callvalue\n              dup1\n              iszero\n              tag_7\n              jumpi\n              0x00\n              dup1\n              revert\n            tag_7:\n              pop\n              tag_8\n              tag_9\n              jump\t// in\n            tag_8:\n              mload(0x40)\n              tag_10\n              swap2\n              swap1\n              tag_11\n              jump\t// in\n            tag_10:\n              mload(0x40)\n              dup1\n              swap2\n              sub\n              swap1\n              return\n                /* \"contracts/Crowfunding.sol\":5283:5389  function setProjectTitle(string memory _projectTitle) public {... */\n            tag_3:\n              callvalue\n              dup1\n              iszero\n              tag_12\n              jumpi\n              0x00\n              dup1\n              revert\n            tag_12:\n              pop\n              tag_13\n              0x04\n              dup1\n              calldatasize\n              sub\n              dup2\n              add\n              swap1\n              tag_14\n              swap2\n              swap1\n              tag_15\n              jump\t// in\n            tag_14:\n              tag_16\n              jump\t// in\n            tag_13:\n              stop\n                /* \"contracts/Crowfunding.sol\":4925:5086  function payOut() public inState(State.Successful){... */\n            tag_4:\n              callvalue\n              dup1\n              iszero\n              tag_17\n              jumpi\n              0x00\n              dup1\n              revert\n            tag_17:\n              pop\n              tag_18\n              tag_19\n              jump\t// in\n            tag_18:\n              stop\n                /* \"contracts/Crowfunding.sol\":4333:4689  function contribute() public payable inState(State.Fundraising) isFundingDelayNotExpired {... */\n            tag_5:\n              tag_20\n              tag_21\n              jump\t// in\n            tag_20:\n              stop\n                /* \"contracts/Crowfunding.sol\":5175:5273  function getProjectTitle() public view returns(string memory) {... */\n            tag_6:\n              callvalue\n              dup1\n              iszero\n              tag_22\n              jumpi\n              0x00\n              dup1\n              revert\n            tag_22:\n              pop\n              tag_23\n              tag_24\n              jump\t// in\n            tag_23:\n              mload(0x40)\n              tag_25\n              swap2\n              swap1\n              tag_26\n              jump\t// in\n            tag_25:\n              mload(0x40)\n              dup1\n              swap2\n              sub\n              swap1\n              return\n                /* \"contracts/Crowfunding.sol\":2463:2500  address payable public projectCreator */\n            tag_9:\n              0x00\n              dup1\n              sload\n              swap1\n              0x0100\n              exp\n              swap1\n              div\n              0xffffffffffffffffffffffffffffffffffffffff\n              and\n              dup2\n              jump\t// out\n                /* \"contracts/Crowfunding.sol\":5283:5389  function setProjectTitle(string memory _projectTitle) public {... */\n            tag_16:\n                /* \"contracts/Crowfunding.sol\":5369:5382  _projectTitle */\n              dup1\n                /* \"contracts/Crowfunding.sol\":5354:5366  projectTitle */\n              0x01\n                /* \"contracts/Crowfunding.sol\":5354:5382  projectTitle = _projectTitle */\n              swap1\n              dup1\n              mload\n              swap1\n              0x20\n              add\n              swap1\n              tag_28\n              swap3\n              swap2\n              swap1\n              tag_29\n              jump\t// in\n            tag_28:\n              pop\n                /* \"contracts/Crowfunding.sol\":5283:5389  function setProjectTitle(string memory _projectTitle) public {... */\n              pop\n              jump\t// out\n                /* \"contracts/Crowfunding.sol\":4925:5086  function payOut() public inState(State.Successful){... */\n            tag_19:\n                /* \"contracts/Crowfunding.sol\":4958:4974  State.Successful */\n              0x02\n                /* \"contracts/Crowfunding.sol\":3151:3157  _state */\n              dup1\n                /* \"contracts/Crowfunding.sol\":3142:3157  state == _state */\n              0x02\n              dup2\n              gt\n              iszero\n              tag_31\n              jumpi\n              tag_32\n              tag_33\n              jump\t// in\n            tag_32:\n            tag_31:\n                /* \"contracts/Crowfunding.sol\":3142:3147  state */\n              0x05\n              0x00\n              swap1\n              sload\n              swap1\n              0x0100\n              exp\n              swap1\n              div\n              0xff\n              and\n                /* \"contracts/Crowfunding.sol\":3142:3157  state == _state */\n              0x02\n              dup2\n              gt\n              iszero\n              tag_34\n              jumpi\n              tag_35\n              tag_33\n              jump\t// in\n            tag_35:\n            tag_34:\n              eq\n                /* \"contracts/Crowfunding.sol\":3134:3158  require(state == _state) */\n              tag_36\n              jumpi\n              0x00\n              dup1\n              revert\n            tag_36:\n                /* \"contracts/Crowfunding.sol\":4985:4999  projectCreator */\n              0x00\n              dup1\n              sload\n              swap1\n              0x0100\n              exp\n              swap1\n              div\n              0xffffffffffffffffffffffffffffffffffffffff\n              and\n                /* \"contracts/Crowfunding.sol\":4985:5008  projectCreator.transfer */\n              0xffffffffffffffffffffffffffffffffffffffff\n              and\n                /* \"contracts/Crowfunding.sol\":4985:5024  projectCreator.transfer(currentBalance) */\n              0x08fc\n                /* \"contracts/Crowfunding.sol\":5009:5023  currentBalance */\n              sload(0x04)\n                /* \"contracts/Crowfunding.sol\":4985:5024  projectCreator.transfer(currentBalance) */\n              swap1\n              dup2\n              iszero\n              mul\n              swap1\n              mload(0x40)\n              0x00\n              mload(0x40)\n              dup1\n              dup4\n              sub\n              dup2\n              dup6\n              dup9\n              dup9\n              call\n              swap4\n              pop\n              pop\n              pop\n              pop\n              iszero\n              dup1\n              iszero\n              tag_39\n              jumpi\n              returndatasize\n              0x00\n              dup1\n              returndatacopy\n              revert(0x00, returndatasize)\n            tag_39:\n              pop\n                /* \"contracts/Crowfunding.sol\":5039:5079  ProjectFunded(projectTitle, \"is Funded\") */\n              0xda700ea0a4f90d17381707c06ca4125e32c8a65b28e82ff0d1850af50a6d4ccd\n                /* \"contracts/Crowfunding.sol\":5053:5065  projectTitle */\n              0x01\n                /* \"contracts/Crowfunding.sol\":5039:5079  ProjectFunded(projectTitle, \"is Funded\") */\n              mload(0x40)\n              tag_40\n              swap2\n              swap1\n              tag_41\n              jump\t// in\n            tag_40:\n              mload(0x40)\n              dup1\n              swap2\n              sub\n              swap1\n              log1\n                /* \"contracts/Crowfunding.sol\":4925:5086  function payOut() public inState(State.Successful){... */\n              pop\n              jump\t// out\n                /* \"contracts/Crowfunding.sol\":4333:4689  function contribute() public payable inState(State.Fundraising) isFundingDelayNotExpired {... */\n            tag_21:\n                /* \"contracts/Crowfunding.sol\":4378:4395  State.Fundraising */\n              0x00\n                /* \"contracts/Crowfunding.sol\":3151:3157  _state */\n              dup1\n                /* \"contracts/Crowfunding.sol\":3142:3157  state == _state */\n              0x02\n              dup2\n              gt\n              iszero\n              tag_43\n              jumpi\n              tag_44\n              tag_33\n              jump\t// in\n            tag_44:\n            tag_43:\n                /* \"contracts/Crowfunding.sol\":3142:3147  state */\n              0x05\n              0x00\n              swap1\n              sload\n              swap1\n              0x0100\n              exp\n              swap1\n              div\n              0xff\n              and\n                /* \"contracts/Crowfunding.sol\":3142:3157  state == _state */\n              0x02\n              dup2\n              gt\n              iszero\n              tag_45\n              jumpi\n              tag_46\n              tag_33\n              jump\t// in\n            tag_46:\n            tag_45:\n              eq\n                /* \"contracts/Crowfunding.sol\":3134:3158  require(state == _state) */\n              tag_47\n              jumpi\n              0x00\n              dup1\n              revert\n            tag_47:\n                /* \"contracts/Crowfunding.sol\":3454:3462  deadLine */\n              sload(0x06)\n                /* \"contracts/Crowfunding.sol\":3435:3450  block.timestamp */\n              timestamp\n                /* \"contracts/Crowfunding.sol\":3435:3462  block.timestamp <= deadLine */\n              gt\n              iszero\n                /* \"contracts/Crowfunding.sol\":3427:3463  require(block.timestamp <= deadLine) */\n              tag_49\n              jumpi\n              0x00\n              dup1\n              revert\n            tag_49:\n                /* \"contracts/Crowfunding.sol\":4454:4468  projectCreator */\n              0x00\n              dup1\n              sload\n              swap1\n              0x0100\n              exp\n              swap1\n              div\n              0xffffffffffffffffffffffffffffffffffffffff\n              and\n                /* \"contracts/Crowfunding.sol\":4440:4468  msg.sender != projectCreator */\n              0xffffffffffffffffffffffffffffffffffffffff\n              and\n                /* \"contracts/Crowfunding.sol\":4440:4450  msg.sender */\n              caller\n                /* \"contracts/Crowfunding.sol\":4440:4468  msg.sender != projectCreator */\n              0xffffffffffffffffffffffffffffffffffffffff\n              and\n              sub\n                /* \"contracts/Crowfunding.sol\":4432:4469  require(msg.sender != projectCreator) */\n              tag_51\n              jumpi\n              0x00\n              dup1\n              revert\n            tag_51:\n                /* \"contracts/Crowfunding.sol\":4507:4547  contributions[msg.sender].add(msg.value) */\n              tag_52\n                /* \"contracts/Crowfunding.sol\":4537:4546  msg.value */\n              callvalue\n                /* \"contracts/Crowfunding.sol\":4507:4520  contributions */\n              0x07\n                /* \"contracts/Crowfunding.sol\":4507:4532  contributions[msg.sender] */\n              0x00\n                /* \"contracts/Crowfunding.sol\":4521:4531  msg.sender */\n              caller\n                /* \"contracts/Crowfunding.sol\":4507:4532  contributions[msg.sender] */\n              0xffffffffffffffffffffffffffffffffffffffff\n              and\n              0xffffffffffffffffffffffffffffffffffffffff\n              and\n              dup2\n              mstore\n              0x20\n              add\n              swap1\n              dup2\n              mstore\n              0x20\n              add\n              0x00\n              keccak256\n              sload\n                /* \"contracts/Crowfunding.sol\":4507:4536  contributions[msg.sender].add */\n              tag_53\n              swap1\n                /* \"contracts/Crowfunding.sol\":4507:4547  contributions[msg.sender].add(msg.value) */\n              swap2\n              swap1\n              0xffffffff\n              and\n              jump\t// in\n            tag_52:\n                /* \"contracts/Crowfunding.sol\":4479:4492  contributions */\n              0x07\n                /* \"contracts/Crowfunding.sol\":4479:4504  contributions[msg.sender] */\n              0x00\n                /* \"contracts/Crowfunding.sol\":4493:4503  msg.sender */\n              caller\n                /* \"contracts/Crowfunding.sol\":4479:4504  contributions[msg.sender] */\n              0xffffffffffffffffffffffffffffffffffffffff\n              and\n              0xffffffffffffffffffffffffffffffffffffffff\n              and\n              dup2\n              mstore\n              0x20\n              add\n              swap1\n              dup2\n              mstore\n              0x20\n              add\n              0x00\n              keccak256\n                /* \"contracts/Crowfunding.sol\":4479:4547  contributions[msg.sender] = contributions[msg.sender].add(msg.value) */\n              dup2\n              swap1\n              sstore\n              pop\n                /* \"contracts/Crowfunding.sol\":4592:4601  msg.value */\n              callvalue\n                /* \"contracts/Crowfunding.sol\":4575:4589  currentBalance */\n              sload(0x04)\n                /* \"contracts/Crowfunding.sol\":4575:4601  currentBalance + msg.value */\n              tag_54\n              swap2\n              swap1\n              tag_55\n              jump\t// in\n            tag_54:\n                /* \"contracts/Crowfunding.sol\":4558:4572  currentBalance */\n              0x04\n                /* \"contracts/Crowfunding.sol\":4558:4601  currentBalance = currentBalance + msg.value */\n              dup2\n              swap1\n              sstore\n              pop\n                /* \"contracts/Crowfunding.sol\":4617:4654  FundReceivedBy(msg.sender, msg.value) */\n              0x75ae3e7c973a88747144369f710c5999060a6321be0506174d3f5c64bdfc674e\n                /* \"contracts/Crowfunding.sol\":4632:4642  msg.sender */\n              caller\n                /* \"contracts/Crowfunding.sol\":4644:4653  msg.value */\n              callvalue\n                /* \"contracts/Crowfunding.sol\":4617:4654  FundReceivedBy(msg.sender, msg.value) */\n              mload(0x40)\n              tag_56\n              swap3\n              swap2\n              swap1\n              tag_57\n              jump\t// in\n            tag_56:\n              mload(0x40)\n              dup1\n              swap2\n              sub\n              swap1\n              log1\n                /* \"contracts/Crowfunding.sol\":4664:4682  checkGoalReached() */\n              tag_58\n                /* \"contracts/Crowfunding.sol\":4664:4680  checkGoalReached */\n              tag_59\n                /* \"contracts/Crowfunding.sol\":4664:4682  checkGoalReached() */\n              jump\t// in\n            tag_58:\n                /* \"contracts/Crowfunding.sol\":4333:4689  function contribute() public payable inState(State.Fundraising) isFundingDelayNotExpired {... */\n              pop\n              jump\t// out\n                /* \"contracts/Crowfunding.sol\":5175:5273  function getProjectTitle() public view returns(string memory) {... */\n            tag_24:\n                /* \"contracts/Crowfunding.sol\":5222:5235  string memory */\n              0x60\n                /* \"contracts/Crowfunding.sol\":5254:5266  projectTitle */\n              0x01\n                /* \"contracts/Crowfunding.sol\":5247:5266  return projectTitle */\n              dup1\n              sload\n              tag_61\n              swap1\n              tag_62\n              jump\t// in\n            tag_61:\n              dup1\n              0x1f\n              add\n              0x20\n              dup1\n              swap2\n              div\n              mul\n              0x20\n              add\n              mload(0x40)\n              swap1\n              dup2\n              add\n              0x40\n              mstore\n              dup1\n              swap3\n              swap2\n              swap1\n              dup2\n              dup2\n              mstore\n              0x20\n              add\n              dup3\n              dup1\n              sload\n              tag_63\n              swap1\n              tag_62\n              jump\t// in\n            tag_63:\n              dup1\n              iszero\n              tag_64\n              jumpi\n              dup1\n              0x1f\n              lt\n              tag_65\n              jumpi\n              0x0100\n              dup1\n              dup4\n              sload\n              div\n              mul\n              dup4\n              mstore\n              swap2\n              0x20\n              add\n              swap2\n              jump(tag_64)\n            tag_65:\n              dup3\n              add\n              swap2\n              swap1\n              0x00\n              mstore\n              keccak256(0x00, 0x20)\n              swap1\n            tag_66:\n              dup2\n              sload\n              dup2\n              mstore\n              swap1\n              0x01\n              add\n              swap1\n              0x20\n              add\n              dup1\n              dup4\n              gt\n              tag_66\n              jumpi\n              dup3\n              swap1\n              sub\n              0x1f\n              and\n              dup3\n              add\n              swap2\n            tag_64:\n              pop\n              pop\n              pop\n              pop\n              pop\n              swap1\n              pop\n                /* \"contracts/Crowfunding.sol\":5175:5273  function getProjectTitle() public view returns(string memory) {... */\n              swap1\n              jump\t// out\n                /* \"https://github.com/OpenZeppelin/openzeppelin-contracts/blob/master/contracts/utils/math/SafeMath.sol\":2755:2851  function add(uint256 a, uint256 b) internal pure returns (uint256) {... */\n            tag_53:\n                /* \"https://github.com/OpenZeppelin/openzeppelin-contracts/blob/master/contracts/utils/math/SafeMath.sol\":2813:2820  uint256 */\n              0x00\n                /* \"https://github.com/OpenZeppelin/openzeppelin-contracts/blob/master/contracts/utils/math/SafeMath.sol\":2843:2844  b */\n              dup2\n                /* \"https://github.com/OpenZeppelin/openzeppelin-contracts/blob/master/contracts/utils/math/SafeMath.sol\":2839:2840  a */\n              dup4\n                /* \"https://github.com/OpenZeppelin/openzeppelin-contracts/blob/master/contracts/utils/math/SafeMath.sol\":2839:2844  a + b */\n              tag_68\n              swap2\n              swap1\n              tag_55\n              jump\t// in\n            tag_68:\n                /* \"https://github.com/OpenZeppelin/openzeppelin-contracts/blob/master/contracts/utils/math/SafeMath.sol\":2832:2844  return a + b */\n              swap1\n              pop\n                /* \"https://github.com/OpenZeppelin/openzeppelin-contracts/blob/master/contracts/utils/math/SafeMath.sol\":2755:2851  function add(uint256 a, uint256 b) internal pure returns (uint256) {... */\n              swap3\n              swap2\n              pop\n              pop\n              jump\t// out\n                /* \"contracts/Crowfunding.sol\":4696:4919  function checkGoalReached() internal {... */\n            tag_59:\n                /* \"contracts/Crowfunding.sol\":4760:4774  currentBalance */\n              sload(0x04)\n                /* \"contracts/Crowfunding.sol\":4746:4756  amountGoal */\n              sload(0x03)\n                /* \"contracts/Crowfunding.sol\":4746:4774  amountGoal >= currentBalance */\n              lt\n                /* \"contracts/Crowfunding.sol\":4743:4913  if(amountGoal >= currentBalance){... */\n              tag_70\n              jumpi\n                /* \"contracts/Crowfunding.sol\":4794:4842  GoalReached(\"The Goal is reached\", projectTitle) */\n              0x15ac727d1ca51352f519e3f5899500ead795e56a4a39ceafeea835331346017a\n                /* \"contracts/Crowfunding.sol\":4829:4841  projectTitle */\n              0x01\n                /* \"contracts/Crowfunding.sol\":4794:4842  GoalReached(\"The Goal is reached\", projectTitle) */\n              mload(0x40)\n              tag_71\n              swap2\n              swap1\n              tag_72\n              jump\t// in\n            tag_71:\n              mload(0x40)\n              dup1\n              swap2\n              sub\n              swap1\n              log1\n                /* \"contracts/Crowfunding.sol\":4864:4880  State.Successful */\n              0x02\n                /* \"contracts/Crowfunding.sol\":4856:4861  state */\n              0x05\n              0x00\n                /* \"contracts/Crowfunding.sol\":4856:4880  state = State.Successful */\n              0x0100\n              exp\n              dup2\n              sload\n              dup2\n              0xff\n              mul\n              not\n              and\n              swap1\n              dup4\n              0x02\n              dup2\n              gt\n              iszero\n              tag_73\n              jumpi\n              tag_74\n              tag_33\n              jump\t// in\n            tag_74:\n            tag_73:\n              mul\n              or\n              swap1\n              sstore\n              pop\n                /* \"contracts/Crowfunding.sol\":4894:4902  payOut() */\n              tag_75\n                /* \"contracts/Crowfunding.sol\":4894:4900  payOut */\n              tag_19\n                /* \"contracts/Crowfunding.sol\":4894:4902  payOut() */\n              jump\t// in\n            tag_75:\n                /* \"contracts/Crowfunding.sol\":4743:4913  if(amountGoal >= currentBalance){... */\n            tag_70:\n                /* \"contracts/Crowfunding.sol\":4696:4919  function checkGoalReached() internal {... */\n              jump\t// out\n            tag_29:\n              dup3\n              dup1\n              sload\n              tag_76\n              swap1\n              tag_62\n              jump\t// in\n            tag_76:\n              swap1\n              0x00\n              mstore\n              keccak256(0x00, 0x20)\n              swap1\n              0x1f\n              add\n              0x20\n              swap1\n              div\n              dup2\n              add\n              swap3\n              dup3\n              tag_78\n              jumpi\n              0x00\n              dup6\n              sstore\n              jump(tag_77)\n            tag_78:\n              dup3\n              0x1f\n              lt\n              tag_79\n              jumpi\n              dup1\n              mload\n              not(0xff)\n              and\n              dup4\n              dup1\n              add\n              or\n              dup6\n              sstore\n              jump(tag_77)\n            tag_79:\n              dup3\n              dup1\n              add\n              0x01\n              add\n              dup6\n              sstore\n              dup3\n              iszero\n              tag_77\n              jumpi\n              swap2\n              dup3\n              add\n            tag_80:\n              dup3\n              dup2\n              gt\n              iszero\n              tag_81\n              jumpi\n              dup3\n              mload\n              dup3\n              sstore\n              swap2\n              0x20\n              add\n              swap2\n              swap1\n              0x01\n              add\n              swap1\n              jump(tag_80)\n            tag_81:\n            tag_77:\n              pop\n              swap1\n              pop\n              tag_82\n              swap2\n              swap1\n              tag_83\n              jump\t// in\n            tag_82:\n              pop\n              swap1\n              jump\t// out\n            tag_83:\n            tag_84:\n              dup1\n              dup3\n              gt\n              iszero\n              tag_85\n              jumpi\n              0x00\n              dup2\n              0x00\n              swap1\n              sstore\n              pop\n              0x01\n              add\n              jump(tag_84)\n            tag_85:\n              pop\n              swap1\n              jump\t// out\n                /* \"#utility.yul\":7:133   */\n            tag_86:\n                /* \"#utility.yul\":44:51   */\n              0x00\n                /* \"#utility.yul\":84:126   */\n              0xffffffffffffffffffffffffffffffffffffffff\n                /* \"#utility.yul\":77:82   */\n              dup3\n                /* \"#utility.yul\":73:127   */\n              and\n                /* \"#utility.yul\":62:127   */\n              swap1\n              pop\n                /* \"#utility.yul\":7:133   */\n              swap2\n              swap1\n              pop\n              jump\t// out\n                /* \"#utility.yul\":139:243   */\n            tag_87:\n                /* \"#utility.yul\":184:191   */\n              0x00\n                /* \"#utility.yul\":213:237   */\n              tag_121\n                /* \"#utility.yul\":231:236   */\n              dup3\n                /* \"#utility.yul\":213:237   */\n              tag_86\n              jump\t// in\n            tag_121:\n                /* \"#utility.yul\":202:237   */\n              swap1\n              pop\n                /* \"#utility.yul\":139:243   */\n              swap2\n              swap1\n              pop\n              jump\t// out\n                /* \"#utility.yul\":249:391   */\n            tag_88:\n                /* \"#utility.yul\":352:384   */\n              tag_123\n                /* \"#utility.yul\":378:383   */\n              dup2\n                /* \"#utility.yul\":352:384   */\n              tag_87\n              jump\t// in\n            tag_123:\n                /* \"#utility.yul\":347:350   */\n              dup3\n                /* \"#utility.yul\":340:385   */\n              mstore\n                /* \"#utility.yul\":249:391   */\n              pop\n              pop\n              jump\t// out\n                /* \"#utility.yul\":397:651   */\n            tag_11:\n                /* \"#utility.yul\":506:510   */\n              0x00\n                /* \"#utility.yul\":544:546   */\n              0x20\n                /* \"#utility.yul\":533:542   */\n              dup3\n                /* \"#utility.yul\":529:547   */\n              add\n                /* \"#utility.yul\":521:547   */\n              swap1\n              pop\n                /* \"#utility.yul\":557:644   */\n              tag_125\n                /* \"#utility.yul\":641:642   */\n              0x00\n                /* \"#utility.yul\":630:639   */\n              dup4\n                /* \"#utility.yul\":626:643   */\n              add\n                /* \"#utility.yul\":617:623   */\n              dup5\n                /* \"#utility.yul\":557:644   */\n              tag_88\n              jump\t// in\n            tag_125:\n                /* \"#utility.yul\":397:651   */\n              swap3\n              swap2\n              pop\n              pop\n              jump\t// out\n                /* \"#utility.yul\":657:732   */\n            tag_89:\n                /* \"#utility.yul\":690:696   */\n              0x00\n                /* \"#utility.yul\":723:725   */\n              0x40\n                /* \"#utility.yul\":717:726   */\n              mload\n                /* \"#utility.yul\":707:726   */\n              swap1\n              pop\n                /* \"#utility.yul\":657:732   */\n              swap1\n              jump\t// out\n                /* \"#utility.yul\":738:855   */\n            tag_90:\n                /* \"#utility.yul\":847:848   */\n              0x00\n                /* \"#utility.yul\":844:845   */\n              dup1\n                /* \"#utility.yul\":837:849   */\n              revert\n                /* \"#utility.yul\":861:978   */\n            tag_91:\n                /* \"#utility.yul\":970:971   */\n              0x00\n                /* \"#utility.yul\":967:968   */\n              dup1\n                /* \"#utility.yul\":960:972   */\n              revert\n                /* \"#utility.yul\":984:1101   */\n            tag_92:\n                /* \"#utility.yul\":1093:1094   */\n              0x00\n                /* \"#utility.yul\":1090:1091   */\n              dup1\n                /* \"#utility.yul\":1083:1095   */\n              revert\n                /* \"#utility.yul\":1107:1224   */\n            tag_93:\n                /* \"#utility.yul\":1216:1217   */\n              0x00\n                /* \"#utility.yul\":1213:1214   */\n              dup1\n                /* \"#utility.yul\":1206:1218   */\n              revert\n                /* \"#utility.yul\":1230:1332   */\n            tag_94:\n                /* \"#utility.yul\":1271:1277   */\n              0x00\n                /* \"#utility.yul\":1322:1324   */\n              0x1f\n                /* \"#utility.yul\":1318:1325   */\n              not\n                /* \"#utility.yul\":1313:1315   */\n              0x1f\n                /* \"#utility.yul\":1306:1311   */\n              dup4\n                /* \"#utility.yul\":1302:1316   */\n              add\n                /* \"#utility.yul\":1298:1326   */\n              and\n                /* \"#utility.yul\":1288:1326   */\n              swap1\n              pop\n                /* \"#utility.yul\":1230:1332   */\n              swap2\n              swap1\n              pop\n              jump\t// out\n                /* \"#utility.yul\":1338:1518   */\n            tag_95:\n                /* \"#utility.yul\":1386:1463   */\n              0x4e487b7100000000000000000000000000000000000000000000000000000000\n                /* \"#utility.yul\":1383:1384   */\n              0x00\n                /* \"#utility.yul\":1376:1464   */\n              mstore\n                /* \"#utility.yul\":1483:1487   */\n              0x41\n                /* \"#utility.yul\":1480:1481   */\n              0x04\n                /* \"#utility.yul\":1473:1488   */\n              mstore\n                /* \"#utility.yul\":1507:1511   */\n              0x24\n                /* \"#utility.yul\":1504:1505   */\n              0x00\n                /* \"#utility.yul\":1497:1512   */\n              revert\n                /* \"#utility.yul\":1524:1805   */\n            tag_96:\n                /* \"#utility.yul\":1607:1634   */\n              tag_134\n                /* \"#utility.yul\":1629:1633   */\n              dup3\n                /* \"#utility.yul\":1607:1634   */\n              tag_94\n              jump\t// in\n            tag_134:\n                /* \"#utility.yul\":1599:1605   */\n              dup2\n                /* \"#utility.yul\":1595:1635   */\n              add\n                /* \"#utility.yul\":1737:1743   */\n              dup2\n                /* \"#utility.yul\":1725:1735   */\n              dup2\n                /* \"#utility.yul\":1722:1744   */\n              lt\n                /* \"#utility.yul\":1701:1719   */\n              0xffffffffffffffff\n                /* \"#utility.yul\":1689:1699   */\n              dup3\n                /* \"#utility.yul\":1686:1720   */\n              gt\n                /* \"#utility.yul\":1683:1745   */\n              or\n                /* \"#utility.yul\":1680:1768   */\n              iszero\n              tag_135\n              jumpi\n                /* \"#utility.yul\":1748:1766   */\n              tag_136\n              tag_95\n              jump\t// in\n            tag_136:\n                /* \"#utility.yul\":1680:1768   */\n            tag_135:\n                /* \"#utility.yul\":1788:1798   */\n              dup1\n                /* \"#utility.yul\":1784:1786   */\n              0x40\n                /* \"#utility.yul\":1777:1799   */\n              mstore\n                /* \"#utility.yul\":1567:1805   */\n              pop\n                /* \"#utility.yul\":1524:1805   */\n              pop\n              pop\n              jump\t// out\n                /* \"#utility.yul\":1811:1940   */\n            tag_97:\n                /* \"#utility.yul\":1845:1851   */\n              0x00\n                /* \"#utility.yul\":1872:1892   */\n              tag_138\n              tag_89\n              jump\t// in\n            tag_138:\n                /* \"#utility.yul\":1862:1892   */\n              swap1\n              pop\n                /* \"#utility.yul\":1901:1934   */\n              tag_139\n                /* \"#utility.yul\":1929:1933   */\n              dup3\n                /* \"#utility.yul\":1921:1927   */\n              dup3\n                /* \"#utility.yul\":1901:1934   */\n              tag_96\n              jump\t// in\n            tag_139:\n                /* \"#utility.yul\":1811:1940   */\n              swap2\n              swap1\n              pop\n              jump\t// out\n                /* \"#utility.yul\":1946:2254   */\n            tag_98:\n                /* \"#utility.yul\":2008:2012   */\n              0x00\n                /* \"#utility.yul\":2098:2116   */\n              0xffffffffffffffff\n                /* \"#utility.yul\":2090:2096   */\n              dup3\n                /* \"#utility.yul\":2087:2117   */\n              gt\n                /* \"#utility.yul\":2084:2140   */\n              iszero\n              tag_141\n              jumpi\n                /* \"#utility.yul\":2120:2138   */\n              tag_142\n              tag_95\n              jump\t// in\n            tag_142:\n                /* \"#utility.yul\":2084:2140   */\n            tag_141:\n                /* \"#utility.yul\":2158:2187   */\n              tag_143\n                /* \"#utility.yul\":2180:2186   */\n              dup3\n                /* \"#utility.yul\":2158:2187   */\n              tag_94\n              jump\t// in\n            tag_143:\n                /* \"#utility.yul\":2150:2187   */\n              swap1\n              pop\n                /* \"#utility.yul\":2242:2246   */\n              0x20\n                /* \"#utility.yul\":2236:2240   */\n              dup2\n                /* \"#utility.yul\":2232:2247   */\n              add\n                /* \"#utility.yul\":2224:2247   */\n              swap1\n              pop\n                /* \"#utility.yul\":1946:2254   */\n              swap2\n              swap1\n              pop\n              jump\t// out\n                /* \"#utility.yul\":2260:2414   */\n            tag_99:\n                /* \"#utility.yul\":2344:2350   */\n              dup3\n                /* \"#utility.yul\":2339:2342   */\n              dup2\n                /* \"#utility.yul\":2334:2337   */\n              dup4\n                /* \"#utility.yul\":2321:2351   */\n              calldatacopy\n                /* \"#utility.yul\":2406:2407   */\n              0x00\n                /* \"#utility.yul\":2397:2403   */\n              dup4\n                /* \"#utility.yul\":2392:2395   */\n              dup4\n                /* \"#utility.yul\":2388:2404   */\n              add\n                /* \"#utility.yul\":2381:2408   */\n              mstore\n                /* \"#utility.yul\":2260:2414   */\n              pop\n              pop\n              pop\n              jump\t// out\n                /* \"#utility.yul\":2420:2832   */\n            tag_100:\n                /* \"#utility.yul\":2498:2503   */\n              0x00\n                /* \"#utility.yul\":2523:2589   */\n              tag_146\n                /* \"#utility.yul\":2539:2588   */\n              tag_147\n                /* \"#utility.yul\":2581:2587   */\n              dup5\n                /* \"#utility.yul\":2539:2588   */\n              tag_98\n              jump\t// in\n            tag_147:\n                /* \"#utility.yul\":2523:2589   */\n              tag_97\n              jump\t// in\n            tag_146:\n                /* \"#utility.yul\":2514:2589   */\n              swap1\n              pop\n                /* \"#utility.yul\":2612:2618   */\n              dup3\n                /* \"#utility.yul\":2605:2610   */\n              dup2\n                /* \"#utility.yul\":2598:2619   */\n              mstore\n                /* \"#utility.yul\":2650:2654   */\n              0x20\n                /* \"#utility.yul\":2643:2648   */\n              dup2\n                /* \"#utility.yul\":2639:2655   */\n              add\n                /* \"#utility.yul\":2688:2691   */\n              dup5\n                /* \"#utility.yul\":2679:2685   */\n              dup5\n                /* \"#utility.yul\":2674:2677   */\n              dup5\n                /* \"#utility.yul\":2670:2686   */\n              add\n                /* \"#utility.yul\":2667:2692   */\n              gt\n                /* \"#utility.yul\":2664:2776   */\n              iszero\n              tag_148\n              jumpi\n                /* \"#utility.yul\":2695:2774   */\n              tag_149\n              tag_93\n              jump\t// in\n            tag_149:\n                /* \"#utility.yul\":2664:2776   */\n            tag_148:\n                /* \"#utility.yul\":2785:2826   */\n              tag_150\n                /* \"#utility.yul\":2819:2825   */\n              dup5\n                /* \"#utility.yul\":2814:2817   */\n              dup3\n                /* \"#utility.yul\":2809:2812   */\n              dup6\n                /* \"#utility.yul\":2785:2826   */\n              tag_99\n              jump\t// in\n            tag_150:\n                /* \"#utility.yul\":2504:2832   */\n              pop\n                /* \"#utility.yul\":2420:2832   */\n              swap4\n              swap3\n              pop\n              pop\n              pop\n              jump\t// out\n                /* \"#utility.yul\":2852:3192   */\n            tag_101:\n                /* \"#utility.yul\":2908:2913   */\n              0x00\n                /* \"#utility.yul\":2957:2960   */\n              dup3\n                /* \"#utility.yul\":2950:2954   */\n              0x1f\n                /* \"#utility.yul\":2942:2948   */\n              dup4\n                /* \"#utility.yul\":2938:2955   */\n              add\n                /* \"#utility.yul\":2934:2961   */\n              slt\n                /* \"#utility.yul\":2924:3046   */\n              tag_152\n              jumpi\n                /* \"#utility.yul\":2965:3044   */\n              tag_153\n              tag_92\n              jump\t// in\n            tag_153:\n                /* \"#utility.yul\":2924:3046   */\n            tag_152:\n                /* \"#utility.yul\":3082:3088   */\n              dup2\n                /* \"#utility.yul\":3069:3089   */\n              calldataload\n                /* \"#utility.yul\":3107:3186   */\n              tag_154\n                /* \"#utility.yul\":3182:3185   */\n              dup5\n                /* \"#utility.yul\":3174:3180   */\n              dup3\n                /* \"#utility.yul\":3167:3171   */\n              0x20\n                /* \"#utility.yul\":3159:3165   */\n              dup7\n                /* \"#utility.yul\":3155:3172   */\n              add\n                /* \"#utility.yul\":3107:3186   */\n              tag_100\n              jump\t// in\n            tag_154:\n                /* \"#utility.yul\":3098:3186   */\n              swap2\n              pop\n                /* \"#utility.yul\":2914:3192   */\n              pop\n                /* \"#utility.yul\":2852:3192   */\n              swap3\n              swap2\n              pop\n              pop\n              jump\t// out\n                /* \"#utility.yul\":3198:3707   */\n            tag_15:\n                /* \"#utility.yul\":3267:3273   */\n              0x00\n                /* \"#utility.yul\":3316:3318   */\n              0x20\n                /* \"#utility.yul\":3304:3313   */\n              dup3\n                /* \"#utility.yul\":3295:3302   */\n              dup5\n                /* \"#utility.yul\":3291:3314   */\n              sub\n                /* \"#utility.yul\":3287:3319   */\n              slt\n                /* \"#utility.yul\":3284:3403   */\n              iszero\n              tag_156\n              jumpi\n                /* \"#utility.yul\":3322:3401   */\n              tag_157\n              tag_90\n              jump\t// in\n            tag_157:\n                /* \"#utility.yul\":3284:3403   */\n            tag_156:\n                /* \"#utility.yul\":3470:3471   */\n              0x00\n                /* \"#utility.yul\":3459:3468   */\n              dup3\n                /* \"#utility.yul\":3455:3472   */\n              add\n                /* \"#utility.yul\":3442:3473   */\n              calldataload\n                /* \"#utility.yul\":3500:3518   */\n              0xffffffffffffffff\n                /* \"#utility.yul\":3492:3498   */\n              dup2\n                /* \"#utility.yul\":3489:3519   */\n              gt\n                /* \"#utility.yul\":3486:3603   */\n              iszero\n              tag_158\n              jumpi\n                /* \"#utility.yul\":3522:3601   */\n              tag_159\n              tag_91\n              jump\t// in\n            tag_159:\n                /* \"#utility.yul\":3486:3603   */\n            tag_158:\n                /* \"#utility.yul\":3627:3690   */\n              tag_160\n                /* \"#utility.yul\":3682:3689   */\n              dup5\n                /* \"#utility.yul\":3673:3679   */\n              dup3\n                /* \"#utility.yul\":3662:3671   */\n              dup6\n                /* \"#utility.yul\":3658:3680   */\n              add\n                /* \"#utility.yul\":3627:3690   */\n              tag_101\n              jump\t// in\n            tag_160:\n                /* \"#utility.yul\":3617:3690   */\n              swap2\n              pop\n                /* \"#utility.yul\":3413:3700   */\n              pop\n                /* \"#utility.yul\":3198:3707   */\n              swap3\n              swap2\n              pop\n              pop\n              jump\t// out\n                /* \"#utility.yul\":3713:3812   */\n            tag_102:\n                /* \"#utility.yul\":3765:3771   */\n              0x00\n                /* \"#utility.yul\":3799:3804   */\n              dup2\n                /* \"#utility.yul\":3793:3805   */\n              mload\n                /* \"#utility.yul\":3783:3805   */\n              swap1\n              pop\n                /* \"#utility.yul\":3713:3812   */\n              swap2\n              swap1\n              pop\n              jump\t// out\n                /* \"#utility.yul\":3818:3987   */\n            tag_103:\n                /* \"#utility.yul\":3902:3913   */\n              0x00\n                /* \"#utility.yul\":3936:3942   */\n              dup3\n                /* \"#utility.yul\":3931:3934   */\n              dup3\n                /* \"#utility.yul\":3924:3943   */\n              mstore\n                /* \"#utility.yul\":3976:3980   */\n              0x20\n                /* \"#utility.yul\":3971:3974   */\n              dup3\n                /* \"#utility.yul\":3967:3981   */\n              add\n                /* \"#utility.yul\":3952:3981   */\n              swap1\n              pop\n                /* \"#utility.yul\":3818:3987   */\n              swap3\n              swap2\n              pop\n              pop\n              jump\t// out\n                /* \"#utility.yul\":3993:4300   */\n            tag_104:\n                /* \"#utility.yul\":4061:4062   */\n              0x00\n                /* \"#utility.yul\":4071:4184   */\n            tag_164:\n                /* \"#utility.yul\":4085:4091   */\n              dup4\n                /* \"#utility.yul\":4082:4083   */\n              dup2\n                /* \"#utility.yul\":4079:4092   */\n              lt\n                /* \"#utility.yul\":4071:4184   */\n              iszero\n              tag_166\n              jumpi\n                /* \"#utility.yul\":4170:4171   */\n              dup1\n                /* \"#utility.yul\":4165:4168   */\n              dup3\n                /* \"#utility.yul\":4161:4172   */\n              add\n                /* \"#utility.yul\":4155:4173   */\n              mload\n                /* \"#utility.yul\":4151:4152   */\n              dup2\n                /* \"#utility.yul\":4146:4149   */\n              dup5\n                /* \"#utility.yul\":4142:4153   */\n              add\n                /* \"#utility.yul\":4135:4174   */\n              mstore\n                /* \"#utility.yul\":4107:4109   */\n              0x20\n                /* \"#utility.yul\":4104:4105   */\n              dup2\n                /* \"#utility.yul\":4100:4110   */\n              add\n                /* \"#utility.yul\":4095:4110   */\n              swap1\n              pop\n                /* \"#utility.yul\":4071:4184   */\n              jump(tag_164)\n            tag_166:\n                /* \"#utility.yul\":4202:4208   */\n              dup4\n                /* \"#utility.yul\":4199:4200   */\n              dup2\n                /* \"#utility.yul\":4196:4209   */\n              gt\n                /* \"#utility.yul\":4193:4294   */\n              iszero\n              tag_167\n              jumpi\n                /* \"#utility.yul\":4282:4283   */\n              0x00\n                /* \"#utility.yul\":4273:4279   */\n              dup5\n                /* \"#utility.yul\":4268:4271   */\n              dup5\n                /* \"#utility.yul\":4264:4280   */\n              add\n                /* \"#utility.yul\":4257:4284   */\n              mstore\n                /* \"#utility.yul\":4193:4294   */\n            tag_167:\n                /* \"#utility.yul\":4042:4300   */\n              pop\n                /* \"#utility.yul\":3993:4300   */\n              pop\n              pop\n              pop\n              jump\t// out\n                /* \"#utility.yul\":4306:4670   */\n            tag_105:\n                /* \"#utility.yul\":4394:4397   */\n              0x00\n                /* \"#utility.yul\":4422:4461   */\n              tag_169\n                /* \"#utility.yul\":4455:4460   */\n              dup3\n                /* \"#utility.yul\":4422:4461   */\n              tag_102\n              jump\t// in\n            tag_169:\n                /* \"#utility.yul\":4477:4548   */\n              tag_170\n                /* \"#utility.yul\":4541:4547   */\n              dup2\n                /* \"#utility.yul\":4536:4539   */\n              dup6\n                /* \"#utility.yul\":4477:4548   */\n              tag_103\n              jump\t// in\n            tag_170:\n                /* \"#utility.yul\":4470:4548   */\n              swap4\n              pop\n                /* \"#utility.yul\":4557:4609   */\n              tag_171\n                /* \"#utility.yul\":4602:4608   */\n              dup2\n                /* \"#utility.yul\":4597:4600   */\n              dup6\n                /* \"#utility.yul\":4590:4594   */\n              0x20\n                /* \"#utility.yul\":4583:4588   */\n              dup7\n                /* \"#utility.yul\":4579:4595   */\n              add\n                /* \"#utility.yul\":4557:4609   */\n              tag_104\n              jump\t// in\n            tag_171:\n                /* \"#utility.yul\":4634:4663   */\n              tag_172\n                /* \"#utility.yul\":4656:4662   */\n              dup2\n                /* \"#utility.yul\":4634:4663   */\n              tag_94\n              jump\t// in\n            tag_172:\n                /* \"#utility.yul\":4629:4632   */\n              dup5\n                /* \"#utility.yul\":4625:4664   */\n              add\n                /* \"#utility.yul\":4618:4664   */\n              swap2\n              pop\n                /* \"#utility.yul\":4398:4670   */\n              pop\n                /* \"#utility.yul\":4306:4670   */\n              swap3\n              swap2\n              pop\n              pop\n              jump\t// out\n                /* \"#utility.yul\":4676:4989   */\n            tag_26:\n                /* \"#utility.yul\":4789:4793   */\n              0x00\n                /* \"#utility.yul\":4827:4829   */\n              0x20\n                /* \"#utility.yul\":4816:4825   */\n              dup3\n                /* \"#utility.yul\":4812:4830   */\n              add\n                /* \"#utility.yul\":4804:4830   */\n              swap1\n              pop\n                /* \"#utility.yul\":4876:4885   */\n              dup2\n                /* \"#utility.yul\":4870:4874   */\n              dup2\n                /* \"#utility.yul\":4866:4886   */\n              sub\n                /* \"#utility.yul\":4862:4863   */\n              0x00\n                /* \"#utility.yul\":4851:4860   */\n              dup4\n                /* \"#utility.yul\":4847:4864   */\n              add\n                /* \"#utility.yul\":4840:4887   */\n              mstore\n                /* \"#utility.yul\":4904:4982   */\n              tag_174\n                /* \"#utility.yul\":4977:4981   */\n              dup2\n                /* \"#utility.yul\":4968:4974   */\n              dup5\n                /* \"#utility.yul\":4904:4982   */\n              tag_105\n              jump\t// in\n            tag_174:\n                /* \"#utility.yul\":4896:4982   */\n              swap1\n              pop\n                /* \"#utility.yul\":4676:4989   */\n              swap3\n              swap2\n              pop\n              pop\n              jump\t// out\n                /* \"#utility.yul\":4995:5175   */\n            tag_33:\n                /* \"#utility.yul\":5043:5120   */\n              0x4e487b7100000000000000000000000000000000000000000000000000000000\n                /* \"#utility.yul\":5040:5041   */\n              0x00\n                /* \"#utility.yul\":5033:5121   */\n              mstore\n                /* \"#utility.yul\":5140:5144   */\n              0x21\n                /* \"#utility.yul\":5137:5138   */\n              0x04\n                /* \"#utility.yul\":5130:5145   */\n              mstore\n                /* \"#utility.yul\":5164:5168   */\n              0x24\n                /* \"#utility.yul\":5161:5162   */\n              0x00\n                /* \"#utility.yul\":5154:5169   */\n              revert\n                /* \"#utility.yul\":5181:5361   */\n            tag_106:\n                /* \"#utility.yul\":5229:5306   */\n              0x4e487b7100000000000000000000000000000000000000000000000000000000\n                /* \"#utility.yul\":5226:5227   */\n              0x00\n                /* \"#utility.yul\":5219:5307   */\n              mstore\n                /* \"#utility.yul\":5326:5330   */\n              0x22\n                /* \"#utility.yul\":5323:5324   */\n              0x04\n                /* \"#utility.yul\":5316:5331   */\n              mstore\n                /* \"#utility.yul\":5350:5354   */\n              0x24\n                /* \"#utility.yul\":5347:5348   */\n              0x00\n                /* \"#utility.yul\":5340:5355   */\n              revert\n                /* \"#utility.yul\":5367:5687   */\n            tag_62:\n                /* \"#utility.yul\":5411:5417   */\n              0x00\n                /* \"#utility.yul\":5448:5449   */\n              0x02\n                /* \"#utility.yul\":5442:5446   */\n              dup3\n                /* \"#utility.yul\":5438:5450   */\n              div\n                /* \"#utility.yul\":5428:5450   */\n              swap1\n              pop\n                /* \"#utility.yul\":5495:5496   */\n              0x01\n                /* \"#utility.yul\":5489:5493   */\n              dup3\n                /* \"#utility.yul\":5485:5497   */\n              and\n                /* \"#utility.yul\":5516:5534   */\n              dup1\n                /* \"#utility.yul\":5506:5587   */\n              tag_178\n              jumpi\n                /* \"#utility.yul\":5572:5576   */\n              0x7f\n                /* \"#utility.yul\":5564:5570   */\n              dup3\n                /* \"#utility.yul\":5560:5577   */\n              and\n                /* \"#utility.yul\":5550:5577   */\n              swap2\n              pop\n                /* \"#utility.yul\":5506:5587   */\n            tag_178:\n                /* \"#utility.yul\":5634:5636   */\n              0x20\n                /* \"#utility.yul\":5626:5632   */\n              dup3\n                /* \"#utility.yul\":5623:5637   */\n              lt\n                /* \"#utility.yul\":5603:5621   */\n              dup2\n                /* \"#utility.yul\":5600:5638   */\n              sub\n                /* \"#utility.yul\":5597:5681   */\n              tag_179\n              jumpi\n                /* \"#utility.yul\":5653:5671   */\n              tag_180\n              tag_106\n              jump\t// in\n            tag_180:\n                /* \"#utility.yul\":5597:5681   */\n            tag_179:\n                /* \"#utility.yul\":5418:5687   */\n              pop\n                /* \"#utility.yul\":5367:5687   */\n              swap2\n              swap1\n              pop\n              jump\t// out\n                /* \"#utility.yul\":5693:5834   */\n            tag_107:\n                /* \"#utility.yul\":5742:5746   */\n              0x00\n                /* \"#utility.yul\":5765:5768   */\n              dup2\n                /* \"#utility.yul\":5757:5768   */\n              swap1\n              pop\n                /* \"#utility.yul\":5788:5791   */\n              dup2\n                /* \"#utility.yul\":5785:5786   */\n              0x00\n                /* \"#utility.yul\":5778:5792   */\n              mstore\n                /* \"#utility.yul\":5822:5826   */\n              0x20\n                /* \"#utility.yul\":5819:5820   */\n              0x00\n                /* \"#utility.yul\":5809:5827   */\n              keccak256\n                /* \"#utility.yul\":5801:5827   */\n              swap1\n              pop\n                /* \"#utility.yul\":5693:5834   */\n              swap2\n              swap1\n              pop\n              jump\t// out\n                /* \"#utility.yul\":5864:6666   */\n            tag_108:\n                /* \"#utility.yul\":5949:5952   */\n              0x00\n                /* \"#utility.yul\":5986:5991   */\n              dup2\n                /* \"#utility.yul\":5980:5992   */\n              sload\n                /* \"#utility.yul\":6015:6051   */\n              tag_183\n                /* \"#utility.yul\":6041:6050   */\n              dup2\n                /* \"#utility.yul\":6015:6051   */\n              tag_62\n              jump\t// in\n            tag_183:\n                /* \"#utility.yul\":6067:6138   */\n              tag_184\n                /* \"#utility.yul\":6131:6137   */\n              dup2\n                /* \"#utility.yul\":6126:6129   */\n              dup7\n                /* \"#utility.yul\":6067:6138   */\n              tag_103\n              jump\t// in\n            tag_184:\n                /* \"#utility.yul\":6060:6138   */\n              swap5\n              pop\n                /* \"#utility.yul\":6169:6170   */\n              0x01\n                /* \"#utility.yul\":6158:6167   */\n              dup3\n                /* \"#utility.yul\":6154:6171   */\n              and\n                /* \"#utility.yul\":6185:6186   */\n              0x00\n                /* \"#utility.yul\":6180:6315   */\n              dup2\n              eq\n              tag_186\n              jumpi\n                /* \"#utility.yul\":6329:6330   */\n              0x01\n                /* \"#utility.yul\":6324:6660   */\n              dup2\n              eq\n              tag_187\n              jumpi\n                /* \"#utility.yul\":6147:6660   */\n              jump(tag_185)\n                /* \"#utility.yul\":6180:6315   */\n            tag_186:\n                /* \"#utility.yul\":6264:6268   */\n              0xff\n                /* \"#utility.yul\":6260:6269   */\n              not\n                /* \"#utility.yul\":6249:6258   */\n              dup4\n                /* \"#utility.yul\":6245:6270   */\n              and\n                /* \"#utility.yul\":6240:6243   */\n              dup7\n                /* \"#utility.yul\":6233:6271   */\n              mstore\n                /* \"#utility.yul\":6300:6304   */\n              0x20\n                /* \"#utility.yul\":6295:6298   */\n              dup7\n                /* \"#utility.yul\":6291:6305   */\n              add\n                /* \"#utility.yul\":6284:6305   */\n              swap4\n              pop\n                /* \"#utility.yul\":6180:6315   */\n              jump(tag_185)\n                /* \"#utility.yul\":6324:6660   */\n            tag_187:\n                /* \"#utility.yul\":6391:6429   */\n              tag_188\n                /* \"#utility.yul\":6423:6428   */\n              dup6\n                /* \"#utility.yul\":6391:6429   */\n              tag_107\n              jump\t// in\n            tag_188:\n                /* \"#utility.yul\":6451:6452   */\n              0x00\n                /* \"#utility.yul\":6465:6619   */\n            tag_189:\n                /* \"#utility.yul\":6479:6485   */\n              dup4\n                /* \"#utility.yul\":6476:6477   */\n              dup2\n                /* \"#utility.yul\":6473:6486   */\n              lt\n                /* \"#utility.yul\":6465:6619   */\n              iszero\n              tag_191\n              jumpi\n                /* \"#utility.yul\":6553:6560   */\n              dup2\n                /* \"#utility.yul\":6547:6561   */\n              sload\n                /* \"#utility.yul\":6543:6544   */\n              dup2\n                /* \"#utility.yul\":6538:6541   */\n              dup10\n                /* \"#utility.yul\":6534:6545   */\n              add\n                /* \"#utility.yul\":6527:6562   */\n              mstore\n                /* \"#utility.yul\":6603:6604   */\n              0x01\n                /* \"#utility.yul\":6594:6601   */\n              dup3\n                /* \"#utility.yul\":6590:6605   */\n              add\n                /* \"#utility.yul\":6579:6605   */\n              swap2\n              pop\n                /* \"#utility.yul\":6501:6505   */\n              0x20\n                /* \"#utility.yul\":6498:6499   */\n              dup2\n                /* \"#utility.yul\":6494:6506   */\n              add\n                /* \"#utility.yul\":6489:6506   */\n              swap1\n              pop\n                /* \"#utility.yul\":6465:6619   */\n              jump(tag_189)\n            tag_191:\n                /* \"#utility.yul\":6648:6649   */\n              dup1\n                /* \"#utility.yul\":6643:6646   */\n              dup9\n                /* \"#utility.yul\":6639:6650   */\n              add\n                /* \"#utility.yul\":6632:6650   */\n              swap6\n              pop\n                /* \"#utility.yul\":6331:6660   */\n              pop\n              pop\n                /* \"#utility.yul\":6147:6660   */\n            tag_185:\n              pop\n                /* \"#utility.yul\":5953:6666   */\n              pop\n              pop\n                /* \"#utility.yul\":5864:6666   */\n              swap3\n              swap2\n              pop\n              pop\n              jump\t// out\n                /* \"#utility.yul\":6672:6831   */\n            tag_109:\n                /* \"#utility.yul\":6812:6823   */\n              0x69732046756e6465640000000000000000000000000000000000000000000000\n                /* \"#utility.yul\":6808:6809   */\n              0x00\n                /* \"#utility.yul\":6800:6806   */\n              dup3\n                /* \"#utility.yul\":6796:6810   */\n              add\n                /* \"#utility.yul\":6789:6824   */\n              mstore\n                /* \"#utility.yul\":6672:6831   */\n              pop\n              jump\t// out\n                /* \"#utility.yul\":6837:7202   */\n            tag_110:\n                /* \"#utility.yul\":6979:6982   */\n              0x00\n                /* \"#utility.yul\":7000:7066   */\n              tag_194\n                /* \"#utility.yul\":7064:7065   */\n              0x09\n                /* \"#utility.yul\":7059:7062   */\n              dup4\n                /* \"#utility.yul\":7000:7066   */\n              tag_103\n              jump\t// in\n            tag_194:\n                /* \"#utility.yul\":6993:7066   */\n              swap2\n              pop\n                /* \"#utility.yul\":7075:7168   */\n              tag_195\n                /* \"#utility.yul\":7164:7167   */\n              dup3\n                /* \"#utility.yul\":7075:7168   */\n              tag_109\n              jump\t// in\n            tag_195:\n                /* \"#utility.yul\":7193:7195   */\n              0x20\n                /* \"#utility.yul\":7188:7191   */\n              dup3\n                /* \"#utility.yul\":7184:7196   */\n              add\n                /* \"#utility.yul\":7177:7196   */\n              swap1\n              pop\n                /* \"#utility.yul\":6837:7202   */\n              swap2\n              swap1\n              pop\n              jump\t// out\n                /* \"#utility.yul\":7208:7822   */\n            tag_41:\n                /* \"#utility.yul\":7419:7423   */\n              0x00\n                /* \"#utility.yul\":7457:7459   */\n              0x40\n                /* \"#utility.yul\":7446:7455   */\n              dup3\n                /* \"#utility.yul\":7442:7460   */\n              add\n                /* \"#utility.yul\":7434:7460   */\n              swap1\n              pop\n                /* \"#utility.yul\":7506:7515   */\n              dup2\n                /* \"#utility.yul\":7500:7504   */\n              dup2\n                /* \"#utility.yul\":7496:7516   */\n              sub\n                /* \"#utility.yul\":7492:7493   */\n              0x00\n                /* \"#utility.yul\":7481:7490   */\n              dup4\n                /* \"#utility.yul\":7477:7494   */\n              add\n                /* \"#utility.yul\":7470:7517   */\n              mstore\n                /* \"#utility.yul\":7534:7609   */\n              tag_197\n                /* \"#utility.yul\":7604:7608   */\n              dup2\n                /* \"#utility.yul\":7595:7601   */\n              dup5\n                /* \"#utility.yul\":7534:7609   */\n              tag_108\n              jump\t// in\n            tag_197:\n                /* \"#utility.yul\":7526:7609   */\n              swap1\n              pop\n                /* \"#utility.yul\":7656:7665   */\n              dup2\n                /* \"#utility.yul\":7650:7654   */\n              dup2\n                /* \"#utility.yul\":7646:7666   */\n              sub\n                /* \"#utility.yul\":7641:7643   */\n              0x20\n                /* \"#utility.yul\":7630:7639   */\n              dup4\n                /* \"#utility.yul\":7626:7644   */\n              add\n                /* \"#utility.yul\":7619:7667   */\n              mstore\n                /* \"#utility.yul\":7684:7815   */\n              tag_198\n                /* \"#utility.yul\":7810:7814   */\n              dup2\n                /* \"#utility.yul\":7684:7815   */\n              tag_110\n              jump\t// in\n            tag_198:\n                /* \"#utility.yul\":7676:7815   */\n              swap1\n              pop\n                /* \"#utility.yul\":7208:7822   */\n              swap3\n              swap2\n              pop\n              pop\n              jump\t// out\n                /* \"#utility.yul\":7828:7905   */\n            tag_111:\n                /* \"#utility.yul\":7865:7872   */\n              0x00\n                /* \"#utility.yul\":7894:7899   */\n              dup2\n                /* \"#utility.yul\":7883:7899   */\n              swap1\n              pop\n                /* \"#utility.yul\":7828:7905   */\n              swap2\n              swap1\n              pop\n              jump\t// out\n                /* \"#utility.yul\":7911:8091   */\n            tag_112:\n                /* \"#utility.yul\":7959:8036   */\n              0x4e487b7100000000000000000000000000000000000000000000000000000000\n                /* \"#utility.yul\":7956:7957   */\n              0x00\n                /* \"#utility.yul\":7949:8037   */\n              mstore\n                /* \"#utility.yul\":8056:8060   */\n              0x11\n                /* \"#utility.yul\":8053:8054   */\n              0x04\n                /* \"#utility.yul\":8046:8061   */\n              mstore\n                /* \"#utility.yul\":8080:8084   */\n              0x24\n                /* \"#utility.yul\":8077:8078   */\n              0x00\n                /* \"#utility.yul\":8070:8085   */\n              revert\n                /* \"#utility.yul\":8097:8402   */\n            tag_55:\n                /* \"#utility.yul\":8137:8140   */\n              0x00\n                /* \"#utility.yul\":8156:8176   */\n              tag_202\n                /* \"#utility.yul\":8174:8175   */\n              dup3\n                /* \"#utility.yul\":8156:8176   */\n              tag_111\n              jump\t// in\n            tag_202:\n                /* \"#utility.yul\":8151:8176   */\n              swap2\n              pop\n                /* \"#utility.yul\":8190:8210   */\n              tag_203\n                /* \"#utility.yul\":8208:8209   */\n              dup4\n                /* \"#utility.yul\":8190:8210   */\n              tag_111\n              jump\t// in\n            tag_203:\n                /* \"#utility.yul\":8185:8210   */\n              swap3\n              pop\n                /* \"#utility.yul\":8344:8345   */\n              dup3\n                /* \"#utility.yul\":8276:8342   */\n              0xffffffffffffffffffffffffffffffffffffffffffffffffffffffffffffffff\n                /* \"#utility.yul\":8272:8346   */\n              sub\n                /* \"#utility.yul\":8269:8270   */\n              dup3\n                /* \"#utility.yul\":8266:8347   */\n              gt\n                /* \"#utility.yul\":8263:8370   */\n              iszero\n              tag_204\n              jumpi\n                /* \"#utility.yul\":8350:8368   */\n              tag_205\n              tag_112\n              jump\t// in\n            tag_205:\n                /* \"#utility.yul\":8263:8370   */\n            tag_204:\n                /* \"#utility.yul\":8394:8395   */\n              dup3\n                /* \"#utility.yul\":8391:8392   */\n              dup3\n                /* \"#utility.yul\":8387:8396   */\n              add\n                /* \"#utility.yul\":8380:8396   */\n              swap1\n              pop\n                /* \"#utility.yul\":8097:8402   */\n              swap3\n              swap2\n              pop\n              pop\n              jump\t// out\n                /* \"#utility.yul\":8408:8504   */\n            tag_113:\n                /* \"#utility.yul\":8445:8452   */\n              0x00\n                /* \"#utility.yul\":8474:8498   */\n              tag_207\n                /* \"#utility.yul\":8492:8497   */\n              dup3\n                /* \"#utility.yul\":8474:8498   */\n              tag_86\n              jump\t// in\n            tag_207:\n                /* \"#utility.yul\":8463:8498   */\n              swap1\n              pop\n                /* \"#utility.yul\":8408:8504   */\n              swap2\n              swap1\n              pop\n              jump\t// out\n                /* \"#utility.yul\":8510:8628   */\n            tag_114:\n                /* \"#utility.yul\":8597:8621   */\n              tag_209\n                /* \"#utility.yul\":8615:8620   */\n              dup2\n                /* \"#utility.yul\":8597:8621   */\n              tag_113\n              jump\t// in\n            tag_209:\n                /* \"#utility.yul\":8592:8595   */\n              dup3\n                /* \"#utility.yul\":8585:8622   */\n              mstore\n                /* \"#utility.yul\":8510:8628   */\n              pop\n              pop\n              jump\t// out\n                /* \"#utility.yul\":8634:8752   */\n            tag_115:\n                /* \"#utility.yul\":8721:8745   */\n              tag_211\n                /* \"#utility.yul\":8739:8744   */\n              dup2\n                /* \"#utility.yul\":8721:8745   */\n              tag_111\n              jump\t// in\n            tag_211:\n                /* \"#utility.yul\":8716:8719   */\n              dup3\n                /* \"#utility.yul\":8709:8746   */\n              mstore\n                /* \"#utility.yul\":8634:8752   */\n              pop\n              pop\n              jump\t// out\n                /* \"#utility.yul\":8758:9090   */\n            tag_57:\n                /* \"#utility.yul\":8879:8883   */\n              0x00\n                /* \"#utility.yul\":8917:8919   */\n              0x40\n                /* \"#utility.yul\":8906:8915   */\n              dup3\n                /* \"#utility.yul\":8902:8920   */\n              add\n                /* \"#utility.yul\":8894:8920   */\n              swap1\n              pop\n                /* \"#utility.yul\":8930:9001   */\n              tag_213\n                /* \"#utility.yul\":8998:8999   */\n              0x00\n                /* \"#utility.yul\":8987:8996   */\n              dup4\n                /* \"#utility.yul\":8983:9000   */\n              add\n                /* \"#utility.yul\":8974:8980   */\n              dup6\n                /* \"#utility.yul\":8930:9001   */\n              tag_114\n              jump\t// in\n            tag_213:\n                /* \"#utility.yul\":9011:9083   */\n              tag_214\n                /* \"#utility.yul\":9079:9081   */\n              0x20\n                /* \"#utility.yul\":9068:9077   */\n              dup4\n                /* \"#utility.yul\":9064:9082   */\n              add\n                /* \"#utility.yul\":9055:9061   */\n              dup5\n                /* \"#utility.yul\":9011:9083   */\n              tag_115\n              jump\t// in\n            tag_214:\n                /* \"#utility.yul\":8758:9090   */\n              swap4\n              swap3\n              pop\n              pop\n              pop\n              jump\t// out\n                /* \"#utility.yul\":9096:9265   */\n            tag_116:\n                /* \"#utility.yul\":9236:9257   */\n              0x54686520476f616c206973207265616368656400000000000000000000000000\n                /* \"#utility.yul\":9232:9233   */\n              0x00\n                /* \"#utility.yul\":9224:9230   */\n              dup3\n                /* \"#utility.yul\":9220:9234   */\n              add\n                /* \"#utility.yul\":9213:9258   */\n              mstore\n                /* \"#utility.yul\":9096:9265   */\n              pop\n              jump\t// out\n                /* \"#utility.yul\":9271:9637   */\n            tag_117:\n                /* \"#utility.yul\":9413:9416   */\n              0x00\n                /* \"#utility.yul\":9434:9501   */\n              tag_217\n                /* \"#utility.yul\":9498:9500   */\n              0x13\n                /* \"#utility.yul\":9493:9496   */\n              dup4\n                /* \"#utility.yul\":9434:9501   */\n              tag_103\n              jump\t// in\n            tag_217:\n                /* \"#utility.yul\":9427:9501   */\n              swap2\n              pop\n                /* \"#utility.yul\":9510:9603   */\n              tag_218\n                /* \"#utility.yul\":9599:9602   */\n              dup3\n                /* \"#utility.yul\":9510:9603   */\n              tag_116\n              jump\t// in\n            tag_218:\n                /* \"#utility.yul\":9628:9630   */\n              0x20\n                /* \"#utility.yul\":9623:9626   */\n              dup3\n                /* \"#utility.yul\":9619:9631   */\n              add\n                /* \"#utility.yul\":9612:9631   */\n              swap1\n              pop\n                /* \"#utility.yul\":9271:9637   */\n              swap2\n              swap1\n              pop\n              jump\t// out\n                /* \"#utility.yul\":9643:10257   */\n            tag_72:\n                /* \"#utility.yul\":9854:9858   */\n              0x00\n                /* \"#utility.yul\":9892:9894   */\n              0x40\n                /* \"#utility.yul\":9881:9890   */\n              dup3\n                /* \"#utility.yul\":9877:9895   */\n              add\n                /* \"#utility.yul\":9869:9895   */\n              swap1\n              pop\n                /* \"#utility.yul\":9941:9950   */\n              dup2\n                /* \"#utility.yul\":9935:9939   */\n              dup2\n                /* \"#utility.yul\":9931:9951   */\n              sub\n                /* \"#utility.yul\":9927:9928   */\n              0x00\n                /* \"#utility.yul\":9916:9925   */\n              dup4\n                /* \"#utility.yul\":9912:9929   */\n              add\n                /* \"#utility.yul\":9905:9952   */\n              mstore\n                /* \"#utility.yul\":9969:10100   */\n              tag_220\n                /* \"#utility.yul\":10095:10099   */\n              dup2\n                /* \"#utility.yul\":9969:10100   */\n              tag_117\n              jump\t// in\n            tag_220:\n                /* \"#utility.yul\":9961:10100   */\n              swap1\n              pop\n                /* \"#utility.yul\":10147:10156   */\n              dup2\n                /* \"#utility.yul\":10141:10145   */\n              dup2\n                /* \"#utility.yul\":10137:10157   */\n              sub\n                /* \"#utility.yul\":10132:10134   */\n              0x20\n                /* \"#utility.yul\":10121:10130   */\n              dup4\n                /* \"#utility.yul\":10117:10135   */\n              add\n                /* \"#utility.yul\":10110:10158   */\n              mstore\n                /* \"#utility.yul\":10175:10250   */\n              tag_221\n                /* \"#utility.yul\":10245:10249   */\n              dup2\n                /* \"#utility.yul\":10236:10242   */\n              dup5\n                /* \"#utility.yul\":10175:10250   */\n              tag_108\n              jump\t// in\n            tag_221:\n                /* \"#utility.yul\":10167:10250   */\n              swap1\n              pop\n                /* \"#utility.yul\":9643:10257   */\n              swap3\n              swap2\n              pop\n              pop\n              jump\t// out\n\n            auxdata: 0xa26469706673582212204619396286d6b086c541400f68eccc5c350600b22a7fa35e8ba459362ef49d6364736f6c634300080d0033\n        }\n    }\n\n    auxdata: 0xa26469706673582212203e75f4fbe43301230dadce8448258a766c3ca66245c2c9c2c761c7b5cdae123b64736f6c634300080d0033\n}\n",
				"bytecode": {
					"linkReferences": {},
					"object": "608060405234801561001057600080fd5b5061209c806100206000396000f3fe608060405260043610620000445760003560e01c80634bf28d9e146200004957806373e888fd146200008d57806385b6e28e14620000ad578063a24a2d1614620000dd575b600080fd5b3480156200005657600080fd5b506200007560048036038101906200006f919062000724565b6200010b565b604051620000849190620007c1565b60405180910390f35b620000ab6004803603810190620000a5919062000724565b620002ab565b005b348015620000ba57600080fd5b50620000c56200032c565b604051620000d49190620008ac565b60405180910390f35b348015620000ea57600080fd5b5062000109600480360381019062000103919062000a6d565b620003bc565b005b600080600090505b60008054905081101562000268578273ffffffffffffffffffffffffffffffffffffffff16600082815481106200014f576200014e62000b1d565b5b9060005260206000200160009054906101000a900473ffffffffffffffffffffffffffffffffffffffff1673ffffffffffffffffffffffffffffffffffffffff1663a541a2a26040518163ffffffff1660e01b8152600401602060405180830381865afa158015620001c5573d6000803e3d6000fd5b505050506040513d601f19601f82011682018060405250810190620001eb919062000b91565b73ffffffffffffffffffffffffffffffffffffffff16036200025257600081815481106200021e576200021d62000b1d565b5b9060005260206000200160009054906101000a900473ffffffffffffffffffffffffffffffffffffffff16915050620002a6565b80806200025f9062000bf2565b91505062000113565b506040517f08c379a00000000000000000000000000000000000000000000000000000000081526004016200029d9062000ca0565b60405180910390fd5b919050565b600080620002b983620004e2565b91509150811562000327578073ffffffffffffffffffffffffffffffffffffffff1663d7bb99ba6040518163ffffffff1660e01b8152600401600060405180830381600087803b1580156200030d57600080fd5b505af115801562000322573d6000803e3d6000fd5b505050505b505050565b60606000805480602002602001604051908101604052809291908181526020018280548015620003b257602002820191906000526020600020905b8160009054906101000a900473ffffffffffffffffffffffffffffffffffffffff1673ffffffffffffffffffffffffffffffffffffffff168152602001906001019080831162000367575b5050505050905090565b6000620003ea620003da62015180846200066d90919063ffffffff16565b426200068590919063ffffffff16565b90506000338686868560405162000401906200069d565b6200041195949392919062000d66565b604051809103906000f0801580156200042e573d6000803e3d6000fd5b5090506000819080600181540180825580915050600190039060005260206000200160009091909190916101000a81548173ffffffffffffffffffffffffffffffffffffffff021916908373ffffffffffffffffffffffffffffffffffffffff1602179055507fc5e9958c1e6508265757e920137857e1e705c02eb9c0e6b2a02101af19d448808133888886896000604051620004d2979695949392919062000e62565b60405180910390a1505050505050565b6000806000808054905081101562000666578373ffffffffffffffffffffffffffffffffffffffff166000828154811062000522576200052162000b1d565b5b9060005260206000200160009054906101000a900473ffffffffffffffffffffffffffffffffffffffff1673ffffffffffffffffffffffffffffffffffffffff1663a541a2a26040518163ffffffff1660e01b8152600401602060405180830381865afa15801562000598573d6000803e3d6000fd5b505050506040513d601f19601f82011682018060405250810190620005be919062000b91565b73ffffffffffffffffffffffffffffffffffffffff16036200062957600160008281548110620005f357620005f262000b1d565b5b9060005260206000200160009054906101000a900473ffffffffffffffffffffffffffffffffffffffff16925092505062000668565b6040517f08c379a00000000000000000000000000000000000000000000000000000000081526004016200065d9062000f3d565b60405180910390fd5b505b915091565b600081836200067d919062000f5f565b905092915050565b6000818362000695919062000fc0565b905092915050565b611049806200101e83390190565b6000604051905090565b600080fd5b600080fd5b600073ffffffffffffffffffffffffffffffffffffffff82169050919050565b6000620006ec82620006bf565b9050919050565b620006fe81620006df565b81146200070a57600080fd5b50565b6000813590506200071e81620006f3565b92915050565b6000602082840312156200073d576200073c620006b5565b5b60006200074d848285016200070d565b91505092915050565b6000819050919050565b6000620007816200077b6200077584620006bf565b62000756565b620006bf565b9050919050565b6000620007958262000760565b9050919050565b6000620007a98262000788565b9050919050565b620007bb816200079c565b82525050565b6000602082019050620007d86000830184620007b0565b92915050565b600081519050919050565b600082825260208201905092915050565b6000819050602082019050919050565b62000815816200079c565b82525050565b60006200082983836200080a565b60208301905092915050565b6000602082019050919050565b60006200084f82620007de565b6200085b8185620007e9565b93506200086883620007fa565b8060005b838110156200089f5781516200088388826200081b565b9750620008908362000835565b9250506001810190506200086c565b5085935050505092915050565b60006020820190508181036000830152620008c8818462000842565b905092915050565b600080fd5b600080fd5b6000601f19601f8301169050919050565b7f4e487b7100000000000000000000000000000000000000000000000000000000600052604160045260246000fd5b6200092582620008da565b810181811067ffffffffffffffff82111715620009475762000946620008eb565b5b80604052505050565b60006200095c620006ab565b90506200096a82826200091a565b919050565b600067ffffffffffffffff8211156200098d576200098c620008eb565b5b6200099882620008da565b9050602081019050919050565b82818337600083830152505050565b6000620009cb620009c5846200096f565b62000950565b905082815260208101848484011115620009ea57620009e9620008d5565b5b620009f7848285620009a5565b509392505050565b600082601f83011262000a175762000a16620008d0565b5b813562000a29848260208601620009b4565b91505092915050565b6000819050919050565b62000a478162000a32565b811462000a5357600080fd5b50565b60008135905062000a678162000a3c565b92915050565b6000806000806080858703121562000a8a5762000a89620006b5565b5b600085013567ffffffffffffffff81111562000aab5762000aaa620006ba565b5b62000ab987828801620009ff565b945050602085013567ffffffffffffffff81111562000add5762000adc620006ba565b5b62000aeb87828801620009ff565b935050604062000afe8782880162000a56565b925050606062000b118782880162000a56565b91505092959194509250565b7f4e487b7100000000000000000000000000000000000000000000000000000000600052603260045260246000fd5b600062000b5982620006bf565b9050919050565b62000b6b8162000b4c565b811462000b7757600080fd5b50565b60008151905062000b8b8162000b60565b92915050565b60006020828403121562000baa5762000ba9620006b5565b5b600062000bba8482850162000b7a565b91505092915050565b7f4e487b7100000000000000000000000000000000000000000000000000000000600052601160045260246000fd5b600062000bff8262000a32565b91507fffffffffffffffffffffffffffffffffffffffffffffffffffffffffffffffff820362000c345762000c3362000bc3565b5b600182019050919050565b600082825260208201905092915050565b7f50726f6a656374206e6f7420666f756e64202121000000000000000000000000600082015250565b600062000c8860148362000c3f565b915062000c958262000c50565b602082019050919050565b6000602082019050818103600083015262000cbb8162000c79565b9050919050565b62000ccd8162000b4c565b82525050565b600081519050919050565b60005b8381101562000cfe57808201518184015260208101905062000ce1565b8381111562000d0e576000848401525b50505050565b600062000d218262000cd3565b62000d2d818562000c3f565b935062000d3f81856020860162000cde565b62000d4a81620008da565b840191505092915050565b62000d608162000a32565b82525050565b600060a08201905062000d7d600083018862000cc2565b818103602083015262000d91818762000d14565b9050818103604083015262000da7818662000d14565b905062000db8606083018562000d55565b62000dc7608083018462000d55565b9695505050505050565b62000ddc81620006df565b82525050565b7f4e487b7100000000000000000000000000000000000000000000000000000000600052602160045260246000fd5b6003811062000e255762000e2462000de2565b5b50565b600081905062000e388262000e11565b919050565b600062000e4a8262000e28565b9050919050565b62000e5c8162000e3d565b82525050565b600060e08201905062000e79600083018a62000dd1565b62000e88602083018962000dd1565b818103604083015262000e9c818862000d14565b9050818103606083015262000eb2818762000d14565b905062000ec3608083018662000d55565b62000ed260a083018562000d55565b62000ee160c083018462000e51565b98975050505050505050565b7f4e6f7420666f756e640000000000000000000000000000000000000000000000600082015250565b600062000f2560098362000c3f565b915062000f328262000eed565b602082019050919050565b6000602082019050818103600083015262000f588162000f16565b9050919050565b600062000f6c8262000a32565b915062000f798362000a32565b9250817fffffffffffffffffffffffffffffffffffffffffffffffffffffffffffffffff048311821515161562000fb55762000fb462000bc3565b5b828202905092915050565b600062000fcd8262000a32565b915062000fda8362000a32565b9250827fffffffffffffffffffffffffffffffffffffffffffffffffffffffffffffffff0382111562001012576200101162000bc3565b5b82820190509291505056fe60806040523480156200001157600080fd5b5060405162001049380380620010498339818101604052810190620000379190620003b7565b846000806101000a81548173ffffffffffffffffffffffffffffffffffffffff021916908373ffffffffffffffffffffffffffffffffffffffff16021790555083600190805190602001906200008f929190620000ca565b508260029080519060200190620000a8929190620000ca565b50816003819055508060068190555060006004819055505050505050620004e1565b828054620000d890620004ac565b90600052602060002090601f016020900481019282620000fc576000855562000148565b82601f106200011757805160ff191683800117855562000148565b8280016001018555821562000148579182015b82811115620001475782518255916020019190600101906200012a565b5b5090506200015791906200015b565b5090565b5b80821115620001765760008160009055506001016200015c565b5090565b6000604051905090565b600080fd5b600080fd5b600073ffffffffffffffffffffffffffffffffffffffff82169050919050565b6000620001bb826200018e565b9050919050565b620001cd81620001ae565b8114620001d957600080fd5b50565b600081519050620001ed81620001c2565b92915050565b600080fd5b600080fd5b6000601f19601f8301169050919050565b7f4e487b7100000000000000000000000000000000000000000000000000000000600052604160045260246000fd5b6200024882620001fd565b810181811067ffffffffffffffff821117156200026a57620002696200020e565b5b80604052505050565b60006200027f6200017a565b90506200028d82826200023d565b919050565b600067ffffffffffffffff821115620002b057620002af6200020e565b5b620002bb82620001fd565b9050602081019050919050565b60005b83811015620002e8578082015181840152602081019050620002cb565b83811115620002f8576000848401525b50505050565b6000620003156200030f8462000292565b62000273565b905082815260208101848484011115620003345762000333620001f8565b5b62000341848285620002c8565b509392505050565b600082601f830112620003615762000360620001f3565b5b815162000373848260208601620002fe565b91505092915050565b6000819050919050565b62000391816200037c565b81146200039d57600080fd5b50565b600081519050620003b18162000386565b92915050565b600080600080600060a08688031215620003d657620003d562000184565b5b6000620003e688828901620001dc565b955050602086015167ffffffffffffffff8111156200040a576200040962000189565b5b620004188882890162000349565b945050604086015167ffffffffffffffff8111156200043c576200043b62000189565b5b6200044a8882890162000349565b93505060606200045d88828901620003a0565b92505060806200047088828901620003a0565b9150509295509295909350565b7f4e487b7100000000000000000000000000000000000000000000000000000000600052602260045260246000fd5b60006002820490506001821680620004c557607f821691505b602082108103620004db57620004da6200047d565b5b50919050565b610b5880620004f16000396000f3fe60806040526004361061004a5760003560e01c8063a541a2a21461004f578063a8b93c8d1461007a578063c2052403146100a3578063d7bb99ba146100ba578063f020cd19146100c4575b600080fd5b34801561005b57600080fd5b506100646100ef565b60405161007191906105ac565b60405180910390f35b34801561008657600080fd5b506100a1600480360381019061009c9190610721565b610113565b005b3480156100af57600080fd5b506100b861012d565b005b6100c2610212565b005b3480156100d057600080fd5b506100d96103a7565b6040516100e691906107f2565b60405180910390f35b60008054906101000a900473ffffffffffffffffffffffffffffffffffffffff1681565b80600190805190602001906101299291906104c8565b5050565b600280600281111561014257610141610814565b5b600560009054906101000a900460ff16600281111561016457610163610814565b5b1461016e57600080fd5b60008054906101000a900473ffffffffffffffffffffffffffffffffffffffff1673ffffffffffffffffffffffffffffffffffffffff166108fc6004549081150290604051600060405180830381858888f193505050501580156101d6573d6000803e3d6000fd5b507fda700ea0a4f90d17381707c06ca4125e32c8a65b28e82ff0d1850af50a6d4ccd60016040516102079190610984565b60405180910390a150565b600080600281111561022757610226610814565b5b600560009054906101000a900460ff16600281111561024957610248610814565b5b1461025357600080fd5b60065442111561026257600080fd5b60008054906101000a900473ffffffffffffffffffffffffffffffffffffffff1673ffffffffffffffffffffffffffffffffffffffff163373ffffffffffffffffffffffffffffffffffffffff16036102ba57600080fd5b61030c34600760003373ffffffffffffffffffffffffffffffffffffffff1673ffffffffffffffffffffffffffffffffffffffff1681526020019081526020016000205461043990919063ffffffff16565b600760003373ffffffffffffffffffffffffffffffffffffffff1673ffffffffffffffffffffffffffffffffffffffff168152602001908152602001600020819055503460045461035d91906109f2565b6004819055507f75ae3e7c973a88747144369f710c5999060a6321be0506174d3f5c64bdfc674e3334604051610394929190610a78565b60405180910390a16103a461044f565b50565b6060600180546103b690610872565b80601f01602080910402602001604051908101604052809291908181526020018280546103e290610872565b801561042f5780601f106104045761010080835404028352916020019161042f565b820191906000526020600020905b81548152906001019060200180831161041257829003601f168201915b5050505050905090565b6000818361044791906109f2565b905092915050565b600454600354106104c6577f15ac727d1ca51352f519e3f5899500ead795e56a4a39ceafeea835331346017a600160405161048a9190610aed565b60405180910390a16002600560006101000a81548160ff021916908360028111156104b8576104b7610814565b5b02179055506104c561012d565b5b565b8280546104d490610872565b90600052602060002090601f0160209004810192826104f6576000855561053d565b82601f1061050f57805160ff191683800117855561053d565b8280016001018555821561053d579182015b8281111561053c578251825591602001919060010190610521565b5b50905061054a919061054e565b5090565b5b8082111561056757600081600090555060010161054f565b5090565b600073ffffffffffffffffffffffffffffffffffffffff82169050919050565b60006105968261056b565b9050919050565b6105a68161058b565b82525050565b60006020820190506105c1600083018461059d565b92915050565b6000604051905090565b600080fd5b600080fd5b600080fd5b600080fd5b6000601f19601f8301169050919050565b7f4e487b7100000000000000000000000000000000000000000000000000000000600052604160045260246000fd5b61062e826105e5565b810181811067ffffffffffffffff8211171561064d5761064c6105f6565b5b80604052505050565b60006106606105c7565b905061066c8282610625565b919050565b600067ffffffffffffffff82111561068c5761068b6105f6565b5b610695826105e5565b9050602081019050919050565b82818337600083830152505050565b60006106c46106bf84610671565b610656565b9050828152602081018484840111156106e0576106df6105e0565b5b6106eb8482856106a2565b509392505050565b600082601f830112610708576107076105db565b5b81356107188482602086016106b1565b91505092915050565b600060208284031215610737576107366105d1565b5b600082013567ffffffffffffffff811115610755576107546105d6565b5b610761848285016106f3565b91505092915050565b600081519050919050565b600082825260208201905092915050565b60005b838110156107a4578082015181840152602081019050610789565b838111156107b3576000848401525b50505050565b60006107c48261076a565b6107ce8185610775565b93506107de818560208601610786565b6107e7816105e5565b840191505092915050565b6000602082019050818103600083015261080c81846107b9565b905092915050565b7f4e487b7100000000000000000000000000000000000000000000000000000000600052602160045260246000fd5b7f4e487b7100000000000000000000000000000000000000000000000000000000600052602260045260246000fd5b6000600282049050600182168061088a57607f821691505b60208210810361089d5761089c610843565b5b50919050565b60008190508160005260206000209050919050565b600081546108c581610872565b6108cf8186610775565b945060018216600081146108ea57600181146108fc5761092f565b60ff198316865260208601935061092f565b610905856108a3565b60005b8381101561092757815481890152600182019150602081019050610908565b808801955050505b50505092915050565b7f69732046756e6465640000000000000000000000000000000000000000000000600082015250565b600061096e600983610775565b915061097982610938565b602082019050919050565b6000604082019050818103600083015261099e81846108b8565b905081810360208301526109b181610961565b905092915050565b6000819050919050565b7f4e487b7100000000000000000000000000000000000000000000000000000000600052601160045260246000fd5b60006109fd826109b9565b9150610a08836109b9565b9250827fffffffffffffffffffffffffffffffffffffffffffffffffffffffffffffffff03821115610a3d57610a3c6109c3565b5b828201905092915050565b6000610a538261056b565b9050919050565b610a6381610a48565b82525050565b610a72816109b9565b82525050565b6000604082019050610a8d6000830185610a5a565b610a9a6020830184610a69565b9392505050565b7f54686520476f616c206973207265616368656400000000000000000000000000600082015250565b6000610ad7601383610775565b9150610ae282610aa1565b602082019050919050565b60006040820190508181036000830152610b0681610aca565b90508181036020830152610b1a81846108b8565b90509291505056fea26469706673582212204619396286d6b086c541400f68eccc5c350600b22a7fa35e8ba459362ef49d6364736f6c634300080d0033a26469706673582212203e75f4fbe43301230dadce8448258a766c3ca66245c2c9c2c761c7b5cdae123b64736f6c634300080d0033",
					"opcodes": "PUSH1 0x80 PUSH1 0x40 MSTORE CALLVALUE DUP1 ISZERO PUSH2 0x10 JUMPI PUSH1 0x0 DUP1 REVERT JUMPDEST POP PUSH2 0x209C DUP1 PUSH2 0x20 PUSH1 0x0 CODECOPY PUSH1 0x0 RETURN INVALID PUSH1 0x80 PUSH1 0x40 MSTORE PUSH1 0x4 CALLDATASIZE LT PUSH3 0x44 JUMPI PUSH1 0x0 CALLDATALOAD PUSH1 0xE0 SHR DUP1 PUSH4 0x4BF28D9E EQ PUSH3 0x49 JUMPI DUP1 PUSH4 0x73E888FD EQ PUSH3 0x8D JUMPI DUP1 PUSH4 0x85B6E28E EQ PUSH3 0xAD JUMPI DUP1 PUSH4 0xA24A2D16 EQ PUSH3 0xDD JUMPI JUMPDEST PUSH1 0x0 DUP1 REVERT JUMPDEST CALLVALUE DUP1 ISZERO PUSH3 0x56 JUMPI PUSH1 0x0 DUP1 REVERT JUMPDEST POP PUSH3 0x75 PUSH1 0x4 DUP1 CALLDATASIZE SUB DUP2 ADD SWAP1 PUSH3 0x6F SWAP2 SWAP1 PUSH3 0x724 JUMP JUMPDEST PUSH3 0x10B JUMP JUMPDEST PUSH1 0x40 MLOAD PUSH3 0x84 SWAP2 SWAP1 PUSH3 0x7C1 JUMP JUMPDEST PUSH1 0x40 MLOAD DUP1 SWAP2 SUB SWAP1 RETURN JUMPDEST PUSH3 0xAB PUSH1 0x4 DUP1 CALLDATASIZE SUB DUP2 ADD SWAP1 PUSH3 0xA5 SWAP2 SWAP1 PUSH3 0x724 JUMP JUMPDEST PUSH3 0x2AB JUMP JUMPDEST STOP JUMPDEST CALLVALUE DUP1 ISZERO PUSH3 0xBA JUMPI PUSH1 0x0 DUP1 REVERT JUMPDEST POP PUSH3 0xC5 PUSH3 0x32C JUMP JUMPDEST PUSH1 0x40 MLOAD PUSH3 0xD4 SWAP2 SWAP1 PUSH3 0x8AC JUMP JUMPDEST PUSH1 0x40 MLOAD DUP1 SWAP2 SUB SWAP1 RETURN JUMPDEST CALLVALUE DUP1 ISZERO PUSH3 0xEA JUMPI PUSH1 0x0 DUP1 REVERT JUMPDEST POP PUSH3 0x109 PUSH1 0x4 DUP1 CALLDATASIZE SUB DUP2 ADD SWAP1 PUSH3 0x103 SWAP2 SWAP1 PUSH3 0xA6D JUMP JUMPDEST PUSH3 0x3BC JUMP JUMPDEST STOP JUMPDEST PUSH1 0x0 DUP1 PUSH1 0x0 SWAP1 POP JUMPDEST PUSH1 0x0 DUP1 SLOAD SWAP1 POP DUP2 LT ISZERO PUSH3 0x268 JUMPI DUP3 PUSH20 0xFFFFFFFFFFFFFFFFFFFFFFFFFFFFFFFFFFFFFFFF AND PUSH1 0x0 DUP3 DUP2 SLOAD DUP2 LT PUSH3 0x14F JUMPI PUSH3 0x14E PUSH3 0xB1D JUMP JUMPDEST JUMPDEST SWAP1 PUSH1 0x0 MSTORE PUSH1 0x20 PUSH1 0x0 KECCAK256 ADD PUSH1 0x0 SWAP1 SLOAD SWAP1 PUSH2 0x100 EXP SWAP1 DIV PUSH20 0xFFFFFFFFFFFFFFFFFFFFFFFFFFFFFFFFFFFFFFFF AND PUSH20 0xFFFFFFFFFFFFFFFFFFFFFFFFFFFFFFFFFFFFFFFF AND PUSH4 0xA541A2A2 PUSH1 0x40 MLOAD DUP2 PUSH4 0xFFFFFFFF AND PUSH1 0xE0 SHL DUP2 MSTORE PUSH1 0x4 ADD PUSH1 0x20 PUSH1 0x40 MLOAD DUP1 DUP4 SUB DUP2 DUP7 GAS STATICCALL ISZERO DUP1 ISZERO PUSH3 0x1C5 JUMPI RETURNDATASIZE PUSH1 0x0 DUP1 RETURNDATACOPY RETURNDATASIZE PUSH1 0x0 REVERT JUMPDEST POP POP POP POP PUSH1 0x40 MLOAD RETURNDATASIZE PUSH1 0x1F NOT PUSH1 0x1F DUP3 ADD AND DUP3 ADD DUP1 PUSH1 0x40 MSTORE POP DUP2 ADD SWAP1 PUSH3 0x1EB SWAP2 SWAP1 PUSH3 0xB91 JUMP JUMPDEST PUSH20 0xFFFFFFFFFFFFFFFFFFFFFFFFFFFFFFFFFFFFFFFF AND SUB PUSH3 0x252 JUMPI PUSH1 0x0 DUP2 DUP2 SLOAD DUP2 LT PUSH3 0x21E JUMPI PUSH3 0x21D PUSH3 0xB1D JUMP JUMPDEST JUMPDEST SWAP1 PUSH1 0x0 MSTORE PUSH1 0x20 PUSH1 0x0 KECCAK256 ADD PUSH1 0x0 SWAP1 SLOAD SWAP1 PUSH2 0x100 EXP SWAP1 DIV PUSH20 0xFFFFFFFFFFFFFFFFFFFFFFFFFFFFFFFFFFFFFFFF AND SWAP2 POP POP PUSH3 0x2A6 JUMP JUMPDEST DUP1 DUP1 PUSH3 0x25F SWAP1 PUSH3 0xBF2 JUMP JUMPDEST SWAP2 POP POP PUSH3 0x113 JUMP JUMPDEST POP PUSH1 0x40 MLOAD PUSH32 0x8C379A000000000000000000000000000000000000000000000000000000000 DUP2 MSTORE PUSH1 0x4 ADD PUSH3 0x29D SWAP1 PUSH3 0xCA0 JUMP JUMPDEST PUSH1 0x40 MLOAD DUP1 SWAP2 SUB SWAP1 REVERT JUMPDEST SWAP2 SWAP1 POP JUMP JUMPDEST PUSH1 0x0 DUP1 PUSH3 0x2B9 DUP4 PUSH3 0x4E2 JUMP JUMPDEST SWAP2 POP SWAP2 POP DUP2 ISZERO PUSH3 0x327 JUMPI DUP1 PUSH20 0xFFFFFFFFFFFFFFFFFFFFFFFFFFFFFFFFFFFFFFFF AND PUSH4 0xD7BB99BA PUSH1 0x40 MLOAD DUP2 PUSH4 0xFFFFFFFF AND PUSH1 0xE0 SHL DUP2 MSTORE PUSH1 0x4 ADD PUSH1 0x0 PUSH1 0x40 MLOAD DUP1 DUP4 SUB DUP2 PUSH1 0x0 DUP8 DUP1 EXTCODESIZE ISZERO DUP1 ISZERO PUSH3 0x30D JUMPI PUSH1 0x0 DUP1 REVERT JUMPDEST POP GAS CALL ISZERO DUP1 ISZERO PUSH3 0x322 JUMPI RETURNDATASIZE PUSH1 0x0 DUP1 RETURNDATACOPY RETURNDATASIZE PUSH1 0x0 REVERT JUMPDEST POP POP POP POP JUMPDEST POP POP POP JUMP JUMPDEST PUSH1 0x60 PUSH1 0x0 DUP1 SLOAD DUP1 PUSH1 0x20 MUL PUSH1 0x20 ADD PUSH1 0x40 MLOAD SWAP1 DUP2 ADD PUSH1 0x40 MSTORE DUP1 SWAP3 SWAP2 SWAP1 DUP2 DUP2 MSTORE PUSH1 0x20 ADD DUP3 DUP1 SLOAD DUP1 ISZERO PUSH3 0x3B2 JUMPI PUSH1 0x20 MUL DUP3 ADD SWAP2 SWAP1 PUSH1 0x0 MSTORE PUSH1 0x20 PUSH1 0x0 KECCAK256 SWAP1 JUMPDEST DUP2 PUSH1 0x0 SWAP1 SLOAD SWAP1 PUSH2 0x100 EXP SWAP1 DIV PUSH20 0xFFFFFFFFFFFFFFFFFFFFFFFFFFFFFFFFFFFFFFFF AND PUSH20 0xFFFFFFFFFFFFFFFFFFFFFFFFFFFFFFFFFFFFFFFF AND DUP2 MSTORE PUSH1 0x20 ADD SWAP1 PUSH1 0x1 ADD SWAP1 DUP1 DUP4 GT PUSH3 0x367 JUMPI JUMPDEST POP POP POP POP POP SWAP1 POP SWAP1 JUMP JUMPDEST PUSH1 0x0 PUSH3 0x3EA PUSH3 0x3DA PUSH3 0x15180 DUP5 PUSH3 0x66D SWAP1 SWAP2 SWAP1 PUSH4 0xFFFFFFFF AND JUMP JUMPDEST TIMESTAMP PUSH3 0x685 SWAP1 SWAP2 SWAP1 PUSH4 0xFFFFFFFF AND JUMP JUMPDEST SWAP1 POP PUSH1 0x0 CALLER DUP7 DUP7 DUP7 DUP6 PUSH1 0x40 MLOAD PUSH3 0x401 SWAP1 PUSH3 0x69D JUMP JUMPDEST PUSH3 0x411 SWAP6 SWAP5 SWAP4 SWAP3 SWAP2 SWAP1 PUSH3 0xD66 JUMP JUMPDEST PUSH1 0x40 MLOAD DUP1 SWAP2 SUB SWAP1 PUSH1 0x0 CREATE DUP1 ISZERO DUP1 ISZERO PUSH3 0x42E JUMPI RETURNDATASIZE PUSH1 0x0 DUP1 RETURNDATACOPY RETURNDATASIZE PUSH1 0x0 REVERT JUMPDEST POP SWAP1 POP PUSH1 0x0 DUP2 SWAP1 DUP1 PUSH1 0x1 DUP2 SLOAD ADD DUP1 DUP3 SSTORE DUP1 SWAP2 POP POP PUSH1 0x1 SWAP1 SUB SWAP1 PUSH1 0x0 MSTORE PUSH1 0x20 PUSH1 0x0 KECCAK256 ADD PUSH1 0x0 SWAP1 SWAP2 SWAP1 SWAP2 SWAP1 SWAP2 PUSH2 0x100 EXP DUP2 SLOAD DUP2 PUSH20 0xFFFFFFFFFFFFFFFFFFFFFFFFFFFFFFFFFFFFFFFF MUL NOT AND SWAP1 DUP4 PUSH20 0xFFFFFFFFFFFFFFFFFFFFFFFFFFFFFFFFFFFFFFFF AND MUL OR SWAP1 SSTORE POP PUSH32 0xC5E9958C1E6508265757E920137857E1E705C02EB9C0E6B2A02101AF19D44880 DUP2 CALLER DUP9 DUP9 DUP7 DUP10 PUSH1 0x0 PUSH1 0x40 MLOAD PUSH3 0x4D2 SWAP8 SWAP7 SWAP6 SWAP5 SWAP4 SWAP3 SWAP2 SWAP1 PUSH3 0xE62 JUMP JUMPDEST PUSH1 0x40 MLOAD DUP1 SWAP2 SUB SWAP1 LOG1 POP POP POP POP POP POP JUMP JUMPDEST PUSH1 0x0 DUP1 PUSH1 0x0 DUP1 DUP1 SLOAD SWAP1 POP DUP2 LT ISZERO PUSH3 0x666 JUMPI DUP4 PUSH20 0xFFFFFFFFFFFFFFFFFFFFFFFFFFFFFFFFFFFFFFFF AND PUSH1 0x0 DUP3 DUP2 SLOAD DUP2 LT PUSH3 0x522 JUMPI PUSH3 0x521 PUSH3 0xB1D JUMP JUMPDEST JUMPDEST SWAP1 PUSH1 0x0 MSTORE PUSH1 0x20 PUSH1 0x0 KECCAK256 ADD PUSH1 0x0 SWAP1 SLOAD SWAP1 PUSH2 0x100 EXP SWAP1 DIV PUSH20 0xFFFFFFFFFFFFFFFFFFFFFFFFFFFFFFFFFFFFFFFF AND PUSH20 0xFFFFFFFFFFFFFFFFFFFFFFFFFFFFFFFFFFFFFFFF AND PUSH4 0xA541A2A2 PUSH1 0x40 MLOAD DUP2 PUSH4 0xFFFFFFFF AND PUSH1 0xE0 SHL DUP2 MSTORE PUSH1 0x4 ADD PUSH1 0x20 PUSH1 0x40 MLOAD DUP1 DUP4 SUB DUP2 DUP7 GAS STATICCALL ISZERO DUP1 ISZERO PUSH3 0x598 JUMPI RETURNDATASIZE PUSH1 0x0 DUP1 RETURNDATACOPY RETURNDATASIZE PUSH1 0x0 REVERT JUMPDEST POP POP POP POP PUSH1 0x40 MLOAD RETURNDATASIZE PUSH1 0x1F NOT PUSH1 0x1F DUP3 ADD AND DUP3 ADD DUP1 PUSH1 0x40 MSTORE POP DUP2 ADD SWAP1 PUSH3 0x5BE SWAP2 SWAP1 PUSH3 0xB91 JUMP JUMPDEST PUSH20 0xFFFFFFFFFFFFFFFFFFFFFFFFFFFFFFFFFFFFFFFF AND SUB PUSH3 0x629 JUMPI PUSH1 0x1 PUSH1 0x0 DUP3 DUP2 SLOAD DUP2 LT PUSH3 0x5F3 JUMPI PUSH3 0x5F2 PUSH3 0xB1D JUMP JUMPDEST JUMPDEST SWAP1 PUSH1 0x0 MSTORE PUSH1 0x20 PUSH1 0x0 KECCAK256 ADD PUSH1 0x0 SWAP1 SLOAD SWAP1 PUSH2 0x100 EXP SWAP1 DIV PUSH20 0xFFFFFFFFFFFFFFFFFFFFFFFFFFFFFFFFFFFFFFFF AND SWAP3 POP SWAP3 POP POP PUSH3 0x668 JUMP JUMPDEST PUSH1 0x40 MLOAD PUSH32 0x8C379A000000000000000000000000000000000000000000000000000000000 DUP2 MSTORE PUSH1 0x4 ADD PUSH3 0x65D SWAP1 PUSH3 0xF3D JUMP JUMPDEST PUSH1 0x40 MLOAD DUP1 SWAP2 SUB SWAP1 REVERT JUMPDEST POP JUMPDEST SWAP2 POP SWAP2 JUMP JUMPDEST PUSH1 0x0 DUP2 DUP4 PUSH3 0x67D SWAP2 SWAP1 PUSH3 0xF5F JUMP JUMPDEST SWAP1 POP SWAP3 SWAP2 POP POP JUMP JUMPDEST PUSH1 0x0 DUP2 DUP4 PUSH3 0x695 SWAP2 SWAP1 PUSH3 0xFC0 JUMP JUMPDEST SWAP1 POP SWAP3 SWAP2 POP POP JUMP JUMPDEST PUSH2 0x1049 DUP1 PUSH3 0x101E DUP4 CODECOPY ADD SWAP1 JUMP JUMPDEST PUSH1 0x0 PUSH1 0x40 MLOAD SWAP1 POP SWAP1 JUMP JUMPDEST PUSH1 0x0 DUP1 REVERT JUMPDEST PUSH1 0x0 DUP1 REVERT JUMPDEST PUSH1 0x0 PUSH20 0xFFFFFFFFFFFFFFFFFFFFFFFFFFFFFFFFFFFFFFFF DUP3 AND SWAP1 POP SWAP2 SWAP1 POP JUMP JUMPDEST PUSH1 0x0 PUSH3 0x6EC DUP3 PUSH3 0x6BF JUMP JUMPDEST SWAP1 POP SWAP2 SWAP1 POP JUMP JUMPDEST PUSH3 0x6FE DUP2 PUSH3 0x6DF JUMP JUMPDEST DUP2 EQ PUSH3 0x70A JUMPI PUSH1 0x0 DUP1 REVERT JUMPDEST POP JUMP JUMPDEST PUSH1 0x0 DUP2 CALLDATALOAD SWAP1 POP PUSH3 0x71E DUP2 PUSH3 0x6F3 JUMP JUMPDEST SWAP3 SWAP2 POP POP JUMP JUMPDEST PUSH1 0x0 PUSH1 0x20 DUP3 DUP5 SUB SLT ISZERO PUSH3 0x73D JUMPI PUSH3 0x73C PUSH3 0x6B5 JUMP JUMPDEST JUMPDEST PUSH1 0x0 PUSH3 0x74D DUP5 DUP3 DUP6 ADD PUSH3 0x70D JUMP JUMPDEST SWAP2 POP POP SWAP3 SWAP2 POP POP JUMP JUMPDEST PUSH1 0x0 DUP2 SWAP1 POP SWAP2 SWAP1 POP JUMP JUMPDEST PUSH1 0x0 PUSH3 0x781 PUSH3 0x77B PUSH3 0x775 DUP5 PUSH3 0x6BF JUMP JUMPDEST PUSH3 0x756 JUMP JUMPDEST PUSH3 0x6BF JUMP JUMPDEST SWAP1 POP SWAP2 SWAP1 POP JUMP JUMPDEST PUSH1 0x0 PUSH3 0x795 DUP3 PUSH3 0x760 JUMP JUMPDEST SWAP1 POP SWAP2 SWAP1 POP JUMP JUMPDEST PUSH1 0x0 PUSH3 0x7A9 DUP3 PUSH3 0x788 JUMP JUMPDEST SWAP1 POP SWAP2 SWAP1 POP JUMP JUMPDEST PUSH3 0x7BB DUP2 PUSH3 0x79C JUMP JUMPDEST DUP3 MSTORE POP POP JUMP JUMPDEST PUSH1 0x0 PUSH1 0x20 DUP3 ADD SWAP1 POP PUSH3 0x7D8 PUSH1 0x0 DUP4 ADD DUP5 PUSH3 0x7B0 JUMP JUMPDEST SWAP3 SWAP2 POP POP JUMP JUMPDEST PUSH1 0x0 DUP2 MLOAD SWAP1 POP SWAP2 SWAP1 POP JUMP JUMPDEST PUSH1 0x0 DUP3 DUP3 MSTORE PUSH1 0x20 DUP3 ADD SWAP1 POP SWAP3 SWAP2 POP POP JUMP JUMPDEST PUSH1 0x0 DUP2 SWAP1 POP PUSH1 0x20 DUP3 ADD SWAP1 POP SWAP2 SWAP1 POP JUMP JUMPDEST PUSH3 0x815 DUP2 PUSH3 0x79C JUMP JUMPDEST DUP3 MSTORE POP POP JUMP JUMPDEST PUSH1 0x0 PUSH3 0x829 DUP4 DUP4 PUSH3 0x80A JUMP JUMPDEST PUSH1 0x20 DUP4 ADD SWAP1 POP SWAP3 SWAP2 POP POP JUMP JUMPDEST PUSH1 0x0 PUSH1 0x20 DUP3 ADD SWAP1 POP SWAP2 SWAP1 POP JUMP JUMPDEST PUSH1 0x0 PUSH3 0x84F DUP3 PUSH3 0x7DE JUMP JUMPDEST PUSH3 0x85B DUP2 DUP6 PUSH3 0x7E9 JUMP JUMPDEST SWAP4 POP PUSH3 0x868 DUP4 PUSH3 0x7FA JUMP JUMPDEST DUP1 PUSH1 0x0 JUMPDEST DUP4 DUP2 LT ISZERO PUSH3 0x89F JUMPI DUP2 MLOAD PUSH3 0x883 DUP9 DUP3 PUSH3 0x81B JUMP JUMPDEST SWAP8 POP PUSH3 0x890 DUP4 PUSH3 0x835 JUMP JUMPDEST SWAP3 POP POP PUSH1 0x1 DUP2 ADD SWAP1 POP PUSH3 0x86C JUMP JUMPDEST POP DUP6 SWAP4 POP POP POP POP SWAP3 SWAP2 POP POP JUMP JUMPDEST PUSH1 0x0 PUSH1 0x20 DUP3 ADD SWAP1 POP DUP2 DUP2 SUB PUSH1 0x0 DUP4 ADD MSTORE PUSH3 0x8C8 DUP2 DUP5 PUSH3 0x842 JUMP JUMPDEST SWAP1 POP SWAP3 SWAP2 POP POP JUMP JUMPDEST PUSH1 0x0 DUP1 REVERT JUMPDEST PUSH1 0x0 DUP1 REVERT JUMPDEST PUSH1 0x0 PUSH1 0x1F NOT PUSH1 0x1F DUP4 ADD AND SWAP1 POP SWAP2 SWAP1 POP JUMP JUMPDEST PUSH32 0x4E487B7100000000000000000000000000000000000000000000000000000000 PUSH1 0x0 MSTORE PUSH1 0x41 PUSH1 0x4 MSTORE PUSH1 0x24 PUSH1 0x0 REVERT JUMPDEST PUSH3 0x925 DUP3 PUSH3 0x8DA JUMP JUMPDEST DUP2 ADD DUP2 DUP2 LT PUSH8 0xFFFFFFFFFFFFFFFF DUP3 GT OR ISZERO PUSH3 0x947 JUMPI PUSH3 0x946 PUSH3 0x8EB JUMP JUMPDEST JUMPDEST DUP1 PUSH1 0x40 MSTORE POP POP POP JUMP JUMPDEST PUSH1 0x0 PUSH3 0x95C PUSH3 0x6AB JUMP JUMPDEST SWAP1 POP PUSH3 0x96A DUP3 DUP3 PUSH3 0x91A JUMP JUMPDEST SWAP2 SWAP1 POP JUMP JUMPDEST PUSH1 0x0 PUSH8 0xFFFFFFFFFFFFFFFF DUP3 GT ISZERO PUSH3 0x98D JUMPI PUSH3 0x98C PUSH3 0x8EB JUMP JUMPDEST JUMPDEST PUSH3 0x998 DUP3 PUSH3 0x8DA JUMP JUMPDEST SWAP1 POP PUSH1 0x20 DUP2 ADD SWAP1 POP SWAP2 SWAP1 POP JUMP JUMPDEST DUP3 DUP2 DUP4 CALLDATACOPY PUSH1 0x0 DUP4 DUP4 ADD MSTORE POP POP POP JUMP JUMPDEST PUSH1 0x0 PUSH3 0x9CB PUSH3 0x9C5 DUP5 PUSH3 0x96F JUMP JUMPDEST PUSH3 0x950 JUMP JUMPDEST SWAP1 POP DUP3 DUP2 MSTORE PUSH1 0x20 DUP2 ADD DUP5 DUP5 DUP5 ADD GT ISZERO PUSH3 0x9EA JUMPI PUSH3 0x9E9 PUSH3 0x8D5 JUMP JUMPDEST JUMPDEST PUSH3 0x9F7 DUP5 DUP3 DUP6 PUSH3 0x9A5 JUMP JUMPDEST POP SWAP4 SWAP3 POP POP POP JUMP JUMPDEST PUSH1 0x0 DUP3 PUSH1 0x1F DUP4 ADD SLT PUSH3 0xA17 JUMPI PUSH3 0xA16 PUSH3 0x8D0 JUMP JUMPDEST JUMPDEST DUP2 CALLDATALOAD PUSH3 0xA29 DUP5 DUP3 PUSH1 0x20 DUP7 ADD PUSH3 0x9B4 JUMP JUMPDEST SWAP2 POP POP SWAP3 SWAP2 POP POP JUMP JUMPDEST PUSH1 0x0 DUP2 SWAP1 POP SWAP2 SWAP1 POP JUMP JUMPDEST PUSH3 0xA47 DUP2 PUSH3 0xA32 JUMP JUMPDEST DUP2 EQ PUSH3 0xA53 JUMPI PUSH1 0x0 DUP1 REVERT JUMPDEST POP JUMP JUMPDEST PUSH1 0x0 DUP2 CALLDATALOAD SWAP1 POP PUSH3 0xA67 DUP2 PUSH3 0xA3C JUMP JUMPDEST SWAP3 SWAP2 POP POP JUMP JUMPDEST PUSH1 0x0 DUP1 PUSH1 0x0 DUP1 PUSH1 0x80 DUP6 DUP8 SUB SLT ISZERO PUSH3 0xA8A JUMPI PUSH3 0xA89 PUSH3 0x6B5 JUMP JUMPDEST JUMPDEST PUSH1 0x0 DUP6 ADD CALLDATALOAD PUSH8 0xFFFFFFFFFFFFFFFF DUP2 GT ISZERO PUSH3 0xAAB JUMPI PUSH3 0xAAA PUSH3 0x6BA JUMP JUMPDEST JUMPDEST PUSH3 0xAB9 DUP8 DUP3 DUP9 ADD PUSH3 0x9FF JUMP JUMPDEST SWAP5 POP POP PUSH1 0x20 DUP6 ADD CALLDATALOAD PUSH8 0xFFFFFFFFFFFFFFFF DUP2 GT ISZERO PUSH3 0xADD JUMPI PUSH3 0xADC PUSH3 0x6BA JUMP JUMPDEST JUMPDEST PUSH3 0xAEB DUP8 DUP3 DUP9 ADD PUSH3 0x9FF JUMP JUMPDEST SWAP4 POP POP PUSH1 0x40 PUSH3 0xAFE DUP8 DUP3 DUP9 ADD PUSH3 0xA56 JUMP JUMPDEST SWAP3 POP POP PUSH1 0x60 PUSH3 0xB11 DUP8 DUP3 DUP9 ADD PUSH3 0xA56 JUMP JUMPDEST SWAP2 POP POP SWAP3 SWAP6 SWAP2 SWAP5 POP SWAP3 POP JUMP JUMPDEST PUSH32 0x4E487B7100000000000000000000000000000000000000000000000000000000 PUSH1 0x0 MSTORE PUSH1 0x32 PUSH1 0x4 MSTORE PUSH1 0x24 PUSH1 0x0 REVERT JUMPDEST PUSH1 0x0 PUSH3 0xB59 DUP3 PUSH3 0x6BF JUMP JUMPDEST SWAP1 POP SWAP2 SWAP1 POP JUMP JUMPDEST PUSH3 0xB6B DUP2 PUSH3 0xB4C JUMP JUMPDEST DUP2 EQ PUSH3 0xB77 JUMPI PUSH1 0x0 DUP1 REVERT JUMPDEST POP JUMP JUMPDEST PUSH1 0x0 DUP2 MLOAD SWAP1 POP PUSH3 0xB8B DUP2 PUSH3 0xB60 JUMP JUMPDEST SWAP3 SWAP2 POP POP JUMP JUMPDEST PUSH1 0x0 PUSH1 0x20 DUP3 DUP5 SUB SLT ISZERO PUSH3 0xBAA JUMPI PUSH3 0xBA9 PUSH3 0x6B5 JUMP JUMPDEST JUMPDEST PUSH1 0x0 PUSH3 0xBBA DUP5 DUP3 DUP6 ADD PUSH3 0xB7A JUMP JUMPDEST SWAP2 POP POP SWAP3 SWAP2 POP POP JUMP JUMPDEST PUSH32 0x4E487B7100000000000000000000000000000000000000000000000000000000 PUSH1 0x0 MSTORE PUSH1 0x11 PUSH1 0x4 MSTORE PUSH1 0x24 PUSH1 0x0 REVERT JUMPDEST PUSH1 0x0 PUSH3 0xBFF DUP3 PUSH3 0xA32 JUMP JUMPDEST SWAP2 POP PUSH32 0xFFFFFFFFFFFFFFFFFFFFFFFFFFFFFFFFFFFFFFFFFFFFFFFFFFFFFFFFFFFFFFFF DUP3 SUB PUSH3 0xC34 JUMPI PUSH3 0xC33 PUSH3 0xBC3 JUMP JUMPDEST JUMPDEST PUSH1 0x1 DUP3 ADD SWAP1 POP SWAP2 SWAP1 POP JUMP JUMPDEST PUSH1 0x0 DUP3 DUP3 MSTORE PUSH1 0x20 DUP3 ADD SWAP1 POP SWAP3 SWAP2 POP POP JUMP JUMPDEST PUSH32 0x50726F6A656374206E6F7420666F756E64202121000000000000000000000000 PUSH1 0x0 DUP3 ADD MSTORE POP JUMP JUMPDEST PUSH1 0x0 PUSH3 0xC88 PUSH1 0x14 DUP4 PUSH3 0xC3F JUMP JUMPDEST SWAP2 POP PUSH3 0xC95 DUP3 PUSH3 0xC50 JUMP JUMPDEST PUSH1 0x20 DUP3 ADD SWAP1 POP SWAP2 SWAP1 POP JUMP JUMPDEST PUSH1 0x0 PUSH1 0x20 DUP3 ADD SWAP1 POP DUP2 DUP2 SUB PUSH1 0x0 DUP4 ADD MSTORE PUSH3 0xCBB DUP2 PUSH3 0xC79 JUMP JUMPDEST SWAP1 POP SWAP2 SWAP1 POP JUMP JUMPDEST PUSH3 0xCCD DUP2 PUSH3 0xB4C JUMP JUMPDEST DUP3 MSTORE POP POP JUMP JUMPDEST PUSH1 0x0 DUP2 MLOAD SWAP1 POP SWAP2 SWAP1 POP JUMP JUMPDEST PUSH1 0x0 JUMPDEST DUP4 DUP2 LT ISZERO PUSH3 0xCFE JUMPI DUP1 DUP3 ADD MLOAD DUP2 DUP5 ADD MSTORE PUSH1 0x20 DUP2 ADD SWAP1 POP PUSH3 0xCE1 JUMP JUMPDEST DUP4 DUP2 GT ISZERO PUSH3 0xD0E JUMPI PUSH1 0x0 DUP5 DUP5 ADD MSTORE JUMPDEST POP POP POP POP JUMP JUMPDEST PUSH1 0x0 PUSH3 0xD21 DUP3 PUSH3 0xCD3 JUMP JUMPDEST PUSH3 0xD2D DUP2 DUP6 PUSH3 0xC3F JUMP JUMPDEST SWAP4 POP PUSH3 0xD3F DUP2 DUP6 PUSH1 0x20 DUP7 ADD PUSH3 0xCDE JUMP JUMPDEST PUSH3 0xD4A DUP2 PUSH3 0x8DA JUMP JUMPDEST DUP5 ADD SWAP2 POP POP SWAP3 SWAP2 POP POP JUMP JUMPDEST PUSH3 0xD60 DUP2 PUSH3 0xA32 JUMP JUMPDEST DUP3 MSTORE POP POP JUMP JUMPDEST PUSH1 0x0 PUSH1 0xA0 DUP3 ADD SWAP1 POP PUSH3 0xD7D PUSH1 0x0 DUP4 ADD DUP9 PUSH3 0xCC2 JUMP JUMPDEST DUP2 DUP2 SUB PUSH1 0x20 DUP4 ADD MSTORE PUSH3 0xD91 DUP2 DUP8 PUSH3 0xD14 JUMP JUMPDEST SWAP1 POP DUP2 DUP2 SUB PUSH1 0x40 DUP4 ADD MSTORE PUSH3 0xDA7 DUP2 DUP7 PUSH3 0xD14 JUMP JUMPDEST SWAP1 POP PUSH3 0xDB8 PUSH1 0x60 DUP4 ADD DUP6 PUSH3 0xD55 JUMP JUMPDEST PUSH3 0xDC7 PUSH1 0x80 DUP4 ADD DUP5 PUSH3 0xD55 JUMP JUMPDEST SWAP7 SWAP6 POP POP POP POP POP POP JUMP JUMPDEST PUSH3 0xDDC DUP2 PUSH3 0x6DF JUMP JUMPDEST DUP3 MSTORE POP POP JUMP JUMPDEST PUSH32 0x4E487B7100000000000000000000000000000000000000000000000000000000 PUSH1 0x0 MSTORE PUSH1 0x21 PUSH1 0x4 MSTORE PUSH1 0x24 PUSH1 0x0 REVERT JUMPDEST PUSH1 0x3 DUP2 LT PUSH3 0xE25 JUMPI PUSH3 0xE24 PUSH3 0xDE2 JUMP JUMPDEST JUMPDEST POP JUMP JUMPDEST PUSH1 0x0 DUP2 SWAP1 POP PUSH3 0xE38 DUP3 PUSH3 0xE11 JUMP JUMPDEST SWAP2 SWAP1 POP JUMP JUMPDEST PUSH1 0x0 PUSH3 0xE4A DUP3 PUSH3 0xE28 JUMP JUMPDEST SWAP1 POP SWAP2 SWAP1 POP JUMP JUMPDEST PUSH3 0xE5C DUP2 PUSH3 0xE3D JUMP JUMPDEST DUP3 MSTORE POP POP JUMP JUMPDEST PUSH1 0x0 PUSH1 0xE0 DUP3 ADD SWAP1 POP PUSH3 0xE79 PUSH1 0x0 DUP4 ADD DUP11 PUSH3 0xDD1 JUMP JUMPDEST PUSH3 0xE88 PUSH1 0x20 DUP4 ADD DUP10 PUSH3 0xDD1 JUMP JUMPDEST DUP2 DUP2 SUB PUSH1 0x40 DUP4 ADD MSTORE PUSH3 0xE9C DUP2 DUP9 PUSH3 0xD14 JUMP JUMPDEST SWAP1 POP DUP2 DUP2 SUB PUSH1 0x60 DUP4 ADD MSTORE PUSH3 0xEB2 DUP2 DUP8 PUSH3 0xD14 JUMP JUMPDEST SWAP1 POP PUSH3 0xEC3 PUSH1 0x80 DUP4 ADD DUP7 PUSH3 0xD55 JUMP JUMPDEST PUSH3 0xED2 PUSH1 0xA0 DUP4 ADD DUP6 PUSH3 0xD55 JUMP JUMPDEST PUSH3 0xEE1 PUSH1 0xC0 DUP4 ADD DUP5 PUSH3 0xE51 JUMP JUMPDEST SWAP9 SWAP8 POP POP POP POP POP POP POP POP JUMP JUMPDEST PUSH32 0x4E6F7420666F756E640000000000000000000000000000000000000000000000 PUSH1 0x0 DUP3 ADD MSTORE POP JUMP JUMPDEST PUSH1 0x0 PUSH3 0xF25 PUSH1 0x9 DUP4 PUSH3 0xC3F JUMP JUMPDEST SWAP2 POP PUSH3 0xF32 DUP3 PUSH3 0xEED JUMP JUMPDEST PUSH1 0x20 DUP3 ADD SWAP1 POP SWAP2 SWAP1 POP JUMP JUMPDEST PUSH1 0x0 PUSH1 0x20 DUP3 ADD SWAP1 POP DUP2 DUP2 SUB PUSH1 0x0 DUP4 ADD MSTORE PUSH3 0xF58 DUP2 PUSH3 0xF16 JUMP JUMPDEST SWAP1 POP SWAP2 SWAP1 POP JUMP JUMPDEST PUSH1 0x0 PUSH3 0xF6C DUP3 PUSH3 0xA32 JUMP JUMPDEST SWAP2 POP PUSH3 0xF79 DUP4 PUSH3 0xA32 JUMP JUMPDEST SWAP3 POP DUP2 PUSH32 0xFFFFFFFFFFFFFFFFFFFFFFFFFFFFFFFFFFFFFFFFFFFFFFFFFFFFFFFFFFFFFFFF DIV DUP4 GT DUP3 ISZERO ISZERO AND ISZERO PUSH3 0xFB5 JUMPI PUSH3 0xFB4 PUSH3 0xBC3 JUMP JUMPDEST JUMPDEST DUP3 DUP3 MUL SWAP1 POP SWAP3 SWAP2 POP POP JUMP JUMPDEST PUSH1 0x0 PUSH3 0xFCD DUP3 PUSH3 0xA32 JUMP JUMPDEST SWAP2 POP PUSH3 0xFDA DUP4 PUSH3 0xA32 JUMP JUMPDEST SWAP3 POP DUP3 PUSH32 0xFFFFFFFFFFFFFFFFFFFFFFFFFFFFFFFFFFFFFFFFFFFFFFFFFFFFFFFFFFFFFFFF SUB DUP3 GT ISZERO PUSH3 0x1012 JUMPI PUSH3 0x1011 PUSH3 0xBC3 JUMP JUMPDEST JUMPDEST DUP3 DUP3 ADD SWAP1 POP SWAP3 SWAP2 POP POP JUMP INVALID PUSH1 0x80 PUSH1 0x40 MSTORE CALLVALUE DUP1 ISZERO PUSH3 0x11 JUMPI PUSH1 0x0 DUP1 REVERT JUMPDEST POP PUSH1 0x40 MLOAD PUSH3 0x1049 CODESIZE SUB DUP1 PUSH3 0x1049 DUP4 CODECOPY DUP2 DUP2 ADD PUSH1 0x40 MSTORE DUP2 ADD SWAP1 PUSH3 0x37 SWAP2 SWAP1 PUSH3 0x3B7 JUMP JUMPDEST DUP5 PUSH1 0x0 DUP1 PUSH2 0x100 EXP DUP2 SLOAD DUP2 PUSH20 0xFFFFFFFFFFFFFFFFFFFFFFFFFFFFFFFFFFFFFFFF MUL NOT AND SWAP1 DUP4 PUSH20 0xFFFFFFFFFFFFFFFFFFFFFFFFFFFFFFFFFFFFFFFF AND MUL OR SWAP1 SSTORE POP DUP4 PUSH1 0x1 SWAP1 DUP1 MLOAD SWAP1 PUSH1 0x20 ADD SWAP1 PUSH3 0x8F SWAP3 SWAP2 SWAP1 PUSH3 0xCA JUMP JUMPDEST POP DUP3 PUSH1 0x2 SWAP1 DUP1 MLOAD SWAP1 PUSH1 0x20 ADD SWAP1 PUSH3 0xA8 SWAP3 SWAP2 SWAP1 PUSH3 0xCA JUMP JUMPDEST POP DUP2 PUSH1 0x3 DUP2 SWAP1 SSTORE POP DUP1 PUSH1 0x6 DUP2 SWAP1 SSTORE POP PUSH1 0x0 PUSH1 0x4 DUP2 SWAP1 SSTORE POP POP POP POP POP POP PUSH3 0x4E1 JUMP JUMPDEST DUP3 DUP1 SLOAD PUSH3 0xD8 SWAP1 PUSH3 0x4AC JUMP JUMPDEST SWAP1 PUSH1 0x0 MSTORE PUSH1 0x20 PUSH1 0x0 KECCAK256 SWAP1 PUSH1 0x1F ADD PUSH1 0x20 SWAP1 DIV DUP2 ADD SWAP3 DUP3 PUSH3 0xFC JUMPI PUSH1 0x0 DUP6 SSTORE PUSH3 0x148 JUMP JUMPDEST DUP3 PUSH1 0x1F LT PUSH3 0x117 JUMPI DUP1 MLOAD PUSH1 0xFF NOT AND DUP4 DUP1 ADD OR DUP6 SSTORE PUSH3 0x148 JUMP JUMPDEST DUP3 DUP1 ADD PUSH1 0x1 ADD DUP6 SSTORE DUP3 ISZERO PUSH3 0x148 JUMPI SWAP2 DUP3 ADD JUMPDEST DUP3 DUP2 GT ISZERO PUSH3 0x147 JUMPI DUP3 MLOAD DUP3 SSTORE SWAP2 PUSH1 0x20 ADD SWAP2 SWAP1 PUSH1 0x1 ADD SWAP1 PUSH3 0x12A JUMP JUMPDEST JUMPDEST POP SWAP1 POP PUSH3 0x157 SWAP2 SWAP1 PUSH3 0x15B JUMP JUMPDEST POP SWAP1 JUMP JUMPDEST JUMPDEST DUP1 DUP3 GT ISZERO PUSH3 0x176 JUMPI PUSH1 0x0 DUP2 PUSH1 0x0 SWAP1 SSTORE POP PUSH1 0x1 ADD PUSH3 0x15C JUMP JUMPDEST POP SWAP1 JUMP JUMPDEST PUSH1 0x0 PUSH1 0x40 MLOAD SWAP1 POP SWAP1 JUMP JUMPDEST PUSH1 0x0 DUP1 REVERT JUMPDEST PUSH1 0x0 DUP1 REVERT JUMPDEST PUSH1 0x0 PUSH20 0xFFFFFFFFFFFFFFFFFFFFFFFFFFFFFFFFFFFFFFFF DUP3 AND SWAP1 POP SWAP2 SWAP1 POP JUMP JUMPDEST PUSH1 0x0 PUSH3 0x1BB DUP3 PUSH3 0x18E JUMP JUMPDEST SWAP1 POP SWAP2 SWAP1 POP JUMP JUMPDEST PUSH3 0x1CD DUP2 PUSH3 0x1AE JUMP JUMPDEST DUP2 EQ PUSH3 0x1D9 JUMPI PUSH1 0x0 DUP1 REVERT JUMPDEST POP JUMP JUMPDEST PUSH1 0x0 DUP2 MLOAD SWAP1 POP PUSH3 0x1ED DUP2 PUSH3 0x1C2 JUMP JUMPDEST SWAP3 SWAP2 POP POP JUMP JUMPDEST PUSH1 0x0 DUP1 REVERT JUMPDEST PUSH1 0x0 DUP1 REVERT JUMPDEST PUSH1 0x0 PUSH1 0x1F NOT PUSH1 0x1F DUP4 ADD AND SWAP1 POP SWAP2 SWAP1 POP JUMP JUMPDEST PUSH32 0x4E487B7100000000000000000000000000000000000000000000000000000000 PUSH1 0x0 MSTORE PUSH1 0x41 PUSH1 0x4 MSTORE PUSH1 0x24 PUSH1 0x0 REVERT JUMPDEST PUSH3 0x248 DUP3 PUSH3 0x1FD JUMP JUMPDEST DUP2 ADD DUP2 DUP2 LT PUSH8 0xFFFFFFFFFFFFFFFF DUP3 GT OR ISZERO PUSH3 0x26A JUMPI PUSH3 0x269 PUSH3 0x20E JUMP JUMPDEST JUMPDEST DUP1 PUSH1 0x40 MSTORE POP POP POP JUMP JUMPDEST PUSH1 0x0 PUSH3 0x27F PUSH3 0x17A JUMP JUMPDEST SWAP1 POP PUSH3 0x28D DUP3 DUP3 PUSH3 0x23D JUMP JUMPDEST SWAP2 SWAP1 POP JUMP JUMPDEST PUSH1 0x0 PUSH8 0xFFFFFFFFFFFFFFFF DUP3 GT ISZERO PUSH3 0x2B0 JUMPI PUSH3 0x2AF PUSH3 0x20E JUMP JUMPDEST JUMPDEST PUSH3 0x2BB DUP3 PUSH3 0x1FD JUMP JUMPDEST SWAP1 POP PUSH1 0x20 DUP2 ADD SWAP1 POP SWAP2 SWAP1 POP JUMP JUMPDEST PUSH1 0x0 JUMPDEST DUP4 DUP2 LT ISZERO PUSH3 0x2E8 JUMPI DUP1 DUP3 ADD MLOAD DUP2 DUP5 ADD MSTORE PUSH1 0x20 DUP2 ADD SWAP1 POP PUSH3 0x2CB JUMP JUMPDEST DUP4 DUP2 GT ISZERO PUSH3 0x2F8 JUMPI PUSH1 0x0 DUP5 DUP5 ADD MSTORE JUMPDEST POP POP POP POP JUMP JUMPDEST PUSH1 0x0 PUSH3 0x315 PUSH3 0x30F DUP5 PUSH3 0x292 JUMP JUMPDEST PUSH3 0x273 JUMP JUMPDEST SWAP1 POP DUP3 DUP2 MSTORE PUSH1 0x20 DUP2 ADD DUP5 DUP5 DUP5 ADD GT ISZERO PUSH3 0x334 JUMPI PUSH3 0x333 PUSH3 0x1F8 JUMP JUMPDEST JUMPDEST PUSH3 0x341 DUP5 DUP3 DUP6 PUSH3 0x2C8 JUMP JUMPDEST POP SWAP4 SWAP3 POP POP POP JUMP JUMPDEST PUSH1 0x0 DUP3 PUSH1 0x1F DUP4 ADD SLT PUSH3 0x361 JUMPI PUSH3 0x360 PUSH3 0x1F3 JUMP JUMPDEST JUMPDEST DUP2 MLOAD PUSH3 0x373 DUP5 DUP3 PUSH1 0x20 DUP7 ADD PUSH3 0x2FE JUMP JUMPDEST SWAP2 POP POP SWAP3 SWAP2 POP POP JUMP JUMPDEST PUSH1 0x0 DUP2 SWAP1 POP SWAP2 SWAP1 POP JUMP JUMPDEST PUSH3 0x391 DUP2 PUSH3 0x37C JUMP JUMPDEST DUP2 EQ PUSH3 0x39D JUMPI PUSH1 0x0 DUP1 REVERT JUMPDEST POP JUMP JUMPDEST PUSH1 0x0 DUP2 MLOAD SWAP1 POP PUSH3 0x3B1 DUP2 PUSH3 0x386 JUMP JUMPDEST SWAP3 SWAP2 POP POP JUMP JUMPDEST PUSH1 0x0 DUP1 PUSH1 0x0 DUP1 PUSH1 0x0 PUSH1 0xA0 DUP7 DUP9 SUB SLT ISZERO PUSH3 0x3D6 JUMPI PUSH3 0x3D5 PUSH3 0x184 JUMP JUMPDEST JUMPDEST PUSH1 0x0 PUSH3 0x3E6 DUP9 DUP3 DUP10 ADD PUSH3 0x1DC JUMP JUMPDEST SWAP6 POP POP PUSH1 0x20 DUP7 ADD MLOAD PUSH8 0xFFFFFFFFFFFFFFFF DUP2 GT ISZERO PUSH3 0x40A JUMPI PUSH3 0x409 PUSH3 0x189 JUMP JUMPDEST JUMPDEST PUSH3 0x418 DUP9 DUP3 DUP10 ADD PUSH3 0x349 JUMP JUMPDEST SWAP5 POP POP PUSH1 0x40 DUP7 ADD MLOAD PUSH8 0xFFFFFFFFFFFFFFFF DUP2 GT ISZERO PUSH3 0x43C JUMPI PUSH3 0x43B PUSH3 0x189 JUMP JUMPDEST JUMPDEST PUSH3 0x44A DUP9 DUP3 DUP10 ADD PUSH3 0x349 JUMP JUMPDEST SWAP4 POP POP PUSH1 0x60 PUSH3 0x45D DUP9 DUP3 DUP10 ADD PUSH3 0x3A0 JUMP JUMPDEST SWAP3 POP POP PUSH1 0x80 PUSH3 0x470 DUP9 DUP3 DUP10 ADD PUSH3 0x3A0 JUMP JUMPDEST SWAP2 POP POP SWAP3 SWAP6 POP SWAP3 SWAP6 SWAP1 SWAP4 POP JUMP JUMPDEST PUSH32 0x4E487B7100000000000000000000000000000000000000000000000000000000 PUSH1 0x0 MSTORE PUSH1 0x22 PUSH1 0x4 MSTORE PUSH1 0x24 PUSH1 0x0 REVERT JUMPDEST PUSH1 0x0 PUSH1 0x2 DUP3 DIV SWAP1 POP PUSH1 0x1 DUP3 AND DUP1 PUSH3 0x4C5 JUMPI PUSH1 0x7F DUP3 AND SWAP2 POP JUMPDEST PUSH1 0x20 DUP3 LT DUP2 SUB PUSH3 0x4DB JUMPI PUSH3 0x4DA PUSH3 0x47D JUMP JUMPDEST JUMPDEST POP SWAP2 SWAP1 POP JUMP JUMPDEST PUSH2 0xB58 DUP1 PUSH3 0x4F1 PUSH1 0x0 CODECOPY PUSH1 0x0 RETURN INVALID PUSH1 0x80 PUSH1 0x40 MSTORE PUSH1 0x4 CALLDATASIZE LT PUSH2 0x4A JUMPI PUSH1 0x0 CALLDATALOAD PUSH1 0xE0 SHR DUP1 PUSH4 0xA541A2A2 EQ PUSH2 0x4F JUMPI DUP1 PUSH4 0xA8B93C8D EQ PUSH2 0x7A JUMPI DUP1 PUSH4 0xC2052403 EQ PUSH2 0xA3 JUMPI DUP1 PUSH4 0xD7BB99BA EQ PUSH2 0xBA JUMPI DUP1 PUSH4 0xF020CD19 EQ PUSH2 0xC4 JUMPI JUMPDEST PUSH1 0x0 DUP1 REVERT JUMPDEST CALLVALUE DUP1 ISZERO PUSH2 0x5B JUMPI PUSH1 0x0 DUP1 REVERT JUMPDEST POP PUSH2 0x64 PUSH2 0xEF JUMP JUMPDEST PUSH1 0x40 MLOAD PUSH2 0x71 SWAP2 SWAP1 PUSH2 0x5AC JUMP JUMPDEST PUSH1 0x40 MLOAD DUP1 SWAP2 SUB SWAP1 RETURN JUMPDEST CALLVALUE DUP1 ISZERO PUSH2 0x86 JUMPI PUSH1 0x0 DUP1 REVERT JUMPDEST POP PUSH2 0xA1 PUSH1 0x4 DUP1 CALLDATASIZE SUB DUP2 ADD SWAP1 PUSH2 0x9C SWAP2 SWAP1 PUSH2 0x721 JUMP JUMPDEST PUSH2 0x113 JUMP JUMPDEST STOP JUMPDEST CALLVALUE DUP1 ISZERO PUSH2 0xAF JUMPI PUSH1 0x0 DUP1 REVERT JUMPDEST POP PUSH2 0xB8 PUSH2 0x12D JUMP JUMPDEST STOP JUMPDEST PUSH2 0xC2 PUSH2 0x212 JUMP JUMPDEST STOP JUMPDEST CALLVALUE DUP1 ISZERO PUSH2 0xD0 JUMPI PUSH1 0x0 DUP1 REVERT JUMPDEST POP PUSH2 0xD9 PUSH2 0x3A7 JUMP JUMPDEST PUSH1 0x40 MLOAD PUSH2 0xE6 SWAP2 SWAP1 PUSH2 0x7F2 JUMP JUMPDEST PUSH1 0x40 MLOAD DUP1 SWAP2 SUB SWAP1 RETURN JUMPDEST PUSH1 0x0 DUP1 SLOAD SWAP1 PUSH2 0x100 EXP SWAP1 DIV PUSH20 0xFFFFFFFFFFFFFFFFFFFFFFFFFFFFFFFFFFFFFFFF AND DUP2 JUMP JUMPDEST DUP1 PUSH1 0x1 SWAP1 DUP1 MLOAD SWAP1 PUSH1 0x20 ADD SWAP1 PUSH2 0x129 SWAP3 SWAP2 SWAP1 PUSH2 0x4C8 JUMP JUMPDEST POP POP JUMP JUMPDEST PUSH1 0x2 DUP1 PUSH1 0x2 DUP2 GT ISZERO PUSH2 0x142 JUMPI PUSH2 0x141 PUSH2 0x814 JUMP JUMPDEST JUMPDEST PUSH1 0x5 PUSH1 0x0 SWAP1 SLOAD SWAP1 PUSH2 0x100 EXP SWAP1 DIV PUSH1 0xFF AND PUSH1 0x2 DUP2 GT ISZERO PUSH2 0x164 JUMPI PUSH2 0x163 PUSH2 0x814 JUMP JUMPDEST JUMPDEST EQ PUSH2 0x16E JUMPI PUSH1 0x0 DUP1 REVERT JUMPDEST PUSH1 0x0 DUP1 SLOAD SWAP1 PUSH2 0x100 EXP SWAP1 DIV PUSH20 0xFFFFFFFFFFFFFFFFFFFFFFFFFFFFFFFFFFFFFFFF AND PUSH20 0xFFFFFFFFFFFFFFFFFFFFFFFFFFFFFFFFFFFFFFFF AND PUSH2 0x8FC PUSH1 0x4 SLOAD SWAP1 DUP2 ISZERO MUL SWAP1 PUSH1 0x40 MLOAD PUSH1 0x0 PUSH1 0x40 MLOAD DUP1 DUP4 SUB DUP2 DUP6 DUP9 DUP9 CALL SWAP4 POP POP POP POP ISZERO DUP1 ISZERO PUSH2 0x1D6 JUMPI RETURNDATASIZE PUSH1 0x0 DUP1 RETURNDATACOPY RETURNDATASIZE PUSH1 0x0 REVERT JUMPDEST POP PUSH32 0xDA700EA0A4F90D17381707C06CA4125E32C8A65B28E82FF0D1850AF50A6D4CCD PUSH1 0x1 PUSH1 0x40 MLOAD PUSH2 0x207 SWAP2 SWAP1 PUSH2 0x984 JUMP JUMPDEST PUSH1 0x40 MLOAD DUP1 SWAP2 SUB SWAP1 LOG1 POP JUMP JUMPDEST PUSH1 0x0 DUP1 PUSH1 0x2 DUP2 GT ISZERO PUSH2 0x227 JUMPI PUSH2 0x226 PUSH2 0x814 JUMP JUMPDEST JUMPDEST PUSH1 0x5 PUSH1 0x0 SWAP1 SLOAD SWAP1 PUSH2 0x100 EXP SWAP1 DIV PUSH1 0xFF AND PUSH1 0x2 DUP2 GT ISZERO PUSH2 0x249 JUMPI PUSH2 0x248 PUSH2 0x814 JUMP JUMPDEST JUMPDEST EQ PUSH2 0x253 JUMPI PUSH1 0x0 DUP1 REVERT JUMPDEST PUSH1 0x6 SLOAD TIMESTAMP GT ISZERO PUSH2 0x262 JUMPI PUSH1 0x0 DUP1 REVERT JUMPDEST PUSH1 0x0 DUP1 SLOAD SWAP1 PUSH2 0x100 EXP SWAP1 DIV PUSH20 0xFFFFFFFFFFFFFFFFFFFFFFFFFFFFFFFFFFFFFFFF AND PUSH20 0xFFFFFFFFFFFFFFFFFFFFFFFFFFFFFFFFFFFFFFFF AND CALLER PUSH20 0xFFFFFFFFFFFFFFFFFFFFFFFFFFFFFFFFFFFFFFFF AND SUB PUSH2 0x2BA JUMPI PUSH1 0x0 DUP1 REVERT JUMPDEST PUSH2 0x30C CALLVALUE PUSH1 0x7 PUSH1 0x0 CALLER PUSH20 0xFFFFFFFFFFFFFFFFFFFFFFFFFFFFFFFFFFFFFFFF AND PUSH20 0xFFFFFFFFFFFFFFFFFFFFFFFFFFFFFFFFFFFFFFFF AND DUP2 MSTORE PUSH1 0x20 ADD SWAP1 DUP2 MSTORE PUSH1 0x20 ADD PUSH1 0x0 KECCAK256 SLOAD PUSH2 0x439 SWAP1 SWAP2 SWAP1 PUSH4 0xFFFFFFFF AND JUMP JUMPDEST PUSH1 0x7 PUSH1 0x0 CALLER PUSH20 0xFFFFFFFFFFFFFFFFFFFFFFFFFFFFFFFFFFFFFFFF AND PUSH20 0xFFFFFFFFFFFFFFFFFFFFFFFFFFFFFFFFFFFFFFFF AND DUP2 MSTORE PUSH1 0x20 ADD SWAP1 DUP2 MSTORE PUSH1 0x20 ADD PUSH1 0x0 KECCAK256 DUP2 SWAP1 SSTORE POP CALLVALUE PUSH1 0x4 SLOAD PUSH2 0x35D SWAP2 SWAP1 PUSH2 0x9F2 JUMP JUMPDEST PUSH1 0x4 DUP2 SWAP1 SSTORE POP PUSH32 0x75AE3E7C973A88747144369F710C5999060A6321BE0506174D3F5C64BDFC674E CALLER CALLVALUE PUSH1 0x40 MLOAD PUSH2 0x394 SWAP3 SWAP2 SWAP1 PUSH2 0xA78 JUMP JUMPDEST PUSH1 0x40 MLOAD DUP1 SWAP2 SUB SWAP1 LOG1 PUSH2 0x3A4 PUSH2 0x44F JUMP JUMPDEST POP JUMP JUMPDEST PUSH1 0x60 PUSH1 0x1 DUP1 SLOAD PUSH2 0x3B6 SWAP1 PUSH2 0x872 JUMP JUMPDEST DUP1 PUSH1 0x1F ADD PUSH1 0x20 DUP1 SWAP2 DIV MUL PUSH1 0x20 ADD PUSH1 0x40 MLOAD SWAP1 DUP2 ADD PUSH1 0x40 MSTORE DUP1 SWAP3 SWAP2 SWAP1 DUP2 DUP2 MSTORE PUSH1 0x20 ADD DUP3 DUP1 SLOAD PUSH2 0x3E2 SWAP1 PUSH2 0x872 JUMP JUMPDEST DUP1 ISZERO PUSH2 0x42F JUMPI DUP1 PUSH1 0x1F LT PUSH2 0x404 JUMPI PUSH2 0x100 DUP1 DUP4 SLOAD DIV MUL DUP4 MSTORE SWAP2 PUSH1 0x20 ADD SWAP2 PUSH2 0x42F JUMP JUMPDEST DUP3 ADD SWAP2 SWAP1 PUSH1 0x0 MSTORE PUSH1 0x20 PUSH1 0x0 KECCAK256 SWAP1 JUMPDEST DUP2 SLOAD DUP2 MSTORE SWAP1 PUSH1 0x1 ADD SWAP1 PUSH1 0x20 ADD DUP1 DUP4 GT PUSH2 0x412 JUMPI DUP3 SWAP1 SUB PUSH1 0x1F AND DUP3 ADD SWAP2 JUMPDEST POP POP POP POP POP SWAP1 POP SWAP1 JUMP JUMPDEST PUSH1 0x0 DUP2 DUP4 PUSH2 0x447 SWAP2 SWAP1 PUSH2 0x9F2 JUMP JUMPDEST SWAP1 POP SWAP3 SWAP2 POP POP JUMP JUMPDEST PUSH1 0x4 SLOAD PUSH1 0x3 SLOAD LT PUSH2 0x4C6 JUMPI PUSH32 0x15AC727D1CA51352F519E3F5899500EAD795E56A4A39CEAFEEA835331346017A PUSH1 0x1 PUSH1 0x40 MLOAD PUSH2 0x48A SWAP2 SWAP1 PUSH2 0xAED JUMP JUMPDEST PUSH1 0x40 MLOAD DUP1 SWAP2 SUB SWAP1 LOG1 PUSH1 0x2 PUSH1 0x5 PUSH1 0x0 PUSH2 0x100 EXP DUP2 SLOAD DUP2 PUSH1 0xFF MUL NOT AND SWAP1 DUP4 PUSH1 0x2 DUP2 GT ISZERO PUSH2 0x4B8 JUMPI PUSH2 0x4B7 PUSH2 0x814 JUMP JUMPDEST JUMPDEST MUL OR SWAP1 SSTORE POP PUSH2 0x4C5 PUSH2 0x12D JUMP JUMPDEST JUMPDEST JUMP JUMPDEST DUP3 DUP1 SLOAD PUSH2 0x4D4 SWAP1 PUSH2 0x872 JUMP JUMPDEST SWAP1 PUSH1 0x0 MSTORE PUSH1 0x20 PUSH1 0x0 KECCAK256 SWAP1 PUSH1 0x1F ADD PUSH1 0x20 SWAP1 DIV DUP2 ADD SWAP3 DUP3 PUSH2 0x4F6 JUMPI PUSH1 0x0 DUP6 SSTORE PUSH2 0x53D JUMP JUMPDEST DUP3 PUSH1 0x1F LT PUSH2 0x50F JUMPI DUP1 MLOAD PUSH1 0xFF NOT AND DUP4 DUP1 ADD OR DUP6 SSTORE PUSH2 0x53D JUMP JUMPDEST DUP3 DUP1 ADD PUSH1 0x1 ADD DUP6 SSTORE DUP3 ISZERO PUSH2 0x53D JUMPI SWAP2 DUP3 ADD JUMPDEST DUP3 DUP2 GT ISZERO PUSH2 0x53C JUMPI DUP3 MLOAD DUP3 SSTORE SWAP2 PUSH1 0x20 ADD SWAP2 SWAP1 PUSH1 0x1 ADD SWAP1 PUSH2 0x521 JUMP JUMPDEST JUMPDEST POP SWAP1 POP PUSH2 0x54A SWAP2 SWAP1 PUSH2 0x54E JUMP JUMPDEST POP SWAP1 JUMP JUMPDEST JUMPDEST DUP1 DUP3 GT ISZERO PUSH2 0x567 JUMPI PUSH1 0x0 DUP2 PUSH1 0x0 SWAP1 SSTORE POP PUSH1 0x1 ADD PUSH2 0x54F JUMP JUMPDEST POP SWAP1 JUMP JUMPDEST PUSH1 0x0 PUSH20 0xFFFFFFFFFFFFFFFFFFFFFFFFFFFFFFFFFFFFFFFF DUP3 AND SWAP1 POP SWAP2 SWAP1 POP JUMP JUMPDEST PUSH1 0x0 PUSH2 0x596 DUP3 PUSH2 0x56B JUMP JUMPDEST SWAP1 POP SWAP2 SWAP1 POP JUMP JUMPDEST PUSH2 0x5A6 DUP2 PUSH2 0x58B JUMP JUMPDEST DUP3 MSTORE POP POP JUMP JUMPDEST PUSH1 0x0 PUSH1 0x20 DUP3 ADD SWAP1 POP PUSH2 0x5C1 PUSH1 0x0 DUP4 ADD DUP5 PUSH2 0x59D JUMP JUMPDEST SWAP3 SWAP2 POP POP JUMP JUMPDEST PUSH1 0x0 PUSH1 0x40 MLOAD SWAP1 POP SWAP1 JUMP JUMPDEST PUSH1 0x0 DUP1 REVERT JUMPDEST PUSH1 0x0 DUP1 REVERT JUMPDEST PUSH1 0x0 DUP1 REVERT JUMPDEST PUSH1 0x0 DUP1 REVERT JUMPDEST PUSH1 0x0 PUSH1 0x1F NOT PUSH1 0x1F DUP4 ADD AND SWAP1 POP SWAP2 SWAP1 POP JUMP JUMPDEST PUSH32 0x4E487B7100000000000000000000000000000000000000000000000000000000 PUSH1 0x0 MSTORE PUSH1 0x41 PUSH1 0x4 MSTORE PUSH1 0x24 PUSH1 0x0 REVERT JUMPDEST PUSH2 0x62E DUP3 PUSH2 0x5E5 JUMP JUMPDEST DUP2 ADD DUP2 DUP2 LT PUSH8 0xFFFFFFFFFFFFFFFF DUP3 GT OR ISZERO PUSH2 0x64D JUMPI PUSH2 0x64C PUSH2 0x5F6 JUMP JUMPDEST JUMPDEST DUP1 PUSH1 0x40 MSTORE POP POP POP JUMP JUMPDEST PUSH1 0x0 PUSH2 0x660 PUSH2 0x5C7 JUMP JUMPDEST SWAP1 POP PUSH2 0x66C DUP3 DUP3 PUSH2 0x625 JUMP JUMPDEST SWAP2 SWAP1 POP JUMP JUMPDEST PUSH1 0x0 PUSH8 0xFFFFFFFFFFFFFFFF DUP3 GT ISZERO PUSH2 0x68C JUMPI PUSH2 0x68B PUSH2 0x5F6 JUMP JUMPDEST JUMPDEST PUSH2 0x695 DUP3 PUSH2 0x5E5 JUMP JUMPDEST SWAP1 POP PUSH1 0x20 DUP2 ADD SWAP1 POP SWAP2 SWAP1 POP JUMP JUMPDEST DUP3 DUP2 DUP4 CALLDATACOPY PUSH1 0x0 DUP4 DUP4 ADD MSTORE POP POP POP JUMP JUMPDEST PUSH1 0x0 PUSH2 0x6C4 PUSH2 0x6BF DUP5 PUSH2 0x671 JUMP JUMPDEST PUSH2 0x656 JUMP JUMPDEST SWAP1 POP DUP3 DUP2 MSTORE PUSH1 0x20 DUP2 ADD DUP5 DUP5 DUP5 ADD GT ISZERO PUSH2 0x6E0 JUMPI PUSH2 0x6DF PUSH2 0x5E0 JUMP JUMPDEST JUMPDEST PUSH2 0x6EB DUP5 DUP3 DUP6 PUSH2 0x6A2 JUMP JUMPDEST POP SWAP4 SWAP3 POP POP POP JUMP JUMPDEST PUSH1 0x0 DUP3 PUSH1 0x1F DUP4 ADD SLT PUSH2 0x708 JUMPI PUSH2 0x707 PUSH2 0x5DB JUMP JUMPDEST JUMPDEST DUP2 CALLDATALOAD PUSH2 0x718 DUP5 DUP3 PUSH1 0x20 DUP7 ADD PUSH2 0x6B1 JUMP JUMPDEST SWAP2 POP POP SWAP3 SWAP2 POP POP JUMP JUMPDEST PUSH1 0x0 PUSH1 0x20 DUP3 DUP5 SUB SLT ISZERO PUSH2 0x737 JUMPI PUSH2 0x736 PUSH2 0x5D1 JUMP JUMPDEST JUMPDEST PUSH1 0x0 DUP3 ADD CALLDATALOAD PUSH8 0xFFFFFFFFFFFFFFFF DUP2 GT ISZERO PUSH2 0x755 JUMPI PUSH2 0x754 PUSH2 0x5D6 JUMP JUMPDEST JUMPDEST PUSH2 0x761 DUP5 DUP3 DUP6 ADD PUSH2 0x6F3 JUMP JUMPDEST SWAP2 POP POP SWAP3 SWAP2 POP POP JUMP JUMPDEST PUSH1 0x0 DUP2 MLOAD SWAP1 POP SWAP2 SWAP1 POP JUMP JUMPDEST PUSH1 0x0 DUP3 DUP3 MSTORE PUSH1 0x20 DUP3 ADD SWAP1 POP SWAP3 SWAP2 POP POP JUMP JUMPDEST PUSH1 0x0 JUMPDEST DUP4 DUP2 LT ISZERO PUSH2 0x7A4 JUMPI DUP1 DUP3 ADD MLOAD DUP2 DUP5 ADD MSTORE PUSH1 0x20 DUP2 ADD SWAP1 POP PUSH2 0x789 JUMP JUMPDEST DUP4 DUP2 GT ISZERO PUSH2 0x7B3 JUMPI PUSH1 0x0 DUP5 DUP5 ADD MSTORE JUMPDEST POP POP POP POP JUMP JUMPDEST PUSH1 0x0 PUSH2 0x7C4 DUP3 PUSH2 0x76A JUMP JUMPDEST PUSH2 0x7CE DUP2 DUP6 PUSH2 0x775 JUMP JUMPDEST SWAP4 POP PUSH2 0x7DE DUP2 DUP6 PUSH1 0x20 DUP7 ADD PUSH2 0x786 JUMP JUMPDEST PUSH2 0x7E7 DUP2 PUSH2 0x5E5 JUMP JUMPDEST DUP5 ADD SWAP2 POP POP SWAP3 SWAP2 POP POP JUMP JUMPDEST PUSH1 0x0 PUSH1 0x20 DUP3 ADD SWAP1 POP DUP2 DUP2 SUB PUSH1 0x0 DUP4 ADD MSTORE PUSH2 0x80C DUP2 DUP5 PUSH2 0x7B9 JUMP JUMPDEST SWAP1 POP SWAP3 SWAP2 POP POP JUMP JUMPDEST PUSH32 0x4E487B7100000000000000000000000000000000000000000000000000000000 PUSH1 0x0 MSTORE PUSH1 0x21 PUSH1 0x4 MSTORE PUSH1 0x24 PUSH1 0x0 REVERT JUMPDEST PUSH32 0x4E487B7100000000000000000000000000000000000000000000000000000000 PUSH1 0x0 MSTORE PUSH1 0x22 PUSH1 0x4 MSTORE PUSH1 0x24 PUSH1 0x0 REVERT JUMPDEST PUSH1 0x0 PUSH1 0x2 DUP3 DIV SWAP1 POP PUSH1 0x1 DUP3 AND DUP1 PUSH2 0x88A JUMPI PUSH1 0x7F DUP3 AND SWAP2 POP JUMPDEST PUSH1 0x20 DUP3 LT DUP2 SUB PUSH2 0x89D JUMPI PUSH2 0x89C PUSH2 0x843 JUMP JUMPDEST JUMPDEST POP SWAP2 SWAP1 POP JUMP JUMPDEST PUSH1 0x0 DUP2 SWAP1 POP DUP2 PUSH1 0x0 MSTORE PUSH1 0x20 PUSH1 0x0 KECCAK256 SWAP1 POP SWAP2 SWAP1 POP JUMP JUMPDEST PUSH1 0x0 DUP2 SLOAD PUSH2 0x8C5 DUP2 PUSH2 0x872 JUMP JUMPDEST PUSH2 0x8CF DUP2 DUP7 PUSH2 0x775 JUMP JUMPDEST SWAP5 POP PUSH1 0x1 DUP3 AND PUSH1 0x0 DUP2 EQ PUSH2 0x8EA JUMPI PUSH1 0x1 DUP2 EQ PUSH2 0x8FC JUMPI PUSH2 0x92F JUMP JUMPDEST PUSH1 0xFF NOT DUP4 AND DUP7 MSTORE PUSH1 0x20 DUP7 ADD SWAP4 POP PUSH2 0x92F JUMP JUMPDEST PUSH2 0x905 DUP6 PUSH2 0x8A3 JUMP JUMPDEST PUSH1 0x0 JUMPDEST DUP4 DUP2 LT ISZERO PUSH2 0x927 JUMPI DUP2 SLOAD DUP2 DUP10 ADD MSTORE PUSH1 0x1 DUP3 ADD SWAP2 POP PUSH1 0x20 DUP2 ADD SWAP1 POP PUSH2 0x908 JUMP JUMPDEST DUP1 DUP9 ADD SWAP6 POP POP POP JUMPDEST POP POP POP SWAP3 SWAP2 POP POP JUMP JUMPDEST PUSH32 0x69732046756E6465640000000000000000000000000000000000000000000000 PUSH1 0x0 DUP3 ADD MSTORE POP JUMP JUMPDEST PUSH1 0x0 PUSH2 0x96E PUSH1 0x9 DUP4 PUSH2 0x775 JUMP JUMPDEST SWAP2 POP PUSH2 0x979 DUP3 PUSH2 0x938 JUMP JUMPDEST PUSH1 0x20 DUP3 ADD SWAP1 POP SWAP2 SWAP1 POP JUMP JUMPDEST PUSH1 0x0 PUSH1 0x40 DUP3 ADD SWAP1 POP DUP2 DUP2 SUB PUSH1 0x0 DUP4 ADD MSTORE PUSH2 0x99E DUP2 DUP5 PUSH2 0x8B8 JUMP JUMPDEST SWAP1 POP DUP2 DUP2 SUB PUSH1 0x20 DUP4 ADD MSTORE PUSH2 0x9B1 DUP2 PUSH2 0x961 JUMP JUMPDEST SWAP1 POP SWAP3 SWAP2 POP POP JUMP JUMPDEST PUSH1 0x0 DUP2 SWAP1 POP SWAP2 SWAP1 POP JUMP JUMPDEST PUSH32 0x4E487B7100000000000000000000000000000000000000000000000000000000 PUSH1 0x0 MSTORE PUSH1 0x11 PUSH1 0x4 MSTORE PUSH1 0x24 PUSH1 0x0 REVERT JUMPDEST PUSH1 0x0 PUSH2 0x9FD DUP3 PUSH2 0x9B9 JUMP JUMPDEST SWAP2 POP PUSH2 0xA08 DUP4 PUSH2 0x9B9 JUMP JUMPDEST SWAP3 POP DUP3 PUSH32 0xFFFFFFFFFFFFFFFFFFFFFFFFFFFFFFFFFFFFFFFFFFFFFFFFFFFFFFFFFFFFFFFF SUB DUP3 GT ISZERO PUSH2 0xA3D JUMPI PUSH2 0xA3C PUSH2 0x9C3 JUMP JUMPDEST JUMPDEST DUP3 DUP3 ADD SWAP1 POP SWAP3 SWAP2 POP POP JUMP JUMPDEST PUSH1 0x0 PUSH2 0xA53 DUP3 PUSH2 0x56B JUMP JUMPDEST SWAP1 POP SWAP2 SWAP1 POP JUMP JUMPDEST PUSH2 0xA63 DUP2 PUSH2 0xA48 JUMP JUMPDEST DUP3 MSTORE POP POP JUMP JUMPDEST PUSH2 0xA72 DUP2 PUSH2 0x9B9 JUMP JUMPDEST DUP3 MSTORE POP POP JUMP JUMPDEST PUSH1 0x0 PUSH1 0x40 DUP3 ADD SWAP1 POP PUSH2 0xA8D PUSH1 0x0 DUP4 ADD DUP6 PUSH2 0xA5A JUMP JUMPDEST PUSH2 0xA9A PUSH1 0x20 DUP4 ADD DUP5 PUSH2 0xA69 JUMP JUMPDEST SWAP4 SWAP3 POP POP POP JUMP JUMPDEST PUSH32 0x54686520476F616C206973207265616368656400000000000000000000000000 PUSH1 0x0 DUP3 ADD MSTORE POP JUMP JUMPDEST PUSH1 0x0 PUSH2 0xAD7 PUSH1 0x13 DUP4 PUSH2 0x775 JUMP JUMPDEST SWAP2 POP PUSH2 0xAE2 DUP3 PUSH2 0xAA1 JUMP JUMPDEST PUSH1 0x20 DUP3 ADD SWAP1 POP SWAP2 SWAP1 POP JUMP JUMPDEST PUSH1 0x0 PUSH1 0x40 DUP3 ADD SWAP1 POP DUP2 DUP2 SUB PUSH1 0x0 DUP4 ADD MSTORE PUSH2 0xB06 DUP2 PUSH2 0xACA JUMP JUMPDEST SWAP1 POP DUP2 DUP2 SUB PUSH1 0x20 DUP4 ADD MSTORE PUSH2 0xB1A DUP2 DUP5 PUSH2 0x8B8 JUMP JUMPDEST SWAP1 POP SWAP3 SWAP2 POP POP JUMP INVALID LOG2 PUSH5 0x6970667358 0x22 SLT KECCAK256 CHAINID NOT CODECOPY PUSH3 0x86D6B0 DUP7 0xC5 COINBASE BLOCKHASH 0xF PUSH9 0xECCC5C350600B22A7F LOG3 0x5E DUP12 LOG4 MSIZE CALLDATASIZE 0x2E DELEGATECALL SWAP14 PUSH4 0x64736F6C PUSH4 0x4300080D STOP CALLER LOG2 PUSH5 0x6970667358 0x22 SLT KECCAK256 RETURNDATACOPY PUSH22 0xF4FBE43301230DADCE8448258A766C3CA66245C2C9C2 0xC7 PUSH2 0xC7B5 0xCD 0xAE SLT EXTCODESIZE PUSH5 0x736F6C6343 STOP ADDMOD 0xD STOP CALLER "
				},
				"gasEstimates": {
					"creation": {
						"codeDepositCost": "1669600",
						"executionCost": "1750",
						"totalCost": "1671350"
					},
					"external": {
						"contribute(address)": "infinite",
						"getProjectByAddressCreator(address)": "infinite",
						"returnAllProjects()": "infinite",
						"startProject(string,string,uint256,uint256)": "infinite"
					},
					"internal": {
						"checkProjectExistence(address)": "infinite"
					}
				},
				"methodIdentifiers": {
					"contribute(address)": "73e888fd",
					"getProjectByAddressCreator(address)": "4bf28d9e",
					"returnAllProjects()": "85b6e28e",
					"startProject(string,string,uint256,uint256)": "a24a2d16"
				}
			},
			"storageLayout": {
				"storage": [
					{
						"astId": 9,
						"contract": "contracts/Crowfunding.sol:Crowfunding",
						"label": "projects",
						"offset": 0,
						"slot": "0",
						"type": "t_array(t_contract(Project)483)dyn_storage"
					}
				],
				"types": {
					"t_array(t_contract(Project)483)dyn_storage": {
						"base": "t_contract(Project)483",
						"encoding": "dynamic_array",
						"label": "contract Project[]",
						"numberOfBytes": "32"
					},
					"t_contract(Project)483": {
						"encoding": "inplace",
						"label": "contract Project",
						"numberOfBytes": "20"
					}
				}
			},
			"userdoc": {
				"kind": "user",
				"methods": {},
				"version": 1
			}
		}
	}
}