{
	"contracts/Project.sol": {
		"Project": {
			"abi": [
				{
					"inputs": [
						{
							"internalType": "address payable",
							"name": "_projectCreator",
							"type": "address"
						},
						{
							"internalType": "string",
							"name": "_projectTitle",
							"type": "string"
						},
						{
							"internalType": "string",
							"name": "_projectDescription",
							"type": "string"
						},
						{
							"internalType": "uint256",
							"name": "_amountGoal",
							"type": "uint256"
						},
						{
							"internalType": "uint256",
							"name": "_deadLine",
							"type": "uint256"
						}
					],
					"stateMutability": "nonpayable",
					"type": "constructor"
				},
				{
					"anonymous": false,
					"inputs": [
						{
							"indexed": false,
							"internalType": "address",
							"name": "_contributor",
							"type": "address"
						},
						{
							"indexed": false,
							"internalType": "uint256",
							"name": "_value",
							"type": "uint256"
						}
					],
					"name": "FundReceivedBy",
					"type": "event"
				},
				{
					"anonymous": false,
					"inputs": [
						{
							"indexed": false,
							"internalType": "string",
							"name": "_desc",
							"type": "string"
						},
						{
							"indexed": false,
							"internalType": "string",
							"name": "_projectTitle",
							"type": "string"
						}
					],
					"name": "FundRetreived",
					"type": "event"
				},
				{
					"anonymous": false,
					"inputs": [
						{
							"indexed": false,
							"internalType": "string",
							"name": "_desc",
							"type": "string"
						},
						{
							"indexed": false,
							"internalType": "string",
							"name": "_projectTitle",
							"type": "string"
						}
					],
					"name": "GoalReached",
					"type": "event"
				},
				{
					"anonymous": false,
					"inputs": [
						{
							"indexed": false,
							"internalType": "string",
							"name": "_projectTitle",
							"type": "string"
						},
						{
							"indexed": false,
							"internalType": "string",
							"name": "_desc",
							"type": "string"
						}
					],
					"name": "ProjectFunded",
					"type": "event"
				},
				{
					"inputs": [],
					"name": "contribute",
					"outputs": [],
					"stateMutability": "payable",
					"type": "function"
				},
				{
					"inputs": [],
					"name": "getProjectTitle",
					"outputs": [
						{
							"internalType": "string",
							"name": "",
							"type": "string"
						}
					],
					"stateMutability": "view",
					"type": "function"
				},
				{
					"inputs": [],
					"name": "payOut",
					"outputs": [],
					"stateMutability": "nonpayable",
					"type": "function"
				},
				{
					"inputs": [],
					"name": "projectCreator",
					"outputs": [
						{
							"internalType": "address payable",
							"name": "",
							"type": "address"
						}
					],
					"stateMutability": "view",
					"type": "function"
				},
				{
					"inputs": [],
					"name": "retreiveFunds",
					"outputs": [],
					"stateMutability": "nonpayable",
					"type": "function"
				},
				{
					"inputs": [
						{
							"internalType": "string",
							"name": "_projectTitle",
							"type": "string"
						}
					],
					"name": "setProjectTitle",
					"outputs": [],
					"stateMutability": "nonpayable",
					"type": "function"
				}
			],
			"devdoc": {
				"kind": "dev",
				"methods": {},
				"version": 1
			},
			"evm": {
				"assembly": "    /* \"contracts/Project.sol\":225:3763  contract Project {... */\n  mstore(0x40, 0x80)\n    /* \"contracts/Project.sol\":1494:1920  constructor... */\n  callvalue\n  dup1\n  iszero\n  tag_1\n  jumpi\n  0x00\n  dup1\n  revert\ntag_1:\n  pop\n  mload(0x40)\n  sub(codesize, bytecodeSize)\n  dup1\n  bytecodeSize\n  dup4\n  codecopy\n  dup2\n  dup2\n  add\n  0x40\n  mstore\n  dup2\n  add\n  swap1\n  tag_2\n  swap2\n  swap1\n  tag_3\n  jump\t// in\ntag_2:\n    /* \"contracts/Project.sol\":1718:1733  _projectCreator */\n  dup5\n    /* \"contracts/Project.sol\":1701:1715  projectCreator */\n  0x00\n  dup1\n    /* \"contracts/Project.sol\":1701:1733  projectCreator = _projectCreator */\n  0x0100\n  exp\n  dup2\n  sload\n  dup2\n  0xffffffffffffffffffffffffffffffffffffffff\n  mul\n  not\n  and\n  swap1\n  dup4\n  0xffffffffffffffffffffffffffffffffffffffff\n  and\n  mul\n  or\n  swap1\n  sstore\n  pop\n    /* \"contracts/Project.sol\":1758:1771  _projectTitle */\n  dup4\n    /* \"contracts/Project.sol\":1743:1755  projectTitle */\n  0x01\n    /* \"contracts/Project.sol\":1743:1771  projectTitle = _projectTitle */\n  swap1\n  dup1\n  mload\n  swap1\n  0x20\n  add\n  swap1\n  tag_6\n  swap3\n  swap2\n  swap1\n  tag_7\n  jump\t// in\ntag_6:\n  pop\n    /* \"contracts/Project.sol\":1802:1821  _projectDescription */\n  dup3\n    /* \"contracts/Project.sol\":1781:1799  projectDescription */\n  0x02\n    /* \"contracts/Project.sol\":1781:1821  projectDescription = _projectDescription */\n  swap1\n  dup1\n  mload\n  swap1\n  0x20\n  add\n  swap1\n  tag_8\n  swap3\n  swap2\n  swap1\n  tag_7\n  jump\t// in\ntag_8:\n  pop\n    /* \"contracts/Project.sol\":1844:1855  _amountGoal */\n  dup2\n    /* \"contracts/Project.sol\":1831:1841  amountGoal */\n  0x03\n    /* \"contracts/Project.sol\":1831:1855  amountGoal = _amountGoal */\n  dup2\n  swap1\n  sstore\n  pop\n    /* \"contracts/Project.sol\":1876:1885  _deadLine */\n  dup1\n    /* \"contracts/Project.sol\":1865:1873  deadLine */\n  0x06\n    /* \"contracts/Project.sol\":1865:1885  deadLine = _deadLine */\n  dup2\n  swap1\n  sstore\n  pop\n    /* \"contracts/Project.sol\":1912:1913  0 */\n  0x00\n    /* \"contracts/Project.sol\":1895:1909  currentBalance */\n  0x04\n    /* \"contracts/Project.sol\":1895:1913  currentBalance = 0 */\n  dup2\n  swap1\n  sstore\n  pop\n    /* \"contracts/Project.sol\":1494:1920  constructor... */\n  pop\n  pop\n  pop\n  pop\n  pop\n    /* \"contracts/Project.sol\":225:3763  contract Project {... */\n  jump(tag_9)\ntag_7:\n  dup3\n  dup1\n  sload\n  tag_10\n  swap1\n  tag_11\n  jump\t// in\ntag_10:\n  swap1\n  0x00\n  mstore\n  keccak256(0x00, 0x20)\n  swap1\n  0x1f\n  add\n  0x20\n  swap1\n  div\n  dup2\n  add\n  swap3\n  dup3\n  tag_13\n  jumpi\n  0x00\n  dup6\n  sstore\n  jump(tag_12)\ntag_13:\n  dup3\n  0x1f\n  lt\n  tag_14\n  jumpi\n  dup1\n  mload\n  not(0xff)\n  and\n  dup4\n  dup1\n  add\n  or\n  dup6\n  sstore\n  jump(tag_12)\ntag_14:\n  dup3\n  dup1\n  add\n  0x01\n  add\n  dup6\n  sstore\n  dup3\n  iszero\n  tag_12\n  jumpi\n  swap2\n  dup3\n  add\ntag_15:\n  dup3\n  dup2\n  gt\n  iszero\n  tag_16\n  jumpi\n  dup3\n  mload\n  dup3\n  sstore\n  swap2\n  0x20\n  add\n  swap2\n  swap1\n  0x01\n  add\n  swap1\n  jump(tag_15)\ntag_16:\ntag_12:\n  pop\n  swap1\n  pop\n  tag_17\n  swap2\n  swap1\n  tag_18\n  jump\t// in\ntag_17:\n  pop\n  swap1\n  jump\t// out\ntag_18:\ntag_19:\n  dup1\n  dup3\n  gt\n  iszero\n  tag_20\n  jumpi\n  0x00\n  dup2\n  0x00\n  swap1\n  sstore\n  pop\n  0x01\n  add\n  jump(tag_19)\ntag_20:\n  pop\n  swap1\n  jump\t// out\n    /* \"#utility.yul\":7:82   */\ntag_21:\n    /* \"#utility.yul\":40:46   */\n  0x00\n    /* \"#utility.yul\":73:75   */\n  0x40\n    /* \"#utility.yul\":67:76   */\n  mload\n    /* \"#utility.yul\":57:76   */\n  swap1\n  pop\n    /* \"#utility.yul\":7:82   */\n  swap1\n  jump\t// out\n    /* \"#utility.yul\":88:205   */\ntag_22:\n    /* \"#utility.yul\":197:198   */\n  0x00\n    /* \"#utility.yul\":194:195   */\n  dup1\n    /* \"#utility.yul\":187:199   */\n  revert\n    /* \"#utility.yul\":211:328   */\ntag_23:\n    /* \"#utility.yul\":320:321   */\n  0x00\n    /* \"#utility.yul\":317:318   */\n  dup1\n    /* \"#utility.yul\":310:322   */\n  revert\n    /* \"#utility.yul\":334:460   */\ntag_24:\n    /* \"#utility.yul\":371:378   */\n  0x00\n    /* \"#utility.yul\":411:453   */\n  0xffffffffffffffffffffffffffffffffffffffff\n    /* \"#utility.yul\":404:409   */\n  dup3\n    /* \"#utility.yul\":400:454   */\n  and\n    /* \"#utility.yul\":389:454   */\n  swap1\n  pop\n    /* \"#utility.yul\":334:460   */\n  swap2\n  swap1\n  pop\n  jump\t// out\n    /* \"#utility.yul\":466:570   */\ntag_25:\n    /* \"#utility.yul\":511:518   */\n  0x00\n    /* \"#utility.yul\":540:564   */\n  tag_48\n    /* \"#utility.yul\":558:563   */\n  dup3\n    /* \"#utility.yul\":540:564   */\n  tag_24\n  jump\t// in\ntag_48:\n    /* \"#utility.yul\":529:564   */\n  swap1\n  pop\n    /* \"#utility.yul\":466:570   */\n  swap2\n  swap1\n  pop\n  jump\t// out\n    /* \"#utility.yul\":576:714   */\ntag_26:\n    /* \"#utility.yul\":657:689   */\n  tag_50\n    /* \"#utility.yul\":683:688   */\n  dup2\n    /* \"#utility.yul\":657:689   */\n  tag_25\n  jump\t// in\ntag_50:\n    /* \"#utility.yul\":650:655   */\n  dup2\n    /* \"#utility.yul\":647:690   */\n  eq\n    /* \"#utility.yul\":637:708   */\n  tag_51\n  jumpi\n    /* \"#utility.yul\":704:705   */\n  0x00\n    /* \"#utility.yul\":701:702   */\n  dup1\n    /* \"#utility.yul\":694:706   */\n  revert\n    /* \"#utility.yul\":637:708   */\ntag_51:\n    /* \"#utility.yul\":576:714   */\n  pop\n  jump\t// out\n    /* \"#utility.yul\":720:879   */\ntag_27:\n    /* \"#utility.yul\":785:790   */\n  0x00\n    /* \"#utility.yul\":816:822   */\n  dup2\n    /* \"#utility.yul\":810:823   */\n  mload\n    /* \"#utility.yul\":801:823   */\n  swap1\n  pop\n    /* \"#utility.yul\":832:873   */\n  tag_53\n    /* \"#utility.yul\":867:872   */\n  dup2\n    /* \"#utility.yul\":832:873   */\n  tag_26\n  jump\t// in\ntag_53:\n    /* \"#utility.yul\":720:879   */\n  swap3\n  swap2\n  pop\n  pop\n  jump\t// out\n    /* \"#utility.yul\":885:1002   */\ntag_28:\n    /* \"#utility.yul\":994:995   */\n  0x00\n    /* \"#utility.yul\":991:992   */\n  dup1\n    /* \"#utility.yul\":984:996   */\n  revert\n    /* \"#utility.yul\":1008:1125   */\ntag_29:\n    /* \"#utility.yul\":1117:1118   */\n  0x00\n    /* \"#utility.yul\":1114:1115   */\n  dup1\n    /* \"#utility.yul\":1107:1119   */\n  revert\n    /* \"#utility.yul\":1131:1233   */\ntag_30:\n    /* \"#utility.yul\":1172:1178   */\n  0x00\n    /* \"#utility.yul\":1223:1225   */\n  0x1f\n    /* \"#utility.yul\":1219:1226   */\n  not\n    /* \"#utility.yul\":1214:1216   */\n  0x1f\n    /* \"#utility.yul\":1207:1212   */\n  dup4\n    /* \"#utility.yul\":1203:1217   */\n  add\n    /* \"#utility.yul\":1199:1227   */\n  and\n    /* \"#utility.yul\":1189:1227   */\n  swap1\n  pop\n    /* \"#utility.yul\":1131:1233   */\n  swap2\n  swap1\n  pop\n  jump\t// out\n    /* \"#utility.yul\":1239:1419   */\ntag_31:\n    /* \"#utility.yul\":1287:1364   */\n  0x4e487b7100000000000000000000000000000000000000000000000000000000\n    /* \"#utility.yul\":1284:1285   */\n  0x00\n    /* \"#utility.yul\":1277:1365   */\n  mstore\n    /* \"#utility.yul\":1384:1388   */\n  0x41\n    /* \"#utility.yul\":1381:1382   */\n  0x04\n    /* \"#utility.yul\":1374:1389   */\n  mstore\n    /* \"#utility.yul\":1408:1412   */\n  0x24\n    /* \"#utility.yul\":1405:1406   */\n  0x00\n    /* \"#utility.yul\":1398:1413   */\n  revert\n    /* \"#utility.yul\":1425:1706   */\ntag_32:\n    /* \"#utility.yul\":1508:1535   */\n  tag_59\n    /* \"#utility.yul\":1530:1534   */\n  dup3\n    /* \"#utility.yul\":1508:1535   */\n  tag_30\n  jump\t// in\ntag_59:\n    /* \"#utility.yul\":1500:1506   */\n  dup2\n    /* \"#utility.yul\":1496:1536   */\n  add\n    /* \"#utility.yul\":1638:1644   */\n  dup2\n    /* \"#utility.yul\":1626:1636   */\n  dup2\n    /* \"#utility.yul\":1623:1645   */\n  lt\n    /* \"#utility.yul\":1602:1620   */\n  0xffffffffffffffff\n    /* \"#utility.yul\":1590:1600   */\n  dup3\n    /* \"#utility.yul\":1587:1621   */\n  gt\n    /* \"#utility.yul\":1584:1646   */\n  or\n    /* \"#utility.yul\":1581:1669   */\n  iszero\n  tag_60\n  jumpi\n    /* \"#utility.yul\":1649:1667   */\n  tag_61\n  tag_31\n  jump\t// in\ntag_61:\n    /* \"#utility.yul\":1581:1669   */\ntag_60:\n    /* \"#utility.yul\":1689:1699   */\n  dup1\n    /* \"#utility.yul\":1685:1687   */\n  0x40\n    /* \"#utility.yul\":1678:1700   */\n  mstore\n    /* \"#utility.yul\":1468:1706   */\n  pop\n    /* \"#utility.yul\":1425:1706   */\n  pop\n  pop\n  jump\t// out\n    /* \"#utility.yul\":1712:1841   */\ntag_33:\n    /* \"#utility.yul\":1746:1752   */\n  0x00\n    /* \"#utility.yul\":1773:1793   */\n  tag_63\n  tag_21\n  jump\t// in\ntag_63:\n    /* \"#utility.yul\":1763:1793   */\n  swap1\n  pop\n    /* \"#utility.yul\":1802:1835   */\n  tag_64\n    /* \"#utility.yul\":1830:1834   */\n  dup3\n    /* \"#utility.yul\":1822:1828   */\n  dup3\n    /* \"#utility.yul\":1802:1835   */\n  tag_32\n  jump\t// in\ntag_64:\n    /* \"#utility.yul\":1712:1841   */\n  swap2\n  swap1\n  pop\n  jump\t// out\n    /* \"#utility.yul\":1847:2155   */\ntag_34:\n    /* \"#utility.yul\":1909:1913   */\n  0x00\n    /* \"#utility.yul\":1999:2017   */\n  0xffffffffffffffff\n    /* \"#utility.yul\":1991:1997   */\n  dup3\n    /* \"#utility.yul\":1988:2018   */\n  gt\n    /* \"#utility.yul\":1985:2041   */\n  iszero\n  tag_66\n  jumpi\n    /* \"#utility.yul\":2021:2039   */\n  tag_67\n  tag_31\n  jump\t// in\ntag_67:\n    /* \"#utility.yul\":1985:2041   */\ntag_66:\n    /* \"#utility.yul\":2059:2088   */\n  tag_68\n    /* \"#utility.yul\":2081:2087   */\n  dup3\n    /* \"#utility.yul\":2059:2088   */\n  tag_30\n  jump\t// in\ntag_68:\n    /* \"#utility.yul\":2051:2088   */\n  swap1\n  pop\n    /* \"#utility.yul\":2143:2147   */\n  0x20\n    /* \"#utility.yul\":2137:2141   */\n  dup2\n    /* \"#utility.yul\":2133:2148   */\n  add\n    /* \"#utility.yul\":2125:2148   */\n  swap1\n  pop\n    /* \"#utility.yul\":1847:2155   */\n  swap2\n  swap1\n  pop\n  jump\t// out\n    /* \"#utility.yul\":2161:2468   */\ntag_35:\n    /* \"#utility.yul\":2229:2230   */\n  0x00\n    /* \"#utility.yul\":2239:2352   */\ntag_70:\n    /* \"#utility.yul\":2253:2259   */\n  dup4\n    /* \"#utility.yul\":2250:2251   */\n  dup2\n    /* \"#utility.yul\":2247:2260   */\n  lt\n    /* \"#utility.yul\":2239:2352   */\n  iszero\n  tag_72\n  jumpi\n    /* \"#utility.yul\":2338:2339   */\n  dup1\n    /* \"#utility.yul\":2333:2336   */\n  dup3\n    /* \"#utility.yul\":2329:2340   */\n  add\n    /* \"#utility.yul\":2323:2341   */\n  mload\n    /* \"#utility.yul\":2319:2320   */\n  dup2\n    /* \"#utility.yul\":2314:2317   */\n  dup5\n    /* \"#utility.yul\":2310:2321   */\n  add\n    /* \"#utility.yul\":2303:2342   */\n  mstore\n    /* \"#utility.yul\":2275:2277   */\n  0x20\n    /* \"#utility.yul\":2272:2273   */\n  dup2\n    /* \"#utility.yul\":2268:2278   */\n  add\n    /* \"#utility.yul\":2263:2278   */\n  swap1\n  pop\n    /* \"#utility.yul\":2239:2352   */\n  jump(tag_70)\ntag_72:\n    /* \"#utility.yul\":2370:2376   */\n  dup4\n    /* \"#utility.yul\":2367:2368   */\n  dup2\n    /* \"#utility.yul\":2364:2377   */\n  gt\n    /* \"#utility.yul\":2361:2462   */\n  iszero\n  tag_73\n  jumpi\n    /* \"#utility.yul\":2450:2451   */\n  0x00\n    /* \"#utility.yul\":2441:2447   */\n  dup5\n    /* \"#utility.yul\":2436:2439   */\n  dup5\n    /* \"#utility.yul\":2432:2448   */\n  add\n    /* \"#utility.yul\":2425:2452   */\n  mstore\n    /* \"#utility.yul\":2361:2462   */\ntag_73:\n    /* \"#utility.yul\":2210:2468   */\n  pop\n    /* \"#utility.yul\":2161:2468   */\n  pop\n  pop\n  pop\n  jump\t// out\n    /* \"#utility.yul\":2474:2895   */\ntag_36:\n    /* \"#utility.yul\":2563:2568   */\n  0x00\n    /* \"#utility.yul\":2588:2654   */\n  tag_75\n    /* \"#utility.yul\":2604:2653   */\n  tag_76\n    /* \"#utility.yul\":2646:2652   */\n  dup5\n    /* \"#utility.yul\":2604:2653   */\n  tag_34\n  jump\t// in\ntag_76:\n    /* \"#utility.yul\":2588:2654   */\n  tag_33\n  jump\t// in\ntag_75:\n    /* \"#utility.yul\":2579:2654   */\n  swap1\n  pop\n    /* \"#utility.yul\":2677:2683   */\n  dup3\n    /* \"#utility.yul\":2670:2675   */\n  dup2\n    /* \"#utility.yul\":2663:2684   */\n  mstore\n    /* \"#utility.yul\":2715:2719   */\n  0x20\n    /* \"#utility.yul\":2708:2713   */\n  dup2\n    /* \"#utility.yul\":2704:2720   */\n  add\n    /* \"#utility.yul\":2753:2756   */\n  dup5\n    /* \"#utility.yul\":2744:2750   */\n  dup5\n    /* \"#utility.yul\":2739:2742   */\n  dup5\n    /* \"#utility.yul\":2735:2751   */\n  add\n    /* \"#utility.yul\":2732:2757   */\n  gt\n    /* \"#utility.yul\":2729:2841   */\n  iszero\n  tag_77\n  jumpi\n    /* \"#utility.yul\":2760:2839   */\n  tag_78\n  tag_29\n  jump\t// in\ntag_78:\n    /* \"#utility.yul\":2729:2841   */\ntag_77:\n    /* \"#utility.yul\":2850:2889   */\n  tag_79\n    /* \"#utility.yul\":2882:2888   */\n  dup5\n    /* \"#utility.yul\":2877:2880   */\n  dup3\n    /* \"#utility.yul\":2872:2875   */\n  dup6\n    /* \"#utility.yul\":2850:2889   */\n  tag_35\n  jump\t// in\ntag_79:\n    /* \"#utility.yul\":2569:2895   */\n  pop\n    /* \"#utility.yul\":2474:2895   */\n  swap4\n  swap3\n  pop\n  pop\n  pop\n  jump\t// out\n    /* \"#utility.yul\":2915:3270   */\ntag_37:\n    /* \"#utility.yul\":2982:2987   */\n  0x00\n    /* \"#utility.yul\":3031:3034   */\n  dup3\n    /* \"#utility.yul\":3024:3028   */\n  0x1f\n    /* \"#utility.yul\":3016:3022   */\n  dup4\n    /* \"#utility.yul\":3012:3029   */\n  add\n    /* \"#utility.yul\":3008:3035   */\n  slt\n    /* \"#utility.yul\":2998:3120   */\n  tag_81\n  jumpi\n    /* \"#utility.yul\":3039:3118   */\n  tag_82\n  tag_28\n  jump\t// in\ntag_82:\n    /* \"#utility.yul\":2998:3120   */\ntag_81:\n    /* \"#utility.yul\":3149:3155   */\n  dup2\n    /* \"#utility.yul\":3143:3156   */\n  mload\n    /* \"#utility.yul\":3174:3264   */\n  tag_83\n    /* \"#utility.yul\":3260:3263   */\n  dup5\n    /* \"#utility.yul\":3252:3258   */\n  dup3\n    /* \"#utility.yul\":3245:3249   */\n  0x20\n    /* \"#utility.yul\":3237:3243   */\n  dup7\n    /* \"#utility.yul\":3233:3250   */\n  add\n    /* \"#utility.yul\":3174:3264   */\n  tag_36\n  jump\t// in\ntag_83:\n    /* \"#utility.yul\":3165:3264   */\n  swap2\n  pop\n    /* \"#utility.yul\":2988:3270   */\n  pop\n    /* \"#utility.yul\":2915:3270   */\n  swap3\n  swap2\n  pop\n  pop\n  jump\t// out\n    /* \"#utility.yul\":3276:3353   */\ntag_38:\n    /* \"#utility.yul\":3313:3320   */\n  0x00\n    /* \"#utility.yul\":3342:3347   */\n  dup2\n    /* \"#utility.yul\":3331:3347   */\n  swap1\n  pop\n    /* \"#utility.yul\":3276:3353   */\n  swap2\n  swap1\n  pop\n  jump\t// out\n    /* \"#utility.yul\":3359:3481   */\ntag_39:\n    /* \"#utility.yul\":3432:3456   */\n  tag_86\n    /* \"#utility.yul\":3450:3455   */\n  dup2\n    /* \"#utility.yul\":3432:3456   */\n  tag_38\n  jump\t// in\ntag_86:\n    /* \"#utility.yul\":3425:3430   */\n  dup2\n    /* \"#utility.yul\":3422:3457   */\n  eq\n    /* \"#utility.yul\":3412:3475   */\n  tag_87\n  jumpi\n    /* \"#utility.yul\":3471:3472   */\n  0x00\n    /* \"#utility.yul\":3468:3469   */\n  dup1\n    /* \"#utility.yul\":3461:3473   */\n  revert\n    /* \"#utility.yul\":3412:3475   */\ntag_87:\n    /* \"#utility.yul\":3359:3481   */\n  pop\n  jump\t// out\n    /* \"#utility.yul\":3487:3630   */\ntag_40:\n    /* \"#utility.yul\":3544:3549   */\n  0x00\n    /* \"#utility.yul\":3575:3581   */\n  dup2\n    /* \"#utility.yul\":3569:3582   */\n  mload\n    /* \"#utility.yul\":3560:3582   */\n  swap1\n  pop\n    /* \"#utility.yul\":3591:3624   */\n  tag_89\n    /* \"#utility.yul\":3618:3623   */\n  dup2\n    /* \"#utility.yul\":3591:3624   */\n  tag_39\n  jump\t// in\ntag_89:\n    /* \"#utility.yul\":3487:3630   */\n  swap3\n  swap2\n  pop\n  pop\n  jump\t// out\n    /* \"#utility.yul\":3636:4975   */\ntag_3:\n    /* \"#utility.yul\":3770:3776   */\n  0x00\n    /* \"#utility.yul\":3778:3784   */\n  dup1\n    /* \"#utility.yul\":3786:3792   */\n  0x00\n    /* \"#utility.yul\":3794:3800   */\n  dup1\n    /* \"#utility.yul\":3802:3808   */\n  0x00\n    /* \"#utility.yul\":3851:3854   */\n  0xa0\n    /* \"#utility.yul\":3839:3848   */\n  dup7\n    /* \"#utility.yul\":3830:3837   */\n  dup9\n    /* \"#utility.yul\":3826:3849   */\n  sub\n    /* \"#utility.yul\":3822:3855   */\n  slt\n    /* \"#utility.yul\":3819:3939   */\n  iszero\n  tag_91\n  jumpi\n    /* \"#utility.yul\":3858:3937   */\n  tag_92\n  tag_22\n  jump\t// in\ntag_92:\n    /* \"#utility.yul\":3819:3939   */\ntag_91:\n    /* \"#utility.yul\":3978:3979   */\n  0x00\n    /* \"#utility.yul\":4003:4075   */\n  tag_93\n    /* \"#utility.yul\":4067:4074   */\n  dup9\n    /* \"#utility.yul\":4058:4064   */\n  dup3\n    /* \"#utility.yul\":4047:4056   */\n  dup10\n    /* \"#utility.yul\":4043:4065   */\n  add\n    /* \"#utility.yul\":4003:4075   */\n  tag_27\n  jump\t// in\ntag_93:\n    /* \"#utility.yul\":3993:4075   */\n  swap6\n  pop\n    /* \"#utility.yul\":3949:4085   */\n  pop\n    /* \"#utility.yul\":4145:4147   */\n  0x20\n    /* \"#utility.yul\":4134:4143   */\n  dup7\n    /* \"#utility.yul\":4130:4148   */\n  add\n    /* \"#utility.yul\":4124:4149   */\n  mload\n    /* \"#utility.yul\":4176:4194   */\n  0xffffffffffffffff\n    /* \"#utility.yul\":4168:4174   */\n  dup2\n    /* \"#utility.yul\":4165:4195   */\n  gt\n    /* \"#utility.yul\":4162:4279   */\n  iszero\n  tag_94\n  jumpi\n    /* \"#utility.yul\":4198:4277   */\n  tag_95\n  tag_23\n  jump\t// in\ntag_95:\n    /* \"#utility.yul\":4162:4279   */\ntag_94:\n    /* \"#utility.yul\":4303:4377   */\n  tag_96\n    /* \"#utility.yul\":4369:4376   */\n  dup9\n    /* \"#utility.yul\":4360:4366   */\n  dup3\n    /* \"#utility.yul\":4349:4358   */\n  dup10\n    /* \"#utility.yul\":4345:4367   */\n  add\n    /* \"#utility.yul\":4303:4377   */\n  tag_37\n  jump\t// in\ntag_96:\n    /* \"#utility.yul\":4293:4377   */\n  swap5\n  pop\n    /* \"#utility.yul\":4095:4387   */\n  pop\n    /* \"#utility.yul\":4447:4449   */\n  0x40\n    /* \"#utility.yul\":4436:4445   */\n  dup7\n    /* \"#utility.yul\":4432:4450   */\n  add\n    /* \"#utility.yul\":4426:4451   */\n  mload\n    /* \"#utility.yul\":4478:4496   */\n  0xffffffffffffffff\n    /* \"#utility.yul\":4470:4476   */\n  dup2\n    /* \"#utility.yul\":4467:4497   */\n  gt\n    /* \"#utility.yul\":4464:4581   */\n  iszero\n  tag_97\n  jumpi\n    /* \"#utility.yul\":4500:4579   */\n  tag_98\n  tag_23\n  jump\t// in\ntag_98:\n    /* \"#utility.yul\":4464:4581   */\ntag_97:\n    /* \"#utility.yul\":4605:4679   */\n  tag_99\n    /* \"#utility.yul\":4671:4678   */\n  dup9\n    /* \"#utility.yul\":4662:4668   */\n  dup3\n    /* \"#utility.yul\":4651:4660   */\n  dup10\n    /* \"#utility.yul\":4647:4669   */\n  add\n    /* \"#utility.yul\":4605:4679   */\n  tag_37\n  jump\t// in\ntag_99:\n    /* \"#utility.yul\":4595:4679   */\n  swap4\n  pop\n    /* \"#utility.yul\":4397:4689   */\n  pop\n    /* \"#utility.yul\":4728:4730   */\n  0x60\n    /* \"#utility.yul\":4754:4818   */\n  tag_100\n    /* \"#utility.yul\":4810:4817   */\n  dup9\n    /* \"#utility.yul\":4801:4807   */\n  dup3\n    /* \"#utility.yul\":4790:4799   */\n  dup10\n    /* \"#utility.yul\":4786:4808   */\n  add\n    /* \"#utility.yul\":4754:4818   */\n  tag_40\n  jump\t// in\ntag_100:\n    /* \"#utility.yul\":4744:4818   */\n  swap3\n  pop\n    /* \"#utility.yul\":4699:4828   */\n  pop\n    /* \"#utility.yul\":4867:4870   */\n  0x80\n    /* \"#utility.yul\":4894:4958   */\n  tag_101\n    /* \"#utility.yul\":4950:4957   */\n  dup9\n    /* \"#utility.yul\":4941:4947   */\n  dup3\n    /* \"#utility.yul\":4930:4939   */\n  dup10\n    /* \"#utility.yul\":4926:4948   */\n  add\n    /* \"#utility.yul\":4894:4958   */\n  tag_40\n  jump\t// in\ntag_101:\n    /* \"#utility.yul\":4884:4958   */\n  swap2\n  pop\n    /* \"#utility.yul\":4838:4968   */\n  pop\n    /* \"#utility.yul\":3636:4975   */\n  swap3\n  swap6\n  pop\n  swap3\n  swap6\n  swap1\n  swap4\n  pop\n  jump\t// out\n    /* \"#utility.yul\":4981:5161   */\ntag_41:\n    /* \"#utility.yul\":5029:5106   */\n  0x4e487b7100000000000000000000000000000000000000000000000000000000\n    /* \"#utility.yul\":5026:5027   */\n  0x00\n    /* \"#utility.yul\":5019:5107   */\n  mstore\n    /* \"#utility.yul\":5126:5130   */\n  0x22\n    /* \"#utility.yul\":5123:5124   */\n  0x04\n    /* \"#utility.yul\":5116:5131   */\n  mstore\n    /* \"#utility.yul\":5150:5154   */\n  0x24\n    /* \"#utility.yul\":5147:5148   */\n  0x00\n    /* \"#utility.yul\":5140:5155   */\n  revert\n    /* \"#utility.yul\":5167:5487   */\ntag_11:\n    /* \"#utility.yul\":5211:5217   */\n  0x00\n    /* \"#utility.yul\":5248:5249   */\n  0x02\n    /* \"#utility.yul\":5242:5246   */\n  dup3\n    /* \"#utility.yul\":5238:5250   */\n  div\n    /* \"#utility.yul\":5228:5250   */\n  swap1\n  pop\n    /* \"#utility.yul\":5295:5296   */\n  0x01\n    /* \"#utility.yul\":5289:5293   */\n  dup3\n    /* \"#utility.yul\":5285:5297   */\n  and\n    /* \"#utility.yul\":5316:5334   */\n  dup1\n    /* \"#utility.yul\":5306:5387   */\n  tag_104\n  jumpi\n    /* \"#utility.yul\":5372:5376   */\n  0x7f\n    /* \"#utility.yul\":5364:5370   */\n  dup3\n    /* \"#utility.yul\":5360:5377   */\n  and\n    /* \"#utility.yul\":5350:5377   */\n  swap2\n  pop\n    /* \"#utility.yul\":5306:5387   */\ntag_104:\n    /* \"#utility.yul\":5434:5436   */\n  0x20\n    /* \"#utility.yul\":5426:5432   */\n  dup3\n    /* \"#utility.yul\":5423:5437   */\n  lt\n    /* \"#utility.yul\":5403:5421   */\n  dup2\n    /* \"#utility.yul\":5400:5438   */\n  sub\n    /* \"#utility.yul\":5397:5481   */\n  tag_105\n  jumpi\n    /* \"#utility.yul\":5453:5471   */\n  tag_106\n  tag_41\n  jump\t// in\ntag_106:\n    /* \"#utility.yul\":5397:5481   */\ntag_105:\n    /* \"#utility.yul\":5218:5487   */\n  pop\n    /* \"#utility.yul\":5167:5487   */\n  swap2\n  swap1\n  pop\n  jump\t// out\n    /* \"contracts/Project.sol\":225:3763  contract Project {... */\ntag_9:\n  dataSize(sub_0)\n  dup1\n  dataOffset(sub_0)\n  0x00\n  codecopy\n  0x00\n  return\nstop\n\nsub_0: assembly {\n        /* \"contracts/Project.sol\":225:3763  contract Project {... */\n      mstore(0x40, 0x80)\n      jumpi(tag_1, lt(calldatasize, 0x04))\n      shr(0xe0, calldataload(0x00))\n      dup1\n      0x1beab5e8\n      eq\n      tag_2\n      jumpi\n      dup1\n      0xa541a2a2\n      eq\n      tag_3\n      jumpi\n      dup1\n      0xa8b93c8d\n      eq\n      tag_4\n      jumpi\n      dup1\n      0xc2052403\n      eq\n      tag_5\n      jumpi\n      dup1\n      0xd7bb99ba\n      eq\n      tag_6\n      jumpi\n      dup1\n      0xf020cd19\n      eq\n      tag_7\n      jumpi\n    tag_1:\n      0x00\n      dup1\n      revert\n        /* \"contracts/Project.sol\":3184:3459  function retreiveFunds() isCreator(msg.sender) inState(State.Fundraising) public {... */\n    tag_2:\n      callvalue\n      dup1\n      iszero\n      tag_8\n      jumpi\n      0x00\n      dup1\n      revert\n    tag_8:\n      pop\n      tag_9\n      tag_10\n      jump\t// in\n    tag_9:\n      stop\n        /* \"contracts/Project.sol\":360:397  address payable public projectCreator */\n    tag_3:\n      callvalue\n      dup1\n      iszero\n      tag_11\n      jumpi\n      0x00\n      dup1\n      revert\n    tag_11:\n      pop\n      tag_12\n      tag_13\n      jump\t// in\n    tag_12:\n      mload(0x40)\n      tag_14\n      swap2\n      swap1\n      tag_15\n      jump\t// in\n    tag_14:\n      mload(0x40)\n      dup1\n      swap2\n      sub\n      swap1\n      return\n        /* \"contracts/Project.sol\":3651:3757  function setProjectTitle(string memory _projectTitle) public {... */\n    tag_4:\n      callvalue\n      dup1\n      iszero\n      tag_16\n      jumpi\n      0x00\n      dup1\n      revert\n    tag_16:\n      pop\n      tag_17\n      0x04\n      dup1\n      calldatasize\n      sub\n      dup2\n      add\n      swap1\n      tag_18\n      swap2\n      swap1\n      tag_19\n      jump\t// in\n    tag_18:\n      tag_20\n      jump\t// in\n    tag_17:\n      stop\n        /* \"contracts/Project.sol\":2931:3092  function payOut() public inState(State.Successful){... */\n    tag_5:\n      callvalue\n      dup1\n      iszero\n      tag_21\n      jumpi\n      0x00\n      dup1\n      revert\n    tag_21:\n      pop\n      tag_22\n      tag_23\n      jump\t// in\n    tag_22:\n      stop\n        /* \"contracts/Project.sol\":2339:2695  function contribute() public payable inState(State.Fundraising) isFundingDelayNotExpired {... */\n    tag_6:\n      tag_24\n      tag_25\n      jump\t// in\n    tag_24:\n      stop\n        /* \"contracts/Project.sol\":3543:3641  function getProjectTitle() public view returns(string memory) {... */\n    tag_7:\n      callvalue\n      dup1\n      iszero\n      tag_26\n      jumpi\n      0x00\n      dup1\n      revert\n    tag_26:\n      pop\n      tag_27\n      tag_28\n      jump\t// in\n    tag_27:\n      mload(0x40)\n      tag_29\n      swap2\n      swap1\n      tag_30\n      jump\t// in\n    tag_29:\n      mload(0x40)\n      dup1\n      swap2\n      sub\n      swap1\n      return\n        /* \"contracts/Project.sol\":3184:3459  function retreiveFunds() isCreator(msg.sender) inState(State.Fundraising) public {... */\n    tag_10:\n        /* \"contracts/Project.sol\":3219:3229  msg.sender */\n      caller\n        /* \"contracts/Project.sol\":1298:1306  _address */\n      dup1\n        /* \"contracts/Project.sol\":1280:1306  projectCreator == _address */\n      0xffffffffffffffffffffffffffffffffffffffff\n      and\n        /* \"contracts/Project.sol\":1280:1294  projectCreator */\n      0x00\n      dup1\n      sload\n      swap1\n      0x0100\n      exp\n      swap1\n      div\n      0xffffffffffffffffffffffffffffffffffffffff\n      and\n        /* \"contracts/Project.sol\":1280:1306  projectCreator == _address */\n      0xffffffffffffffffffffffffffffffffffffffff\n      and\n      eq\n        /* \"contracts/Project.sol\":1272:1307  require(projectCreator == _address) */\n      tag_32\n      jumpi\n      0x00\n      dup1\n      revert\n    tag_32:\n        /* \"contracts/Project.sol\":3239:3256  State.Fundraising */\n      0x00\n        /* \"contracts/Project.sol\":1157:1163  _state */\n      dup1\n        /* \"contracts/Project.sol\":1148:1163  state == _state */\n      0x02\n      dup2\n      gt\n      iszero\n      tag_34\n      jumpi\n      tag_35\n      tag_36\n      jump\t// in\n    tag_35:\n    tag_34:\n        /* \"contracts/Project.sol\":1148:1153  state */\n      0x05\n      0x00\n      swap1\n      sload\n      swap1\n      0x0100\n      exp\n      swap1\n      div\n      0xff\n      and\n        /* \"contracts/Project.sol\":1148:1163  state == _state */\n      0x02\n      dup2\n      gt\n      iszero\n      tag_37\n      jumpi\n      tag_38\n      tag_36\n      jump\t// in\n    tag_38:\n    tag_37:\n      eq\n        /* \"contracts/Project.sol\":1140:1164  require(state == _state) */\n      tag_39\n      jumpi\n      0x00\n      dup1\n      revert\n    tag_39:\n        /* \"contracts/Project.sol\":3301:3309  deadLine */\n      sload(0x06)\n        /* \"contracts/Project.sol\":3283:3298  block.timestamp */\n      timestamp\n        /* \"contracts/Project.sol\":3283:3309  block.timestamp > deadLine */\n      gt\n        /* \"contracts/Project.sol\":3275:3310  require(block.timestamp > deadLine) */\n      tag_41\n      jumpi\n      0x00\n      dup1\n      revert\n    tag_41:\n        /* \"contracts/Project.sol\":3320:3343  setState(State.Expired) */\n      tag_42\n        /* \"contracts/Project.sol\":3329:3342  State.Expired */\n      0x01\n        /* \"contracts/Project.sol\":3320:3328  setState */\n      tag_43\n        /* \"contracts/Project.sol\":3320:3343  setState(State.Expired) */\n      jump\t// in\n    tag_42:\n        /* \"contracts/Project.sol\":3353:3367  projectCreator */\n      0x00\n      dup1\n      sload\n      swap1\n      0x0100\n      exp\n      swap1\n      div\n      0xffffffffffffffffffffffffffffffffffffffff\n      and\n        /* \"contracts/Project.sol\":3353:3376  projectCreator.transfer */\n      0xffffffffffffffffffffffffffffffffffffffff\n      and\n        /* \"contracts/Project.sol\":3353:3392  projectCreator.transfer(currentBalance) */\n      0x08fc\n        /* \"contracts/Project.sol\":3377:3391  currentBalance */\n      sload(0x04)\n        /* \"contracts/Project.sol\":3353:3392  projectCreator.transfer(currentBalance) */\n      swap1\n      dup2\n      iszero\n      mul\n      swap1\n      mload(0x40)\n      0x00\n      mload(0x40)\n      dup1\n      dup4\n      sub\n      dup2\n      dup6\n      dup9\n      dup9\n      call\n      swap4\n      pop\n      pop\n      pop\n      pop\n      iszero\n      dup1\n      iszero\n      tag_45\n      jumpi\n      returndatasize\n      0x00\n      dup1\n      returndatacopy\n      revert(0x00, returndatasize)\n    tag_45:\n      pop\n        /* \"contracts/Project.sol\":3407:3452  FundRetreived(\"Fund retreived\", projectTitle) */\n      0x6567369884327ec669abad9dc032c3fc1b6c1b77aed67e31f8311864551e74\n        /* \"contracts/Project.sol\":3439:3451  projectTitle */\n      0x01\n        /* \"contracts/Project.sol\":3407:3452  FundRetreived(\"Fund retreived\", projectTitle) */\n      mload(0x40)\n      tag_46\n      swap2\n      swap1\n      tag_47\n      jump\t// in\n    tag_46:\n      mload(0x40)\n      dup1\n      swap2\n      sub\n      swap1\n      log1\n        /* \"contracts/Project.sol\":1317:1318  _ */\n      pop\n        /* \"contracts/Project.sol\":3184:3459  function retreiveFunds() isCreator(msg.sender) inState(State.Fundraising) public {... */\n      pop\n      jump\t// out\n        /* \"contracts/Project.sol\":360:397  address payable public projectCreator */\n    tag_13:\n      0x00\n      dup1\n      sload\n      swap1\n      0x0100\n      exp\n      swap1\n      div\n      0xffffffffffffffffffffffffffffffffffffffff\n      and\n      dup2\n      jump\t// out\n        /* \"contracts/Project.sol\":3651:3757  function setProjectTitle(string memory _projectTitle) public {... */\n    tag_20:\n        /* \"contracts/Project.sol\":3737:3750  _projectTitle */\n      dup1\n        /* \"contracts/Project.sol\":3722:3734  projectTitle */\n      0x01\n        /* \"contracts/Project.sol\":3722:3750  projectTitle = _projectTitle */\n      swap1\n      dup1\n      mload\n      swap1\n      0x20\n      add\n      swap1\n      tag_49\n      swap3\n      swap2\n      swap1\n      tag_50\n      jump\t// in\n    tag_49:\n      pop\n        /* \"contracts/Project.sol\":3651:3757  function setProjectTitle(string memory _projectTitle) public {... */\n      pop\n      jump\t// out\n        /* \"contracts/Project.sol\":2931:3092  function payOut() public inState(State.Successful){... */\n    tag_23:\n        /* \"contracts/Project.sol\":2964:2980  State.Successful */\n      0x02\n        /* \"contracts/Project.sol\":1157:1163  _state */\n      dup1\n        /* \"contracts/Project.sol\":1148:1163  state == _state */\n      0x02\n      dup2\n      gt\n      iszero\n      tag_52\n      jumpi\n      tag_53\n      tag_36\n      jump\t// in\n    tag_53:\n    tag_52:\n        /* \"contracts/Project.sol\":1148:1153  state */\n      0x05\n      0x00\n      swap1\n      sload\n      swap1\n      0x0100\n      exp\n      swap1\n      div\n      0xff\n      and\n        /* \"contracts/Project.sol\":1148:1163  state == _state */\n      0x02\n      dup2\n      gt\n      iszero\n      tag_54\n      jumpi\n      tag_55\n      tag_36\n      jump\t// in\n    tag_55:\n    tag_54:\n      eq\n        /* \"contracts/Project.sol\":1140:1164  require(state == _state) */\n      tag_56\n      jumpi\n      0x00\n      dup1\n      revert\n    tag_56:\n        /* \"contracts/Project.sol\":2991:3005  projectCreator */\n      0x00\n      dup1\n      sload\n      swap1\n      0x0100\n      exp\n      swap1\n      div\n      0xffffffffffffffffffffffffffffffffffffffff\n      and\n        /* \"contracts/Project.sol\":2991:3014  projectCreator.transfer */\n      0xffffffffffffffffffffffffffffffffffffffff\n      and\n        /* \"contracts/Project.sol\":2991:3030  projectCreator.transfer(currentBalance) */\n      0x08fc\n        /* \"contracts/Project.sol\":3015:3029  currentBalance */\n      sload(0x04)\n        /* \"contracts/Project.sol\":2991:3030  projectCreator.transfer(currentBalance) */\n      swap1\n      dup2\n      iszero\n      mul\n      swap1\n      mload(0x40)\n      0x00\n      mload(0x40)\n      dup1\n      dup4\n      sub\n      dup2\n      dup6\n      dup9\n      dup9\n      call\n      swap4\n      pop\n      pop\n      pop\n      pop\n      iszero\n      dup1\n      iszero\n      tag_59\n      jumpi\n      returndatasize\n      0x00\n      dup1\n      returndatacopy\n      revert(0x00, returndatasize)\n    tag_59:\n      pop\n        /* \"contracts/Project.sol\":3045:3085  ProjectFunded(projectTitle, \"is Funded\") */\n      0xda700ea0a4f90d17381707c06ca4125e32c8a65b28e82ff0d1850af50a6d4ccd\n        /* \"contracts/Project.sol\":3059:3071  projectTitle */\n      0x01\n        /* \"contracts/Project.sol\":3045:3085  ProjectFunded(projectTitle, \"is Funded\") */\n      mload(0x40)\n      tag_60\n      swap2\n      swap1\n      tag_61\n      jump\t// in\n    tag_60:\n      mload(0x40)\n      dup1\n      swap2\n      sub\n      swap1\n      log1\n        /* \"contracts/Project.sol\":2931:3092  function payOut() public inState(State.Successful){... */\n      pop\n      jump\t// out\n        /* \"contracts/Project.sol\":2339:2695  function contribute() public payable inState(State.Fundraising) isFundingDelayNotExpired {... */\n    tag_25:\n        /* \"contracts/Project.sol\":2384:2401  State.Fundraising */\n      0x00\n        /* \"contracts/Project.sol\":1157:1163  _state */\n      dup1\n        /* \"contracts/Project.sol\":1148:1163  state == _state */\n      0x02\n      dup2\n      gt\n      iszero\n      tag_63\n      jumpi\n      tag_64\n      tag_36\n      jump\t// in\n    tag_64:\n    tag_63:\n        /* \"contracts/Project.sol\":1148:1153  state */\n      0x05\n      0x00\n      swap1\n      sload\n      swap1\n      0x0100\n      exp\n      swap1\n      div\n      0xff\n      and\n        /* \"contracts/Project.sol\":1148:1163  state == _state */\n      0x02\n      dup2\n      gt\n      iszero\n      tag_65\n      jumpi\n      tag_66\n      tag_36\n      jump\t// in\n    tag_66:\n    tag_65:\n      eq\n        /* \"contracts/Project.sol\":1140:1164  require(state == _state) */\n      tag_67\n      jumpi\n      0x00\n      dup1\n      revert\n    tag_67:\n        /* \"contracts/Project.sol\":1460:1468  deadLine */\n      sload(0x06)\n        /* \"contracts/Project.sol\":1441:1456  block.timestamp */\n      timestamp\n        /* \"contracts/Project.sol\":1441:1468  block.timestamp <= deadLine */\n      gt\n      iszero\n        /* \"contracts/Project.sol\":1433:1469  require(block.timestamp <= deadLine) */\n      tag_69\n      jumpi\n      0x00\n      dup1\n      revert\n    tag_69:\n        /* \"contracts/Project.sol\":2460:2474  projectCreator */\n      0x00\n      dup1\n      sload\n      swap1\n      0x0100\n      exp\n      swap1\n      div\n      0xffffffffffffffffffffffffffffffffffffffff\n      and\n        /* \"contracts/Project.sol\":2446:2474  msg.sender != projectCreator */\n      0xffffffffffffffffffffffffffffffffffffffff\n      and\n        /* \"contracts/Project.sol\":2446:2456  msg.sender */\n      caller\n        /* \"contracts/Project.sol\":2446:2474  msg.sender != projectCreator */\n      0xffffffffffffffffffffffffffffffffffffffff\n      and\n      sub\n        /* \"contracts/Project.sol\":2438:2475  require(msg.sender != projectCreator) */\n      tag_71\n      jumpi\n      0x00\n      dup1\n      revert\n    tag_71:\n        /* \"contracts/Project.sol\":2513:2553  contributions[msg.sender].add(msg.value) */\n      tag_72\n        /* \"contracts/Project.sol\":2543:2552  msg.value */\n      callvalue\n        /* \"contracts/Project.sol\":2513:2526  contributions */\n      0x07\n        /* \"contracts/Project.sol\":2513:2538  contributions[msg.sender] */\n      0x00\n        /* \"contracts/Project.sol\":2527:2537  msg.sender */\n      caller\n        /* \"contracts/Project.sol\":2513:2538  contributions[msg.sender] */\n      0xffffffffffffffffffffffffffffffffffffffff\n      and\n      0xffffffffffffffffffffffffffffffffffffffff\n      and\n      dup2\n      mstore\n      0x20\n      add\n      swap1\n      dup2\n      mstore\n      0x20\n      add\n      0x00\n      keccak256\n      sload\n        /* \"contracts/Project.sol\":2513:2542  contributions[msg.sender].add */\n      tag_73\n      swap1\n        /* \"contracts/Project.sol\":2513:2553  contributions[msg.sender].add(msg.value) */\n      swap2\n      swap1\n      0xffffffff\n      and\n      jump\t// in\n    tag_72:\n        /* \"contracts/Project.sol\":2485:2498  contributions */\n      0x07\n        /* \"contracts/Project.sol\":2485:2510  contributions[msg.sender] */\n      0x00\n        /* \"contracts/Project.sol\":2499:2509  msg.sender */\n      caller\n        /* \"contracts/Project.sol\":2485:2510  contributions[msg.sender] */\n      0xffffffffffffffffffffffffffffffffffffffff\n      and\n      0xffffffffffffffffffffffffffffffffffffffff\n      and\n      dup2\n      mstore\n      0x20\n      add\n      swap1\n      dup2\n      mstore\n      0x20\n      add\n      0x00\n      keccak256\n        /* \"contracts/Project.sol\":2485:2553  contributions[msg.sender] = contributions[msg.sender].add(msg.value) */\n      dup2\n      swap1\n      sstore\n      pop\n        /* \"contracts/Project.sol\":2598:2607  msg.value */\n      callvalue\n        /* \"contracts/Project.sol\":2581:2595  currentBalance */\n      sload(0x04)\n        /* \"contracts/Project.sol\":2581:2607  currentBalance + msg.value */\n      tag_74\n      swap2\n      swap1\n      tag_75\n      jump\t// in\n    tag_74:\n        /* \"contracts/Project.sol\":2564:2578  currentBalance */\n      0x04\n        /* \"contracts/Project.sol\":2564:2607  currentBalance = currentBalance + msg.value */\n      dup2\n      swap1\n      sstore\n      pop\n        /* \"contracts/Project.sol\":2623:2660  FundReceivedBy(msg.sender, msg.value) */\n      0x75ae3e7c973a88747144369f710c5999060a6321be0506174d3f5c64bdfc674e\n        /* \"contracts/Project.sol\":2638:2648  msg.sender */\n      caller\n        /* \"contracts/Project.sol\":2650:2659  msg.value */\n      callvalue\n        /* \"contracts/Project.sol\":2623:2660  FundReceivedBy(msg.sender, msg.value) */\n      mload(0x40)\n      tag_76\n      swap3\n      swap2\n      swap1\n      tag_77\n      jump\t// in\n    tag_76:\n      mload(0x40)\n      dup1\n      swap2\n      sub\n      swap1\n      log1\n        /* \"contracts/Project.sol\":2670:2688  checkGoalReached() */\n      tag_78\n        /* \"contracts/Project.sol\":2670:2686  checkGoalReached */\n      tag_79\n        /* \"contracts/Project.sol\":2670:2688  checkGoalReached() */\n      jump\t// in\n    tag_78:\n        /* \"contracts/Project.sol\":2339:2695  function contribute() public payable inState(State.Fundraising) isFundingDelayNotExpired {... */\n      pop\n      jump\t// out\n        /* \"contracts/Project.sol\":3543:3641  function getProjectTitle() public view returns(string memory) {... */\n    tag_28:\n        /* \"contracts/Project.sol\":3590:3603  string memory */\n      0x60\n        /* \"contracts/Project.sol\":3622:3634  projectTitle */\n      0x01\n        /* \"contracts/Project.sol\":3615:3634  return projectTitle */\n      dup1\n      sload\n      tag_81\n      swap1\n      tag_82\n      jump\t// in\n    tag_81:\n      dup1\n      0x1f\n      add\n      0x20\n      dup1\n      swap2\n      div\n      mul\n      0x20\n      add\n      mload(0x40)\n      swap1\n      dup2\n      add\n      0x40\n      mstore\n      dup1\n      swap3\n      swap2\n      swap1\n      dup2\n      dup2\n      mstore\n      0x20\n      add\n      dup3\n      dup1\n      sload\n      tag_83\n      swap1\n      tag_82\n      jump\t// in\n    tag_83:\n      dup1\n      iszero\n      tag_84\n      jumpi\n      dup1\n      0x1f\n      lt\n      tag_85\n      jumpi\n      0x0100\n      dup1\n      dup4\n      sload\n      div\n      mul\n      dup4\n      mstore\n      swap2\n      0x20\n      add\n      swap2\n      jump(tag_84)\n    tag_85:\n      dup3\n      add\n      swap2\n      swap1\n      0x00\n      mstore\n      keccak256(0x00, 0x20)\n      swap1\n    tag_86:\n      dup2\n      sload\n      dup2\n      mstore\n      swap1\n      0x01\n      add\n      swap1\n      0x20\n      add\n      dup1\n      dup4\n      gt\n      tag_86\n      jumpi\n      dup3\n      swap1\n      sub\n      0x1f\n      and\n      dup3\n      add\n      swap2\n    tag_84:\n      pop\n      pop\n      pop\n      pop\n      pop\n      swap1\n      pop\n        /* \"contracts/Project.sol\":3543:3641  function getProjectTitle() public view returns(string memory) {... */\n      swap1\n      jump\t// out\n        /* \"contracts/Project.sol\":3465:3537  function setState(State _state) internal {... */\n    tag_43:\n        /* \"contracts/Project.sol\":3524:3530  _state */\n      dup1\n        /* \"contracts/Project.sol\":3516:3521  state */\n      0x05\n      0x00\n        /* \"contracts/Project.sol\":3516:3530  state = _state */\n      0x0100\n      exp\n      dup2\n      sload\n      dup2\n      0xff\n      mul\n      not\n      and\n      swap1\n      dup4\n      0x02\n      dup2\n      gt\n      iszero\n      tag_88\n      jumpi\n      tag_89\n      tag_36\n      jump\t// in\n    tag_89:\n    tag_88:\n      mul\n      or\n      swap1\n      sstore\n      pop\n        /* \"contracts/Project.sol\":3465:3537  function setState(State _state) internal {... */\n      pop\n      jump\t// out\n        /* \"https://github.com/OpenZeppelin/openzeppelin-contracts/blob/master/contracts/utils/math/SafeMath.sol\":2755:2851  function add(uint256 a, uint256 b) internal pure returns (uint256) {... */\n    tag_73:\n        /* \"https://github.com/OpenZeppelin/openzeppelin-contracts/blob/master/contracts/utils/math/SafeMath.sol\":2813:2820  uint256 */\n      0x00\n        /* \"https://github.com/OpenZeppelin/openzeppelin-contracts/blob/master/contracts/utils/math/SafeMath.sol\":2843:2844  b */\n      dup2\n        /* \"https://github.com/OpenZeppelin/openzeppelin-contracts/blob/master/contracts/utils/math/SafeMath.sol\":2839:2840  a */\n      dup4\n        /* \"https://github.com/OpenZeppelin/openzeppelin-contracts/blob/master/contracts/utils/math/SafeMath.sol\":2839:2844  a + b */\n      tag_91\n      swap2\n      swap1\n      tag_75\n      jump\t// in\n    tag_91:\n        /* \"https://github.com/OpenZeppelin/openzeppelin-contracts/blob/master/contracts/utils/math/SafeMath.sol\":2832:2844  return a + b */\n      swap1\n      pop\n        /* \"https://github.com/OpenZeppelin/openzeppelin-contracts/blob/master/contracts/utils/math/SafeMath.sol\":2755:2851  function add(uint256 a, uint256 b) internal pure returns (uint256) {... */\n      swap3\n      swap2\n      pop\n      pop\n      jump\t// out\n        /* \"contracts/Project.sol\":2702:2925  function checkGoalReached() internal {... */\n    tag_79:\n        /* \"contracts/Project.sol\":2766:2780  currentBalance */\n      sload(0x04)\n        /* \"contracts/Project.sol\":2752:2762  amountGoal */\n      sload(0x03)\n        /* \"contracts/Project.sol\":2752:2780  amountGoal >= currentBalance */\n      lt\n        /* \"contracts/Project.sol\":2749:2919  if(amountGoal >= currentBalance){... */\n      tag_93\n      jumpi\n        /* \"contracts/Project.sol\":2800:2848  GoalReached(\"The Goal is reached\", projectTitle) */\n      0x15ac727d1ca51352f519e3f5899500ead795e56a4a39ceafeea835331346017a\n        /* \"contracts/Project.sol\":2835:2847  projectTitle */\n      0x01\n        /* \"contracts/Project.sol\":2800:2848  GoalReached(\"The Goal is reached\", projectTitle) */\n      mload(0x40)\n      tag_94\n      swap2\n      swap1\n      tag_95\n      jump\t// in\n    tag_94:\n      mload(0x40)\n      dup1\n      swap2\n      sub\n      swap1\n      log1\n        /* \"contracts/Project.sol\":2870:2886  State.Successful */\n      0x02\n        /* \"contracts/Project.sol\":2862:2867  state */\n      0x05\n      0x00\n        /* \"contracts/Project.sol\":2862:2886  state = State.Successful */\n      0x0100\n      exp\n      dup2\n      sload\n      dup2\n      0xff\n      mul\n      not\n      and\n      swap1\n      dup4\n      0x02\n      dup2\n      gt\n      iszero\n      tag_96\n      jumpi\n      tag_97\n      tag_36\n      jump\t// in\n    tag_97:\n    tag_96:\n      mul\n      or\n      swap1\n      sstore\n      pop\n        /* \"contracts/Project.sol\":2900:2908  payOut() */\n      tag_98\n        /* \"contracts/Project.sol\":2900:2906  payOut */\n      tag_23\n        /* \"contracts/Project.sol\":2900:2908  payOut() */\n      jump\t// in\n    tag_98:\n        /* \"contracts/Project.sol\":2749:2919  if(amountGoal >= currentBalance){... */\n    tag_93:\n        /* \"contracts/Project.sol\":2702:2925  function checkGoalReached() internal {... */\n      jump\t// out\n    tag_50:\n      dup3\n      dup1\n      sload\n      tag_99\n      swap1\n      tag_82\n      jump\t// in\n    tag_99:\n      swap1\n      0x00\n      mstore\n      keccak256(0x00, 0x20)\n      swap1\n      0x1f\n      add\n      0x20\n      swap1\n      div\n      dup2\n      add\n      swap3\n      dup3\n      tag_101\n      jumpi\n      0x00\n      dup6\n      sstore\n      jump(tag_100)\n    tag_101:\n      dup3\n      0x1f\n      lt\n      tag_102\n      jumpi\n      dup1\n      mload\n      not(0xff)\n      and\n      dup4\n      dup1\n      add\n      or\n      dup6\n      sstore\n      jump(tag_100)\n    tag_102:\n      dup3\n      dup1\n      add\n      0x01\n      add\n      dup6\n      sstore\n      dup3\n      iszero\n      tag_100\n      jumpi\n      swap2\n      dup3\n      add\n    tag_103:\n      dup3\n      dup2\n      gt\n      iszero\n      tag_104\n      jumpi\n      dup3\n      mload\n      dup3\n      sstore\n      swap2\n      0x20\n      add\n      swap2\n      swap1\n      0x01\n      add\n      swap1\n      jump(tag_103)\n    tag_104:\n    tag_100:\n      pop\n      swap1\n      pop\n      tag_105\n      swap2\n      swap1\n      tag_106\n      jump\t// in\n    tag_105:\n      pop\n      swap1\n      jump\t// out\n    tag_106:\n    tag_107:\n      dup1\n      dup3\n      gt\n      iszero\n      tag_108\n      jumpi\n      0x00\n      dup2\n      0x00\n      swap1\n      sstore\n      pop\n      0x01\n      add\n      jump(tag_107)\n    tag_108:\n      pop\n      swap1\n      jump\t// out\n        /* \"#utility.yul\":7:133   */\n    tag_109:\n        /* \"#utility.yul\":44:51   */\n      0x00\n        /* \"#utility.yul\":84:126   */\n      0xffffffffffffffffffffffffffffffffffffffff\n        /* \"#utility.yul\":77:82   */\n      dup3\n        /* \"#utility.yul\":73:127   */\n      and\n        /* \"#utility.yul\":62:127   */\n      swap1\n      pop\n        /* \"#utility.yul\":7:133   */\n      swap2\n      swap1\n      pop\n      jump\t// out\n        /* \"#utility.yul\":139:243   */\n    tag_110:\n        /* \"#utility.yul\":184:191   */\n      0x00\n        /* \"#utility.yul\":213:237   */\n      tag_146\n        /* \"#utility.yul\":231:236   */\n      dup3\n        /* \"#utility.yul\":213:237   */\n      tag_109\n      jump\t// in\n    tag_146:\n        /* \"#utility.yul\":202:237   */\n      swap1\n      pop\n        /* \"#utility.yul\":139:243   */\n      swap2\n      swap1\n      pop\n      jump\t// out\n        /* \"#utility.yul\":249:391   */\n    tag_111:\n        /* \"#utility.yul\":352:384   */\n      tag_148\n        /* \"#utility.yul\":378:383   */\n      dup2\n        /* \"#utility.yul\":352:384   */\n      tag_110\n      jump\t// in\n    tag_148:\n        /* \"#utility.yul\":347:350   */\n      dup3\n        /* \"#utility.yul\":340:385   */\n      mstore\n        /* \"#utility.yul\":249:391   */\n      pop\n      pop\n      jump\t// out\n        /* \"#utility.yul\":397:651   */\n    tag_15:\n        /* \"#utility.yul\":506:510   */\n      0x00\n        /* \"#utility.yul\":544:546   */\n      0x20\n        /* \"#utility.yul\":533:542   */\n      dup3\n        /* \"#utility.yul\":529:547   */\n      add\n        /* \"#utility.yul\":521:547   */\n      swap1\n      pop\n        /* \"#utility.yul\":557:644   */\n      tag_150\n        /* \"#utility.yul\":641:642   */\n      0x00\n        /* \"#utility.yul\":630:639   */\n      dup4\n        /* \"#utility.yul\":626:643   */\n      add\n        /* \"#utility.yul\":617:623   */\n      dup5\n        /* \"#utility.yul\":557:644   */\n      tag_111\n      jump\t// in\n    tag_150:\n        /* \"#utility.yul\":397:651   */\n      swap3\n      swap2\n      pop\n      pop\n      jump\t// out\n        /* \"#utility.yul\":657:732   */\n    tag_112:\n        /* \"#utility.yul\":690:696   */\n      0x00\n        /* \"#utility.yul\":723:725   */\n      0x40\n        /* \"#utility.yul\":717:726   */\n      mload\n        /* \"#utility.yul\":707:726   */\n      swap1\n      pop\n        /* \"#utility.yul\":657:732   */\n      swap1\n      jump\t// out\n        /* \"#utility.yul\":738:855   */\n    tag_113:\n        /* \"#utility.yul\":847:848   */\n      0x00\n        /* \"#utility.yul\":844:845   */\n      dup1\n        /* \"#utility.yul\":837:849   */\n      revert\n        /* \"#utility.yul\":861:978   */\n    tag_114:\n        /* \"#utility.yul\":970:971   */\n      0x00\n        /* \"#utility.yul\":967:968   */\n      dup1\n        /* \"#utility.yul\":960:972   */\n      revert\n        /* \"#utility.yul\":984:1101   */\n    tag_115:\n        /* \"#utility.yul\":1093:1094   */\n      0x00\n        /* \"#utility.yul\":1090:1091   */\n      dup1\n        /* \"#utility.yul\":1083:1095   */\n      revert\n        /* \"#utility.yul\":1107:1224   */\n    tag_116:\n        /* \"#utility.yul\":1216:1217   */\n      0x00\n        /* \"#utility.yul\":1213:1214   */\n      dup1\n        /* \"#utility.yul\":1206:1218   */\n      revert\n        /* \"#utility.yul\":1230:1332   */\n    tag_117:\n        /* \"#utility.yul\":1271:1277   */\n      0x00\n        /* \"#utility.yul\":1322:1324   */\n      0x1f\n        /* \"#utility.yul\":1318:1325   */\n      not\n        /* \"#utility.yul\":1313:1315   */\n      0x1f\n        /* \"#utility.yul\":1306:1311   */\n      dup4\n        /* \"#utility.yul\":1302:1316   */\n      add\n        /* \"#utility.yul\":1298:1326   */\n      and\n        /* \"#utility.yul\":1288:1326   */\n      swap1\n      pop\n        /* \"#utility.yul\":1230:1332   */\n      swap2\n      swap1\n      pop\n      jump\t// out\n        /* \"#utility.yul\":1338:1518   */\n    tag_118:\n        /* \"#utility.yul\":1386:1463   */\n      0x4e487b7100000000000000000000000000000000000000000000000000000000\n        /* \"#utility.yul\":1383:1384   */\n      0x00\n        /* \"#utility.yul\":1376:1464   */\n      mstore\n        /* \"#utility.yul\":1483:1487   */\n      0x41\n        /* \"#utility.yul\":1480:1481   */\n      0x04\n        /* \"#utility.yul\":1473:1488   */\n      mstore\n        /* \"#utility.yul\":1507:1511   */\n      0x24\n        /* \"#utility.yul\":1504:1505   */\n      0x00\n        /* \"#utility.yul\":1497:1512   */\n      revert\n        /* \"#utility.yul\":1524:1805   */\n    tag_119:\n        /* \"#utility.yul\":1607:1634   */\n      tag_159\n        /* \"#utility.yul\":1629:1633   */\n      dup3\n        /* \"#utility.yul\":1607:1634   */\n      tag_117\n      jump\t// in\n    tag_159:\n        /* \"#utility.yul\":1599:1605   */\n      dup2\n        /* \"#utility.yul\":1595:1635   */\n      add\n        /* \"#utility.yul\":1737:1743   */\n      dup2\n        /* \"#utility.yul\":1725:1735   */\n      dup2\n        /* \"#utility.yul\":1722:1744   */\n      lt\n        /* \"#utility.yul\":1701:1719   */\n      0xffffffffffffffff\n        /* \"#utility.yul\":1689:1699   */\n      dup3\n        /* \"#utility.yul\":1686:1720   */\n      gt\n        /* \"#utility.yul\":1683:1745   */\n      or\n        /* \"#utility.yul\":1680:1768   */\n      iszero\n      tag_160\n      jumpi\n        /* \"#utility.yul\":1748:1766   */\n      tag_161\n      tag_118\n      jump\t// in\n    tag_161:\n        /* \"#utility.yul\":1680:1768   */\n    tag_160:\n        /* \"#utility.yul\":1788:1798   */\n      dup1\n        /* \"#utility.yul\":1784:1786   */\n      0x40\n        /* \"#utility.yul\":1777:1799   */\n      mstore\n        /* \"#utility.yul\":1567:1805   */\n      pop\n        /* \"#utility.yul\":1524:1805   */\n      pop\n      pop\n      jump\t// out\n        /* \"#utility.yul\":1811:1940   */\n    tag_120:\n        /* \"#utility.yul\":1845:1851   */\n      0x00\n        /* \"#utility.yul\":1872:1892   */\n      tag_163\n      tag_112\n      jump\t// in\n    tag_163:\n        /* \"#utility.yul\":1862:1892   */\n      swap1\n      pop\n        /* \"#utility.yul\":1901:1934   */\n      tag_164\n        /* \"#utility.yul\":1929:1933   */\n      dup3\n        /* \"#utility.yul\":1921:1927   */\n      dup3\n        /* \"#utility.yul\":1901:1934   */\n      tag_119\n      jump\t// in\n    tag_164:\n        /* \"#utility.yul\":1811:1940   */\n      swap2\n      swap1\n      pop\n      jump\t// out\n        /* \"#utility.yul\":1946:2254   */\n    tag_121:\n        /* \"#utility.yul\":2008:2012   */\n      0x00\n        /* \"#utility.yul\":2098:2116   */\n      0xffffffffffffffff\n        /* \"#utility.yul\":2090:2096   */\n      dup3\n        /* \"#utility.yul\":2087:2117   */\n      gt\n        /* \"#utility.yul\":2084:2140   */\n      iszero\n      tag_166\n      jumpi\n        /* \"#utility.yul\":2120:2138   */\n      tag_167\n      tag_118\n      jump\t// in\n    tag_167:\n        /* \"#utility.yul\":2084:2140   */\n    tag_166:\n        /* \"#utility.yul\":2158:2187   */\n      tag_168\n        /* \"#utility.yul\":2180:2186   */\n      dup3\n        /* \"#utility.yul\":2158:2187   */\n      tag_117\n      jump\t// in\n    tag_168:\n        /* \"#utility.yul\":2150:2187   */\n      swap1\n      pop\n        /* \"#utility.yul\":2242:2246   */\n      0x20\n        /* \"#utility.yul\":2236:2240   */\n      dup2\n        /* \"#utility.yul\":2232:2247   */\n      add\n        /* \"#utility.yul\":2224:2247   */\n      swap1\n      pop\n        /* \"#utility.yul\":1946:2254   */\n      swap2\n      swap1\n      pop\n      jump\t// out\n        /* \"#utility.yul\":2260:2414   */\n    tag_122:\n        /* \"#utility.yul\":2344:2350   */\n      dup3\n        /* \"#utility.yul\":2339:2342   */\n      dup2\n        /* \"#utility.yul\":2334:2337   */\n      dup4\n        /* \"#utility.yul\":2321:2351   */\n      calldatacopy\n        /* \"#utility.yul\":2406:2407   */\n      0x00\n        /* \"#utility.yul\":2397:2403   */\n      dup4\n        /* \"#utility.yul\":2392:2395   */\n      dup4\n        /* \"#utility.yul\":2388:2404   */\n      add\n        /* \"#utility.yul\":2381:2408   */\n      mstore\n        /* \"#utility.yul\":2260:2414   */\n      pop\n      pop\n      pop\n      jump\t// out\n        /* \"#utility.yul\":2420:2832   */\n    tag_123:\n        /* \"#utility.yul\":2498:2503   */\n      0x00\n        /* \"#utility.yul\":2523:2589   */\n      tag_171\n        /* \"#utility.yul\":2539:2588   */\n      tag_172\n        /* \"#utility.yul\":2581:2587   */\n      dup5\n        /* \"#utility.yul\":2539:2588   */\n      tag_121\n      jump\t// in\n    tag_172:\n        /* \"#utility.yul\":2523:2589   */\n      tag_120\n      jump\t// in\n    tag_171:\n        /* \"#utility.yul\":2514:2589   */\n      swap1\n      pop\n        /* \"#utility.yul\":2612:2618   */\n      dup3\n        /* \"#utility.yul\":2605:2610   */\n      dup2\n        /* \"#utility.yul\":2598:2619   */\n      mstore\n        /* \"#utility.yul\":2650:2654   */\n      0x20\n        /* \"#utility.yul\":2643:2648   */\n      dup2\n        /* \"#utility.yul\":2639:2655   */\n      add\n        /* \"#utility.yul\":2688:2691   */\n      dup5\n        /* \"#utility.yul\":2679:2685   */\n      dup5\n        /* \"#utility.yul\":2674:2677   */\n      dup5\n        /* \"#utility.yul\":2670:2686   */\n      add\n        /* \"#utility.yul\":2667:2692   */\n      gt\n        /* \"#utility.yul\":2664:2776   */\n      iszero\n      tag_173\n      jumpi\n        /* \"#utility.yul\":2695:2774   */\n      tag_174\n      tag_116\n      jump\t// in\n    tag_174:\n        /* \"#utility.yul\":2664:2776   */\n    tag_173:\n        /* \"#utility.yul\":2785:2826   */\n      tag_175\n        /* \"#utility.yul\":2819:2825   */\n      dup5\n        /* \"#utility.yul\":2814:2817   */\n      dup3\n        /* \"#utility.yul\":2809:2812   */\n      dup6\n        /* \"#utility.yul\":2785:2826   */\n      tag_122\n      jump\t// in\n    tag_175:\n        /* \"#utility.yul\":2504:2832   */\n      pop\n        /* \"#utility.yul\":2420:2832   */\n      swap4\n      swap3\n      pop\n      pop\n      pop\n      jump\t// out\n        /* \"#utility.yul\":2852:3192   */\n    tag_124:\n        /* \"#utility.yul\":2908:2913   */\n      0x00\n        /* \"#utility.yul\":2957:2960   */\n      dup3\n        /* \"#utility.yul\":2950:2954   */\n      0x1f\n        /* \"#utility.yul\":2942:2948   */\n      dup4\n        /* \"#utility.yul\":2938:2955   */\n      add\n        /* \"#utility.yul\":2934:2961   */\n      slt\n        /* \"#utility.yul\":2924:3046   */\n      tag_177\n      jumpi\n        /* \"#utility.yul\":2965:3044   */\n      tag_178\n      tag_115\n      jump\t// in\n    tag_178:\n        /* \"#utility.yul\":2924:3046   */\n    tag_177:\n        /* \"#utility.yul\":3082:3088   */\n      dup2\n        /* \"#utility.yul\":3069:3089   */\n      calldataload\n        /* \"#utility.yul\":3107:3186   */\n      tag_179\n        /* \"#utility.yul\":3182:3185   */\n      dup5\n        /* \"#utility.yul\":3174:3180   */\n      dup3\n        /* \"#utility.yul\":3167:3171   */\n      0x20\n        /* \"#utility.yul\":3159:3165   */\n      dup7\n        /* \"#utility.yul\":3155:3172   */\n      add\n        /* \"#utility.yul\":3107:3186   */\n      tag_123\n      jump\t// in\n    tag_179:\n        /* \"#utility.yul\":3098:3186   */\n      swap2\n      pop\n        /* \"#utility.yul\":2914:3192   */\n      pop\n        /* \"#utility.yul\":2852:3192   */\n      swap3\n      swap2\n      pop\n      pop\n      jump\t// out\n        /* \"#utility.yul\":3198:3707   */\n    tag_19:\n        /* \"#utility.yul\":3267:3273   */\n      0x00\n        /* \"#utility.yul\":3316:3318   */\n      0x20\n        /* \"#utility.yul\":3304:3313   */\n      dup3\n        /* \"#utility.yul\":3295:3302   */\n      dup5\n        /* \"#utility.yul\":3291:3314   */\n      sub\n        /* \"#utility.yul\":3287:3319   */\n      slt\n        /* \"#utility.yul\":3284:3403   */\n      iszero\n      tag_181\n      jumpi\n        /* \"#utility.yul\":3322:3401   */\n      tag_182\n      tag_113\n      jump\t// in\n    tag_182:\n        /* \"#utility.yul\":3284:3403   */\n    tag_181:\n        /* \"#utility.yul\":3470:3471   */\n      0x00\n        /* \"#utility.yul\":3459:3468   */\n      dup3\n        /* \"#utility.yul\":3455:3472   */\n      add\n        /* \"#utility.yul\":3442:3473   */\n      calldataload\n        /* \"#utility.yul\":3500:3518   */\n      0xffffffffffffffff\n        /* \"#utility.yul\":3492:3498   */\n      dup2\n        /* \"#utility.yul\":3489:3519   */\n      gt\n        /* \"#utility.yul\":3486:3603   */\n      iszero\n      tag_183\n      jumpi\n        /* \"#utility.yul\":3522:3601   */\n      tag_184\n      tag_114\n      jump\t// in\n    tag_184:\n        /* \"#utility.yul\":3486:3603   */\n    tag_183:\n        /* \"#utility.yul\":3627:3690   */\n      tag_185\n        /* \"#utility.yul\":3682:3689   */\n      dup5\n        /* \"#utility.yul\":3673:3679   */\n      dup3\n        /* \"#utility.yul\":3662:3671   */\n      dup6\n        /* \"#utility.yul\":3658:3680   */\n      add\n        /* \"#utility.yul\":3627:3690   */\n      tag_124\n      jump\t// in\n    tag_185:\n        /* \"#utility.yul\":3617:3690   */\n      swap2\n      pop\n        /* \"#utility.yul\":3413:3700   */\n      pop\n        /* \"#utility.yul\":3198:3707   */\n      swap3\n      swap2\n      pop\n      pop\n      jump\t// out\n        /* \"#utility.yul\":3713:3812   */\n    tag_125:\n        /* \"#utility.yul\":3765:3771   */\n      0x00\n        /* \"#utility.yul\":3799:3804   */\n      dup2\n        /* \"#utility.yul\":3793:3805   */\n      mload\n        /* \"#utility.yul\":3783:3805   */\n      swap1\n      pop\n        /* \"#utility.yul\":3713:3812   */\n      swap2\n      swap1\n      pop\n      jump\t// out\n        /* \"#utility.yul\":3818:3987   */\n    tag_126:\n        /* \"#utility.yul\":3902:3913   */\n      0x00\n        /* \"#utility.yul\":3936:3942   */\n      dup3\n        /* \"#utility.yul\":3931:3934   */\n      dup3\n        /* \"#utility.yul\":3924:3943   */\n      mstore\n        /* \"#utility.yul\":3976:3980   */\n      0x20\n        /* \"#utility.yul\":3971:3974   */\n      dup3\n        /* \"#utility.yul\":3967:3981   */\n      add\n        /* \"#utility.yul\":3952:3981   */\n      swap1\n      pop\n        /* \"#utility.yul\":3818:3987   */\n      swap3\n      swap2\n      pop\n      pop\n      jump\t// out\n        /* \"#utility.yul\":3993:4300   */\n    tag_127:\n        /* \"#utility.yul\":4061:4062   */\n      0x00\n        /* \"#utility.yul\":4071:4184   */\n    tag_189:\n        /* \"#utility.yul\":4085:4091   */\n      dup4\n        /* \"#utility.yul\":4082:4083   */\n      dup2\n        /* \"#utility.yul\":4079:4092   */\n      lt\n        /* \"#utility.yul\":4071:4184   */\n      iszero\n      tag_191\n      jumpi\n        /* \"#utility.yul\":4170:4171   */\n      dup1\n        /* \"#utility.yul\":4165:4168   */\n      dup3\n        /* \"#utility.yul\":4161:4172   */\n      add\n        /* \"#utility.yul\":4155:4173   */\n      mload\n        /* \"#utility.yul\":4151:4152   */\n      dup2\n        /* \"#utility.yul\":4146:4149   */\n      dup5\n        /* \"#utility.yul\":4142:4153   */\n      add\n        /* \"#utility.yul\":4135:4174   */\n      mstore\n        /* \"#utility.yul\":4107:4109   */\n      0x20\n        /* \"#utility.yul\":4104:4105   */\n      dup2\n        /* \"#utility.yul\":4100:4110   */\n      add\n        /* \"#utility.yul\":4095:4110   */\n      swap1\n      pop\n        /* \"#utility.yul\":4071:4184   */\n      jump(tag_189)\n    tag_191:\n        /* \"#utility.yul\":4202:4208   */\n      dup4\n        /* \"#utility.yul\":4199:4200   */\n      dup2\n        /* \"#utility.yul\":4196:4209   */\n      gt\n        /* \"#utility.yul\":4193:4294   */\n      iszero\n      tag_192\n      jumpi\n        /* \"#utility.yul\":4282:4283   */\n      0x00\n        /* \"#utility.yul\":4273:4279   */\n      dup5\n        /* \"#utility.yul\":4268:4271   */\n      dup5\n        /* \"#utility.yul\":4264:4280   */\n      add\n        /* \"#utility.yul\":4257:4284   */\n      mstore\n        /* \"#utility.yul\":4193:4294   */\n    tag_192:\n        /* \"#utility.yul\":4042:4300   */\n      pop\n        /* \"#utility.yul\":3993:4300   */\n      pop\n      pop\n      pop\n      jump\t// out\n        /* \"#utility.yul\":4306:4670   */\n    tag_128:\n        /* \"#utility.yul\":4394:4397   */\n      0x00\n        /* \"#utility.yul\":4422:4461   */\n      tag_194\n        /* \"#utility.yul\":4455:4460   */\n      dup3\n        /* \"#utility.yul\":4422:4461   */\n      tag_125\n      jump\t// in\n    tag_194:\n        /* \"#utility.yul\":4477:4548   */\n      tag_195\n        /* \"#utility.yul\":4541:4547   */\n      dup2\n        /* \"#utility.yul\":4536:4539   */\n      dup6\n        /* \"#utility.yul\":4477:4548   */\n      tag_126\n      jump\t// in\n    tag_195:\n        /* \"#utility.yul\":4470:4548   */\n      swap4\n      pop\n        /* \"#utility.yul\":4557:4609   */\n      tag_196\n        /* \"#utility.yul\":4602:4608   */\n      dup2\n        /* \"#utility.yul\":4597:4600   */\n      dup6\n        /* \"#utility.yul\":4590:4594   */\n      0x20\n        /* \"#utility.yul\":4583:4588   */\n      dup7\n        /* \"#utility.yul\":4579:4595   */\n      add\n        /* \"#utility.yul\":4557:4609   */\n      tag_127\n      jump\t// in\n    tag_196:\n        /* \"#utility.yul\":4634:4663   */\n      tag_197\n        /* \"#utility.yul\":4656:4662   */\n      dup2\n        /* \"#utility.yul\":4634:4663   */\n      tag_117\n      jump\t// in\n    tag_197:\n        /* \"#utility.yul\":4629:4632   */\n      dup5\n        /* \"#utility.yul\":4625:4664   */\n      add\n        /* \"#utility.yul\":4618:4664   */\n      swap2\n      pop\n        /* \"#utility.yul\":4398:4670   */\n      pop\n        /* \"#utility.yul\":4306:4670   */\n      swap3\n      swap2\n      pop\n      pop\n      jump\t// out\n        /* \"#utility.yul\":4676:4989   */\n    tag_30:\n        /* \"#utility.yul\":4789:4793   */\n      0x00\n        /* \"#utility.yul\":4827:4829   */\n      0x20\n        /* \"#utility.yul\":4816:4825   */\n      dup3\n        /* \"#utility.yul\":4812:4830   */\n      add\n        /* \"#utility.yul\":4804:4830   */\n      swap1\n      pop\n        /* \"#utility.yul\":4876:4885   */\n      dup2\n        /* \"#utility.yul\":4870:4874   */\n      dup2\n        /* \"#utility.yul\":4866:4886   */\n      sub\n        /* \"#utility.yul\":4862:4863   */\n      0x00\n        /* \"#utility.yul\":4851:4860   */\n      dup4\n        /* \"#utility.yul\":4847:4864   */\n      add\n        /* \"#utility.yul\":4840:4887   */\n      mstore\n        /* \"#utility.yul\":4904:4982   */\n      tag_199\n        /* \"#utility.yul\":4977:4981   */\n      dup2\n        /* \"#utility.yul\":4968:4974   */\n      dup5\n        /* \"#utility.yul\":4904:4982   */\n      tag_128\n      jump\t// in\n    tag_199:\n        /* \"#utility.yul\":4896:4982   */\n      swap1\n      pop\n        /* \"#utility.yul\":4676:4989   */\n      swap3\n      swap2\n      pop\n      pop\n      jump\t// out\n        /* \"#utility.yul\":4995:5175   */\n    tag_36:\n        /* \"#utility.yul\":5043:5120   */\n      0x4e487b7100000000000000000000000000000000000000000000000000000000\n        /* \"#utility.yul\":5040:5041   */\n      0x00\n        /* \"#utility.yul\":5033:5121   */\n      mstore\n        /* \"#utility.yul\":5140:5144   */\n      0x21\n        /* \"#utility.yul\":5137:5138   */\n      0x04\n        /* \"#utility.yul\":5130:5145   */\n      mstore\n        /* \"#utility.yul\":5164:5168   */\n      0x24\n        /* \"#utility.yul\":5161:5162   */\n      0x00\n        /* \"#utility.yul\":5154:5169   */\n      revert\n        /* \"#utility.yul\":5181:5345   */\n    tag_129:\n        /* \"#utility.yul\":5321:5337   */\n      0x46756e6420726574726569766564000000000000000000000000000000000000\n        /* \"#utility.yul\":5317:5318   */\n      0x00\n        /* \"#utility.yul\":5309:5315   */\n      dup3\n        /* \"#utility.yul\":5305:5319   */\n      add\n        /* \"#utility.yul\":5298:5338   */\n      mstore\n        /* \"#utility.yul\":5181:5345   */\n      pop\n      jump\t// out\n        /* \"#utility.yul\":5351:5717   */\n    tag_130:\n        /* \"#utility.yul\":5493:5496   */\n      0x00\n        /* \"#utility.yul\":5514:5581   */\n      tag_203\n        /* \"#utility.yul\":5578:5580   */\n      0x0e\n        /* \"#utility.yul\":5573:5576   */\n      dup4\n        /* \"#utility.yul\":5514:5581   */\n      tag_126\n      jump\t// in\n    tag_203:\n        /* \"#utility.yul\":5507:5581   */\n      swap2\n      pop\n        /* \"#utility.yul\":5590:5683   */\n      tag_204\n        /* \"#utility.yul\":5679:5682   */\n      dup3\n        /* \"#utility.yul\":5590:5683   */\n      tag_129\n      jump\t// in\n    tag_204:\n        /* \"#utility.yul\":5708:5710   */\n      0x20\n        /* \"#utility.yul\":5703:5706   */\n      dup3\n        /* \"#utility.yul\":5699:5711   */\n      add\n        /* \"#utility.yul\":5692:5711   */\n      swap1\n      pop\n        /* \"#utility.yul\":5351:5717   */\n      swap2\n      swap1\n      pop\n      jump\t// out\n        /* \"#utility.yul\":5723:5903   */\n    tag_131:\n        /* \"#utility.yul\":5771:5848   */\n      0x4e487b7100000000000000000000000000000000000000000000000000000000\n        /* \"#utility.yul\":5768:5769   */\n      0x00\n        /* \"#utility.yul\":5761:5849   */\n      mstore\n        /* \"#utility.yul\":5868:5872   */\n      0x22\n        /* \"#utility.yul\":5865:5866   */\n      0x04\n        /* \"#utility.yul\":5858:5873   */\n      mstore\n        /* \"#utility.yul\":5892:5896   */\n      0x24\n        /* \"#utility.yul\":5889:5890   */\n      0x00\n        /* \"#utility.yul\":5882:5897   */\n      revert\n        /* \"#utility.yul\":5909:6229   */\n    tag_82:\n        /* \"#utility.yul\":5953:5959   */\n      0x00\n        /* \"#utility.yul\":5990:5991   */\n      0x02\n        /* \"#utility.yul\":5984:5988   */\n      dup3\n        /* \"#utility.yul\":5980:5992   */\n      div\n        /* \"#utility.yul\":5970:5992   */\n      swap1\n      pop\n        /* \"#utility.yul\":6037:6038   */\n      0x01\n        /* \"#utility.yul\":6031:6035   */\n      dup3\n        /* \"#utility.yul\":6027:6039   */\n      and\n        /* \"#utility.yul\":6058:6076   */\n      dup1\n        /* \"#utility.yul\":6048:6129   */\n      tag_207\n      jumpi\n        /* \"#utility.yul\":6114:6118   */\n      0x7f\n        /* \"#utility.yul\":6106:6112   */\n      dup3\n        /* \"#utility.yul\":6102:6119   */\n      and\n        /* \"#utility.yul\":6092:6119   */\n      swap2\n      pop\n        /* \"#utility.yul\":6048:6129   */\n    tag_207:\n        /* \"#utility.yul\":6176:6178   */\n      0x20\n        /* \"#utility.yul\":6168:6174   */\n      dup3\n        /* \"#utility.yul\":6165:6179   */\n      lt\n        /* \"#utility.yul\":6145:6163   */\n      dup2\n        /* \"#utility.yul\":6142:6180   */\n      sub\n        /* \"#utility.yul\":6139:6223   */\n      tag_208\n      jumpi\n        /* \"#utility.yul\":6195:6213   */\n      tag_209\n      tag_131\n      jump\t// in\n    tag_209:\n        /* \"#utility.yul\":6139:6223   */\n    tag_208:\n        /* \"#utility.yul\":5960:6229   */\n      pop\n        /* \"#utility.yul\":5909:6229   */\n      swap2\n      swap1\n      pop\n      jump\t// out\n        /* \"#utility.yul\":6235:6376   */\n    tag_132:\n        /* \"#utility.yul\":6284:6288   */\n      0x00\n        /* \"#utility.yul\":6307:6310   */\n      dup2\n        /* \"#utility.yul\":6299:6310   */\n      swap1\n      pop\n        /* \"#utility.yul\":6330:6333   */\n      dup2\n        /* \"#utility.yul\":6327:6328   */\n      0x00\n        /* \"#utility.yul\":6320:6334   */\n      mstore\n        /* \"#utility.yul\":6364:6368   */\n      0x20\n        /* \"#utility.yul\":6361:6362   */\n      0x00\n        /* \"#utility.yul\":6351:6369   */\n      keccak256\n        /* \"#utility.yul\":6343:6369   */\n      swap1\n      pop\n        /* \"#utility.yul\":6235:6376   */\n      swap2\n      swap1\n      pop\n      jump\t// out\n        /* \"#utility.yul\":6406:7208   */\n    tag_133:\n        /* \"#utility.yul\":6491:6494   */\n      0x00\n        /* \"#utility.yul\":6528:6533   */\n      dup2\n        /* \"#utility.yul\":6522:6534   */\n      sload\n        /* \"#utility.yul\":6557:6593   */\n      tag_212\n        /* \"#utility.yul\":6583:6592   */\n      dup2\n        /* \"#utility.yul\":6557:6593   */\n      tag_82\n      jump\t// in\n    tag_212:\n        /* \"#utility.yul\":6609:6680   */\n      tag_213\n        /* \"#utility.yul\":6673:6679   */\n      dup2\n        /* \"#utility.yul\":6668:6671   */\n      dup7\n        /* \"#utility.yul\":6609:6680   */\n      tag_126\n      jump\t// in\n    tag_213:\n        /* \"#utility.yul\":6602:6680   */\n      swap5\n      pop\n        /* \"#utility.yul\":6711:6712   */\n      0x01\n        /* \"#utility.yul\":6700:6709   */\n      dup3\n        /* \"#utility.yul\":6696:6713   */\n      and\n        /* \"#utility.yul\":6727:6728   */\n      0x00\n        /* \"#utility.yul\":6722:6857   */\n      dup2\n      eq\n      tag_215\n      jumpi\n        /* \"#utility.yul\":6871:6872   */\n      0x01\n        /* \"#utility.yul\":6866:7202   */\n      dup2\n      eq\n      tag_216\n      jumpi\n        /* \"#utility.yul\":6689:7202   */\n      jump(tag_214)\n        /* \"#utility.yul\":6722:6857   */\n    tag_215:\n        /* \"#utility.yul\":6806:6810   */\n      0xff\n        /* \"#utility.yul\":6802:6811   */\n      not\n        /* \"#utility.yul\":6791:6800   */\n      dup4\n        /* \"#utility.yul\":6787:6812   */\n      and\n        /* \"#utility.yul\":6782:6785   */\n      dup7\n        /* \"#utility.yul\":6775:6813   */\n      mstore\n        /* \"#utility.yul\":6842:6846   */\n      0x20\n        /* \"#utility.yul\":6837:6840   */\n      dup7\n        /* \"#utility.yul\":6833:6847   */\n      add\n        /* \"#utility.yul\":6826:6847   */\n      swap4\n      pop\n        /* \"#utility.yul\":6722:6857   */\n      jump(tag_214)\n        /* \"#utility.yul\":6866:7202   */\n    tag_216:\n        /* \"#utility.yul\":6933:6971   */\n      tag_217\n        /* \"#utility.yul\":6965:6970   */\n      dup6\n        /* \"#utility.yul\":6933:6971   */\n      tag_132\n      jump\t// in\n    tag_217:\n        /* \"#utility.yul\":6993:6994   */\n      0x00\n        /* \"#utility.yul\":7007:7161   */\n    tag_218:\n        /* \"#utility.yul\":7021:7027   */\n      dup4\n        /* \"#utility.yul\":7018:7019   */\n      dup2\n        /* \"#utility.yul\":7015:7028   */\n      lt\n        /* \"#utility.yul\":7007:7161   */\n      iszero\n      tag_220\n      jumpi\n        /* \"#utility.yul\":7095:7102   */\n      dup2\n        /* \"#utility.yul\":7089:7103   */\n      sload\n        /* \"#utility.yul\":7085:7086   */\n      dup2\n        /* \"#utility.yul\":7080:7083   */\n      dup10\n        /* \"#utility.yul\":7076:7087   */\n      add\n        /* \"#utility.yul\":7069:7104   */\n      mstore\n        /* \"#utility.yul\":7145:7146   */\n      0x01\n        /* \"#utility.yul\":7136:7143   */\n      dup3\n        /* \"#utility.yul\":7132:7147   */\n      add\n        /* \"#utility.yul\":7121:7147   */\n      swap2\n      pop\n        /* \"#utility.yul\":7043:7047   */\n      0x20\n        /* \"#utility.yul\":7040:7041   */\n      dup2\n        /* \"#utility.yul\":7036:7048   */\n      add\n        /* \"#utility.yul\":7031:7048   */\n      swap1\n      pop\n        /* \"#utility.yul\":7007:7161   */\n      jump(tag_218)\n    tag_220:\n        /* \"#utility.yul\":7190:7191   */\n      dup1\n        /* \"#utility.yul\":7185:7188   */\n      dup9\n        /* \"#utility.yul\":7181:7192   */\n      add\n        /* \"#utility.yul\":7174:7192   */\n      swap6\n      pop\n        /* \"#utility.yul\":6873:7202   */\n      pop\n      pop\n        /* \"#utility.yul\":6689:7202   */\n    tag_214:\n      pop\n        /* \"#utility.yul\":6495:7208   */\n      pop\n      pop\n        /* \"#utility.yul\":6406:7208   */\n      swap3\n      swap2\n      pop\n      pop\n      jump\t// out\n        /* \"#utility.yul\":7214:7828   */\n    tag_47:\n        /* \"#utility.yul\":7425:7429   */\n      0x00\n        /* \"#utility.yul\":7463:7465   */\n      0x40\n        /* \"#utility.yul\":7452:7461   */\n      dup3\n        /* \"#utility.yul\":7448:7466   */\n      add\n        /* \"#utility.yul\":7440:7466   */\n      swap1\n      pop\n        /* \"#utility.yul\":7512:7521   */\n      dup2\n        /* \"#utility.yul\":7506:7510   */\n      dup2\n        /* \"#utility.yul\":7502:7522   */\n      sub\n        /* \"#utility.yul\":7498:7499   */\n      0x00\n        /* \"#utility.yul\":7487:7496   */\n      dup4\n        /* \"#utility.yul\":7483:7500   */\n      add\n        /* \"#utility.yul\":7476:7523   */\n      mstore\n        /* \"#utility.yul\":7540:7671   */\n      tag_222\n        /* \"#utility.yul\":7666:7670   */\n      dup2\n        /* \"#utility.yul\":7540:7671   */\n      tag_130\n      jump\t// in\n    tag_222:\n        /* \"#utility.yul\":7532:7671   */\n      swap1\n      pop\n        /* \"#utility.yul\":7718:7727   */\n      dup2\n        /* \"#utility.yul\":7712:7716   */\n      dup2\n        /* \"#utility.yul\":7708:7728   */\n      sub\n        /* \"#utility.yul\":7703:7705   */\n      0x20\n        /* \"#utility.yul\":7692:7701   */\n      dup4\n        /* \"#utility.yul\":7688:7706   */\n      add\n        /* \"#utility.yul\":7681:7729   */\n      mstore\n        /* \"#utility.yul\":7746:7821   */\n      tag_223\n        /* \"#utility.yul\":7816:7820   */\n      dup2\n        /* \"#utility.yul\":7807:7813   */\n      dup5\n        /* \"#utility.yul\":7746:7821   */\n      tag_133\n      jump\t// in\n    tag_223:\n        /* \"#utility.yul\":7738:7821   */\n      swap1\n      pop\n        /* \"#utility.yul\":7214:7828   */\n      swap3\n      swap2\n      pop\n      pop\n      jump\t// out\n        /* \"#utility.yul\":7834:7993   */\n    tag_134:\n        /* \"#utility.yul\":7974:7985   */\n      0x69732046756e6465640000000000000000000000000000000000000000000000\n        /* \"#utility.yul\":7970:7971   */\n      0x00\n        /* \"#utility.yul\":7962:7968   */\n      dup3\n        /* \"#utility.yul\":7958:7972   */\n      add\n        /* \"#utility.yul\":7951:7986   */\n      mstore\n        /* \"#utility.yul\":7834:7993   */\n      pop\n      jump\t// out\n        /* \"#utility.yul\":7999:8364   */\n    tag_135:\n        /* \"#utility.yul\":8141:8144   */\n      0x00\n        /* \"#utility.yul\":8162:8228   */\n      tag_226\n        /* \"#utility.yul\":8226:8227   */\n      0x09\n        /* \"#utility.yul\":8221:8224   */\n      dup4\n        /* \"#utility.yul\":8162:8228   */\n      tag_126\n      jump\t// in\n    tag_226:\n        /* \"#utility.yul\":8155:8228   */\n      swap2\n      pop\n        /* \"#utility.yul\":8237:8330   */\n      tag_227\n        /* \"#utility.yul\":8326:8329   */\n      dup3\n        /* \"#utility.yul\":8237:8330   */\n      tag_134\n      jump\t// in\n    tag_227:\n        /* \"#utility.yul\":8355:8357   */\n      0x20\n        /* \"#utility.yul\":8350:8353   */\n      dup3\n        /* \"#utility.yul\":8346:8358   */\n      add\n        /* \"#utility.yul\":8339:8358   */\n      swap1\n      pop\n        /* \"#utility.yul\":7999:8364   */\n      swap2\n      swap1\n      pop\n      jump\t// out\n        /* \"#utility.yul\":8370:8984   */\n    tag_61:\n        /* \"#utility.yul\":8581:8585   */\n      0x00\n        /* \"#utility.yul\":8619:8621   */\n      0x40\n        /* \"#utility.yul\":8608:8617   */\n      dup3\n        /* \"#utility.yul\":8604:8622   */\n      add\n        /* \"#utility.yul\":8596:8622   */\n      swap1\n      pop\n        /* \"#utility.yul\":8668:8677   */\n      dup2\n        /* \"#utility.yul\":8662:8666   */\n      dup2\n        /* \"#utility.yul\":8658:8678   */\n      sub\n        /* \"#utility.yul\":8654:8655   */\n      0x00\n        /* \"#utility.yul\":8643:8652   */\n      dup4\n        /* \"#utility.yul\":8639:8656   */\n      add\n        /* \"#utility.yul\":8632:8679   */\n      mstore\n        /* \"#utility.yul\":8696:8771   */\n      tag_229\n        /* \"#utility.yul\":8766:8770   */\n      dup2\n        /* \"#utility.yul\":8757:8763   */\n      dup5\n        /* \"#utility.yul\":8696:8771   */\n      tag_133\n      jump\t// in\n    tag_229:\n        /* \"#utility.yul\":8688:8771   */\n      swap1\n      pop\n        /* \"#utility.yul\":8818:8827   */\n      dup2\n        /* \"#utility.yul\":8812:8816   */\n      dup2\n        /* \"#utility.yul\":8808:8828   */\n      sub\n        /* \"#utility.yul\":8803:8805   */\n      0x20\n        /* \"#utility.yul\":8792:8801   */\n      dup4\n        /* \"#utility.yul\":8788:8806   */\n      add\n        /* \"#utility.yul\":8781:8829   */\n      mstore\n        /* \"#utility.yul\":8846:8977   */\n      tag_230\n        /* \"#utility.yul\":8972:8976   */\n      dup2\n        /* \"#utility.yul\":8846:8977   */\n      tag_135\n      jump\t// in\n    tag_230:\n        /* \"#utility.yul\":8838:8977   */\n      swap1\n      pop\n        /* \"#utility.yul\":8370:8984   */\n      swap3\n      swap2\n      pop\n      pop\n      jump\t// out\n        /* \"#utility.yul\":8990:9067   */\n    tag_136:\n        /* \"#utility.yul\":9027:9034   */\n      0x00\n        /* \"#utility.yul\":9056:9061   */\n      dup2\n        /* \"#utility.yul\":9045:9061   */\n      swap1\n      pop\n        /* \"#utility.yul\":8990:9067   */\n      swap2\n      swap1\n      pop\n      jump\t// out\n        /* \"#utility.yul\":9073:9253   */\n    tag_137:\n        /* \"#utility.yul\":9121:9198   */\n      0x4e487b7100000000000000000000000000000000000000000000000000000000\n        /* \"#utility.yul\":9118:9119   */\n      0x00\n        /* \"#utility.yul\":9111:9199   */\n      mstore\n        /* \"#utility.yul\":9218:9222   */\n      0x11\n        /* \"#utility.yul\":9215:9216   */\n      0x04\n        /* \"#utility.yul\":9208:9223   */\n      mstore\n        /* \"#utility.yul\":9242:9246   */\n      0x24\n        /* \"#utility.yul\":9239:9240   */\n      0x00\n        /* \"#utility.yul\":9232:9247   */\n      revert\n        /* \"#utility.yul\":9259:9564   */\n    tag_75:\n        /* \"#utility.yul\":9299:9302   */\n      0x00\n        /* \"#utility.yul\":9318:9338   */\n      tag_234\n        /* \"#utility.yul\":9336:9337   */\n      dup3\n        /* \"#utility.yul\":9318:9338   */\n      tag_136\n      jump\t// in\n    tag_234:\n        /* \"#utility.yul\":9313:9338   */\n      swap2\n      pop\n        /* \"#utility.yul\":9352:9372   */\n      tag_235\n        /* \"#utility.yul\":9370:9371   */\n      dup4\n        /* \"#utility.yul\":9352:9372   */\n      tag_136\n      jump\t// in\n    tag_235:\n        /* \"#utility.yul\":9347:9372   */\n      swap3\n      pop\n        /* \"#utility.yul\":9506:9507   */\n      dup3\n        /* \"#utility.yul\":9438:9504   */\n      0xffffffffffffffffffffffffffffffffffffffffffffffffffffffffffffffff\n        /* \"#utility.yul\":9434:9508   */\n      sub\n        /* \"#utility.yul\":9431:9432   */\n      dup3\n        /* \"#utility.yul\":9428:9509   */\n      gt\n        /* \"#utility.yul\":9425:9532   */\n      iszero\n      tag_236\n      jumpi\n        /* \"#utility.yul\":9512:9530   */\n      tag_237\n      tag_137\n      jump\t// in\n    tag_237:\n        /* \"#utility.yul\":9425:9532   */\n    tag_236:\n        /* \"#utility.yul\":9556:9557   */\n      dup3\n        /* \"#utility.yul\":9553:9554   */\n      dup3\n        /* \"#utility.yul\":9549:9558   */\n      add\n        /* \"#utility.yul\":9542:9558   */\n      swap1\n      pop\n        /* \"#utility.yul\":9259:9564   */\n      swap3\n      swap2\n      pop\n      pop\n      jump\t// out\n        /* \"#utility.yul\":9570:9666   */\n    tag_138:\n        /* \"#utility.yul\":9607:9614   */\n      0x00\n        /* \"#utility.yul\":9636:9660   */\n      tag_239\n        /* \"#utility.yul\":9654:9659   */\n      dup3\n        /* \"#utility.yul\":9636:9660   */\n      tag_109\n      jump\t// in\n    tag_239:\n        /* \"#utility.yul\":9625:9660   */\n      swap1\n      pop\n        /* \"#utility.yul\":9570:9666   */\n      swap2\n      swap1\n      pop\n      jump\t// out\n        /* \"#utility.yul\":9672:9790   */\n    tag_139:\n        /* \"#utility.yul\":9759:9783   */\n      tag_241\n        /* \"#utility.yul\":9777:9782   */\n      dup2\n        /* \"#utility.yul\":9759:9783   */\n      tag_138\n      jump\t// in\n    tag_241:\n        /* \"#utility.yul\":9754:9757   */\n      dup3\n        /* \"#utility.yul\":9747:9784   */\n      mstore\n        /* \"#utility.yul\":9672:9790   */\n      pop\n      pop\n      jump\t// out\n        /* \"#utility.yul\":9796:9914   */\n    tag_140:\n        /* \"#utility.yul\":9883:9907   */\n      tag_243\n        /* \"#utility.yul\":9901:9906   */\n      dup2\n        /* \"#utility.yul\":9883:9907   */\n      tag_136\n      jump\t// in\n    tag_243:\n        /* \"#utility.yul\":9878:9881   */\n      dup3\n        /* \"#utility.yul\":9871:9908   */\n      mstore\n        /* \"#utility.yul\":9796:9914   */\n      pop\n      pop\n      jump\t// out\n        /* \"#utility.yul\":9920:10252   */\n    tag_77:\n        /* \"#utility.yul\":10041:10045   */\n      0x00\n        /* \"#utility.yul\":10079:10081   */\n      0x40\n        /* \"#utility.yul\":10068:10077   */\n      dup3\n        /* \"#utility.yul\":10064:10082   */\n      add\n        /* \"#utility.yul\":10056:10082   */\n      swap1\n      pop\n        /* \"#utility.yul\":10092:10163   */\n      tag_245\n        /* \"#utility.yul\":10160:10161   */\n      0x00\n        /* \"#utility.yul\":10149:10158   */\n      dup4\n        /* \"#utility.yul\":10145:10162   */\n      add\n        /* \"#utility.yul\":10136:10142   */\n      dup6\n        /* \"#utility.yul\":10092:10163   */\n      tag_139\n      jump\t// in\n    tag_245:\n        /* \"#utility.yul\":10173:10245   */\n      tag_246\n        /* \"#utility.yul\":10241:10243   */\n      0x20\n        /* \"#utility.yul\":10230:10239   */\n      dup4\n        /* \"#utility.yul\":10226:10244   */\n      add\n        /* \"#utility.yul\":10217:10223   */\n      dup5\n        /* \"#utility.yul\":10173:10245   */\n      tag_140\n      jump\t// in\n    tag_246:\n        /* \"#utility.yul\":9920:10252   */\n      swap4\n      swap3\n      pop\n      pop\n      pop\n      jump\t// out\n        /* \"#utility.yul\":10258:10427   */\n    tag_141:\n        /* \"#utility.yul\":10398:10419   */\n      0x54686520476f616c206973207265616368656400000000000000000000000000\n        /* \"#utility.yul\":10394:10395   */\n      0x00\n        /* \"#utility.yul\":10386:10392   */\n      dup3\n        /* \"#utility.yul\":10382:10396   */\n      add\n        /* \"#utility.yul\":10375:10420   */\n      mstore\n        /* \"#utility.yul\":10258:10427   */\n      pop\n      jump\t// out\n        /* \"#utility.yul\":10433:10799   */\n    tag_142:\n        /* \"#utility.yul\":10575:10578   */\n      0x00\n        /* \"#utility.yul\":10596:10663   */\n      tag_249\n        /* \"#utility.yul\":10660:10662   */\n      0x13\n        /* \"#utility.yul\":10655:10658   */\n      dup4\n        /* \"#utility.yul\":10596:10663   */\n      tag_126\n      jump\t// in\n    tag_249:\n        /* \"#utility.yul\":10589:10663   */\n      swap2\n      pop\n        /* \"#utility.yul\":10672:10765   */\n      tag_250\n        /* \"#utility.yul\":10761:10764   */\n      dup3\n        /* \"#utility.yul\":10672:10765   */\n      tag_141\n      jump\t// in\n    tag_250:\n        /* \"#utility.yul\":10790:10792   */\n      0x20\n        /* \"#utility.yul\":10785:10788   */\n      dup3\n        /* \"#utility.yul\":10781:10793   */\n      add\n        /* \"#utility.yul\":10774:10793   */\n      swap1\n      pop\n        /* \"#utility.yul\":10433:10799   */\n      swap2\n      swap1\n      pop\n      jump\t// out\n        /* \"#utility.yul\":10805:11419   */\n    tag_95:\n        /* \"#utility.yul\":11016:11020   */\n      0x00\n        /* \"#utility.yul\":11054:11056   */\n      0x40\n        /* \"#utility.yul\":11043:11052   */\n      dup3\n        /* \"#utility.yul\":11039:11057   */\n      add\n        /* \"#utility.yul\":11031:11057   */\n      swap1\n      pop\n        /* \"#utility.yul\":11103:11112   */\n      dup2\n        /* \"#utility.yul\":11097:11101   */\n      dup2\n        /* \"#utility.yul\":11093:11113   */\n      sub\n        /* \"#utility.yul\":11089:11090   */\n      0x00\n        /* \"#utility.yul\":11078:11087   */\n      dup4\n        /* \"#utility.yul\":11074:11091   */\n      add\n        /* \"#utility.yul\":11067:11114   */\n      mstore\n        /* \"#utility.yul\":11131:11262   */\n      tag_252\n        /* \"#utility.yul\":11257:11261   */\n      dup2\n        /* \"#utility.yul\":11131:11262   */\n      tag_142\n      jump\t// in\n    tag_252:\n        /* \"#utility.yul\":11123:11262   */\n      swap1\n      pop\n        /* \"#utility.yul\":11309:11318   */\n      dup2\n        /* \"#utility.yul\":11303:11307   */\n      dup2\n        /* \"#utility.yul\":11299:11319   */\n      sub\n        /* \"#utility.yul\":11294:11296   */\n      0x20\n        /* \"#utility.yul\":11283:11292   */\n      dup4\n        /* \"#utility.yul\":11279:11297   */\n      add\n        /* \"#utility.yul\":11272:11320   */\n      mstore\n        /* \"#utility.yul\":11337:11412   */\n      tag_253\n        /* \"#utility.yul\":11407:11411   */\n      dup2\n        /* \"#utility.yul\":11398:11404   */\n      dup5\n        /* \"#utility.yul\":11337:11412   */\n      tag_133\n      jump\t// in\n    tag_253:\n        /* \"#utility.yul\":11329:11412   */\n      swap1\n      pop\n        /* \"#utility.yul\":10805:11419   */\n      swap3\n      swap2\n      pop\n      pop\n      jump\t// out\n\n    auxdata: 0xa2646970667358221220bb406d46ca0b021d14049d8f0d7a3a64f046c0c6ac7aaa2fc8f533ab138dec0564736f6c634300080d0033\n}\n",
				"bytecode": {
					"linkReferences": {},
					"object": "60806040523480156200001157600080fd5b506040516200126f3803806200126f8339818101604052810190620000379190620003b7565b846000806101000a81548173ffffffffffffffffffffffffffffffffffffffff021916908373ffffffffffffffffffffffffffffffffffffffff16021790555083600190805190602001906200008f929190620000ca565b508260029080519060200190620000a8929190620000ca565b50816003819055508060068190555060006004819055505050505050620004e1565b828054620000d890620004ac565b90600052602060002090601f016020900481019282620000fc576000855562000148565b82601f106200011757805160ff191683800117855562000148565b8280016001018555821562000148579182015b82811115620001475782518255916020019190600101906200012a565b5b5090506200015791906200015b565b5090565b5b80821115620001765760008160009055506001016200015c565b5090565b6000604051905090565b600080fd5b600080fd5b600073ffffffffffffffffffffffffffffffffffffffff82169050919050565b6000620001bb826200018e565b9050919050565b620001cd81620001ae565b8114620001d957600080fd5b50565b600081519050620001ed81620001c2565b92915050565b600080fd5b600080fd5b6000601f19601f8301169050919050565b7f4e487b7100000000000000000000000000000000000000000000000000000000600052604160045260246000fd5b6200024882620001fd565b810181811067ffffffffffffffff821117156200026a57620002696200020e565b5b80604052505050565b60006200027f6200017a565b90506200028d82826200023d565b919050565b600067ffffffffffffffff821115620002b057620002af6200020e565b5b620002bb82620001fd565b9050602081019050919050565b60005b83811015620002e8578082015181840152602081019050620002cb565b83811115620002f8576000848401525b50505050565b6000620003156200030f8462000292565b62000273565b905082815260208101848484011115620003345762000333620001f8565b5b62000341848285620002c8565b509392505050565b600082601f830112620003615762000360620001f3565b5b815162000373848260208601620002fe565b91505092915050565b6000819050919050565b62000391816200037c565b81146200039d57600080fd5b50565b600081519050620003b18162000386565b92915050565b600080600080600060a08688031215620003d657620003d562000184565b5b6000620003e688828901620001dc565b955050602086015167ffffffffffffffff8111156200040a576200040962000189565b5b620004188882890162000349565b945050604086015167ffffffffffffffff8111156200043c576200043b62000189565b5b6200044a8882890162000349565b93505060606200045d88828901620003a0565b92505060806200047088828901620003a0565b9150509295509295909350565b7f4e487b7100000000000000000000000000000000000000000000000000000000600052602260045260246000fd5b60006002820490506001821680620004c557607f821691505b602082108103620004db57620004da6200047d565b5b50919050565b610d7e80620004f16000396000f3fe6080604052600436106100555760003560e01c80631beab5e81461005a578063a541a2a214610071578063a8b93c8d1461009c578063c2052403146100c5578063d7bb99ba146100dc578063f020cd19146100e6575b600080fd5b34801561006657600080fd5b5061006f610111565b005b34801561007d57600080fd5b50610086610267565b6040516100939190610751565b60405180910390f35b3480156100a857600080fd5b506100c360048036038101906100be91906108c6565b61028b565b005b3480156100d157600080fd5b506100da6102a5565b005b6100e461038a565b005b3480156100f257600080fd5b506100fb61051f565b6040516101089190610997565b60405180910390f35b338073ffffffffffffffffffffffffffffffffffffffff1660008054906101000a900473ffffffffffffffffffffffffffffffffffffffff1673ffffffffffffffffffffffffffffffffffffffff161461016a57600080fd5b600080600281111561017f5761017e6109b9565b5b600560009054906101000a900460ff1660028111156101a1576101a06109b9565b5b146101ab57600080fd5b60065442116101b957600080fd5b6101c360016105b1565b60008054906101000a900473ffffffffffffffffffffffffffffffffffffffff1673ffffffffffffffffffffffffffffffffffffffff166108fc6004549081150290604051600060405180830381858888f1935050505015801561022b573d6000803e3d6000fd5b507e6567369884327ec669abad9dc032c3fc1b6c1b77aed67e31f8311864551e74600160405161025b9190610b29565b60405180910390a15050565b60008054906101000a900473ffffffffffffffffffffffffffffffffffffffff1681565b80600190805190602001906102a192919061066d565b5050565b60028060028111156102ba576102b96109b9565b5b600560009054906101000a900460ff1660028111156102dc576102db6109b9565b5b146102e657600080fd5b60008054906101000a900473ffffffffffffffffffffffffffffffffffffffff1673ffffffffffffffffffffffffffffffffffffffff166108fc6004549081150290604051600060405180830381858888f1935050505015801561034e573d6000803e3d6000fd5b507fda700ea0a4f90d17381707c06ca4125e32c8a65b28e82ff0d1850af50a6d4ccd600160405161037f9190610baa565b60405180910390a150565b600080600281111561039f5761039e6109b9565b5b600560009054906101000a900460ff1660028111156103c1576103c06109b9565b5b146103cb57600080fd5b6006544211156103da57600080fd5b60008054906101000a900473ffffffffffffffffffffffffffffffffffffffff1673ffffffffffffffffffffffffffffffffffffffff163373ffffffffffffffffffffffffffffffffffffffff160361043257600080fd5b61048434600760003373ffffffffffffffffffffffffffffffffffffffff1673ffffffffffffffffffffffffffffffffffffffff168152602001908152602001600020546105de90919063ffffffff16565b600760003373ffffffffffffffffffffffffffffffffffffffff1673ffffffffffffffffffffffffffffffffffffffff16815260200190815260200160002081905550346004546104d59190610c18565b6004819055507f75ae3e7c973a88747144369f710c5999060a6321be0506174d3f5c64bdfc674e333460405161050c929190610c9e565b60405180910390a161051c6105f4565b50565b60606001805461052e90610a63565b80601f016020809104026020016040519081016040528092919081815260200182805461055a90610a63565b80156105a75780601f1061057c576101008083540402835291602001916105a7565b820191906000526020600020905b81548152906001019060200180831161058a57829003601f168201915b5050505050905090565b80600560006101000a81548160ff021916908360028111156105d6576105d56109b9565b5b021790555050565b600081836105ec9190610c18565b905092915050565b6004546003541061066b577f15ac727d1ca51352f519e3f5899500ead795e56a4a39ceafeea835331346017a600160405161062f9190610d13565b60405180910390a16002600560006101000a81548160ff0219169083600281111561065d5761065c6109b9565b5b021790555061066a6102a5565b5b565b82805461067990610a63565b90600052602060002090601f01602090048101928261069b57600085556106e2565b82601f106106b457805160ff19168380011785556106e2565b828001600101855582156106e2579182015b828111156106e15782518255916020019190600101906106c6565b5b5090506106ef91906106f3565b5090565b5b8082111561070c5760008160009055506001016106f4565b5090565b600073ffffffffffffffffffffffffffffffffffffffff82169050919050565b600061073b82610710565b9050919050565b61074b81610730565b82525050565b60006020820190506107666000830184610742565b92915050565b6000604051905090565b600080fd5b600080fd5b600080fd5b600080fd5b6000601f19601f8301169050919050565b7f4e487b7100000000000000000000000000000000000000000000000000000000600052604160045260246000fd5b6107d38261078a565b810181811067ffffffffffffffff821117156107f2576107f161079b565b5b80604052505050565b600061080561076c565b905061081182826107ca565b919050565b600067ffffffffffffffff8211156108315761083061079b565b5b61083a8261078a565b9050602081019050919050565b82818337600083830152505050565b600061086961086484610816565b6107fb565b90508281526020810184848401111561088557610884610785565b5b610890848285610847565b509392505050565b600082601f8301126108ad576108ac610780565b5b81356108bd848260208601610856565b91505092915050565b6000602082840312156108dc576108db610776565b5b600082013567ffffffffffffffff8111156108fa576108f961077b565b5b61090684828501610898565b91505092915050565b600081519050919050565b600082825260208201905092915050565b60005b8381101561094957808201518184015260208101905061092e565b83811115610958576000848401525b50505050565b60006109698261090f565b610973818561091a565b935061098381856020860161092b565b61098c8161078a565b840191505092915050565b600060208201905081810360008301526109b1818461095e565b905092915050565b7f4e487b7100000000000000000000000000000000000000000000000000000000600052602160045260246000fd5b7f46756e6420726574726569766564000000000000000000000000000000000000600082015250565b6000610a1e600e8361091a565b9150610a29826109e8565b602082019050919050565b7f4e487b7100000000000000000000000000000000000000000000000000000000600052602260045260246000fd5b60006002820490506001821680610a7b57607f821691505b602082108103610a8e57610a8d610a34565b5b50919050565b60008190508160005260206000209050919050565b60008154610ab681610a63565b610ac0818661091a565b94506001821660008114610adb5760018114610aed57610b20565b60ff1983168652602086019350610b20565b610af685610a94565b60005b83811015610b1857815481890152600182019150602081019050610af9565b808801955050505b50505092915050565b60006040820190508181036000830152610b4281610a11565b90508181036020830152610b568184610aa9565b905092915050565b7f69732046756e6465640000000000000000000000000000000000000000000000600082015250565b6000610b9460098361091a565b9150610b9f82610b5e565b602082019050919050565b60006040820190508181036000830152610bc48184610aa9565b90508181036020830152610bd781610b87565b905092915050565b6000819050919050565b7f4e487b7100000000000000000000000000000000000000000000000000000000600052601160045260246000fd5b6000610c2382610bdf565b9150610c2e83610bdf565b9250827fffffffffffffffffffffffffffffffffffffffffffffffffffffffffffffffff03821115610c6357610c62610be9565b5b828201905092915050565b6000610c7982610710565b9050919050565b610c8981610c6e565b82525050565b610c9881610bdf565b82525050565b6000604082019050610cb36000830185610c80565b610cc06020830184610c8f565b9392505050565b7f54686520476f616c206973207265616368656400000000000000000000000000600082015250565b6000610cfd60138361091a565b9150610d0882610cc7565b602082019050919050565b60006040820190508181036000830152610d2c81610cf0565b90508181036020830152610d408184610aa9565b90509291505056fea2646970667358221220bb406d46ca0b021d14049d8f0d7a3a64f046c0c6ac7aaa2fc8f533ab138dec0564736f6c634300080d0033",
					"opcodes": "PUSH1 0x80 PUSH1 0x40 MSTORE CALLVALUE DUP1 ISZERO PUSH3 0x11 JUMPI PUSH1 0x0 DUP1 REVERT JUMPDEST POP PUSH1 0x40 MLOAD PUSH3 0x126F CODESIZE SUB DUP1 PUSH3 0x126F DUP4 CODECOPY DUP2 DUP2 ADD PUSH1 0x40 MSTORE DUP2 ADD SWAP1 PUSH3 0x37 SWAP2 SWAP1 PUSH3 0x3B7 JUMP JUMPDEST DUP5 PUSH1 0x0 DUP1 PUSH2 0x100 EXP DUP2 SLOAD DUP2 PUSH20 0xFFFFFFFFFFFFFFFFFFFFFFFFFFFFFFFFFFFFFFFF MUL NOT AND SWAP1 DUP4 PUSH20 0xFFFFFFFFFFFFFFFFFFFFFFFFFFFFFFFFFFFFFFFF AND MUL OR SWAP1 SSTORE POP DUP4 PUSH1 0x1 SWAP1 DUP1 MLOAD SWAP1 PUSH1 0x20 ADD SWAP1 PUSH3 0x8F SWAP3 SWAP2 SWAP1 PUSH3 0xCA JUMP JUMPDEST POP DUP3 PUSH1 0x2 SWAP1 DUP1 MLOAD SWAP1 PUSH1 0x20 ADD SWAP1 PUSH3 0xA8 SWAP3 SWAP2 SWAP1 PUSH3 0xCA JUMP JUMPDEST POP DUP2 PUSH1 0x3 DUP2 SWAP1 SSTORE POP DUP1 PUSH1 0x6 DUP2 SWAP1 SSTORE POP PUSH1 0x0 PUSH1 0x4 DUP2 SWAP1 SSTORE POP POP POP POP POP POP PUSH3 0x4E1 JUMP JUMPDEST DUP3 DUP1 SLOAD PUSH3 0xD8 SWAP1 PUSH3 0x4AC JUMP JUMPDEST SWAP1 PUSH1 0x0 MSTORE PUSH1 0x20 PUSH1 0x0 KECCAK256 SWAP1 PUSH1 0x1F ADD PUSH1 0x20 SWAP1 DIV DUP2 ADD SWAP3 DUP3 PUSH3 0xFC JUMPI PUSH1 0x0 DUP6 SSTORE PUSH3 0x148 JUMP JUMPDEST DUP3 PUSH1 0x1F LT PUSH3 0x117 JUMPI DUP1 MLOAD PUSH1 0xFF NOT AND DUP4 DUP1 ADD OR DUP6 SSTORE PUSH3 0x148 JUMP JUMPDEST DUP3 DUP1 ADD PUSH1 0x1 ADD DUP6 SSTORE DUP3 ISZERO PUSH3 0x148 JUMPI SWAP2 DUP3 ADD JUMPDEST DUP3 DUP2 GT ISZERO PUSH3 0x147 JUMPI DUP3 MLOAD DUP3 SSTORE SWAP2 PUSH1 0x20 ADD SWAP2 SWAP1 PUSH1 0x1 ADD SWAP1 PUSH3 0x12A JUMP JUMPDEST JUMPDEST POP SWAP1 POP PUSH3 0x157 SWAP2 SWAP1 PUSH3 0x15B JUMP JUMPDEST POP SWAP1 JUMP JUMPDEST JUMPDEST DUP1 DUP3 GT ISZERO PUSH3 0x176 JUMPI PUSH1 0x0 DUP2 PUSH1 0x0 SWAP1 SSTORE POP PUSH1 0x1 ADD PUSH3 0x15C JUMP JUMPDEST POP SWAP1 JUMP JUMPDEST PUSH1 0x0 PUSH1 0x40 MLOAD SWAP1 POP SWAP1 JUMP JUMPDEST PUSH1 0x0 DUP1 REVERT JUMPDEST PUSH1 0x0 DUP1 REVERT JUMPDEST PUSH1 0x0 PUSH20 0xFFFFFFFFFFFFFFFFFFFFFFFFFFFFFFFFFFFFFFFF DUP3 AND SWAP1 POP SWAP2 SWAP1 POP JUMP JUMPDEST PUSH1 0x0 PUSH3 0x1BB DUP3 PUSH3 0x18E JUMP JUMPDEST SWAP1 POP SWAP2 SWAP1 POP JUMP JUMPDEST PUSH3 0x1CD DUP2 PUSH3 0x1AE JUMP JUMPDEST DUP2 EQ PUSH3 0x1D9 JUMPI PUSH1 0x0 DUP1 REVERT JUMPDEST POP JUMP JUMPDEST PUSH1 0x0 DUP2 MLOAD SWAP1 POP PUSH3 0x1ED DUP2 PUSH3 0x1C2 JUMP JUMPDEST SWAP3 SWAP2 POP POP JUMP JUMPDEST PUSH1 0x0 DUP1 REVERT JUMPDEST PUSH1 0x0 DUP1 REVERT JUMPDEST PUSH1 0x0 PUSH1 0x1F NOT PUSH1 0x1F DUP4 ADD AND SWAP1 POP SWAP2 SWAP1 POP JUMP JUMPDEST PUSH32 0x4E487B7100000000000000000000000000000000000000000000000000000000 PUSH1 0x0 MSTORE PUSH1 0x41 PUSH1 0x4 MSTORE PUSH1 0x24 PUSH1 0x0 REVERT JUMPDEST PUSH3 0x248 DUP3 PUSH3 0x1FD JUMP JUMPDEST DUP2 ADD DUP2 DUP2 LT PUSH8 0xFFFFFFFFFFFFFFFF DUP3 GT OR ISZERO PUSH3 0x26A JUMPI PUSH3 0x269 PUSH3 0x20E JUMP JUMPDEST JUMPDEST DUP1 PUSH1 0x40 MSTORE POP POP POP JUMP JUMPDEST PUSH1 0x0 PUSH3 0x27F PUSH3 0x17A JUMP JUMPDEST SWAP1 POP PUSH3 0x28D DUP3 DUP3 PUSH3 0x23D JUMP JUMPDEST SWAP2 SWAP1 POP JUMP JUMPDEST PUSH1 0x0 PUSH8 0xFFFFFFFFFFFFFFFF DUP3 GT ISZERO PUSH3 0x2B0 JUMPI PUSH3 0x2AF PUSH3 0x20E JUMP JUMPDEST JUMPDEST PUSH3 0x2BB DUP3 PUSH3 0x1FD JUMP JUMPDEST SWAP1 POP PUSH1 0x20 DUP2 ADD SWAP1 POP SWAP2 SWAP1 POP JUMP JUMPDEST PUSH1 0x0 JUMPDEST DUP4 DUP2 LT ISZERO PUSH3 0x2E8 JUMPI DUP1 DUP3 ADD MLOAD DUP2 DUP5 ADD MSTORE PUSH1 0x20 DUP2 ADD SWAP1 POP PUSH3 0x2CB JUMP JUMPDEST DUP4 DUP2 GT ISZERO PUSH3 0x2F8 JUMPI PUSH1 0x0 DUP5 DUP5 ADD MSTORE JUMPDEST POP POP POP POP JUMP JUMPDEST PUSH1 0x0 PUSH3 0x315 PUSH3 0x30F DUP5 PUSH3 0x292 JUMP JUMPDEST PUSH3 0x273 JUMP JUMPDEST SWAP1 POP DUP3 DUP2 MSTORE PUSH1 0x20 DUP2 ADD DUP5 DUP5 DUP5 ADD GT ISZERO PUSH3 0x334 JUMPI PUSH3 0x333 PUSH3 0x1F8 JUMP JUMPDEST JUMPDEST PUSH3 0x341 DUP5 DUP3 DUP6 PUSH3 0x2C8 JUMP JUMPDEST POP SWAP4 SWAP3 POP POP POP JUMP JUMPDEST PUSH1 0x0 DUP3 PUSH1 0x1F DUP4 ADD SLT PUSH3 0x361 JUMPI PUSH3 0x360 PUSH3 0x1F3 JUMP JUMPDEST JUMPDEST DUP2 MLOAD PUSH3 0x373 DUP5 DUP3 PUSH1 0x20 DUP7 ADD PUSH3 0x2FE JUMP JUMPDEST SWAP2 POP POP SWAP3 SWAP2 POP POP JUMP JUMPDEST PUSH1 0x0 DUP2 SWAP1 POP SWAP2 SWAP1 POP JUMP JUMPDEST PUSH3 0x391 DUP2 PUSH3 0x37C JUMP JUMPDEST DUP2 EQ PUSH3 0x39D JUMPI PUSH1 0x0 DUP1 REVERT JUMPDEST POP JUMP JUMPDEST PUSH1 0x0 DUP2 MLOAD SWAP1 POP PUSH3 0x3B1 DUP2 PUSH3 0x386 JUMP JUMPDEST SWAP3 SWAP2 POP POP JUMP JUMPDEST PUSH1 0x0 DUP1 PUSH1 0x0 DUP1 PUSH1 0x0 PUSH1 0xA0 DUP7 DUP9 SUB SLT ISZERO PUSH3 0x3D6 JUMPI PUSH3 0x3D5 PUSH3 0x184 JUMP JUMPDEST JUMPDEST PUSH1 0x0 PUSH3 0x3E6 DUP9 DUP3 DUP10 ADD PUSH3 0x1DC JUMP JUMPDEST SWAP6 POP POP PUSH1 0x20 DUP7 ADD MLOAD PUSH8 0xFFFFFFFFFFFFFFFF DUP2 GT ISZERO PUSH3 0x40A JUMPI PUSH3 0x409 PUSH3 0x189 JUMP JUMPDEST JUMPDEST PUSH3 0x418 DUP9 DUP3 DUP10 ADD PUSH3 0x349 JUMP JUMPDEST SWAP5 POP POP PUSH1 0x40 DUP7 ADD MLOAD PUSH8 0xFFFFFFFFFFFFFFFF DUP2 GT ISZERO PUSH3 0x43C JUMPI PUSH3 0x43B PUSH3 0x189 JUMP JUMPDEST JUMPDEST PUSH3 0x44A DUP9 DUP3 DUP10 ADD PUSH3 0x349 JUMP JUMPDEST SWAP4 POP POP PUSH1 0x60 PUSH3 0x45D DUP9 DUP3 DUP10 ADD PUSH3 0x3A0 JUMP JUMPDEST SWAP3 POP POP PUSH1 0x80 PUSH3 0x470 DUP9 DUP3 DUP10 ADD PUSH3 0x3A0 JUMP JUMPDEST SWAP2 POP POP SWAP3 SWAP6 POP SWAP3 SWAP6 SWAP1 SWAP4 POP JUMP JUMPDEST PUSH32 0x4E487B7100000000000000000000000000000000000000000000000000000000 PUSH1 0x0 MSTORE PUSH1 0x22 PUSH1 0x4 MSTORE PUSH1 0x24 PUSH1 0x0 REVERT JUMPDEST PUSH1 0x0 PUSH1 0x2 DUP3 DIV SWAP1 POP PUSH1 0x1 DUP3 AND DUP1 PUSH3 0x4C5 JUMPI PUSH1 0x7F DUP3 AND SWAP2 POP JUMPDEST PUSH1 0x20 DUP3 LT DUP2 SUB PUSH3 0x4DB JUMPI PUSH3 0x4DA PUSH3 0x47D JUMP JUMPDEST JUMPDEST POP SWAP2 SWAP1 POP JUMP JUMPDEST PUSH2 0xD7E DUP1 PUSH3 0x4F1 PUSH1 0x0 CODECOPY PUSH1 0x0 RETURN INVALID PUSH1 0x80 PUSH1 0x40 MSTORE PUSH1 0x4 CALLDATASIZE LT PUSH2 0x55 JUMPI PUSH1 0x0 CALLDATALOAD PUSH1 0xE0 SHR DUP1 PUSH4 0x1BEAB5E8 EQ PUSH2 0x5A JUMPI DUP1 PUSH4 0xA541A2A2 EQ PUSH2 0x71 JUMPI DUP1 PUSH4 0xA8B93C8D EQ PUSH2 0x9C JUMPI DUP1 PUSH4 0xC2052403 EQ PUSH2 0xC5 JUMPI DUP1 PUSH4 0xD7BB99BA EQ PUSH2 0xDC JUMPI DUP1 PUSH4 0xF020CD19 EQ PUSH2 0xE6 JUMPI JUMPDEST PUSH1 0x0 DUP1 REVERT JUMPDEST CALLVALUE DUP1 ISZERO PUSH2 0x66 JUMPI PUSH1 0x0 DUP1 REVERT JUMPDEST POP PUSH2 0x6F PUSH2 0x111 JUMP JUMPDEST STOP JUMPDEST CALLVALUE DUP1 ISZERO PUSH2 0x7D JUMPI PUSH1 0x0 DUP1 REVERT JUMPDEST POP PUSH2 0x86 PUSH2 0x267 JUMP JUMPDEST PUSH1 0x40 MLOAD PUSH2 0x93 SWAP2 SWAP1 PUSH2 0x751 JUMP JUMPDEST PUSH1 0x40 MLOAD DUP1 SWAP2 SUB SWAP1 RETURN JUMPDEST CALLVALUE DUP1 ISZERO PUSH2 0xA8 JUMPI PUSH1 0x0 DUP1 REVERT JUMPDEST POP PUSH2 0xC3 PUSH1 0x4 DUP1 CALLDATASIZE SUB DUP2 ADD SWAP1 PUSH2 0xBE SWAP2 SWAP1 PUSH2 0x8C6 JUMP JUMPDEST PUSH2 0x28B JUMP JUMPDEST STOP JUMPDEST CALLVALUE DUP1 ISZERO PUSH2 0xD1 JUMPI PUSH1 0x0 DUP1 REVERT JUMPDEST POP PUSH2 0xDA PUSH2 0x2A5 JUMP JUMPDEST STOP JUMPDEST PUSH2 0xE4 PUSH2 0x38A JUMP JUMPDEST STOP JUMPDEST CALLVALUE DUP1 ISZERO PUSH2 0xF2 JUMPI PUSH1 0x0 DUP1 REVERT JUMPDEST POP PUSH2 0xFB PUSH2 0x51F JUMP JUMPDEST PUSH1 0x40 MLOAD PUSH2 0x108 SWAP2 SWAP1 PUSH2 0x997 JUMP JUMPDEST PUSH1 0x40 MLOAD DUP1 SWAP2 SUB SWAP1 RETURN JUMPDEST CALLER DUP1 PUSH20 0xFFFFFFFFFFFFFFFFFFFFFFFFFFFFFFFFFFFFFFFF AND PUSH1 0x0 DUP1 SLOAD SWAP1 PUSH2 0x100 EXP SWAP1 DIV PUSH20 0xFFFFFFFFFFFFFFFFFFFFFFFFFFFFFFFFFFFFFFFF AND PUSH20 0xFFFFFFFFFFFFFFFFFFFFFFFFFFFFFFFFFFFFFFFF AND EQ PUSH2 0x16A JUMPI PUSH1 0x0 DUP1 REVERT JUMPDEST PUSH1 0x0 DUP1 PUSH1 0x2 DUP2 GT ISZERO PUSH2 0x17F JUMPI PUSH2 0x17E PUSH2 0x9B9 JUMP JUMPDEST JUMPDEST PUSH1 0x5 PUSH1 0x0 SWAP1 SLOAD SWAP1 PUSH2 0x100 EXP SWAP1 DIV PUSH1 0xFF AND PUSH1 0x2 DUP2 GT ISZERO PUSH2 0x1A1 JUMPI PUSH2 0x1A0 PUSH2 0x9B9 JUMP JUMPDEST JUMPDEST EQ PUSH2 0x1AB JUMPI PUSH1 0x0 DUP1 REVERT JUMPDEST PUSH1 0x6 SLOAD TIMESTAMP GT PUSH2 0x1B9 JUMPI PUSH1 0x0 DUP1 REVERT JUMPDEST PUSH2 0x1C3 PUSH1 0x1 PUSH2 0x5B1 JUMP JUMPDEST PUSH1 0x0 DUP1 SLOAD SWAP1 PUSH2 0x100 EXP SWAP1 DIV PUSH20 0xFFFFFFFFFFFFFFFFFFFFFFFFFFFFFFFFFFFFFFFF AND PUSH20 0xFFFFFFFFFFFFFFFFFFFFFFFFFFFFFFFFFFFFFFFF AND PUSH2 0x8FC PUSH1 0x4 SLOAD SWAP1 DUP2 ISZERO MUL SWAP1 PUSH1 0x40 MLOAD PUSH1 0x0 PUSH1 0x40 MLOAD DUP1 DUP4 SUB DUP2 DUP6 DUP9 DUP9 CALL SWAP4 POP POP POP POP ISZERO DUP1 ISZERO PUSH2 0x22B JUMPI RETURNDATASIZE PUSH1 0x0 DUP1 RETURNDATACOPY RETURNDATASIZE PUSH1 0x0 REVERT JUMPDEST POP PUSH31 0x6567369884327EC669ABAD9DC032C3FC1B6C1B77AED67E31F8311864551E74 PUSH1 0x1 PUSH1 0x40 MLOAD PUSH2 0x25B SWAP2 SWAP1 PUSH2 0xB29 JUMP JUMPDEST PUSH1 0x40 MLOAD DUP1 SWAP2 SUB SWAP1 LOG1 POP POP JUMP JUMPDEST PUSH1 0x0 DUP1 SLOAD SWAP1 PUSH2 0x100 EXP SWAP1 DIV PUSH20 0xFFFFFFFFFFFFFFFFFFFFFFFFFFFFFFFFFFFFFFFF AND DUP2 JUMP JUMPDEST DUP1 PUSH1 0x1 SWAP1 DUP1 MLOAD SWAP1 PUSH1 0x20 ADD SWAP1 PUSH2 0x2A1 SWAP3 SWAP2 SWAP1 PUSH2 0x66D JUMP JUMPDEST POP POP JUMP JUMPDEST PUSH1 0x2 DUP1 PUSH1 0x2 DUP2 GT ISZERO PUSH2 0x2BA JUMPI PUSH2 0x2B9 PUSH2 0x9B9 JUMP JUMPDEST JUMPDEST PUSH1 0x5 PUSH1 0x0 SWAP1 SLOAD SWAP1 PUSH2 0x100 EXP SWAP1 DIV PUSH1 0xFF AND PUSH1 0x2 DUP2 GT ISZERO PUSH2 0x2DC JUMPI PUSH2 0x2DB PUSH2 0x9B9 JUMP JUMPDEST JUMPDEST EQ PUSH2 0x2E6 JUMPI PUSH1 0x0 DUP1 REVERT JUMPDEST PUSH1 0x0 DUP1 SLOAD SWAP1 PUSH2 0x100 EXP SWAP1 DIV PUSH20 0xFFFFFFFFFFFFFFFFFFFFFFFFFFFFFFFFFFFFFFFF AND PUSH20 0xFFFFFFFFFFFFFFFFFFFFFFFFFFFFFFFFFFFFFFFF AND PUSH2 0x8FC PUSH1 0x4 SLOAD SWAP1 DUP2 ISZERO MUL SWAP1 PUSH1 0x40 MLOAD PUSH1 0x0 PUSH1 0x40 MLOAD DUP1 DUP4 SUB DUP2 DUP6 DUP9 DUP9 CALL SWAP4 POP POP POP POP ISZERO DUP1 ISZERO PUSH2 0x34E JUMPI RETURNDATASIZE PUSH1 0x0 DUP1 RETURNDATACOPY RETURNDATASIZE PUSH1 0x0 REVERT JUMPDEST POP PUSH32 0xDA700EA0A4F90D17381707C06CA4125E32C8A65B28E82FF0D1850AF50A6D4CCD PUSH1 0x1 PUSH1 0x40 MLOAD PUSH2 0x37F SWAP2 SWAP1 PUSH2 0xBAA JUMP JUMPDEST PUSH1 0x40 MLOAD DUP1 SWAP2 SUB SWAP1 LOG1 POP JUMP JUMPDEST PUSH1 0x0 DUP1 PUSH1 0x2 DUP2 GT ISZERO PUSH2 0x39F JUMPI PUSH2 0x39E PUSH2 0x9B9 JUMP JUMPDEST JUMPDEST PUSH1 0x5 PUSH1 0x0 SWAP1 SLOAD SWAP1 PUSH2 0x100 EXP SWAP1 DIV PUSH1 0xFF AND PUSH1 0x2 DUP2 GT ISZERO PUSH2 0x3C1 JUMPI PUSH2 0x3C0 PUSH2 0x9B9 JUMP JUMPDEST JUMPDEST EQ PUSH2 0x3CB JUMPI PUSH1 0x0 DUP1 REVERT JUMPDEST PUSH1 0x6 SLOAD TIMESTAMP GT ISZERO PUSH2 0x3DA JUMPI PUSH1 0x0 DUP1 REVERT JUMPDEST PUSH1 0x0 DUP1 SLOAD SWAP1 PUSH2 0x100 EXP SWAP1 DIV PUSH20 0xFFFFFFFFFFFFFFFFFFFFFFFFFFFFFFFFFFFFFFFF AND PUSH20 0xFFFFFFFFFFFFFFFFFFFFFFFFFFFFFFFFFFFFFFFF AND CALLER PUSH20 0xFFFFFFFFFFFFFFFFFFFFFFFFFFFFFFFFFFFFFFFF AND SUB PUSH2 0x432 JUMPI PUSH1 0x0 DUP1 REVERT JUMPDEST PUSH2 0x484 CALLVALUE PUSH1 0x7 PUSH1 0x0 CALLER PUSH20 0xFFFFFFFFFFFFFFFFFFFFFFFFFFFFFFFFFFFFFFFF AND PUSH20 0xFFFFFFFFFFFFFFFFFFFFFFFFFFFFFFFFFFFFFFFF AND DUP2 MSTORE PUSH1 0x20 ADD SWAP1 DUP2 MSTORE PUSH1 0x20 ADD PUSH1 0x0 KECCAK256 SLOAD PUSH2 0x5DE SWAP1 SWAP2 SWAP1 PUSH4 0xFFFFFFFF AND JUMP JUMPDEST PUSH1 0x7 PUSH1 0x0 CALLER PUSH20 0xFFFFFFFFFFFFFFFFFFFFFFFFFFFFFFFFFFFFFFFF AND PUSH20 0xFFFFFFFFFFFFFFFFFFFFFFFFFFFFFFFFFFFFFFFF AND DUP2 MSTORE PUSH1 0x20 ADD SWAP1 DUP2 MSTORE PUSH1 0x20 ADD PUSH1 0x0 KECCAK256 DUP2 SWAP1 SSTORE POP CALLVALUE PUSH1 0x4 SLOAD PUSH2 0x4D5 SWAP2 SWAP1 PUSH2 0xC18 JUMP JUMPDEST PUSH1 0x4 DUP2 SWAP1 SSTORE POP PUSH32 0x75AE3E7C973A88747144369F710C5999060A6321BE0506174D3F5C64BDFC674E CALLER CALLVALUE PUSH1 0x40 MLOAD PUSH2 0x50C SWAP3 SWAP2 SWAP1 PUSH2 0xC9E JUMP JUMPDEST PUSH1 0x40 MLOAD DUP1 SWAP2 SUB SWAP1 LOG1 PUSH2 0x51C PUSH2 0x5F4 JUMP JUMPDEST POP JUMP JUMPDEST PUSH1 0x60 PUSH1 0x1 DUP1 SLOAD PUSH2 0x52E SWAP1 PUSH2 0xA63 JUMP JUMPDEST DUP1 PUSH1 0x1F ADD PUSH1 0x20 DUP1 SWAP2 DIV MUL PUSH1 0x20 ADD PUSH1 0x40 MLOAD SWAP1 DUP2 ADD PUSH1 0x40 MSTORE DUP1 SWAP3 SWAP2 SWAP1 DUP2 DUP2 MSTORE PUSH1 0x20 ADD DUP3 DUP1 SLOAD PUSH2 0x55A SWAP1 PUSH2 0xA63 JUMP JUMPDEST DUP1 ISZERO PUSH2 0x5A7 JUMPI DUP1 PUSH1 0x1F LT PUSH2 0x57C JUMPI PUSH2 0x100 DUP1 DUP4 SLOAD DIV MUL DUP4 MSTORE SWAP2 PUSH1 0x20 ADD SWAP2 PUSH2 0x5A7 JUMP JUMPDEST DUP3 ADD SWAP2 SWAP1 PUSH1 0x0 MSTORE PUSH1 0x20 PUSH1 0x0 KECCAK256 SWAP1 JUMPDEST DUP2 SLOAD DUP2 MSTORE SWAP1 PUSH1 0x1 ADD SWAP1 PUSH1 0x20 ADD DUP1 DUP4 GT PUSH2 0x58A JUMPI DUP3 SWAP1 SUB PUSH1 0x1F AND DUP3 ADD SWAP2 JUMPDEST POP POP POP POP POP SWAP1 POP SWAP1 JUMP JUMPDEST DUP1 PUSH1 0x5 PUSH1 0x0 PUSH2 0x100 EXP DUP2 SLOAD DUP2 PUSH1 0xFF MUL NOT AND SWAP1 DUP4 PUSH1 0x2 DUP2 GT ISZERO PUSH2 0x5D6 JUMPI PUSH2 0x5D5 PUSH2 0x9B9 JUMP JUMPDEST JUMPDEST MUL OR SWAP1 SSTORE POP POP JUMP JUMPDEST PUSH1 0x0 DUP2 DUP4 PUSH2 0x5EC SWAP2 SWAP1 PUSH2 0xC18 JUMP JUMPDEST SWAP1 POP SWAP3 SWAP2 POP POP JUMP JUMPDEST PUSH1 0x4 SLOAD PUSH1 0x3 SLOAD LT PUSH2 0x66B JUMPI PUSH32 0x15AC727D1CA51352F519E3F5899500EAD795E56A4A39CEAFEEA835331346017A PUSH1 0x1 PUSH1 0x40 MLOAD PUSH2 0x62F SWAP2 SWAP1 PUSH2 0xD13 JUMP JUMPDEST PUSH1 0x40 MLOAD DUP1 SWAP2 SUB SWAP1 LOG1 PUSH1 0x2 PUSH1 0x5 PUSH1 0x0 PUSH2 0x100 EXP DUP2 SLOAD DUP2 PUSH1 0xFF MUL NOT AND SWAP1 DUP4 PUSH1 0x2 DUP2 GT ISZERO PUSH2 0x65D JUMPI PUSH2 0x65C PUSH2 0x9B9 JUMP JUMPDEST JUMPDEST MUL OR SWAP1 SSTORE POP PUSH2 0x66A PUSH2 0x2A5 JUMP JUMPDEST JUMPDEST JUMP JUMPDEST DUP3 DUP1 SLOAD PUSH2 0x679 SWAP1 PUSH2 0xA63 JUMP JUMPDEST SWAP1 PUSH1 0x0 MSTORE PUSH1 0x20 PUSH1 0x0 KECCAK256 SWAP1 PUSH1 0x1F ADD PUSH1 0x20 SWAP1 DIV DUP2 ADD SWAP3 DUP3 PUSH2 0x69B JUMPI PUSH1 0x0 DUP6 SSTORE PUSH2 0x6E2 JUMP JUMPDEST DUP3 PUSH1 0x1F LT PUSH2 0x6B4 JUMPI DUP1 MLOAD PUSH1 0xFF NOT AND DUP4 DUP1 ADD OR DUP6 SSTORE PUSH2 0x6E2 JUMP JUMPDEST DUP3 DUP1 ADD PUSH1 0x1 ADD DUP6 SSTORE DUP3 ISZERO PUSH2 0x6E2 JUMPI SWAP2 DUP3 ADD JUMPDEST DUP3 DUP2 GT ISZERO PUSH2 0x6E1 JUMPI DUP3 MLOAD DUP3 SSTORE SWAP2 PUSH1 0x20 ADD SWAP2 SWAP1 PUSH1 0x1 ADD SWAP1 PUSH2 0x6C6 JUMP JUMPDEST JUMPDEST POP SWAP1 POP PUSH2 0x6EF SWAP2 SWAP1 PUSH2 0x6F3 JUMP JUMPDEST POP SWAP1 JUMP JUMPDEST JUMPDEST DUP1 DUP3 GT ISZERO PUSH2 0x70C JUMPI PUSH1 0x0 DUP2 PUSH1 0x0 SWAP1 SSTORE POP PUSH1 0x1 ADD PUSH2 0x6F4 JUMP JUMPDEST POP SWAP1 JUMP JUMPDEST PUSH1 0x0 PUSH20 0xFFFFFFFFFFFFFFFFFFFFFFFFFFFFFFFFFFFFFFFF DUP3 AND SWAP1 POP SWAP2 SWAP1 POP JUMP JUMPDEST PUSH1 0x0 PUSH2 0x73B DUP3 PUSH2 0x710 JUMP JUMPDEST SWAP1 POP SWAP2 SWAP1 POP JUMP JUMPDEST PUSH2 0x74B DUP2 PUSH2 0x730 JUMP JUMPDEST DUP3 MSTORE POP POP JUMP JUMPDEST PUSH1 0x0 PUSH1 0x20 DUP3 ADD SWAP1 POP PUSH2 0x766 PUSH1 0x0 DUP4 ADD DUP5 PUSH2 0x742 JUMP JUMPDEST SWAP3 SWAP2 POP POP JUMP JUMPDEST PUSH1 0x0 PUSH1 0x40 MLOAD SWAP1 POP SWAP1 JUMP JUMPDEST PUSH1 0x0 DUP1 REVERT JUMPDEST PUSH1 0x0 DUP1 REVERT JUMPDEST PUSH1 0x0 DUP1 REVERT JUMPDEST PUSH1 0x0 DUP1 REVERT JUMPDEST PUSH1 0x0 PUSH1 0x1F NOT PUSH1 0x1F DUP4 ADD AND SWAP1 POP SWAP2 SWAP1 POP JUMP JUMPDEST PUSH32 0x4E487B7100000000000000000000000000000000000000000000000000000000 PUSH1 0x0 MSTORE PUSH1 0x41 PUSH1 0x4 MSTORE PUSH1 0x24 PUSH1 0x0 REVERT JUMPDEST PUSH2 0x7D3 DUP3 PUSH2 0x78A JUMP JUMPDEST DUP2 ADD DUP2 DUP2 LT PUSH8 0xFFFFFFFFFFFFFFFF DUP3 GT OR ISZERO PUSH2 0x7F2 JUMPI PUSH2 0x7F1 PUSH2 0x79B JUMP JUMPDEST JUMPDEST DUP1 PUSH1 0x40 MSTORE POP POP POP JUMP JUMPDEST PUSH1 0x0 PUSH2 0x805 PUSH2 0x76C JUMP JUMPDEST SWAP1 POP PUSH2 0x811 DUP3 DUP3 PUSH2 0x7CA JUMP JUMPDEST SWAP2 SWAP1 POP JUMP JUMPDEST PUSH1 0x0 PUSH8 0xFFFFFFFFFFFFFFFF DUP3 GT ISZERO PUSH2 0x831 JUMPI PUSH2 0x830 PUSH2 0x79B JUMP JUMPDEST JUMPDEST PUSH2 0x83A DUP3 PUSH2 0x78A JUMP JUMPDEST SWAP1 POP PUSH1 0x20 DUP2 ADD SWAP1 POP SWAP2 SWAP1 POP JUMP JUMPDEST DUP3 DUP2 DUP4 CALLDATACOPY PUSH1 0x0 DUP4 DUP4 ADD MSTORE POP POP POP JUMP JUMPDEST PUSH1 0x0 PUSH2 0x869 PUSH2 0x864 DUP5 PUSH2 0x816 JUMP JUMPDEST PUSH2 0x7FB JUMP JUMPDEST SWAP1 POP DUP3 DUP2 MSTORE PUSH1 0x20 DUP2 ADD DUP5 DUP5 DUP5 ADD GT ISZERO PUSH2 0x885 JUMPI PUSH2 0x884 PUSH2 0x785 JUMP JUMPDEST JUMPDEST PUSH2 0x890 DUP5 DUP3 DUP6 PUSH2 0x847 JUMP JUMPDEST POP SWAP4 SWAP3 POP POP POP JUMP JUMPDEST PUSH1 0x0 DUP3 PUSH1 0x1F DUP4 ADD SLT PUSH2 0x8AD JUMPI PUSH2 0x8AC PUSH2 0x780 JUMP JUMPDEST JUMPDEST DUP2 CALLDATALOAD PUSH2 0x8BD DUP5 DUP3 PUSH1 0x20 DUP7 ADD PUSH2 0x856 JUMP JUMPDEST SWAP2 POP POP SWAP3 SWAP2 POP POP JUMP JUMPDEST PUSH1 0x0 PUSH1 0x20 DUP3 DUP5 SUB SLT ISZERO PUSH2 0x8DC JUMPI PUSH2 0x8DB PUSH2 0x776 JUMP JUMPDEST JUMPDEST PUSH1 0x0 DUP3 ADD CALLDATALOAD PUSH8 0xFFFFFFFFFFFFFFFF DUP2 GT ISZERO PUSH2 0x8FA JUMPI PUSH2 0x8F9 PUSH2 0x77B JUMP JUMPDEST JUMPDEST PUSH2 0x906 DUP5 DUP3 DUP6 ADD PUSH2 0x898 JUMP JUMPDEST SWAP2 POP POP SWAP3 SWAP2 POP POP JUMP JUMPDEST PUSH1 0x0 DUP2 MLOAD SWAP1 POP SWAP2 SWAP1 POP JUMP JUMPDEST PUSH1 0x0 DUP3 DUP3 MSTORE PUSH1 0x20 DUP3 ADD SWAP1 POP SWAP3 SWAP2 POP POP JUMP JUMPDEST PUSH1 0x0 JUMPDEST DUP4 DUP2 LT ISZERO PUSH2 0x949 JUMPI DUP1 DUP3 ADD MLOAD DUP2 DUP5 ADD MSTORE PUSH1 0x20 DUP2 ADD SWAP1 POP PUSH2 0x92E JUMP JUMPDEST DUP4 DUP2 GT ISZERO PUSH2 0x958 JUMPI PUSH1 0x0 DUP5 DUP5 ADD MSTORE JUMPDEST POP POP POP POP JUMP JUMPDEST PUSH1 0x0 PUSH2 0x969 DUP3 PUSH2 0x90F JUMP JUMPDEST PUSH2 0x973 DUP2 DUP6 PUSH2 0x91A JUMP JUMPDEST SWAP4 POP PUSH2 0x983 DUP2 DUP6 PUSH1 0x20 DUP7 ADD PUSH2 0x92B JUMP JUMPDEST PUSH2 0x98C DUP2 PUSH2 0x78A JUMP JUMPDEST DUP5 ADD SWAP2 POP POP SWAP3 SWAP2 POP POP JUMP JUMPDEST PUSH1 0x0 PUSH1 0x20 DUP3 ADD SWAP1 POP DUP2 DUP2 SUB PUSH1 0x0 DUP4 ADD MSTORE PUSH2 0x9B1 DUP2 DUP5 PUSH2 0x95E JUMP JUMPDEST SWAP1 POP SWAP3 SWAP2 POP POP JUMP JUMPDEST PUSH32 0x4E487B7100000000000000000000000000000000000000000000000000000000 PUSH1 0x0 MSTORE PUSH1 0x21 PUSH1 0x4 MSTORE PUSH1 0x24 PUSH1 0x0 REVERT JUMPDEST PUSH32 0x46756E6420726574726569766564000000000000000000000000000000000000 PUSH1 0x0 DUP3 ADD MSTORE POP JUMP JUMPDEST PUSH1 0x0 PUSH2 0xA1E PUSH1 0xE DUP4 PUSH2 0x91A JUMP JUMPDEST SWAP2 POP PUSH2 0xA29 DUP3 PUSH2 0x9E8 JUMP JUMPDEST PUSH1 0x20 DUP3 ADD SWAP1 POP SWAP2 SWAP1 POP JUMP JUMPDEST PUSH32 0x4E487B7100000000000000000000000000000000000000000000000000000000 PUSH1 0x0 MSTORE PUSH1 0x22 PUSH1 0x4 MSTORE PUSH1 0x24 PUSH1 0x0 REVERT JUMPDEST PUSH1 0x0 PUSH1 0x2 DUP3 DIV SWAP1 POP PUSH1 0x1 DUP3 AND DUP1 PUSH2 0xA7B JUMPI PUSH1 0x7F DUP3 AND SWAP2 POP JUMPDEST PUSH1 0x20 DUP3 LT DUP2 SUB PUSH2 0xA8E JUMPI PUSH2 0xA8D PUSH2 0xA34 JUMP JUMPDEST JUMPDEST POP SWAP2 SWAP1 POP JUMP JUMPDEST PUSH1 0x0 DUP2 SWAP1 POP DUP2 PUSH1 0x0 MSTORE PUSH1 0x20 PUSH1 0x0 KECCAK256 SWAP1 POP SWAP2 SWAP1 POP JUMP JUMPDEST PUSH1 0x0 DUP2 SLOAD PUSH2 0xAB6 DUP2 PUSH2 0xA63 JUMP JUMPDEST PUSH2 0xAC0 DUP2 DUP7 PUSH2 0x91A JUMP JUMPDEST SWAP5 POP PUSH1 0x1 DUP3 AND PUSH1 0x0 DUP2 EQ PUSH2 0xADB JUMPI PUSH1 0x1 DUP2 EQ PUSH2 0xAED JUMPI PUSH2 0xB20 JUMP JUMPDEST PUSH1 0xFF NOT DUP4 AND DUP7 MSTORE PUSH1 0x20 DUP7 ADD SWAP4 POP PUSH2 0xB20 JUMP JUMPDEST PUSH2 0xAF6 DUP6 PUSH2 0xA94 JUMP JUMPDEST PUSH1 0x0 JUMPDEST DUP4 DUP2 LT ISZERO PUSH2 0xB18 JUMPI DUP2 SLOAD DUP2 DUP10 ADD MSTORE PUSH1 0x1 DUP3 ADD SWAP2 POP PUSH1 0x20 DUP2 ADD SWAP1 POP PUSH2 0xAF9 JUMP JUMPDEST DUP1 DUP9 ADD SWAP6 POP POP POP JUMPDEST POP POP POP SWAP3 SWAP2 POP POP JUMP JUMPDEST PUSH1 0x0 PUSH1 0x40 DUP3 ADD SWAP1 POP DUP2 DUP2 SUB PUSH1 0x0 DUP4 ADD MSTORE PUSH2 0xB42 DUP2 PUSH2 0xA11 JUMP JUMPDEST SWAP1 POP DUP2 DUP2 SUB PUSH1 0x20 DUP4 ADD MSTORE PUSH2 0xB56 DUP2 DUP5 PUSH2 0xAA9 JUMP JUMPDEST SWAP1 POP SWAP3 SWAP2 POP POP JUMP JUMPDEST PUSH32 0x69732046756E6465640000000000000000000000000000000000000000000000 PUSH1 0x0 DUP3 ADD MSTORE POP JUMP JUMPDEST PUSH1 0x0 PUSH2 0xB94 PUSH1 0x9 DUP4 PUSH2 0x91A JUMP JUMPDEST SWAP2 POP PUSH2 0xB9F DUP3 PUSH2 0xB5E JUMP JUMPDEST PUSH1 0x20 DUP3 ADD SWAP1 POP SWAP2 SWAP1 POP JUMP JUMPDEST PUSH1 0x0 PUSH1 0x40 DUP3 ADD SWAP1 POP DUP2 DUP2 SUB PUSH1 0x0 DUP4 ADD MSTORE PUSH2 0xBC4 DUP2 DUP5 PUSH2 0xAA9 JUMP JUMPDEST SWAP1 POP DUP2 DUP2 SUB PUSH1 0x20 DUP4 ADD MSTORE PUSH2 0xBD7 DUP2 PUSH2 0xB87 JUMP JUMPDEST SWAP1 POP SWAP3 SWAP2 POP POP JUMP JUMPDEST PUSH1 0x0 DUP2 SWAP1 POP SWAP2 SWAP1 POP JUMP JUMPDEST PUSH32 0x4E487B7100000000000000000000000000000000000000000000000000000000 PUSH1 0x0 MSTORE PUSH1 0x11 PUSH1 0x4 MSTORE PUSH1 0x24 PUSH1 0x0 REVERT JUMPDEST PUSH1 0x0 PUSH2 0xC23 DUP3 PUSH2 0xBDF JUMP JUMPDEST SWAP2 POP PUSH2 0xC2E DUP4 PUSH2 0xBDF JUMP JUMPDEST SWAP3 POP DUP3 PUSH32 0xFFFFFFFFFFFFFFFFFFFFFFFFFFFFFFFFFFFFFFFFFFFFFFFFFFFFFFFFFFFFFFFF SUB DUP3 GT ISZERO PUSH2 0xC63 JUMPI PUSH2 0xC62 PUSH2 0xBE9 JUMP JUMPDEST JUMPDEST DUP3 DUP3 ADD SWAP1 POP SWAP3 SWAP2 POP POP JUMP JUMPDEST PUSH1 0x0 PUSH2 0xC79 DUP3 PUSH2 0x710 JUMP JUMPDEST SWAP1 POP SWAP2 SWAP1 POP JUMP JUMPDEST PUSH2 0xC89 DUP2 PUSH2 0xC6E JUMP JUMPDEST DUP3 MSTORE POP POP JUMP JUMPDEST PUSH2 0xC98 DUP2 PUSH2 0xBDF JUMP JUMPDEST DUP3 MSTORE POP POP JUMP JUMPDEST PUSH1 0x0 PUSH1 0x40 DUP3 ADD SWAP1 POP PUSH2 0xCB3 PUSH1 0x0 DUP4 ADD DUP6 PUSH2 0xC80 JUMP JUMPDEST PUSH2 0xCC0 PUSH1 0x20 DUP4 ADD DUP5 PUSH2 0xC8F JUMP JUMPDEST SWAP4 SWAP3 POP POP POP JUMP JUMPDEST PUSH32 0x54686520476F616C206973207265616368656400000000000000000000000000 PUSH1 0x0 DUP3 ADD MSTORE POP JUMP JUMPDEST PUSH1 0x0 PUSH2 0xCFD PUSH1 0x13 DUP4 PUSH2 0x91A JUMP JUMPDEST SWAP2 POP PUSH2 0xD08 DUP3 PUSH2 0xCC7 JUMP JUMPDEST PUSH1 0x20 DUP3 ADD SWAP1 POP SWAP2 SWAP1 POP JUMP JUMPDEST PUSH1 0x0 PUSH1 0x40 DUP3 ADD SWAP1 POP DUP2 DUP2 SUB PUSH1 0x0 DUP4 ADD MSTORE PUSH2 0xD2C DUP2 PUSH2 0xCF0 JUMP JUMPDEST SWAP1 POP DUP2 DUP2 SUB PUSH1 0x20 DUP4 ADD MSTORE PUSH2 0xD40 DUP2 DUP5 PUSH2 0xAA9 JUMP JUMPDEST SWAP1 POP SWAP3 SWAP2 POP POP JUMP INVALID LOG2 PUSH5 0x6970667358 0x22 SLT KECCAK256 0xBB BLOCKHASH PUSH14 0x46CA0B021D14049D8F0D7A3A64F0 CHAINID 0xC0 0xC6 0xAC PUSH27 0xAA2FC8F533AB138DEC0564736F6C634300080D0033000000000000 "
				},
				"gasEstimates": {
					"creation": {
						"codeDepositCost": "690800",
						"executionCost": "infinite",
						"totalCost": "infinite"
					},
					"external": {
						"contribute()": "infinite",
						"getProjectTitle()": "infinite",
						"payOut()": "infinite",
						"projectCreator()": "2511",
						"retreiveFunds()": "infinite",
						"setProjectTitle(string)": "infinite"
					},
					"internal": {
						"checkGoalReached()": "infinite",
						"setState(enum Project.State)": "24298",
						"start(string memory,string memory,uint256,uint256)": "infinite"
					}
				},
				"methodIdentifiers": {
					"contribute()": "d7bb99ba",
					"getProjectTitle()": "f020cd19",
					"payOut()": "c2052403",
					"projectCreator()": "a541a2a2",
					"retreiveFunds()": "1beab5e8",
					"setProjectTitle(string)": "a8b93c8d"
				}
			},
			"storageLayout": {
				"storage": [
					{
						"astId": 11,
						"contract": "contracts/Project.sol:Project",
						"label": "projectCreator",
						"offset": 0,
						"slot": "0",
						"type": "t_address_payable"
					},
					{
						"astId": 13,
						"contract": "contracts/Project.sol:Project",
						"label": "projectTitle",
						"offset": 0,
						"slot": "1",
						"type": "t_string_storage"
					},
					{
						"astId": 15,
						"contract": "contracts/Project.sol:Project",
						"label": "projectDescription",
						"offset": 0,
						"slot": "2",
						"type": "t_string_storage"
					},
					{
						"astId": 17,
						"contract": "contracts/Project.sol:Project",
						"label": "amountGoal",
						"offset": 0,
						"slot": "3",
						"type": "t_uint256"
					},
					{
						"astId": 19,
						"contract": "contracts/Project.sol:Project",
						"label": "currentBalance",
						"offset": 0,
						"slot": "4",
						"type": "t_uint256"
					},
					{
						"astId": 22,
						"contract": "contracts/Project.sol:Project",
						"label": "state",
						"offset": 0,
						"slot": "5",
						"type": "t_enum(State)9"
					},
					{
						"astId": 24,
						"contract": "contracts/Project.sol:Project",
						"label": "deadLine",
						"offset": 0,
						"slot": "6",
						"type": "t_uint256"
					},
					{
						"astId": 28,
						"contract": "contracts/Project.sol:Project",
						"label": "contributions",
						"offset": 0,
						"slot": "7",
						"type": "t_mapping(t_address,t_uint256)"
					}
				],
				"types": {
					"t_address": {
						"encoding": "inplace",
						"label": "address",
						"numberOfBytes": "20"
					},
					"t_address_payable": {
						"encoding": "inplace",
						"label": "address payable",
						"numberOfBytes": "20"
					},
					"t_enum(State)9": {
						"encoding": "inplace",
						"label": "enum Project.State",
						"numberOfBytes": "1"
					},
					"t_mapping(t_address,t_uint256)": {
						"encoding": "mapping",
						"key": "t_address",
						"label": "mapping(address => uint256)",
						"numberOfBytes": "32",
						"value": "t_uint256"
					},
					"t_string_storage": {
						"encoding": "bytes",
						"label": "string",
						"numberOfBytes": "32"
					},
					"t_uint256": {
						"encoding": "inplace",
						"label": "uint256",
						"numberOfBytes": "32"
					}
				}
			},
			"userdoc": {
				"kind": "user",
				"methods": {},
				"version": 1
			}
		}
	}
}