{
	"contracts/Crowfunding.sol": {
		"Crowfunding": {
			"abi": [
				{
					"anonymous": false,
					"inputs": [
						{
							"indexed": false,
							"internalType": "address",
							"name": "contractAddress",
							"type": "address"
						},
						{
							"indexed": false,
							"internalType": "address",
							"name": "projectCreator",
							"type": "address"
						},
						{
							"indexed": false,
							"internalType": "string",
							"name": "projectTitle",
							"type": "string"
						},
						{
							"indexed": false,
							"internalType": "string",
							"name": "projectDesc",
							"type": "string"
						},
						{
							"indexed": false,
							"internalType": "uint256",
							"name": "deadline",
							"type": "uint256"
						},
						{
							"indexed": false,
							"internalType": "uint256",
							"name": "goalAmount",
							"type": "uint256"
						}
					],
					"name": "ProjectStarted",
					"type": "event"
				},
				{
					"inputs": [
						{
							"internalType": "address",
							"name": "_address",
							"type": "address"
						}
					],
					"name": "getProjectByAddressCreator",
					"outputs": [
						{
							"internalType": "contract Project",
							"name": "",
							"type": "address"
						}
					],
					"stateMutability": "view",
					"type": "function"
				},
				{
					"inputs": [],
					"name": "returnAllProjects",
					"outputs": [
						{
							"internalType": "contract Project[]",
							"name": "",
							"type": "address[]"
						}
					],
					"stateMutability": "view",
					"type": "function"
				},
				{
					"inputs": [
						{
							"internalType": "string",
							"name": "_projectTitle",
							"type": "string"
						},
						{
							"internalType": "string",
							"name": "_projectDescription",
							"type": "string"
						},
						{
							"internalType": "uint256",
							"name": "_amountGoal",
							"type": "uint256"
						},
						{
							"internalType": "uint256",
							"name": "_nbDays",
							"type": "uint256"
						}
					],
					"name": "startProject",
					"outputs": [],
					"stateMutability": "nonpayable",
					"type": "function"
				}
			],
			"devdoc": {
				"kind": "dev",
				"methods": {
					"returnAllProjects()": {
						"details": "Function to get all projects' contract addresses.",
						"returns": {
							"_0": "A list of all projects' contract addreses"
						}
					}
				},
				"version": 1
			},
			"evm": {
				"assembly": "    /* \"contracts/Crowfunding.sol\":250:1755  contract Crowfunding {... */\n  mstore(0x40, 0x80)\n  callvalue\n  dup1\n  iszero\n  tag_1\n  jumpi\n  0x00\n  dup1\n  revert\ntag_1:\n  pop\n  dataSize(sub_0)\n  dup1\n  dataOffset(sub_0)\n  0x00\n  codecopy\n  0x00\n  return\nstop\n\nsub_0: assembly {\n        /* \"contracts/Crowfunding.sol\":250:1755  contract Crowfunding {... */\n      mstore(0x40, 0x80)\n      callvalue\n      dup1\n      iszero\n      tag_1\n      jumpi\n      0x00\n      dup1\n      revert\n    tag_1:\n      pop\n      jumpi(tag_2, lt(calldatasize, 0x04))\n      shr(0xe0, calldataload(0x00))\n      dup1\n      0x4bf28d9e\n      eq\n      tag_3\n      jumpi\n      dup1\n      0x85b6e28e\n      eq\n      tag_4\n      jumpi\n      dup1\n      0xa24a2d16\n      eq\n      tag_5\n      jumpi\n    tag_2:\n      0x00\n      dup1\n      revert\n        /* \"contracts/Crowfunding.sol\":858:1158  function getProjectByAddressCreator(address _address) external view returns (Project) {... */\n    tag_3:\n      tag_6\n      0x04\n      dup1\n      calldatasize\n      sub\n      dup2\n      add\n      swap1\n      tag_7\n      swap2\n      swap1\n      tag_8\n      jump\t// in\n    tag_7:\n      tag_9\n      jump\t// in\n    tag_6:\n      mload(0x40)\n      tag_10\n      swap2\n      swap1\n      tag_11\n      jump\t// in\n    tag_10:\n      mload(0x40)\n      dup1\n      swap2\n      sub\n      swap1\n      return\n        /* \"contracts/Crowfunding.sol\":751:851  function returnAllProjects() external view returns(Project[] memory){... */\n    tag_4:\n      tag_12\n      tag_13\n      jump\t// in\n    tag_12:\n      mload(0x40)\n      tag_14\n      swap2\n      swap1\n      tag_15\n      jump\t// in\n    tag_14:\n      mload(0x40)\n      dup1\n      swap2\n      sub\n      swap1\n      return\n        /* \"contracts/Crowfunding.sol\":1164:1749  function startProject (string memory _projectTitle, string memory _projectDescription, ... */\n    tag_5:\n      tag_16\n      0x04\n      dup1\n      calldatasize\n      sub\n      dup2\n      add\n      swap1\n      tag_17\n      swap2\n      swap1\n      tag_18\n      jump\t// in\n    tag_17:\n      tag_19\n      jump\t// in\n    tag_16:\n      stop\n        /* \"contracts/Crowfunding.sol\":858:1158  function getProjectByAddressCreator(address _address) external view returns (Project) {... */\n    tag_9:\n        /* \"contracts/Crowfunding.sol\":935:942  Project */\n      0x00\n        /* \"contracts/Crowfunding.sol\":957:963  uint i */\n      dup1\n        /* \"contracts/Crowfunding.sol\":964:965  0 */\n      0x00\n        /* \"contracts/Crowfunding.sol\":957:965  uint i=0 */\n      swap1\n      pop\n        /* \"contracts/Crowfunding.sol\":953:1105  for(uint i=0; i<projects.length; i++){... */\n    tag_21:\n        /* \"contracts/Crowfunding.sol\":969:977  projects */\n      0x00\n        /* \"contracts/Crowfunding.sol\":969:984  projects.length */\n      dup1\n      sload\n      swap1\n      pop\n        /* \"contracts/Crowfunding.sol\":967:968  i */\n      dup2\n        /* \"contracts/Crowfunding.sol\":967:984  i<projects.length */\n      lt\n        /* \"contracts/Crowfunding.sol\":953:1105  for(uint i=0; i<projects.length; i++){... */\n      iszero\n      tag_22\n      jumpi\n        /* \"contracts/Crowfunding.sol\":1038:1046  _address */\n      dup3\n        /* \"contracts/Crowfunding.sol\":1006:1046  projects[i].projectCreator() == _address */\n      0xffffffffffffffffffffffffffffffffffffffff\n      and\n        /* \"contracts/Crowfunding.sol\":1006:1014  projects */\n      0x00\n        /* \"contracts/Crowfunding.sol\":1015:1016  i */\n      dup3\n        /* \"contracts/Crowfunding.sol\":1006:1017  projects[i] */\n      dup2\n      sload\n      dup2\n      lt\n      tag_24\n      jumpi\n      tag_25\n      tag_26\n      jump\t// in\n    tag_25:\n    tag_24:\n      swap1\n      0x00\n      mstore\n      keccak256(0x00, 0x20)\n      add\n      0x00\n      swap1\n      sload\n      swap1\n      0x0100\n      exp\n      swap1\n      div\n      0xffffffffffffffffffffffffffffffffffffffff\n      and\n        /* \"contracts/Crowfunding.sol\":1006:1032  projects[i].projectCreator */\n      0xffffffffffffffffffffffffffffffffffffffff\n      and\n      0xa541a2a2\n        /* \"contracts/Crowfunding.sol\":1006:1034  projects[i].projectCreator() */\n      mload(0x40)\n      dup2\n      0xffffffff\n      and\n      0xe0\n      shl\n      dup2\n      mstore\n      0x04\n      add\n      0x20\n      mload(0x40)\n      dup1\n      dup4\n      sub\n      dup2\n      dup7\n      gas\n      staticcall\n      iszero\n      dup1\n      iszero\n      tag_29\n      jumpi\n      returndatasize\n      0x00\n      dup1\n      returndatacopy\n      revert(0x00, returndatasize)\n    tag_29:\n      pop\n      pop\n      pop\n      pop\n      mload(0x40)\n      returndatasize\n      not(0x1f)\n      0x1f\n      dup3\n      add\n      and\n      dup3\n      add\n      dup1\n      0x40\n      mstore\n      pop\n      dup2\n      add\n      swap1\n      tag_30\n      swap2\n      swap1\n      tag_31\n      jump\t// in\n    tag_30:\n        /* \"contracts/Crowfunding.sol\":1006:1046  projects[i].projectCreator() == _address */\n      0xffffffffffffffffffffffffffffffffffffffff\n      and\n      sub\n        /* \"contracts/Crowfunding.sol\":1003:1096  if(projects[i].projectCreator() == _address){... */\n      tag_32\n      jumpi\n        /* \"contracts/Crowfunding.sol\":1071:1079  projects */\n      0x00\n        /* \"contracts/Crowfunding.sol\":1080:1081  i */\n      dup2\n        /* \"contracts/Crowfunding.sol\":1071:1082  projects[i] */\n      dup2\n      sload\n      dup2\n      lt\n      tag_33\n      jumpi\n      tag_34\n      tag_26\n      jump\t// in\n    tag_34:\n    tag_33:\n      swap1\n      0x00\n      mstore\n      keccak256(0x00, 0x20)\n      add\n      0x00\n      swap1\n      sload\n      swap1\n      0x0100\n      exp\n      swap1\n      div\n      0xffffffffffffffffffffffffffffffffffffffff\n      and\n        /* \"contracts/Crowfunding.sol\":1064:1082  return projects[i] */\n      swap2\n      pop\n      pop\n      jump(tag_20)\n        /* \"contracts/Crowfunding.sol\":1003:1096  if(projects[i].projectCreator() == _address){... */\n    tag_32:\n        /* \"contracts/Crowfunding.sol\":986:989  i++ */\n      dup1\n      dup1\n      tag_36\n      swap1\n      tag_37\n      jump\t// in\n    tag_36:\n      swap2\n      pop\n      pop\n        /* \"contracts/Crowfunding.sol\":953:1105  for(uint i=0; i<projects.length; i++){... */\n      jump(tag_21)\n    tag_22:\n      pop\n        /* \"contracts/Crowfunding.sol\":1121:1151  revert(\"Project not found !!\") */\n      mload(0x40)\n      0x08c379a000000000000000000000000000000000000000000000000000000000\n      dup2\n      mstore\n      0x04\n      add\n      tag_38\n      swap1\n      tag_39\n      jump\t// in\n    tag_38:\n      mload(0x40)\n      dup1\n      swap2\n      sub\n      swap1\n      revert\n        /* \"contracts/Crowfunding.sol\":858:1158  function getProjectByAddressCreator(address _address) external view returns (Project) {... */\n    tag_20:\n      swap2\n      swap1\n      pop\n      jump\t// out\n        /* \"contracts/Crowfunding.sol\":751:851  function returnAllProjects() external view returns(Project[] memory){... */\n    tag_13:\n        /* \"contracts/Crowfunding.sol\":802:818  Project[] memory */\n      0x60\n        /* \"contracts/Crowfunding.sol\":836:844  projects */\n      0x00\n        /* \"contracts/Crowfunding.sol\":829:844  return projects */\n      dup1\n      sload\n      dup1\n      0x20\n      mul\n      0x20\n      add\n      mload(0x40)\n      swap1\n      dup2\n      add\n      0x40\n      mstore\n      dup1\n      swap3\n      swap2\n      swap1\n      dup2\n      dup2\n      mstore\n      0x20\n      add\n      dup3\n      dup1\n      sload\n      dup1\n      iszero\n      tag_41\n      jumpi\n      0x20\n      mul\n      dup3\n      add\n      swap2\n      swap1\n      0x00\n      mstore\n      keccak256(0x00, 0x20)\n      swap1\n    tag_42:\n      dup2\n      0x00\n      swap1\n      sload\n      swap1\n      0x0100\n      exp\n      swap1\n      div\n      0xffffffffffffffffffffffffffffffffffffffff\n      and\n      0xffffffffffffffffffffffffffffffffffffffff\n      and\n      dup2\n      mstore\n      0x20\n      add\n      swap1\n      0x01\n      add\n      swap1\n      dup1\n      dup4\n      gt\n      tag_42\n      jumpi\n    tag_41:\n      pop\n      pop\n      pop\n      pop\n      pop\n      swap1\n      pop\n        /* \"contracts/Crowfunding.sol\":751:851  function returnAllProjects() external view returns(Project[] memory){... */\n      swap1\n      jump\t// out\n        /* \"contracts/Crowfunding.sol\":1164:1749  function startProject (string memory _projectTitle, string memory _projectDescription, ... */\n    tag_19:\n        /* \"contracts/Crowfunding.sol\":1316:1332  uint _raiseUntil */\n      0x00\n        /* \"contracts/Crowfunding.sol\":1335:1375  block.timestamp.add(_nbDays.mul(1 days)) */\n      tag_44\n        /* \"contracts/Crowfunding.sol\":1355:1374  _nbDays.mul(1 days) */\n      tag_45\n        /* \"contracts/Crowfunding.sol\":1367:1373  1 days */\n      0x015180\n        /* \"contracts/Crowfunding.sol\":1355:1362  _nbDays */\n      dup5\n        /* \"contracts/Crowfunding.sol\":1355:1366  _nbDays.mul */\n      tag_46\n      swap1\n        /* \"contracts/Crowfunding.sol\":1355:1374  _nbDays.mul(1 days) */\n      swap2\n      swap1\n      0xffffffff\n      and\n      jump\t// in\n    tag_45:\n        /* \"contracts/Crowfunding.sol\":1335:1350  block.timestamp */\n      timestamp\n        /* \"contracts/Crowfunding.sol\":1335:1354  block.timestamp.add */\n      tag_47\n      swap1\n        /* \"contracts/Crowfunding.sol\":1335:1375  block.timestamp.add(_nbDays.mul(1 days)) */\n      swap2\n      swap1\n      0xffffffff\n      and\n      jump\t// in\n    tag_44:\n        /* \"contracts/Crowfunding.sol\":1316:1375  uint _raiseUntil = block.timestamp.add(_nbDays.mul(1 days)) */\n      swap1\n      pop\n        /* \"contracts/Crowfunding.sol\":1386:1404  Project newProject */\n      0x00\n        /* \"contracts/Crowfunding.sol\":1427:1437  msg.sender */\n      caller\n        /* \"contracts/Crowfunding.sol\":1440:1453  _projectTitle */\n      dup7\n        /* \"contracts/Crowfunding.sol\":1454:1473  _projectDescription */\n      dup7\n        /* \"contracts/Crowfunding.sol\":1474:1485  _amountGoal */\n      dup7\n        /* \"contracts/Crowfunding.sol\":1486:1497  _raiseUntil */\n      dup6\n        /* \"contracts/Crowfunding.sol\":1407:1498  new Project(payable(msg.sender), _projectTitle,_projectDescription,_amountGoal,_raiseUntil) */\n      mload(0x40)\n      tag_48\n      swap1\n      tag_49\n      jump\t// in\n    tag_48:\n      tag_50\n      swap6\n      swap5\n      swap4\n      swap3\n      swap2\n      swap1\n      tag_51\n      jump\t// in\n    tag_50:\n      mload(0x40)\n      dup1\n      swap2\n      sub\n      swap1\n      0x00\n      create\n      dup1\n      iszero\n      dup1\n      iszero\n      tag_52\n      jumpi\n      returndatasize\n      0x00\n      dup1\n      returndatacopy\n      revert(0x00, returndatasize)\n    tag_52:\n      pop\n        /* \"contracts/Crowfunding.sol\":1386:1498  Project newProject = new Project(payable(msg.sender), _projectTitle,_projectDescription,_amountGoal,_raiseUntil) */\n      swap1\n      pop\n        /* \"contracts/Crowfunding.sol\":1509:1517  projects */\n      0x00\n        /* \"contracts/Crowfunding.sol\":1523:1533  newProject */\n      dup2\n        /* \"contracts/Crowfunding.sol\":1509:1534  projects.push(newProject) */\n      swap1\n      dup1\n      0x01\n      dup2\n      sload\n      add\n      dup1\n      dup3\n      sstore\n      dup1\n      swap2\n      pop\n      pop\n      0x01\n      swap1\n      sub\n      swap1\n      0x00\n      mstore\n      keccak256(0x00, 0x20)\n      add\n      0x00\n      swap1\n      swap2\n      swap1\n      swap2\n      swap1\n      swap2\n      0x0100\n      exp\n      dup2\n      sload\n      dup2\n      0xffffffffffffffffffffffffffffffffffffffff\n      mul\n      not\n      and\n      swap1\n      dup4\n      0xffffffffffffffffffffffffffffffffffffffff\n      and\n      mul\n      or\n      swap1\n      sstore\n      pop\n        /* \"contracts/Crowfunding.sol\":1550:1741  ProjectStarted(... */\n      0x6218c120ad6d836da0bfe4d4c44c8375356514fce6ae39ecdcd483fad6056e66\n        /* \"contracts/Crowfunding.sol\":1586:1596  newProject */\n      dup2\n        /* \"contracts/Crowfunding.sol\":1611:1621  msg.sender */\n      caller\n        /* \"contracts/Crowfunding.sol\":1635:1648  _projectTitle */\n      dup9\n        /* \"contracts/Crowfunding.sol\":1662:1681  _projectDescription */\n      dup9\n        /* \"contracts/Crowfunding.sol\":1695:1706  _raiseUntil */\n      dup7\n        /* \"contracts/Crowfunding.sol\":1720:1731  _amountGoal */\n      dup10\n        /* \"contracts/Crowfunding.sol\":1550:1741  ProjectStarted(... */\n      mload(0x40)\n      tag_54\n      swap7\n      swap6\n      swap5\n      swap4\n      swap3\n      swap2\n      swap1\n      tag_55\n      jump\t// in\n    tag_54:\n      mload(0x40)\n      dup1\n      swap2\n      sub\n      swap1\n      log1\n        /* \"contracts/Crowfunding.sol\":1305:1749  {... */\n      pop\n      pop\n        /* \"contracts/Crowfunding.sol\":1164:1749  function startProject (string memory _projectTitle, string memory _projectDescription, ... */\n      pop\n      pop\n      pop\n      pop\n      jump\t// out\n        /* \"https://github.com/OpenZeppelin/openzeppelin-contracts/blob/master/contracts/utils/math/SafeMath.sol\":3465:3561  function mul(uint256 a, uint256 b) internal pure returns (uint256) {... */\n    tag_46:\n        /* \"https://github.com/OpenZeppelin/openzeppelin-contracts/blob/master/contracts/utils/math/SafeMath.sol\":3523:3530  uint256 */\n      0x00\n        /* \"https://github.com/OpenZeppelin/openzeppelin-contracts/blob/master/contracts/utils/math/SafeMath.sol\":3553:3554  b */\n      dup2\n        /* \"https://github.com/OpenZeppelin/openzeppelin-contracts/blob/master/contracts/utils/math/SafeMath.sol\":3549:3550  a */\n      dup4\n        /* \"https://github.com/OpenZeppelin/openzeppelin-contracts/blob/master/contracts/utils/math/SafeMath.sol\":3549:3554  a * b */\n      tag_57\n      swap2\n      swap1\n      tag_58\n      jump\t// in\n    tag_57:\n        /* \"https://github.com/OpenZeppelin/openzeppelin-contracts/blob/master/contracts/utils/math/SafeMath.sol\":3542:3554  return a * b */\n      swap1\n      pop\n        /* \"https://github.com/OpenZeppelin/openzeppelin-contracts/blob/master/contracts/utils/math/SafeMath.sol\":3465:3561  function mul(uint256 a, uint256 b) internal pure returns (uint256) {... */\n      swap3\n      swap2\n      pop\n      pop\n      jump\t// out\n        /* \"https://github.com/OpenZeppelin/openzeppelin-contracts/blob/master/contracts/utils/math/SafeMath.sol\":2755:2851  function add(uint256 a, uint256 b) internal pure returns (uint256) {... */\n    tag_47:\n        /* \"https://github.com/OpenZeppelin/openzeppelin-contracts/blob/master/contracts/utils/math/SafeMath.sol\":2813:2820  uint256 */\n      0x00\n        /* \"https://github.com/OpenZeppelin/openzeppelin-contracts/blob/master/contracts/utils/math/SafeMath.sol\":2843:2844  b */\n      dup2\n        /* \"https://github.com/OpenZeppelin/openzeppelin-contracts/blob/master/contracts/utils/math/SafeMath.sol\":2839:2840  a */\n      dup4\n        /* \"https://github.com/OpenZeppelin/openzeppelin-contracts/blob/master/contracts/utils/math/SafeMath.sol\":2839:2844  a + b */\n      tag_60\n      swap2\n      swap1\n      tag_61\n      jump\t// in\n    tag_60:\n        /* \"https://github.com/OpenZeppelin/openzeppelin-contracts/blob/master/contracts/utils/math/SafeMath.sol\":2832:2844  return a + b */\n      swap1\n      pop\n        /* \"https://github.com/OpenZeppelin/openzeppelin-contracts/blob/master/contracts/utils/math/SafeMath.sol\":2755:2851  function add(uint256 a, uint256 b) internal pure returns (uint256) {... */\n      swap3\n      swap2\n      pop\n      pop\n      jump\t// out\n    tag_49:\n      dataSize(sub_0)\n      dup1\n      dataOffset(sub_0)\n      dup4\n      codecopy\n      add\n      swap1\n      jump\t// out\n        /* \"#utility.yul\":7:82   */\n    tag_62:\n        /* \"#utility.yul\":40:46   */\n      0x00\n        /* \"#utility.yul\":73:75   */\n      0x40\n        /* \"#utility.yul\":67:76   */\n      mload\n        /* \"#utility.yul\":57:76   */\n      swap1\n      pop\n        /* \"#utility.yul\":7:82   */\n      swap1\n      jump\t// out\n        /* \"#utility.yul\":88:205   */\n    tag_63:\n        /* \"#utility.yul\":197:198   */\n      0x00\n        /* \"#utility.yul\":194:195   */\n      dup1\n        /* \"#utility.yul\":187:199   */\n      revert\n        /* \"#utility.yul\":211:328   */\n    tag_64:\n        /* \"#utility.yul\":320:321   */\n      0x00\n        /* \"#utility.yul\":317:318   */\n      dup1\n        /* \"#utility.yul\":310:322   */\n      revert\n        /* \"#utility.yul\":334:460   */\n    tag_65:\n        /* \"#utility.yul\":371:378   */\n      0x00\n        /* \"#utility.yul\":411:453   */\n      0xffffffffffffffffffffffffffffffffffffffff\n        /* \"#utility.yul\":404:409   */\n      dup3\n        /* \"#utility.yul\":400:454   */\n      and\n        /* \"#utility.yul\":389:454   */\n      swap1\n      pop\n        /* \"#utility.yul\":334:460   */\n      swap2\n      swap1\n      pop\n      jump\t// out\n        /* \"#utility.yul\":466:562   */\n    tag_66:\n        /* \"#utility.yul\":503:510   */\n      0x00\n        /* \"#utility.yul\":532:556   */\n      tag_113\n        /* \"#utility.yul\":550:555   */\n      dup3\n        /* \"#utility.yul\":532:556   */\n      tag_65\n      jump\t// in\n    tag_113:\n        /* \"#utility.yul\":521:556   */\n      swap1\n      pop\n        /* \"#utility.yul\":466:562   */\n      swap2\n      swap1\n      pop\n      jump\t// out\n        /* \"#utility.yul\":568:690   */\n    tag_67:\n        /* \"#utility.yul\":641:665   */\n      tag_115\n        /* \"#utility.yul\":659:664   */\n      dup2\n        /* \"#utility.yul\":641:665   */\n      tag_66\n      jump\t// in\n    tag_115:\n        /* \"#utility.yul\":634:639   */\n      dup2\n        /* \"#utility.yul\":631:666   */\n      eq\n        /* \"#utility.yul\":621:684   */\n      tag_116\n      jumpi\n        /* \"#utility.yul\":680:681   */\n      0x00\n        /* \"#utility.yul\":677:678   */\n      dup1\n        /* \"#utility.yul\":670:682   */\n      revert\n        /* \"#utility.yul\":621:684   */\n    tag_116:\n        /* \"#utility.yul\":568:690   */\n      pop\n      jump\t// out\n        /* \"#utility.yul\":696:835   */\n    tag_68:\n        /* \"#utility.yul\":742:747   */\n      0x00\n        /* \"#utility.yul\":780:786   */\n      dup2\n        /* \"#utility.yul\":767:787   */\n      calldataload\n        /* \"#utility.yul\":758:787   */\n      swap1\n      pop\n        /* \"#utility.yul\":796:829   */\n      tag_118\n        /* \"#utility.yul\":823:828   */\n      dup2\n        /* \"#utility.yul\":796:829   */\n      tag_67\n      jump\t// in\n    tag_118:\n        /* \"#utility.yul\":696:835   */\n      swap3\n      swap2\n      pop\n      pop\n      jump\t// out\n        /* \"#utility.yul\":841:1170   */\n    tag_8:\n        /* \"#utility.yul\":900:906   */\n      0x00\n        /* \"#utility.yul\":949:951   */\n      0x20\n        /* \"#utility.yul\":937:946   */\n      dup3\n        /* \"#utility.yul\":928:935   */\n      dup5\n        /* \"#utility.yul\":924:947   */\n      sub\n        /* \"#utility.yul\":920:952   */\n      slt\n        /* \"#utility.yul\":917:1036   */\n      iszero\n      tag_120\n      jumpi\n        /* \"#utility.yul\":955:1034   */\n      tag_121\n      tag_63\n      jump\t// in\n    tag_121:\n        /* \"#utility.yul\":917:1036   */\n    tag_120:\n        /* \"#utility.yul\":1075:1076   */\n      0x00\n        /* \"#utility.yul\":1100:1153   */\n      tag_122\n        /* \"#utility.yul\":1145:1152   */\n      dup5\n        /* \"#utility.yul\":1136:1142   */\n      dup3\n        /* \"#utility.yul\":1125:1134   */\n      dup6\n        /* \"#utility.yul\":1121:1143   */\n      add\n        /* \"#utility.yul\":1100:1153   */\n      tag_68\n      jump\t// in\n    tag_122:\n        /* \"#utility.yul\":1090:1153   */\n      swap2\n      pop\n        /* \"#utility.yul\":1046:1163   */\n      pop\n        /* \"#utility.yul\":841:1170   */\n      swap3\n      swap2\n      pop\n      pop\n      jump\t// out\n        /* \"#utility.yul\":1176:1236   */\n    tag_69:\n        /* \"#utility.yul\":1204:1207   */\n      0x00\n        /* \"#utility.yul\":1225:1230   */\n      dup2\n        /* \"#utility.yul\":1218:1230   */\n      swap1\n      pop\n        /* \"#utility.yul\":1176:1236   */\n      swap2\n      swap1\n      pop\n      jump\t// out\n        /* \"#utility.yul\":1242:1384   */\n    tag_70:\n        /* \"#utility.yul\":1292:1301   */\n      0x00\n        /* \"#utility.yul\":1325:1378   */\n      tag_125\n        /* \"#utility.yul\":1343:1377   */\n      tag_126\n        /* \"#utility.yul\":1352:1376   */\n      tag_127\n        /* \"#utility.yul\":1370:1375   */\n      dup5\n        /* \"#utility.yul\":1352:1376   */\n      tag_65\n      jump\t// in\n    tag_127:\n        /* \"#utility.yul\":1343:1377   */\n      tag_69\n      jump\t// in\n    tag_126:\n        /* \"#utility.yul\":1325:1378   */\n      tag_65\n      jump\t// in\n    tag_125:\n        /* \"#utility.yul\":1312:1378   */\n      swap1\n      pop\n        /* \"#utility.yul\":1242:1384   */\n      swap2\n      swap1\n      pop\n      jump\t// out\n        /* \"#utility.yul\":1390:1516   */\n    tag_71:\n        /* \"#utility.yul\":1440:1449   */\n      0x00\n        /* \"#utility.yul\":1473:1510   */\n      tag_129\n        /* \"#utility.yul\":1504:1509   */\n      dup3\n        /* \"#utility.yul\":1473:1510   */\n      tag_70\n      jump\t// in\n    tag_129:\n        /* \"#utility.yul\":1460:1510   */\n      swap1\n      pop\n        /* \"#utility.yul\":1390:1516   */\n      swap2\n      swap1\n      pop\n      jump\t// out\n        /* \"#utility.yul\":1522:1663   */\n    tag_72:\n        /* \"#utility.yul\":1587:1596   */\n      0x00\n        /* \"#utility.yul\":1620:1657   */\n      tag_131\n        /* \"#utility.yul\":1651:1656   */\n      dup3\n        /* \"#utility.yul\":1620:1657   */\n      tag_71\n      jump\t// in\n    tag_131:\n        /* \"#utility.yul\":1607:1657   */\n      swap1\n      pop\n        /* \"#utility.yul\":1522:1663   */\n      swap2\n      swap1\n      pop\n      jump\t// out\n        /* \"#utility.yul\":1669:1830   */\n    tag_73:\n        /* \"#utility.yul\":1771:1823   */\n      tag_133\n        /* \"#utility.yul\":1817:1822   */\n      dup2\n        /* \"#utility.yul\":1771:1823   */\n      tag_72\n      jump\t// in\n    tag_133:\n        /* \"#utility.yul\":1766:1769   */\n      dup3\n        /* \"#utility.yul\":1759:1824   */\n      mstore\n        /* \"#utility.yul\":1669:1830   */\n      pop\n      pop\n      jump\t// out\n        /* \"#utility.yul\":1836:2088   */\n    tag_11:\n        /* \"#utility.yul\":1944:1948   */\n      0x00\n        /* \"#utility.yul\":1982:1984   */\n      0x20\n        /* \"#utility.yul\":1971:1980   */\n      dup3\n        /* \"#utility.yul\":1967:1985   */\n      add\n        /* \"#utility.yul\":1959:1985   */\n      swap1\n      pop\n        /* \"#utility.yul\":1995:2081   */\n      tag_135\n        /* \"#utility.yul\":2078:2079   */\n      0x00\n        /* \"#utility.yul\":2067:2076   */\n      dup4\n        /* \"#utility.yul\":2063:2080   */\n      add\n        /* \"#utility.yul\":2054:2060   */\n      dup5\n        /* \"#utility.yul\":1995:2081   */\n      tag_73\n      jump\t// in\n    tag_135:\n        /* \"#utility.yul\":1836:2088   */\n      swap3\n      swap2\n      pop\n      pop\n      jump\t// out\n        /* \"#utility.yul\":2094:2223   */\n    tag_74:\n        /* \"#utility.yul\":2176:2182   */\n      0x00\n        /* \"#utility.yul\":2210:2215   */\n      dup2\n        /* \"#utility.yul\":2204:2216   */\n      mload\n        /* \"#utility.yul\":2194:2216   */\n      swap1\n      pop\n        /* \"#utility.yul\":2094:2223   */\n      swap2\n      swap1\n      pop\n      jump\t// out\n        /* \"#utility.yul\":2229:2413   */\n    tag_75:\n        /* \"#utility.yul\":2328:2339   */\n      0x00\n        /* \"#utility.yul\":2362:2368   */\n      dup3\n        /* \"#utility.yul\":2357:2360   */\n      dup3\n        /* \"#utility.yul\":2350:2369   */\n      mstore\n        /* \"#utility.yul\":2402:2406   */\n      0x20\n        /* \"#utility.yul\":2397:2400   */\n      dup3\n        /* \"#utility.yul\":2393:2407   */\n      add\n        /* \"#utility.yul\":2378:2407   */\n      swap1\n      pop\n        /* \"#utility.yul\":2229:2413   */\n      swap3\n      swap2\n      pop\n      pop\n      jump\t// out\n        /* \"#utility.yul\":2419:2566   */\n    tag_76:\n        /* \"#utility.yul\":2501:2505   */\n      0x00\n        /* \"#utility.yul\":2524:2527   */\n      dup2\n        /* \"#utility.yul\":2516:2527   */\n      swap1\n      pop\n        /* \"#utility.yul\":2554:2558   */\n      0x20\n        /* \"#utility.yul\":2549:2552   */\n      dup3\n        /* \"#utility.yul\":2545:2559   */\n      add\n        /* \"#utility.yul\":2537:2559   */\n      swap1\n      pop\n        /* \"#utility.yul\":2419:2566   */\n      swap2\n      swap1\n      pop\n      jump\t// out\n        /* \"#utility.yul\":2572:2723   */\n    tag_77:\n        /* \"#utility.yul\":2664:2716   */\n      tag_140\n        /* \"#utility.yul\":2710:2715   */\n      dup2\n        /* \"#utility.yul\":2664:2716   */\n      tag_72\n      jump\t// in\n    tag_140:\n        /* \"#utility.yul\":2659:2662   */\n      dup3\n        /* \"#utility.yul\":2652:2717   */\n      mstore\n        /* \"#utility.yul\":2572:2723   */\n      pop\n      pop\n      jump\t// out\n        /* \"#utility.yul\":2729:2938   */\n    tag_78:\n        /* \"#utility.yul\":2813:2823   */\n      0x00\n        /* \"#utility.yul\":2834:2895   */\n      tag_142\n        /* \"#utility.yul\":2891:2894   */\n      dup4\n        /* \"#utility.yul\":2883:2889   */\n      dup4\n        /* \"#utility.yul\":2834:2895   */\n      tag_77\n      jump\t// in\n    tag_142:\n        /* \"#utility.yul\":2927:2931   */\n      0x20\n        /* \"#utility.yul\":2922:2925   */\n      dup4\n        /* \"#utility.yul\":2918:2932   */\n      add\n        /* \"#utility.yul\":2904:2932   */\n      swap1\n      pop\n        /* \"#utility.yul\":2729:2938   */\n      swap3\n      swap2\n      pop\n      pop\n      jump\t// out\n        /* \"#utility.yul\":2944:3072   */\n    tag_79:\n        /* \"#utility.yul\":3029:3033   */\n      0x00\n        /* \"#utility.yul\":3061:3065   */\n      0x20\n        /* \"#utility.yul\":3056:3059   */\n      dup3\n        /* \"#utility.yul\":3052:3066   */\n      add\n        /* \"#utility.yul\":3044:3066   */\n      swap1\n      pop\n        /* \"#utility.yul\":2944:3072   */\n      swap2\n      swap1\n      pop\n      jump\t// out\n        /* \"#utility.yul\":3117:3924   */\n    tag_80:\n        /* \"#utility.yul\":3251:3254   */\n      0x00\n        /* \"#utility.yul\":3280:3349   */\n      tag_145\n        /* \"#utility.yul\":3343:3348   */\n      dup3\n        /* \"#utility.yul\":3280:3349   */\n      tag_74\n      jump\t// in\n    tag_145:\n        /* \"#utility.yul\":3365:3451   */\n      tag_146\n        /* \"#utility.yul\":3444:3450   */\n      dup2\n        /* \"#utility.yul\":3439:3442   */\n      dup6\n        /* \"#utility.yul\":3365:3451   */\n      tag_75\n      jump\t// in\n    tag_146:\n        /* \"#utility.yul\":3358:3451   */\n      swap4\n      pop\n        /* \"#utility.yul\":3475:3546   */\n      tag_147\n        /* \"#utility.yul\":3540:3545   */\n      dup4\n        /* \"#utility.yul\":3475:3546   */\n      tag_76\n      jump\t// in\n    tag_147:\n        /* \"#utility.yul\":3569:3576   */\n      dup1\n        /* \"#utility.yul\":3600:3601   */\n      0x00\n        /* \"#utility.yul\":3585:3899   */\n    tag_148:\n        /* \"#utility.yul\":3610:3616   */\n      dup4\n        /* \"#utility.yul\":3607:3608   */\n      dup2\n        /* \"#utility.yul\":3604:3617   */\n      lt\n        /* \"#utility.yul\":3585:3899   */\n      iszero\n      tag_150\n      jumpi\n        /* \"#utility.yul\":3686:3692   */\n      dup2\n        /* \"#utility.yul\":3680:3693   */\n      mload\n        /* \"#utility.yul\":3713:3791   */\n      tag_151\n        /* \"#utility.yul\":3787:3790   */\n      dup9\n        /* \"#utility.yul\":3772:3785   */\n      dup3\n        /* \"#utility.yul\":3713:3791   */\n      tag_78\n      jump\t// in\n    tag_151:\n        /* \"#utility.yul\":3706:3791   */\n      swap8\n      pop\n        /* \"#utility.yul\":3814:3889   */\n      tag_152\n        /* \"#utility.yul\":3882:3888   */\n      dup4\n        /* \"#utility.yul\":3814:3889   */\n      tag_79\n      jump\t// in\n    tag_152:\n        /* \"#utility.yul\":3804:3889   */\n      swap3\n      pop\n        /* \"#utility.yul\":3645:3899   */\n      pop\n        /* \"#utility.yul\":3632:3633   */\n      0x01\n        /* \"#utility.yul\":3629:3630   */\n      dup2\n        /* \"#utility.yul\":3625:3634   */\n      add\n        /* \"#utility.yul\":3620:3634   */\n      swap1\n      pop\n        /* \"#utility.yul\":3585:3899   */\n      jump(tag_148)\n    tag_150:\n        /* \"#utility.yul\":3589:3603   */\n      pop\n        /* \"#utility.yul\":3915:3918   */\n      dup6\n        /* \"#utility.yul\":3908:3918   */\n      swap4\n      pop\n        /* \"#utility.yul\":3256:3924   */\n      pop\n      pop\n      pop\n        /* \"#utility.yul\":3117:3924   */\n      swap3\n      swap2\n      pop\n      pop\n      jump\t// out\n        /* \"#utility.yul\":3930:4333   */\n    tag_15:\n        /* \"#utility.yul\":4088:4092   */\n      0x00\n        /* \"#utility.yul\":4126:4128   */\n      0x20\n        /* \"#utility.yul\":4115:4124   */\n      dup3\n        /* \"#utility.yul\":4111:4129   */\n      add\n        /* \"#utility.yul\":4103:4129   */\n      swap1\n      pop\n        /* \"#utility.yul\":4175:4184   */\n      dup2\n        /* \"#utility.yul\":4169:4173   */\n      dup2\n        /* \"#utility.yul\":4165:4185   */\n      sub\n        /* \"#utility.yul\":4161:4162   */\n      0x00\n        /* \"#utility.yul\":4150:4159   */\n      dup4\n        /* \"#utility.yul\":4146:4163   */\n      add\n        /* \"#utility.yul\":4139:4186   */\n      mstore\n        /* \"#utility.yul\":4203:4326   */\n      tag_154\n        /* \"#utility.yul\":4321:4325   */\n      dup2\n        /* \"#utility.yul\":4312:4318   */\n      dup5\n        /* \"#utility.yul\":4203:4326   */\n      tag_80\n      jump\t// in\n    tag_154:\n        /* \"#utility.yul\":4195:4326   */\n      swap1\n      pop\n        /* \"#utility.yul\":3930:4333   */\n      swap3\n      swap2\n      pop\n      pop\n      jump\t// out\n        /* \"#utility.yul\":4339:4456   */\n    tag_81:\n        /* \"#utility.yul\":4448:4449   */\n      0x00\n        /* \"#utility.yul\":4445:4446   */\n      dup1\n        /* \"#utility.yul\":4438:4450   */\n      revert\n        /* \"#utility.yul\":4462:4579   */\n    tag_82:\n        /* \"#utility.yul\":4571:4572   */\n      0x00\n        /* \"#utility.yul\":4568:4569   */\n      dup1\n        /* \"#utility.yul\":4561:4573   */\n      revert\n        /* \"#utility.yul\":4585:4687   */\n    tag_83:\n        /* \"#utility.yul\":4626:4632   */\n      0x00\n        /* \"#utility.yul\":4677:4679   */\n      0x1f\n        /* \"#utility.yul\":4673:4680   */\n      not\n        /* \"#utility.yul\":4668:4670   */\n      0x1f\n        /* \"#utility.yul\":4661:4666   */\n      dup4\n        /* \"#utility.yul\":4657:4671   */\n      add\n        /* \"#utility.yul\":4653:4681   */\n      and\n        /* \"#utility.yul\":4643:4681   */\n      swap1\n      pop\n        /* \"#utility.yul\":4585:4687   */\n      swap2\n      swap1\n      pop\n      jump\t// out\n        /* \"#utility.yul\":4693:4873   */\n    tag_84:\n        /* \"#utility.yul\":4741:4818   */\n      0x4e487b7100000000000000000000000000000000000000000000000000000000\n        /* \"#utility.yul\":4738:4739   */\n      0x00\n        /* \"#utility.yul\":4731:4819   */\n      mstore\n        /* \"#utility.yul\":4838:4842   */\n      0x41\n        /* \"#utility.yul\":4835:4836   */\n      0x04\n        /* \"#utility.yul\":4828:4843   */\n      mstore\n        /* \"#utility.yul\":4862:4866   */\n      0x24\n        /* \"#utility.yul\":4859:4860   */\n      0x00\n        /* \"#utility.yul\":4852:4867   */\n      revert\n        /* \"#utility.yul\":4879:5160   */\n    tag_85:\n        /* \"#utility.yul\":4962:4989   */\n      tag_160\n        /* \"#utility.yul\":4984:4988   */\n      dup3\n        /* \"#utility.yul\":4962:4989   */\n      tag_83\n      jump\t// in\n    tag_160:\n        /* \"#utility.yul\":4954:4960   */\n      dup2\n        /* \"#utility.yul\":4950:4990   */\n      add\n        /* \"#utility.yul\":5092:5098   */\n      dup2\n        /* \"#utility.yul\":5080:5090   */\n      dup2\n        /* \"#utility.yul\":5077:5099   */\n      lt\n        /* \"#utility.yul\":5056:5074   */\n      0xffffffffffffffff\n        /* \"#utility.yul\":5044:5054   */\n      dup3\n        /* \"#utility.yul\":5041:5075   */\n      gt\n        /* \"#utility.yul\":5038:5100   */\n      or\n        /* \"#utility.yul\":5035:5123   */\n      iszero\n      tag_161\n      jumpi\n        /* \"#utility.yul\":5103:5121   */\n      tag_162\n      tag_84\n      jump\t// in\n    tag_162:\n        /* \"#utility.yul\":5035:5123   */\n    tag_161:\n        /* \"#utility.yul\":5143:5153   */\n      dup1\n        /* \"#utility.yul\":5139:5141   */\n      0x40\n        /* \"#utility.yul\":5132:5154   */\n      mstore\n        /* \"#utility.yul\":4922:5160   */\n      pop\n        /* \"#utility.yul\":4879:5160   */\n      pop\n      pop\n      jump\t// out\n        /* \"#utility.yul\":5166:5295   */\n    tag_86:\n        /* \"#utility.yul\":5200:5206   */\n      0x00\n        /* \"#utility.yul\":5227:5247   */\n      tag_164\n      tag_62\n      jump\t// in\n    tag_164:\n        /* \"#utility.yul\":5217:5247   */\n      swap1\n      pop\n        /* \"#utility.yul\":5256:5289   */\n      tag_165\n        /* \"#utility.yul\":5284:5288   */\n      dup3\n        /* \"#utility.yul\":5276:5282   */\n      dup3\n        /* \"#utility.yul\":5256:5289   */\n      tag_85\n      jump\t// in\n    tag_165:\n        /* \"#utility.yul\":5166:5295   */\n      swap2\n      swap1\n      pop\n      jump\t// out\n        /* \"#utility.yul\":5301:5609   */\n    tag_87:\n        /* \"#utility.yul\":5363:5367   */\n      0x00\n        /* \"#utility.yul\":5453:5471   */\n      0xffffffffffffffff\n        /* \"#utility.yul\":5445:5451   */\n      dup3\n        /* \"#utility.yul\":5442:5472   */\n      gt\n        /* \"#utility.yul\":5439:5495   */\n      iszero\n      tag_167\n      jumpi\n        /* \"#utility.yul\":5475:5493   */\n      tag_168\n      tag_84\n      jump\t// in\n    tag_168:\n        /* \"#utility.yul\":5439:5495   */\n    tag_167:\n        /* \"#utility.yul\":5513:5542   */\n      tag_169\n        /* \"#utility.yul\":5535:5541   */\n      dup3\n        /* \"#utility.yul\":5513:5542   */\n      tag_83\n      jump\t// in\n    tag_169:\n        /* \"#utility.yul\":5505:5542   */\n      swap1\n      pop\n        /* \"#utility.yul\":5597:5601   */\n      0x20\n        /* \"#utility.yul\":5591:5595   */\n      dup2\n        /* \"#utility.yul\":5587:5602   */\n      add\n        /* \"#utility.yul\":5579:5602   */\n      swap1\n      pop\n        /* \"#utility.yul\":5301:5609   */\n      swap2\n      swap1\n      pop\n      jump\t// out\n        /* \"#utility.yul\":5615:5769   */\n    tag_88:\n        /* \"#utility.yul\":5699:5705   */\n      dup3\n        /* \"#utility.yul\":5694:5697   */\n      dup2\n        /* \"#utility.yul\":5689:5692   */\n      dup4\n        /* \"#utility.yul\":5676:5706   */\n      calldatacopy\n        /* \"#utility.yul\":5761:5762   */\n      0x00\n        /* \"#utility.yul\":5752:5758   */\n      dup4\n        /* \"#utility.yul\":5747:5750   */\n      dup4\n        /* \"#utility.yul\":5743:5759   */\n      add\n        /* \"#utility.yul\":5736:5763   */\n      mstore\n        /* \"#utility.yul\":5615:5769   */\n      pop\n      pop\n      pop\n      jump\t// out\n        /* \"#utility.yul\":5775:6187   */\n    tag_89:\n        /* \"#utility.yul\":5853:5858   */\n      0x00\n        /* \"#utility.yul\":5878:5944   */\n      tag_172\n        /* \"#utility.yul\":5894:5943   */\n      tag_173\n        /* \"#utility.yul\":5936:5942   */\n      dup5\n        /* \"#utility.yul\":5894:5943   */\n      tag_87\n      jump\t// in\n    tag_173:\n        /* \"#utility.yul\":5878:5944   */\n      tag_86\n      jump\t// in\n    tag_172:\n        /* \"#utility.yul\":5869:5944   */\n      swap1\n      pop\n        /* \"#utility.yul\":5967:5973   */\n      dup3\n        /* \"#utility.yul\":5960:5965   */\n      dup2\n        /* \"#utility.yul\":5953:5974   */\n      mstore\n        /* \"#utility.yul\":6005:6009   */\n      0x20\n        /* \"#utility.yul\":5998:6003   */\n      dup2\n        /* \"#utility.yul\":5994:6010   */\n      add\n        /* \"#utility.yul\":6043:6046   */\n      dup5\n        /* \"#utility.yul\":6034:6040   */\n      dup5\n        /* \"#utility.yul\":6029:6032   */\n      dup5\n        /* \"#utility.yul\":6025:6041   */\n      add\n        /* \"#utility.yul\":6022:6047   */\n      gt\n        /* \"#utility.yul\":6019:6131   */\n      iszero\n      tag_174\n      jumpi\n        /* \"#utility.yul\":6050:6129   */\n      tag_175\n      tag_82\n      jump\t// in\n    tag_175:\n        /* \"#utility.yul\":6019:6131   */\n    tag_174:\n        /* \"#utility.yul\":6140:6181   */\n      tag_176\n        /* \"#utility.yul\":6174:6180   */\n      dup5\n        /* \"#utility.yul\":6169:6172   */\n      dup3\n        /* \"#utility.yul\":6164:6167   */\n      dup6\n        /* \"#utility.yul\":6140:6181   */\n      tag_88\n      jump\t// in\n    tag_176:\n        /* \"#utility.yul\":5859:6187   */\n      pop\n        /* \"#utility.yul\":5775:6187   */\n      swap4\n      swap3\n      pop\n      pop\n      pop\n      jump\t// out\n        /* \"#utility.yul\":6207:6547   */\n    tag_90:\n        /* \"#utility.yul\":6263:6268   */\n      0x00\n        /* \"#utility.yul\":6312:6315   */\n      dup3\n        /* \"#utility.yul\":6305:6309   */\n      0x1f\n        /* \"#utility.yul\":6297:6303   */\n      dup4\n        /* \"#utility.yul\":6293:6310   */\n      add\n        /* \"#utility.yul\":6289:6316   */\n      slt\n        /* \"#utility.yul\":6279:6401   */\n      tag_178\n      jumpi\n        /* \"#utility.yul\":6320:6399   */\n      tag_179\n      tag_81\n      jump\t// in\n    tag_179:\n        /* \"#utility.yul\":6279:6401   */\n    tag_178:\n        /* \"#utility.yul\":6437:6443   */\n      dup2\n        /* \"#utility.yul\":6424:6444   */\n      calldataload\n        /* \"#utility.yul\":6462:6541   */\n      tag_180\n        /* \"#utility.yul\":6537:6540   */\n      dup5\n        /* \"#utility.yul\":6529:6535   */\n      dup3\n        /* \"#utility.yul\":6522:6526   */\n      0x20\n        /* \"#utility.yul\":6514:6520   */\n      dup7\n        /* \"#utility.yul\":6510:6527   */\n      add\n        /* \"#utility.yul\":6462:6541   */\n      tag_89\n      jump\t// in\n    tag_180:\n        /* \"#utility.yul\":6453:6541   */\n      swap2\n      pop\n        /* \"#utility.yul\":6269:6547   */\n      pop\n        /* \"#utility.yul\":6207:6547   */\n      swap3\n      swap2\n      pop\n      pop\n      jump\t// out\n        /* \"#utility.yul\":6553:6630   */\n    tag_91:\n        /* \"#utility.yul\":6590:6597   */\n      0x00\n        /* \"#utility.yul\":6619:6624   */\n      dup2\n        /* \"#utility.yul\":6608:6624   */\n      swap1\n      pop\n        /* \"#utility.yul\":6553:6630   */\n      swap2\n      swap1\n      pop\n      jump\t// out\n        /* \"#utility.yul\":6636:6758   */\n    tag_92:\n        /* \"#utility.yul\":6709:6733   */\n      tag_183\n        /* \"#utility.yul\":6727:6732   */\n      dup2\n        /* \"#utility.yul\":6709:6733   */\n      tag_91\n      jump\t// in\n    tag_183:\n        /* \"#utility.yul\":6702:6707   */\n      dup2\n        /* \"#utility.yul\":6699:6734   */\n      eq\n        /* \"#utility.yul\":6689:6752   */\n      tag_184\n      jumpi\n        /* \"#utility.yul\":6748:6749   */\n      0x00\n        /* \"#utility.yul\":6745:6746   */\n      dup1\n        /* \"#utility.yul\":6738:6750   */\n      revert\n        /* \"#utility.yul\":6689:6752   */\n    tag_184:\n        /* \"#utility.yul\":6636:6758   */\n      pop\n      jump\t// out\n        /* \"#utility.yul\":6764:6903   */\n    tag_93:\n        /* \"#utility.yul\":6810:6815   */\n      0x00\n        /* \"#utility.yul\":6848:6854   */\n      dup2\n        /* \"#utility.yul\":6835:6855   */\n      calldataload\n        /* \"#utility.yul\":6826:6855   */\n      swap1\n      pop\n        /* \"#utility.yul\":6864:6897   */\n      tag_186\n        /* \"#utility.yul\":6891:6896   */\n      dup2\n        /* \"#utility.yul\":6864:6897   */\n      tag_92\n      jump\t// in\n    tag_186:\n        /* \"#utility.yul\":6764:6903   */\n      swap3\n      swap2\n      pop\n      pop\n      jump\t// out\n        /* \"#utility.yul\":6909:8034   */\n    tag_18:\n        /* \"#utility.yul\":7015:7021   */\n      0x00\n        /* \"#utility.yul\":7023:7029   */\n      dup1\n        /* \"#utility.yul\":7031:7037   */\n      0x00\n        /* \"#utility.yul\":7039:7045   */\n      dup1\n        /* \"#utility.yul\":7088:7091   */\n      0x80\n        /* \"#utility.yul\":7076:7085   */\n      dup6\n        /* \"#utility.yul\":7067:7074   */\n      dup8\n        /* \"#utility.yul\":7063:7086   */\n      sub\n        /* \"#utility.yul\":7059:7092   */\n      slt\n        /* \"#utility.yul\":7056:7176   */\n      iszero\n      tag_188\n      jumpi\n        /* \"#utility.yul\":7095:7174   */\n      tag_189\n      tag_63\n      jump\t// in\n    tag_189:\n        /* \"#utility.yul\":7056:7176   */\n    tag_188:\n        /* \"#utility.yul\":7243:7244   */\n      0x00\n        /* \"#utility.yul\":7232:7241   */\n      dup6\n        /* \"#utility.yul\":7228:7245   */\n      add\n        /* \"#utility.yul\":7215:7246   */\n      calldataload\n        /* \"#utility.yul\":7273:7291   */\n      0xffffffffffffffff\n        /* \"#utility.yul\":7265:7271   */\n      dup2\n        /* \"#utility.yul\":7262:7292   */\n      gt\n        /* \"#utility.yul\":7259:7376   */\n      iszero\n      tag_190\n      jumpi\n        /* \"#utility.yul\":7295:7374   */\n      tag_191\n      tag_64\n      jump\t// in\n    tag_191:\n        /* \"#utility.yul\":7259:7376   */\n    tag_190:\n        /* \"#utility.yul\":7400:7463   */\n      tag_192\n        /* \"#utility.yul\":7455:7462   */\n      dup8\n        /* \"#utility.yul\":7446:7452   */\n      dup3\n        /* \"#utility.yul\":7435:7444   */\n      dup9\n        /* \"#utility.yul\":7431:7453   */\n      add\n        /* \"#utility.yul\":7400:7463   */\n      tag_90\n      jump\t// in\n    tag_192:\n        /* \"#utility.yul\":7390:7463   */\n      swap5\n      pop\n        /* \"#utility.yul\":7186:7473   */\n      pop\n        /* \"#utility.yul\":7540:7542   */\n      0x20\n        /* \"#utility.yul\":7529:7538   */\n      dup6\n        /* \"#utility.yul\":7525:7543   */\n      add\n        /* \"#utility.yul\":7512:7544   */\n      calldataload\n        /* \"#utility.yul\":7571:7589   */\n      0xffffffffffffffff\n        /* \"#utility.yul\":7563:7569   */\n      dup2\n        /* \"#utility.yul\":7560:7590   */\n      gt\n        /* \"#utility.yul\":7557:7674   */\n      iszero\n      tag_193\n      jumpi\n        /* \"#utility.yul\":7593:7672   */\n      tag_194\n      tag_64\n      jump\t// in\n    tag_194:\n        /* \"#utility.yul\":7557:7674   */\n    tag_193:\n        /* \"#utility.yul\":7698:7761   */\n      tag_195\n        /* \"#utility.yul\":7753:7760   */\n      dup8\n        /* \"#utility.yul\":7744:7750   */\n      dup3\n        /* \"#utility.yul\":7733:7742   */\n      dup9\n        /* \"#utility.yul\":7729:7751   */\n      add\n        /* \"#utility.yul\":7698:7761   */\n      tag_90\n      jump\t// in\n    tag_195:\n        /* \"#utility.yul\":7688:7761   */\n      swap4\n      pop\n        /* \"#utility.yul\":7483:7771   */\n      pop\n        /* \"#utility.yul\":7810:7812   */\n      0x40\n        /* \"#utility.yul\":7836:7889   */\n      tag_196\n        /* \"#utility.yul\":7881:7888   */\n      dup8\n        /* \"#utility.yul\":7872:7878   */\n      dup3\n        /* \"#utility.yul\":7861:7870   */\n      dup9\n        /* \"#utility.yul\":7857:7879   */\n      add\n        /* \"#utility.yul\":7836:7889   */\n      tag_93\n      jump\t// in\n    tag_196:\n        /* \"#utility.yul\":7826:7889   */\n      swap3\n      pop\n        /* \"#utility.yul\":7781:7899   */\n      pop\n        /* \"#utility.yul\":7938:7940   */\n      0x60\n        /* \"#utility.yul\":7964:8017   */\n      tag_197\n        /* \"#utility.yul\":8009:8016   */\n      dup8\n        /* \"#utility.yul\":8000:8006   */\n      dup3\n        /* \"#utility.yul\":7989:7998   */\n      dup9\n        /* \"#utility.yul\":7985:8007   */\n      add\n        /* \"#utility.yul\":7964:8017   */\n      tag_93\n      jump\t// in\n    tag_197:\n        /* \"#utility.yul\":7954:8017   */\n      swap2\n      pop\n        /* \"#utility.yul\":7909:8027   */\n      pop\n        /* \"#utility.yul\":6909:8034   */\n      swap3\n      swap6\n      swap2\n      swap5\n      pop\n      swap3\n      pop\n      jump\t// out\n        /* \"#utility.yul\":8040:8220   */\n    tag_26:\n        /* \"#utility.yul\":8088:8165   */\n      0x4e487b7100000000000000000000000000000000000000000000000000000000\n        /* \"#utility.yul\":8085:8086   */\n      0x00\n        /* \"#utility.yul\":8078:8166   */\n      mstore\n        /* \"#utility.yul\":8185:8189   */\n      0x32\n        /* \"#utility.yul\":8182:8183   */\n      0x04\n        /* \"#utility.yul\":8175:8190   */\n      mstore\n        /* \"#utility.yul\":8209:8213   */\n      0x24\n        /* \"#utility.yul\":8206:8207   */\n      0x00\n        /* \"#utility.yul\":8199:8214   */\n      revert\n        /* \"#utility.yul\":8226:8330   */\n    tag_94:\n        /* \"#utility.yul\":8271:8278   */\n      0x00\n        /* \"#utility.yul\":8300:8324   */\n      tag_200\n        /* \"#utility.yul\":8318:8323   */\n      dup3\n        /* \"#utility.yul\":8300:8324   */\n      tag_65\n      jump\t// in\n    tag_200:\n        /* \"#utility.yul\":8289:8324   */\n      swap1\n      pop\n        /* \"#utility.yul\":8226:8330   */\n      swap2\n      swap1\n      pop\n      jump\t// out\n        /* \"#utility.yul\":8336:8474   */\n    tag_95:\n        /* \"#utility.yul\":8417:8449   */\n      tag_202\n        /* \"#utility.yul\":8443:8448   */\n      dup2\n        /* \"#utility.yul\":8417:8449   */\n      tag_94\n      jump\t// in\n    tag_202:\n        /* \"#utility.yul\":8410:8415   */\n      dup2\n        /* \"#utility.yul\":8407:8450   */\n      eq\n        /* \"#utility.yul\":8397:8468   */\n      tag_203\n      jumpi\n        /* \"#utility.yul\":8464:8465   */\n      0x00\n        /* \"#utility.yul\":8461:8462   */\n      dup1\n        /* \"#utility.yul\":8454:8466   */\n      revert\n        /* \"#utility.yul\":8397:8468   */\n    tag_203:\n        /* \"#utility.yul\":8336:8474   */\n      pop\n      jump\t// out\n        /* \"#utility.yul\":8480:8639   */\n    tag_96:\n        /* \"#utility.yul\":8545:8550   */\n      0x00\n        /* \"#utility.yul\":8576:8582   */\n      dup2\n        /* \"#utility.yul\":8570:8583   */\n      mload\n        /* \"#utility.yul\":8561:8583   */\n      swap1\n      pop\n        /* \"#utility.yul\":8592:8633   */\n      tag_205\n        /* \"#utility.yul\":8627:8632   */\n      dup2\n        /* \"#utility.yul\":8592:8633   */\n      tag_95\n      jump\t// in\n    tag_205:\n        /* \"#utility.yul\":8480:8639   */\n      swap3\n      swap2\n      pop\n      pop\n      jump\t// out\n        /* \"#utility.yul\":8645:9012   */\n    tag_31:\n        /* \"#utility.yul\":8723:8729   */\n      0x00\n        /* \"#utility.yul\":8772:8774   */\n      0x20\n        /* \"#utility.yul\":8760:8769   */\n      dup3\n        /* \"#utility.yul\":8751:8758   */\n      dup5\n        /* \"#utility.yul\":8747:8770   */\n      sub\n        /* \"#utility.yul\":8743:8775   */\n      slt\n        /* \"#utility.yul\":8740:8859   */\n      iszero\n      tag_207\n      jumpi\n        /* \"#utility.yul\":8778:8857   */\n      tag_208\n      tag_63\n      jump\t// in\n    tag_208:\n        /* \"#utility.yul\":8740:8859   */\n    tag_207:\n        /* \"#utility.yul\":8898:8899   */\n      0x00\n        /* \"#utility.yul\":8923:8995   */\n      tag_209\n        /* \"#utility.yul\":8987:8994   */\n      dup5\n        /* \"#utility.yul\":8978:8984   */\n      dup3\n        /* \"#utility.yul\":8967:8976   */\n      dup6\n        /* \"#utility.yul\":8963:8985   */\n      add\n        /* \"#utility.yul\":8923:8995   */\n      tag_96\n      jump\t// in\n    tag_209:\n        /* \"#utility.yul\":8913:8995   */\n      swap2\n      pop\n        /* \"#utility.yul\":8869:9005   */\n      pop\n        /* \"#utility.yul\":8645:9012   */\n      swap3\n      swap2\n      pop\n      pop\n      jump\t// out\n        /* \"#utility.yul\":9018:9198   */\n    tag_97:\n        /* \"#utility.yul\":9066:9143   */\n      0x4e487b7100000000000000000000000000000000000000000000000000000000\n        /* \"#utility.yul\":9063:9064   */\n      0x00\n        /* \"#utility.yul\":9056:9144   */\n      mstore\n        /* \"#utility.yul\":9163:9167   */\n      0x11\n        /* \"#utility.yul\":9160:9161   */\n      0x04\n        /* \"#utility.yul\":9153:9168   */\n      mstore\n        /* \"#utility.yul\":9187:9191   */\n      0x24\n        /* \"#utility.yul\":9184:9185   */\n      0x00\n        /* \"#utility.yul\":9177:9192   */\n      revert\n        /* \"#utility.yul\":9204:9437   */\n    tag_37:\n        /* \"#utility.yul\":9243:9246   */\n      0x00\n        /* \"#utility.yul\":9266:9290   */\n      tag_212\n        /* \"#utility.yul\":9284:9289   */\n      dup3\n        /* \"#utility.yul\":9266:9290   */\n      tag_91\n      jump\t// in\n    tag_212:\n        /* \"#utility.yul\":9257:9290   */\n      swap2\n      pop\n        /* \"#utility.yul\":9312:9378   */\n      0xffffffffffffffffffffffffffffffffffffffffffffffffffffffffffffffff\n        /* \"#utility.yul\":9305:9310   */\n      dup3\n        /* \"#utility.yul\":9302:9379   */\n      sub\n        /* \"#utility.yul\":9299:9402   */\n      tag_213\n      jumpi\n        /* \"#utility.yul\":9382:9400   */\n      tag_214\n      tag_97\n      jump\t// in\n    tag_214:\n        /* \"#utility.yul\":9299:9402   */\n    tag_213:\n        /* \"#utility.yul\":9429:9430   */\n      0x01\n        /* \"#utility.yul\":9422:9427   */\n      dup3\n        /* \"#utility.yul\":9418:9431   */\n      add\n        /* \"#utility.yul\":9411:9431   */\n      swap1\n      pop\n        /* \"#utility.yul\":9204:9437   */\n      swap2\n      swap1\n      pop\n      jump\t// out\n        /* \"#utility.yul\":9443:9612   */\n    tag_98:\n        /* \"#utility.yul\":9527:9538   */\n      0x00\n        /* \"#utility.yul\":9561:9567   */\n      dup3\n        /* \"#utility.yul\":9556:9559   */\n      dup3\n        /* \"#utility.yul\":9549:9568   */\n      mstore\n        /* \"#utility.yul\":9601:9605   */\n      0x20\n        /* \"#utility.yul\":9596:9599   */\n      dup3\n        /* \"#utility.yul\":9592:9606   */\n      add\n        /* \"#utility.yul\":9577:9606   */\n      swap1\n      pop\n        /* \"#utility.yul\":9443:9612   */\n      swap3\n      swap2\n      pop\n      pop\n      jump\t// out\n        /* \"#utility.yul\":9618:9788   */\n    tag_99:\n        /* \"#utility.yul\":9758:9780   */\n      0x50726f6a656374206e6f7420666f756e64202121000000000000000000000000\n        /* \"#utility.yul\":9754:9755   */\n      0x00\n        /* \"#utility.yul\":9746:9752   */\n      dup3\n        /* \"#utility.yul\":9742:9756   */\n      add\n        /* \"#utility.yul\":9735:9781   */\n      mstore\n        /* \"#utility.yul\":9618:9788   */\n      pop\n      jump\t// out\n        /* \"#utility.yul\":9794:10160   */\n    tag_100:\n        /* \"#utility.yul\":9936:9939   */\n      0x00\n        /* \"#utility.yul\":9957:10024   */\n      tag_218\n        /* \"#utility.yul\":10021:10023   */\n      0x14\n        /* \"#utility.yul\":10016:10019   */\n      dup4\n        /* \"#utility.yul\":9957:10024   */\n      tag_98\n      jump\t// in\n    tag_218:\n        /* \"#utility.yul\":9950:10024   */\n      swap2\n      pop\n        /* \"#utility.yul\":10033:10126   */\n      tag_219\n        /* \"#utility.yul\":10122:10125   */\n      dup3\n        /* \"#utility.yul\":10033:10126   */\n      tag_99\n      jump\t// in\n    tag_219:\n        /* \"#utility.yul\":10151:10153   */\n      0x20\n        /* \"#utility.yul\":10146:10149   */\n      dup3\n        /* \"#utility.yul\":10142:10154   */\n      add\n        /* \"#utility.yul\":10135:10154   */\n      swap1\n      pop\n        /* \"#utility.yul\":9794:10160   */\n      swap2\n      swap1\n      pop\n      jump\t// out\n        /* \"#utility.yul\":10166:10585   */\n    tag_39:\n        /* \"#utility.yul\":10332:10336   */\n      0x00\n        /* \"#utility.yul\":10370:10372   */\n      0x20\n        /* \"#utility.yul\":10359:10368   */\n      dup3\n        /* \"#utility.yul\":10355:10373   */\n      add\n        /* \"#utility.yul\":10347:10373   */\n      swap1\n      pop\n        /* \"#utility.yul\":10419:10428   */\n      dup2\n        /* \"#utility.yul\":10413:10417   */\n      dup2\n        /* \"#utility.yul\":10409:10429   */\n      sub\n        /* \"#utility.yul\":10405:10406   */\n      0x00\n        /* \"#utility.yul\":10394:10403   */\n      dup4\n        /* \"#utility.yul\":10390:10407   */\n      add\n        /* \"#utility.yul\":10383:10430   */\n      mstore\n        /* \"#utility.yul\":10447:10578   */\n      tag_221\n        /* \"#utility.yul\":10573:10577   */\n      dup2\n        /* \"#utility.yul\":10447:10578   */\n      tag_100\n      jump\t// in\n    tag_221:\n        /* \"#utility.yul\":10439:10578   */\n      swap1\n      pop\n        /* \"#utility.yul\":10166:10585   */\n      swap2\n      swap1\n      pop\n      jump\t// out\n        /* \"#utility.yul\":10591:10733   */\n    tag_101:\n        /* \"#utility.yul\":10694:10726   */\n      tag_223\n        /* \"#utility.yul\":10720:10725   */\n      dup2\n        /* \"#utility.yul\":10694:10726   */\n      tag_94\n      jump\t// in\n    tag_223:\n        /* \"#utility.yul\":10689:10692   */\n      dup3\n        /* \"#utility.yul\":10682:10727   */\n      mstore\n        /* \"#utility.yul\":10591:10733   */\n      pop\n      pop\n      jump\t// out\n        /* \"#utility.yul\":10739:10838   */\n    tag_102:\n        /* \"#utility.yul\":10791:10797   */\n      0x00\n        /* \"#utility.yul\":10825:10830   */\n      dup2\n        /* \"#utility.yul\":10819:10831   */\n      mload\n        /* \"#utility.yul\":10809:10831   */\n      swap1\n      pop\n        /* \"#utility.yul\":10739:10838   */\n      swap2\n      swap1\n      pop\n      jump\t// out\n        /* \"#utility.yul\":10844:11151   */\n    tag_103:\n        /* \"#utility.yul\":10912:10913   */\n      0x00\n        /* \"#utility.yul\":10922:11035   */\n    tag_226:\n        /* \"#utility.yul\":10936:10942   */\n      dup4\n        /* \"#utility.yul\":10933:10934   */\n      dup2\n        /* \"#utility.yul\":10930:10943   */\n      lt\n        /* \"#utility.yul\":10922:11035   */\n      iszero\n      tag_228\n      jumpi\n        /* \"#utility.yul\":11021:11022   */\n      dup1\n        /* \"#utility.yul\":11016:11019   */\n      dup3\n        /* \"#utility.yul\":11012:11023   */\n      add\n        /* \"#utility.yul\":11006:11024   */\n      mload\n        /* \"#utility.yul\":11002:11003   */\n      dup2\n        /* \"#utility.yul\":10997:11000   */\n      dup5\n        /* \"#utility.yul\":10993:11004   */\n      add\n        /* \"#utility.yul\":10986:11025   */\n      mstore\n        /* \"#utility.yul\":10958:10960   */\n      0x20\n        /* \"#utility.yul\":10955:10956   */\n      dup2\n        /* \"#utility.yul\":10951:10961   */\n      add\n        /* \"#utility.yul\":10946:10961   */\n      swap1\n      pop\n        /* \"#utility.yul\":10922:11035   */\n      jump(tag_226)\n    tag_228:\n        /* \"#utility.yul\":11053:11059   */\n      dup4\n        /* \"#utility.yul\":11050:11051   */\n      dup2\n        /* \"#utility.yul\":11047:11060   */\n      gt\n        /* \"#utility.yul\":11044:11145   */\n      iszero\n      tag_229\n      jumpi\n        /* \"#utility.yul\":11133:11134   */\n      0x00\n        /* \"#utility.yul\":11124:11130   */\n      dup5\n        /* \"#utility.yul\":11119:11122   */\n      dup5\n        /* \"#utility.yul\":11115:11131   */\n      add\n        /* \"#utility.yul\":11108:11135   */\n      mstore\n        /* \"#utility.yul\":11044:11145   */\n    tag_229:\n        /* \"#utility.yul\":10893:11151   */\n      pop\n        /* \"#utility.yul\":10844:11151   */\n      pop\n      pop\n      pop\n      jump\t// out\n        /* \"#utility.yul\":11157:11521   */\n    tag_104:\n        /* \"#utility.yul\":11245:11248   */\n      0x00\n        /* \"#utility.yul\":11273:11312   */\n      tag_231\n        /* \"#utility.yul\":11306:11311   */\n      dup3\n        /* \"#utility.yul\":11273:11312   */\n      tag_102\n      jump\t// in\n    tag_231:\n        /* \"#utility.yul\":11328:11399   */\n      tag_232\n        /* \"#utility.yul\":11392:11398   */\n      dup2\n        /* \"#utility.yul\":11387:11390   */\n      dup6\n        /* \"#utility.yul\":11328:11399   */\n      tag_98\n      jump\t// in\n    tag_232:\n        /* \"#utility.yul\":11321:11399   */\n      swap4\n      pop\n        /* \"#utility.yul\":11408:11460   */\n      tag_233\n        /* \"#utility.yul\":11453:11459   */\n      dup2\n        /* \"#utility.yul\":11448:11451   */\n      dup6\n        /* \"#utility.yul\":11441:11445   */\n      0x20\n        /* \"#utility.yul\":11434:11439   */\n      dup7\n        /* \"#utility.yul\":11430:11446   */\n      add\n        /* \"#utility.yul\":11408:11460   */\n      tag_103\n      jump\t// in\n    tag_233:\n        /* \"#utility.yul\":11485:11514   */\n      tag_234\n        /* \"#utility.yul\":11507:11513   */\n      dup2\n        /* \"#utility.yul\":11485:11514   */\n      tag_83\n      jump\t// in\n    tag_234:\n        /* \"#utility.yul\":11480:11483   */\n      dup5\n        /* \"#utility.yul\":11476:11515   */\n      add\n        /* \"#utility.yul\":11469:11515   */\n      swap2\n      pop\n        /* \"#utility.yul\":11249:11521   */\n      pop\n        /* \"#utility.yul\":11157:11521   */\n      swap3\n      swap2\n      pop\n      pop\n      jump\t// out\n        /* \"#utility.yul\":11527:11645   */\n    tag_105:\n        /* \"#utility.yul\":11614:11638   */\n      tag_236\n        /* \"#utility.yul\":11632:11637   */\n      dup2\n        /* \"#utility.yul\":11614:11638   */\n      tag_91\n      jump\t// in\n    tag_236:\n        /* \"#utility.yul\":11609:11612   */\n      dup3\n        /* \"#utility.yul\":11602:11639   */\n      mstore\n        /* \"#utility.yul\":11527:11645   */\n      pop\n      pop\n      jump\t// out\n        /* \"#utility.yul\":11651:12529   */\n    tag_51:\n        /* \"#utility.yul\":11912:11916   */\n      0x00\n        /* \"#utility.yul\":11950:11953   */\n      0xa0\n        /* \"#utility.yul\":11939:11948   */\n      dup3\n        /* \"#utility.yul\":11935:11954   */\n      add\n        /* \"#utility.yul\":11927:11954   */\n      swap1\n      pop\n        /* \"#utility.yul\":11964:12051   */\n      tag_238\n        /* \"#utility.yul\":12048:12049   */\n      0x00\n        /* \"#utility.yul\":12037:12046   */\n      dup4\n        /* \"#utility.yul\":12033:12050   */\n      add\n        /* \"#utility.yul\":12024:12030   */\n      dup9\n        /* \"#utility.yul\":11964:12051   */\n      tag_101\n      jump\t// in\n    tag_238:\n        /* \"#utility.yul\":12098:12107   */\n      dup2\n        /* \"#utility.yul\":12092:12096   */\n      dup2\n        /* \"#utility.yul\":12088:12108   */\n      sub\n        /* \"#utility.yul\":12083:12085   */\n      0x20\n        /* \"#utility.yul\":12072:12081   */\n      dup4\n        /* \"#utility.yul\":12068:12086   */\n      add\n        /* \"#utility.yul\":12061:12109   */\n      mstore\n        /* \"#utility.yul\":12126:12204   */\n      tag_239\n        /* \"#utility.yul\":12199:12203   */\n      dup2\n        /* \"#utility.yul\":12190:12196   */\n      dup8\n        /* \"#utility.yul\":12126:12204   */\n      tag_104\n      jump\t// in\n    tag_239:\n        /* \"#utility.yul\":12118:12204   */\n      swap1\n      pop\n        /* \"#utility.yul\":12251:12260   */\n      dup2\n        /* \"#utility.yul\":12245:12249   */\n      dup2\n        /* \"#utility.yul\":12241:12261   */\n      sub\n        /* \"#utility.yul\":12236:12238   */\n      0x40\n        /* \"#utility.yul\":12225:12234   */\n      dup4\n        /* \"#utility.yul\":12221:12239   */\n      add\n        /* \"#utility.yul\":12214:12262   */\n      mstore\n        /* \"#utility.yul\":12279:12357   */\n      tag_240\n        /* \"#utility.yul\":12352:12356   */\n      dup2\n        /* \"#utility.yul\":12343:12349   */\n      dup7\n        /* \"#utility.yul\":12279:12357   */\n      tag_104\n      jump\t// in\n    tag_240:\n        /* \"#utility.yul\":12271:12357   */\n      swap1\n      pop\n        /* \"#utility.yul\":12367:12439   */\n      tag_241\n        /* \"#utility.yul\":12435:12437   */\n      0x60\n        /* \"#utility.yul\":12424:12433   */\n      dup4\n        /* \"#utility.yul\":12420:12438   */\n      add\n        /* \"#utility.yul\":12411:12417   */\n      dup6\n        /* \"#utility.yul\":12367:12439   */\n      tag_105\n      jump\t// in\n    tag_241:\n        /* \"#utility.yul\":12449:12522   */\n      tag_242\n        /* \"#utility.yul\":12517:12520   */\n      0x80\n        /* \"#utility.yul\":12506:12515   */\n      dup4\n        /* \"#utility.yul\":12502:12521   */\n      add\n        /* \"#utility.yul\":12493:12499   */\n      dup5\n        /* \"#utility.yul\":12449:12522   */\n      tag_105\n      jump\t// in\n    tag_242:\n        /* \"#utility.yul\":11651:12529   */\n      swap7\n      swap6\n      pop\n      pop\n      pop\n      pop\n      pop\n      pop\n      jump\t// out\n        /* \"#utility.yul\":12535:12653   */\n    tag_106:\n        /* \"#utility.yul\":12622:12646   */\n      tag_244\n        /* \"#utility.yul\":12640:12645   */\n      dup2\n        /* \"#utility.yul\":12622:12646   */\n      tag_66\n      jump\t// in\n    tag_244:\n        /* \"#utility.yul\":12617:12620   */\n      dup3\n        /* \"#utility.yul\":12610:12647   */\n      mstore\n        /* \"#utility.yul\":12535:12653   */\n      pop\n      pop\n      jump\t// out\n        /* \"#utility.yul\":12659:13616   */\n    tag_55:\n        /* \"#utility.yul\":12932:12936   */\n      0x00\n        /* \"#utility.yul\":12970:12973   */\n      0xc0\n        /* \"#utility.yul\":12959:12968   */\n      dup3\n        /* \"#utility.yul\":12955:12974   */\n      add\n        /* \"#utility.yul\":12947:12974   */\n      swap1\n      pop\n        /* \"#utility.yul\":12984:13055   */\n      tag_246\n        /* \"#utility.yul\":13052:13053   */\n      0x00\n        /* \"#utility.yul\":13041:13050   */\n      dup4\n        /* \"#utility.yul\":13037:13054   */\n      add\n        /* \"#utility.yul\":13028:13034   */\n      dup10\n        /* \"#utility.yul\":12984:13055   */\n      tag_106\n      jump\t// in\n    tag_246:\n        /* \"#utility.yul\":13065:13137   */\n      tag_247\n        /* \"#utility.yul\":13133:13135   */\n      0x20\n        /* \"#utility.yul\":13122:13131   */\n      dup4\n        /* \"#utility.yul\":13118:13136   */\n      add\n        /* \"#utility.yul\":13109:13115   */\n      dup9\n        /* \"#utility.yul\":13065:13137   */\n      tag_106\n      jump\t// in\n    tag_247:\n        /* \"#utility.yul\":13184:13193   */\n      dup2\n        /* \"#utility.yul\":13178:13182   */\n      dup2\n        /* \"#utility.yul\":13174:13194   */\n      sub\n        /* \"#utility.yul\":13169:13171   */\n      0x40\n        /* \"#utility.yul\":13158:13167   */\n      dup4\n        /* \"#utility.yul\":13154:13172   */\n      add\n        /* \"#utility.yul\":13147:13195   */\n      mstore\n        /* \"#utility.yul\":13212:13290   */\n      tag_248\n        /* \"#utility.yul\":13285:13289   */\n      dup2\n        /* \"#utility.yul\":13276:13282   */\n      dup8\n        /* \"#utility.yul\":13212:13290   */\n      tag_104\n      jump\t// in\n    tag_248:\n        /* \"#utility.yul\":13204:13290   */\n      swap1\n      pop\n        /* \"#utility.yul\":13337:13346   */\n      dup2\n        /* \"#utility.yul\":13331:13335   */\n      dup2\n        /* \"#utility.yul\":13327:13347   */\n      sub\n        /* \"#utility.yul\":13322:13324   */\n      0x60\n        /* \"#utility.yul\":13311:13320   */\n      dup4\n        /* \"#utility.yul\":13307:13325   */\n      add\n        /* \"#utility.yul\":13300:13348   */\n      mstore\n        /* \"#utility.yul\":13365:13443   */\n      tag_249\n        /* \"#utility.yul\":13438:13442   */\n      dup2\n        /* \"#utility.yul\":13429:13435   */\n      dup7\n        /* \"#utility.yul\":13365:13443   */\n      tag_104\n      jump\t// in\n    tag_249:\n        /* \"#utility.yul\":13357:13443   */\n      swap1\n      pop\n        /* \"#utility.yul\":13453:13526   */\n      tag_250\n        /* \"#utility.yul\":13521:13524   */\n      0x80\n        /* \"#utility.yul\":13510:13519   */\n      dup4\n        /* \"#utility.yul\":13506:13525   */\n      add\n        /* \"#utility.yul\":13497:13503   */\n      dup6\n        /* \"#utility.yul\":13453:13526   */\n      tag_105\n      jump\t// in\n    tag_250:\n        /* \"#utility.yul\":13536:13609   */\n      tag_251\n        /* \"#utility.yul\":13604:13607   */\n      0xa0\n        /* \"#utility.yul\":13593:13602   */\n      dup4\n        /* \"#utility.yul\":13589:13608   */\n      add\n        /* \"#utility.yul\":13580:13586   */\n      dup5\n        /* \"#utility.yul\":13536:13609   */\n      tag_105\n      jump\t// in\n    tag_251:\n        /* \"#utility.yul\":12659:13616   */\n      swap8\n      swap7\n      pop\n      pop\n      pop\n      pop\n      pop\n      pop\n      pop\n      jump\t// out\n        /* \"#utility.yul\":13622:13970   */\n    tag_58:\n        /* \"#utility.yul\":13662:13669   */\n      0x00\n        /* \"#utility.yul\":13685:13705   */\n      tag_253\n        /* \"#utility.yul\":13703:13704   */\n      dup3\n        /* \"#utility.yul\":13685:13705   */\n      tag_91\n      jump\t// in\n    tag_253:\n        /* \"#utility.yul\":13680:13705   */\n      swap2\n      pop\n        /* \"#utility.yul\":13719:13739   */\n      tag_254\n        /* \"#utility.yul\":13737:13738   */\n      dup4\n        /* \"#utility.yul\":13719:13739   */\n      tag_91\n      jump\t// in\n    tag_254:\n        /* \"#utility.yul\":13714:13739   */\n      swap3\n      pop\n        /* \"#utility.yul\":13907:13908   */\n      dup2\n        /* \"#utility.yul\":13839:13905   */\n      0xffffffffffffffffffffffffffffffffffffffffffffffffffffffffffffffff\n        /* \"#utility.yul\":13835:13909   */\n      div\n        /* \"#utility.yul\":13832:13833   */\n      dup4\n        /* \"#utility.yul\":13829:13910   */\n      gt\n        /* \"#utility.yul\":13824:13825   */\n      dup3\n        /* \"#utility.yul\":13817:13826   */\n      iszero\n        /* \"#utility.yul\":13810:13827   */\n      iszero\n        /* \"#utility.yul\":13806:13911   */\n      and\n        /* \"#utility.yul\":13803:13934   */\n      iszero\n      tag_255\n      jumpi\n        /* \"#utility.yul\":13914:13932   */\n      tag_256\n      tag_97\n      jump\t// in\n    tag_256:\n        /* \"#utility.yul\":13803:13934   */\n    tag_255:\n        /* \"#utility.yul\":13962:13963   */\n      dup3\n        /* \"#utility.yul\":13959:13960   */\n      dup3\n        /* \"#utility.yul\":13955:13964   */\n      mul\n        /* \"#utility.yul\":13944:13964   */\n      swap1\n      pop\n        /* \"#utility.yul\":13622:13970   */\n      swap3\n      swap2\n      pop\n      pop\n      jump\t// out\n        /* \"#utility.yul\":13976:14281   */\n    tag_61:\n        /* \"#utility.yul\":14016:14019   */\n      0x00\n        /* \"#utility.yul\":14035:14055   */\n      tag_258\n        /* \"#utility.yul\":14053:14054   */\n      dup3\n        /* \"#utility.yul\":14035:14055   */\n      tag_91\n      jump\t// in\n    tag_258:\n        /* \"#utility.yul\":14030:14055   */\n      swap2\n      pop\n        /* \"#utility.yul\":14069:14089   */\n      tag_259\n        /* \"#utility.yul\":14087:14088   */\n      dup4\n        /* \"#utility.yul\":14069:14089   */\n      tag_91\n      jump\t// in\n    tag_259:\n        /* \"#utility.yul\":14064:14089   */\n      swap3\n      pop\n        /* \"#utility.yul\":14223:14224   */\n      dup3\n        /* \"#utility.yul\":14155:14221   */\n      0xffffffffffffffffffffffffffffffffffffffffffffffffffffffffffffffff\n        /* \"#utility.yul\":14151:14225   */\n      sub\n        /* \"#utility.yul\":14148:14149   */\n      dup3\n        /* \"#utility.yul\":14145:14226   */\n      gt\n        /* \"#utility.yul\":14142:14249   */\n      iszero\n      tag_260\n      jumpi\n        /* \"#utility.yul\":14229:14247   */\n      tag_261\n      tag_97\n      jump\t// in\n    tag_261:\n        /* \"#utility.yul\":14142:14249   */\n    tag_260:\n        /* \"#utility.yul\":14273:14274   */\n      dup3\n        /* \"#utility.yul\":14270:14271   */\n      dup3\n        /* \"#utility.yul\":14266:14275   */\n      add\n        /* \"#utility.yul\":14259:14275   */\n      swap1\n      pop\n        /* \"#utility.yul\":13976:14281   */\n      swap3\n      swap2\n      pop\n      pop\n      jump\t// out\n    stop\n\n    sub_0: assembly {\n            /* \"contracts/Project.sol\":62:1461  contract Project {... */\n          mstore(0x40, 0x80)\n            /* \"contracts/Project.sol\":434:860  constructor... */\n          callvalue\n          dup1\n          iszero\n          tag_1\n          jumpi\n          0x00\n          dup1\n          revert\n        tag_1:\n          pop\n          mload(0x40)\n          sub(codesize, bytecodeSize)\n          dup1\n          bytecodeSize\n          dup4\n          codecopy\n          dup2\n          dup2\n          add\n          0x40\n          mstore\n          dup2\n          add\n          swap1\n          tag_2\n          swap2\n          swap1\n          tag_3\n          jump\t// in\n        tag_2:\n            /* \"contracts/Project.sol\":658:673  _projectCreator */\n          dup5\n            /* \"contracts/Project.sol\":641:655  projectCreator */\n          0x00\n          dup1\n            /* \"contracts/Project.sol\":641:673  projectCreator = _projectCreator */\n          0x0100\n          exp\n          dup2\n          sload\n          dup2\n          0xffffffffffffffffffffffffffffffffffffffff\n          mul\n          not\n          and\n          swap1\n          dup4\n          0xffffffffffffffffffffffffffffffffffffffff\n          and\n          mul\n          or\n          swap1\n          sstore\n          pop\n            /* \"contracts/Project.sol\":698:711  _projectTitle */\n          dup4\n            /* \"contracts/Project.sol\":683:695  projectTitle */\n          0x01\n            /* \"contracts/Project.sol\":683:711  projectTitle = _projectTitle */\n          swap1\n          dup1\n          mload\n          swap1\n          0x20\n          add\n          swap1\n          tag_6\n          swap3\n          swap2\n          swap1\n          tag_7\n          jump\t// in\n        tag_6:\n          pop\n            /* \"contracts/Project.sol\":742:761  _projectDescription */\n          dup3\n            /* \"contracts/Project.sol\":721:739  projectDescription */\n          0x02\n            /* \"contracts/Project.sol\":721:761  projectDescription = _projectDescription */\n          swap1\n          dup1\n          mload\n          swap1\n          0x20\n          add\n          swap1\n          tag_8\n          swap3\n          swap2\n          swap1\n          tag_7\n          jump\t// in\n        tag_8:\n          pop\n            /* \"contracts/Project.sol\":784:795  _amountGoal */\n          dup2\n            /* \"contracts/Project.sol\":771:781  amountGoal */\n          0x03\n            /* \"contracts/Project.sol\":771:795  amountGoal = _amountGoal */\n          dup2\n          swap1\n          sstore\n          pop\n            /* \"contracts/Project.sol\":816:825  _deadLine */\n          dup1\n            /* \"contracts/Project.sol\":805:813  deadLine */\n          0x06\n            /* \"contracts/Project.sol\":805:825  deadLine = _deadLine */\n          dup2\n          swap1\n          sstore\n          pop\n            /* \"contracts/Project.sol\":852:853  0 */\n          0x00\n            /* \"contracts/Project.sol\":835:849  currentBalance */\n          0x04\n            /* \"contracts/Project.sol\":835:853  currentBalance = 0 */\n          dup2\n          swap1\n          sstore\n          pop\n            /* \"contracts/Project.sol\":434:860  constructor... */\n          pop\n          pop\n          pop\n          pop\n          pop\n            /* \"contracts/Project.sol\":62:1461  contract Project {... */\n          jump(tag_9)\n        tag_7:\n          dup3\n          dup1\n          sload\n          tag_10\n          swap1\n          tag_11\n          jump\t// in\n        tag_10:\n          swap1\n          0x00\n          mstore\n          keccak256(0x00, 0x20)\n          swap1\n          0x1f\n          add\n          0x20\n          swap1\n          div\n          dup2\n          add\n          swap3\n          dup3\n          tag_13\n          jumpi\n          0x00\n          dup6\n          sstore\n          jump(tag_12)\n        tag_13:\n          dup3\n          0x1f\n          lt\n          tag_14\n          jumpi\n          dup1\n          mload\n          not(0xff)\n          and\n          dup4\n          dup1\n          add\n          or\n          dup6\n          sstore\n          jump(tag_12)\n        tag_14:\n          dup3\n          dup1\n          add\n          0x01\n          add\n          dup6\n          sstore\n          dup3\n          iszero\n          tag_12\n          jumpi\n          swap2\n          dup3\n          add\n        tag_15:\n          dup3\n          dup2\n          gt\n          iszero\n          tag_16\n          jumpi\n          dup3\n          mload\n          dup3\n          sstore\n          swap2\n          0x20\n          add\n          swap2\n          swap1\n          0x01\n          add\n          swap1\n          jump(tag_15)\n        tag_16:\n        tag_12:\n          pop\n          swap1\n          pop\n          tag_17\n          swap2\n          swap1\n          tag_18\n          jump\t// in\n        tag_17:\n          pop\n          swap1\n          jump\t// out\n        tag_18:\n        tag_19:\n          dup1\n          dup3\n          gt\n          iszero\n          tag_20\n          jumpi\n          0x00\n          dup2\n          0x00\n          swap1\n          sstore\n          pop\n          0x01\n          add\n          jump(tag_19)\n        tag_20:\n          pop\n          swap1\n          jump\t// out\n            /* \"#utility.yul\":7:82   */\n        tag_21:\n            /* \"#utility.yul\":40:46   */\n          0x00\n            /* \"#utility.yul\":73:75   */\n          0x40\n            /* \"#utility.yul\":67:76   */\n          mload\n            /* \"#utility.yul\":57:76   */\n          swap1\n          pop\n            /* \"#utility.yul\":7:82   */\n          swap1\n          jump\t// out\n            /* \"#utility.yul\":88:205   */\n        tag_22:\n            /* \"#utility.yul\":197:198   */\n          0x00\n            /* \"#utility.yul\":194:195   */\n          dup1\n            /* \"#utility.yul\":187:199   */\n          revert\n            /* \"#utility.yul\":211:328   */\n        tag_23:\n            /* \"#utility.yul\":320:321   */\n          0x00\n            /* \"#utility.yul\":317:318   */\n          dup1\n            /* \"#utility.yul\":310:322   */\n          revert\n            /* \"#utility.yul\":334:460   */\n        tag_24:\n            /* \"#utility.yul\":371:378   */\n          0x00\n            /* \"#utility.yul\":411:453   */\n          0xffffffffffffffffffffffffffffffffffffffff\n            /* \"#utility.yul\":404:409   */\n          dup3\n            /* \"#utility.yul\":400:454   */\n          and\n            /* \"#utility.yul\":389:454   */\n          swap1\n          pop\n            /* \"#utility.yul\":334:460   */\n          swap2\n          swap1\n          pop\n          jump\t// out\n            /* \"#utility.yul\":466:570   */\n        tag_25:\n            /* \"#utility.yul\":511:518   */\n          0x00\n            /* \"#utility.yul\":540:564   */\n          tag_48\n            /* \"#utility.yul\":558:563   */\n          dup3\n            /* \"#utility.yul\":540:564   */\n          tag_24\n          jump\t// in\n        tag_48:\n            /* \"#utility.yul\":529:564   */\n          swap1\n          pop\n            /* \"#utility.yul\":466:570   */\n          swap2\n          swap1\n          pop\n          jump\t// out\n            /* \"#utility.yul\":576:714   */\n        tag_26:\n            /* \"#utility.yul\":657:689   */\n          tag_50\n            /* \"#utility.yul\":683:688   */\n          dup2\n            /* \"#utility.yul\":657:689   */\n          tag_25\n          jump\t// in\n        tag_50:\n            /* \"#utility.yul\":650:655   */\n          dup2\n            /* \"#utility.yul\":647:690   */\n          eq\n            /* \"#utility.yul\":637:708   */\n          tag_51\n          jumpi\n            /* \"#utility.yul\":704:705   */\n          0x00\n            /* \"#utility.yul\":701:702   */\n          dup1\n            /* \"#utility.yul\":694:706   */\n          revert\n            /* \"#utility.yul\":637:708   */\n        tag_51:\n            /* \"#utility.yul\":576:714   */\n          pop\n          jump\t// out\n            /* \"#utility.yul\":720:879   */\n        tag_27:\n            /* \"#utility.yul\":785:790   */\n          0x00\n            /* \"#utility.yul\":816:822   */\n          dup2\n            /* \"#utility.yul\":810:823   */\n          mload\n            /* \"#utility.yul\":801:823   */\n          swap1\n          pop\n            /* \"#utility.yul\":832:873   */\n          tag_53\n            /* \"#utility.yul\":867:872   */\n          dup2\n            /* \"#utility.yul\":832:873   */\n          tag_26\n          jump\t// in\n        tag_53:\n            /* \"#utility.yul\":720:879   */\n          swap3\n          swap2\n          pop\n          pop\n          jump\t// out\n            /* \"#utility.yul\":885:1002   */\n        tag_28:\n            /* \"#utility.yul\":994:995   */\n          0x00\n            /* \"#utility.yul\":991:992   */\n          dup1\n            /* \"#utility.yul\":984:996   */\n          revert\n            /* \"#utility.yul\":1008:1125   */\n        tag_29:\n            /* \"#utility.yul\":1117:1118   */\n          0x00\n            /* \"#utility.yul\":1114:1115   */\n          dup1\n            /* \"#utility.yul\":1107:1119   */\n          revert\n            /* \"#utility.yul\":1131:1233   */\n        tag_30:\n            /* \"#utility.yul\":1172:1178   */\n          0x00\n            /* \"#utility.yul\":1223:1225   */\n          0x1f\n            /* \"#utility.yul\":1219:1226   */\n          not\n            /* \"#utility.yul\":1214:1216   */\n          0x1f\n            /* \"#utility.yul\":1207:1212   */\n          dup4\n            /* \"#utility.yul\":1203:1217   */\n          add\n            /* \"#utility.yul\":1199:1227   */\n          and\n            /* \"#utility.yul\":1189:1227   */\n          swap1\n          pop\n            /* \"#utility.yul\":1131:1233   */\n          swap2\n          swap1\n          pop\n          jump\t// out\n            /* \"#utility.yul\":1239:1419   */\n        tag_31:\n            /* \"#utility.yul\":1287:1364   */\n          0x4e487b7100000000000000000000000000000000000000000000000000000000\n            /* \"#utility.yul\":1284:1285   */\n          0x00\n            /* \"#utility.yul\":1277:1365   */\n          mstore\n            /* \"#utility.yul\":1384:1388   */\n          0x41\n            /* \"#utility.yul\":1381:1382   */\n          0x04\n            /* \"#utility.yul\":1374:1389   */\n          mstore\n            /* \"#utility.yul\":1408:1412   */\n          0x24\n            /* \"#utility.yul\":1405:1406   */\n          0x00\n            /* \"#utility.yul\":1398:1413   */\n          revert\n            /* \"#utility.yul\":1425:1706   */\n        tag_32:\n            /* \"#utility.yul\":1508:1535   */\n          tag_59\n            /* \"#utility.yul\":1530:1534   */\n          dup3\n            /* \"#utility.yul\":1508:1535   */\n          tag_30\n          jump\t// in\n        tag_59:\n            /* \"#utility.yul\":1500:1506   */\n          dup2\n            /* \"#utility.yul\":1496:1536   */\n          add\n            /* \"#utility.yul\":1638:1644   */\n          dup2\n            /* \"#utility.yul\":1626:1636   */\n          dup2\n            /* \"#utility.yul\":1623:1645   */\n          lt\n            /* \"#utility.yul\":1602:1620   */\n          0xffffffffffffffff\n            /* \"#utility.yul\":1590:1600   */\n          dup3\n            /* \"#utility.yul\":1587:1621   */\n          gt\n            /* \"#utility.yul\":1584:1646   */\n          or\n            /* \"#utility.yul\":1581:1669   */\n          iszero\n          tag_60\n          jumpi\n            /* \"#utility.yul\":1649:1667   */\n          tag_61\n          tag_31\n          jump\t// in\n        tag_61:\n            /* \"#utility.yul\":1581:1669   */\n        tag_60:\n            /* \"#utility.yul\":1689:1699   */\n          dup1\n            /* \"#utility.yul\":1685:1687   */\n          0x40\n            /* \"#utility.yul\":1678:1700   */\n          mstore\n            /* \"#utility.yul\":1468:1706   */\n          pop\n            /* \"#utility.yul\":1425:1706   */\n          pop\n          pop\n          jump\t// out\n            /* \"#utility.yul\":1712:1841   */\n        tag_33:\n            /* \"#utility.yul\":1746:1752   */\n          0x00\n            /* \"#utility.yul\":1773:1793   */\n          tag_63\n          tag_21\n          jump\t// in\n        tag_63:\n            /* \"#utility.yul\":1763:1793   */\n          swap1\n          pop\n            /* \"#utility.yul\":1802:1835   */\n          tag_64\n            /* \"#utility.yul\":1830:1834   */\n          dup3\n            /* \"#utility.yul\":1822:1828   */\n          dup3\n            /* \"#utility.yul\":1802:1835   */\n          tag_32\n          jump\t// in\n        tag_64:\n            /* \"#utility.yul\":1712:1841   */\n          swap2\n          swap1\n          pop\n          jump\t// out\n            /* \"#utility.yul\":1847:2155   */\n        tag_34:\n            /* \"#utility.yul\":1909:1913   */\n          0x00\n            /* \"#utility.yul\":1999:2017   */\n          0xffffffffffffffff\n            /* \"#utility.yul\":1991:1997   */\n          dup3\n            /* \"#utility.yul\":1988:2018   */\n          gt\n            /* \"#utility.yul\":1985:2041   */\n          iszero\n          tag_66\n          jumpi\n            /* \"#utility.yul\":2021:2039   */\n          tag_67\n          tag_31\n          jump\t// in\n        tag_67:\n            /* \"#utility.yul\":1985:2041   */\n        tag_66:\n            /* \"#utility.yul\":2059:2088   */\n          tag_68\n            /* \"#utility.yul\":2081:2087   */\n          dup3\n            /* \"#utility.yul\":2059:2088   */\n          tag_30\n          jump\t// in\n        tag_68:\n            /* \"#utility.yul\":2051:2088   */\n          swap1\n          pop\n            /* \"#utility.yul\":2143:2147   */\n          0x20\n            /* \"#utility.yul\":2137:2141   */\n          dup2\n            /* \"#utility.yul\":2133:2148   */\n          add\n            /* \"#utility.yul\":2125:2148   */\n          swap1\n          pop\n            /* \"#utility.yul\":1847:2155   */\n          swap2\n          swap1\n          pop\n          jump\t// out\n            /* \"#utility.yul\":2161:2468   */\n        tag_35:\n            /* \"#utility.yul\":2229:2230   */\n          0x00\n            /* \"#utility.yul\":2239:2352   */\n        tag_70:\n            /* \"#utility.yul\":2253:2259   */\n          dup4\n            /* \"#utility.yul\":2250:2251   */\n          dup2\n            /* \"#utility.yul\":2247:2260   */\n          lt\n            /* \"#utility.yul\":2239:2352   */\n          iszero\n          tag_72\n          jumpi\n            /* \"#utility.yul\":2338:2339   */\n          dup1\n            /* \"#utility.yul\":2333:2336   */\n          dup3\n            /* \"#utility.yul\":2329:2340   */\n          add\n            /* \"#utility.yul\":2323:2341   */\n          mload\n            /* \"#utility.yul\":2319:2320   */\n          dup2\n            /* \"#utility.yul\":2314:2317   */\n          dup5\n            /* \"#utility.yul\":2310:2321   */\n          add\n            /* \"#utility.yul\":2303:2342   */\n          mstore\n            /* \"#utility.yul\":2275:2277   */\n          0x20\n            /* \"#utility.yul\":2272:2273   */\n          dup2\n            /* \"#utility.yul\":2268:2278   */\n          add\n            /* \"#utility.yul\":2263:2278   */\n          swap1\n          pop\n            /* \"#utility.yul\":2239:2352   */\n          jump(tag_70)\n        tag_72:\n            /* \"#utility.yul\":2370:2376   */\n          dup4\n            /* \"#utility.yul\":2367:2368   */\n          dup2\n            /* \"#utility.yul\":2364:2377   */\n          gt\n            /* \"#utility.yul\":2361:2462   */\n          iszero\n          tag_73\n          jumpi\n            /* \"#utility.yul\":2450:2451   */\n          0x00\n            /* \"#utility.yul\":2441:2447   */\n          dup5\n            /* \"#utility.yul\":2436:2439   */\n          dup5\n            /* \"#utility.yul\":2432:2448   */\n          add\n            /* \"#utility.yul\":2425:2452   */\n          mstore\n            /* \"#utility.yul\":2361:2462   */\n        tag_73:\n            /* \"#utility.yul\":2210:2468   */\n          pop\n            /* \"#utility.yul\":2161:2468   */\n          pop\n          pop\n          pop\n          jump\t// out\n            /* \"#utility.yul\":2474:2895   */\n        tag_36:\n            /* \"#utility.yul\":2563:2568   */\n          0x00\n            /* \"#utility.yul\":2588:2654   */\n          tag_75\n            /* \"#utility.yul\":2604:2653   */\n          tag_76\n            /* \"#utility.yul\":2646:2652   */\n          dup5\n            /* \"#utility.yul\":2604:2653   */\n          tag_34\n          jump\t// in\n        tag_76:\n            /* \"#utility.yul\":2588:2654   */\n          tag_33\n          jump\t// in\n        tag_75:\n            /* \"#utility.yul\":2579:2654   */\n          swap1\n          pop\n            /* \"#utility.yul\":2677:2683   */\n          dup3\n            /* \"#utility.yul\":2670:2675   */\n          dup2\n            /* \"#utility.yul\":2663:2684   */\n          mstore\n            /* \"#utility.yul\":2715:2719   */\n          0x20\n            /* \"#utility.yul\":2708:2713   */\n          dup2\n            /* \"#utility.yul\":2704:2720   */\n          add\n            /* \"#utility.yul\":2753:2756   */\n          dup5\n            /* \"#utility.yul\":2744:2750   */\n          dup5\n            /* \"#utility.yul\":2739:2742   */\n          dup5\n            /* \"#utility.yul\":2735:2751   */\n          add\n            /* \"#utility.yul\":2732:2757   */\n          gt\n            /* \"#utility.yul\":2729:2841   */\n          iszero\n          tag_77\n          jumpi\n            /* \"#utility.yul\":2760:2839   */\n          tag_78\n          tag_29\n          jump\t// in\n        tag_78:\n            /* \"#utility.yul\":2729:2841   */\n        tag_77:\n            /* \"#utility.yul\":2850:2889   */\n          tag_79\n            /* \"#utility.yul\":2882:2888   */\n          dup5\n            /* \"#utility.yul\":2877:2880   */\n          dup3\n            /* \"#utility.yul\":2872:2875   */\n          dup6\n            /* \"#utility.yul\":2850:2889   */\n          tag_35\n          jump\t// in\n        tag_79:\n            /* \"#utility.yul\":2569:2895   */\n          pop\n            /* \"#utility.yul\":2474:2895   */\n          swap4\n          swap3\n          pop\n          pop\n          pop\n          jump\t// out\n            /* \"#utility.yul\":2915:3270   */\n        tag_37:\n            /* \"#utility.yul\":2982:2987   */\n          0x00\n            /* \"#utility.yul\":3031:3034   */\n          dup3\n            /* \"#utility.yul\":3024:3028   */\n          0x1f\n            /* \"#utility.yul\":3016:3022   */\n          dup4\n            /* \"#utility.yul\":3012:3029   */\n          add\n            /* \"#utility.yul\":3008:3035   */\n          slt\n            /* \"#utility.yul\":2998:3120   */\n          tag_81\n          jumpi\n            /* \"#utility.yul\":3039:3118   */\n          tag_82\n          tag_28\n          jump\t// in\n        tag_82:\n            /* \"#utility.yul\":2998:3120   */\n        tag_81:\n            /* \"#utility.yul\":3149:3155   */\n          dup2\n            /* \"#utility.yul\":3143:3156   */\n          mload\n            /* \"#utility.yul\":3174:3264   */\n          tag_83\n            /* \"#utility.yul\":3260:3263   */\n          dup5\n            /* \"#utility.yul\":3252:3258   */\n          dup3\n            /* \"#utility.yul\":3245:3249   */\n          0x20\n            /* \"#utility.yul\":3237:3243   */\n          dup7\n            /* \"#utility.yul\":3233:3250   */\n          add\n            /* \"#utility.yul\":3174:3264   */\n          tag_36\n          jump\t// in\n        tag_83:\n            /* \"#utility.yul\":3165:3264   */\n          swap2\n          pop\n            /* \"#utility.yul\":2988:3270   */\n          pop\n            /* \"#utility.yul\":2915:3270   */\n          swap3\n          swap2\n          pop\n          pop\n          jump\t// out\n            /* \"#utility.yul\":3276:3353   */\n        tag_38:\n            /* \"#utility.yul\":3313:3320   */\n          0x00\n            /* \"#utility.yul\":3342:3347   */\n          dup2\n            /* \"#utility.yul\":3331:3347   */\n          swap1\n          pop\n            /* \"#utility.yul\":3276:3353   */\n          swap2\n          swap1\n          pop\n          jump\t// out\n            /* \"#utility.yul\":3359:3481   */\n        tag_39:\n            /* \"#utility.yul\":3432:3456   */\n          tag_86\n            /* \"#utility.yul\":3450:3455   */\n          dup2\n            /* \"#utility.yul\":3432:3456   */\n          tag_38\n          jump\t// in\n        tag_86:\n            /* \"#utility.yul\":3425:3430   */\n          dup2\n            /* \"#utility.yul\":3422:3457   */\n          eq\n            /* \"#utility.yul\":3412:3475   */\n          tag_87\n          jumpi\n            /* \"#utility.yul\":3471:3472   */\n          0x00\n            /* \"#utility.yul\":3468:3469   */\n          dup1\n            /* \"#utility.yul\":3461:3473   */\n          revert\n            /* \"#utility.yul\":3412:3475   */\n        tag_87:\n            /* \"#utility.yul\":3359:3481   */\n          pop\n          jump\t// out\n            /* \"#utility.yul\":3487:3630   */\n        tag_40:\n            /* \"#utility.yul\":3544:3549   */\n          0x00\n            /* \"#utility.yul\":3575:3581   */\n          dup2\n            /* \"#utility.yul\":3569:3582   */\n          mload\n            /* \"#utility.yul\":3560:3582   */\n          swap1\n          pop\n            /* \"#utility.yul\":3591:3624   */\n          tag_89\n            /* \"#utility.yul\":3618:3623   */\n          dup2\n            /* \"#utility.yul\":3591:3624   */\n          tag_39\n          jump\t// in\n        tag_89:\n            /* \"#utility.yul\":3487:3630   */\n          swap3\n          swap2\n          pop\n          pop\n          jump\t// out\n            /* \"#utility.yul\":3636:4975   */\n        tag_3:\n            /* \"#utility.yul\":3770:3776   */\n          0x00\n            /* \"#utility.yul\":3778:3784   */\n          dup1\n            /* \"#utility.yul\":3786:3792   */\n          0x00\n            /* \"#utility.yul\":3794:3800   */\n          dup1\n            /* \"#utility.yul\":3802:3808   */\n          0x00\n            /* \"#utility.yul\":3851:3854   */\n          0xa0\n            /* \"#utility.yul\":3839:3848   */\n          dup7\n            /* \"#utility.yul\":3830:3837   */\n          dup9\n            /* \"#utility.yul\":3826:3849   */\n          sub\n            /* \"#utility.yul\":3822:3855   */\n          slt\n            /* \"#utility.yul\":3819:3939   */\n          iszero\n          tag_91\n          jumpi\n            /* \"#utility.yul\":3858:3937   */\n          tag_92\n          tag_22\n          jump\t// in\n        tag_92:\n            /* \"#utility.yul\":3819:3939   */\n        tag_91:\n            /* \"#utility.yul\":3978:3979   */\n          0x00\n            /* \"#utility.yul\":4003:4075   */\n          tag_93\n            /* \"#utility.yul\":4067:4074   */\n          dup9\n            /* \"#utility.yul\":4058:4064   */\n          dup3\n            /* \"#utility.yul\":4047:4056   */\n          dup10\n            /* \"#utility.yul\":4043:4065   */\n          add\n            /* \"#utility.yul\":4003:4075   */\n          tag_27\n          jump\t// in\n        tag_93:\n            /* \"#utility.yul\":3993:4075   */\n          swap6\n          pop\n            /* \"#utility.yul\":3949:4085   */\n          pop\n            /* \"#utility.yul\":4145:4147   */\n          0x20\n            /* \"#utility.yul\":4134:4143   */\n          dup7\n            /* \"#utility.yul\":4130:4148   */\n          add\n            /* \"#utility.yul\":4124:4149   */\n          mload\n            /* \"#utility.yul\":4176:4194   */\n          0xffffffffffffffff\n            /* \"#utility.yul\":4168:4174   */\n          dup2\n            /* \"#utility.yul\":4165:4195   */\n          gt\n            /* \"#utility.yul\":4162:4279   */\n          iszero\n          tag_94\n          jumpi\n            /* \"#utility.yul\":4198:4277   */\n          tag_95\n          tag_23\n          jump\t// in\n        tag_95:\n            /* \"#utility.yul\":4162:4279   */\n        tag_94:\n            /* \"#utility.yul\":4303:4377   */\n          tag_96\n            /* \"#utility.yul\":4369:4376   */\n          dup9\n            /* \"#utility.yul\":4360:4366   */\n          dup3\n            /* \"#utility.yul\":4349:4358   */\n          dup10\n            /* \"#utility.yul\":4345:4367   */\n          add\n            /* \"#utility.yul\":4303:4377   */\n          tag_37\n          jump\t// in\n        tag_96:\n            /* \"#utility.yul\":4293:4377   */\n          swap5\n          pop\n            /* \"#utility.yul\":4095:4387   */\n          pop\n            /* \"#utility.yul\":4447:4449   */\n          0x40\n            /* \"#utility.yul\":4436:4445   */\n          dup7\n            /* \"#utility.yul\":4432:4450   */\n          add\n            /* \"#utility.yul\":4426:4451   */\n          mload\n            /* \"#utility.yul\":4478:4496   */\n          0xffffffffffffffff\n            /* \"#utility.yul\":4470:4476   */\n          dup2\n            /* \"#utility.yul\":4467:4497   */\n          gt\n            /* \"#utility.yul\":4464:4581   */\n          iszero\n          tag_97\n          jumpi\n            /* \"#utility.yul\":4500:4579   */\n          tag_98\n          tag_23\n          jump\t// in\n        tag_98:\n            /* \"#utility.yul\":4464:4581   */\n        tag_97:\n            /* \"#utility.yul\":4605:4679   */\n          tag_99\n            /* \"#utility.yul\":4671:4678   */\n          dup9\n            /* \"#utility.yul\":4662:4668   */\n          dup3\n            /* \"#utility.yul\":4651:4660   */\n          dup10\n            /* \"#utility.yul\":4647:4669   */\n          add\n            /* \"#utility.yul\":4605:4679   */\n          tag_37\n          jump\t// in\n        tag_99:\n            /* \"#utility.yul\":4595:4679   */\n          swap4\n          pop\n            /* \"#utility.yul\":4397:4689   */\n          pop\n            /* \"#utility.yul\":4728:4730   */\n          0x60\n            /* \"#utility.yul\":4754:4818   */\n          tag_100\n            /* \"#utility.yul\":4810:4817   */\n          dup9\n            /* \"#utility.yul\":4801:4807   */\n          dup3\n            /* \"#utility.yul\":4790:4799   */\n          dup10\n            /* \"#utility.yul\":4786:4808   */\n          add\n            /* \"#utility.yul\":4754:4818   */\n          tag_40\n          jump\t// in\n        tag_100:\n            /* \"#utility.yul\":4744:4818   */\n          swap3\n          pop\n            /* \"#utility.yul\":4699:4828   */\n          pop\n            /* \"#utility.yul\":4867:4870   */\n          0x80\n            /* \"#utility.yul\":4894:4958   */\n          tag_101\n            /* \"#utility.yul\":4950:4957   */\n          dup9\n            /* \"#utility.yul\":4941:4947   */\n          dup3\n            /* \"#utility.yul\":4930:4939   */\n          dup10\n            /* \"#utility.yul\":4926:4948   */\n          add\n            /* \"#utility.yul\":4894:4958   */\n          tag_40\n          jump\t// in\n        tag_101:\n            /* \"#utility.yul\":4884:4958   */\n          swap2\n          pop\n            /* \"#utility.yul\":4838:4968   */\n          pop\n            /* \"#utility.yul\":3636:4975   */\n          swap3\n          swap6\n          pop\n          swap3\n          swap6\n          swap1\n          swap4\n          pop\n          jump\t// out\n            /* \"#utility.yul\":4981:5161   */\n        tag_41:\n            /* \"#utility.yul\":5029:5106   */\n          0x4e487b7100000000000000000000000000000000000000000000000000000000\n            /* \"#utility.yul\":5026:5027   */\n          0x00\n            /* \"#utility.yul\":5019:5107   */\n          mstore\n            /* \"#utility.yul\":5126:5130   */\n          0x22\n            /* \"#utility.yul\":5123:5124   */\n          0x04\n            /* \"#utility.yul\":5116:5131   */\n          mstore\n            /* \"#utility.yul\":5150:5154   */\n          0x24\n            /* \"#utility.yul\":5147:5148   */\n          0x00\n            /* \"#utility.yul\":5140:5155   */\n          revert\n            /* \"#utility.yul\":5167:5487   */\n        tag_11:\n            /* \"#utility.yul\":5211:5217   */\n          0x00\n            /* \"#utility.yul\":5248:5249   */\n          0x02\n            /* \"#utility.yul\":5242:5246   */\n          dup3\n            /* \"#utility.yul\":5238:5250   */\n          div\n            /* \"#utility.yul\":5228:5250   */\n          swap1\n          pop\n            /* \"#utility.yul\":5295:5296   */\n          0x01\n            /* \"#utility.yul\":5289:5293   */\n          dup3\n            /* \"#utility.yul\":5285:5297   */\n          and\n            /* \"#utility.yul\":5316:5334   */\n          dup1\n            /* \"#utility.yul\":5306:5387   */\n          tag_104\n          jumpi\n            /* \"#utility.yul\":5372:5376   */\n          0x7f\n            /* \"#utility.yul\":5364:5370   */\n          dup3\n            /* \"#utility.yul\":5360:5377   */\n          and\n            /* \"#utility.yul\":5350:5377   */\n          swap2\n          pop\n            /* \"#utility.yul\":5306:5387   */\n        tag_104:\n            /* \"#utility.yul\":5434:5436   */\n          0x20\n            /* \"#utility.yul\":5426:5432   */\n          dup3\n            /* \"#utility.yul\":5423:5437   */\n          lt\n            /* \"#utility.yul\":5403:5421   */\n          dup2\n            /* \"#utility.yul\":5400:5438   */\n          sub\n            /* \"#utility.yul\":5397:5481   */\n          tag_105\n          jumpi\n            /* \"#utility.yul\":5453:5471   */\n          tag_106\n          tag_41\n          jump\t// in\n        tag_106:\n            /* \"#utility.yul\":5397:5481   */\n        tag_105:\n            /* \"#utility.yul\":5218:5487   */\n          pop\n            /* \"#utility.yul\":5167:5487   */\n          swap2\n          swap1\n          pop\n          jump\t// out\n            /* \"contracts/Project.sol\":62:1461  contract Project {... */\n        tag_9:\n          dataSize(sub_0)\n          dup1\n          dataOffset(sub_0)\n          0x00\n          codecopy\n          0x00\n          return\n        stop\n\n        sub_0: assembly {\n                /* \"contracts/Project.sol\":62:1461  contract Project {... */\n              mstore(0x40, 0x80)\n              callvalue\n              dup1\n              iszero\n              tag_1\n              jumpi\n              0x00\n              dup1\n              revert\n            tag_1:\n              pop\n              jumpi(tag_2, lt(calldatasize, 0x04))\n              shr(0xe0, calldataload(0x00))\n              dup1\n              0x400ffb33\n              eq\n              tag_3\n              jumpi\n              dup1\n              0xa541a2a2\n              eq\n              tag_4\n              jumpi\n              dup1\n              0xa8b93c8d\n              eq\n              tag_5\n              jumpi\n              dup1\n              0xf020cd19\n              eq\n              tag_6\n              jumpi\n            tag_2:\n              0x00\n              dup1\n              revert\n                /* \"contracts/Project.sol\":866:1230  function start(string memory _projectTitle, string memory _projectDescription, ... */\n            tag_3:\n              tag_7\n              0x04\n              dup1\n              calldatasize\n              sub\n              dup2\n              add\n              swap1\n              tag_8\n              swap2\n              swap1\n              tag_9\n              jump\t// in\n            tag_8:\n              tag_10\n              jump\t// in\n            tag_7:\n              stop\n                /* \"contracts/Project.sol\":166:203  address payable public projectCreator */\n            tag_4:\n              tag_11\n              tag_12\n              jump\t// in\n            tag_11:\n              mload(0x40)\n              tag_13\n              swap2\n              swap1\n              tag_14\n              jump\t// in\n            tag_13:\n              mload(0x40)\n              dup1\n              swap2\n              sub\n              swap1\n              return\n                /* \"contracts/Project.sol\":1349:1455  function setProjectTitle(string memory _projectTitle) public {... */\n            tag_5:\n              tag_15\n              0x04\n              dup1\n              calldatasize\n              sub\n              dup2\n              add\n              swap1\n              tag_16\n              swap2\n              swap1\n              tag_17\n              jump\t// in\n            tag_16:\n              tag_18\n              jump\t// in\n            tag_15:\n              stop\n                /* \"contracts/Project.sol\":1241:1339  function getProjectTitle() public view returns(string memory) {... */\n            tag_6:\n              tag_19\n              tag_20\n              jump\t// in\n            tag_19:\n              mload(0x40)\n              tag_21\n              swap2\n              swap1\n              tag_22\n              jump\t// in\n            tag_21:\n              mload(0x40)\n              dup1\n              swap2\n              sub\n              swap1\n              return\n                /* \"contracts/Project.sol\":866:1230  function start(string memory _projectTitle, string memory _projectDescription, ... */\n            tag_10:\n                /* \"contracts/Project.sol\":1040:1050  msg.sender */\n              caller\n                /* \"contracts/Project.sol\":1015:1029  projectCreator */\n              0x00\n              dup1\n                /* \"contracts/Project.sol\":1015:1051  projectCreator = payable(msg.sender) */\n              0x0100\n              exp\n              dup2\n              sload\n              dup2\n              0xffffffffffffffffffffffffffffffffffffffff\n              mul\n              not\n              and\n              swap1\n              dup4\n              0xffffffffffffffffffffffffffffffffffffffff\n              and\n              mul\n              or\n              swap1\n              sstore\n              pop\n                /* \"contracts/Project.sol\":1080:1093  _projectTitle */\n              dup4\n                /* \"contracts/Project.sol\":1065:1077  projectTitle */\n              0x01\n                /* \"contracts/Project.sol\":1065:1093  projectTitle = _projectTitle */\n              swap1\n              dup1\n              mload\n              swap1\n              0x20\n              add\n              swap1\n              tag_24\n              swap3\n              swap2\n              swap1\n              tag_25\n              jump\t// in\n            tag_24:\n              pop\n                /* \"contracts/Project.sol\":1128:1147  _projectDescription */\n              dup3\n                /* \"contracts/Project.sol\":1107:1125  projectDescription */\n              0x02\n                /* \"contracts/Project.sol\":1107:1147  projectDescription = _projectDescription */\n              swap1\n              dup1\n              mload\n              swap1\n              0x20\n              add\n              swap1\n              tag_26\n              swap3\n              swap2\n              swap1\n              tag_25\n              jump\t// in\n            tag_26:\n              pop\n                /* \"contracts/Project.sol\":1174:1185  _amountGoal */\n              dup2\n                /* \"contracts/Project.sol\":1161:1171  amountGoal */\n              0x03\n                /* \"contracts/Project.sol\":1161:1185  amountGoal = _amountGoal */\n              dup2\n              swap1\n              sstore\n              pop\n                /* \"contracts/Project.sol\":1210:1219  _deadLine */\n              dup1\n                /* \"contracts/Project.sol\":1199:1207  deadLine */\n              0x06\n                /* \"contracts/Project.sol\":1199:1219  deadLine = _deadLine */\n              dup2\n              swap1\n              sstore\n              pop\n                /* \"contracts/Project.sol\":866:1230  function start(string memory _projectTitle, string memory _projectDescription, ... */\n              pop\n              pop\n              pop\n              pop\n              jump\t// out\n                /* \"contracts/Project.sol\":166:203  address payable public projectCreator */\n            tag_12:\n              0x00\n              dup1\n              sload\n              swap1\n              0x0100\n              exp\n              swap1\n              div\n              0xffffffffffffffffffffffffffffffffffffffff\n              and\n              dup2\n              jump\t// out\n                /* \"contracts/Project.sol\":1349:1455  function setProjectTitle(string memory _projectTitle) public {... */\n            tag_18:\n                /* \"contracts/Project.sol\":1435:1448  _projectTitle */\n              dup1\n                /* \"contracts/Project.sol\":1420:1432  projectTitle */\n              0x01\n                /* \"contracts/Project.sol\":1420:1448  projectTitle = _projectTitle */\n              swap1\n              dup1\n              mload\n              swap1\n              0x20\n              add\n              swap1\n              tag_28\n              swap3\n              swap2\n              swap1\n              tag_25\n              jump\t// in\n            tag_28:\n              pop\n                /* \"contracts/Project.sol\":1349:1455  function setProjectTitle(string memory _projectTitle) public {... */\n              pop\n              jump\t// out\n                /* \"contracts/Project.sol\":1241:1339  function getProjectTitle() public view returns(string memory) {... */\n            tag_20:\n                /* \"contracts/Project.sol\":1288:1301  string memory */\n              0x60\n                /* \"contracts/Project.sol\":1320:1332  projectTitle */\n              0x01\n                /* \"contracts/Project.sol\":1313:1332  return projectTitle */\n              dup1\n              sload\n              tag_30\n              swap1\n              tag_31\n              jump\t// in\n            tag_30:\n              dup1\n              0x1f\n              add\n              0x20\n              dup1\n              swap2\n              div\n              mul\n              0x20\n              add\n              mload(0x40)\n              swap1\n              dup2\n              add\n              0x40\n              mstore\n              dup1\n              swap3\n              swap2\n              swap1\n              dup2\n              dup2\n              mstore\n              0x20\n              add\n              dup3\n              dup1\n              sload\n              tag_32\n              swap1\n              tag_31\n              jump\t// in\n            tag_32:\n              dup1\n              iszero\n              tag_33\n              jumpi\n              dup1\n              0x1f\n              lt\n              tag_34\n              jumpi\n              0x0100\n              dup1\n              dup4\n              sload\n              div\n              mul\n              dup4\n              mstore\n              swap2\n              0x20\n              add\n              swap2\n              jump(tag_33)\n            tag_34:\n              dup3\n              add\n              swap2\n              swap1\n              0x00\n              mstore\n              keccak256(0x00, 0x20)\n              swap1\n            tag_35:\n              dup2\n              sload\n              dup2\n              mstore\n              swap1\n              0x01\n              add\n              swap1\n              0x20\n              add\n              dup1\n              dup4\n              gt\n              tag_35\n              jumpi\n              dup3\n              swap1\n              sub\n              0x1f\n              and\n              dup3\n              add\n              swap2\n            tag_33:\n              pop\n              pop\n              pop\n              pop\n              pop\n              swap1\n              pop\n                /* \"contracts/Project.sol\":1241:1339  function getProjectTitle() public view returns(string memory) {... */\n              swap1\n              jump\t// out\n            tag_25:\n              dup3\n              dup1\n              sload\n              tag_36\n              swap1\n              tag_31\n              jump\t// in\n            tag_36:\n              swap1\n              0x00\n              mstore\n              keccak256(0x00, 0x20)\n              swap1\n              0x1f\n              add\n              0x20\n              swap1\n              div\n              dup2\n              add\n              swap3\n              dup3\n              tag_38\n              jumpi\n              0x00\n              dup6\n              sstore\n              jump(tag_37)\n            tag_38:\n              dup3\n              0x1f\n              lt\n              tag_39\n              jumpi\n              dup1\n              mload\n              not(0xff)\n              and\n              dup4\n              dup1\n              add\n              or\n              dup6\n              sstore\n              jump(tag_37)\n            tag_39:\n              dup3\n              dup1\n              add\n              0x01\n              add\n              dup6\n              sstore\n              dup3\n              iszero\n              tag_37\n              jumpi\n              swap2\n              dup3\n              add\n            tag_40:\n              dup3\n              dup2\n              gt\n              iszero\n              tag_41\n              jumpi\n              dup3\n              mload\n              dup3\n              sstore\n              swap2\n              0x20\n              add\n              swap2\n              swap1\n              0x01\n              add\n              swap1\n              jump(tag_40)\n            tag_41:\n            tag_37:\n              pop\n              swap1\n              pop\n              tag_42\n              swap2\n              swap1\n              tag_43\n              jump\t// in\n            tag_42:\n              pop\n              swap1\n              jump\t// out\n            tag_43:\n            tag_44:\n              dup1\n              dup3\n              gt\n              iszero\n              tag_45\n              jumpi\n              0x00\n              dup2\n              0x00\n              swap1\n              sstore\n              pop\n              0x01\n              add\n              jump(tag_44)\n            tag_45:\n              pop\n              swap1\n              jump\t// out\n                /* \"#utility.yul\":7:82   */\n            tag_46:\n                /* \"#utility.yul\":40:46   */\n              0x00\n                /* \"#utility.yul\":73:75   */\n              0x40\n                /* \"#utility.yul\":67:76   */\n              mload\n                /* \"#utility.yul\":57:76   */\n              swap1\n              pop\n                /* \"#utility.yul\":7:82   */\n              swap1\n              jump\t// out\n                /* \"#utility.yul\":88:205   */\n            tag_47:\n                /* \"#utility.yul\":197:198   */\n              0x00\n                /* \"#utility.yul\":194:195   */\n              dup1\n                /* \"#utility.yul\":187:199   */\n              revert\n                /* \"#utility.yul\":211:328   */\n            tag_48:\n                /* \"#utility.yul\":320:321   */\n              0x00\n                /* \"#utility.yul\":317:318   */\n              dup1\n                /* \"#utility.yul\":310:322   */\n              revert\n                /* \"#utility.yul\":334:451   */\n            tag_49:\n                /* \"#utility.yul\":443:444   */\n              0x00\n                /* \"#utility.yul\":440:441   */\n              dup1\n                /* \"#utility.yul\":433:445   */\n              revert\n                /* \"#utility.yul\":457:574   */\n            tag_50:\n                /* \"#utility.yul\":566:567   */\n              0x00\n                /* \"#utility.yul\":563:564   */\n              dup1\n                /* \"#utility.yul\":556:568   */\n              revert\n                /* \"#utility.yul\":580:682   */\n            tag_51:\n                /* \"#utility.yul\":621:627   */\n              0x00\n                /* \"#utility.yul\":672:674   */\n              0x1f\n                /* \"#utility.yul\":668:675   */\n              not\n                /* \"#utility.yul\":663:665   */\n              0x1f\n                /* \"#utility.yul\":656:661   */\n              dup4\n                /* \"#utility.yul\":652:666   */\n              add\n                /* \"#utility.yul\":648:676   */\n              and\n                /* \"#utility.yul\":638:676   */\n              swap1\n              pop\n                /* \"#utility.yul\":580:682   */\n              swap2\n              swap1\n              pop\n              jump\t// out\n                /* \"#utility.yul\":688:868   */\n            tag_52:\n                /* \"#utility.yul\":736:813   */\n              0x4e487b7100000000000000000000000000000000000000000000000000000000\n                /* \"#utility.yul\":733:734   */\n              0x00\n                /* \"#utility.yul\":726:814   */\n              mstore\n                /* \"#utility.yul\":833:837   */\n              0x41\n                /* \"#utility.yul\":830:831   */\n              0x04\n                /* \"#utility.yul\":823:838   */\n              mstore\n                /* \"#utility.yul\":857:861   */\n              0x24\n                /* \"#utility.yul\":854:855   */\n              0x00\n                /* \"#utility.yul\":847:862   */\n              revert\n                /* \"#utility.yul\":874:1155   */\n            tag_53:\n                /* \"#utility.yul\":957:984   */\n              tag_79\n                /* \"#utility.yul\":979:983   */\n              dup3\n                /* \"#utility.yul\":957:984   */\n              tag_51\n              jump\t// in\n            tag_79:\n                /* \"#utility.yul\":949:955   */\n              dup2\n                /* \"#utility.yul\":945:985   */\n              add\n                /* \"#utility.yul\":1087:1093   */\n              dup2\n                /* \"#utility.yul\":1075:1085   */\n              dup2\n                /* \"#utility.yul\":1072:1094   */\n              lt\n                /* \"#utility.yul\":1051:1069   */\n              0xffffffffffffffff\n                /* \"#utility.yul\":1039:1049   */\n              dup3\n                /* \"#utility.yul\":1036:1070   */\n              gt\n                /* \"#utility.yul\":1033:1095   */\n              or\n                /* \"#utility.yul\":1030:1118   */\n              iszero\n              tag_80\n              jumpi\n                /* \"#utility.yul\":1098:1116   */\n              tag_81\n              tag_52\n              jump\t// in\n            tag_81:\n                /* \"#utility.yul\":1030:1118   */\n            tag_80:\n                /* \"#utility.yul\":1138:1148   */\n              dup1\n                /* \"#utility.yul\":1134:1136   */\n              0x40\n                /* \"#utility.yul\":1127:1149   */\n              mstore\n                /* \"#utility.yul\":917:1155   */\n              pop\n                /* \"#utility.yul\":874:1155   */\n              pop\n              pop\n              jump\t// out\n                /* \"#utility.yul\":1161:1290   */\n            tag_54:\n                /* \"#utility.yul\":1195:1201   */\n              0x00\n                /* \"#utility.yul\":1222:1242   */\n              tag_83\n              tag_46\n              jump\t// in\n            tag_83:\n                /* \"#utility.yul\":1212:1242   */\n              swap1\n              pop\n                /* \"#utility.yul\":1251:1284   */\n              tag_84\n                /* \"#utility.yul\":1279:1283   */\n              dup3\n                /* \"#utility.yul\":1271:1277   */\n              dup3\n                /* \"#utility.yul\":1251:1284   */\n              tag_53\n              jump\t// in\n            tag_84:\n                /* \"#utility.yul\":1161:1290   */\n              swap2\n              swap1\n              pop\n              jump\t// out\n                /* \"#utility.yul\":1296:1604   */\n            tag_55:\n                /* \"#utility.yul\":1358:1362   */\n              0x00\n                /* \"#utility.yul\":1448:1466   */\n              0xffffffffffffffff\n                /* \"#utility.yul\":1440:1446   */\n              dup3\n                /* \"#utility.yul\":1437:1467   */\n              gt\n                /* \"#utility.yul\":1434:1490   */\n              iszero\n              tag_86\n              jumpi\n                /* \"#utility.yul\":1470:1488   */\n              tag_87\n              tag_52\n              jump\t// in\n            tag_87:\n                /* \"#utility.yul\":1434:1490   */\n            tag_86:\n                /* \"#utility.yul\":1508:1537   */\n              tag_88\n                /* \"#utility.yul\":1530:1536   */\n              dup3\n                /* \"#utility.yul\":1508:1537   */\n              tag_51\n              jump\t// in\n            tag_88:\n                /* \"#utility.yul\":1500:1537   */\n              swap1\n              pop\n                /* \"#utility.yul\":1592:1596   */\n              0x20\n                /* \"#utility.yul\":1586:1590   */\n              dup2\n                /* \"#utility.yul\":1582:1597   */\n              add\n                /* \"#utility.yul\":1574:1597   */\n              swap1\n              pop\n                /* \"#utility.yul\":1296:1604   */\n              swap2\n              swap1\n              pop\n              jump\t// out\n                /* \"#utility.yul\":1610:1764   */\n            tag_56:\n                /* \"#utility.yul\":1694:1700   */\n              dup3\n                /* \"#utility.yul\":1689:1692   */\n              dup2\n                /* \"#utility.yul\":1684:1687   */\n              dup4\n                /* \"#utility.yul\":1671:1701   */\n              calldatacopy\n                /* \"#utility.yul\":1756:1757   */\n              0x00\n                /* \"#utility.yul\":1747:1753   */\n              dup4\n                /* \"#utility.yul\":1742:1745   */\n              dup4\n                /* \"#utility.yul\":1738:1754   */\n              add\n                /* \"#utility.yul\":1731:1758   */\n              mstore\n                /* \"#utility.yul\":1610:1764   */\n              pop\n              pop\n              pop\n              jump\t// out\n                /* \"#utility.yul\":1770:2182   */\n            tag_57:\n                /* \"#utility.yul\":1848:1853   */\n              0x00\n                /* \"#utility.yul\":1873:1939   */\n              tag_91\n                /* \"#utility.yul\":1889:1938   */\n              tag_92\n                /* \"#utility.yul\":1931:1937   */\n              dup5\n                /* \"#utility.yul\":1889:1938   */\n              tag_55\n              jump\t// in\n            tag_92:\n                /* \"#utility.yul\":1873:1939   */\n              tag_54\n              jump\t// in\n            tag_91:\n                /* \"#utility.yul\":1864:1939   */\n              swap1\n              pop\n                /* \"#utility.yul\":1962:1968   */\n              dup3\n                /* \"#utility.yul\":1955:1960   */\n              dup2\n                /* \"#utility.yul\":1948:1969   */\n              mstore\n                /* \"#utility.yul\":2000:2004   */\n              0x20\n                /* \"#utility.yul\":1993:1998   */\n              dup2\n                /* \"#utility.yul\":1989:2005   */\n              add\n                /* \"#utility.yul\":2038:2041   */\n              dup5\n                /* \"#utility.yul\":2029:2035   */\n              dup5\n                /* \"#utility.yul\":2024:2027   */\n              dup5\n                /* \"#utility.yul\":2020:2036   */\n              add\n                /* \"#utility.yul\":2017:2042   */\n              gt\n                /* \"#utility.yul\":2014:2126   */\n              iszero\n              tag_93\n              jumpi\n                /* \"#utility.yul\":2045:2124   */\n              tag_94\n              tag_50\n              jump\t// in\n            tag_94:\n                /* \"#utility.yul\":2014:2126   */\n            tag_93:\n                /* \"#utility.yul\":2135:2176   */\n              tag_95\n                /* \"#utility.yul\":2169:2175   */\n              dup5\n                /* \"#utility.yul\":2164:2167   */\n              dup3\n                /* \"#utility.yul\":2159:2162   */\n              dup6\n                /* \"#utility.yul\":2135:2176   */\n              tag_56\n              jump\t// in\n            tag_95:\n                /* \"#utility.yul\":1854:2182   */\n              pop\n                /* \"#utility.yul\":1770:2182   */\n              swap4\n              swap3\n              pop\n              pop\n              pop\n              jump\t// out\n                /* \"#utility.yul\":2202:2542   */\n            tag_58:\n                /* \"#utility.yul\":2258:2263   */\n              0x00\n                /* \"#utility.yul\":2307:2310   */\n              dup3\n                /* \"#utility.yul\":2300:2304   */\n              0x1f\n                /* \"#utility.yul\":2292:2298   */\n              dup4\n                /* \"#utility.yul\":2288:2305   */\n              add\n                /* \"#utility.yul\":2284:2311   */\n              slt\n                /* \"#utility.yul\":2274:2396   */\n              tag_97\n              jumpi\n                /* \"#utility.yul\":2315:2394   */\n              tag_98\n              tag_49\n              jump\t// in\n            tag_98:\n                /* \"#utility.yul\":2274:2396   */\n            tag_97:\n                /* \"#utility.yul\":2432:2438   */\n              dup2\n                /* \"#utility.yul\":2419:2439   */\n              calldataload\n                /* \"#utility.yul\":2457:2536   */\n              tag_99\n                /* \"#utility.yul\":2532:2535   */\n              dup5\n                /* \"#utility.yul\":2524:2530   */\n              dup3\n                /* \"#utility.yul\":2517:2521   */\n              0x20\n                /* \"#utility.yul\":2509:2515   */\n              dup7\n                /* \"#utility.yul\":2505:2522   */\n              add\n                /* \"#utility.yul\":2457:2536   */\n              tag_57\n              jump\t// in\n            tag_99:\n                /* \"#utility.yul\":2448:2536   */\n              swap2\n              pop\n                /* \"#utility.yul\":2264:2542   */\n              pop\n                /* \"#utility.yul\":2202:2542   */\n              swap3\n              swap2\n              pop\n              pop\n              jump\t// out\n                /* \"#utility.yul\":2548:2625   */\n            tag_59:\n                /* \"#utility.yul\":2585:2592   */\n              0x00\n                /* \"#utility.yul\":2614:2619   */\n              dup2\n                /* \"#utility.yul\":2603:2619   */\n              swap1\n              pop\n                /* \"#utility.yul\":2548:2625   */\n              swap2\n              swap1\n              pop\n              jump\t// out\n                /* \"#utility.yul\":2631:2753   */\n            tag_60:\n                /* \"#utility.yul\":2704:2728   */\n              tag_102\n                /* \"#utility.yul\":2722:2727   */\n              dup2\n                /* \"#utility.yul\":2704:2728   */\n              tag_59\n              jump\t// in\n            tag_102:\n                /* \"#utility.yul\":2697:2702   */\n              dup2\n                /* \"#utility.yul\":2694:2729   */\n              eq\n                /* \"#utility.yul\":2684:2747   */\n              tag_103\n              jumpi\n                /* \"#utility.yul\":2743:2744   */\n              0x00\n                /* \"#utility.yul\":2740:2741   */\n              dup1\n                /* \"#utility.yul\":2733:2745   */\n              revert\n                /* \"#utility.yul\":2684:2747   */\n            tag_103:\n                /* \"#utility.yul\":2631:2753   */\n              pop\n              jump\t// out\n                /* \"#utility.yul\":2759:2898   */\n            tag_61:\n                /* \"#utility.yul\":2805:2810   */\n              0x00\n                /* \"#utility.yul\":2843:2849   */\n              dup2\n                /* \"#utility.yul\":2830:2850   */\n              calldataload\n                /* \"#utility.yul\":2821:2850   */\n              swap1\n              pop\n                /* \"#utility.yul\":2859:2892   */\n              tag_105\n                /* \"#utility.yul\":2886:2891   */\n              dup2\n                /* \"#utility.yul\":2859:2892   */\n              tag_60\n              jump\t// in\n            tag_105:\n                /* \"#utility.yul\":2759:2898   */\n              swap3\n              swap2\n              pop\n              pop\n              jump\t// out\n                /* \"#utility.yul\":2904:4029   */\n            tag_9:\n                /* \"#utility.yul\":3010:3016   */\n              0x00\n                /* \"#utility.yul\":3018:3024   */\n              dup1\n                /* \"#utility.yul\":3026:3032   */\n              0x00\n                /* \"#utility.yul\":3034:3040   */\n              dup1\n                /* \"#utility.yul\":3083:3086   */\n              0x80\n                /* \"#utility.yul\":3071:3080   */\n              dup6\n                /* \"#utility.yul\":3062:3069   */\n              dup8\n                /* \"#utility.yul\":3058:3081   */\n              sub\n                /* \"#utility.yul\":3054:3087   */\n              slt\n                /* \"#utility.yul\":3051:3171   */\n              iszero\n              tag_107\n              jumpi\n                /* \"#utility.yul\":3090:3169   */\n              tag_108\n              tag_47\n              jump\t// in\n            tag_108:\n                /* \"#utility.yul\":3051:3171   */\n            tag_107:\n                /* \"#utility.yul\":3238:3239   */\n              0x00\n                /* \"#utility.yul\":3227:3236   */\n              dup6\n                /* \"#utility.yul\":3223:3240   */\n              add\n                /* \"#utility.yul\":3210:3241   */\n              calldataload\n                /* \"#utility.yul\":3268:3286   */\n              0xffffffffffffffff\n                /* \"#utility.yul\":3260:3266   */\n              dup2\n                /* \"#utility.yul\":3257:3287   */\n              gt\n                /* \"#utility.yul\":3254:3371   */\n              iszero\n              tag_109\n              jumpi\n                /* \"#utility.yul\":3290:3369   */\n              tag_110\n              tag_48\n              jump\t// in\n            tag_110:\n                /* \"#utility.yul\":3254:3371   */\n            tag_109:\n                /* \"#utility.yul\":3395:3458   */\n              tag_111\n                /* \"#utility.yul\":3450:3457   */\n              dup8\n                /* \"#utility.yul\":3441:3447   */\n              dup3\n                /* \"#utility.yul\":3430:3439   */\n              dup9\n                /* \"#utility.yul\":3426:3448   */\n              add\n                /* \"#utility.yul\":3395:3458   */\n              tag_58\n              jump\t// in\n            tag_111:\n                /* \"#utility.yul\":3385:3458   */\n              swap5\n              pop\n                /* \"#utility.yul\":3181:3468   */\n              pop\n                /* \"#utility.yul\":3535:3537   */\n              0x20\n                /* \"#utility.yul\":3524:3533   */\n              dup6\n                /* \"#utility.yul\":3520:3538   */\n              add\n                /* \"#utility.yul\":3507:3539   */\n              calldataload\n                /* \"#utility.yul\":3566:3584   */\n              0xffffffffffffffff\n                /* \"#utility.yul\":3558:3564   */\n              dup2\n                /* \"#utility.yul\":3555:3585   */\n              gt\n                /* \"#utility.yul\":3552:3669   */\n              iszero\n              tag_112\n              jumpi\n                /* \"#utility.yul\":3588:3667   */\n              tag_113\n              tag_48\n              jump\t// in\n            tag_113:\n                /* \"#utility.yul\":3552:3669   */\n            tag_112:\n                /* \"#utility.yul\":3693:3756   */\n              tag_114\n                /* \"#utility.yul\":3748:3755   */\n              dup8\n                /* \"#utility.yul\":3739:3745   */\n              dup3\n                /* \"#utility.yul\":3728:3737   */\n              dup9\n                /* \"#utility.yul\":3724:3746   */\n              add\n                /* \"#utility.yul\":3693:3756   */\n              tag_58\n              jump\t// in\n            tag_114:\n                /* \"#utility.yul\":3683:3756   */\n              swap4\n              pop\n                /* \"#utility.yul\":3478:3766   */\n              pop\n                /* \"#utility.yul\":3805:3807   */\n              0x40\n                /* \"#utility.yul\":3831:3884   */\n              tag_115\n                /* \"#utility.yul\":3876:3883   */\n              dup8\n                /* \"#utility.yul\":3867:3873   */\n              dup3\n                /* \"#utility.yul\":3856:3865   */\n              dup9\n                /* \"#utility.yul\":3852:3874   */\n              add\n                /* \"#utility.yul\":3831:3884   */\n              tag_61\n              jump\t// in\n            tag_115:\n                /* \"#utility.yul\":3821:3884   */\n              swap3\n              pop\n                /* \"#utility.yul\":3776:3894   */\n              pop\n                /* \"#utility.yul\":3933:3935   */\n              0x60\n                /* \"#utility.yul\":3959:4012   */\n              tag_116\n                /* \"#utility.yul\":4004:4011   */\n              dup8\n                /* \"#utility.yul\":3995:4001   */\n              dup3\n                /* \"#utility.yul\":3984:3993   */\n              dup9\n                /* \"#utility.yul\":3980:4002   */\n              add\n                /* \"#utility.yul\":3959:4012   */\n              tag_61\n              jump\t// in\n            tag_116:\n                /* \"#utility.yul\":3949:4012   */\n              swap2\n              pop\n                /* \"#utility.yul\":3904:4022   */\n              pop\n                /* \"#utility.yul\":2904:4029   */\n              swap3\n              swap6\n              swap2\n              swap5\n              pop\n              swap3\n              pop\n              jump\t// out\n                /* \"#utility.yul\":4035:4161   */\n            tag_62:\n                /* \"#utility.yul\":4072:4079   */\n              0x00\n                /* \"#utility.yul\":4112:4154   */\n              0xffffffffffffffffffffffffffffffffffffffff\n                /* \"#utility.yul\":4105:4110   */\n              dup3\n                /* \"#utility.yul\":4101:4155   */\n              and\n                /* \"#utility.yul\":4090:4155   */\n              swap1\n              pop\n                /* \"#utility.yul\":4035:4161   */\n              swap2\n              swap1\n              pop\n              jump\t// out\n                /* \"#utility.yul\":4167:4271   */\n            tag_63:\n                /* \"#utility.yul\":4212:4219   */\n              0x00\n                /* \"#utility.yul\":4241:4265   */\n              tag_119\n                /* \"#utility.yul\":4259:4264   */\n              dup3\n                /* \"#utility.yul\":4241:4265   */\n              tag_62\n              jump\t// in\n            tag_119:\n                /* \"#utility.yul\":4230:4265   */\n              swap1\n              pop\n                /* \"#utility.yul\":4167:4271   */\n              swap2\n              swap1\n              pop\n              jump\t// out\n                /* \"#utility.yul\":4277:4419   */\n            tag_64:\n                /* \"#utility.yul\":4380:4412   */\n              tag_121\n                /* \"#utility.yul\":4406:4411   */\n              dup2\n                /* \"#utility.yul\":4380:4412   */\n              tag_63\n              jump\t// in\n            tag_121:\n                /* \"#utility.yul\":4375:4378   */\n              dup3\n                /* \"#utility.yul\":4368:4413   */\n              mstore\n                /* \"#utility.yul\":4277:4419   */\n              pop\n              pop\n              jump\t// out\n                /* \"#utility.yul\":4425:4679   */\n            tag_14:\n                /* \"#utility.yul\":4534:4538   */\n              0x00\n                /* \"#utility.yul\":4572:4574   */\n              0x20\n                /* \"#utility.yul\":4561:4570   */\n              dup3\n                /* \"#utility.yul\":4557:4575   */\n              add\n                /* \"#utility.yul\":4549:4575   */\n              swap1\n              pop\n                /* \"#utility.yul\":4585:4672   */\n              tag_123\n                /* \"#utility.yul\":4669:4670   */\n              0x00\n                /* \"#utility.yul\":4658:4667   */\n              dup4\n                /* \"#utility.yul\":4654:4671   */\n              add\n                /* \"#utility.yul\":4645:4651   */\n              dup5\n                /* \"#utility.yul\":4585:4672   */\n              tag_64\n              jump\t// in\n            tag_123:\n                /* \"#utility.yul\":4425:4679   */\n              swap3\n              swap2\n              pop\n              pop\n              jump\t// out\n                /* \"#utility.yul\":4685:5194   */\n            tag_17:\n                /* \"#utility.yul\":4754:4760   */\n              0x00\n                /* \"#utility.yul\":4803:4805   */\n              0x20\n                /* \"#utility.yul\":4791:4800   */\n              dup3\n                /* \"#utility.yul\":4782:4789   */\n              dup5\n                /* \"#utility.yul\":4778:4801   */\n              sub\n                /* \"#utility.yul\":4774:4806   */\n              slt\n                /* \"#utility.yul\":4771:4890   */\n              iszero\n              tag_125\n              jumpi\n                /* \"#utility.yul\":4809:4888   */\n              tag_126\n              tag_47\n              jump\t// in\n            tag_126:\n                /* \"#utility.yul\":4771:4890   */\n            tag_125:\n                /* \"#utility.yul\":4957:4958   */\n              0x00\n                /* \"#utility.yul\":4946:4955   */\n              dup3\n                /* \"#utility.yul\":4942:4959   */\n              add\n                /* \"#utility.yul\":4929:4960   */\n              calldataload\n                /* \"#utility.yul\":4987:5005   */\n              0xffffffffffffffff\n                /* \"#utility.yul\":4979:4985   */\n              dup2\n                /* \"#utility.yul\":4976:5006   */\n              gt\n                /* \"#utility.yul\":4973:5090   */\n              iszero\n              tag_127\n              jumpi\n                /* \"#utility.yul\":5009:5088   */\n              tag_128\n              tag_48\n              jump\t// in\n            tag_128:\n                /* \"#utility.yul\":4973:5090   */\n            tag_127:\n                /* \"#utility.yul\":5114:5177   */\n              tag_129\n                /* \"#utility.yul\":5169:5176   */\n              dup5\n                /* \"#utility.yul\":5160:5166   */\n              dup3\n                /* \"#utility.yul\":5149:5158   */\n              dup6\n                /* \"#utility.yul\":5145:5167   */\n              add\n                /* \"#utility.yul\":5114:5177   */\n              tag_58\n              jump\t// in\n            tag_129:\n                /* \"#utility.yul\":5104:5177   */\n              swap2\n              pop\n                /* \"#utility.yul\":4900:5187   */\n              pop\n                /* \"#utility.yul\":4685:5194   */\n              swap3\n              swap2\n              pop\n              pop\n              jump\t// out\n                /* \"#utility.yul\":5200:5299   */\n            tag_65:\n                /* \"#utility.yul\":5252:5258   */\n              0x00\n                /* \"#utility.yul\":5286:5291   */\n              dup2\n                /* \"#utility.yul\":5280:5292   */\n              mload\n                /* \"#utility.yul\":5270:5292   */\n              swap1\n              pop\n                /* \"#utility.yul\":5200:5299   */\n              swap2\n              swap1\n              pop\n              jump\t// out\n                /* \"#utility.yul\":5305:5474   */\n            tag_66:\n                /* \"#utility.yul\":5389:5400   */\n              0x00\n                /* \"#utility.yul\":5423:5429   */\n              dup3\n                /* \"#utility.yul\":5418:5421   */\n              dup3\n                /* \"#utility.yul\":5411:5430   */\n              mstore\n                /* \"#utility.yul\":5463:5467   */\n              0x20\n                /* \"#utility.yul\":5458:5461   */\n              dup3\n                /* \"#utility.yul\":5454:5468   */\n              add\n                /* \"#utility.yul\":5439:5468   */\n              swap1\n              pop\n                /* \"#utility.yul\":5305:5474   */\n              swap3\n              swap2\n              pop\n              pop\n              jump\t// out\n                /* \"#utility.yul\":5480:5787   */\n            tag_67:\n                /* \"#utility.yul\":5548:5549   */\n              0x00\n                /* \"#utility.yul\":5558:5671   */\n            tag_133:\n                /* \"#utility.yul\":5572:5578   */\n              dup4\n                /* \"#utility.yul\":5569:5570   */\n              dup2\n                /* \"#utility.yul\":5566:5579   */\n              lt\n                /* \"#utility.yul\":5558:5671   */\n              iszero\n              tag_135\n              jumpi\n                /* \"#utility.yul\":5657:5658   */\n              dup1\n                /* \"#utility.yul\":5652:5655   */\n              dup3\n                /* \"#utility.yul\":5648:5659   */\n              add\n                /* \"#utility.yul\":5642:5660   */\n              mload\n                /* \"#utility.yul\":5638:5639   */\n              dup2\n                /* \"#utility.yul\":5633:5636   */\n              dup5\n                /* \"#utility.yul\":5629:5640   */\n              add\n                /* \"#utility.yul\":5622:5661   */\n              mstore\n                /* \"#utility.yul\":5594:5596   */\n              0x20\n                /* \"#utility.yul\":5591:5592   */\n              dup2\n                /* \"#utility.yul\":5587:5597   */\n              add\n                /* \"#utility.yul\":5582:5597   */\n              swap1\n              pop\n                /* \"#utility.yul\":5558:5671   */\n              jump(tag_133)\n            tag_135:\n                /* \"#utility.yul\":5689:5695   */\n              dup4\n                /* \"#utility.yul\":5686:5687   */\n              dup2\n                /* \"#utility.yul\":5683:5696   */\n              gt\n                /* \"#utility.yul\":5680:5781   */\n              iszero\n              tag_136\n              jumpi\n                /* \"#utility.yul\":5769:5770   */\n              0x00\n                /* \"#utility.yul\":5760:5766   */\n              dup5\n                /* \"#utility.yul\":5755:5758   */\n              dup5\n                /* \"#utility.yul\":5751:5767   */\n              add\n                /* \"#utility.yul\":5744:5771   */\n              mstore\n                /* \"#utility.yul\":5680:5781   */\n            tag_136:\n                /* \"#utility.yul\":5529:5787   */\n              pop\n                /* \"#utility.yul\":5480:5787   */\n              pop\n              pop\n              pop\n              jump\t// out\n                /* \"#utility.yul\":5793:6157   */\n            tag_68:\n                /* \"#utility.yul\":5881:5884   */\n              0x00\n                /* \"#utility.yul\":5909:5948   */\n              tag_138\n                /* \"#utility.yul\":5942:5947   */\n              dup3\n                /* \"#utility.yul\":5909:5948   */\n              tag_65\n              jump\t// in\n            tag_138:\n                /* \"#utility.yul\":5964:6035   */\n              tag_139\n                /* \"#utility.yul\":6028:6034   */\n              dup2\n                /* \"#utility.yul\":6023:6026   */\n              dup6\n                /* \"#utility.yul\":5964:6035   */\n              tag_66\n              jump\t// in\n            tag_139:\n                /* \"#utility.yul\":5957:6035   */\n              swap4\n              pop\n                /* \"#utility.yul\":6044:6096   */\n              tag_140\n                /* \"#utility.yul\":6089:6095   */\n              dup2\n                /* \"#utility.yul\":6084:6087   */\n              dup6\n                /* \"#utility.yul\":6077:6081   */\n              0x20\n                /* \"#utility.yul\":6070:6075   */\n              dup7\n                /* \"#utility.yul\":6066:6082   */\n              add\n                /* \"#utility.yul\":6044:6096   */\n              tag_67\n              jump\t// in\n            tag_140:\n                /* \"#utility.yul\":6121:6150   */\n              tag_141\n                /* \"#utility.yul\":6143:6149   */\n              dup2\n                /* \"#utility.yul\":6121:6150   */\n              tag_51\n              jump\t// in\n            tag_141:\n                /* \"#utility.yul\":6116:6119   */\n              dup5\n                /* \"#utility.yul\":6112:6151   */\n              add\n                /* \"#utility.yul\":6105:6151   */\n              swap2\n              pop\n                /* \"#utility.yul\":5885:6157   */\n              pop\n                /* \"#utility.yul\":5793:6157   */\n              swap3\n              swap2\n              pop\n              pop\n              jump\t// out\n                /* \"#utility.yul\":6163:6476   */\n            tag_22:\n                /* \"#utility.yul\":6276:6280   */\n              0x00\n                /* \"#utility.yul\":6314:6316   */\n              0x20\n                /* \"#utility.yul\":6303:6312   */\n              dup3\n                /* \"#utility.yul\":6299:6317   */\n              add\n                /* \"#utility.yul\":6291:6317   */\n              swap1\n              pop\n                /* \"#utility.yul\":6363:6372   */\n              dup2\n                /* \"#utility.yul\":6357:6361   */\n              dup2\n                /* \"#utility.yul\":6353:6373   */\n              sub\n                /* \"#utility.yul\":6349:6350   */\n              0x00\n                /* \"#utility.yul\":6338:6347   */\n              dup4\n                /* \"#utility.yul\":6334:6351   */\n              add\n                /* \"#utility.yul\":6327:6374   */\n              mstore\n                /* \"#utility.yul\":6391:6469   */\n              tag_143\n                /* \"#utility.yul\":6464:6468   */\n              dup2\n                /* \"#utility.yul\":6455:6461   */\n              dup5\n                /* \"#utility.yul\":6391:6469   */\n              tag_68\n              jump\t// in\n            tag_143:\n                /* \"#utility.yul\":6383:6469   */\n              swap1\n              pop\n                /* \"#utility.yul\":6163:6476   */\n              swap3\n              swap2\n              pop\n              pop\n              jump\t// out\n                /* \"#utility.yul\":6482:6662   */\n            tag_69:\n                /* \"#utility.yul\":6530:6607   */\n              0x4e487b7100000000000000000000000000000000000000000000000000000000\n                /* \"#utility.yul\":6527:6528   */\n              0x00\n                /* \"#utility.yul\":6520:6608   */\n              mstore\n                /* \"#utility.yul\":6627:6631   */\n              0x22\n                /* \"#utility.yul\":6624:6625   */\n              0x04\n                /* \"#utility.yul\":6617:6632   */\n              mstore\n                /* \"#utility.yul\":6651:6655   */\n              0x24\n                /* \"#utility.yul\":6648:6649   */\n              0x00\n                /* \"#utility.yul\":6641:6656   */\n              revert\n                /* \"#utility.yul\":6668:6988   */\n            tag_31:\n                /* \"#utility.yul\":6712:6718   */\n              0x00\n                /* \"#utility.yul\":6749:6750   */\n              0x02\n                /* \"#utility.yul\":6743:6747   */\n              dup3\n                /* \"#utility.yul\":6739:6751   */\n              div\n                /* \"#utility.yul\":6729:6751   */\n              swap1\n              pop\n                /* \"#utility.yul\":6796:6797   */\n              0x01\n                /* \"#utility.yul\":6790:6794   */\n              dup3\n                /* \"#utility.yul\":6786:6798   */\n              and\n                /* \"#utility.yul\":6817:6835   */\n              dup1\n                /* \"#utility.yul\":6807:6888   */\n              tag_146\n              jumpi\n                /* \"#utility.yul\":6873:6877   */\n              0x7f\n                /* \"#utility.yul\":6865:6871   */\n              dup3\n                /* \"#utility.yul\":6861:6878   */\n              and\n                /* \"#utility.yul\":6851:6878   */\n              swap2\n              pop\n                /* \"#utility.yul\":6807:6888   */\n            tag_146:\n                /* \"#utility.yul\":6935:6937   */\n              0x20\n                /* \"#utility.yul\":6927:6933   */\n              dup3\n                /* \"#utility.yul\":6924:6938   */\n              lt\n                /* \"#utility.yul\":6904:6922   */\n              dup2\n                /* \"#utility.yul\":6901:6939   */\n              sub\n                /* \"#utility.yul\":6898:6982   */\n              tag_147\n              jumpi\n                /* \"#utility.yul\":6954:6972   */\n              tag_148\n              tag_69\n              jump\t// in\n            tag_148:\n                /* \"#utility.yul\":6898:6982   */\n            tag_147:\n                /* \"#utility.yul\":6719:6988   */\n              pop\n                /* \"#utility.yul\":6668:6988   */\n              swap2\n              swap1\n              pop\n              jump\t// out\n\n            auxdata: 0xa26469706673582212202411cebd1a29f46fefb128148fbc33af469db0d07b9d1e8f787405e433887b2e64736f6c634300080d0033\n        }\n    }\n\n    auxdata: 0xa26469706673582212209730da7ce79102bc52e67541b36a4a45c1ca9b90cb043dc2dbfc18084360b42264736f6c634300080d0033\n}\n",
				"bytecode": {
					"linkReferences": {},
					"object": "608060405234801561001057600080fd5b506118b9806100206000396000f3fe60806040523480156200001157600080fd5b5060043610620000465760003560e01c80634bf28d9e146200004b57806385b6e28e1462000081578063a24a2d1614620000a3575b600080fd5b620000696004803603810190620000639190620004cd565b620000c3565b6040516200007891906200056a565b60405180910390f35b6200008b62000263565b6040516200009a919062000655565b60405180910390f35b620000c16004803603810190620000bb919062000816565b620002f3565b005b600080600090505b60008054905081101562000220578273ffffffffffffffffffffffffffffffffffffffff1660008281548110620001075762000106620008c6565b5b9060005260206000200160009054906101000a900473ffffffffffffffffffffffffffffffffffffffff1673ffffffffffffffffffffffffffffffffffffffff1663a541a2a26040518163ffffffff1660e01b8152600401602060405180830381865afa1580156200017d573d6000803e3d6000fd5b505050506040513d601f19601f82011682018060405250810190620001a391906200093a565b73ffffffffffffffffffffffffffffffffffffffff16036200020a5760008181548110620001d657620001d5620008c6565b5b9060005260206000200160009054906101000a900473ffffffffffffffffffffffffffffffffffffffff169150506200025e565b808062000217906200099b565b915050620000cb565b506040517f08c379a0000000000000000000000000000000000000000000000000000000008152600401620002559062000a49565b60405180910390fd5b919050565b60606000805480602002602001604051908101604052809291908181526020018280548015620002e957602002820191906000526020600020905b8160009054906101000a900473ffffffffffffffffffffffffffffffffffffffff1673ffffffffffffffffffffffffffffffffffffffff16815260200190600101908083116200029e575b5050505050905090565b6000620003216200031162015180846200041690919063ffffffff16565b426200042e90919063ffffffff16565b905060003386868685604051620003389062000446565b6200034895949392919062000b0f565b604051809103906000f08015801562000365573d6000803e3d6000fd5b5090506000819080600181540180825580915050600190039060005260206000200160009091909190916101000a81548173ffffffffffffffffffffffffffffffffffffffff021916908373ffffffffffffffffffffffffffffffffffffffff1602179055507f6218c120ad6d836da0bfe4d4c44c8375356514fce6ae39ecdcd483fad6056e66813388888689604051620004069695949392919062000b8b565b60405180910390a1505050505050565b6000818362000426919062000c06565b905092915050565b600081836200043e919062000c67565b905092915050565b610bbf8062000cc583390190565b6000604051905090565b600080fd5b600080fd5b600073ffffffffffffffffffffffffffffffffffffffff82169050919050565b6000620004958262000468565b9050919050565b620004a78162000488565b8114620004b357600080fd5b50565b600081359050620004c7816200049c565b92915050565b600060208284031215620004e657620004e56200045e565b5b6000620004f684828501620004b6565b91505092915050565b6000819050919050565b60006200052a620005246200051e8462000468565b620004ff565b62000468565b9050919050565b60006200053e8262000509565b9050919050565b6000620005528262000531565b9050919050565b620005648162000545565b82525050565b600060208201905062000581600083018462000559565b92915050565b600081519050919050565b600082825260208201905092915050565b6000819050602082019050919050565b620005be8162000545565b82525050565b6000620005d28383620005b3565b60208301905092915050565b6000602082019050919050565b6000620005f88262000587565b62000604818562000592565b93506200061183620005a3565b8060005b83811015620006485781516200062c8882620005c4565b97506200063983620005de565b92505060018101905062000615565b5085935050505092915050565b60006020820190508181036000830152620006718184620005eb565b905092915050565b600080fd5b600080fd5b6000601f19601f8301169050919050565b7f4e487b7100000000000000000000000000000000000000000000000000000000600052604160045260246000fd5b620006ce8262000683565b810181811067ffffffffffffffff82111715620006f057620006ef62000694565b5b80604052505050565b60006200070562000454565b9050620007138282620006c3565b919050565b600067ffffffffffffffff82111562000736576200073562000694565b5b620007418262000683565b9050602081019050919050565b82818337600083830152505050565b6000620007746200076e8462000718565b620006f9565b9050828152602081018484840111156200079357620007926200067e565b5b620007a08482856200074e565b509392505050565b600082601f830112620007c057620007bf62000679565b5b8135620007d28482602086016200075d565b91505092915050565b6000819050919050565b620007f081620007db565b8114620007fc57600080fd5b50565b6000813590506200081081620007e5565b92915050565b600080600080608085870312156200083357620008326200045e565b5b600085013567ffffffffffffffff81111562000854576200085362000463565b5b6200086287828801620007a8565b945050602085013567ffffffffffffffff81111562000886576200088562000463565b5b6200089487828801620007a8565b9350506040620008a787828801620007ff565b9250506060620008ba87828801620007ff565b91505092959194509250565b7f4e487b7100000000000000000000000000000000000000000000000000000000600052603260045260246000fd5b6000620009028262000468565b9050919050565b6200091481620008f5565b81146200092057600080fd5b50565b600081519050620009348162000909565b92915050565b6000602082840312156200095357620009526200045e565b5b6000620009638482850162000923565b91505092915050565b7f4e487b7100000000000000000000000000000000000000000000000000000000600052601160045260246000fd5b6000620009a882620007db565b91507fffffffffffffffffffffffffffffffffffffffffffffffffffffffffffffffff8203620009dd57620009dc6200096c565b5b600182019050919050565b600082825260208201905092915050565b7f50726f6a656374206e6f7420666f756e64202121000000000000000000000000600082015250565b600062000a31601483620009e8565b915062000a3e82620009f9565b602082019050919050565b6000602082019050818103600083015262000a648162000a22565b9050919050565b62000a7681620008f5565b82525050565b600081519050919050565b60005b8381101562000aa757808201518184015260208101905062000a8a565b8381111562000ab7576000848401525b50505050565b600062000aca8262000a7c565b62000ad68185620009e8565b935062000ae881856020860162000a87565b62000af38162000683565b840191505092915050565b62000b0981620007db565b82525050565b600060a08201905062000b26600083018862000a6b565b818103602083015262000b3a818762000abd565b9050818103604083015262000b50818662000abd565b905062000b61606083018562000afe565b62000b70608083018462000afe565b9695505050505050565b62000b858162000488565b82525050565b600060c08201905062000ba2600083018962000b7a565b62000bb1602083018862000b7a565b818103604083015262000bc5818762000abd565b9050818103606083015262000bdb818662000abd565b905062000bec608083018562000afe565b62000bfb60a083018462000afe565b979650505050505050565b600062000c1382620007db565b915062000c2083620007db565b9250817fffffffffffffffffffffffffffffffffffffffffffffffffffffffffffffffff048311821515161562000c5c5762000c5b6200096c565b5b828202905092915050565b600062000c7482620007db565b915062000c8183620007db565b9250827fffffffffffffffffffffffffffffffffffffffffffffffffffffffffffffffff0382111562000cb95762000cb86200096c565b5b82820190509291505056fe60806040523480156200001157600080fd5b5060405162000bbf38038062000bbf8339818101604052810190620000379190620003b7565b846000806101000a81548173ffffffffffffffffffffffffffffffffffffffff021916908373ffffffffffffffffffffffffffffffffffffffff16021790555083600190805190602001906200008f929190620000ca565b508260029080519060200190620000a8929190620000ca565b50816003819055508060068190555060006004819055505050505050620004e1565b828054620000d890620004ac565b90600052602060002090601f016020900481019282620000fc576000855562000148565b82601f106200011757805160ff191683800117855562000148565b8280016001018555821562000148579182015b82811115620001475782518255916020019190600101906200012a565b5b5090506200015791906200015b565b5090565b5b80821115620001765760008160009055506001016200015c565b5090565b6000604051905090565b600080fd5b600080fd5b600073ffffffffffffffffffffffffffffffffffffffff82169050919050565b6000620001bb826200018e565b9050919050565b620001cd81620001ae565b8114620001d957600080fd5b50565b600081519050620001ed81620001c2565b92915050565b600080fd5b600080fd5b6000601f19601f8301169050919050565b7f4e487b7100000000000000000000000000000000000000000000000000000000600052604160045260246000fd5b6200024882620001fd565b810181811067ffffffffffffffff821117156200026a57620002696200020e565b5b80604052505050565b60006200027f6200017a565b90506200028d82826200023d565b919050565b600067ffffffffffffffff821115620002b057620002af6200020e565b5b620002bb82620001fd565b9050602081019050919050565b60005b83811015620002e8578082015181840152602081019050620002cb565b83811115620002f8576000848401525b50505050565b6000620003156200030f8462000292565b62000273565b905082815260208101848484011115620003345762000333620001f8565b5b62000341848285620002c8565b509392505050565b600082601f830112620003615762000360620001f3565b5b815162000373848260208601620002fe565b91505092915050565b6000819050919050565b62000391816200037c565b81146200039d57600080fd5b50565b600081519050620003b18162000386565b92915050565b600080600080600060a08688031215620003d657620003d562000184565b5b6000620003e688828901620001dc565b955050602086015167ffffffffffffffff8111156200040a576200040962000189565b5b620004188882890162000349565b945050604086015167ffffffffffffffff8111156200043c576200043b62000189565b5b6200044a8882890162000349565b93505060606200045d88828901620003a0565b92505060806200047088828901620003a0565b9150509295509295909350565b7f4e487b7100000000000000000000000000000000000000000000000000000000600052602260045260246000fd5b60006002820490506001821680620004c557607f821691505b602082108103620004db57620004da6200047d565b5b50919050565b6106ce80620004f16000396000f3fe608060405234801561001057600080fd5b506004361061004c5760003560e01c8063400ffb3314610051578063a541a2a21461006d578063a8b93c8d1461008b578063f020cd19146100a7575b600080fd5b61006b6004803603810190610066919061044a565b6100c5565b005b610075610147565b604051610082919061052a565b60405180910390f35b6100a560048036038101906100a09190610545565b61016b565b005b6100af610185565b6040516100bc9190610616565b60405180910390f35b336000806101000a81548173ffffffffffffffffffffffffffffffffffffffff021916908373ffffffffffffffffffffffffffffffffffffffff160217905550836001908051906020019061011b929190610217565b508260029080519060200190610132929190610217565b50816003819055508060068190555050505050565b60008054906101000a900473ffffffffffffffffffffffffffffffffffffffff1681565b8060019080519060200190610181929190610217565b5050565b60606001805461019490610667565b80601f01602080910402602001604051908101604052809291908181526020018280546101c090610667565b801561020d5780601f106101e25761010080835404028352916020019161020d565b820191906000526020600020905b8154815290600101906020018083116101f057829003601f168201915b5050505050905090565b82805461022390610667565b90600052602060002090601f016020900481019282610245576000855561028c565b82601f1061025e57805160ff191683800117855561028c565b8280016001018555821561028c579182015b8281111561028b578251825591602001919060010190610270565b5b509050610299919061029d565b5090565b5b808211156102b657600081600090555060010161029e565b5090565b6000604051905090565b600080fd5b600080fd5b600080fd5b600080fd5b6000601f19601f8301169050919050565b7f4e487b7100000000000000000000000000000000000000000000000000000000600052604160045260246000fd5b610321826102d8565b810181811067ffffffffffffffff821117156103405761033f6102e9565b5b80604052505050565b60006103536102ba565b905061035f8282610318565b919050565b600067ffffffffffffffff82111561037f5761037e6102e9565b5b610388826102d8565b9050602081019050919050565b82818337600083830152505050565b60006103b76103b284610364565b610349565b9050828152602081018484840111156103d3576103d26102d3565b5b6103de848285610395565b509392505050565b600082601f8301126103fb576103fa6102ce565b5b813561040b8482602086016103a4565b91505092915050565b6000819050919050565b61042781610414565b811461043257600080fd5b50565b6000813590506104448161041e565b92915050565b60008060008060808587031215610464576104636102c4565b5b600085013567ffffffffffffffff811115610482576104816102c9565b5b61048e878288016103e6565b945050602085013567ffffffffffffffff8111156104af576104ae6102c9565b5b6104bb878288016103e6565b93505060406104cc87828801610435565b92505060606104dd87828801610435565b91505092959194509250565b600073ffffffffffffffffffffffffffffffffffffffff82169050919050565b6000610514826104e9565b9050919050565b61052481610509565b82525050565b600060208201905061053f600083018461051b565b92915050565b60006020828403121561055b5761055a6102c4565b5b600082013567ffffffffffffffff811115610579576105786102c9565b5b610585848285016103e6565b91505092915050565b600081519050919050565b600082825260208201905092915050565b60005b838110156105c85780820151818401526020810190506105ad565b838111156105d7576000848401525b50505050565b60006105e88261058e565b6105f28185610599565b93506106028185602086016105aa565b61060b816102d8565b840191505092915050565b6000602082019050818103600083015261063081846105dd565b905092915050565b7f4e487b7100000000000000000000000000000000000000000000000000000000600052602260045260246000fd5b6000600282049050600182168061067f57607f821691505b60208210810361069257610691610638565b5b5091905056fea26469706673582212202411cebd1a29f46fefb128148fbc33af469db0d07b9d1e8f787405e433887b2e64736f6c634300080d0033a26469706673582212209730da7ce79102bc52e67541b36a4a45c1ca9b90cb043dc2dbfc18084360b42264736f6c634300080d0033",
					"opcodes": "PUSH1 0x80 PUSH1 0x40 MSTORE CALLVALUE DUP1 ISZERO PUSH2 0x10 JUMPI PUSH1 0x0 DUP1 REVERT JUMPDEST POP PUSH2 0x18B9 DUP1 PUSH2 0x20 PUSH1 0x0 CODECOPY PUSH1 0x0 RETURN INVALID PUSH1 0x80 PUSH1 0x40 MSTORE CALLVALUE DUP1 ISZERO PUSH3 0x11 JUMPI PUSH1 0x0 DUP1 REVERT JUMPDEST POP PUSH1 0x4 CALLDATASIZE LT PUSH3 0x46 JUMPI PUSH1 0x0 CALLDATALOAD PUSH1 0xE0 SHR DUP1 PUSH4 0x4BF28D9E EQ PUSH3 0x4B JUMPI DUP1 PUSH4 0x85B6E28E EQ PUSH3 0x81 JUMPI DUP1 PUSH4 0xA24A2D16 EQ PUSH3 0xA3 JUMPI JUMPDEST PUSH1 0x0 DUP1 REVERT JUMPDEST PUSH3 0x69 PUSH1 0x4 DUP1 CALLDATASIZE SUB DUP2 ADD SWAP1 PUSH3 0x63 SWAP2 SWAP1 PUSH3 0x4CD JUMP JUMPDEST PUSH3 0xC3 JUMP JUMPDEST PUSH1 0x40 MLOAD PUSH3 0x78 SWAP2 SWAP1 PUSH3 0x56A JUMP JUMPDEST PUSH1 0x40 MLOAD DUP1 SWAP2 SUB SWAP1 RETURN JUMPDEST PUSH3 0x8B PUSH3 0x263 JUMP JUMPDEST PUSH1 0x40 MLOAD PUSH3 0x9A SWAP2 SWAP1 PUSH3 0x655 JUMP JUMPDEST PUSH1 0x40 MLOAD DUP1 SWAP2 SUB SWAP1 RETURN JUMPDEST PUSH3 0xC1 PUSH1 0x4 DUP1 CALLDATASIZE SUB DUP2 ADD SWAP1 PUSH3 0xBB SWAP2 SWAP1 PUSH3 0x816 JUMP JUMPDEST PUSH3 0x2F3 JUMP JUMPDEST STOP JUMPDEST PUSH1 0x0 DUP1 PUSH1 0x0 SWAP1 POP JUMPDEST PUSH1 0x0 DUP1 SLOAD SWAP1 POP DUP2 LT ISZERO PUSH3 0x220 JUMPI DUP3 PUSH20 0xFFFFFFFFFFFFFFFFFFFFFFFFFFFFFFFFFFFFFFFF AND PUSH1 0x0 DUP3 DUP2 SLOAD DUP2 LT PUSH3 0x107 JUMPI PUSH3 0x106 PUSH3 0x8C6 JUMP JUMPDEST JUMPDEST SWAP1 PUSH1 0x0 MSTORE PUSH1 0x20 PUSH1 0x0 KECCAK256 ADD PUSH1 0x0 SWAP1 SLOAD SWAP1 PUSH2 0x100 EXP SWAP1 DIV PUSH20 0xFFFFFFFFFFFFFFFFFFFFFFFFFFFFFFFFFFFFFFFF AND PUSH20 0xFFFFFFFFFFFFFFFFFFFFFFFFFFFFFFFFFFFFFFFF AND PUSH4 0xA541A2A2 PUSH1 0x40 MLOAD DUP2 PUSH4 0xFFFFFFFF AND PUSH1 0xE0 SHL DUP2 MSTORE PUSH1 0x4 ADD PUSH1 0x20 PUSH1 0x40 MLOAD DUP1 DUP4 SUB DUP2 DUP7 GAS STATICCALL ISZERO DUP1 ISZERO PUSH3 0x17D JUMPI RETURNDATASIZE PUSH1 0x0 DUP1 RETURNDATACOPY RETURNDATASIZE PUSH1 0x0 REVERT JUMPDEST POP POP POP POP PUSH1 0x40 MLOAD RETURNDATASIZE PUSH1 0x1F NOT PUSH1 0x1F DUP3 ADD AND DUP3 ADD DUP1 PUSH1 0x40 MSTORE POP DUP2 ADD SWAP1 PUSH3 0x1A3 SWAP2 SWAP1 PUSH3 0x93A JUMP JUMPDEST PUSH20 0xFFFFFFFFFFFFFFFFFFFFFFFFFFFFFFFFFFFFFFFF AND SUB PUSH3 0x20A JUMPI PUSH1 0x0 DUP2 DUP2 SLOAD DUP2 LT PUSH3 0x1D6 JUMPI PUSH3 0x1D5 PUSH3 0x8C6 JUMP JUMPDEST JUMPDEST SWAP1 PUSH1 0x0 MSTORE PUSH1 0x20 PUSH1 0x0 KECCAK256 ADD PUSH1 0x0 SWAP1 SLOAD SWAP1 PUSH2 0x100 EXP SWAP1 DIV PUSH20 0xFFFFFFFFFFFFFFFFFFFFFFFFFFFFFFFFFFFFFFFF AND SWAP2 POP POP PUSH3 0x25E JUMP JUMPDEST DUP1 DUP1 PUSH3 0x217 SWAP1 PUSH3 0x99B JUMP JUMPDEST SWAP2 POP POP PUSH3 0xCB JUMP JUMPDEST POP PUSH1 0x40 MLOAD PUSH32 0x8C379A000000000000000000000000000000000000000000000000000000000 DUP2 MSTORE PUSH1 0x4 ADD PUSH3 0x255 SWAP1 PUSH3 0xA49 JUMP JUMPDEST PUSH1 0x40 MLOAD DUP1 SWAP2 SUB SWAP1 REVERT JUMPDEST SWAP2 SWAP1 POP JUMP JUMPDEST PUSH1 0x60 PUSH1 0x0 DUP1 SLOAD DUP1 PUSH1 0x20 MUL PUSH1 0x20 ADD PUSH1 0x40 MLOAD SWAP1 DUP2 ADD PUSH1 0x40 MSTORE DUP1 SWAP3 SWAP2 SWAP1 DUP2 DUP2 MSTORE PUSH1 0x20 ADD DUP3 DUP1 SLOAD DUP1 ISZERO PUSH3 0x2E9 JUMPI PUSH1 0x20 MUL DUP3 ADD SWAP2 SWAP1 PUSH1 0x0 MSTORE PUSH1 0x20 PUSH1 0x0 KECCAK256 SWAP1 JUMPDEST DUP2 PUSH1 0x0 SWAP1 SLOAD SWAP1 PUSH2 0x100 EXP SWAP1 DIV PUSH20 0xFFFFFFFFFFFFFFFFFFFFFFFFFFFFFFFFFFFFFFFF AND PUSH20 0xFFFFFFFFFFFFFFFFFFFFFFFFFFFFFFFFFFFFFFFF AND DUP2 MSTORE PUSH1 0x20 ADD SWAP1 PUSH1 0x1 ADD SWAP1 DUP1 DUP4 GT PUSH3 0x29E JUMPI JUMPDEST POP POP POP POP POP SWAP1 POP SWAP1 JUMP JUMPDEST PUSH1 0x0 PUSH3 0x321 PUSH3 0x311 PUSH3 0x15180 DUP5 PUSH3 0x416 SWAP1 SWAP2 SWAP1 PUSH4 0xFFFFFFFF AND JUMP JUMPDEST TIMESTAMP PUSH3 0x42E SWAP1 SWAP2 SWAP1 PUSH4 0xFFFFFFFF AND JUMP JUMPDEST SWAP1 POP PUSH1 0x0 CALLER DUP7 DUP7 DUP7 DUP6 PUSH1 0x40 MLOAD PUSH3 0x338 SWAP1 PUSH3 0x446 JUMP JUMPDEST PUSH3 0x348 SWAP6 SWAP5 SWAP4 SWAP3 SWAP2 SWAP1 PUSH3 0xB0F JUMP JUMPDEST PUSH1 0x40 MLOAD DUP1 SWAP2 SUB SWAP1 PUSH1 0x0 CREATE DUP1 ISZERO DUP1 ISZERO PUSH3 0x365 JUMPI RETURNDATASIZE PUSH1 0x0 DUP1 RETURNDATACOPY RETURNDATASIZE PUSH1 0x0 REVERT JUMPDEST POP SWAP1 POP PUSH1 0x0 DUP2 SWAP1 DUP1 PUSH1 0x1 DUP2 SLOAD ADD DUP1 DUP3 SSTORE DUP1 SWAP2 POP POP PUSH1 0x1 SWAP1 SUB SWAP1 PUSH1 0x0 MSTORE PUSH1 0x20 PUSH1 0x0 KECCAK256 ADD PUSH1 0x0 SWAP1 SWAP2 SWAP1 SWAP2 SWAP1 SWAP2 PUSH2 0x100 EXP DUP2 SLOAD DUP2 PUSH20 0xFFFFFFFFFFFFFFFFFFFFFFFFFFFFFFFFFFFFFFFF MUL NOT AND SWAP1 DUP4 PUSH20 0xFFFFFFFFFFFFFFFFFFFFFFFFFFFFFFFFFFFFFFFF AND MUL OR SWAP1 SSTORE POP PUSH32 0x6218C120AD6D836DA0BFE4D4C44C8375356514FCE6AE39ECDCD483FAD6056E66 DUP2 CALLER DUP9 DUP9 DUP7 DUP10 PUSH1 0x40 MLOAD PUSH3 0x406 SWAP7 SWAP6 SWAP5 SWAP4 SWAP3 SWAP2 SWAP1 PUSH3 0xB8B JUMP JUMPDEST PUSH1 0x40 MLOAD DUP1 SWAP2 SUB SWAP1 LOG1 POP POP POP POP POP POP JUMP JUMPDEST PUSH1 0x0 DUP2 DUP4 PUSH3 0x426 SWAP2 SWAP1 PUSH3 0xC06 JUMP JUMPDEST SWAP1 POP SWAP3 SWAP2 POP POP JUMP JUMPDEST PUSH1 0x0 DUP2 DUP4 PUSH3 0x43E SWAP2 SWAP1 PUSH3 0xC67 JUMP JUMPDEST SWAP1 POP SWAP3 SWAP2 POP POP JUMP JUMPDEST PUSH2 0xBBF DUP1 PUSH3 0xCC5 DUP4 CODECOPY ADD SWAP1 JUMP JUMPDEST PUSH1 0x0 PUSH1 0x40 MLOAD SWAP1 POP SWAP1 JUMP JUMPDEST PUSH1 0x0 DUP1 REVERT JUMPDEST PUSH1 0x0 DUP1 REVERT JUMPDEST PUSH1 0x0 PUSH20 0xFFFFFFFFFFFFFFFFFFFFFFFFFFFFFFFFFFFFFFFF DUP3 AND SWAP1 POP SWAP2 SWAP1 POP JUMP JUMPDEST PUSH1 0x0 PUSH3 0x495 DUP3 PUSH3 0x468 JUMP JUMPDEST SWAP1 POP SWAP2 SWAP1 POP JUMP JUMPDEST PUSH3 0x4A7 DUP2 PUSH3 0x488 JUMP JUMPDEST DUP2 EQ PUSH3 0x4B3 JUMPI PUSH1 0x0 DUP1 REVERT JUMPDEST POP JUMP JUMPDEST PUSH1 0x0 DUP2 CALLDATALOAD SWAP1 POP PUSH3 0x4C7 DUP2 PUSH3 0x49C JUMP JUMPDEST SWAP3 SWAP2 POP POP JUMP JUMPDEST PUSH1 0x0 PUSH1 0x20 DUP3 DUP5 SUB SLT ISZERO PUSH3 0x4E6 JUMPI PUSH3 0x4E5 PUSH3 0x45E JUMP JUMPDEST JUMPDEST PUSH1 0x0 PUSH3 0x4F6 DUP5 DUP3 DUP6 ADD PUSH3 0x4B6 JUMP JUMPDEST SWAP2 POP POP SWAP3 SWAP2 POP POP JUMP JUMPDEST PUSH1 0x0 DUP2 SWAP1 POP SWAP2 SWAP1 POP JUMP JUMPDEST PUSH1 0x0 PUSH3 0x52A PUSH3 0x524 PUSH3 0x51E DUP5 PUSH3 0x468 JUMP JUMPDEST PUSH3 0x4FF JUMP JUMPDEST PUSH3 0x468 JUMP JUMPDEST SWAP1 POP SWAP2 SWAP1 POP JUMP JUMPDEST PUSH1 0x0 PUSH3 0x53E DUP3 PUSH3 0x509 JUMP JUMPDEST SWAP1 POP SWAP2 SWAP1 POP JUMP JUMPDEST PUSH1 0x0 PUSH3 0x552 DUP3 PUSH3 0x531 JUMP JUMPDEST SWAP1 POP SWAP2 SWAP1 POP JUMP JUMPDEST PUSH3 0x564 DUP2 PUSH3 0x545 JUMP JUMPDEST DUP3 MSTORE POP POP JUMP JUMPDEST PUSH1 0x0 PUSH1 0x20 DUP3 ADD SWAP1 POP PUSH3 0x581 PUSH1 0x0 DUP4 ADD DUP5 PUSH3 0x559 JUMP JUMPDEST SWAP3 SWAP2 POP POP JUMP JUMPDEST PUSH1 0x0 DUP2 MLOAD SWAP1 POP SWAP2 SWAP1 POP JUMP JUMPDEST PUSH1 0x0 DUP3 DUP3 MSTORE PUSH1 0x20 DUP3 ADD SWAP1 POP SWAP3 SWAP2 POP POP JUMP JUMPDEST PUSH1 0x0 DUP2 SWAP1 POP PUSH1 0x20 DUP3 ADD SWAP1 POP SWAP2 SWAP1 POP JUMP JUMPDEST PUSH3 0x5BE DUP2 PUSH3 0x545 JUMP JUMPDEST DUP3 MSTORE POP POP JUMP JUMPDEST PUSH1 0x0 PUSH3 0x5D2 DUP4 DUP4 PUSH3 0x5B3 JUMP JUMPDEST PUSH1 0x20 DUP4 ADD SWAP1 POP SWAP3 SWAP2 POP POP JUMP JUMPDEST PUSH1 0x0 PUSH1 0x20 DUP3 ADD SWAP1 POP SWAP2 SWAP1 POP JUMP JUMPDEST PUSH1 0x0 PUSH3 0x5F8 DUP3 PUSH3 0x587 JUMP JUMPDEST PUSH3 0x604 DUP2 DUP6 PUSH3 0x592 JUMP JUMPDEST SWAP4 POP PUSH3 0x611 DUP4 PUSH3 0x5A3 JUMP JUMPDEST DUP1 PUSH1 0x0 JUMPDEST DUP4 DUP2 LT ISZERO PUSH3 0x648 JUMPI DUP2 MLOAD PUSH3 0x62C DUP9 DUP3 PUSH3 0x5C4 JUMP JUMPDEST SWAP8 POP PUSH3 0x639 DUP4 PUSH3 0x5DE JUMP JUMPDEST SWAP3 POP POP PUSH1 0x1 DUP2 ADD SWAP1 POP PUSH3 0x615 JUMP JUMPDEST POP DUP6 SWAP4 POP POP POP POP SWAP3 SWAP2 POP POP JUMP JUMPDEST PUSH1 0x0 PUSH1 0x20 DUP3 ADD SWAP1 POP DUP2 DUP2 SUB PUSH1 0x0 DUP4 ADD MSTORE PUSH3 0x671 DUP2 DUP5 PUSH3 0x5EB JUMP JUMPDEST SWAP1 POP SWAP3 SWAP2 POP POP JUMP JUMPDEST PUSH1 0x0 DUP1 REVERT JUMPDEST PUSH1 0x0 DUP1 REVERT JUMPDEST PUSH1 0x0 PUSH1 0x1F NOT PUSH1 0x1F DUP4 ADD AND SWAP1 POP SWAP2 SWAP1 POP JUMP JUMPDEST PUSH32 0x4E487B7100000000000000000000000000000000000000000000000000000000 PUSH1 0x0 MSTORE PUSH1 0x41 PUSH1 0x4 MSTORE PUSH1 0x24 PUSH1 0x0 REVERT JUMPDEST PUSH3 0x6CE DUP3 PUSH3 0x683 JUMP JUMPDEST DUP2 ADD DUP2 DUP2 LT PUSH8 0xFFFFFFFFFFFFFFFF DUP3 GT OR ISZERO PUSH3 0x6F0 JUMPI PUSH3 0x6EF PUSH3 0x694 JUMP JUMPDEST JUMPDEST DUP1 PUSH1 0x40 MSTORE POP POP POP JUMP JUMPDEST PUSH1 0x0 PUSH3 0x705 PUSH3 0x454 JUMP JUMPDEST SWAP1 POP PUSH3 0x713 DUP3 DUP3 PUSH3 0x6C3 JUMP JUMPDEST SWAP2 SWAP1 POP JUMP JUMPDEST PUSH1 0x0 PUSH8 0xFFFFFFFFFFFFFFFF DUP3 GT ISZERO PUSH3 0x736 JUMPI PUSH3 0x735 PUSH3 0x694 JUMP JUMPDEST JUMPDEST PUSH3 0x741 DUP3 PUSH3 0x683 JUMP JUMPDEST SWAP1 POP PUSH1 0x20 DUP2 ADD SWAP1 POP SWAP2 SWAP1 POP JUMP JUMPDEST DUP3 DUP2 DUP4 CALLDATACOPY PUSH1 0x0 DUP4 DUP4 ADD MSTORE POP POP POP JUMP JUMPDEST PUSH1 0x0 PUSH3 0x774 PUSH3 0x76E DUP5 PUSH3 0x718 JUMP JUMPDEST PUSH3 0x6F9 JUMP JUMPDEST SWAP1 POP DUP3 DUP2 MSTORE PUSH1 0x20 DUP2 ADD DUP5 DUP5 DUP5 ADD GT ISZERO PUSH3 0x793 JUMPI PUSH3 0x792 PUSH3 0x67E JUMP JUMPDEST JUMPDEST PUSH3 0x7A0 DUP5 DUP3 DUP6 PUSH3 0x74E JUMP JUMPDEST POP SWAP4 SWAP3 POP POP POP JUMP JUMPDEST PUSH1 0x0 DUP3 PUSH1 0x1F DUP4 ADD SLT PUSH3 0x7C0 JUMPI PUSH3 0x7BF PUSH3 0x679 JUMP JUMPDEST JUMPDEST DUP2 CALLDATALOAD PUSH3 0x7D2 DUP5 DUP3 PUSH1 0x20 DUP7 ADD PUSH3 0x75D JUMP JUMPDEST SWAP2 POP POP SWAP3 SWAP2 POP POP JUMP JUMPDEST PUSH1 0x0 DUP2 SWAP1 POP SWAP2 SWAP1 POP JUMP JUMPDEST PUSH3 0x7F0 DUP2 PUSH3 0x7DB JUMP JUMPDEST DUP2 EQ PUSH3 0x7FC JUMPI PUSH1 0x0 DUP1 REVERT JUMPDEST POP JUMP JUMPDEST PUSH1 0x0 DUP2 CALLDATALOAD SWAP1 POP PUSH3 0x810 DUP2 PUSH3 0x7E5 JUMP JUMPDEST SWAP3 SWAP2 POP POP JUMP JUMPDEST PUSH1 0x0 DUP1 PUSH1 0x0 DUP1 PUSH1 0x80 DUP6 DUP8 SUB SLT ISZERO PUSH3 0x833 JUMPI PUSH3 0x832 PUSH3 0x45E JUMP JUMPDEST JUMPDEST PUSH1 0x0 DUP6 ADD CALLDATALOAD PUSH8 0xFFFFFFFFFFFFFFFF DUP2 GT ISZERO PUSH3 0x854 JUMPI PUSH3 0x853 PUSH3 0x463 JUMP JUMPDEST JUMPDEST PUSH3 0x862 DUP8 DUP3 DUP9 ADD PUSH3 0x7A8 JUMP JUMPDEST SWAP5 POP POP PUSH1 0x20 DUP6 ADD CALLDATALOAD PUSH8 0xFFFFFFFFFFFFFFFF DUP2 GT ISZERO PUSH3 0x886 JUMPI PUSH3 0x885 PUSH3 0x463 JUMP JUMPDEST JUMPDEST PUSH3 0x894 DUP8 DUP3 DUP9 ADD PUSH3 0x7A8 JUMP JUMPDEST SWAP4 POP POP PUSH1 0x40 PUSH3 0x8A7 DUP8 DUP3 DUP9 ADD PUSH3 0x7FF JUMP JUMPDEST SWAP3 POP POP PUSH1 0x60 PUSH3 0x8BA DUP8 DUP3 DUP9 ADD PUSH3 0x7FF JUMP JUMPDEST SWAP2 POP POP SWAP3 SWAP6 SWAP2 SWAP5 POP SWAP3 POP JUMP JUMPDEST PUSH32 0x4E487B7100000000000000000000000000000000000000000000000000000000 PUSH1 0x0 MSTORE PUSH1 0x32 PUSH1 0x4 MSTORE PUSH1 0x24 PUSH1 0x0 REVERT JUMPDEST PUSH1 0x0 PUSH3 0x902 DUP3 PUSH3 0x468 JUMP JUMPDEST SWAP1 POP SWAP2 SWAP1 POP JUMP JUMPDEST PUSH3 0x914 DUP2 PUSH3 0x8F5 JUMP JUMPDEST DUP2 EQ PUSH3 0x920 JUMPI PUSH1 0x0 DUP1 REVERT JUMPDEST POP JUMP JUMPDEST PUSH1 0x0 DUP2 MLOAD SWAP1 POP PUSH3 0x934 DUP2 PUSH3 0x909 JUMP JUMPDEST SWAP3 SWAP2 POP POP JUMP JUMPDEST PUSH1 0x0 PUSH1 0x20 DUP3 DUP5 SUB SLT ISZERO PUSH3 0x953 JUMPI PUSH3 0x952 PUSH3 0x45E JUMP JUMPDEST JUMPDEST PUSH1 0x0 PUSH3 0x963 DUP5 DUP3 DUP6 ADD PUSH3 0x923 JUMP JUMPDEST SWAP2 POP POP SWAP3 SWAP2 POP POP JUMP JUMPDEST PUSH32 0x4E487B7100000000000000000000000000000000000000000000000000000000 PUSH1 0x0 MSTORE PUSH1 0x11 PUSH1 0x4 MSTORE PUSH1 0x24 PUSH1 0x0 REVERT JUMPDEST PUSH1 0x0 PUSH3 0x9A8 DUP3 PUSH3 0x7DB JUMP JUMPDEST SWAP2 POP PUSH32 0xFFFFFFFFFFFFFFFFFFFFFFFFFFFFFFFFFFFFFFFFFFFFFFFFFFFFFFFFFFFFFFFF DUP3 SUB PUSH3 0x9DD JUMPI PUSH3 0x9DC PUSH3 0x96C JUMP JUMPDEST JUMPDEST PUSH1 0x1 DUP3 ADD SWAP1 POP SWAP2 SWAP1 POP JUMP JUMPDEST PUSH1 0x0 DUP3 DUP3 MSTORE PUSH1 0x20 DUP3 ADD SWAP1 POP SWAP3 SWAP2 POP POP JUMP JUMPDEST PUSH32 0x50726F6A656374206E6F7420666F756E64202121000000000000000000000000 PUSH1 0x0 DUP3 ADD MSTORE POP JUMP JUMPDEST PUSH1 0x0 PUSH3 0xA31 PUSH1 0x14 DUP4 PUSH3 0x9E8 JUMP JUMPDEST SWAP2 POP PUSH3 0xA3E DUP3 PUSH3 0x9F9 JUMP JUMPDEST PUSH1 0x20 DUP3 ADD SWAP1 POP SWAP2 SWAP1 POP JUMP JUMPDEST PUSH1 0x0 PUSH1 0x20 DUP3 ADD SWAP1 POP DUP2 DUP2 SUB PUSH1 0x0 DUP4 ADD MSTORE PUSH3 0xA64 DUP2 PUSH3 0xA22 JUMP JUMPDEST SWAP1 POP SWAP2 SWAP1 POP JUMP JUMPDEST PUSH3 0xA76 DUP2 PUSH3 0x8F5 JUMP JUMPDEST DUP3 MSTORE POP POP JUMP JUMPDEST PUSH1 0x0 DUP2 MLOAD SWAP1 POP SWAP2 SWAP1 POP JUMP JUMPDEST PUSH1 0x0 JUMPDEST DUP4 DUP2 LT ISZERO PUSH3 0xAA7 JUMPI DUP1 DUP3 ADD MLOAD DUP2 DUP5 ADD MSTORE PUSH1 0x20 DUP2 ADD SWAP1 POP PUSH3 0xA8A JUMP JUMPDEST DUP4 DUP2 GT ISZERO PUSH3 0xAB7 JUMPI PUSH1 0x0 DUP5 DUP5 ADD MSTORE JUMPDEST POP POP POP POP JUMP JUMPDEST PUSH1 0x0 PUSH3 0xACA DUP3 PUSH3 0xA7C JUMP JUMPDEST PUSH3 0xAD6 DUP2 DUP6 PUSH3 0x9E8 JUMP JUMPDEST SWAP4 POP PUSH3 0xAE8 DUP2 DUP6 PUSH1 0x20 DUP7 ADD PUSH3 0xA87 JUMP JUMPDEST PUSH3 0xAF3 DUP2 PUSH3 0x683 JUMP JUMPDEST DUP5 ADD SWAP2 POP POP SWAP3 SWAP2 POP POP JUMP JUMPDEST PUSH3 0xB09 DUP2 PUSH3 0x7DB JUMP JUMPDEST DUP3 MSTORE POP POP JUMP JUMPDEST PUSH1 0x0 PUSH1 0xA0 DUP3 ADD SWAP1 POP PUSH3 0xB26 PUSH1 0x0 DUP4 ADD DUP9 PUSH3 0xA6B JUMP JUMPDEST DUP2 DUP2 SUB PUSH1 0x20 DUP4 ADD MSTORE PUSH3 0xB3A DUP2 DUP8 PUSH3 0xABD JUMP JUMPDEST SWAP1 POP DUP2 DUP2 SUB PUSH1 0x40 DUP4 ADD MSTORE PUSH3 0xB50 DUP2 DUP7 PUSH3 0xABD JUMP JUMPDEST SWAP1 POP PUSH3 0xB61 PUSH1 0x60 DUP4 ADD DUP6 PUSH3 0xAFE JUMP JUMPDEST PUSH3 0xB70 PUSH1 0x80 DUP4 ADD DUP5 PUSH3 0xAFE JUMP JUMPDEST SWAP7 SWAP6 POP POP POP POP POP POP JUMP JUMPDEST PUSH3 0xB85 DUP2 PUSH3 0x488 JUMP JUMPDEST DUP3 MSTORE POP POP JUMP JUMPDEST PUSH1 0x0 PUSH1 0xC0 DUP3 ADD SWAP1 POP PUSH3 0xBA2 PUSH1 0x0 DUP4 ADD DUP10 PUSH3 0xB7A JUMP JUMPDEST PUSH3 0xBB1 PUSH1 0x20 DUP4 ADD DUP9 PUSH3 0xB7A JUMP JUMPDEST DUP2 DUP2 SUB PUSH1 0x40 DUP4 ADD MSTORE PUSH3 0xBC5 DUP2 DUP8 PUSH3 0xABD JUMP JUMPDEST SWAP1 POP DUP2 DUP2 SUB PUSH1 0x60 DUP4 ADD MSTORE PUSH3 0xBDB DUP2 DUP7 PUSH3 0xABD JUMP JUMPDEST SWAP1 POP PUSH3 0xBEC PUSH1 0x80 DUP4 ADD DUP6 PUSH3 0xAFE JUMP JUMPDEST PUSH3 0xBFB PUSH1 0xA0 DUP4 ADD DUP5 PUSH3 0xAFE JUMP JUMPDEST SWAP8 SWAP7 POP POP POP POP POP POP POP JUMP JUMPDEST PUSH1 0x0 PUSH3 0xC13 DUP3 PUSH3 0x7DB JUMP JUMPDEST SWAP2 POP PUSH3 0xC20 DUP4 PUSH3 0x7DB JUMP JUMPDEST SWAP3 POP DUP2 PUSH32 0xFFFFFFFFFFFFFFFFFFFFFFFFFFFFFFFFFFFFFFFFFFFFFFFFFFFFFFFFFFFFFFFF DIV DUP4 GT DUP3 ISZERO ISZERO AND ISZERO PUSH3 0xC5C JUMPI PUSH3 0xC5B PUSH3 0x96C JUMP JUMPDEST JUMPDEST DUP3 DUP3 MUL SWAP1 POP SWAP3 SWAP2 POP POP JUMP JUMPDEST PUSH1 0x0 PUSH3 0xC74 DUP3 PUSH3 0x7DB JUMP JUMPDEST SWAP2 POP PUSH3 0xC81 DUP4 PUSH3 0x7DB JUMP JUMPDEST SWAP3 POP DUP3 PUSH32 0xFFFFFFFFFFFFFFFFFFFFFFFFFFFFFFFFFFFFFFFFFFFFFFFFFFFFFFFFFFFFFFFF SUB DUP3 GT ISZERO PUSH3 0xCB9 JUMPI PUSH3 0xCB8 PUSH3 0x96C JUMP JUMPDEST JUMPDEST DUP3 DUP3 ADD SWAP1 POP SWAP3 SWAP2 POP POP JUMP INVALID PUSH1 0x80 PUSH1 0x40 MSTORE CALLVALUE DUP1 ISZERO PUSH3 0x11 JUMPI PUSH1 0x0 DUP1 REVERT JUMPDEST POP PUSH1 0x40 MLOAD PUSH3 0xBBF CODESIZE SUB DUP1 PUSH3 0xBBF DUP4 CODECOPY DUP2 DUP2 ADD PUSH1 0x40 MSTORE DUP2 ADD SWAP1 PUSH3 0x37 SWAP2 SWAP1 PUSH3 0x3B7 JUMP JUMPDEST DUP5 PUSH1 0x0 DUP1 PUSH2 0x100 EXP DUP2 SLOAD DUP2 PUSH20 0xFFFFFFFFFFFFFFFFFFFFFFFFFFFFFFFFFFFFFFFF MUL NOT AND SWAP1 DUP4 PUSH20 0xFFFFFFFFFFFFFFFFFFFFFFFFFFFFFFFFFFFFFFFF AND MUL OR SWAP1 SSTORE POP DUP4 PUSH1 0x1 SWAP1 DUP1 MLOAD SWAP1 PUSH1 0x20 ADD SWAP1 PUSH3 0x8F SWAP3 SWAP2 SWAP1 PUSH3 0xCA JUMP JUMPDEST POP DUP3 PUSH1 0x2 SWAP1 DUP1 MLOAD SWAP1 PUSH1 0x20 ADD SWAP1 PUSH3 0xA8 SWAP3 SWAP2 SWAP1 PUSH3 0xCA JUMP JUMPDEST POP DUP2 PUSH1 0x3 DUP2 SWAP1 SSTORE POP DUP1 PUSH1 0x6 DUP2 SWAP1 SSTORE POP PUSH1 0x0 PUSH1 0x4 DUP2 SWAP1 SSTORE POP POP POP POP POP POP PUSH3 0x4E1 JUMP JUMPDEST DUP3 DUP1 SLOAD PUSH3 0xD8 SWAP1 PUSH3 0x4AC JUMP JUMPDEST SWAP1 PUSH1 0x0 MSTORE PUSH1 0x20 PUSH1 0x0 KECCAK256 SWAP1 PUSH1 0x1F ADD PUSH1 0x20 SWAP1 DIV DUP2 ADD SWAP3 DUP3 PUSH3 0xFC JUMPI PUSH1 0x0 DUP6 SSTORE PUSH3 0x148 JUMP JUMPDEST DUP3 PUSH1 0x1F LT PUSH3 0x117 JUMPI DUP1 MLOAD PUSH1 0xFF NOT AND DUP4 DUP1 ADD OR DUP6 SSTORE PUSH3 0x148 JUMP JUMPDEST DUP3 DUP1 ADD PUSH1 0x1 ADD DUP6 SSTORE DUP3 ISZERO PUSH3 0x148 JUMPI SWAP2 DUP3 ADD JUMPDEST DUP3 DUP2 GT ISZERO PUSH3 0x147 JUMPI DUP3 MLOAD DUP3 SSTORE SWAP2 PUSH1 0x20 ADD SWAP2 SWAP1 PUSH1 0x1 ADD SWAP1 PUSH3 0x12A JUMP JUMPDEST JUMPDEST POP SWAP1 POP PUSH3 0x157 SWAP2 SWAP1 PUSH3 0x15B JUMP JUMPDEST POP SWAP1 JUMP JUMPDEST JUMPDEST DUP1 DUP3 GT ISZERO PUSH3 0x176 JUMPI PUSH1 0x0 DUP2 PUSH1 0x0 SWAP1 SSTORE POP PUSH1 0x1 ADD PUSH3 0x15C JUMP JUMPDEST POP SWAP1 JUMP JUMPDEST PUSH1 0x0 PUSH1 0x40 MLOAD SWAP1 POP SWAP1 JUMP JUMPDEST PUSH1 0x0 DUP1 REVERT JUMPDEST PUSH1 0x0 DUP1 REVERT JUMPDEST PUSH1 0x0 PUSH20 0xFFFFFFFFFFFFFFFFFFFFFFFFFFFFFFFFFFFFFFFF DUP3 AND SWAP1 POP SWAP2 SWAP1 POP JUMP JUMPDEST PUSH1 0x0 PUSH3 0x1BB DUP3 PUSH3 0x18E JUMP JUMPDEST SWAP1 POP SWAP2 SWAP1 POP JUMP JUMPDEST PUSH3 0x1CD DUP2 PUSH3 0x1AE JUMP JUMPDEST DUP2 EQ PUSH3 0x1D9 JUMPI PUSH1 0x0 DUP1 REVERT JUMPDEST POP JUMP JUMPDEST PUSH1 0x0 DUP2 MLOAD SWAP1 POP PUSH3 0x1ED DUP2 PUSH3 0x1C2 JUMP JUMPDEST SWAP3 SWAP2 POP POP JUMP JUMPDEST PUSH1 0x0 DUP1 REVERT JUMPDEST PUSH1 0x0 DUP1 REVERT JUMPDEST PUSH1 0x0 PUSH1 0x1F NOT PUSH1 0x1F DUP4 ADD AND SWAP1 POP SWAP2 SWAP1 POP JUMP JUMPDEST PUSH32 0x4E487B7100000000000000000000000000000000000000000000000000000000 PUSH1 0x0 MSTORE PUSH1 0x41 PUSH1 0x4 MSTORE PUSH1 0x24 PUSH1 0x0 REVERT JUMPDEST PUSH3 0x248 DUP3 PUSH3 0x1FD JUMP JUMPDEST DUP2 ADD DUP2 DUP2 LT PUSH8 0xFFFFFFFFFFFFFFFF DUP3 GT OR ISZERO PUSH3 0x26A JUMPI PUSH3 0x269 PUSH3 0x20E JUMP JUMPDEST JUMPDEST DUP1 PUSH1 0x40 MSTORE POP POP POP JUMP JUMPDEST PUSH1 0x0 PUSH3 0x27F PUSH3 0x17A JUMP JUMPDEST SWAP1 POP PUSH3 0x28D DUP3 DUP3 PUSH3 0x23D JUMP JUMPDEST SWAP2 SWAP1 POP JUMP JUMPDEST PUSH1 0x0 PUSH8 0xFFFFFFFFFFFFFFFF DUP3 GT ISZERO PUSH3 0x2B0 JUMPI PUSH3 0x2AF PUSH3 0x20E JUMP JUMPDEST JUMPDEST PUSH3 0x2BB DUP3 PUSH3 0x1FD JUMP JUMPDEST SWAP1 POP PUSH1 0x20 DUP2 ADD SWAP1 POP SWAP2 SWAP1 POP JUMP JUMPDEST PUSH1 0x0 JUMPDEST DUP4 DUP2 LT ISZERO PUSH3 0x2E8 JUMPI DUP1 DUP3 ADD MLOAD DUP2 DUP5 ADD MSTORE PUSH1 0x20 DUP2 ADD SWAP1 POP PUSH3 0x2CB JUMP JUMPDEST DUP4 DUP2 GT ISZERO PUSH3 0x2F8 JUMPI PUSH1 0x0 DUP5 DUP5 ADD MSTORE JUMPDEST POP POP POP POP JUMP JUMPDEST PUSH1 0x0 PUSH3 0x315 PUSH3 0x30F DUP5 PUSH3 0x292 JUMP JUMPDEST PUSH3 0x273 JUMP JUMPDEST SWAP1 POP DUP3 DUP2 MSTORE PUSH1 0x20 DUP2 ADD DUP5 DUP5 DUP5 ADD GT ISZERO PUSH3 0x334 JUMPI PUSH3 0x333 PUSH3 0x1F8 JUMP JUMPDEST JUMPDEST PUSH3 0x341 DUP5 DUP3 DUP6 PUSH3 0x2C8 JUMP JUMPDEST POP SWAP4 SWAP3 POP POP POP JUMP JUMPDEST PUSH1 0x0 DUP3 PUSH1 0x1F DUP4 ADD SLT PUSH3 0x361 JUMPI PUSH3 0x360 PUSH3 0x1F3 JUMP JUMPDEST JUMPDEST DUP2 MLOAD PUSH3 0x373 DUP5 DUP3 PUSH1 0x20 DUP7 ADD PUSH3 0x2FE JUMP JUMPDEST SWAP2 POP POP SWAP3 SWAP2 POP POP JUMP JUMPDEST PUSH1 0x0 DUP2 SWAP1 POP SWAP2 SWAP1 POP JUMP JUMPDEST PUSH3 0x391 DUP2 PUSH3 0x37C JUMP JUMPDEST DUP2 EQ PUSH3 0x39D JUMPI PUSH1 0x0 DUP1 REVERT JUMPDEST POP JUMP JUMPDEST PUSH1 0x0 DUP2 MLOAD SWAP1 POP PUSH3 0x3B1 DUP2 PUSH3 0x386 JUMP JUMPDEST SWAP3 SWAP2 POP POP JUMP JUMPDEST PUSH1 0x0 DUP1 PUSH1 0x0 DUP1 PUSH1 0x0 PUSH1 0xA0 DUP7 DUP9 SUB SLT ISZERO PUSH3 0x3D6 JUMPI PUSH3 0x3D5 PUSH3 0x184 JUMP JUMPDEST JUMPDEST PUSH1 0x0 PUSH3 0x3E6 DUP9 DUP3 DUP10 ADD PUSH3 0x1DC JUMP JUMPDEST SWAP6 POP POP PUSH1 0x20 DUP7 ADD MLOAD PUSH8 0xFFFFFFFFFFFFFFFF DUP2 GT ISZERO PUSH3 0x40A JUMPI PUSH3 0x409 PUSH3 0x189 JUMP JUMPDEST JUMPDEST PUSH3 0x418 DUP9 DUP3 DUP10 ADD PUSH3 0x349 JUMP JUMPDEST SWAP5 POP POP PUSH1 0x40 DUP7 ADD MLOAD PUSH8 0xFFFFFFFFFFFFFFFF DUP2 GT ISZERO PUSH3 0x43C JUMPI PUSH3 0x43B PUSH3 0x189 JUMP JUMPDEST JUMPDEST PUSH3 0x44A DUP9 DUP3 DUP10 ADD PUSH3 0x349 JUMP JUMPDEST SWAP4 POP POP PUSH1 0x60 PUSH3 0x45D DUP9 DUP3 DUP10 ADD PUSH3 0x3A0 JUMP JUMPDEST SWAP3 POP POP PUSH1 0x80 PUSH3 0x470 DUP9 DUP3 DUP10 ADD PUSH3 0x3A0 JUMP JUMPDEST SWAP2 POP POP SWAP3 SWAP6 POP SWAP3 SWAP6 SWAP1 SWAP4 POP JUMP JUMPDEST PUSH32 0x4E487B7100000000000000000000000000000000000000000000000000000000 PUSH1 0x0 MSTORE PUSH1 0x22 PUSH1 0x4 MSTORE PUSH1 0x24 PUSH1 0x0 REVERT JUMPDEST PUSH1 0x0 PUSH1 0x2 DUP3 DIV SWAP1 POP PUSH1 0x1 DUP3 AND DUP1 PUSH3 0x4C5 JUMPI PUSH1 0x7F DUP3 AND SWAP2 POP JUMPDEST PUSH1 0x20 DUP3 LT DUP2 SUB PUSH3 0x4DB JUMPI PUSH3 0x4DA PUSH3 0x47D JUMP JUMPDEST JUMPDEST POP SWAP2 SWAP1 POP JUMP JUMPDEST PUSH2 0x6CE DUP1 PUSH3 0x4F1 PUSH1 0x0 CODECOPY PUSH1 0x0 RETURN INVALID PUSH1 0x80 PUSH1 0x40 MSTORE CALLVALUE DUP1 ISZERO PUSH2 0x10 JUMPI PUSH1 0x0 DUP1 REVERT JUMPDEST POP PUSH1 0x4 CALLDATASIZE LT PUSH2 0x4C JUMPI PUSH1 0x0 CALLDATALOAD PUSH1 0xE0 SHR DUP1 PUSH4 0x400FFB33 EQ PUSH2 0x51 JUMPI DUP1 PUSH4 0xA541A2A2 EQ PUSH2 0x6D JUMPI DUP1 PUSH4 0xA8B93C8D EQ PUSH2 0x8B JUMPI DUP1 PUSH4 0xF020CD19 EQ PUSH2 0xA7 JUMPI JUMPDEST PUSH1 0x0 DUP1 REVERT JUMPDEST PUSH2 0x6B PUSH1 0x4 DUP1 CALLDATASIZE SUB DUP2 ADD SWAP1 PUSH2 0x66 SWAP2 SWAP1 PUSH2 0x44A JUMP JUMPDEST PUSH2 0xC5 JUMP JUMPDEST STOP JUMPDEST PUSH2 0x75 PUSH2 0x147 JUMP JUMPDEST PUSH1 0x40 MLOAD PUSH2 0x82 SWAP2 SWAP1 PUSH2 0x52A JUMP JUMPDEST PUSH1 0x40 MLOAD DUP1 SWAP2 SUB SWAP1 RETURN JUMPDEST PUSH2 0xA5 PUSH1 0x4 DUP1 CALLDATASIZE SUB DUP2 ADD SWAP1 PUSH2 0xA0 SWAP2 SWAP1 PUSH2 0x545 JUMP JUMPDEST PUSH2 0x16B JUMP JUMPDEST STOP JUMPDEST PUSH2 0xAF PUSH2 0x185 JUMP JUMPDEST PUSH1 0x40 MLOAD PUSH2 0xBC SWAP2 SWAP1 PUSH2 0x616 JUMP JUMPDEST PUSH1 0x40 MLOAD DUP1 SWAP2 SUB SWAP1 RETURN JUMPDEST CALLER PUSH1 0x0 DUP1 PUSH2 0x100 EXP DUP2 SLOAD DUP2 PUSH20 0xFFFFFFFFFFFFFFFFFFFFFFFFFFFFFFFFFFFFFFFF MUL NOT AND SWAP1 DUP4 PUSH20 0xFFFFFFFFFFFFFFFFFFFFFFFFFFFFFFFFFFFFFFFF AND MUL OR SWAP1 SSTORE POP DUP4 PUSH1 0x1 SWAP1 DUP1 MLOAD SWAP1 PUSH1 0x20 ADD SWAP1 PUSH2 0x11B SWAP3 SWAP2 SWAP1 PUSH2 0x217 JUMP JUMPDEST POP DUP3 PUSH1 0x2 SWAP1 DUP1 MLOAD SWAP1 PUSH1 0x20 ADD SWAP1 PUSH2 0x132 SWAP3 SWAP2 SWAP1 PUSH2 0x217 JUMP JUMPDEST POP DUP2 PUSH1 0x3 DUP2 SWAP1 SSTORE POP DUP1 PUSH1 0x6 DUP2 SWAP1 SSTORE POP POP POP POP POP JUMP JUMPDEST PUSH1 0x0 DUP1 SLOAD SWAP1 PUSH2 0x100 EXP SWAP1 DIV PUSH20 0xFFFFFFFFFFFFFFFFFFFFFFFFFFFFFFFFFFFFFFFF AND DUP2 JUMP JUMPDEST DUP1 PUSH1 0x1 SWAP1 DUP1 MLOAD SWAP1 PUSH1 0x20 ADD SWAP1 PUSH2 0x181 SWAP3 SWAP2 SWAP1 PUSH2 0x217 JUMP JUMPDEST POP POP JUMP JUMPDEST PUSH1 0x60 PUSH1 0x1 DUP1 SLOAD PUSH2 0x194 SWAP1 PUSH2 0x667 JUMP JUMPDEST DUP1 PUSH1 0x1F ADD PUSH1 0x20 DUP1 SWAP2 DIV MUL PUSH1 0x20 ADD PUSH1 0x40 MLOAD SWAP1 DUP2 ADD PUSH1 0x40 MSTORE DUP1 SWAP3 SWAP2 SWAP1 DUP2 DUP2 MSTORE PUSH1 0x20 ADD DUP3 DUP1 SLOAD PUSH2 0x1C0 SWAP1 PUSH2 0x667 JUMP JUMPDEST DUP1 ISZERO PUSH2 0x20D JUMPI DUP1 PUSH1 0x1F LT PUSH2 0x1E2 JUMPI PUSH2 0x100 DUP1 DUP4 SLOAD DIV MUL DUP4 MSTORE SWAP2 PUSH1 0x20 ADD SWAP2 PUSH2 0x20D JUMP JUMPDEST DUP3 ADD SWAP2 SWAP1 PUSH1 0x0 MSTORE PUSH1 0x20 PUSH1 0x0 KECCAK256 SWAP1 JUMPDEST DUP2 SLOAD DUP2 MSTORE SWAP1 PUSH1 0x1 ADD SWAP1 PUSH1 0x20 ADD DUP1 DUP4 GT PUSH2 0x1F0 JUMPI DUP3 SWAP1 SUB PUSH1 0x1F AND DUP3 ADD SWAP2 JUMPDEST POP POP POP POP POP SWAP1 POP SWAP1 JUMP JUMPDEST DUP3 DUP1 SLOAD PUSH2 0x223 SWAP1 PUSH2 0x667 JUMP JUMPDEST SWAP1 PUSH1 0x0 MSTORE PUSH1 0x20 PUSH1 0x0 KECCAK256 SWAP1 PUSH1 0x1F ADD PUSH1 0x20 SWAP1 DIV DUP2 ADD SWAP3 DUP3 PUSH2 0x245 JUMPI PUSH1 0x0 DUP6 SSTORE PUSH2 0x28C JUMP JUMPDEST DUP3 PUSH1 0x1F LT PUSH2 0x25E JUMPI DUP1 MLOAD PUSH1 0xFF NOT AND DUP4 DUP1 ADD OR DUP6 SSTORE PUSH2 0x28C JUMP JUMPDEST DUP3 DUP1 ADD PUSH1 0x1 ADD DUP6 SSTORE DUP3 ISZERO PUSH2 0x28C JUMPI SWAP2 DUP3 ADD JUMPDEST DUP3 DUP2 GT ISZERO PUSH2 0x28B JUMPI DUP3 MLOAD DUP3 SSTORE SWAP2 PUSH1 0x20 ADD SWAP2 SWAP1 PUSH1 0x1 ADD SWAP1 PUSH2 0x270 JUMP JUMPDEST JUMPDEST POP SWAP1 POP PUSH2 0x299 SWAP2 SWAP1 PUSH2 0x29D JUMP JUMPDEST POP SWAP1 JUMP JUMPDEST JUMPDEST DUP1 DUP3 GT ISZERO PUSH2 0x2B6 JUMPI PUSH1 0x0 DUP2 PUSH1 0x0 SWAP1 SSTORE POP PUSH1 0x1 ADD PUSH2 0x29E JUMP JUMPDEST POP SWAP1 JUMP JUMPDEST PUSH1 0x0 PUSH1 0x40 MLOAD SWAP1 POP SWAP1 JUMP JUMPDEST PUSH1 0x0 DUP1 REVERT JUMPDEST PUSH1 0x0 DUP1 REVERT JUMPDEST PUSH1 0x0 DUP1 REVERT JUMPDEST PUSH1 0x0 DUP1 REVERT JUMPDEST PUSH1 0x0 PUSH1 0x1F NOT PUSH1 0x1F DUP4 ADD AND SWAP1 POP SWAP2 SWAP1 POP JUMP JUMPDEST PUSH32 0x4E487B7100000000000000000000000000000000000000000000000000000000 PUSH1 0x0 MSTORE PUSH1 0x41 PUSH1 0x4 MSTORE PUSH1 0x24 PUSH1 0x0 REVERT JUMPDEST PUSH2 0x321 DUP3 PUSH2 0x2D8 JUMP JUMPDEST DUP2 ADD DUP2 DUP2 LT PUSH8 0xFFFFFFFFFFFFFFFF DUP3 GT OR ISZERO PUSH2 0x340 JUMPI PUSH2 0x33F PUSH2 0x2E9 JUMP JUMPDEST JUMPDEST DUP1 PUSH1 0x40 MSTORE POP POP POP JUMP JUMPDEST PUSH1 0x0 PUSH2 0x353 PUSH2 0x2BA JUMP JUMPDEST SWAP1 POP PUSH2 0x35F DUP3 DUP3 PUSH2 0x318 JUMP JUMPDEST SWAP2 SWAP1 POP JUMP JUMPDEST PUSH1 0x0 PUSH8 0xFFFFFFFFFFFFFFFF DUP3 GT ISZERO PUSH2 0x37F JUMPI PUSH2 0x37E PUSH2 0x2E9 JUMP JUMPDEST JUMPDEST PUSH2 0x388 DUP3 PUSH2 0x2D8 JUMP JUMPDEST SWAP1 POP PUSH1 0x20 DUP2 ADD SWAP1 POP SWAP2 SWAP1 POP JUMP JUMPDEST DUP3 DUP2 DUP4 CALLDATACOPY PUSH1 0x0 DUP4 DUP4 ADD MSTORE POP POP POP JUMP JUMPDEST PUSH1 0x0 PUSH2 0x3B7 PUSH2 0x3B2 DUP5 PUSH2 0x364 JUMP JUMPDEST PUSH2 0x349 JUMP JUMPDEST SWAP1 POP DUP3 DUP2 MSTORE PUSH1 0x20 DUP2 ADD DUP5 DUP5 DUP5 ADD GT ISZERO PUSH2 0x3D3 JUMPI PUSH2 0x3D2 PUSH2 0x2D3 JUMP JUMPDEST JUMPDEST PUSH2 0x3DE DUP5 DUP3 DUP6 PUSH2 0x395 JUMP JUMPDEST POP SWAP4 SWAP3 POP POP POP JUMP JUMPDEST PUSH1 0x0 DUP3 PUSH1 0x1F DUP4 ADD SLT PUSH2 0x3FB JUMPI PUSH2 0x3FA PUSH2 0x2CE JUMP JUMPDEST JUMPDEST DUP2 CALLDATALOAD PUSH2 0x40B DUP5 DUP3 PUSH1 0x20 DUP7 ADD PUSH2 0x3A4 JUMP JUMPDEST SWAP2 POP POP SWAP3 SWAP2 POP POP JUMP JUMPDEST PUSH1 0x0 DUP2 SWAP1 POP SWAP2 SWAP1 POP JUMP JUMPDEST PUSH2 0x427 DUP2 PUSH2 0x414 JUMP JUMPDEST DUP2 EQ PUSH2 0x432 JUMPI PUSH1 0x0 DUP1 REVERT JUMPDEST POP JUMP JUMPDEST PUSH1 0x0 DUP2 CALLDATALOAD SWAP1 POP PUSH2 0x444 DUP2 PUSH2 0x41E JUMP JUMPDEST SWAP3 SWAP2 POP POP JUMP JUMPDEST PUSH1 0x0 DUP1 PUSH1 0x0 DUP1 PUSH1 0x80 DUP6 DUP8 SUB SLT ISZERO PUSH2 0x464 JUMPI PUSH2 0x463 PUSH2 0x2C4 JUMP JUMPDEST JUMPDEST PUSH1 0x0 DUP6 ADD CALLDATALOAD PUSH8 0xFFFFFFFFFFFFFFFF DUP2 GT ISZERO PUSH2 0x482 JUMPI PUSH2 0x481 PUSH2 0x2C9 JUMP JUMPDEST JUMPDEST PUSH2 0x48E DUP8 DUP3 DUP9 ADD PUSH2 0x3E6 JUMP JUMPDEST SWAP5 POP POP PUSH1 0x20 DUP6 ADD CALLDATALOAD PUSH8 0xFFFFFFFFFFFFFFFF DUP2 GT ISZERO PUSH2 0x4AF JUMPI PUSH2 0x4AE PUSH2 0x2C9 JUMP JUMPDEST JUMPDEST PUSH2 0x4BB DUP8 DUP3 DUP9 ADD PUSH2 0x3E6 JUMP JUMPDEST SWAP4 POP POP PUSH1 0x40 PUSH2 0x4CC DUP8 DUP3 DUP9 ADD PUSH2 0x435 JUMP JUMPDEST SWAP3 POP POP PUSH1 0x60 PUSH2 0x4DD DUP8 DUP3 DUP9 ADD PUSH2 0x435 JUMP JUMPDEST SWAP2 POP POP SWAP3 SWAP6 SWAP2 SWAP5 POP SWAP3 POP JUMP JUMPDEST PUSH1 0x0 PUSH20 0xFFFFFFFFFFFFFFFFFFFFFFFFFFFFFFFFFFFFFFFF DUP3 AND SWAP1 POP SWAP2 SWAP1 POP JUMP JUMPDEST PUSH1 0x0 PUSH2 0x514 DUP3 PUSH2 0x4E9 JUMP JUMPDEST SWAP1 POP SWAP2 SWAP1 POP JUMP JUMPDEST PUSH2 0x524 DUP2 PUSH2 0x509 JUMP JUMPDEST DUP3 MSTORE POP POP JUMP JUMPDEST PUSH1 0x0 PUSH1 0x20 DUP3 ADD SWAP1 POP PUSH2 0x53F PUSH1 0x0 DUP4 ADD DUP5 PUSH2 0x51B JUMP JUMPDEST SWAP3 SWAP2 POP POP JUMP JUMPDEST PUSH1 0x0 PUSH1 0x20 DUP3 DUP5 SUB SLT ISZERO PUSH2 0x55B JUMPI PUSH2 0x55A PUSH2 0x2C4 JUMP JUMPDEST JUMPDEST PUSH1 0x0 DUP3 ADD CALLDATALOAD PUSH8 0xFFFFFFFFFFFFFFFF DUP2 GT ISZERO PUSH2 0x579 JUMPI PUSH2 0x578 PUSH2 0x2C9 JUMP JUMPDEST JUMPDEST PUSH2 0x585 DUP5 DUP3 DUP6 ADD PUSH2 0x3E6 JUMP JUMPDEST SWAP2 POP POP SWAP3 SWAP2 POP POP JUMP JUMPDEST PUSH1 0x0 DUP2 MLOAD SWAP1 POP SWAP2 SWAP1 POP JUMP JUMPDEST PUSH1 0x0 DUP3 DUP3 MSTORE PUSH1 0x20 DUP3 ADD SWAP1 POP SWAP3 SWAP2 POP POP JUMP JUMPDEST PUSH1 0x0 JUMPDEST DUP4 DUP2 LT ISZERO PUSH2 0x5C8 JUMPI DUP1 DUP3 ADD MLOAD DUP2 DUP5 ADD MSTORE PUSH1 0x20 DUP2 ADD SWAP1 POP PUSH2 0x5AD JUMP JUMPDEST DUP4 DUP2 GT ISZERO PUSH2 0x5D7 JUMPI PUSH1 0x0 DUP5 DUP5 ADD MSTORE JUMPDEST POP POP POP POP JUMP JUMPDEST PUSH1 0x0 PUSH2 0x5E8 DUP3 PUSH2 0x58E JUMP JUMPDEST PUSH2 0x5F2 DUP2 DUP6 PUSH2 0x599 JUMP JUMPDEST SWAP4 POP PUSH2 0x602 DUP2 DUP6 PUSH1 0x20 DUP7 ADD PUSH2 0x5AA JUMP JUMPDEST PUSH2 0x60B DUP2 PUSH2 0x2D8 JUMP JUMPDEST DUP5 ADD SWAP2 POP POP SWAP3 SWAP2 POP POP JUMP JUMPDEST PUSH1 0x0 PUSH1 0x20 DUP3 ADD SWAP1 POP DUP2 DUP2 SUB PUSH1 0x0 DUP4 ADD MSTORE PUSH2 0x630 DUP2 DUP5 PUSH2 0x5DD JUMP JUMPDEST SWAP1 POP SWAP3 SWAP2 POP POP JUMP JUMPDEST PUSH32 0x4E487B7100000000000000000000000000000000000000000000000000000000 PUSH1 0x0 MSTORE PUSH1 0x22 PUSH1 0x4 MSTORE PUSH1 0x24 PUSH1 0x0 REVERT JUMPDEST PUSH1 0x0 PUSH1 0x2 DUP3 DIV SWAP1 POP PUSH1 0x1 DUP3 AND DUP1 PUSH2 0x67F JUMPI PUSH1 0x7F DUP3 AND SWAP2 POP JUMPDEST PUSH1 0x20 DUP3 LT DUP2 SUB PUSH2 0x692 JUMPI PUSH2 0x691 PUSH2 0x638 JUMP JUMPDEST JUMPDEST POP SWAP2 SWAP1 POP JUMP INVALID LOG2 PUSH5 0x6970667358 0x22 SLT KECCAK256 0x24 GT 0xCE 0xBD BYTE 0x29 DELEGATECALL PUSH16 0xEFB128148FBC33AF469DB0D07B9D1E8F PUSH25 0x7405E433887B2E64736F6C634300080D0033A2646970667358 0x22 SLT KECCAK256 SWAP8 ADDRESS 0xDA PUSH29 0xE79102BC52E67541B36A4A45C1CA9B90CB043DC2DBFC18084360B42264 PUSH20 0x6F6C634300080D00330000000000000000000000 "
				},
				"gasEstimates": {
					"creation": {
						"codeDepositCost": "1265800",
						"executionCost": "1315",
						"totalCost": "1267115"
					},
					"external": {
						"getProjectByAddressCreator(address)": "infinite",
						"returnAllProjects()": "infinite",
						"startProject(string,string,uint256,uint256)": "infinite"
					}
				},
				"methodIdentifiers": {
					"getProjectByAddressCreator(address)": "4bf28d9e",
					"returnAllProjects()": "85b6e28e",
					"startProject(string,string,uint256,uint256)": "a24a2d16"
				}
			},
			"storageLayout": {
				"storage": [
					{
						"astId": 10,
						"contract": "contracts/Crowfunding.sol:Crowfunding",
						"label": "projects",
						"offset": 0,
						"slot": "0",
						"type": "t_array(t_contract(Project)252)dyn_storage"
					}
				],
				"types": {
					"t_array(t_contract(Project)252)dyn_storage": {
						"base": "t_contract(Project)252",
						"encoding": "dynamic_array",
						"label": "contract Project[]",
						"numberOfBytes": "32"
					},
					"t_contract(Project)252": {
						"encoding": "inplace",
						"label": "contract Project",
						"numberOfBytes": "20"
					}
				}
			},
			"userdoc": {
				"kind": "user",
				"methods": {},
				"version": 1
			}
		}
	}
}