{
	"contracts/Crowfunding.sol": {
		"Crowfunding": {
			"abi": [
				{
					"inputs": [],
					"name": "returnAllProjects",
					"outputs": [
						{
							"internalType": "contract Project[]",
							"name": "",
							"type": "address[]"
						}
					],
					"stateMutability": "view",
					"type": "function"
				}
			],
			"devdoc": {
				"kind": "dev",
				"methods": {
					"returnAllProjects()": {
						"details": "Function to get all projects' contract addresses.",
						"returns": {
							"_0": "A list of all projects' contract addreses"
						}
					}
				},
				"version": 1
			},
			"evm": {
				"assembly": "    /* \"contracts/Crowfunding.sol\":250:549  contract Crowfunding {... */\n  mstore(0x40, 0x80)\n  callvalue\n  dup1\n  iszero\n  tag_1\n  jumpi\n  0x00\n  dup1\n  revert\ntag_1:\n  pop\n  dataSize(sub_0)\n  dup1\n  dataOffset(sub_0)\n  0x00\n  codecopy\n  0x00\n  return\nstop\n\nsub_0: assembly {\n        /* \"contracts/Crowfunding.sol\":250:549  contract Crowfunding {... */\n      mstore(0x40, 0x80)\n      callvalue\n      dup1\n      iszero\n      tag_1\n      jumpi\n      0x00\n      dup1\n      revert\n    tag_1:\n      pop\n      jumpi(tag_2, lt(calldatasize, 0x04))\n      shr(0xe0, calldataload(0x00))\n      dup1\n      0x85b6e28e\n      eq\n      tag_3\n      jumpi\n    tag_2:\n      0x00\n      dup1\n      revert\n        /* \"contracts/Crowfunding.sol\":445:545  function returnAllProjects() external view returns(Project[] memory){... */\n    tag_3:\n      tag_4\n      tag_5\n      jump\t// in\n    tag_4:\n      mload(0x40)\n      tag_6\n      swap2\n      swap1\n      tag_7\n      jump\t// in\n    tag_6:\n      mload(0x40)\n      dup1\n      swap2\n      sub\n      swap1\n      return\n    tag_5:\n        /* \"contracts/Crowfunding.sol\":496:512  Project[] memory */\n      0x60\n        /* \"contracts/Crowfunding.sol\":530:538  projects */\n      0x00\n        /* \"contracts/Crowfunding.sol\":523:538  return projects */\n      dup1\n      sload\n      dup1\n      0x20\n      mul\n      0x20\n      add\n      mload(0x40)\n      swap1\n      dup2\n      add\n      0x40\n      mstore\n      dup1\n      swap3\n      swap2\n      swap1\n      dup2\n      dup2\n      mstore\n      0x20\n      add\n      dup3\n      dup1\n      sload\n      dup1\n      iszero\n      tag_9\n      jumpi\n      0x20\n      mul\n      dup3\n      add\n      swap2\n      swap1\n      0x00\n      mstore\n      keccak256(0x00, 0x20)\n      swap1\n    tag_10:\n      dup2\n      0x00\n      swap1\n      sload\n      swap1\n      0x0100\n      exp\n      swap1\n      div\n      0xffffffffffffffffffffffffffffffffffffffff\n      and\n      0xffffffffffffffffffffffffffffffffffffffff\n      and\n      dup2\n      mstore\n      0x20\n      add\n      swap1\n      0x01\n      add\n      swap1\n      dup1\n      dup4\n      gt\n      tag_10\n      jumpi\n    tag_9:\n      pop\n      pop\n      pop\n      pop\n      pop\n      swap1\n      pop\n        /* \"contracts/Crowfunding.sol\":445:545  function returnAllProjects() external view returns(Project[] memory){... */\n      swap1\n      jump\t// out\n        /* \"#utility.yul\":7:135   */\n    tag_11:\n        /* \"#utility.yul\":88:94   */\n      0x00\n        /* \"#utility.yul\":122:127   */\n      dup2\n        /* \"#utility.yul\":116:128   */\n      mload\n        /* \"#utility.yul\":106:128   */\n      swap1\n      pop\n        /* \"#utility.yul\":7:135   */\n      swap2\n      swap1\n      pop\n      jump\t// out\n        /* \"#utility.yul\":141:325   */\n    tag_12:\n        /* \"#utility.yul\":240:251   */\n      0x00\n        /* \"#utility.yul\":274:280   */\n      dup3\n        /* \"#utility.yul\":269:272   */\n      dup3\n        /* \"#utility.yul\":262:281   */\n      mstore\n        /* \"#utility.yul\":314:318   */\n      0x20\n        /* \"#utility.yul\":309:312   */\n      dup3\n        /* \"#utility.yul\":305:319   */\n      add\n        /* \"#utility.yul\":290:319   */\n      swap1\n      pop\n        /* \"#utility.yul\":141:325   */\n      swap3\n      swap2\n      pop\n      pop\n      jump\t// out\n        /* \"#utility.yul\":331:477   */\n    tag_13:\n        /* \"#utility.yul\":412:416   */\n      0x00\n        /* \"#utility.yul\":435:438   */\n      dup2\n        /* \"#utility.yul\":427:438   */\n      swap1\n      pop\n        /* \"#utility.yul\":465:469   */\n      0x20\n        /* \"#utility.yul\":460:463   */\n      dup3\n        /* \"#utility.yul\":456:470   */\n      add\n        /* \"#utility.yul\":448:470   */\n      swap1\n      pop\n        /* \"#utility.yul\":331:477   */\n      swap2\n      swap1\n      pop\n      jump\t// out\n        /* \"#utility.yul\":483:609   */\n    tag_14:\n        /* \"#utility.yul\":520:527   */\n      0x00\n        /* \"#utility.yul\":560:602   */\n      0xffffffffffffffffffffffffffffffffffffffff\n        /* \"#utility.yul\":553:558   */\n      dup3\n        /* \"#utility.yul\":549:603   */\n      and\n        /* \"#utility.yul\":538:603   */\n      swap1\n      pop\n        /* \"#utility.yul\":483:609   */\n      swap2\n      swap1\n      pop\n      jump\t// out\n        /* \"#utility.yul\":615:675   */\n    tag_15:\n        /* \"#utility.yul\":643:646   */\n      0x00\n        /* \"#utility.yul\":664:669   */\n      dup2\n        /* \"#utility.yul\":657:669   */\n      swap1\n      pop\n        /* \"#utility.yul\":615:675   */\n      swap2\n      swap1\n      pop\n      jump\t// out\n        /* \"#utility.yul\":681:823   */\n    tag_16:\n        /* \"#utility.yul\":731:740   */\n      0x00\n        /* \"#utility.yul\":764:817   */\n      tag_30\n        /* \"#utility.yul\":782:816   */\n      tag_31\n        /* \"#utility.yul\":791:815   */\n      tag_32\n        /* \"#utility.yul\":809:814   */\n      dup5\n        /* \"#utility.yul\":791:815   */\n      tag_14\n      jump\t// in\n    tag_32:\n        /* \"#utility.yul\":782:816   */\n      tag_15\n      jump\t// in\n    tag_31:\n        /* \"#utility.yul\":764:817   */\n      tag_14\n      jump\t// in\n    tag_30:\n        /* \"#utility.yul\":751:817   */\n      swap1\n      pop\n        /* \"#utility.yul\":681:823   */\n      swap2\n      swap1\n      pop\n      jump\t// out\n        /* \"#utility.yul\":829:955   */\n    tag_17:\n        /* \"#utility.yul\":879:888   */\n      0x00\n        /* \"#utility.yul\":912:949   */\n      tag_34\n        /* \"#utility.yul\":943:948   */\n      dup3\n        /* \"#utility.yul\":912:949   */\n      tag_16\n      jump\t// in\n    tag_34:\n        /* \"#utility.yul\":899:949   */\n      swap1\n      pop\n        /* \"#utility.yul\":829:955   */\n      swap2\n      swap1\n      pop\n      jump\t// out\n        /* \"#utility.yul\":961:1101   */\n    tag_18:\n        /* \"#utility.yul\":1025:1034   */\n      0x00\n        /* \"#utility.yul\":1058:1095   */\n      tag_36\n        /* \"#utility.yul\":1089:1094   */\n      dup3\n        /* \"#utility.yul\":1058:1095   */\n      tag_17\n      jump\t// in\n    tag_36:\n        /* \"#utility.yul\":1045:1095   */\n      swap1\n      pop\n        /* \"#utility.yul\":961:1101   */\n      swap2\n      swap1\n      pop\n      jump\t// out\n        /* \"#utility.yul\":1107:1256   */\n    tag_19:\n        /* \"#utility.yul\":1198:1249   */\n      tag_38\n        /* \"#utility.yul\":1243:1248   */\n      dup2\n        /* \"#utility.yul\":1198:1249   */\n      tag_18\n      jump\t// in\n    tag_38:\n        /* \"#utility.yul\":1193:1196   */\n      dup3\n        /* \"#utility.yul\":1186:1250   */\n      mstore\n        /* \"#utility.yul\":1107:1256   */\n      pop\n      pop\n      jump\t// out\n        /* \"#utility.yul\":1262:1469   */\n    tag_20:\n        /* \"#utility.yul\":1345:1355   */\n      0x00\n        /* \"#utility.yul\":1366:1426   */\n      tag_40\n        /* \"#utility.yul\":1422:1425   */\n      dup4\n        /* \"#utility.yul\":1414:1420   */\n      dup4\n        /* \"#utility.yul\":1366:1426   */\n      tag_19\n      jump\t// in\n    tag_40:\n        /* \"#utility.yul\":1458:1462   */\n      0x20\n        /* \"#utility.yul\":1453:1456   */\n      dup4\n        /* \"#utility.yul\":1449:1463   */\n      add\n        /* \"#utility.yul\":1435:1463   */\n      swap1\n      pop\n        /* \"#utility.yul\":1262:1469   */\n      swap3\n      swap2\n      pop\n      pop\n      jump\t// out\n        /* \"#utility.yul\":1475:1602   */\n    tag_21:\n        /* \"#utility.yul\":1559:1563   */\n      0x00\n        /* \"#utility.yul\":1591:1595   */\n      0x20\n        /* \"#utility.yul\":1586:1589   */\n      dup3\n        /* \"#utility.yul\":1582:1596   */\n      add\n        /* \"#utility.yul\":1574:1596   */\n      swap1\n      pop\n        /* \"#utility.yul\":1475:1602   */\n      swap2\n      swap1\n      pop\n      jump\t// out\n        /* \"#utility.yul\":1647:2449   */\n    tag_22:\n        /* \"#utility.yul\":1780:1783   */\n      0x00\n        /* \"#utility.yul\":1809:1877   */\n      tag_43\n        /* \"#utility.yul\":1871:1876   */\n      dup3\n        /* \"#utility.yul\":1809:1877   */\n      tag_11\n      jump\t// in\n    tag_43:\n        /* \"#utility.yul\":1893:1979   */\n      tag_44\n        /* \"#utility.yul\":1972:1978   */\n      dup2\n        /* \"#utility.yul\":1967:1970   */\n      dup6\n        /* \"#utility.yul\":1893:1979   */\n      tag_12\n      jump\t// in\n    tag_44:\n        /* \"#utility.yul\":1886:1979   */\n      swap4\n      pop\n        /* \"#utility.yul\":2003:2073   */\n      tag_45\n        /* \"#utility.yul\":2067:2072   */\n      dup4\n        /* \"#utility.yul\":2003:2073   */\n      tag_13\n      jump\t// in\n    tag_45:\n        /* \"#utility.yul\":2096:2103   */\n      dup1\n        /* \"#utility.yul\":2127:2128   */\n      0x00\n        /* \"#utility.yul\":2112:2424   */\n    tag_46:\n        /* \"#utility.yul\":2137:2143   */\n      dup4\n        /* \"#utility.yul\":2134:2135   */\n      dup2\n        /* \"#utility.yul\":2131:2144   */\n      lt\n        /* \"#utility.yul\":2112:2424   */\n      iszero\n      tag_48\n      jumpi\n        /* \"#utility.yul\":2213:2219   */\n      dup2\n        /* \"#utility.yul\":2207:2220   */\n      mload\n        /* \"#utility.yul\":2240:2317   */\n      tag_49\n        /* \"#utility.yul\":2313:2316   */\n      dup9\n        /* \"#utility.yul\":2298:2311   */\n      dup3\n        /* \"#utility.yul\":2240:2317   */\n      tag_20\n      jump\t// in\n    tag_49:\n        /* \"#utility.yul\":2233:2317   */\n      swap8\n      pop\n        /* \"#utility.yul\":2340:2414   */\n      tag_50\n        /* \"#utility.yul\":2407:2413   */\n      dup4\n        /* \"#utility.yul\":2340:2414   */\n      tag_21\n      jump\t// in\n    tag_50:\n        /* \"#utility.yul\":2330:2414   */\n      swap3\n      pop\n        /* \"#utility.yul\":2172:2424   */\n      pop\n        /* \"#utility.yul\":2159:2160   */\n      0x01\n        /* \"#utility.yul\":2156:2157   */\n      dup2\n        /* \"#utility.yul\":2152:2161   */\n      add\n        /* \"#utility.yul\":2147:2161   */\n      swap1\n      pop\n        /* \"#utility.yul\":2112:2424   */\n      jump(tag_46)\n    tag_48:\n        /* \"#utility.yul\":2116:2130   */\n      pop\n        /* \"#utility.yul\":2440:2443   */\n      dup6\n        /* \"#utility.yul\":2433:2443   */\n      swap4\n      pop\n        /* \"#utility.yul\":1785:2449   */\n      pop\n      pop\n      pop\n        /* \"#utility.yul\":1647:2449   */\n      swap3\n      swap2\n      pop\n      pop\n      jump\t// out\n        /* \"#utility.yul\":2455:2856   */\n    tag_7:\n        /* \"#utility.yul\":2612:2616   */\n      0x00\n        /* \"#utility.yul\":2650:2652   */\n      0x20\n        /* \"#utility.yul\":2639:2648   */\n      dup3\n        /* \"#utility.yul\":2635:2653   */\n      add\n        /* \"#utility.yul\":2627:2653   */\n      swap1\n      pop\n        /* \"#utility.yul\":2699:2708   */\n      dup2\n        /* \"#utility.yul\":2693:2697   */\n      dup2\n        /* \"#utility.yul\":2689:2709   */\n      sub\n        /* \"#utility.yul\":2685:2686   */\n      0x00\n        /* \"#utility.yul\":2674:2683   */\n      dup4\n        /* \"#utility.yul\":2670:2687   */\n      add\n        /* \"#utility.yul\":2663:2710   */\n      mstore\n        /* \"#utility.yul\":2727:2849   */\n      tag_52\n        /* \"#utility.yul\":2844:2848   */\n      dup2\n        /* \"#utility.yul\":2835:2841   */\n      dup5\n        /* \"#utility.yul\":2727:2849   */\n      tag_22\n      jump\t// in\n    tag_52:\n        /* \"#utility.yul\":2719:2849   */\n      swap1\n      pop\n        /* \"#utility.yul\":2455:2856   */\n      swap3\n      swap2\n      pop\n      pop\n      jump\t// out\n\n    auxdata: 0xa264697066735822122035a8da2ae84f584c9d3c3a51049f6d5370f6ce1cd1d9f2b05411988419426c3e64736f6c634300080d0033\n}\n",
				"bytecode": {
					"linkReferences": {},
					"object": "608060405234801561001057600080fd5b50610262806100206000396000f3fe608060405234801561001057600080fd5b506004361061002b5760003560e01c806385b6e28e14610030575b600080fd5b61003861004e565b604051610045919061020a565b60405180910390f35b606060008054806020026020016040519081016040528092919081815260200182805480156100d257602002820191906000526020600020905b8160009054906101000a900473ffffffffffffffffffffffffffffffffffffffff1673ffffffffffffffffffffffffffffffffffffffff1681526020019060010190808311610088575b5050505050905090565b600081519050919050565b600082825260208201905092915050565b6000819050602082019050919050565b600073ffffffffffffffffffffffffffffffffffffffff82169050919050565b6000819050919050565b600061014d61014861014384610108565b610128565b610108565b9050919050565b600061015f82610132565b9050919050565b600061017182610154565b9050919050565b61018181610166565b82525050565b60006101938383610178565b60208301905092915050565b6000602082019050919050565b60006101b7826100dc565b6101c181856100e7565b93506101cc836100f8565b8060005b838110156101fd5781516101e48882610187565b97506101ef8361019f565b9250506001810190506101d0565b5085935050505092915050565b6000602082019050818103600083015261022481846101ac565b90509291505056fea264697066735822122035a8da2ae84f584c9d3c3a51049f6d5370f6ce1cd1d9f2b05411988419426c3e64736f6c634300080d0033",
					"opcodes": "PUSH1 0x80 PUSH1 0x40 MSTORE CALLVALUE DUP1 ISZERO PUSH2 0x10 JUMPI PUSH1 0x0 DUP1 REVERT JUMPDEST POP PUSH2 0x262 DUP1 PUSH2 0x20 PUSH1 0x0 CODECOPY PUSH1 0x0 RETURN INVALID PUSH1 0x80 PUSH1 0x40 MSTORE CALLVALUE DUP1 ISZERO PUSH2 0x10 JUMPI PUSH1 0x0 DUP1 REVERT JUMPDEST POP PUSH1 0x4 CALLDATASIZE LT PUSH2 0x2B JUMPI PUSH1 0x0 CALLDATALOAD PUSH1 0xE0 SHR DUP1 PUSH4 0x85B6E28E EQ PUSH2 0x30 JUMPI JUMPDEST PUSH1 0x0 DUP1 REVERT JUMPDEST PUSH2 0x38 PUSH2 0x4E JUMP JUMPDEST PUSH1 0x40 MLOAD PUSH2 0x45 SWAP2 SWAP1 PUSH2 0x20A JUMP JUMPDEST PUSH1 0x40 MLOAD DUP1 SWAP2 SUB SWAP1 RETURN JUMPDEST PUSH1 0x60 PUSH1 0x0 DUP1 SLOAD DUP1 PUSH1 0x20 MUL PUSH1 0x20 ADD PUSH1 0x40 MLOAD SWAP1 DUP2 ADD PUSH1 0x40 MSTORE DUP1 SWAP3 SWAP2 SWAP1 DUP2 DUP2 MSTORE PUSH1 0x20 ADD DUP3 DUP1 SLOAD DUP1 ISZERO PUSH2 0xD2 JUMPI PUSH1 0x20 MUL DUP3 ADD SWAP2 SWAP1 PUSH1 0x0 MSTORE PUSH1 0x20 PUSH1 0x0 KECCAK256 SWAP1 JUMPDEST DUP2 PUSH1 0x0 SWAP1 SLOAD SWAP1 PUSH2 0x100 EXP SWAP1 DIV PUSH20 0xFFFFFFFFFFFFFFFFFFFFFFFFFFFFFFFFFFFFFFFF AND PUSH20 0xFFFFFFFFFFFFFFFFFFFFFFFFFFFFFFFFFFFFFFFF AND DUP2 MSTORE PUSH1 0x20 ADD SWAP1 PUSH1 0x1 ADD SWAP1 DUP1 DUP4 GT PUSH2 0x88 JUMPI JUMPDEST POP POP POP POP POP SWAP1 POP SWAP1 JUMP JUMPDEST PUSH1 0x0 DUP2 MLOAD SWAP1 POP SWAP2 SWAP1 POP JUMP JUMPDEST PUSH1 0x0 DUP3 DUP3 MSTORE PUSH1 0x20 DUP3 ADD SWAP1 POP SWAP3 SWAP2 POP POP JUMP JUMPDEST PUSH1 0x0 DUP2 SWAP1 POP PUSH1 0x20 DUP3 ADD SWAP1 POP SWAP2 SWAP1 POP JUMP JUMPDEST PUSH1 0x0 PUSH20 0xFFFFFFFFFFFFFFFFFFFFFFFFFFFFFFFFFFFFFFFF DUP3 AND SWAP1 POP SWAP2 SWAP1 POP JUMP JUMPDEST PUSH1 0x0 DUP2 SWAP1 POP SWAP2 SWAP1 POP JUMP JUMPDEST PUSH1 0x0 PUSH2 0x14D PUSH2 0x148 PUSH2 0x143 DUP5 PUSH2 0x108 JUMP JUMPDEST PUSH2 0x128 JUMP JUMPDEST PUSH2 0x108 JUMP JUMPDEST SWAP1 POP SWAP2 SWAP1 POP JUMP JUMPDEST PUSH1 0x0 PUSH2 0x15F DUP3 PUSH2 0x132 JUMP JUMPDEST SWAP1 POP SWAP2 SWAP1 POP JUMP JUMPDEST PUSH1 0x0 PUSH2 0x171 DUP3 PUSH2 0x154 JUMP JUMPDEST SWAP1 POP SWAP2 SWAP1 POP JUMP JUMPDEST PUSH2 0x181 DUP2 PUSH2 0x166 JUMP JUMPDEST DUP3 MSTORE POP POP JUMP JUMPDEST PUSH1 0x0 PUSH2 0x193 DUP4 DUP4 PUSH2 0x178 JUMP JUMPDEST PUSH1 0x20 DUP4 ADD SWAP1 POP SWAP3 SWAP2 POP POP JUMP JUMPDEST PUSH1 0x0 PUSH1 0x20 DUP3 ADD SWAP1 POP SWAP2 SWAP1 POP JUMP JUMPDEST PUSH1 0x0 PUSH2 0x1B7 DUP3 PUSH2 0xDC JUMP JUMPDEST PUSH2 0x1C1 DUP2 DUP6 PUSH2 0xE7 JUMP JUMPDEST SWAP4 POP PUSH2 0x1CC DUP4 PUSH2 0xF8 JUMP JUMPDEST DUP1 PUSH1 0x0 JUMPDEST DUP4 DUP2 LT ISZERO PUSH2 0x1FD JUMPI DUP2 MLOAD PUSH2 0x1E4 DUP9 DUP3 PUSH2 0x187 JUMP JUMPDEST SWAP8 POP PUSH2 0x1EF DUP4 PUSH2 0x19F JUMP JUMPDEST SWAP3 POP POP PUSH1 0x1 DUP2 ADD SWAP1 POP PUSH2 0x1D0 JUMP JUMPDEST POP DUP6 SWAP4 POP POP POP POP SWAP3 SWAP2 POP POP JUMP JUMPDEST PUSH1 0x0 PUSH1 0x20 DUP3 ADD SWAP1 POP DUP2 DUP2 SUB PUSH1 0x0 DUP4 ADD MSTORE PUSH2 0x224 DUP2 DUP5 PUSH2 0x1AC JUMP JUMPDEST SWAP1 POP SWAP3 SWAP2 POP POP JUMP INVALID LOG2 PUSH5 0x6970667358 0x22 SLT KECCAK256 CALLDATALOAD 0xA8 0xDA 0x2A 0xE8 0x4F PC 0x4C SWAP14 EXTCODECOPY GASPRICE MLOAD DIV SWAP16 PUSH14 0x5370F6CE1CD1D9F2B05411988419 TIMESTAMP PUSH13 0x3E64736F6C634300080D003300 "
				},
				"gasEstimates": {
					"creation": {
						"codeDepositCost": "122000",
						"executionCost": "171",
						"totalCost": "122171"
					},
					"external": {
						"returnAllProjects()": "infinite"
					}
				},
				"methodIdentifiers": {
					"returnAllProjects()": "85b6e28e"
				}
			},
			"storageLayout": {
				"storage": [
					{
						"astId": 7,
						"contract": "contracts/Crowfunding.sol:Crowfunding",
						"label": "projects",
						"offset": 0,
						"slot": "0",
						"type": "t_array(t_contract(Project)63)dyn_storage"
					}
				],
				"types": {
					"t_array(t_contract(Project)63)dyn_storage": {
						"base": "t_contract(Project)63",
						"encoding": "dynamic_array",
						"label": "contract Project[]",
						"numberOfBytes": "32"
					},
					"t_contract(Project)63": {
						"encoding": "inplace",
						"label": "contract Project",
						"numberOfBytes": "20"
					}
				}
			},
			"userdoc": {
				"kind": "user",
				"methods": {},
				"version": 1
			}
		}
	}
}